{"contracts/RPS.sol":{"RPS":{"abi":[{"anonymous":false,"inputs":[{"indexed":false,"internalType":"bool","name":"","type":"bool"}],"name":"GameCommit","type":"event"},{"anonymous":false,"inputs":[{"indexed":false,"internalType":"uint256","name":"","type":"uint256"}],"name":"GameRegister","type":"event"},{"anonymous":false,"inputs":[{"indexed":false,"internalType":"enum RPS.GameChoice","name":"","type":"uint8"}],"name":"GameReveal","type":"event"},{"anonymous":false,"inputs":[{"indexed":false,"internalType":"enum RPS.GameOutcome","name":"","type":"uint8"}],"name":"GetGameOutcome","type":"event"},{"inputs":[],"name":"bothCommitted","outputs":[{"internalType":"bool","name":"","type":"bool"}],"stateMutability":"view","type":"function"},{"inputs":[],"name":"bothRevealed","outputs":[{"internalType":"bool","name":"","type":"bool"}],"stateMutability":"view","type":"function"},{"inputs":[{"internalType":"bytes32","name":"gameHash","type":"bytes32"}],"name":"commitMove","outputs":[{"internalType":"bool","name":"","type":"bool"}],"stateMutability":"nonpayable","type":"function"},{"inputs":[],"name":"endGames","outputs":[{"internalType":"enum RPS.GameOutcome","name":"","type":"uint8"}],"stateMutability":"nonpayable","type":"function"},{"inputs":[],"name":"getContractBalance","outputs":[{"internalType":"uint256","name":"","type":"uint256"}],"stateMutability":"view","type":"function"},{"inputs":[],"name":"increaseStake","outputs":[],"stateMutability":"payable","type":"function"},{"inputs":[{"internalType":"address","name":"player","type":"address"}],"name":"isCommitted","outputs":[{"internalType":"bool","name":"","type":"bool"}],"stateMutability":"view","type":"function"},{"inputs":[{"internalType":"address","name":"player","type":"address"}],"name":"isRegistered","outputs":[{"internalType":"bool","name":"","type":"bool"}],"stateMutability":"view","type":"function"},{"inputs":[{"internalType":"address","name":"player","type":"address"}],"name":"isRevealed","outputs":[{"internalType":"bool","name":"","type":"bool"}],"stateMutability":"view","type":"function"},{"inputs":[],"name":"outcome","outputs":[{"internalType":"enum RPS.GameOutcome","name":"","type":"uint8"}],"stateMutability":"view","type":"function"},{"inputs":[],"name":"regPlayer","outputs":[{"internalType":"uint256","name":"","type":"uint256"}],"stateMutability":"payable","type":"function"},{"inputs":[],"name":"resetExternal","outputs":[],"stateMutability":"nonpayable","type":"function"},{"inputs":[{"internalType":"uint256","name":"choice","type":"uint256"},{"internalType":"bytes32","name":"salt","type":"bytes32"}],"name":"revealChoice","outputs":[{"internalType":"enum RPS.GameChoice","name":"","type":"uint8"}],"stateMutability":"nonpayable","type":"function"},{"inputs":[],"name":"stake","outputs":[{"internalType":"uint256","name":"","type":"uint256"}],"stateMutability":"view","type":"function"}],"evm":{"bytecode":{"linkReferences":{},"object":"608060405234801561001057600080fd5b506122ba806100206000396000f3fe6080604052600436106100dd5760003560e01c80638c10bb961161007f578063af2d251711610059578063af2d2517146102b9578063c3c5a547146102d0578063d9e257ef1461030d578063e711a81214610317576100dd565b80638c10bb961461021457806392c9048014610251578063a9ea37b61461027c576100dd565b806327793f87116100bb57806327793f87146101685780633a4b66f11461019357806343445ca8146101be5780636f9fb98a146101e9576100dd565b806311b0af15146100e257806315b80df81461010d578063207377961461014a575b600080fd5b3480156100ee57600080fd5b506100f7610354565b6040516101049190611859565b60405180910390f35b34801561011957600080fd5b50610134600480360381019061012f91906118d7565b610732565b604051610141919061191f565b60405180910390f35b610152610804565b60405161015f9190611953565b60405180910390f35b34801561017457600080fd5b5061017d610b7a565b60405161018a9190611859565b60405180910390f35b34801561019f57600080fd5b506101a8610b8d565b6040516101b59190611953565b60405180910390f35b3480156101ca57600080fd5b506101d3610b93565b6040516101e0919061191f565b60405180910390f35b3480156101f557600080fd5b506101fe610c11565b60405161020b9190611953565b60405180910390f35b34801561022057600080fd5b5061023b600480360381019061023691906119d0565b610c19565b6040516102489190611a58565b60405180910390f35b34801561025d57600080fd5b50610266611063565b604051610273919061191f565b60405180910390f35b34801561028857600080fd5b506102a3600480360381019061029e9190611a73565b611084565b6040516102b0919061191f565b60405180910390f35b3480156102c557600080fd5b506102ce611318565b005b3480156102dc57600080fd5b506102f760048036038101906102f291906118d7565b6113a4565b604051610304919061191f565b60405180910390f35b610315611454565b005b34801561032357600080fd5b5061033e600480360381019061033991906118d7565b611588565b60405161034b919061191f565b60405180910390f35b6000806003811115610369576103686117e2565b5b600360019054906101000a900460ff16600381111561038b5761038a6117e2565b5b141580156103cd5750600060038111156103a8576103a76117e2565b5b600360029054906101000a900460ff1660038111156103ca576103c96117e2565b5b14155b61040c576040517f08c379a000000000000000000000000000000000000000000000000000000000815260040161040390611b23565b60405180910390fd5b60038060029054906101000a900460ff16600381111561042f5761042e6117e2565b5b600360019054906101000a900460ff166003811115610451576104506117e2565b5b600361045d9190611b72565b6104679190611ba6565b6104719190611c09565b6002811115610483576104826117e2565b5b600360006101000a81548160ff021916908360028111156104a7576104a66117e2565b5b0217905550600160028111156104c0576104bf6117e2565b5b600360009054906101000a900460ff1660028111156104e2576104e16117e2565b5b036105535760008054906101000a900473ffffffffffffffffffffffffffffffffffffffff1673ffffffffffffffffffffffffffffffffffffffff166108fc479081150290604051600060405180830381858888f1935050505015801561054d573d6000803e3d6000fd5b506106cf565b600280811115610566576105656117e2565b5b600360009054906101000a900460ff166002811115610588576105876117e2565b5b036105fb57600160009054906101000a900473ffffffffffffffffffffffffffffffffffffffff1673ffffffffffffffffffffffffffffffffffffffff166108fc479081150290604051600060405180830381858888f193505050501580156105f5573d6000803e3d6000fd5b506106ce565b60008054906101000a900473ffffffffffffffffffffffffffffffffffffffff1673ffffffffffffffffffffffffffffffffffffffff166108fc6002549081150290604051600060405180830381858888f19350505050158015610663573d6000803e3d6000fd5b50600160009054906101000a900473ffffffffffffffffffffffffffffffffffffffff1673ffffffffffffffffffffffffffffffffffffffff166108fc479081150290604051600060405180830381858888f193505050501580156106cc573d6000803e3d6000fd5b505b5b6106d76116b8565b7f6d1a16000380c9adde391bcb46a92c2ce8c46811cff002ed5dec38dfdc2373cd600360009054906101000a900460ff166040516107159190611859565b60405180910390a1600360009054906101000a900460ff16905090565b60008173ffffffffffffffffffffffffffffffffffffffff1660008054906101000a900473ffffffffffffffffffffffffffffffffffffffff1673ffffffffffffffffffffffffffffffffffffffff1614801561079457506000801b60045414155b806107fd57508173ffffffffffffffffffffffffffffffffffffffff16600160009054906101000a900473ffffffffffffffffffffffffffffffffffffffff1673ffffffffffffffffffffffffffffffffffffffff161480156107fc57506000801b60055414155b5b9050919050565b60006103e834101561084b576040517f08c379a000000000000000000000000000000000000000000000000000000000815260040161084290611cac565b60405180910390fd5b6000600254148061085e57506002543410155b61089d576040517f08c379a000000000000000000000000000000000000000000000000000000000815260040161089490611d18565b60405180910390fd5b60008054906101000a900473ffffffffffffffffffffffffffffffffffffffff1673ffffffffffffffffffffffffffffffffffffffff163373ffffffffffffffffffffffffffffffffffffffff16141580156109475750600160009054906101000a900473ffffffffffffffffffffffffffffffffffffffff1673ffffffffffffffffffffffffffffffffffffffff163373ffffffffffffffffffffffffffffffffffffffff1614155b610986576040517f08c379a000000000000000000000000000000000000000000000000000000000815260040161097d90611daa565b60405180910390fd5b600073ffffffffffffffffffffffffffffffffffffffff1660008054906101000a900473ffffffffffffffffffffffffffffffffffffffff1673ffffffffffffffffffffffffffffffffffffffff1603610a6257336000806101000a81548173ffffffffffffffffffffffffffffffffffffffff021916908373ffffffffffffffffffffffffffffffffffffffff160217905550346002819055507f982cddadd143916f714d5e4cdb1fdbf71a3a44c802807791f444525464ad42ad6001604051610a519190611e0f565b60405180910390a160019050610b77565b600073ffffffffffffffffffffffffffffffffffffffff16600160009054906101000a900473ffffffffffffffffffffffffffffffffffffffff1673ffffffffffffffffffffffffffffffffffffffff1603610b3a5733600160006101000a81548173ffffffffffffffffffffffffffffffffffffffff021916908373ffffffffffffffffffffffffffffffffffffffff1602179055507f982cddadd143916f714d5e4cdb1fdbf71a3a44c802807791f444525464ad42ad6002604051610b299190611e65565b60405180910390a160029050610b77565b7f982cddadd143916f714d5e4cdb1fdbf71a3a44c802807791f444525464ad42ad6000604051610b6a9190611ebb565b60405180910390a1600090505b90565b600360009054906101000a900460ff1681565b60025481565b6000806003811115610ba857610ba76117e2565b5b600360019054906101000a900460ff166003811115610bca57610bc96117e2565b5b14158015610c0c575060006003811115610be757610be66117e2565b5b600360029054906101000a900460ff166003811115610c0957610c086117e2565b5b14155b905090565b600047905090565b60008060009054906101000a900473ffffffffffffffffffffffffffffffffffffffff1673ffffffffffffffffffffffffffffffffffffffff163373ffffffffffffffffffffffffffffffffffffffff161480610cc35750600160009054906101000a900473ffffffffffffffffffffffffffffffffffffffff1673ffffffffffffffffffffffffffffffffffffffff163373ffffffffffffffffffffffffffffffffffffffff16145b610d02576040517f08c379a0000000000000000000000000000000000000000000000000000000008152600401610cf990611f22565b60405180910390fd5b8260018110158015610d15575060038111155b610d54576040517f08c379a0000000000000000000000000000000000000000000000000000000008152600401610d4b90611f8e565b60405180910390fd5b6000801b60045414158015610d6e57506000801b60055414155b610dad576040517f08c379a0000000000000000000000000000000000000000000000000000000008152600401610da490612020565b60405180910390fd5b3373ffffffffffffffffffffffffffffffffffffffff1660008054906101000a900473ffffffffffffffffffffffffffffffffffffffff1673ffffffffffffffffffffffffffffffffffffffff1603610ee657610e0a84846117af565b60045414610e4d576040517f08c379a0000000000000000000000000000000000000000000000000000000008152600401610e449061208c565b60405180910390fd5b836003811115610e6057610e5f6117e2565b5b600360016101000a81548160ff02191690836003811115610e8457610e836117e2565b5b02179055507f47c7acbd4d57f5dbc1f9e9d1f9e0899016b547afbad29e7a416a892b44898e97600360019054906101000a900460ff16604051610ec79190611a58565b60405180910390a1600360019054906101000a900460ff16915061105c565b3373ffffffffffffffffffffffffffffffffffffffff16600160009054906101000a900473ffffffffffffffffffffffffffffffffffffffff1673ffffffffffffffffffffffffffffffffffffffff160361102157610f4584846117af565b60055414610f88576040517f08c379a0000000000000000000000000000000000000000000000000000000008152600401610f7f9061208c565b60405180910390fd5b836003811115610f9b57610f9a6117e2565b5b600360026101000a81548160ff02191690836003811115610fbf57610fbe6117e2565b5b02179055507f47c7acbd4d57f5dbc1f9e9d1f9e0899016b547afbad29e7a416a892b44898e97600360029054906101000a900460ff166040516110029190611a58565b60405180910390a1600360029054906101000a900460ff16915061105c565b6040517f08c379a0000000000000000000000000000000000000000000000000000000008152600401611053906120f8565b60405180910390fd5b5092915050565b60008060001b6004541415801561107f57506000801b60055414155b905090565b60008060009054906101000a900473ffffffffffffffffffffffffffffffffffffffff1673ffffffffffffffffffffffffffffffffffffffff163373ffffffffffffffffffffffffffffffffffffffff16148061112e5750600160009054906101000a900473ffffffffffffffffffffffffffffffffffffffff1673ffffffffffffffffffffffffffffffffffffffff163373ffffffffffffffffffffffffffffffffffffffff16145b61116d576040517f08c379a000000000000000000000000000000000000000000000000000000000815260040161116490611f22565b60405180910390fd5b81600081036111b1576040517f08c379a00000000000000000000000000000000000000000000000000000000081526004016111a890612164565b60405180910390fd5b60008054906101000a900473ffffffffffffffffffffffffffffffffffffffff1673ffffffffffffffffffffffffffffffffffffffff163373ffffffffffffffffffffffffffffffffffffffff1614801561121057506000801b600454145b1561122157826004819055506112d5565b600160009054906101000a900473ffffffffffffffffffffffffffffffffffffffff1673ffffffffffffffffffffffffffffffffffffffff163373ffffffffffffffffffffffffffffffffffffffff1614801561128257506000801b600554145b1561129357826005819055506112d4565b7fd0e0eee22af482d2b75b0facf637b601c155f06c6f143b473711527a01110f8460006040516112c3919061191f565b60405180910390a160009150611312565b5b7fd0e0eee22af482d2b75b0facf637b601c155f06c6f143b473711527a01110f846001604051611305919061191f565b60405180910390a1600191505b50919050565b7391cda83c363a6f72f81a2041836b1e79b4a01ab173ffffffffffffffffffffffffffffffffffffffff163373ffffffffffffffffffffffffffffffffffffffff161461139a576040517f08c379a0000000000000000000000000000000000000000000000000000000008152600401611391906121f6565b60405180910390fd5b6113a26116b8565b565b60008173ffffffffffffffffffffffffffffffffffffffff1660008054906101000a900473ffffffffffffffffffffffffffffffffffffffff1673ffffffffffffffffffffffffffffffffffffffff16148061144d57508173ffffffffffffffffffffffffffffffffffffffff16600160009054906101000a900473ffffffffffffffffffffffffffffffffffffffff1673ffffffffffffffffffffffffffffffffffffffff16145b9050919050565b7391cda83c363a6f72f81a2041836b1e79b4a01ab173ffffffffffffffffffffffffffffffffffffffff163373ffffffffffffffffffffffffffffffffffffffff16146114d6576040517f08c379a00000000000000000000000000000000000000000000000000000000081526004016114cd906121f6565b60405180910390fd5b6103e834101561151b576040517f08c379a000000000000000000000000000000000000000000000000000000000815260040161151290611cac565b60405180910390fd5b6000600254148061152e57506002543410155b61156d576040517f08c379a000000000000000000000000000000000000000000000000000000000815260040161156490611d18565b60405180910390fd5b346002600082825461157f9190611b72565b92505081905550565b60008173ffffffffffffffffffffffffffffffffffffffff1660008054906101000a900473ffffffffffffffffffffffffffffffffffffffff1673ffffffffffffffffffffffffffffffffffffffff161480156116195750600060038111156115f4576115f36117e2565b5b600360019054906101000a900460ff166003811115611616576116156117e2565b5b14155b806116b157508173ffffffffffffffffffffffffffffffffffffffff16600160009054906101000a900473ffffffffffffffffffffffffffffffffffffffff1673ffffffffffffffffffffffffffffffffffffffff161480156116b057506000600381111561168b5761168a6117e2565b5b600360029054906101000a900460ff1660038111156116ad576116ac6117e2565b5b14155b5b9050919050565b600060028190555060008060006101000a81548173ffffffffffffffffffffffffffffffffffffffff021916908373ffffffffffffffffffffffffffffffffffffffff1602179055506000600160006101000a81548173ffffffffffffffffffffffffffffffffffffffff021916908373ffffffffffffffffffffffffffffffffffffffff1602179055506000801b6004819055506000801b6005819055506000600360016101000a81548160ff0219169083600381111561177d5761177c6117e2565b5b02179055506000600360026101000a81548160ff021916908360038111156117a8576117a76117e2565b5b0217905550565b600082826040516020016117c4929190612258565b60405160208183030381529060405280519060200120905092915050565b7f4e487b7100000000000000000000000000000000000000000000000000000000600052602160045260246000fd5b60038110611822576118216117e2565b5b50565b600081905061183382611811565b919050565b600061184382611825565b9050919050565b61185381611838565b82525050565b600060208201905061186e600083018461184a565b92915050565b600080fd5b600073ffffffffffffffffffffffffffffffffffffffff82169050919050565b60006118a482611879565b9050919050565b6118b481611899565b81146118bf57600080fd5b50565b6000813590506118d1816118ab565b92915050565b6000602082840312156118ed576118ec611874565b5b60006118fb848285016118c2565b91505092915050565b60008115159050919050565b61191981611904565b82525050565b60006020820190506119346000830184611910565b92915050565b6000819050919050565b61194d8161193a565b82525050565b60006020820190506119686000830184611944565b92915050565b6119778161193a565b811461198257600080fd5b50565b6000813590506119948161196e565b92915050565b6000819050919050565b6119ad8161199a565b81146119b857600080fd5b50565b6000813590506119ca816119a4565b92915050565b600080604083850312156119e7576119e6611874565b5b60006119f585828601611985565b9250506020611a06858286016119bb565b9150509250929050565b60048110611a2157611a206117e2565b5b50565b6000819050611a3282611a10565b919050565b6000611a4282611a24565b9050919050565b611a5281611a37565b82525050565b6000602082019050611a6d6000830184611a49565b92915050565b600060208284031215611a8957611a88611874565b5b6000611a97848285016119bb565b91505092915050565b600082825260208201905092915050565b7f4f6e65206f662074686520706c6179657273206f7220626f746820646964206e60008201527f6f7420636f6d6d69740000000000000000000000000000000000000000000000602082015250565b6000611b0d602983611aa0565b9150611b1882611ab1565b604082019050919050565b60006020820190508181036000830152611b3c81611b00565b9050919050565b7f4e487b7100000000000000000000000000000000000000000000000000000000600052601160045260246000fd5b6000611b7d8261193a565b9150611b888361193a565b9250828201905080821115611ba057611b9f611b43565b5b92915050565b6000611bb18261193a565b9150611bbc8361193a565b9250828203905081811115611bd457611bd3611b43565b5b92915050565b7f4e487b7100000000000000000000000000000000000000000000000000000000600052601260045260246000fd5b6000611c148261193a565b9150611c1f8361193a565b925082611c2f57611c2e611bda565b5b828206905092915050565b7f426574206973206c6f776572207468616e20706f737369626c65206d696e696d60008201527f756d000000000000000000000000000000000000000000000000000000000000602082015250565b6000611c96602283611aa0565b9150611ca182611c3a565b604082019050919050565b60006020820190508181036000830152611cc581611c89565b9050919050565b7f50726f626c656d207769746820746865207374616b6500000000000000000000600082015250565b6000611d02601683611aa0565b9150611d0d82611ccc565b602082019050919050565b60006020820190508181036000830152611d3181611cf5565b9050919050565b7f5468697320706c617965722068617320616c726561647920726567697374657260008201527f6564000000000000000000000000000000000000000000000000000000000000602082015250565b6000611d94602283611aa0565b9150611d9f82611d38565b604082019050919050565b60006020820190508181036000830152611dc381611d87565b9050919050565b6000819050919050565b6000819050919050565b6000611df9611df4611def84611dca565b611dd4565b61193a565b9050919050565b611e0981611dde565b82525050565b6000602082019050611e246000830184611e00565b92915050565b6000819050919050565b6000611e4f611e4a611e4584611e2a565b611dd4565b61193a565b9050919050565b611e5f81611e34565b82525050565b6000602082019050611e7a6000830184611e56565b92915050565b6000819050919050565b6000611ea5611ea0611e9b84611e80565b611dd4565b61193a565b9050919050565b611eb581611e8a565b82525050565b6000602082019050611ed06000830184611eac565b92915050565b7f4e6f74207265676973746572656420706c617965722079657400000000000000600082015250565b6000611f0c601983611aa0565b9150611f1782611ed6565b602082019050919050565b60006020820190508181036000830152611f3b81611eff565b9050919050565b7f496e636f72726563742063686f69636500000000000000000000000000000000600082015250565b6000611f78601083611aa0565b9150611f8382611f42565b602082019050919050565b60006020820190508181036000830152611fa781611f6b565b9050919050565b7f4f6e65206f662074686520706c6179657273206f7220626f746820646964206e60008201527f6f74207265676973746572656400000000000000000000000000000000000000602082015250565b600061200a602d83611aa0565b915061201582611fae565b604082019050919050565b6000602082019050818103600083015261203981611ffd565b9050919050565b7f70726f626c656d20776974682073616c74000000000000000000000000000000600082015250565b6000612076601183611aa0565b915061208182612040565b602082019050919050565b600060208201905081810360008301526120a581612069565b9050919050565b7f50726f626c656d20776974682061646472657373657300000000000000000000600082015250565b60006120e2601683611aa0565b91506120ed826120ac565b602082019050919050565b60006020820190508181036000830152612111816120d5565b9050919050565b7f47616d65206861736820776173206e6f742070726f7669646564000000000000600082015250565b600061214e601a83611aa0565b915061215982612118565b602082019050919050565b6000602082019050818103600083015261217d81612141565b9050919050565b7f4f6e6c79206f776e6572206f6620636f6e747261637420697320616c6c6f776560008201527f6420746f2074686973206d6574686f6400000000000000000000000000000000602082015250565b60006121e0603083611aa0565b91506121eb82612184565b604082019050919050565b6000602082019050818103600083015261220f816121d3565b9050919050565b6000819050919050565b61223161222c8261193a565b612216565b82525050565b6000819050919050565b61225261224d8261199a565b612237565b82525050565b60006122648285612220565b6020820191506122748284612241565b602082019150819050939250505056fea2646970667358221220fdc9e7f6cb981d61ad39b918035971729ed19aaad22bf36037c41c6e2b664fef64736f6c63430008110033","opcodes":"PUSH1 0x80 PUSH1 0x40 MSTORE CALLVALUE DUP1 ISZERO PUSH2 0x10 JUMPI PUSH1 0x0 DUP1 REVERT JUMPDEST POP PUSH2 0x22BA DUP1 PUSH2 0x20 PUSH1 0x0 CODECOPY PUSH1 0x0 RETURN INVALID PUSH1 0x80 PUSH1 0x40 MSTORE PUSH1 0x4 CALLDATASIZE LT PUSH2 0xDD JUMPI PUSH1 0x0 CALLDATALOAD PUSH1 0xE0 SHR DUP1 PUSH4 0x8C10BB96 GT PUSH2 0x7F JUMPI DUP1 PUSH4 0xAF2D2517 GT PUSH2 0x59 JUMPI DUP1 PUSH4 0xAF2D2517 EQ PUSH2 0x2B9 JUMPI DUP1 PUSH4 0xC3C5A547 EQ PUSH2 0x2D0 JUMPI DUP1 PUSH4 0xD9E257EF EQ PUSH2 0x30D JUMPI DUP1 PUSH4 0xE711A812 EQ PUSH2 0x317 JUMPI PUSH2 0xDD JUMP JUMPDEST DUP1 PUSH4 0x8C10BB96 EQ PUSH2 0x214 JUMPI DUP1 PUSH4 0x92C90480 EQ PUSH2 0x251 JUMPI DUP1 PUSH4 0xA9EA37B6 EQ PUSH2 0x27C JUMPI PUSH2 0xDD JUMP JUMPDEST DUP1 PUSH4 0x27793F87 GT PUSH2 0xBB JUMPI DUP1 PUSH4 0x27793F87 EQ PUSH2 0x168 JUMPI DUP1 PUSH4 0x3A4B66F1 EQ PUSH2 0x193 JUMPI DUP1 PUSH4 0x43445CA8 EQ PUSH2 0x1BE JUMPI DUP1 PUSH4 0x6F9FB98A EQ PUSH2 0x1E9 JUMPI PUSH2 0xDD JUMP JUMPDEST DUP1 PUSH4 0x11B0AF15 EQ PUSH2 0xE2 JUMPI DUP1 PUSH4 0x15B80DF8 EQ PUSH2 0x10D JUMPI DUP1 PUSH4 0x20737796 EQ PUSH2 0x14A JUMPI JUMPDEST PUSH1 0x0 DUP1 REVERT JUMPDEST CALLVALUE DUP1 ISZERO PUSH2 0xEE JUMPI PUSH1 0x0 DUP1 REVERT JUMPDEST POP PUSH2 0xF7 PUSH2 0x354 JUMP JUMPDEST PUSH1 0x40 MLOAD PUSH2 0x104 SWAP2 SWAP1 PUSH2 0x1859 JUMP JUMPDEST PUSH1 0x40 MLOAD DUP1 SWAP2 SUB SWAP1 RETURN JUMPDEST CALLVALUE DUP1 ISZERO PUSH2 0x119 JUMPI PUSH1 0x0 DUP1 REVERT JUMPDEST POP PUSH2 0x134 PUSH1 0x4 DUP1 CALLDATASIZE SUB DUP2 ADD SWAP1 PUSH2 0x12F SWAP2 SWAP1 PUSH2 0x18D7 JUMP JUMPDEST PUSH2 0x732 JUMP JUMPDEST PUSH1 0x40 MLOAD PUSH2 0x141 SWAP2 SWAP1 PUSH2 0x191F JUMP JUMPDEST PUSH1 0x40 MLOAD DUP1 SWAP2 SUB SWAP1 RETURN JUMPDEST PUSH2 0x152 PUSH2 0x804 JUMP JUMPDEST PUSH1 0x40 MLOAD PUSH2 0x15F SWAP2 SWAP1 PUSH2 0x1953 JUMP JUMPDEST PUSH1 0x40 MLOAD DUP1 SWAP2 SUB SWAP1 RETURN JUMPDEST CALLVALUE DUP1 ISZERO PUSH2 0x174 JUMPI PUSH1 0x0 DUP1 REVERT JUMPDEST POP PUSH2 0x17D PUSH2 0xB7A JUMP JUMPDEST PUSH1 0x40 MLOAD PUSH2 0x18A SWAP2 SWAP1 PUSH2 0x1859 JUMP JUMPDEST PUSH1 0x40 MLOAD DUP1 SWAP2 SUB SWAP1 RETURN JUMPDEST CALLVALUE DUP1 ISZERO PUSH2 0x19F JUMPI PUSH1 0x0 DUP1 REVERT JUMPDEST POP PUSH2 0x1A8 PUSH2 0xB8D JUMP JUMPDEST PUSH1 0x40 MLOAD PUSH2 0x1B5 SWAP2 SWAP1 PUSH2 0x1953 JUMP JUMPDEST PUSH1 0x40 MLOAD DUP1 SWAP2 SUB SWAP1 RETURN JUMPDEST CALLVALUE DUP1 ISZERO PUSH2 0x1CA JUMPI PUSH1 0x0 DUP1 REVERT JUMPDEST POP PUSH2 0x1D3 PUSH2 0xB93 JUMP JUMPDEST PUSH1 0x40 MLOAD PUSH2 0x1E0 SWAP2 SWAP1 PUSH2 0x191F JUMP JUMPDEST PUSH1 0x40 MLOAD DUP1 SWAP2 SUB SWAP1 RETURN JUMPDEST CALLVALUE DUP1 ISZERO PUSH2 0x1F5 JUMPI PUSH1 0x0 DUP1 REVERT JUMPDEST POP PUSH2 0x1FE PUSH2 0xC11 JUMP JUMPDEST PUSH1 0x40 MLOAD PUSH2 0x20B SWAP2 SWAP1 PUSH2 0x1953 JUMP JUMPDEST PUSH1 0x40 MLOAD DUP1 SWAP2 SUB SWAP1 RETURN JUMPDEST CALLVALUE DUP1 ISZERO PUSH2 0x220 JUMPI PUSH1 0x0 DUP1 REVERT JUMPDEST POP PUSH2 0x23B PUSH1 0x4 DUP1 CALLDATASIZE SUB DUP2 ADD SWAP1 PUSH2 0x236 SWAP2 SWAP1 PUSH2 0x19D0 JUMP JUMPDEST PUSH2 0xC19 JUMP JUMPDEST PUSH1 0x40 MLOAD PUSH2 0x248 SWAP2 SWAP1 PUSH2 0x1A58 JUMP JUMPDEST PUSH1 0x40 MLOAD DUP1 SWAP2 SUB SWAP1 RETURN JUMPDEST CALLVALUE DUP1 ISZERO PUSH2 0x25D JUMPI PUSH1 0x0 DUP1 REVERT JUMPDEST POP PUSH2 0x266 PUSH2 0x1063 JUMP JUMPDEST PUSH1 0x40 MLOAD PUSH2 0x273 SWAP2 SWAP1 PUSH2 0x191F JUMP JUMPDEST PUSH1 0x40 MLOAD DUP1 SWAP2 SUB SWAP1 RETURN JUMPDEST CALLVALUE DUP1 ISZERO PUSH2 0x288 JUMPI PUSH1 0x0 DUP1 REVERT JUMPDEST POP PUSH2 0x2A3 PUSH1 0x4 DUP1 CALLDATASIZE SUB DUP2 ADD SWAP1 PUSH2 0x29E SWAP2 SWAP1 PUSH2 0x1A73 JUMP JUMPDEST PUSH2 0x1084 JUMP JUMPDEST PUSH1 0x40 MLOAD PUSH2 0x2B0 SWAP2 SWAP1 PUSH2 0x191F JUMP JUMPDEST PUSH1 0x40 MLOAD DUP1 SWAP2 SUB SWAP1 RETURN JUMPDEST CALLVALUE DUP1 ISZERO PUSH2 0x2C5 JUMPI PUSH1 0x0 DUP1 REVERT JUMPDEST POP PUSH2 0x2CE PUSH2 0x1318 JUMP JUMPDEST STOP JUMPDEST CALLVALUE DUP1 ISZERO PUSH2 0x2DC JUMPI PUSH1 0x0 DUP1 REVERT JUMPDEST POP PUSH2 0x2F7 PUSH1 0x4 DUP1 CALLDATASIZE SUB DUP2 ADD SWAP1 PUSH2 0x2F2 SWAP2 SWAP1 PUSH2 0x18D7 JUMP JUMPDEST PUSH2 0x13A4 JUMP JUMPDEST PUSH1 0x40 MLOAD PUSH2 0x304 SWAP2 SWAP1 PUSH2 0x191F JUMP JUMPDEST PUSH1 0x40 MLOAD DUP1 SWAP2 SUB SWAP1 RETURN JUMPDEST PUSH2 0x315 PUSH2 0x1454 JUMP JUMPDEST STOP JUMPDEST CALLVALUE DUP1 ISZERO PUSH2 0x323 JUMPI PUSH1 0x0 DUP1 REVERT JUMPDEST POP PUSH2 0x33E PUSH1 0x4 DUP1 CALLDATASIZE SUB DUP2 ADD SWAP1 PUSH2 0x339 SWAP2 SWAP1 PUSH2 0x18D7 JUMP JUMPDEST PUSH2 0x1588 JUMP JUMPDEST PUSH1 0x40 MLOAD PUSH2 0x34B SWAP2 SWAP1 PUSH2 0x191F JUMP JUMPDEST PUSH1 0x40 MLOAD DUP1 SWAP2 SUB SWAP1 RETURN JUMPDEST PUSH1 0x0 DUP1 PUSH1 0x3 DUP2 GT ISZERO PUSH2 0x369 JUMPI PUSH2 0x368 PUSH2 0x17E2 JUMP JUMPDEST JUMPDEST PUSH1 0x3 PUSH1 0x1 SWAP1 SLOAD SWAP1 PUSH2 0x100 EXP SWAP1 DIV PUSH1 0xFF AND PUSH1 0x3 DUP2 GT ISZERO PUSH2 0x38B JUMPI PUSH2 0x38A PUSH2 0x17E2 JUMP JUMPDEST JUMPDEST EQ ISZERO DUP1 ISZERO PUSH2 0x3CD JUMPI POP PUSH1 0x0 PUSH1 0x3 DUP2 GT ISZERO PUSH2 0x3A8 JUMPI PUSH2 0x3A7 PUSH2 0x17E2 JUMP JUMPDEST JUMPDEST PUSH1 0x3 PUSH1 0x2 SWAP1 SLOAD SWAP1 PUSH2 0x100 EXP SWAP1 DIV PUSH1 0xFF AND PUSH1 0x3 DUP2 GT ISZERO PUSH2 0x3CA JUMPI PUSH2 0x3C9 PUSH2 0x17E2 JUMP JUMPDEST JUMPDEST EQ ISZERO JUMPDEST PUSH2 0x40C JUMPI PUSH1 0x40 MLOAD PUSH32 0x8C379A000000000000000000000000000000000000000000000000000000000 DUP2 MSTORE PUSH1 0x4 ADD PUSH2 0x403 SWAP1 PUSH2 0x1B23 JUMP JUMPDEST PUSH1 0x40 MLOAD DUP1 SWAP2 SUB SWAP1 REVERT JUMPDEST PUSH1 0x3 DUP1 PUSH1 0x2 SWAP1 SLOAD SWAP1 PUSH2 0x100 EXP SWAP1 DIV PUSH1 0xFF AND PUSH1 0x3 DUP2 GT ISZERO PUSH2 0x42F JUMPI PUSH2 0x42E PUSH2 0x17E2 JUMP JUMPDEST JUMPDEST PUSH1 0x3 PUSH1 0x1 SWAP1 SLOAD SWAP1 PUSH2 0x100 EXP SWAP1 DIV PUSH1 0xFF AND PUSH1 0x3 DUP2 GT ISZERO PUSH2 0x451 JUMPI PUSH2 0x450 PUSH2 0x17E2 JUMP JUMPDEST JUMPDEST PUSH1 0x3 PUSH2 0x45D SWAP2 SWAP1 PUSH2 0x1B72 JUMP JUMPDEST PUSH2 0x467 SWAP2 SWAP1 PUSH2 0x1BA6 JUMP JUMPDEST PUSH2 0x471 SWAP2 SWAP1 PUSH2 0x1C09 JUMP JUMPDEST PUSH1 0x2 DUP2 GT ISZERO PUSH2 0x483 JUMPI PUSH2 0x482 PUSH2 0x17E2 JUMP JUMPDEST JUMPDEST PUSH1 0x3 PUSH1 0x0 PUSH2 0x100 EXP DUP2 SLOAD DUP2 PUSH1 0xFF MUL NOT AND SWAP1 DUP4 PUSH1 0x2 DUP2 GT ISZERO PUSH2 0x4A7 JUMPI PUSH2 0x4A6 PUSH2 0x17E2 JUMP JUMPDEST JUMPDEST MUL OR SWAP1 SSTORE POP PUSH1 0x1 PUSH1 0x2 DUP2 GT ISZERO PUSH2 0x4C0 JUMPI PUSH2 0x4BF PUSH2 0x17E2 JUMP JUMPDEST JUMPDEST PUSH1 0x3 PUSH1 0x0 SWAP1 SLOAD SWAP1 PUSH2 0x100 EXP SWAP1 DIV PUSH1 0xFF AND PUSH1 0x2 DUP2 GT ISZERO PUSH2 0x4E2 JUMPI PUSH2 0x4E1 PUSH2 0x17E2 JUMP JUMPDEST JUMPDEST SUB PUSH2 0x553 JUMPI PUSH1 0x0 DUP1 SLOAD SWAP1 PUSH2 0x100 EXP SWAP1 DIV PUSH20 0xFFFFFFFFFFFFFFFFFFFFFFFFFFFFFFFFFFFFFFFF AND PUSH20 0xFFFFFFFFFFFFFFFFFFFFFFFFFFFFFFFFFFFFFFFF AND PUSH2 0x8FC SELFBALANCE SWAP1 DUP2 ISZERO MUL SWAP1 PUSH1 0x40 MLOAD PUSH1 0x0 PUSH1 0x40 MLOAD DUP1 DUP4 SUB DUP2 DUP6 DUP9 DUP9 CALL SWAP4 POP POP POP POP ISZERO DUP1 ISZERO PUSH2 0x54D JUMPI RETURNDATASIZE PUSH1 0x0 DUP1 RETURNDATACOPY RETURNDATASIZE PUSH1 0x0 REVERT JUMPDEST POP PUSH2 0x6CF JUMP JUMPDEST PUSH1 0x2 DUP1 DUP2 GT ISZERO PUSH2 0x566 JUMPI PUSH2 0x565 PUSH2 0x17E2 JUMP JUMPDEST JUMPDEST PUSH1 0x3 PUSH1 0x0 SWAP1 SLOAD SWAP1 PUSH2 0x100 EXP SWAP1 DIV PUSH1 0xFF AND PUSH1 0x2 DUP2 GT ISZERO PUSH2 0x588 JUMPI PUSH2 0x587 PUSH2 0x17E2 JUMP JUMPDEST JUMPDEST SUB PUSH2 0x5FB JUMPI PUSH1 0x1 PUSH1 0x0 SWAP1 SLOAD SWAP1 PUSH2 0x100 EXP SWAP1 DIV PUSH20 0xFFFFFFFFFFFFFFFFFFFFFFFFFFFFFFFFFFFFFFFF AND PUSH20 0xFFFFFFFFFFFFFFFFFFFFFFFFFFFFFFFFFFFFFFFF AND PUSH2 0x8FC SELFBALANCE SWAP1 DUP2 ISZERO MUL SWAP1 PUSH1 0x40 MLOAD PUSH1 0x0 PUSH1 0x40 MLOAD DUP1 DUP4 SUB DUP2 DUP6 DUP9 DUP9 CALL SWAP4 POP POP POP POP ISZERO DUP1 ISZERO PUSH2 0x5F5 JUMPI RETURNDATASIZE PUSH1 0x0 DUP1 RETURNDATACOPY RETURNDATASIZE PUSH1 0x0 REVERT JUMPDEST POP PUSH2 0x6CE JUMP JUMPDEST PUSH1 0x0 DUP1 SLOAD SWAP1 PUSH2 0x100 EXP SWAP1 DIV PUSH20 0xFFFFFFFFFFFFFFFFFFFFFFFFFFFFFFFFFFFFFFFF AND PUSH20 0xFFFFFFFFFFFFFFFFFFFFFFFFFFFFFFFFFFFFFFFF AND PUSH2 0x8FC PUSH1 0x2 SLOAD SWAP1 DUP2 ISZERO MUL SWAP1 PUSH1 0x40 MLOAD PUSH1 0x0 PUSH1 0x40 MLOAD DUP1 DUP4 SUB DUP2 DUP6 DUP9 DUP9 CALL SWAP4 POP POP POP POP ISZERO DUP1 ISZERO PUSH2 0x663 JUMPI RETURNDATASIZE PUSH1 0x0 DUP1 RETURNDATACOPY RETURNDATASIZE PUSH1 0x0 REVERT JUMPDEST POP PUSH1 0x1 PUSH1 0x0 SWAP1 SLOAD SWAP1 PUSH2 0x100 EXP SWAP1 DIV PUSH20 0xFFFFFFFFFFFFFFFFFFFFFFFFFFFFFFFFFFFFFFFF AND PUSH20 0xFFFFFFFFFFFFFFFFFFFFFFFFFFFFFFFFFFFFFFFF AND PUSH2 0x8FC SELFBALANCE SWAP1 DUP2 ISZERO MUL SWAP1 PUSH1 0x40 MLOAD PUSH1 0x0 PUSH1 0x40 MLOAD DUP1 DUP4 SUB DUP2 DUP6 DUP9 DUP9 CALL SWAP4 POP POP POP POP ISZERO DUP1 ISZERO PUSH2 0x6CC JUMPI RETURNDATASIZE PUSH1 0x0 DUP1 RETURNDATACOPY RETURNDATASIZE PUSH1 0x0 REVERT JUMPDEST POP JUMPDEST JUMPDEST PUSH2 0x6D7 PUSH2 0x16B8 JUMP JUMPDEST PUSH32 0x6D1A16000380C9ADDE391BCB46A92C2CE8C46811CFF002ED5DEC38DFDC2373CD PUSH1 0x3 PUSH1 0x0 SWAP1 SLOAD SWAP1 PUSH2 0x100 EXP SWAP1 DIV PUSH1 0xFF AND PUSH1 0x40 MLOAD PUSH2 0x715 SWAP2 SWAP1 PUSH2 0x1859 JUMP JUMPDEST PUSH1 0x40 MLOAD DUP1 SWAP2 SUB SWAP1 LOG1 PUSH1 0x3 PUSH1 0x0 SWAP1 SLOAD SWAP1 PUSH2 0x100 EXP SWAP1 DIV PUSH1 0xFF AND SWAP1 POP SWAP1 JUMP JUMPDEST PUSH1 0x0 DUP2 PUSH20 0xFFFFFFFFFFFFFFFFFFFFFFFFFFFFFFFFFFFFFFFF AND PUSH1 0x0 DUP1 SLOAD SWAP1 PUSH2 0x100 EXP SWAP1 DIV PUSH20 0xFFFFFFFFFFFFFFFFFFFFFFFFFFFFFFFFFFFFFFFF AND PUSH20 0xFFFFFFFFFFFFFFFFFFFFFFFFFFFFFFFFFFFFFFFF AND EQ DUP1 ISZERO PUSH2 0x794 JUMPI POP PUSH1 0x0 DUP1 SHL PUSH1 0x4 SLOAD EQ ISZERO JUMPDEST DUP1 PUSH2 0x7FD JUMPI POP DUP2 PUSH20 0xFFFFFFFFFFFFFFFFFFFFFFFFFFFFFFFFFFFFFFFF AND PUSH1 0x1 PUSH1 0x0 SWAP1 SLOAD SWAP1 PUSH2 0x100 EXP SWAP1 DIV PUSH20 0xFFFFFFFFFFFFFFFFFFFFFFFFFFFFFFFFFFFFFFFF AND PUSH20 0xFFFFFFFFFFFFFFFFFFFFFFFFFFFFFFFFFFFFFFFF AND EQ DUP1 ISZERO PUSH2 0x7FC JUMPI POP PUSH1 0x0 DUP1 SHL PUSH1 0x5 SLOAD EQ ISZERO JUMPDEST JUMPDEST SWAP1 POP SWAP2 SWAP1 POP JUMP JUMPDEST PUSH1 0x0 PUSH2 0x3E8 CALLVALUE LT ISZERO PUSH2 0x84B JUMPI PUSH1 0x40 MLOAD PUSH32 0x8C379A000000000000000000000000000000000000000000000000000000000 DUP2 MSTORE PUSH1 0x4 ADD PUSH2 0x842 SWAP1 PUSH2 0x1CAC JUMP JUMPDEST PUSH1 0x40 MLOAD DUP1 SWAP2 SUB SWAP1 REVERT JUMPDEST PUSH1 0x0 PUSH1 0x2 SLOAD EQ DUP1 PUSH2 0x85E JUMPI POP PUSH1 0x2 SLOAD CALLVALUE LT ISZERO JUMPDEST PUSH2 0x89D JUMPI PUSH1 0x40 MLOAD PUSH32 0x8C379A000000000000000000000000000000000000000000000000000000000 DUP2 MSTORE PUSH1 0x4 ADD PUSH2 0x894 SWAP1 PUSH2 0x1D18 JUMP JUMPDEST PUSH1 0x40 MLOAD DUP1 SWAP2 SUB SWAP1 REVERT JUMPDEST PUSH1 0x0 DUP1 SLOAD SWAP1 PUSH2 0x100 EXP SWAP1 DIV PUSH20 0xFFFFFFFFFFFFFFFFFFFFFFFFFFFFFFFFFFFFFFFF AND PUSH20 0xFFFFFFFFFFFFFFFFFFFFFFFFFFFFFFFFFFFFFFFF AND CALLER PUSH20 0xFFFFFFFFFFFFFFFFFFFFFFFFFFFFFFFFFFFFFFFF AND EQ ISZERO DUP1 ISZERO PUSH2 0x947 JUMPI POP PUSH1 0x1 PUSH1 0x0 SWAP1 SLOAD SWAP1 PUSH2 0x100 EXP SWAP1 DIV PUSH20 0xFFFFFFFFFFFFFFFFFFFFFFFFFFFFFFFFFFFFFFFF AND PUSH20 0xFFFFFFFFFFFFFFFFFFFFFFFFFFFFFFFFFFFFFFFF AND CALLER PUSH20 0xFFFFFFFFFFFFFFFFFFFFFFFFFFFFFFFFFFFFFFFF AND EQ ISZERO JUMPDEST PUSH2 0x986 JUMPI PUSH1 0x40 MLOAD PUSH32 0x8C379A000000000000000000000000000000000000000000000000000000000 DUP2 MSTORE PUSH1 0x4 ADD PUSH2 0x97D SWAP1 PUSH2 0x1DAA JUMP JUMPDEST PUSH1 0x40 MLOAD DUP1 SWAP2 SUB SWAP1 REVERT JUMPDEST PUSH1 0x0 PUSH20 0xFFFFFFFFFFFFFFFFFFFFFFFFFFFFFFFFFFFFFFFF AND PUSH1 0x0 DUP1 SLOAD SWAP1 PUSH2 0x100 EXP SWAP1 DIV PUSH20 0xFFFFFFFFFFFFFFFFFFFFFFFFFFFFFFFFFFFFFFFF AND PUSH20 0xFFFFFFFFFFFFFFFFFFFFFFFFFFFFFFFFFFFFFFFF AND SUB PUSH2 0xA62 JUMPI CALLER PUSH1 0x0 DUP1 PUSH2 0x100 EXP DUP2 SLOAD DUP2 PUSH20 0xFFFFFFFFFFFFFFFFFFFFFFFFFFFFFFFFFFFFFFFF MUL NOT AND SWAP1 DUP4 PUSH20 0xFFFFFFFFFFFFFFFFFFFFFFFFFFFFFFFFFFFFFFFF AND MUL OR SWAP1 SSTORE POP CALLVALUE PUSH1 0x2 DUP2 SWAP1 SSTORE POP PUSH32 0x982CDDADD143916F714D5E4CDB1FDBF71A3A44C802807791F444525464AD42AD PUSH1 0x1 PUSH1 0x40 MLOAD PUSH2 0xA51 SWAP2 SWAP1 PUSH2 0x1E0F JUMP JUMPDEST PUSH1 0x40 MLOAD DUP1 SWAP2 SUB SWAP1 LOG1 PUSH1 0x1 SWAP1 POP PUSH2 0xB77 JUMP JUMPDEST PUSH1 0x0 PUSH20 0xFFFFFFFFFFFFFFFFFFFFFFFFFFFFFFFFFFFFFFFF AND PUSH1 0x1 PUSH1 0x0 SWAP1 SLOAD SWAP1 PUSH2 0x100 EXP SWAP1 DIV PUSH20 0xFFFFFFFFFFFFFFFFFFFFFFFFFFFFFFFFFFFFFFFF AND PUSH20 0xFFFFFFFFFFFFFFFFFFFFFFFFFFFFFFFFFFFFFFFF AND SUB PUSH2 0xB3A JUMPI CALLER PUSH1 0x1 PUSH1 0x0 PUSH2 0x100 EXP DUP2 SLOAD DUP2 PUSH20 0xFFFFFFFFFFFFFFFFFFFFFFFFFFFFFFFFFFFFFFFF MUL NOT AND SWAP1 DUP4 PUSH20 0xFFFFFFFFFFFFFFFFFFFFFFFFFFFFFFFFFFFFFFFF AND MUL OR SWAP1 SSTORE POP PUSH32 0x982CDDADD143916F714D5E4CDB1FDBF71A3A44C802807791F444525464AD42AD PUSH1 0x2 PUSH1 0x40 MLOAD PUSH2 0xB29 SWAP2 SWAP1 PUSH2 0x1E65 JUMP JUMPDEST PUSH1 0x40 MLOAD DUP1 SWAP2 SUB SWAP1 LOG1 PUSH1 0x2 SWAP1 POP PUSH2 0xB77 JUMP JUMPDEST PUSH32 0x982CDDADD143916F714D5E4CDB1FDBF71A3A44C802807791F444525464AD42AD PUSH1 0x0 PUSH1 0x40 MLOAD PUSH2 0xB6A SWAP2 SWAP1 PUSH2 0x1EBB JUMP JUMPDEST PUSH1 0x40 MLOAD DUP1 SWAP2 SUB SWAP1 LOG1 PUSH1 0x0 SWAP1 POP JUMPDEST SWAP1 JUMP JUMPDEST PUSH1 0x3 PUSH1 0x0 SWAP1 SLOAD SWAP1 PUSH2 0x100 EXP SWAP1 DIV PUSH1 0xFF AND DUP2 JUMP JUMPDEST PUSH1 0x2 SLOAD DUP2 JUMP JUMPDEST PUSH1 0x0 DUP1 PUSH1 0x3 DUP2 GT ISZERO PUSH2 0xBA8 JUMPI PUSH2 0xBA7 PUSH2 0x17E2 JUMP JUMPDEST JUMPDEST PUSH1 0x3 PUSH1 0x1 SWAP1 SLOAD SWAP1 PUSH2 0x100 EXP SWAP1 DIV PUSH1 0xFF AND PUSH1 0x3 DUP2 GT ISZERO PUSH2 0xBCA JUMPI PUSH2 0xBC9 PUSH2 0x17E2 JUMP JUMPDEST JUMPDEST EQ ISZERO DUP1 ISZERO PUSH2 0xC0C JUMPI POP PUSH1 0x0 PUSH1 0x3 DUP2 GT ISZERO PUSH2 0xBE7 JUMPI PUSH2 0xBE6 PUSH2 0x17E2 JUMP JUMPDEST JUMPDEST PUSH1 0x3 PUSH1 0x2 SWAP1 SLOAD SWAP1 PUSH2 0x100 EXP SWAP1 DIV PUSH1 0xFF AND PUSH1 0x3 DUP2 GT ISZERO PUSH2 0xC09 JUMPI PUSH2 0xC08 PUSH2 0x17E2 JUMP JUMPDEST JUMPDEST EQ ISZERO JUMPDEST SWAP1 POP SWAP1 JUMP JUMPDEST PUSH1 0x0 SELFBALANCE SWAP1 POP SWAP1 JUMP JUMPDEST PUSH1 0x0 DUP1 PUSH1 0x0 SWAP1 SLOAD SWAP1 PUSH2 0x100 EXP SWAP1 DIV PUSH20 0xFFFFFFFFFFFFFFFFFFFFFFFFFFFFFFFFFFFFFFFF AND PUSH20 0xFFFFFFFFFFFFFFFFFFFFFFFFFFFFFFFFFFFFFFFF AND CALLER PUSH20 0xFFFFFFFFFFFFFFFFFFFFFFFFFFFFFFFFFFFFFFFF AND EQ DUP1 PUSH2 0xCC3 JUMPI POP PUSH1 0x1 PUSH1 0x0 SWAP1 SLOAD SWAP1 PUSH2 0x100 EXP SWAP1 DIV PUSH20 0xFFFFFFFFFFFFFFFFFFFFFFFFFFFFFFFFFFFFFFFF AND PUSH20 0xFFFFFFFFFFFFFFFFFFFFFFFFFFFFFFFFFFFFFFFF AND CALLER PUSH20 0xFFFFFFFFFFFFFFFFFFFFFFFFFFFFFFFFFFFFFFFF AND EQ JUMPDEST PUSH2 0xD02 JUMPI PUSH1 0x40 MLOAD PUSH32 0x8C379A000000000000000000000000000000000000000000000000000000000 DUP2 MSTORE PUSH1 0x4 ADD PUSH2 0xCF9 SWAP1 PUSH2 0x1F22 JUMP JUMPDEST PUSH1 0x40 MLOAD DUP1 SWAP2 SUB SWAP1 REVERT JUMPDEST DUP3 PUSH1 0x1 DUP2 LT ISZERO DUP1 ISZERO PUSH2 0xD15 JUMPI POP PUSH1 0x3 DUP2 GT ISZERO JUMPDEST PUSH2 0xD54 JUMPI PUSH1 0x40 MLOAD PUSH32 0x8C379A000000000000000000000000000000000000000000000000000000000 DUP2 MSTORE PUSH1 0x4 ADD PUSH2 0xD4B SWAP1 PUSH2 0x1F8E JUMP JUMPDEST PUSH1 0x40 MLOAD DUP1 SWAP2 SUB SWAP1 REVERT JUMPDEST PUSH1 0x0 DUP1 SHL PUSH1 0x4 SLOAD EQ ISZERO DUP1 ISZERO PUSH2 0xD6E JUMPI POP PUSH1 0x0 DUP1 SHL PUSH1 0x5 SLOAD EQ ISZERO JUMPDEST PUSH2 0xDAD JUMPI PUSH1 0x40 MLOAD PUSH32 0x8C379A000000000000000000000000000000000000000000000000000000000 DUP2 MSTORE PUSH1 0x4 ADD PUSH2 0xDA4 SWAP1 PUSH2 0x2020 JUMP JUMPDEST PUSH1 0x40 MLOAD DUP1 SWAP2 SUB SWAP1 REVERT JUMPDEST CALLER PUSH20 0xFFFFFFFFFFFFFFFFFFFFFFFFFFFFFFFFFFFFFFFF AND PUSH1 0x0 DUP1 SLOAD SWAP1 PUSH2 0x100 EXP SWAP1 DIV PUSH20 0xFFFFFFFFFFFFFFFFFFFFFFFFFFFFFFFFFFFFFFFF AND PUSH20 0xFFFFFFFFFFFFFFFFFFFFFFFFFFFFFFFFFFFFFFFF AND SUB PUSH2 0xEE6 JUMPI PUSH2 0xE0A DUP5 DUP5 PUSH2 0x17AF JUMP JUMPDEST PUSH1 0x4 SLOAD EQ PUSH2 0xE4D JUMPI PUSH1 0x40 MLOAD PUSH32 0x8C379A000000000000000000000000000000000000000000000000000000000 DUP2 MSTORE PUSH1 0x4 ADD PUSH2 0xE44 SWAP1 PUSH2 0x208C JUMP JUMPDEST PUSH1 0x40 MLOAD DUP1 SWAP2 SUB SWAP1 REVERT JUMPDEST DUP4 PUSH1 0x3 DUP2 GT ISZERO PUSH2 0xE60 JUMPI PUSH2 0xE5F PUSH2 0x17E2 JUMP JUMPDEST JUMPDEST PUSH1 0x3 PUSH1 0x1 PUSH2 0x100 EXP DUP2 SLOAD DUP2 PUSH1 0xFF MUL NOT AND SWAP1 DUP4 PUSH1 0x3 DUP2 GT ISZERO PUSH2 0xE84 JUMPI PUSH2 0xE83 PUSH2 0x17E2 JUMP JUMPDEST JUMPDEST MUL OR SWAP1 SSTORE POP PUSH32 0x47C7ACBD4D57F5DBC1F9E9D1F9E0899016B547AFBAD29E7A416A892B44898E97 PUSH1 0x3 PUSH1 0x1 SWAP1 SLOAD SWAP1 PUSH2 0x100 EXP SWAP1 DIV PUSH1 0xFF AND PUSH1 0x40 MLOAD PUSH2 0xEC7 SWAP2 SWAP1 PUSH2 0x1A58 JUMP JUMPDEST PUSH1 0x40 MLOAD DUP1 SWAP2 SUB SWAP1 LOG1 PUSH1 0x3 PUSH1 0x1 SWAP1 SLOAD SWAP1 PUSH2 0x100 EXP SWAP1 DIV PUSH1 0xFF AND SWAP2 POP PUSH2 0x105C JUMP JUMPDEST CALLER PUSH20 0xFFFFFFFFFFFFFFFFFFFFFFFFFFFFFFFFFFFFFFFF AND PUSH1 0x1 PUSH1 0x0 SWAP1 SLOAD SWAP1 PUSH2 0x100 EXP SWAP1 DIV PUSH20 0xFFFFFFFFFFFFFFFFFFFFFFFFFFFFFFFFFFFFFFFF AND PUSH20 0xFFFFFFFFFFFFFFFFFFFFFFFFFFFFFFFFFFFFFFFF AND SUB PUSH2 0x1021 JUMPI PUSH2 0xF45 DUP5 DUP5 PUSH2 0x17AF JUMP JUMPDEST PUSH1 0x5 SLOAD EQ PUSH2 0xF88 JUMPI PUSH1 0x40 MLOAD PUSH32 0x8C379A000000000000000000000000000000000000000000000000000000000 DUP2 MSTORE PUSH1 0x4 ADD PUSH2 0xF7F SWAP1 PUSH2 0x208C JUMP JUMPDEST PUSH1 0x40 MLOAD DUP1 SWAP2 SUB SWAP1 REVERT JUMPDEST DUP4 PUSH1 0x3 DUP2 GT ISZERO PUSH2 0xF9B JUMPI PUSH2 0xF9A PUSH2 0x17E2 JUMP JUMPDEST JUMPDEST PUSH1 0x3 PUSH1 0x2 PUSH2 0x100 EXP DUP2 SLOAD DUP2 PUSH1 0xFF MUL NOT AND SWAP1 DUP4 PUSH1 0x3 DUP2 GT ISZERO PUSH2 0xFBF JUMPI PUSH2 0xFBE PUSH2 0x17E2 JUMP JUMPDEST JUMPDEST MUL OR SWAP1 SSTORE POP PUSH32 0x47C7ACBD4D57F5DBC1F9E9D1F9E0899016B547AFBAD29E7A416A892B44898E97 PUSH1 0x3 PUSH1 0x2 SWAP1 SLOAD SWAP1 PUSH2 0x100 EXP SWAP1 DIV PUSH1 0xFF AND PUSH1 0x40 MLOAD PUSH2 0x1002 SWAP2 SWAP1 PUSH2 0x1A58 JUMP JUMPDEST PUSH1 0x40 MLOAD DUP1 SWAP2 SUB SWAP1 LOG1 PUSH1 0x3 PUSH1 0x2 SWAP1 SLOAD SWAP1 PUSH2 0x100 EXP SWAP1 DIV PUSH1 0xFF AND SWAP2 POP PUSH2 0x105C JUMP JUMPDEST PUSH1 0x40 MLOAD PUSH32 0x8C379A000000000000000000000000000000000000000000000000000000000 DUP2 MSTORE PUSH1 0x4 ADD PUSH2 0x1053 SWAP1 PUSH2 0x20F8 JUMP JUMPDEST PUSH1 0x40 MLOAD DUP1 SWAP2 SUB SWAP1 REVERT JUMPDEST POP SWAP3 SWAP2 POP POP JUMP JUMPDEST PUSH1 0x0 DUP1 PUSH1 0x0 SHL PUSH1 0x4 SLOAD EQ ISZERO DUP1 ISZERO PUSH2 0x107F JUMPI POP PUSH1 0x0 DUP1 SHL PUSH1 0x5 SLOAD EQ ISZERO JUMPDEST SWAP1 POP SWAP1 JUMP JUMPDEST PUSH1 0x0 DUP1 PUSH1 0x0 SWAP1 SLOAD SWAP1 PUSH2 0x100 EXP SWAP1 DIV PUSH20 0xFFFFFFFFFFFFFFFFFFFFFFFFFFFFFFFFFFFFFFFF AND PUSH20 0xFFFFFFFFFFFFFFFFFFFFFFFFFFFFFFFFFFFFFFFF AND CALLER PUSH20 0xFFFFFFFFFFFFFFFFFFFFFFFFFFFFFFFFFFFFFFFF AND EQ DUP1 PUSH2 0x112E JUMPI POP PUSH1 0x1 PUSH1 0x0 SWAP1 SLOAD SWAP1 PUSH2 0x100 EXP SWAP1 DIV PUSH20 0xFFFFFFFFFFFFFFFFFFFFFFFFFFFFFFFFFFFFFFFF AND PUSH20 0xFFFFFFFFFFFFFFFFFFFFFFFFFFFFFFFFFFFFFFFF AND CALLER PUSH20 0xFFFFFFFFFFFFFFFFFFFFFFFFFFFFFFFFFFFFFFFF AND EQ JUMPDEST PUSH2 0x116D JUMPI PUSH1 0x40 MLOAD PUSH32 0x8C379A000000000000000000000000000000000000000000000000000000000 DUP2 MSTORE PUSH1 0x4 ADD PUSH2 0x1164 SWAP1 PUSH2 0x1F22 JUMP JUMPDEST PUSH1 0x40 MLOAD DUP1 SWAP2 SUB SWAP1 REVERT JUMPDEST DUP2 PUSH1 0x0 DUP2 SUB PUSH2 0x11B1 JUMPI PUSH1 0x40 MLOAD PUSH32 0x8C379A000000000000000000000000000000000000000000000000000000000 DUP2 MSTORE PUSH1 0x4 ADD PUSH2 0x11A8 SWAP1 PUSH2 0x2164 JUMP JUMPDEST PUSH1 0x40 MLOAD DUP1 SWAP2 SUB SWAP1 REVERT JUMPDEST PUSH1 0x0 DUP1 SLOAD SWAP1 PUSH2 0x100 EXP SWAP1 DIV PUSH20 0xFFFFFFFFFFFFFFFFFFFFFFFFFFFFFFFFFFFFFFFF AND PUSH20 0xFFFFFFFFFFFFFFFFFFFFFFFFFFFFFFFFFFFFFFFF AND CALLER PUSH20 0xFFFFFFFFFFFFFFFFFFFFFFFFFFFFFFFFFFFFFFFF AND EQ DUP1 ISZERO PUSH2 0x1210 JUMPI POP PUSH1 0x0 DUP1 SHL PUSH1 0x4 SLOAD EQ JUMPDEST ISZERO PUSH2 0x1221 JUMPI DUP3 PUSH1 0x4 DUP2 SWAP1 SSTORE POP PUSH2 0x12D5 JUMP JUMPDEST PUSH1 0x1 PUSH1 0x0 SWAP1 SLOAD SWAP1 PUSH2 0x100 EXP SWAP1 DIV PUSH20 0xFFFFFFFFFFFFFFFFFFFFFFFFFFFFFFFFFFFFFFFF AND PUSH20 0xFFFFFFFFFFFFFFFFFFFFFFFFFFFFFFFFFFFFFFFF AND CALLER PUSH20 0xFFFFFFFFFFFFFFFFFFFFFFFFFFFFFFFFFFFFFFFF AND EQ DUP1 ISZERO PUSH2 0x1282 JUMPI POP PUSH1 0x0 DUP1 SHL PUSH1 0x5 SLOAD EQ JUMPDEST ISZERO PUSH2 0x1293 JUMPI DUP3 PUSH1 0x5 DUP2 SWAP1 SSTORE POP PUSH2 0x12D4 JUMP JUMPDEST PUSH32 0xD0E0EEE22AF482D2B75B0FACF637B601C155F06C6F143B473711527A01110F84 PUSH1 0x0 PUSH1 0x40 MLOAD PUSH2 0x12C3 SWAP2 SWAP1 PUSH2 0x191F JUMP JUMPDEST PUSH1 0x40 MLOAD DUP1 SWAP2 SUB SWAP1 LOG1 PUSH1 0x0 SWAP2 POP PUSH2 0x1312 JUMP JUMPDEST JUMPDEST PUSH32 0xD0E0EEE22AF482D2B75B0FACF637B601C155F06C6F143B473711527A01110F84 PUSH1 0x1 PUSH1 0x40 MLOAD PUSH2 0x1305 SWAP2 SWAP1 PUSH2 0x191F JUMP JUMPDEST PUSH1 0x40 MLOAD DUP1 SWAP2 SUB SWAP1 LOG1 PUSH1 0x1 SWAP2 POP JUMPDEST POP SWAP2 SWAP1 POP JUMP JUMPDEST PUSH20 0x91CDA83C363A6F72F81A2041836B1E79B4A01AB1 PUSH20 0xFFFFFFFFFFFFFFFFFFFFFFFFFFFFFFFFFFFFFFFF AND CALLER PUSH20 0xFFFFFFFFFFFFFFFFFFFFFFFFFFFFFFFFFFFFFFFF AND EQ PUSH2 0x139A JUMPI PUSH1 0x40 MLOAD PUSH32 0x8C379A000000000000000000000000000000000000000000000000000000000 DUP2 MSTORE PUSH1 0x4 ADD PUSH2 0x1391 SWAP1 PUSH2 0x21F6 JUMP JUMPDEST PUSH1 0x40 MLOAD DUP1 SWAP2 SUB SWAP1 REVERT JUMPDEST PUSH2 0x13A2 PUSH2 0x16B8 JUMP JUMPDEST JUMP JUMPDEST PUSH1 0x0 DUP2 PUSH20 0xFFFFFFFFFFFFFFFFFFFFFFFFFFFFFFFFFFFFFFFF AND PUSH1 0x0 DUP1 SLOAD SWAP1 PUSH2 0x100 EXP SWAP1 DIV PUSH20 0xFFFFFFFFFFFFFFFFFFFFFFFFFFFFFFFFFFFFFFFF AND PUSH20 0xFFFFFFFFFFFFFFFFFFFFFFFFFFFFFFFFFFFFFFFF AND EQ DUP1 PUSH2 0x144D JUMPI POP DUP2 PUSH20 0xFFFFFFFFFFFFFFFFFFFFFFFFFFFFFFFFFFFFFFFF AND PUSH1 0x1 PUSH1 0x0 SWAP1 SLOAD SWAP1 PUSH2 0x100 EXP SWAP1 DIV PUSH20 0xFFFFFFFFFFFFFFFFFFFFFFFFFFFFFFFFFFFFFFFF AND PUSH20 0xFFFFFFFFFFFFFFFFFFFFFFFFFFFFFFFFFFFFFFFF AND EQ JUMPDEST SWAP1 POP SWAP2 SWAP1 POP JUMP JUMPDEST PUSH20 0x91CDA83C363A6F72F81A2041836B1E79B4A01AB1 PUSH20 0xFFFFFFFFFFFFFFFFFFFFFFFFFFFFFFFFFFFFFFFF AND CALLER PUSH20 0xFFFFFFFFFFFFFFFFFFFFFFFFFFFFFFFFFFFFFFFF AND EQ PUSH2 0x14D6 JUMPI PUSH1 0x40 MLOAD PUSH32 0x8C379A000000000000000000000000000000000000000000000000000000000 DUP2 MSTORE PUSH1 0x4 ADD PUSH2 0x14CD SWAP1 PUSH2 0x21F6 JUMP JUMPDEST PUSH1 0x40 MLOAD DUP1 SWAP2 SUB SWAP1 REVERT JUMPDEST PUSH2 0x3E8 CALLVALUE LT ISZERO PUSH2 0x151B JUMPI PUSH1 0x40 MLOAD PUSH32 0x8C379A000000000000000000000000000000000000000000000000000000000 DUP2 MSTORE PUSH1 0x4 ADD PUSH2 0x1512 SWAP1 PUSH2 0x1CAC JUMP JUMPDEST PUSH1 0x40 MLOAD DUP1 SWAP2 SUB SWAP1 REVERT JUMPDEST PUSH1 0x0 PUSH1 0x2 SLOAD EQ DUP1 PUSH2 0x152E JUMPI POP PUSH1 0x2 SLOAD CALLVALUE LT ISZERO JUMPDEST PUSH2 0x156D JUMPI PUSH1 0x40 MLOAD PUSH32 0x8C379A000000000000000000000000000000000000000000000000000000000 DUP2 MSTORE PUSH1 0x4 ADD PUSH2 0x1564 SWAP1 PUSH2 0x1D18 JUMP JUMPDEST PUSH1 0x40 MLOAD DUP1 SWAP2 SUB SWAP1 REVERT JUMPDEST CALLVALUE PUSH1 0x2 PUSH1 0x0 DUP3 DUP3 SLOAD PUSH2 0x157F SWAP2 SWAP1 PUSH2 0x1B72 JUMP JUMPDEST SWAP3 POP POP DUP2 SWAP1 SSTORE POP JUMP JUMPDEST PUSH1 0x0 DUP2 PUSH20 0xFFFFFFFFFFFFFFFFFFFFFFFFFFFFFFFFFFFFFFFF AND PUSH1 0x0 DUP1 SLOAD SWAP1 PUSH2 0x100 EXP SWAP1 DIV PUSH20 0xFFFFFFFFFFFFFFFFFFFFFFFFFFFFFFFFFFFFFFFF AND PUSH20 0xFFFFFFFFFFFFFFFFFFFFFFFFFFFFFFFFFFFFFFFF AND EQ DUP1 ISZERO PUSH2 0x1619 JUMPI POP PUSH1 0x0 PUSH1 0x3 DUP2 GT ISZERO PUSH2 0x15F4 JUMPI PUSH2 0x15F3 PUSH2 0x17E2 JUMP JUMPDEST JUMPDEST PUSH1 0x3 PUSH1 0x1 SWAP1 SLOAD SWAP1 PUSH2 0x100 EXP SWAP1 DIV PUSH1 0xFF AND PUSH1 0x3 DUP2 GT ISZERO PUSH2 0x1616 JUMPI PUSH2 0x1615 PUSH2 0x17E2 JUMP JUMPDEST JUMPDEST EQ ISZERO JUMPDEST DUP1 PUSH2 0x16B1 JUMPI POP DUP2 PUSH20 0xFFFFFFFFFFFFFFFFFFFFFFFFFFFFFFFFFFFFFFFF AND PUSH1 0x1 PUSH1 0x0 SWAP1 SLOAD SWAP1 PUSH2 0x100 EXP SWAP1 DIV PUSH20 0xFFFFFFFFFFFFFFFFFFFFFFFFFFFFFFFFFFFFFFFF AND PUSH20 0xFFFFFFFFFFFFFFFFFFFFFFFFFFFFFFFFFFFFFFFF AND EQ DUP1 ISZERO PUSH2 0x16B0 JUMPI POP PUSH1 0x0 PUSH1 0x3 DUP2 GT ISZERO PUSH2 0x168B JUMPI PUSH2 0x168A PUSH2 0x17E2 JUMP JUMPDEST JUMPDEST PUSH1 0x3 PUSH1 0x2 SWAP1 SLOAD SWAP1 PUSH2 0x100 EXP SWAP1 DIV PUSH1 0xFF AND PUSH1 0x3 DUP2 GT ISZERO PUSH2 0x16AD JUMPI PUSH2 0x16AC PUSH2 0x17E2 JUMP JUMPDEST JUMPDEST EQ ISZERO JUMPDEST JUMPDEST SWAP1 POP SWAP2 SWAP1 POP JUMP JUMPDEST PUSH1 0x0 PUSH1 0x2 DUP2 SWAP1 SSTORE POP PUSH1 0x0 DUP1 PUSH1 0x0 PUSH2 0x100 EXP DUP2 SLOAD DUP2 PUSH20 0xFFFFFFFFFFFFFFFFFFFFFFFFFFFFFFFFFFFFFFFF MUL NOT AND SWAP1 DUP4 PUSH20 0xFFFFFFFFFFFFFFFFFFFFFFFFFFFFFFFFFFFFFFFF AND MUL OR SWAP1 SSTORE POP PUSH1 0x0 PUSH1 0x1 PUSH1 0x0 PUSH2 0x100 EXP DUP2 SLOAD DUP2 PUSH20 0xFFFFFFFFFFFFFFFFFFFFFFFFFFFFFFFFFFFFFFFF MUL NOT AND SWAP1 DUP4 PUSH20 0xFFFFFFFFFFFFFFFFFFFFFFFFFFFFFFFFFFFFFFFF AND MUL OR SWAP1 SSTORE POP PUSH1 0x0 DUP1 SHL PUSH1 0x4 DUP2 SWAP1 SSTORE POP PUSH1 0x0 DUP1 SHL PUSH1 0x5 DUP2 SWAP1 SSTORE POP PUSH1 0x0 PUSH1 0x3 PUSH1 0x1 PUSH2 0x100 EXP DUP2 SLOAD DUP2 PUSH1 0xFF MUL NOT AND SWAP1 DUP4 PUSH1 0x3 DUP2 GT ISZERO PUSH2 0x177D JUMPI PUSH2 0x177C PUSH2 0x17E2 JUMP JUMPDEST JUMPDEST MUL OR SWAP1 SSTORE POP PUSH1 0x0 PUSH1 0x3 PUSH1 0x2 PUSH2 0x100 EXP DUP2 SLOAD DUP2 PUSH1 0xFF MUL NOT AND SWAP1 DUP4 PUSH1 0x3 DUP2 GT ISZERO PUSH2 0x17A8 JUMPI PUSH2 0x17A7 PUSH2 0x17E2 JUMP JUMPDEST JUMPDEST MUL OR SWAP1 SSTORE POP JUMP JUMPDEST PUSH1 0x0 DUP3 DUP3 PUSH1 0x40 MLOAD PUSH1 0x20 ADD PUSH2 0x17C4 SWAP3 SWAP2 SWAP1 PUSH2 0x2258 JUMP JUMPDEST PUSH1 0x40 MLOAD PUSH1 0x20 DUP2 DUP4 SUB SUB DUP2 MSTORE SWAP1 PUSH1 0x40 MSTORE DUP1 MLOAD SWAP1 PUSH1 0x20 ADD KECCAK256 SWAP1 POP SWAP3 SWAP2 POP POP JUMP JUMPDEST PUSH32 0x4E487B7100000000000000000000000000000000000000000000000000000000 PUSH1 0x0 MSTORE PUSH1 0x21 PUSH1 0x4 MSTORE PUSH1 0x24 PUSH1 0x0 REVERT JUMPDEST PUSH1 0x3 DUP2 LT PUSH2 0x1822 JUMPI PUSH2 0x1821 PUSH2 0x17E2 JUMP JUMPDEST JUMPDEST POP JUMP JUMPDEST PUSH1 0x0 DUP2 SWAP1 POP PUSH2 0x1833 DUP3 PUSH2 0x1811 JUMP JUMPDEST SWAP2 SWAP1 POP JUMP JUMPDEST PUSH1 0x0 PUSH2 0x1843 DUP3 PUSH2 0x1825 JUMP JUMPDEST SWAP1 POP SWAP2 SWAP1 POP JUMP JUMPDEST PUSH2 0x1853 DUP2 PUSH2 0x1838 JUMP JUMPDEST DUP3 MSTORE POP POP JUMP JUMPDEST PUSH1 0x0 PUSH1 0x20 DUP3 ADD SWAP1 POP PUSH2 0x186E PUSH1 0x0 DUP4 ADD DUP5 PUSH2 0x184A JUMP JUMPDEST SWAP3 SWAP2 POP POP JUMP JUMPDEST PUSH1 0x0 DUP1 REVERT JUMPDEST PUSH1 0x0 PUSH20 0xFFFFFFFFFFFFFFFFFFFFFFFFFFFFFFFFFFFFFFFF DUP3 AND SWAP1 POP SWAP2 SWAP1 POP JUMP JUMPDEST PUSH1 0x0 PUSH2 0x18A4 DUP3 PUSH2 0x1879 JUMP JUMPDEST SWAP1 POP SWAP2 SWAP1 POP JUMP JUMPDEST PUSH2 0x18B4 DUP2 PUSH2 0x1899 JUMP JUMPDEST DUP2 EQ PUSH2 0x18BF JUMPI PUSH1 0x0 DUP1 REVERT JUMPDEST POP JUMP JUMPDEST PUSH1 0x0 DUP2 CALLDATALOAD SWAP1 POP PUSH2 0x18D1 DUP2 PUSH2 0x18AB JUMP JUMPDEST SWAP3 SWAP2 POP POP JUMP JUMPDEST PUSH1 0x0 PUSH1 0x20 DUP3 DUP5 SUB SLT ISZERO PUSH2 0x18ED JUMPI PUSH2 0x18EC PUSH2 0x1874 JUMP JUMPDEST JUMPDEST PUSH1 0x0 PUSH2 0x18FB DUP5 DUP3 DUP6 ADD PUSH2 0x18C2 JUMP JUMPDEST SWAP2 POP POP SWAP3 SWAP2 POP POP JUMP JUMPDEST PUSH1 0x0 DUP2 ISZERO ISZERO SWAP1 POP SWAP2 SWAP1 POP JUMP JUMPDEST PUSH2 0x1919 DUP2 PUSH2 0x1904 JUMP JUMPDEST DUP3 MSTORE POP POP JUMP JUMPDEST PUSH1 0x0 PUSH1 0x20 DUP3 ADD SWAP1 POP PUSH2 0x1934 PUSH1 0x0 DUP4 ADD DUP5 PUSH2 0x1910 JUMP JUMPDEST SWAP3 SWAP2 POP POP JUMP JUMPDEST PUSH1 0x0 DUP2 SWAP1 POP SWAP2 SWAP1 POP JUMP JUMPDEST PUSH2 0x194D DUP2 PUSH2 0x193A JUMP JUMPDEST DUP3 MSTORE POP POP JUMP JUMPDEST PUSH1 0x0 PUSH1 0x20 DUP3 ADD SWAP1 POP PUSH2 0x1968 PUSH1 0x0 DUP4 ADD DUP5 PUSH2 0x1944 JUMP JUMPDEST SWAP3 SWAP2 POP POP JUMP JUMPDEST PUSH2 0x1977 DUP2 PUSH2 0x193A JUMP JUMPDEST DUP2 EQ PUSH2 0x1982 JUMPI PUSH1 0x0 DUP1 REVERT JUMPDEST POP JUMP JUMPDEST PUSH1 0x0 DUP2 CALLDATALOAD SWAP1 POP PUSH2 0x1994 DUP2 PUSH2 0x196E JUMP JUMPDEST SWAP3 SWAP2 POP POP JUMP JUMPDEST PUSH1 0x0 DUP2 SWAP1 POP SWAP2 SWAP1 POP JUMP JUMPDEST PUSH2 0x19AD DUP2 PUSH2 0x199A JUMP JUMPDEST DUP2 EQ PUSH2 0x19B8 JUMPI PUSH1 0x0 DUP1 REVERT JUMPDEST POP JUMP JUMPDEST PUSH1 0x0 DUP2 CALLDATALOAD SWAP1 POP PUSH2 0x19CA DUP2 PUSH2 0x19A4 JUMP JUMPDEST SWAP3 SWAP2 POP POP JUMP JUMPDEST PUSH1 0x0 DUP1 PUSH1 0x40 DUP4 DUP6 SUB SLT ISZERO PUSH2 0x19E7 JUMPI PUSH2 0x19E6 PUSH2 0x1874 JUMP JUMPDEST JUMPDEST PUSH1 0x0 PUSH2 0x19F5 DUP6 DUP3 DUP7 ADD PUSH2 0x1985 JUMP JUMPDEST SWAP3 POP POP PUSH1 0x20 PUSH2 0x1A06 DUP6 DUP3 DUP7 ADD PUSH2 0x19BB JUMP JUMPDEST SWAP2 POP POP SWAP3 POP SWAP3 SWAP1 POP JUMP JUMPDEST PUSH1 0x4 DUP2 LT PUSH2 0x1A21 JUMPI PUSH2 0x1A20 PUSH2 0x17E2 JUMP JUMPDEST JUMPDEST POP JUMP JUMPDEST PUSH1 0x0 DUP2 SWAP1 POP PUSH2 0x1A32 DUP3 PUSH2 0x1A10 JUMP JUMPDEST SWAP2 SWAP1 POP JUMP JUMPDEST PUSH1 0x0 PUSH2 0x1A42 DUP3 PUSH2 0x1A24 JUMP JUMPDEST SWAP1 POP SWAP2 SWAP1 POP JUMP JUMPDEST PUSH2 0x1A52 DUP2 PUSH2 0x1A37 JUMP JUMPDEST DUP3 MSTORE POP POP JUMP JUMPDEST PUSH1 0x0 PUSH1 0x20 DUP3 ADD SWAP1 POP PUSH2 0x1A6D PUSH1 0x0 DUP4 ADD DUP5 PUSH2 0x1A49 JUMP JUMPDEST SWAP3 SWAP2 POP POP JUMP JUMPDEST PUSH1 0x0 PUSH1 0x20 DUP3 DUP5 SUB SLT ISZERO PUSH2 0x1A89 JUMPI PUSH2 0x1A88 PUSH2 0x1874 JUMP JUMPDEST JUMPDEST PUSH1 0x0 PUSH2 0x1A97 DUP5 DUP3 DUP6 ADD PUSH2 0x19BB JUMP JUMPDEST SWAP2 POP POP SWAP3 SWAP2 POP POP JUMP JUMPDEST PUSH1 0x0 DUP3 DUP3 MSTORE PUSH1 0x20 DUP3 ADD SWAP1 POP SWAP3 SWAP2 POP POP JUMP JUMPDEST PUSH32 0x4F6E65206F662074686520706C6179657273206F7220626F746820646964206E PUSH1 0x0 DUP3 ADD MSTORE PUSH32 0x6F7420636F6D6D69740000000000000000000000000000000000000000000000 PUSH1 0x20 DUP3 ADD MSTORE POP JUMP JUMPDEST PUSH1 0x0 PUSH2 0x1B0D PUSH1 0x29 DUP4 PUSH2 0x1AA0 JUMP JUMPDEST SWAP2 POP PUSH2 0x1B18 DUP3 PUSH2 0x1AB1 JUMP JUMPDEST PUSH1 0x40 DUP3 ADD SWAP1 POP SWAP2 SWAP1 POP JUMP JUMPDEST PUSH1 0x0 PUSH1 0x20 DUP3 ADD SWAP1 POP DUP2 DUP2 SUB PUSH1 0x0 DUP4 ADD MSTORE PUSH2 0x1B3C DUP2 PUSH2 0x1B00 JUMP JUMPDEST SWAP1 POP SWAP2 SWAP1 POP JUMP JUMPDEST PUSH32 0x4E487B7100000000000000000000000000000000000000000000000000000000 PUSH1 0x0 MSTORE PUSH1 0x11 PUSH1 0x4 MSTORE PUSH1 0x24 PUSH1 0x0 REVERT JUMPDEST PUSH1 0x0 PUSH2 0x1B7D DUP3 PUSH2 0x193A JUMP JUMPDEST SWAP2 POP PUSH2 0x1B88 DUP4 PUSH2 0x193A JUMP JUMPDEST SWAP3 POP DUP3 DUP3 ADD SWAP1 POP DUP1 DUP3 GT ISZERO PUSH2 0x1BA0 JUMPI PUSH2 0x1B9F PUSH2 0x1B43 JUMP JUMPDEST JUMPDEST SWAP3 SWAP2 POP POP JUMP JUMPDEST PUSH1 0x0 PUSH2 0x1BB1 DUP3 PUSH2 0x193A JUMP JUMPDEST SWAP2 POP PUSH2 0x1BBC DUP4 PUSH2 0x193A JUMP JUMPDEST SWAP3 POP DUP3 DUP3 SUB SWAP1 POP DUP2 DUP2 GT ISZERO PUSH2 0x1BD4 JUMPI PUSH2 0x1BD3 PUSH2 0x1B43 JUMP JUMPDEST JUMPDEST SWAP3 SWAP2 POP POP JUMP JUMPDEST PUSH32 0x4E487B7100000000000000000000000000000000000000000000000000000000 PUSH1 0x0 MSTORE PUSH1 0x12 PUSH1 0x4 MSTORE PUSH1 0x24 PUSH1 0x0 REVERT JUMPDEST PUSH1 0x0 PUSH2 0x1C14 DUP3 PUSH2 0x193A JUMP JUMPDEST SWAP2 POP PUSH2 0x1C1F DUP4 PUSH2 0x193A JUMP JUMPDEST SWAP3 POP DUP3 PUSH2 0x1C2F JUMPI PUSH2 0x1C2E PUSH2 0x1BDA JUMP JUMPDEST JUMPDEST DUP3 DUP3 MOD SWAP1 POP SWAP3 SWAP2 POP POP JUMP JUMPDEST PUSH32 0x426574206973206C6F776572207468616E20706F737369626C65206D696E696D PUSH1 0x0 DUP3 ADD MSTORE PUSH32 0x756D000000000000000000000000000000000000000000000000000000000000 PUSH1 0x20 DUP3 ADD MSTORE POP JUMP JUMPDEST PUSH1 0x0 PUSH2 0x1C96 PUSH1 0x22 DUP4 PUSH2 0x1AA0 JUMP JUMPDEST SWAP2 POP PUSH2 0x1CA1 DUP3 PUSH2 0x1C3A JUMP JUMPDEST PUSH1 0x40 DUP3 ADD SWAP1 POP SWAP2 SWAP1 POP JUMP JUMPDEST PUSH1 0x0 PUSH1 0x20 DUP3 ADD SWAP1 POP DUP2 DUP2 SUB PUSH1 0x0 DUP4 ADD MSTORE PUSH2 0x1CC5 DUP2 PUSH2 0x1C89 JUMP JUMPDEST SWAP1 POP SWAP2 SWAP1 POP JUMP JUMPDEST PUSH32 0x50726F626C656D207769746820746865207374616B6500000000000000000000 PUSH1 0x0 DUP3 ADD MSTORE POP JUMP JUMPDEST PUSH1 0x0 PUSH2 0x1D02 PUSH1 0x16 DUP4 PUSH2 0x1AA0 JUMP JUMPDEST SWAP2 POP PUSH2 0x1D0D DUP3 PUSH2 0x1CCC JUMP JUMPDEST PUSH1 0x20 DUP3 ADD SWAP1 POP SWAP2 SWAP1 POP JUMP JUMPDEST PUSH1 0x0 PUSH1 0x20 DUP3 ADD SWAP1 POP DUP2 DUP2 SUB PUSH1 0x0 DUP4 ADD MSTORE PUSH2 0x1D31 DUP2 PUSH2 0x1CF5 JUMP JUMPDEST SWAP1 POP SWAP2 SWAP1 POP JUMP JUMPDEST PUSH32 0x5468697320706C617965722068617320616C7265616479207265676973746572 PUSH1 0x0 DUP3 ADD MSTORE PUSH32 0x6564000000000000000000000000000000000000000000000000000000000000 PUSH1 0x20 DUP3 ADD MSTORE POP JUMP JUMPDEST PUSH1 0x0 PUSH2 0x1D94 PUSH1 0x22 DUP4 PUSH2 0x1AA0 JUMP JUMPDEST SWAP2 POP PUSH2 0x1D9F DUP3 PUSH2 0x1D38 JUMP JUMPDEST PUSH1 0x40 DUP3 ADD SWAP1 POP SWAP2 SWAP1 POP JUMP JUMPDEST PUSH1 0x0 PUSH1 0x20 DUP3 ADD SWAP1 POP DUP2 DUP2 SUB PUSH1 0x0 DUP4 ADD MSTORE PUSH2 0x1DC3 DUP2 PUSH2 0x1D87 JUMP JUMPDEST SWAP1 POP SWAP2 SWAP1 POP JUMP JUMPDEST PUSH1 0x0 DUP2 SWAP1 POP SWAP2 SWAP1 POP JUMP JUMPDEST PUSH1 0x0 DUP2 SWAP1 POP SWAP2 SWAP1 POP JUMP JUMPDEST PUSH1 0x0 PUSH2 0x1DF9 PUSH2 0x1DF4 PUSH2 0x1DEF DUP5 PUSH2 0x1DCA JUMP JUMPDEST PUSH2 0x1DD4 JUMP JUMPDEST PUSH2 0x193A JUMP JUMPDEST SWAP1 POP SWAP2 SWAP1 POP JUMP JUMPDEST PUSH2 0x1E09 DUP2 PUSH2 0x1DDE JUMP JUMPDEST DUP3 MSTORE POP POP JUMP JUMPDEST PUSH1 0x0 PUSH1 0x20 DUP3 ADD SWAP1 POP PUSH2 0x1E24 PUSH1 0x0 DUP4 ADD DUP5 PUSH2 0x1E00 JUMP JUMPDEST SWAP3 SWAP2 POP POP JUMP JUMPDEST PUSH1 0x0 DUP2 SWAP1 POP SWAP2 SWAP1 POP JUMP JUMPDEST PUSH1 0x0 PUSH2 0x1E4F PUSH2 0x1E4A PUSH2 0x1E45 DUP5 PUSH2 0x1E2A JUMP JUMPDEST PUSH2 0x1DD4 JUMP JUMPDEST PUSH2 0x193A JUMP JUMPDEST SWAP1 POP SWAP2 SWAP1 POP JUMP JUMPDEST PUSH2 0x1E5F DUP2 PUSH2 0x1E34 JUMP JUMPDEST DUP3 MSTORE POP POP JUMP JUMPDEST PUSH1 0x0 PUSH1 0x20 DUP3 ADD SWAP1 POP PUSH2 0x1E7A PUSH1 0x0 DUP4 ADD DUP5 PUSH2 0x1E56 JUMP JUMPDEST SWAP3 SWAP2 POP POP JUMP JUMPDEST PUSH1 0x0 DUP2 SWAP1 POP SWAP2 SWAP1 POP JUMP JUMPDEST PUSH1 0x0 PUSH2 0x1EA5 PUSH2 0x1EA0 PUSH2 0x1E9B DUP5 PUSH2 0x1E80 JUMP JUMPDEST PUSH2 0x1DD4 JUMP JUMPDEST PUSH2 0x193A JUMP JUMPDEST SWAP1 POP SWAP2 SWAP1 POP JUMP JUMPDEST PUSH2 0x1EB5 DUP2 PUSH2 0x1E8A JUMP JUMPDEST DUP3 MSTORE POP POP JUMP JUMPDEST PUSH1 0x0 PUSH1 0x20 DUP3 ADD SWAP1 POP PUSH2 0x1ED0 PUSH1 0x0 DUP4 ADD DUP5 PUSH2 0x1EAC JUMP JUMPDEST SWAP3 SWAP2 POP POP JUMP JUMPDEST PUSH32 0x4E6F74207265676973746572656420706C617965722079657400000000000000 PUSH1 0x0 DUP3 ADD MSTORE POP JUMP JUMPDEST PUSH1 0x0 PUSH2 0x1F0C PUSH1 0x19 DUP4 PUSH2 0x1AA0 JUMP JUMPDEST SWAP2 POP PUSH2 0x1F17 DUP3 PUSH2 0x1ED6 JUMP JUMPDEST PUSH1 0x20 DUP3 ADD SWAP1 POP SWAP2 SWAP1 POP JUMP JUMPDEST PUSH1 0x0 PUSH1 0x20 DUP3 ADD SWAP1 POP DUP2 DUP2 SUB PUSH1 0x0 DUP4 ADD MSTORE PUSH2 0x1F3B DUP2 PUSH2 0x1EFF JUMP JUMPDEST SWAP1 POP SWAP2 SWAP1 POP JUMP JUMPDEST PUSH32 0x496E636F72726563742063686F69636500000000000000000000000000000000 PUSH1 0x0 DUP3 ADD MSTORE POP JUMP JUMPDEST PUSH1 0x0 PUSH2 0x1F78 PUSH1 0x10 DUP4 PUSH2 0x1AA0 JUMP JUMPDEST SWAP2 POP PUSH2 0x1F83 DUP3 PUSH2 0x1F42 JUMP JUMPDEST PUSH1 0x20 DUP3 ADD SWAP1 POP SWAP2 SWAP1 POP JUMP JUMPDEST PUSH1 0x0 PUSH1 0x20 DUP3 ADD SWAP1 POP DUP2 DUP2 SUB PUSH1 0x0 DUP4 ADD MSTORE PUSH2 0x1FA7 DUP2 PUSH2 0x1F6B JUMP JUMPDEST SWAP1 POP SWAP2 SWAP1 POP JUMP JUMPDEST PUSH32 0x4F6E65206F662074686520706C6179657273206F7220626F746820646964206E PUSH1 0x0 DUP3 ADD MSTORE PUSH32 0x6F74207265676973746572656400000000000000000000000000000000000000 PUSH1 0x20 DUP3 ADD MSTORE POP JUMP JUMPDEST PUSH1 0x0 PUSH2 0x200A PUSH1 0x2D DUP4 PUSH2 0x1AA0 JUMP JUMPDEST SWAP2 POP PUSH2 0x2015 DUP3 PUSH2 0x1FAE JUMP JUMPDEST PUSH1 0x40 DUP3 ADD SWAP1 POP SWAP2 SWAP1 POP JUMP JUMPDEST PUSH1 0x0 PUSH1 0x20 DUP3 ADD SWAP1 POP DUP2 DUP2 SUB PUSH1 0x0 DUP4 ADD MSTORE PUSH2 0x2039 DUP2 PUSH2 0x1FFD JUMP JUMPDEST SWAP1 POP SWAP2 SWAP1 POP JUMP JUMPDEST PUSH32 0x70726F626C656D20776974682073616C74000000000000000000000000000000 PUSH1 0x0 DUP3 ADD MSTORE POP JUMP JUMPDEST PUSH1 0x0 PUSH2 0x2076 PUSH1 0x11 DUP4 PUSH2 0x1AA0 JUMP JUMPDEST SWAP2 POP PUSH2 0x2081 DUP3 PUSH2 0x2040 JUMP JUMPDEST PUSH1 0x20 DUP3 ADD SWAP1 POP SWAP2 SWAP1 POP JUMP JUMPDEST PUSH1 0x0 PUSH1 0x20 DUP3 ADD SWAP1 POP DUP2 DUP2 SUB PUSH1 0x0 DUP4 ADD MSTORE PUSH2 0x20A5 DUP2 PUSH2 0x2069 JUMP JUMPDEST SWAP1 POP SWAP2 SWAP1 POP JUMP JUMPDEST PUSH32 0x50726F626C656D20776974682061646472657373657300000000000000000000 PUSH1 0x0 DUP3 ADD MSTORE POP JUMP JUMPDEST PUSH1 0x0 PUSH2 0x20E2 PUSH1 0x16 DUP4 PUSH2 0x1AA0 JUMP JUMPDEST SWAP2 POP PUSH2 0x20ED DUP3 PUSH2 0x20AC JUMP JUMPDEST PUSH1 0x20 DUP3 ADD SWAP1 POP SWAP2 SWAP1 POP JUMP JUMPDEST PUSH1 0x0 PUSH1 0x20 DUP3 ADD SWAP1 POP DUP2 DUP2 SUB PUSH1 0x0 DUP4 ADD MSTORE PUSH2 0x2111 DUP2 PUSH2 0x20D5 JUMP JUMPDEST SWAP1 POP SWAP2 SWAP1 POP JUMP JUMPDEST PUSH32 0x47616D65206861736820776173206E6F742070726F7669646564000000000000 PUSH1 0x0 DUP3 ADD MSTORE POP JUMP JUMPDEST PUSH1 0x0 PUSH2 0x214E PUSH1 0x1A DUP4 PUSH2 0x1AA0 JUMP JUMPDEST SWAP2 POP PUSH2 0x2159 DUP3 PUSH2 0x2118 JUMP JUMPDEST PUSH1 0x20 DUP3 ADD SWAP1 POP SWAP2 SWAP1 POP JUMP JUMPDEST PUSH1 0x0 PUSH1 0x20 DUP3 ADD SWAP1 POP DUP2 DUP2 SUB PUSH1 0x0 DUP4 ADD MSTORE PUSH2 0x217D DUP2 PUSH2 0x2141 JUMP JUMPDEST SWAP1 POP SWAP2 SWAP1 POP JUMP JUMPDEST PUSH32 0x4F6E6C79206F776E6572206F6620636F6E747261637420697320616C6C6F7765 PUSH1 0x0 DUP3 ADD MSTORE PUSH32 0x6420746F2074686973206D6574686F6400000000000000000000000000000000 PUSH1 0x20 DUP3 ADD MSTORE POP JUMP JUMPDEST PUSH1 0x0 PUSH2 0x21E0 PUSH1 0x30 DUP4 PUSH2 0x1AA0 JUMP JUMPDEST SWAP2 POP PUSH2 0x21EB DUP3 PUSH2 0x2184 JUMP JUMPDEST PUSH1 0x40 DUP3 ADD SWAP1 POP SWAP2 SWAP1 POP JUMP JUMPDEST PUSH1 0x0 PUSH1 0x20 DUP3 ADD SWAP1 POP DUP2 DUP2 SUB PUSH1 0x0 DUP4 ADD MSTORE PUSH2 0x220F DUP2 PUSH2 0x21D3 JUMP JUMPDEST SWAP1 POP SWAP2 SWAP1 POP JUMP JUMPDEST PUSH1 0x0 DUP2 SWAP1 POP SWAP2 SWAP1 POP JUMP JUMPDEST PUSH2 0x2231 PUSH2 0x222C DUP3 PUSH2 0x193A JUMP JUMPDEST PUSH2 0x2216 JUMP JUMPDEST DUP3 MSTORE POP POP JUMP JUMPDEST PUSH1 0x0 DUP2 SWAP1 POP SWAP2 SWAP1 POP JUMP JUMPDEST PUSH2 0x2252 PUSH2 0x224D DUP3 PUSH2 0x199A JUMP JUMPDEST PUSH2 0x2237 JUMP JUMPDEST DUP3 MSTORE POP POP JUMP JUMPDEST PUSH1 0x0 PUSH2 0x2264 DUP3 DUP6 PUSH2 0x2220 JUMP JUMPDEST PUSH1 0x20 DUP3 ADD SWAP2 POP PUSH2 0x2274 DUP3 DUP5 PUSH2 0x2241 JUMP JUMPDEST PUSH1 0x20 DUP3 ADD SWAP2 POP DUP2 SWAP1 POP SWAP4 SWAP3 POP POP POP JUMP INVALID LOG2 PUSH5 0x6970667358 0x22 SLT KECCAK256 REVERT 0xC9 0xE7 0xF6 0xCB SWAP9 SAR PUSH2 0xAD39 0xB9 XOR SUB MSIZE PUSH18 0x729ED19AAAD22BF36037C41C6E2B664FEF64 PUSH20 0x6F6C634300081100330000000000000000000000 "},"methodIdentifiers":{"bothCommitted()":"92c90480","bothRevealed()":"43445ca8","commitMove(bytes32)":"a9ea37b6","endGames()":"11b0af15","getContractBalance()":"6f9fb98a","increaseStake()":"d9e257ef","isCommitted(address)":"15b80df8","isRegistered(address)":"c3c5a547","isRevealed(address)":"e711a812","outcome()":"27793f87","regPlayer()":"20737796","resetExternal()":"af2d2517","revealChoice(uint256,bytes32)":"8c10bb96","stake()":"3a4b66f1"}}}}}