{
  "_format": "hh-sol-artifact-1",
  "contractName": "RPS",
  "sourceName": "contracts/RPS.sol",
  "abi": [
    {
      "anonymous": false,
      "inputs": [
        {
          "indexed": false,
          "internalType": "enum RPS.GameOutcome",
          "name": "",
          "type": "uint8"
        }
      ],
      "name": "GetGameOutcome",
      "type": "event"
    },
    {
      "inputs": [],
      "name": "bothCommitted",
      "outputs": [
        {
          "internalType": "bool",
          "name": "",
          "type": "bool"
        }
      ],
      "stateMutability": "view",
      "type": "function"
    },
    {
      "inputs": [],
      "name": "bothRevealed",
      "outputs": [
        {
          "internalType": "bool",
          "name": "",
          "type": "bool"
        }
      ],
      "stateMutability": "view",
      "type": "function"
    },
    {
      "inputs": [
        {
          "internalType": "bytes32",
          "name": "gameHash",
          "type": "bytes32"
        }
      ],
      "name": "commitMove",
      "outputs": [
        {
          "internalType": "bool",
          "name": "",
          "type": "bool"
        }
      ],
      "stateMutability": "nonpayable",
      "type": "function"
    },
    {
      "inputs": [],
      "name": "endGames",
      "outputs": [
        {
          "internalType": "enum RPS.GameOutcome",
          "name": "",
          "type": "uint8"
        }
      ],
      "stateMutability": "nonpayable",
      "type": "function"
    },
    {
      "inputs": [],
      "name": "getContractBalance",
      "outputs": [
        {
          "internalType": "uint256",
          "name": "",
          "type": "uint256"
        }
      ],
      "stateMutability": "view",
      "type": "function"
    },
    {
      "inputs": [],
      "name": "outcome",
      "outputs": [
        {
          "internalType": "enum RPS.GameOutcome",
          "name": "",
          "type": "uint8"
        }
      ],
      "stateMutability": "view",
      "type": "function"
    },
    {
      "inputs": [],
      "name": "regPlayer",
      "outputs": [
        {
          "internalType": "uint256",
          "name": "",
          "type": "uint256"
        }
      ],
      "stateMutability": "payable",
      "type": "function"
    },
    {
      "inputs": [
        {
          "internalType": "uint256",
          "name": "choice",
          "type": "uint256"
        },
        {
          "internalType": "bytes32",
          "name": "salt",
          "type": "bytes32"
        }
      ],
      "name": "revealChoice",
      "outputs": [
        {
          "internalType": "enum RPS.GameChoice",
          "name": "",
          "type": "uint8"
        }
      ],
      "stateMutability": "nonpayable",
      "type": "function"
    },
    {
      "inputs": [],
      "name": "stake",
      "outputs": [
        {
          "internalType": "uint256",
          "name": "",
          "type": "uint256"
        }
      ],
      "stateMutability": "view",
      "type": "function"
    }
  ],
  "bytecode": "0x608060405234801561001057600080fd5b506116bd806100206000396000f3fe6080604052600436106100865760003560e01c806343445ca81161005957806343445ca81461012a5780636f9fb98a146101555780638c10bb961461018057806392c90480146101bd578063a9ea37b6146101e857610086565b806311b0af151461008b57806320737796146100b657806327793f87146100d45780633a4b66f1146100ff575b600080fd5b34801561009757600080fd5b506100a0610225565b6040516100ad9190610fa9565b60405180910390f35b6100be6105c5565b6040516100cb9190610fdd565b60405180910390f35b3480156100e057600080fd5b506100e9610893565b6040516100f69190610fa9565b60405180910390f35b34801561010b57600080fd5b506101146108a6565b6040516101219190610fdd565b60405180910390f35b34801561013657600080fd5b5061013f6108ac565b60405161014c9190611013565b60405180910390f35b34801561016157600080fd5b5061016a61092a565b6040516101779190610fdd565b60405180910390f35b34801561018c57600080fd5b506101a760048036038101906101a29190611095565b610932565b6040516101b4919061111d565b60405180910390f35b3480156101c957600080fd5b506101d2610cba565b6040516101df9190611013565b60405180910390f35b3480156101f457600080fd5b5061020f600480360381019061020a9190611138565b610cdb565b60405161021c9190611013565b60405180910390f35b600080600381111561023a57610239610f32565b5b600360019054906101000a900460ff16600381111561025c5761025b610f32565b5b1415801561029e57506000600381111561027957610278610f32565b5b600360029054906101000a900460ff16600381111561029b5761029a610f32565b5b14155b6102a757600080fd5b60038060029054906101000a900460ff1660038111156102ca576102c9610f32565b5b600360019054906101000a900460ff1660038111156102ec576102eb610f32565b5b60036102f89190611194565b61030291906111c8565b61030c919061122b565b600281111561031e5761031d610f32565b5b600360006101000a81548160ff0219169083600281111561034257610341610f32565b5b02179055506001600281111561035b5761035a610f32565b5b600360009054906101000a900460ff16600281111561037d5761037c610f32565b5b036103ee5760008054906101000a900473ffffffffffffffffffffffffffffffffffffffff1673ffffffffffffffffffffffffffffffffffffffff166108fc479081150290604051600060405180830381858888f193505050501580156103e8573d6000803e3d6000fd5b5061056a565b60028081111561040157610400610f32565b5b600360009054906101000a900460ff16600281111561042357610422610f32565b5b0361049657600160009054906101000a900473ffffffffffffffffffffffffffffffffffffffff1673ffffffffffffffffffffffffffffffffffffffff166108fc479081150290604051600060405180830381858888f19350505050158015610490573d6000803e3d6000fd5b50610569565b60008054906101000a900473ffffffffffffffffffffffffffffffffffffffff1673ffffffffffffffffffffffffffffffffffffffff166108fc6002549081150290604051600060405180830381858888f193505050501580156104fe573d6000803e3d6000fd5b50600160009054906101000a900473ffffffffffffffffffffffffffffffffffffffff1673ffffffffffffffffffffffffffffffffffffffff166108fc479081150290604051600060405180830381858888f19350505050158015610567573d6000803e3d6000fd5b505b5b7f6d1a16000380c9adde391bcb46a92c2ce8c46811cff002ed5dec38dfdc2373cd600360009054906101000a900460ff166040516105a89190610fa9565b60405180910390a1600360009054906101000a900460ff16905090565b60006103e834101561060c576040517f08c379a0000000000000000000000000000000000000000000000000000000008152600401610603906112df565b60405180910390fd5b6000600254148061061f57506002543410155b61065e576040517f08c379a00000000000000000000000000000000000000000000000000000000081526004016106559061134b565b60405180910390fd5b60008054906101000a900473ffffffffffffffffffffffffffffffffffffffff1673ffffffffffffffffffffffffffffffffffffffff163373ffffffffffffffffffffffffffffffffffffffff16141580156107085750600160009054906101000a900473ffffffffffffffffffffffffffffffffffffffff1673ffffffffffffffffffffffffffffffffffffffff163373ffffffffffffffffffffffffffffffffffffffff1614155b610747576040517f08c379a000000000000000000000000000000000000000000000000000000000815260040161073e906113dd565b60405180910390fd5b600073ffffffffffffffffffffffffffffffffffffffff1660008054906101000a900473ffffffffffffffffffffffffffffffffffffffff1673ffffffffffffffffffffffffffffffffffffffff16036107eb57336000806101000a81548173ffffffffffffffffffffffffffffffffffffffff021916908373ffffffffffffffffffffffffffffffffffffffff1602179055503460028190555060019050610890565b600073ffffffffffffffffffffffffffffffffffffffff16600160009054906101000a900473ffffffffffffffffffffffffffffffffffffffff1673ffffffffffffffffffffffffffffffffffffffff160361088b5733600160006101000a81548173ffffffffffffffffffffffffffffffffffffffff021916908373ffffffffffffffffffffffffffffffffffffffff16021790555060029050610890565b600090505b90565b600360009054906101000a900460ff1681565b60025481565b60008060038111156108c1576108c0610f32565b5b600360019054906101000a900460ff1660038111156108e3576108e2610f32565b5b14158015610925575060006003811115610900576108ff610f32565b5b600360029054906101000a900460ff16600381111561092257610921610f32565b5b14155b905090565b600047905090565b60008060009054906101000a900473ffffffffffffffffffffffffffffffffffffffff1673ffffffffffffffffffffffffffffffffffffffff163373ffffffffffffffffffffffffffffffffffffffff1614806109dc5750600160009054906101000a900473ffffffffffffffffffffffffffffffffffffffff1673ffffffffffffffffffffffffffffffffffffffff163373ffffffffffffffffffffffffffffffffffffffff16145b610a1b576040517f08c379a0000000000000000000000000000000000000000000000000000000008152600401610a1290611449565b60405180910390fd5b8260018110158015610a2e575060038111155b610a6d576040517f08c379a0000000000000000000000000000000000000000000000000000000008152600401610a64906114b5565b60405180910390fd5b6000801b60045414158015610a8757506000801b60055414155b610a9057600080fd5b3373ffffffffffffffffffffffffffffffffffffffff1660008054906101000a900473ffffffffffffffffffffffffffffffffffffffff1673ffffffffffffffffffffffffffffffffffffffff1603610b8357610aed8484610eff565b60045414610b30576040517f08c379a0000000000000000000000000000000000000000000000000000000008152600401610b2790611521565b60405180910390fd5b836003811115610b4357610b42610f32565b5b600360016101000a81548160ff02191690836003811115610b6757610b66610f32565b5b0217905550600360019054906101000a900460ff169150610cb3565b3373ffffffffffffffffffffffffffffffffffffffff16600160009054906101000a900473ffffffffffffffffffffffffffffffffffffffff1673ffffffffffffffffffffffffffffffffffffffff1603610c7857610be28484610eff565b60055414610c25576040517f08c379a0000000000000000000000000000000000000000000000000000000008152600401610c1c90611521565b60405180910390fd5b836003811115610c3857610c37610f32565b5b600360026101000a81548160ff02191690836003811115610c5c57610c5b610f32565b5b0217905550600360029054906101000a900460ff169150610cb3565b6040517f08c379a0000000000000000000000000000000000000000000000000000000008152600401610caa9061158d565b60405180910390fd5b5092915050565b60008060001b60045414158015610cd657506000801b60055414155b905090565b60008060009054906101000a900473ffffffffffffffffffffffffffffffffffffffff1673ffffffffffffffffffffffffffffffffffffffff163373ffffffffffffffffffffffffffffffffffffffff161480610d855750600160009054906101000a900473ffffffffffffffffffffffffffffffffffffffff1673ffffffffffffffffffffffffffffffffffffffff163373ffffffffffffffffffffffffffffffffffffffff16145b610dc4576040517f08c379a0000000000000000000000000000000000000000000000000000000008152600401610dbb90611449565b60405180910390fd5b8160008103610e08576040517f08c379a0000000000000000000000000000000000000000000000000000000008152600401610dff906115f9565b60405180910390fd5b60008054906101000a900473ffffffffffffffffffffffffffffffffffffffff1673ffffffffffffffffffffffffffffffffffffffff163373ffffffffffffffffffffffffffffffffffffffff16148015610e6757506000801b600454145b15610e785782600481905550610ef4565b600160009054906101000a900473ffffffffffffffffffffffffffffffffffffffff1673ffffffffffffffffffffffffffffffffffffffff163373ffffffffffffffffffffffffffffffffffffffff16148015610ed957506000801b600554145b15610eea5782600581905550610ef3565b60009150610ef9565b5b600191505b50919050565b60008282604051602001610f1492919061165b565b60405160208183030381529060405280519060200120905092915050565b7f4e487b7100000000000000000000000000000000000000000000000000000000600052602160045260246000fd5b60038110610f7257610f71610f32565b5b50565b6000819050610f8382610f61565b919050565b6000610f9382610f75565b9050919050565b610fa381610f88565b82525050565b6000602082019050610fbe6000830184610f9a565b92915050565b6000819050919050565b610fd781610fc4565b82525050565b6000602082019050610ff26000830184610fce565b92915050565b60008115159050919050565b61100d81610ff8565b82525050565b60006020820190506110286000830184611004565b92915050565b600080fd5b61103c81610fc4565b811461104757600080fd5b50565b60008135905061105981611033565b92915050565b6000819050919050565b6110728161105f565b811461107d57600080fd5b50565b60008135905061108f81611069565b92915050565b600080604083850312156110ac576110ab61102e565b5b60006110ba8582860161104a565b92505060206110cb85828601611080565b9150509250929050565b600481106110e6576110e5610f32565b5b50565b60008190506110f7826110d5565b919050565b6000611107826110e9565b9050919050565b611117816110fc565b82525050565b6000602082019050611132600083018461110e565b92915050565b60006020828403121561114e5761114d61102e565b5b600061115c84828501611080565b91505092915050565b7f4e487b7100000000000000000000000000000000000000000000000000000000600052601160045260246000fd5b600061119f82610fc4565b91506111aa83610fc4565b92508282019050808211156111c2576111c1611165565b5b92915050565b60006111d382610fc4565b91506111de83610fc4565b92508282039050818111156111f6576111f5611165565b5b92915050565b7f4e487b7100000000000000000000000000000000000000000000000000000000600052601260045260246000fd5b600061123682610fc4565b915061124183610fc4565b925082611251576112506111fc565b5b828206905092915050565b600082825260208201905092915050565b7f426574206973206c6f776572207468616e20706f737369626c65206d696e696d60008201527f756d000000000000000000000000000000000000000000000000000000000000602082015250565b60006112c960228361125c565b91506112d48261126d565b604082019050919050565b600060208201905081810360008301526112f8816112bc565b9050919050565b7f50726f626c656d207769746820746865207374616b6500000000000000000000600082015250565b600061133560168361125c565b9150611340826112ff565b602082019050919050565b6000602082019050818103600083015261136481611328565b9050919050565b7f5468697320706c617965722068617320616c726561647920726567697374657260008201527f6564000000000000000000000000000000000000000000000000000000000000602082015250565b60006113c760228361125c565b91506113d28261136b565b604082019050919050565b600060208201905081810360008301526113f6816113ba565b9050919050565b7f4e6f74207265676973746572656420706c617965722079657400000000000000600082015250565b600061143360198361125c565b915061143e826113fd565b602082019050919050565b6000602082019050818103600083015261146281611426565b9050919050565b7f496e636f72726563742063686f69636500000000000000000000000000000000600082015250565b600061149f60108361125c565b91506114aa82611469565b602082019050919050565b600060208201905081810360008301526114ce81611492565b9050919050565b7f70726f626c656d20776974682073616c74000000000000000000000000000000600082015250565b600061150b60118361125c565b9150611516826114d5565b602082019050919050565b6000602082019050818103600083015261153a816114fe565b9050919050565b7f50726f626c656d20776974682061646472657373657300000000000000000000600082015250565b600061157760168361125c565b915061158282611541565b602082019050919050565b600060208201905081810360008301526115a68161156a565b9050919050565b7f47616d65206861736820776173206e6f742070726f7669646564000000000000600082015250565b60006115e3601a8361125c565b91506115ee826115ad565b602082019050919050565b60006020820190508181036000830152611612816115d6565b9050919050565b6000819050919050565b61163461162f82610fc4565b611619565b82525050565b6000819050919050565b6116556116508261105f565b61163a565b82525050565b60006116678285611623565b6020820191506116778284611644565b602082019150819050939250505056fea26469706673582212208db43eacae957987fa852e427d6d6ff789c981850f949c26fcbbc31547f0d4a464736f6c63430008110033",
  "linkReferences": {},
  "deployedLinkReferences": {}
}