{
  "_format": "hh-sol-artifact-1",
  "contractName": "RPS",
  "sourceName": "contracts/RPS.sol",
  "abi": [
    {
      "anonymous": false,
      "inputs": [
        {
          "indexed": false,
          "internalType": "enum RPS.GameOutcome",
          "name": "",
          "type": "uint8"
        }
      ],
      "name": "GetGameOutcome",
      "type": "event"
    },
    {
      "inputs": [
        {
          "internalType": "address",
          "name": "playerOne",
          "type": "address"
        }
      ],
      "name": "endGame",
      "outputs": [
        {
          "internalType": "enum RPS.GameOutcome",
          "name": "gameResult",
          "type": "uint8"
        }
      ],
      "stateMutability": "nonpayable",
      "type": "function"
    },
    {
      "inputs": [
        {
          "internalType": "address",
          "name": "",
          "type": "address"
        }
      ],
      "name": "games",
      "outputs": [
        {
          "internalType": "address",
          "name": "playerOne",
          "type": "address"
        },
        {
          "internalType": "address",
          "name": "playerTwo",
          "type": "address"
        },
        {
          "internalType": "uint256",
          "name": "stake",
          "type": "uint256"
        },
        {
          "internalType": "uint256",
          "name": "playerOneChoice",
          "type": "uint256"
        },
        {
          "internalType": "uint256",
          "name": "playerTwoChoice",
          "type": "uint256"
        },
        {
          "internalType": "bytes32",
          "name": "playerOneHash",
          "type": "bytes32"
        },
        {
          "internalType": "bytes32",
          "name": "playerTwoHash",
          "type": "bytes32"
        },
        {
          "internalType": "enum RPS.GameStatus",
          "name": "status",
          "type": "uint8"
        },
        {
          "internalType": "enum RPS.GameOutcome",
          "name": "outcome",
          "type": "uint8"
        }
      ],
      "stateMutability": "view",
      "type": "function"
    },
    {
      "inputs": [
        {
          "internalType": "bytes32",
          "name": "gameHash",
          "type": "bytes32"
        },
        {
          "internalType": "address",
          "name": "opponent",
          "type": "address"
        }
      ],
      "name": "participateGame",
      "outputs": [],
      "stateMutability": "nonpayable",
      "type": "function"
    },
    {
      "inputs": [
        {
          "internalType": "address",
          "name": "",
          "type": "address"
        }
      ],
      "name": "playerBalances",
      "outputs": [
        {
          "internalType": "uint256",
          "name": "",
          "type": "uint256"
        }
      ],
      "stateMutability": "view",
      "type": "function"
    },
    {
      "inputs": [
        {
          "internalType": "uint256",
          "name": "choice",
          "type": "uint256"
        },
        {
          "internalType": "bytes32",
          "name": "salt",
          "type": "bytes32"
        },
        {
          "internalType": "address",
          "name": "playerOne",
          "type": "address"
        }
      ],
      "name": "revealChoice",
      "outputs": [],
      "stateMutability": "nonpayable",
      "type": "function"
    },
    {
      "inputs": [
        {
          "internalType": "bytes32",
          "name": "gameHash",
          "type": "bytes32"
        },
        {
          "internalType": "address",
          "name": "opponent",
          "type": "address"
        },
        {
          "internalType": "uint256",
          "name": "gameStake",
          "type": "uint256"
        }
      ],
      "name": "startGame",
      "outputs": [],
      "stateMutability": "nonpayable",
      "type": "function"
    }
  ],
  "bytecode": "0x608060405234801561001057600080fd5b50612006806100206000396000f3fe608060405234801561001057600080fd5b50600436106100625760003560e01c806301cf26e3146100675780632a035b6c1461008357806379131a19146100b35780637b38314c146100eb5780639f799d9c1461011b578063c0dcf64814610137575b600080fd5b610081600480360381019061007c91906115be565b610153565b005b61009d600480360381019061009891906115fe565b610614565b6040516100aa91906116a2565b60405180910390f35b6100cd60048036038101906100c891906115fe565b610bb5565b6040516100e29998979695949392919061173c565b60405180910390f35b610105600480360381019061010091906115fe565b610c5d565b60405161011291906117c9565b60405180910390f35b61013560048036038101906101309190611810565b610c75565b005b610151600480360381019061014c9190611863565b611126565b005b81816000808473ffffffffffffffffffffffffffffffffffffffff1673ffffffffffffffffffffffffffffffffffffffff16815260200190815260200160002060020154600083036101da576040517f08c379a00000000000000000000000000000000000000000000000000000000081526004016101d190611913565b60405180910390fd5b600073ffffffffffffffffffffffffffffffffffffffff168273ffffffffffffffffffffffffffffffffffffffff161415801561024357503373ffffffffffffffffffffffffffffffffffffffff168273ffffffffffffffffffffffffffffffffffffffff1614155b610282576040517f08c379a00000000000000000000000000000000000000000000000000000000081526004016102799061197f565b60405180910390fd5b600160003373ffffffffffffffffffffffffffffffffffffffff1673ffffffffffffffffffffffffffffffffffffffff16815260200190815260200160002054811115610304576040517f08c379a00000000000000000000000000000000000000000000000000000000081526004016102fb906119eb565b60405180910390fd5b3373ffffffffffffffffffffffffffffffffffffffff166000808673ffffffffffffffffffffffffffffffffffffffff1673ffffffffffffffffffffffffffffffffffffffff16815260200190815260200160002060010160009054906101000a900473ffffffffffffffffffffffffffffffffffffffff1673ffffffffffffffffffffffffffffffffffffffff16146103d3576040517f08c379a00000000000000000000000000000000000000000000000000000000081526004016103ca90611a7d565b60405180910390fd5b600160038111156103e7576103e661162b565b5b6000808673ffffffffffffffffffffffffffffffffffffffff1673ffffffffffffffffffffffffffffffffffffffff16815260200190815260200160002060070160009054906101000a900460ff1660038111156104485761044761162b565b5b14610488576040517f08c379a000000000000000000000000000000000000000000000000000000000815260040161047f90611b0f565b60405180910390fd5b60008060008673ffffffffffffffffffffffffffffffffffffffff1673ffffffffffffffffffffffffffffffffffffffff16815260200190815260200160002060020154905080600160003373ffffffffffffffffffffffffffffffffffffffff1673ffffffffffffffffffffffffffffffffffffffff168152602001908152602001600020546105199190611b5e565b600160003373ffffffffffffffffffffffffffffffffffffffff1673ffffffffffffffffffffffffffffffffffffffff16815260200190815260200160002081905550856000808773ffffffffffffffffffffffffffffffffffffffff1673ffffffffffffffffffffffffffffffffffffffff1681526020019081526020016000206006018190555060026000808773ffffffffffffffffffffffffffffffffffffffff1673ffffffffffffffffffffffffffffffffffffffff16815260200190815260200160002060070160006101000a81548160ff021916908360038111156106075761060661162b565b5b0217905550505050505050565b6000806000808473ffffffffffffffffffffffffffffffffffffffff1673ffffffffffffffffffffffffffffffffffffffff168152602001908152602001600020600301541180156106a7575060008060008473ffffffffffffffffffffffffffffffffffffffff1673ffffffffffffffffffffffffffffffffffffffff16815260200190815260200160002060040154115b6106e6576040517f08c379a00000000000000000000000000000000000000000000000000000000081526004016106dd90611c2a565b60405180910390fd5b60008060008473ffffffffffffffffffffffffffffffffffffffff1673ffffffffffffffffffffffffffffffffffffffff16815260200190815260200160002060010160009054906101000a900473ffffffffffffffffffffffffffffffffffffffff16905060008060008573ffffffffffffffffffffffffffffffffffffffff1673ffffffffffffffffffffffffffffffffffffffff16815260200190815260200160002060030154905060008060008673ffffffffffffffffffffffffffffffffffffffff1673ffffffffffffffffffffffffffffffffffffffff16815260200190815260200160002060040154905060008060008773ffffffffffffffffffffffffffffffffffffffff1673ffffffffffffffffffffffffffffffffffffffff16815260200190815260200160002060020154905060038284600361082e9190611c4a565b6108389190611b5e565b6108429190611cad565b60028111156108545761085361162b565b5b94506000600281111561086a5761086961162b565b5b85600281111561087d5761087c61162b565b5b036109a35780600160008873ffffffffffffffffffffffffffffffffffffffff1673ffffffffffffffffffffffffffffffffffffffff168152602001908152602001600020546108cd9190611c4a565b600160008873ffffffffffffffffffffffffffffffffffffffff1673ffffffffffffffffffffffffffffffffffffffff1681526020019081526020016000208190555080600160008673ffffffffffffffffffffffffffffffffffffffff1673ffffffffffffffffffffffffffffffffffffffff1681526020019081526020016000205461095b9190611c4a565b600160008673ffffffffffffffffffffffffffffffffffffffff1673ffffffffffffffffffffffffffffffffffffffff16815260200190815260200160002081905550610b75565b600160028111156109b7576109b661162b565b5b8560028111156109ca576109c961162b565b5b03610a6e576002816109dc9190611cde565b600160008873ffffffffffffffffffffffffffffffffffffffff1673ffffffffffffffffffffffffffffffffffffffff16815260200190815260200160002054610a269190611c4a565b600160008873ffffffffffffffffffffffffffffffffffffffff1673ffffffffffffffffffffffffffffffffffffffff16815260200190815260200160002081905550610b74565b600280811115610a8157610a8061162b565b5b856002811115610a9457610a9361162b565b5b03610b3857600281610aa69190611cde565b600160008673ffffffffffffffffffffffffffffffffffffffff1673ffffffffffffffffffffffffffffffffffffffff16815260200190815260200160002054610af09190611c4a565b600160008673ffffffffffffffffffffffffffffffffffffffff1673ffffffffffffffffffffffffffffffffffffffff16815260200190815260200160002081905550610b73565b6040517f08c379a0000000000000000000000000000000000000000000000000000000008152600401610b6a90611d6c565b60405180910390fd5b5b5b7f6d1a16000380c9adde391bcb46a92c2ce8c46811cff002ed5dec38dfdc2373cd85604051610ba491906116a2565b60405180910390a150505050919050565b60006020528060005260406000206000915090508060000160009054906101000a900473ffffffffffffffffffffffffffffffffffffffff16908060010160009054906101000a900473ffffffffffffffffffffffffffffffffffffffff16908060020154908060030154908060040154908060050154908060060154908060070160009054906101000a900460ff16908060070160019054906101000a900460ff16905089565b60016020528060005260406000206000915090505481565b82828260008303610cbb576040517f08c379a0000000000000000000000000000000000000000000000000000000008152600401610cb290611913565b60405180910390fd5b600073ffffffffffffffffffffffffffffffffffffffff168273ffffffffffffffffffffffffffffffffffffffff1614158015610d2457503373ffffffffffffffffffffffffffffffffffffffff168273ffffffffffffffffffffffffffffffffffffffff1614155b610d63576040517f08c379a0000000000000000000000000000000000000000000000000000000008152600401610d5a9061197f565b60405180910390fd5b600160003373ffffffffffffffffffffffffffffffffffffffff1673ffffffffffffffffffffffffffffffffffffffff16815260200190815260200160002054811115610de5576040517f08c379a0000000000000000000000000000000000000000000000000000000008152600401610ddc906119eb565b60405180910390fd5b60006003811115610df957610df861162b565b5b6000803373ffffffffffffffffffffffffffffffffffffffff1673ffffffffffffffffffffffffffffffffffffffff16815260200190815260200160002060070160009054906101000a900460ff166003811115610e5a57610e5961162b565b5b14610e9a576040517f08c379a0000000000000000000000000000000000000000000000000000000008152600401610e9190611dd8565b60405180910390fd5b83600160003373ffffffffffffffffffffffffffffffffffffffff1673ffffffffffffffffffffffffffffffffffffffff16815260200190815260200160002054610ee59190611b5e565b600160003373ffffffffffffffffffffffffffffffffffffffff1673ffffffffffffffffffffffffffffffffffffffff16815260200190815260200160002081905550856000803373ffffffffffffffffffffffffffffffffffffffff1673ffffffffffffffffffffffffffffffffffffffff16815260200190815260200160002060050181905550336000803373ffffffffffffffffffffffffffffffffffffffff1673ffffffffffffffffffffffffffffffffffffffff16815260200190815260200160002060000160006101000a81548173ffffffffffffffffffffffffffffffffffffffff021916908373ffffffffffffffffffffffffffffffffffffffff160217905550846000803373ffffffffffffffffffffffffffffffffffffffff1673ffffffffffffffffffffffffffffffffffffffff16815260200190815260200160002060010160006101000a81548173ffffffffffffffffffffffffffffffffffffffff021916908373ffffffffffffffffffffffffffffffffffffffff160217905550836000803373ffffffffffffffffffffffffffffffffffffffff1673ffffffffffffffffffffffffffffffffffffffff1681526020019081526020016000206002018190555060016000803373ffffffffffffffffffffffffffffffffffffffff1673ffffffffffffffffffffffffffffffffffffffff16815260200190815260200160002060070160006101000a81548160ff021916908360038111156111195761111861162b565b5b0217905550505050505050565b6002600381111561113a5761113961162b565b5b6000808373ffffffffffffffffffffffffffffffffffffffff1673ffffffffffffffffffffffffffffffffffffffff16815260200190815260200160002060070160009054906101000a900460ff16600381111561119b5761119a61162b565b5b146111db576040517f08c379a00000000000000000000000000000000000000000000000000000000081526004016111d290611e6a565b60405180910390fd5b3373ffffffffffffffffffffffffffffffffffffffff166000808373ffffffffffffffffffffffffffffffffffffffff1673ffffffffffffffffffffffffffffffffffffffff16815260200190815260200160002060000160009054906101000a900473ffffffffffffffffffffffffffffffffffffffff1673ffffffffffffffffffffffffffffffffffffffff16036113465761127983836114f2565b6000808373ffffffffffffffffffffffffffffffffffffffff1673ffffffffffffffffffffffffffffffffffffffff16815260200190815260200160002060050154146112fb576040517f08c379a00000000000000000000000000000000000000000000000000000000081526004016112f290611ed6565b60405180910390fd5b826000808373ffffffffffffffffffffffffffffffffffffffff1673ffffffffffffffffffffffffffffffffffffffff168152602001908152602001600020600301819055506114ed565b3373ffffffffffffffffffffffffffffffffffffffff166000808373ffffffffffffffffffffffffffffffffffffffff1673ffffffffffffffffffffffffffffffffffffffff16815260200190815260200160002060010160009054906101000a900473ffffffffffffffffffffffffffffffffffffffff1673ffffffffffffffffffffffffffffffffffffffff16036114b1576113e483836114f2565b6000808373ffffffffffffffffffffffffffffffffffffffff1673ffffffffffffffffffffffffffffffffffffffff1681526020019081526020016000206006015414611466576040517f08c379a000000000000000000000000000000000000000000000000000000000815260040161145d90611ed6565b60405180910390fd5b826000808373ffffffffffffffffffffffffffffffffffffffff1673ffffffffffffffffffffffffffffffffffffffff168152602001908152602001600020600401819055506114ec565b6040517f08c379a00000000000000000000000000000000000000000000000000000000081526004016114e390611f42565b60405180910390fd5b5b505050565b60008282604051602001611507929190611fa4565b60405160208183030381529060405280519060200120905092915050565b600080fd5b6000819050919050565b61153d8161152a565b811461154857600080fd5b50565b60008135905061155a81611534565b92915050565b600073ffffffffffffffffffffffffffffffffffffffff82169050919050565b600061158b82611560565b9050919050565b61159b81611580565b81146115a657600080fd5b50565b6000813590506115b881611592565b92915050565b600080604083850312156115d5576115d4611525565b5b60006115e38582860161154b565b92505060206115f4858286016115a9565b9150509250929050565b60006020828403121561161457611613611525565b5b6000611622848285016115a9565b91505092915050565b7f4e487b7100000000000000000000000000000000000000000000000000000000600052602160045260246000fd5b6003811061166b5761166a61162b565b5b50565b600081905061167c8261165a565b919050565b600061168c8261166e565b9050919050565b61169c81611681565b82525050565b60006020820190506116b76000830184611693565b92915050565b6116c681611580565b82525050565b6000819050919050565b6116df816116cc565b82525050565b6116ee8161152a565b82525050565b600481106117055761170461162b565b5b50565b6000819050611716826116f4565b919050565b600061172682611708565b9050919050565b6117368161171b565b82525050565b600061012082019050611752600083018c6116bd565b61175f602083018b6116bd565b61176c604083018a6116d6565b61177960608301896116d6565b61178660808301886116d6565b61179360a08301876116e5565b6117a060c08301866116e5565b6117ad60e083018561172d565b6117bb610100830184611693565b9a9950505050505050505050565b60006020820190506117de60008301846116d6565b92915050565b6117ed816116cc565b81146117f857600080fd5b50565b60008135905061180a816117e4565b92915050565b60008060006060848603121561182957611828611525565b5b60006118378682870161154b565b9350506020611848868287016115a9565b9250506040611859868287016117fb565b9150509250925092565b60008060006060848603121561187c5761187b611525565b5b600061188a868287016117fb565b935050602061189b8682870161154b565b92505060406118ac868287016115a9565b9150509250925092565b600082825260208201905092915050565b7f67616d65206861736820776173206e6f742070726f7669646564000000000000600082015250565b60006118fd601a836118b6565b9150611908826118c7565b602082019050919050565b6000602082019050818103600083015261192c816118f0565b9050919050565b7f50726f626c656d2077697468206f7468657220706c617965722e2e2e00000000600082015250565b6000611969601c836118b6565b915061197482611933565b602082019050919050565b600060208201905081810360008301526119988161195c565b9050919050565b7f506c61796572732066756e64732061726520696e73756666696369656e740000600082015250565b60006119d5601e836118b6565b91506119e08261199f565b602082019050919050565b60006020820190508181036000830152611a04816119c8565b9050919050565b7f596f7520617265206e6f7420506c61796572203220666f72207468697320676160008201527f6d65000000000000000000000000000000000000000000000000000000000000602082015250565b6000611a676022836118b6565b9150611a7282611a0b565b604082019050919050565b60006020820190508181036000830152611a9681611a5a565b9050919050565b7f47616d65206e6f742073746172746564206f722068617320616c72656164792060008201527f6265656e2070617274696369706174656420696e000000000000000000000000602082015250565b6000611af96034836118b6565b9150611b0482611a9d565b604082019050919050565b60006020820190508181036000830152611b2881611aec565b9050919050565b7f4e487b7100000000000000000000000000000000000000000000000000000000600052601160045260246000fd5b6000611b69826116cc565b9150611b74836116cc565b9250828203905081811115611b8c57611b8b611b2f565b5b92915050565b7f426f746820706c6179657273206e65656420746f2072657665616c207468656960008201527f722063686f696365206265666f72652067616d652063616e20626520636f6d7060208201527f6c65746564000000000000000000000000000000000000000000000000000000604082015250565b6000611c146045836118b6565b9150611c1f82611b92565b606082019050919050565b60006020820190508181036000830152611c4381611c07565b9050919050565b6000611c55826116cc565b9150611c60836116cc565b9250828201905080821115611c7857611c77611b2f565b5b92915050565b7f4e487b7100000000000000000000000000000000000000000000000000000000600052601260045260246000fd5b6000611cb8826116cc565b9150611cc3836116cc565b925082611cd357611cd2611c7e565b5b828206905092915050565b6000611ce9826116cc565b9150611cf4836116cc565b9250828202611d02816116cc565b91508282048414831517611d1957611d18611b2f565b5b5092915050565b7f496e76616c69642047616d65204f7574636f6d65000000000000000000000000600082015250565b6000611d566014836118b6565b9150611d6182611d20565b602082019050919050565b60006020820190508181036000830152611d8581611d49565b9050919050565b7f50726f626c656d20776974682067616d65207374617475732e2e2e0000000000600082015250565b6000611dc2601b836118b6565b9150611dcd82611d8c565b602082019050919050565b60006020820190508181036000830152611df181611db5565b9050919050565b7f47616d6520646f6573206e6f74206578697374206f7220706c6179657220547760008201527f6f20686173206e6f7420706c6163656420612062657420796574000000000000602082015250565b6000611e54603a836118b6565b9150611e5f82611df8565b604082019050919050565b60006020820190508181036000830152611e8381611e47565b9050919050565b7f70726f626c656d20776974682073616c74000000000000000000000000000000600082015250565b6000611ec06011836118b6565b9150611ecb82611e8a565b602082019050919050565b60006020820190508181036000830152611eef81611eb3565b9050919050565b7f50726f626c656d20776974682061646472657373657300000000000000000000600082015250565b6000611f2c6016836118b6565b9150611f3782611ef6565b602082019050919050565b60006020820190508181036000830152611f5b81611f1f565b9050919050565b6000819050919050565b611f7d611f78826116cc565b611f62565b82525050565b6000819050919050565b611f9e611f998261152a565b611f83565b82525050565b6000611fb08285611f6c565b602082019150611fc08284611f8d565b602082019150819050939250505056fea2646970667358221220e10ff483efbc41686298358c49f90aa08ad491c827ae1379c1c916ab055eadfe64736f6c63430008110033",
  "linkReferences": {},
  "deployedLinkReferences": {}
}