{
  "_format": "hh-sol-artifact-1",
  "contractName": "RPS",
  "sourceName": "contracts/RPS.sol",
  "abi": [
    {
      "anonymous": false,
      "inputs": [
        {
          "indexed": false,
          "internalType": "bool",
          "name": "",
          "type": "bool"
        }
      ],
      "name": "GameCommit",
      "type": "event"
    },
    {
      "anonymous": false,
      "inputs": [
        {
          "indexed": false,
          "internalType": "uint256",
          "name": "",
          "type": "uint256"
        }
      ],
      "name": "GameRegister",
      "type": "event"
    },
    {
      "anonymous": false,
      "inputs": [
        {
          "indexed": false,
          "internalType": "enum RPS.GameChoice",
          "name": "",
          "type": "uint8"
        }
      ],
      "name": "GameReveal",
      "type": "event"
    },
    {
      "anonymous": false,
      "inputs": [
        {
          "indexed": false,
          "internalType": "enum RPS.GameOutcome",
          "name": "",
          "type": "uint8"
        }
      ],
      "name": "GetGameOutcome",
      "type": "event"
    },
    {
      "inputs": [],
      "name": "bothCommitted",
      "outputs": [
        {
          "internalType": "bool",
          "name": "",
          "type": "bool"
        }
      ],
      "stateMutability": "view",
      "type": "function"
    },
    {
      "inputs": [],
      "name": "bothRevealed",
      "outputs": [
        {
          "internalType": "bool",
          "name": "",
          "type": "bool"
        }
      ],
      "stateMutability": "view",
      "type": "function"
    },
    {
      "inputs": [
        {
          "internalType": "bytes32",
          "name": "gameHash",
          "type": "bytes32"
        }
      ],
      "name": "commitMove",
      "outputs": [
        {
          "internalType": "bool",
          "name": "",
          "type": "bool"
        }
      ],
      "stateMutability": "nonpayable",
      "type": "function"
    },
    {
      "inputs": [],
      "name": "endGames",
      "outputs": [
        {
          "internalType": "enum RPS.GameOutcome",
          "name": "",
          "type": "uint8"
        }
      ],
      "stateMutability": "nonpayable",
      "type": "function"
    },
    {
      "inputs": [],
      "name": "getContractBalance",
      "outputs": [
        {
          "internalType": "uint256",
          "name": "",
          "type": "uint256"
        }
      ],
      "stateMutability": "view",
      "type": "function"
    },
    {
      "inputs": [],
      "name": "increaseStake",
      "outputs": [],
      "stateMutability": "payable",
      "type": "function"
    },
    {
      "inputs": [
        {
          "internalType": "address",
          "name": "player",
          "type": "address"
        }
      ],
      "name": "isCommitted",
      "outputs": [
        {
          "internalType": "bool",
          "name": "",
          "type": "bool"
        }
      ],
      "stateMutability": "view",
      "type": "function"
    },
    {
      "inputs": [
        {
          "internalType": "address",
          "name": "player",
          "type": "address"
        }
      ],
      "name": "isRegistered",
      "outputs": [
        {
          "internalType": "bool",
          "name": "",
          "type": "bool"
        }
      ],
      "stateMutability": "view",
      "type": "function"
    },
    {
      "inputs": [
        {
          "internalType": "address",
          "name": "player",
          "type": "address"
        }
      ],
      "name": "isRevealed",
      "outputs": [
        {
          "internalType": "bool",
          "name": "",
          "type": "bool"
        }
      ],
      "stateMutability": "view",
      "type": "function"
    },
    {
      "inputs": [],
      "name": "outcome",
      "outputs": [
        {
          "internalType": "enum RPS.GameOutcome",
          "name": "",
          "type": "uint8"
        }
      ],
      "stateMutability": "view",
      "type": "function"
    },
    {
      "inputs": [],
      "name": "regPlayer",
      "outputs": [
        {
          "internalType": "uint256",
          "name": "",
          "type": "uint256"
        }
      ],
      "stateMutability": "payable",
      "type": "function"
    },
    {
      "inputs": [],
      "name": "resetExternal",
      "outputs": [],
      "stateMutability": "nonpayable",
      "type": "function"
    },
    {
      "inputs": [
        {
          "internalType": "uint256",
          "name": "choice",
          "type": "uint256"
        },
        {
          "internalType": "bytes32",
          "name": "salt",
          "type": "bytes32"
        }
      ],
      "name": "revealChoice",
      "outputs": [
        {
          "internalType": "enum RPS.GameChoice",
          "name": "",
          "type": "uint8"
        }
      ],
      "stateMutability": "nonpayable",
      "type": "function"
    },
    {
      "inputs": [],
      "name": "stake",
      "outputs": [
        {
          "internalType": "uint256",
          "name": "",
          "type": "uint256"
        }
      ],
      "stateMutability": "view",
      "type": "function"
    }
  ],
  "bytecode": "0x608060405234801561001057600080fd5b506122ba806100206000396000f3fe6080604052600436106100dd5760003560e01c80638c10bb961161007f578063af2d251711610059578063af2d2517146102b9578063c3c5a547146102d0578063d9e257ef1461030d578063e711a81214610317576100dd565b80638c10bb961461021457806392c9048014610251578063a9ea37b61461027c576100dd565b806327793f87116100bb57806327793f87146101685780633a4b66f11461019357806343445ca8146101be5780636f9fb98a146101e9576100dd565b806311b0af15146100e257806315b80df81461010d578063207377961461014a575b600080fd5b3480156100ee57600080fd5b506100f7610354565b6040516101049190611859565b60405180910390f35b34801561011957600080fd5b50610134600480360381019061012f91906118d7565b610732565b604051610141919061191f565b60405180910390f35b610152610804565b60405161015f9190611953565b60405180910390f35b34801561017457600080fd5b5061017d610b7a565b60405161018a9190611859565b60405180910390f35b34801561019f57600080fd5b506101a8610b8d565b6040516101b59190611953565b60405180910390f35b3480156101ca57600080fd5b506101d3610b93565b6040516101e0919061191f565b60405180910390f35b3480156101f557600080fd5b506101fe610c11565b60405161020b9190611953565b60405180910390f35b34801561022057600080fd5b5061023b600480360381019061023691906119d0565b610c19565b6040516102489190611a58565b60405180910390f35b34801561025d57600080fd5b50610266611063565b604051610273919061191f565b60405180910390f35b34801561028857600080fd5b506102a3600480360381019061029e9190611a73565b611084565b6040516102b0919061191f565b60405180910390f35b3480156102c557600080fd5b506102ce611318565b005b3480156102dc57600080fd5b506102f760048036038101906102f291906118d7565b6113a4565b604051610304919061191f565b60405180910390f35b610315611454565b005b34801561032357600080fd5b5061033e600480360381019061033991906118d7565b611588565b60405161034b919061191f565b60405180910390f35b6000806003811115610369576103686117e2565b5b600360019054906101000a900460ff16600381111561038b5761038a6117e2565b5b141580156103cd5750600060038111156103a8576103a76117e2565b5b600360029054906101000a900460ff1660038111156103ca576103c96117e2565b5b14155b61040c576040517f08c379a000000000000000000000000000000000000000000000000000000000815260040161040390611b23565b60405180910390fd5b60038060029054906101000a900460ff16600381111561042f5761042e6117e2565b5b600360019054906101000a900460ff166003811115610451576104506117e2565b5b600361045d9190611b72565b6104679190611ba6565b6104719190611c09565b6002811115610483576104826117e2565b5b600360006101000a81548160ff021916908360028111156104a7576104a66117e2565b5b0217905550600160028111156104c0576104bf6117e2565b5b600360009054906101000a900460ff1660028111156104e2576104e16117e2565b5b036105535760008054906101000a900473ffffffffffffffffffffffffffffffffffffffff1673ffffffffffffffffffffffffffffffffffffffff166108fc479081150290604051600060405180830381858888f1935050505015801561054d573d6000803e3d6000fd5b506106cf565b600280811115610566576105656117e2565b5b600360009054906101000a900460ff166002811115610588576105876117e2565b5b036105fb57600160009054906101000a900473ffffffffffffffffffffffffffffffffffffffff1673ffffffffffffffffffffffffffffffffffffffff166108fc479081150290604051600060405180830381858888f193505050501580156105f5573d6000803e3d6000fd5b506106ce565b60008054906101000a900473ffffffffffffffffffffffffffffffffffffffff1673ffffffffffffffffffffffffffffffffffffffff166108fc6002549081150290604051600060405180830381858888f19350505050158015610663573d6000803e3d6000fd5b50600160009054906101000a900473ffffffffffffffffffffffffffffffffffffffff1673ffffffffffffffffffffffffffffffffffffffff166108fc479081150290604051600060405180830381858888f193505050501580156106cc573d6000803e3d6000fd5b505b5b6106d76116b8565b7f6d1a16000380c9adde391bcb46a92c2ce8c46811cff002ed5dec38dfdc2373cd600360009054906101000a900460ff166040516107159190611859565b60405180910390a1600360009054906101000a900460ff16905090565b60008173ffffffffffffffffffffffffffffffffffffffff1660008054906101000a900473ffffffffffffffffffffffffffffffffffffffff1673ffffffffffffffffffffffffffffffffffffffff1614801561079457506000801b60045414155b806107fd57508173ffffffffffffffffffffffffffffffffffffffff16600160009054906101000a900473ffffffffffffffffffffffffffffffffffffffff1673ffffffffffffffffffffffffffffffffffffffff161480156107fc57506000801b60055414155b5b9050919050565b60006103e834101561084b576040517f08c379a000000000000000000000000000000000000000000000000000000000815260040161084290611cac565b60405180910390fd5b6000600254148061085e57506002543410155b61089d576040517f08c379a000000000000000000000000000000000000000000000000000000000815260040161089490611d18565b60405180910390fd5b60008054906101000a900473ffffffffffffffffffffffffffffffffffffffff1673ffffffffffffffffffffffffffffffffffffffff163373ffffffffffffffffffffffffffffffffffffffff16141580156109475750600160009054906101000a900473ffffffffffffffffffffffffffffffffffffffff1673ffffffffffffffffffffffffffffffffffffffff163373ffffffffffffffffffffffffffffffffffffffff1614155b610986576040517f08c379a000000000000000000000000000000000000000000000000000000000815260040161097d90611daa565b60405180910390fd5b600073ffffffffffffffffffffffffffffffffffffffff1660008054906101000a900473ffffffffffffffffffffffffffffffffffffffff1673ffffffffffffffffffffffffffffffffffffffff1603610a6257336000806101000a81548173ffffffffffffffffffffffffffffffffffffffff021916908373ffffffffffffffffffffffffffffffffffffffff160217905550346002819055507f982cddadd143916f714d5e4cdb1fdbf71a3a44c802807791f444525464ad42ad6001604051610a519190611e0f565b60405180910390a160019050610b77565b600073ffffffffffffffffffffffffffffffffffffffff16600160009054906101000a900473ffffffffffffffffffffffffffffffffffffffff1673ffffffffffffffffffffffffffffffffffffffff1603610b3a5733600160006101000a81548173ffffffffffffffffffffffffffffffffffffffff021916908373ffffffffffffffffffffffffffffffffffffffff1602179055507f982cddadd143916f714d5e4cdb1fdbf71a3a44c802807791f444525464ad42ad6002604051610b299190611e65565b60405180910390a160029050610b77565b7f982cddadd143916f714d5e4cdb1fdbf71a3a44c802807791f444525464ad42ad6000604051610b6a9190611ebb565b60405180910390a1600090505b90565b600360009054906101000a900460ff1681565b60025481565b6000806003811115610ba857610ba76117e2565b5b600360019054906101000a900460ff166003811115610bca57610bc96117e2565b5b14158015610c0c575060006003811115610be757610be66117e2565b5b600360029054906101000a900460ff166003811115610c0957610c086117e2565b5b14155b905090565b600047905090565b60008060009054906101000a900473ffffffffffffffffffffffffffffffffffffffff1673ffffffffffffffffffffffffffffffffffffffff163373ffffffffffffffffffffffffffffffffffffffff161480610cc35750600160009054906101000a900473ffffffffffffffffffffffffffffffffffffffff1673ffffffffffffffffffffffffffffffffffffffff163373ffffffffffffffffffffffffffffffffffffffff16145b610d02576040517f08c379a0000000000000000000000000000000000000000000000000000000008152600401610cf990611f22565b60405180910390fd5b8260018110158015610d15575060038111155b610d54576040517f08c379a0000000000000000000000000000000000000000000000000000000008152600401610d4b90611f8e565b60405180910390fd5b6000801b60045414158015610d6e57506000801b60055414155b610dad576040517f08c379a0000000000000000000000000000000000000000000000000000000008152600401610da490612020565b60405180910390fd5b3373ffffffffffffffffffffffffffffffffffffffff1660008054906101000a900473ffffffffffffffffffffffffffffffffffffffff1673ffffffffffffffffffffffffffffffffffffffff1603610ee657610e0a84846117af565b60045414610e4d576040517f08c379a0000000000000000000000000000000000000000000000000000000008152600401610e449061208c565b60405180910390fd5b836003811115610e6057610e5f6117e2565b5b600360016101000a81548160ff02191690836003811115610e8457610e836117e2565b5b02179055507f47c7acbd4d57f5dbc1f9e9d1f9e0899016b547afbad29e7a416a892b44898e97600360019054906101000a900460ff16604051610ec79190611a58565b60405180910390a1600360019054906101000a900460ff16915061105c565b3373ffffffffffffffffffffffffffffffffffffffff16600160009054906101000a900473ffffffffffffffffffffffffffffffffffffffff1673ffffffffffffffffffffffffffffffffffffffff160361102157610f4584846117af565b60055414610f88576040517f08c379a0000000000000000000000000000000000000000000000000000000008152600401610f7f9061208c565b60405180910390fd5b836003811115610f9b57610f9a6117e2565b5b600360026101000a81548160ff02191690836003811115610fbf57610fbe6117e2565b5b02179055507f47c7acbd4d57f5dbc1f9e9d1f9e0899016b547afbad29e7a416a892b44898e97600360029054906101000a900460ff166040516110029190611a58565b60405180910390a1600360029054906101000a900460ff16915061105c565b6040517f08c379a0000000000000000000000000000000000000000000000000000000008152600401611053906120f8565b60405180910390fd5b5092915050565b60008060001b6004541415801561107f57506000801b60055414155b905090565b60008060009054906101000a900473ffffffffffffffffffffffffffffffffffffffff1673ffffffffffffffffffffffffffffffffffffffff163373ffffffffffffffffffffffffffffffffffffffff16148061112e5750600160009054906101000a900473ffffffffffffffffffffffffffffffffffffffff1673ffffffffffffffffffffffffffffffffffffffff163373ffffffffffffffffffffffffffffffffffffffff16145b61116d576040517f08c379a000000000000000000000000000000000000000000000000000000000815260040161116490611f22565b60405180910390fd5b81600081036111b1576040517f08c379a00000000000000000000000000000000000000000000000000000000081526004016111a890612164565b60405180910390fd5b60008054906101000a900473ffffffffffffffffffffffffffffffffffffffff1673ffffffffffffffffffffffffffffffffffffffff163373ffffffffffffffffffffffffffffffffffffffff1614801561121057506000801b600454145b1561122157826004819055506112d5565b600160009054906101000a900473ffffffffffffffffffffffffffffffffffffffff1673ffffffffffffffffffffffffffffffffffffffff163373ffffffffffffffffffffffffffffffffffffffff1614801561128257506000801b600554145b1561129357826005819055506112d4565b7fd0e0eee22af482d2b75b0facf637b601c155f06c6f143b473711527a01110f8460006040516112c3919061191f565b60405180910390a160009150611312565b5b7fd0e0eee22af482d2b75b0facf637b601c155f06c6f143b473711527a01110f846001604051611305919061191f565b60405180910390a1600191505b50919050565b7391cda83c363a6f72f81a2041836b1e79b4a01ab173ffffffffffffffffffffffffffffffffffffffff163373ffffffffffffffffffffffffffffffffffffffff161461139a576040517f08c379a0000000000000000000000000000000000000000000000000000000008152600401611391906121f6565b60405180910390fd5b6113a26116b8565b565b60008173ffffffffffffffffffffffffffffffffffffffff1660008054906101000a900473ffffffffffffffffffffffffffffffffffffffff1673ffffffffffffffffffffffffffffffffffffffff16148061144d57508173ffffffffffffffffffffffffffffffffffffffff16600160009054906101000a900473ffffffffffffffffffffffffffffffffffffffff1673ffffffffffffffffffffffffffffffffffffffff16145b9050919050565b7391cda83c363a6f72f81a2041836b1e79b4a01ab173ffffffffffffffffffffffffffffffffffffffff163373ffffffffffffffffffffffffffffffffffffffff16146114d6576040517f08c379a00000000000000000000000000000000000000000000000000000000081526004016114cd906121f6565b60405180910390fd5b6103e834101561151b576040517f08c379a000000000000000000000000000000000000000000000000000000000815260040161151290611cac565b60405180910390fd5b6000600254148061152e57506002543410155b61156d576040517f08c379a000000000000000000000000000000000000000000000000000000000815260040161156490611d18565b60405180910390fd5b346002600082825461157f9190611b72565b92505081905550565b60008173ffffffffffffffffffffffffffffffffffffffff1660008054906101000a900473ffffffffffffffffffffffffffffffffffffffff1673ffffffffffffffffffffffffffffffffffffffff161480156116195750600060038111156115f4576115f36117e2565b5b600360019054906101000a900460ff166003811115611616576116156117e2565b5b14155b806116b157508173ffffffffffffffffffffffffffffffffffffffff16600160009054906101000a900473ffffffffffffffffffffffffffffffffffffffff1673ffffffffffffffffffffffffffffffffffffffff161480156116b057506000600381111561168b5761168a6117e2565b5b600360029054906101000a900460ff1660038111156116ad576116ac6117e2565b5b14155b5b9050919050565b600060028190555060008060006101000a81548173ffffffffffffffffffffffffffffffffffffffff021916908373ffffffffffffffffffffffffffffffffffffffff1602179055506000600160006101000a81548173ffffffffffffffffffffffffffffffffffffffff021916908373ffffffffffffffffffffffffffffffffffffffff1602179055506000801b6004819055506000801b6005819055506000600360016101000a81548160ff0219169083600381111561177d5761177c6117e2565b5b02179055506000600360026101000a81548160ff021916908360038111156117a8576117a76117e2565b5b0217905550565b600082826040516020016117c4929190612258565b60405160208183030381529060405280519060200120905092915050565b7f4e487b7100000000000000000000000000000000000000000000000000000000600052602160045260246000fd5b60038110611822576118216117e2565b5b50565b600081905061183382611811565b919050565b600061184382611825565b9050919050565b61185381611838565b82525050565b600060208201905061186e600083018461184a565b92915050565b600080fd5b600073ffffffffffffffffffffffffffffffffffffffff82169050919050565b60006118a482611879565b9050919050565b6118b481611899565b81146118bf57600080fd5b50565b6000813590506118d1816118ab565b92915050565b6000602082840312156118ed576118ec611874565b5b60006118fb848285016118c2565b91505092915050565b60008115159050919050565b61191981611904565b82525050565b60006020820190506119346000830184611910565b92915050565b6000819050919050565b61194d8161193a565b82525050565b60006020820190506119686000830184611944565b92915050565b6119778161193a565b811461198257600080fd5b50565b6000813590506119948161196e565b92915050565b6000819050919050565b6119ad8161199a565b81146119b857600080fd5b50565b6000813590506119ca816119a4565b92915050565b600080604083850312156119e7576119e6611874565b5b60006119f585828601611985565b9250506020611a06858286016119bb565b9150509250929050565b60048110611a2157611a206117e2565b5b50565b6000819050611a3282611a10565b919050565b6000611a4282611a24565b9050919050565b611a5281611a37565b82525050565b6000602082019050611a6d6000830184611a49565b92915050565b600060208284031215611a8957611a88611874565b5b6000611a97848285016119bb565b91505092915050565b600082825260208201905092915050565b7f4f6e65206f662074686520706c6179657273206f7220626f746820646964206e60008201527f6f7420636f6d6d69740000000000000000000000000000000000000000000000602082015250565b6000611b0d602983611aa0565b9150611b1882611ab1565b604082019050919050565b60006020820190508181036000830152611b3c81611b00565b9050919050565b7f4e487b7100000000000000000000000000000000000000000000000000000000600052601160045260246000fd5b6000611b7d8261193a565b9150611b888361193a565b9250828201905080821115611ba057611b9f611b43565b5b92915050565b6000611bb18261193a565b9150611bbc8361193a565b9250828203905081811115611bd457611bd3611b43565b5b92915050565b7f4e487b7100000000000000000000000000000000000000000000000000000000600052601260045260246000fd5b6000611c148261193a565b9150611c1f8361193a565b925082611c2f57611c2e611bda565b5b828206905092915050565b7f426574206973206c6f776572207468616e20706f737369626c65206d696e696d60008201527f756d000000000000000000000000000000000000000000000000000000000000602082015250565b6000611c96602283611aa0565b9150611ca182611c3a565b604082019050919050565b60006020820190508181036000830152611cc581611c89565b9050919050565b7f50726f626c656d207769746820746865207374616b6500000000000000000000600082015250565b6000611d02601683611aa0565b9150611d0d82611ccc565b602082019050919050565b60006020820190508181036000830152611d3181611cf5565b9050919050565b7f5468697320706c617965722068617320616c726561647920726567697374657260008201527f6564000000000000000000000000000000000000000000000000000000000000602082015250565b6000611d94602283611aa0565b9150611d9f82611d38565b604082019050919050565b60006020820190508181036000830152611dc381611d87565b9050919050565b6000819050919050565b6000819050919050565b6000611df9611df4611def84611dca565b611dd4565b61193a565b9050919050565b611e0981611dde565b82525050565b6000602082019050611e246000830184611e00565b92915050565b6000819050919050565b6000611e4f611e4a611e4584611e2a565b611dd4565b61193a565b9050919050565b611e5f81611e34565b82525050565b6000602082019050611e7a6000830184611e56565b92915050565b6000819050919050565b6000611ea5611ea0611e9b84611e80565b611dd4565b61193a565b9050919050565b611eb581611e8a565b82525050565b6000602082019050611ed06000830184611eac565b92915050565b7f4e6f74207265676973746572656420706c617965722079657400000000000000600082015250565b6000611f0c601983611aa0565b9150611f1782611ed6565b602082019050919050565b60006020820190508181036000830152611f3b81611eff565b9050919050565b7f496e636f72726563742063686f69636500000000000000000000000000000000600082015250565b6000611f78601083611aa0565b9150611f8382611f42565b602082019050919050565b60006020820190508181036000830152611fa781611f6b565b9050919050565b7f4f6e65206f662074686520706c6179657273206f7220626f746820646964206e60008201527f6f74207265676973746572656400000000000000000000000000000000000000602082015250565b600061200a602d83611aa0565b915061201582611fae565b604082019050919050565b6000602082019050818103600083015261203981611ffd565b9050919050565b7f70726f626c656d20776974682073616c74000000000000000000000000000000600082015250565b6000612076601183611aa0565b915061208182612040565b602082019050919050565b600060208201905081810360008301526120a581612069565b9050919050565b7f50726f626c656d20776974682061646472657373657300000000000000000000600082015250565b60006120e2601683611aa0565b91506120ed826120ac565b602082019050919050565b60006020820190508181036000830152612111816120d5565b9050919050565b7f47616d65206861736820776173206e6f742070726f7669646564000000000000600082015250565b600061214e601a83611aa0565b915061215982612118565b602082019050919050565b6000602082019050818103600083015261217d81612141565b9050919050565b7f4f6e6c79206f776e6572206f6620636f6e747261637420697320616c6c6f776560008201527f6420746f2074686973206d6574686f6400000000000000000000000000000000602082015250565b60006121e0603083611aa0565b91506121eb82612184565b604082019050919050565b6000602082019050818103600083015261220f816121d3565b9050919050565b6000819050919050565b61223161222c8261193a565b612216565b82525050565b6000819050919050565b61225261224d8261199a565b612237565b82525050565b60006122648285612220565b6020820191506122748284612241565b602082019150819050939250505056fea2646970667358221220fdc9e7f6cb981d61ad39b918035971729ed19aaad22bf36037c41c6e2b664fef64736f6c63430008110033",
  "linkReferences": {},
  "deployedLinkReferences": {}
}