{
  "_format": "hh-sol-artifact-1",
  "contractName": "RPS",
  "sourceName": "contracts/RPS.sol",
  "abi": [
    {
      "anonymous": false,
      "inputs": [
        {
          "indexed": false,
          "internalType": "bool",
          "name": "",
          "type": "bool"
        }
      ],
      "name": "GameCommit",
      "type": "event"
    },
    {
      "anonymous": false,
      "inputs": [
        {
          "indexed": false,
          "internalType": "uint256",
          "name": "",
          "type": "uint256"
        }
      ],
      "name": "GameRegister",
      "type": "event"
    },
    {
      "anonymous": false,
      "inputs": [
        {
          "indexed": false,
          "internalType": "enum RPS.GameChoice",
          "name": "",
          "type": "uint8"
        }
      ],
      "name": "GameReveal",
      "type": "event"
    },
    {
      "anonymous": false,
      "inputs": [
        {
          "indexed": false,
          "internalType": "enum RPS.GameOutcome",
          "name": "",
          "type": "uint8"
        }
      ],
      "name": "GetGameOutcome",
      "type": "event"
    },
    {
      "inputs": [],
      "name": "bothCommitted",
      "outputs": [
        {
          "internalType": "bool",
          "name": "",
          "type": "bool"
        }
      ],
      "stateMutability": "view",
      "type": "function"
    },
    {
      "inputs": [],
      "name": "bothRevealed",
      "outputs": [
        {
          "internalType": "bool",
          "name": "",
          "type": "bool"
        }
      ],
      "stateMutability": "view",
      "type": "function"
    },
    {
      "inputs": [
        {
          "internalType": "bytes32",
          "name": "gameHash",
          "type": "bytes32"
        }
      ],
      "name": "commitMove",
      "outputs": [
        {
          "internalType": "bool",
          "name": "",
          "type": "bool"
        }
      ],
      "stateMutability": "nonpayable",
      "type": "function"
    },
    {
      "inputs": [],
      "name": "endGames",
      "outputs": [
        {
          "internalType": "enum RPS.GameOutcome",
          "name": "",
          "type": "uint8"
        }
      ],
      "stateMutability": "nonpayable",
      "type": "function"
    },
    {
      "inputs": [],
      "name": "getContractBalance",
      "outputs": [
        {
          "internalType": "uint256",
          "name": "",
          "type": "uint256"
        }
      ],
      "stateMutability": "view",
      "type": "function"
    },
    {
      "inputs": [
        {
          "internalType": "uint256",
          "name": "addStake",
          "type": "uint256"
        }
      ],
      "name": "increaseStake",
      "outputs": [],
      "stateMutability": "nonpayable",
      "type": "function"
    },
    {
      "inputs": [
        {
          "internalType": "address",
          "name": "player",
          "type": "address"
        }
      ],
      "name": "isCommitted",
      "outputs": [
        {
          "internalType": "bool",
          "name": "",
          "type": "bool"
        }
      ],
      "stateMutability": "view",
      "type": "function"
    },
    {
      "inputs": [
        {
          "internalType": "address",
          "name": "player",
          "type": "address"
        }
      ],
      "name": "isRegistered",
      "outputs": [
        {
          "internalType": "bool",
          "name": "",
          "type": "bool"
        }
      ],
      "stateMutability": "view",
      "type": "function"
    },
    {
      "inputs": [
        {
          "internalType": "address",
          "name": "player",
          "type": "address"
        }
      ],
      "name": "isRevealed",
      "outputs": [
        {
          "internalType": "bool",
          "name": "",
          "type": "bool"
        }
      ],
      "stateMutability": "view",
      "type": "function"
    },
    {
      "inputs": [],
      "name": "outcome",
      "outputs": [
        {
          "internalType": "enum RPS.GameOutcome",
          "name": "",
          "type": "uint8"
        }
      ],
      "stateMutability": "view",
      "type": "function"
    },
    {
      "inputs": [],
      "name": "regPlayer",
      "outputs": [
        {
          "internalType": "uint256",
          "name": "",
          "type": "uint256"
        }
      ],
      "stateMutability": "payable",
      "type": "function"
    },
    {
      "inputs": [],
      "name": "resetExternal",
      "outputs": [],
      "stateMutability": "nonpayable",
      "type": "function"
    },
    {
      "inputs": [
        {
          "internalType": "uint256",
          "name": "choice",
          "type": "uint256"
        },
        {
          "internalType": "bytes32",
          "name": "salt",
          "type": "bytes32"
        }
      ],
      "name": "revealChoice",
      "outputs": [
        {
          "internalType": "enum RPS.GameChoice",
          "name": "",
          "type": "uint8"
        }
      ],
      "stateMutability": "nonpayable",
      "type": "function"
    },
    {
      "inputs": [],
      "name": "stake",
      "outputs": [
        {
          "internalType": "uint256",
          "name": "",
          "type": "uint256"
        }
      ],
      "stateMutability": "view",
      "type": "function"
    }
  ],
  "bytecode": "0x608060405234801561001057600080fd5b50612270806100206000396000f3fe6080604052600436106100dd5760003560e01c80638c10bb961161007f578063af2d251711610059578063af2d2517146102b9578063c3c5a547146102d0578063e711a8121461030d578063eedad66b1461034a576100dd565b80638c10bb961461021457806392c9048014610251578063a9ea37b61461027c576100dd565b806327793f87116100bb57806327793f87146101685780633a4b66f11461019357806343445ca8146101be5780636f9fb98a146101e9576100dd565b806311b0af15146100e257806315b80df81461010d578063207377961461014a575b600080fd5b3480156100ee57600080fd5b506100f7610373565b60405161010491906117e2565b60405180910390f35b34801561011957600080fd5b50610134600480360381019061012f9190611860565b610751565b60405161014191906118a8565b60405180910390f35b610152610823565b60405161015f91906118dc565b60405180910390f35b34801561017457600080fd5b5061017d610b99565b60405161018a91906117e2565b60405180910390f35b34801561019f57600080fd5b506101a8610bac565b6040516101b591906118dc565b60405180910390f35b3480156101ca57600080fd5b506101d3610bb2565b6040516101e091906118a8565b60405180910390f35b3480156101f557600080fd5b506101fe610c30565b60405161020b91906118dc565b60405180910390f35b34801561022057600080fd5b5061023b60048036038101906102369190611959565b610c38565b60405161024891906119e1565b60405180910390f35b34801561025d57600080fd5b50610266611082565b60405161027391906118a8565b60405180910390f35b34801561028857600080fd5b506102a3600480360381019061029e91906119fc565b6110a3565b6040516102b091906118a8565b60405180910390f35b3480156102c557600080fd5b506102ce611337565b005b3480156102dc57600080fd5b506102f760048036038101906102f29190611860565b6113c3565b60405161030491906118a8565b60405180910390f35b34801561031957600080fd5b50610334600480360381019061032f9190611860565b611473565b60405161034191906118a8565b60405180910390f35b34801561035657600080fd5b50610371600480360381019061036c9190611a29565b6115a3565b005b60008060038111156103885761038761176b565b5b600360019054906101000a900460ff1660038111156103aa576103a961176b565b5b141580156103ec5750600060038111156103c7576103c661176b565b5b600360029054906101000a900460ff1660038111156103e9576103e861176b565b5b14155b61042b576040517f08c379a000000000000000000000000000000000000000000000000000000000815260040161042290611ad9565b60405180910390fd5b60038060029054906101000a900460ff16600381111561044e5761044d61176b565b5b600360019054906101000a900460ff1660038111156104705761046f61176b565b5b600361047c9190611b28565b6104869190611b5c565b6104909190611bbf565b60028111156104a2576104a161176b565b5b600360006101000a81548160ff021916908360028111156104c6576104c561176b565b5b0217905550600160028111156104df576104de61176b565b5b600360009054906101000a900460ff1660028111156105015761050061176b565b5b036105725760008054906101000a900473ffffffffffffffffffffffffffffffffffffffff1673ffffffffffffffffffffffffffffffffffffffff166108fc479081150290604051600060405180830381858888f1935050505015801561056c573d6000803e3d6000fd5b506106ee565b6002808111156105855761058461176b565b5b600360009054906101000a900460ff1660028111156105a7576105a661176b565b5b0361061a57600160009054906101000a900473ffffffffffffffffffffffffffffffffffffffff1673ffffffffffffffffffffffffffffffffffffffff166108fc479081150290604051600060405180830381858888f19350505050158015610614573d6000803e3d6000fd5b506106ed565b60008054906101000a900473ffffffffffffffffffffffffffffffffffffffff1673ffffffffffffffffffffffffffffffffffffffff166108fc6002549081150290604051600060405180830381858888f19350505050158015610682573d6000803e3d6000fd5b50600160009054906101000a900473ffffffffffffffffffffffffffffffffffffffff1673ffffffffffffffffffffffffffffffffffffffff166108fc479081150290604051600060405180830381858888f193505050501580156106eb573d6000803e3d6000fd5b505b5b6106f6611641565b7f6d1a16000380c9adde391bcb46a92c2ce8c46811cff002ed5dec38dfdc2373cd600360009054906101000a900460ff1660405161073491906117e2565b60405180910390a1600360009054906101000a900460ff16905090565b60008173ffffffffffffffffffffffffffffffffffffffff1660008054906101000a900473ffffffffffffffffffffffffffffffffffffffff1673ffffffffffffffffffffffffffffffffffffffff161480156107b357506000801b60045414155b8061081c57508173ffffffffffffffffffffffffffffffffffffffff16600160009054906101000a900473ffffffffffffffffffffffffffffffffffffffff1673ffffffffffffffffffffffffffffffffffffffff1614801561081b57506000801b60055414155b5b9050919050565b60006103e834101561086a576040517f08c379a000000000000000000000000000000000000000000000000000000000815260040161086190611c62565b60405180910390fd5b6000600254148061087d57506002543410155b6108bc576040517f08c379a00000000000000000000000000000000000000000000000000000000081526004016108b390611cce565b60405180910390fd5b60008054906101000a900473ffffffffffffffffffffffffffffffffffffffff1673ffffffffffffffffffffffffffffffffffffffff163373ffffffffffffffffffffffffffffffffffffffff16141580156109665750600160009054906101000a900473ffffffffffffffffffffffffffffffffffffffff1673ffffffffffffffffffffffffffffffffffffffff163373ffffffffffffffffffffffffffffffffffffffff1614155b6109a5576040517f08c379a000000000000000000000000000000000000000000000000000000000815260040161099c90611d60565b60405180910390fd5b600073ffffffffffffffffffffffffffffffffffffffff1660008054906101000a900473ffffffffffffffffffffffffffffffffffffffff1673ffffffffffffffffffffffffffffffffffffffff1603610a8157336000806101000a81548173ffffffffffffffffffffffffffffffffffffffff021916908373ffffffffffffffffffffffffffffffffffffffff160217905550346002819055507f982cddadd143916f714d5e4cdb1fdbf71a3a44c802807791f444525464ad42ad6001604051610a709190611dc5565b60405180910390a160019050610b96565b600073ffffffffffffffffffffffffffffffffffffffff16600160009054906101000a900473ffffffffffffffffffffffffffffffffffffffff1673ffffffffffffffffffffffffffffffffffffffff1603610b595733600160006101000a81548173ffffffffffffffffffffffffffffffffffffffff021916908373ffffffffffffffffffffffffffffffffffffffff1602179055507f982cddadd143916f714d5e4cdb1fdbf71a3a44c802807791f444525464ad42ad6002604051610b489190611e1b565b60405180910390a160029050610b96565b7f982cddadd143916f714d5e4cdb1fdbf71a3a44c802807791f444525464ad42ad6000604051610b899190611e71565b60405180910390a1600090505b90565b600360009054906101000a900460ff1681565b60025481565b6000806003811115610bc757610bc661176b565b5b600360019054906101000a900460ff166003811115610be957610be861176b565b5b14158015610c2b575060006003811115610c0657610c0561176b565b5b600360029054906101000a900460ff166003811115610c2857610c2761176b565b5b14155b905090565b600047905090565b60008060009054906101000a900473ffffffffffffffffffffffffffffffffffffffff1673ffffffffffffffffffffffffffffffffffffffff163373ffffffffffffffffffffffffffffffffffffffff161480610ce25750600160009054906101000a900473ffffffffffffffffffffffffffffffffffffffff1673ffffffffffffffffffffffffffffffffffffffff163373ffffffffffffffffffffffffffffffffffffffff16145b610d21576040517f08c379a0000000000000000000000000000000000000000000000000000000008152600401610d1890611ed8565b60405180910390fd5b8260018110158015610d34575060038111155b610d73576040517f08c379a0000000000000000000000000000000000000000000000000000000008152600401610d6a90611f44565b60405180910390fd5b6000801b60045414158015610d8d57506000801b60055414155b610dcc576040517f08c379a0000000000000000000000000000000000000000000000000000000008152600401610dc390611fd6565b60405180910390fd5b3373ffffffffffffffffffffffffffffffffffffffff1660008054906101000a900473ffffffffffffffffffffffffffffffffffffffff1673ffffffffffffffffffffffffffffffffffffffff1603610f0557610e298484611738565b60045414610e6c576040517f08c379a0000000000000000000000000000000000000000000000000000000008152600401610e6390612042565b60405180910390fd5b836003811115610e7f57610e7e61176b565b5b600360016101000a81548160ff02191690836003811115610ea357610ea261176b565b5b02179055507f47c7acbd4d57f5dbc1f9e9d1f9e0899016b547afbad29e7a416a892b44898e97600360019054906101000a900460ff16604051610ee691906119e1565b60405180910390a1600360019054906101000a900460ff16915061107b565b3373ffffffffffffffffffffffffffffffffffffffff16600160009054906101000a900473ffffffffffffffffffffffffffffffffffffffff1673ffffffffffffffffffffffffffffffffffffffff160361104057610f648484611738565b60055414610fa7576040517f08c379a0000000000000000000000000000000000000000000000000000000008152600401610f9e90612042565b60405180910390fd5b836003811115610fba57610fb961176b565b5b600360026101000a81548160ff02191690836003811115610fde57610fdd61176b565b5b02179055507f47c7acbd4d57f5dbc1f9e9d1f9e0899016b547afbad29e7a416a892b44898e97600360029054906101000a900460ff1660405161102191906119e1565b60405180910390a1600360029054906101000a900460ff16915061107b565b6040517f08c379a0000000000000000000000000000000000000000000000000000000008152600401611072906120ae565b60405180910390fd5b5092915050565b60008060001b6004541415801561109e57506000801b60055414155b905090565b60008060009054906101000a900473ffffffffffffffffffffffffffffffffffffffff1673ffffffffffffffffffffffffffffffffffffffff163373ffffffffffffffffffffffffffffffffffffffff16148061114d5750600160009054906101000a900473ffffffffffffffffffffffffffffffffffffffff1673ffffffffffffffffffffffffffffffffffffffff163373ffffffffffffffffffffffffffffffffffffffff16145b61118c576040517f08c379a000000000000000000000000000000000000000000000000000000000815260040161118390611ed8565b60405180910390fd5b81600081036111d0576040517f08c379a00000000000000000000000000000000000000000000000000000000081526004016111c79061211a565b60405180910390fd5b60008054906101000a900473ffffffffffffffffffffffffffffffffffffffff1673ffffffffffffffffffffffffffffffffffffffff163373ffffffffffffffffffffffffffffffffffffffff1614801561122f57506000801b600454145b1561124057826004819055506112f4565b600160009054906101000a900473ffffffffffffffffffffffffffffffffffffffff1673ffffffffffffffffffffffffffffffffffffffff163373ffffffffffffffffffffffffffffffffffffffff161480156112a157506000801b600554145b156112b257826005819055506112f3565b7fd0e0eee22af482d2b75b0facf637b601c155f06c6f143b473711527a01110f8460006040516112e291906118a8565b60405180910390a160009150611331565b5b7fd0e0eee22af482d2b75b0facf637b601c155f06c6f143b473711527a01110f84600160405161132491906118a8565b60405180910390a1600191505b50919050565b7391cda83c363a6f72f81a2041836b1e79b4a01ab173ffffffffffffffffffffffffffffffffffffffff163373ffffffffffffffffffffffffffffffffffffffff16146113b9576040517f08c379a00000000000000000000000000000000000000000000000000000000081526004016113b0906121ac565b60405180910390fd5b6113c1611641565b565b60008173ffffffffffffffffffffffffffffffffffffffff1660008054906101000a900473ffffffffffffffffffffffffffffffffffffffff1673ffffffffffffffffffffffffffffffffffffffff16148061146c57508173ffffffffffffffffffffffffffffffffffffffff16600160009054906101000a900473ffffffffffffffffffffffffffffffffffffffff1673ffffffffffffffffffffffffffffffffffffffff16145b9050919050565b60008173ffffffffffffffffffffffffffffffffffffffff1660008054906101000a900473ffffffffffffffffffffffffffffffffffffffff1673ffffffffffffffffffffffffffffffffffffffff161480156115045750600060038111156114df576114de61176b565b5b600360019054906101000a900460ff1660038111156115015761150061176b565b5b14155b8061159c57508173ffffffffffffffffffffffffffffffffffffffff16600160009054906101000a900473ffffffffffffffffffffffffffffffffffffffff1673ffffffffffffffffffffffffffffffffffffffff1614801561159b5750600060038111156115765761157561176b565b5b600360029054906101000a900460ff1660038111156115985761159761176b565b5b14155b5b9050919050565b7391cda83c363a6f72f81a2041836b1e79b4a01ab173ffffffffffffffffffffffffffffffffffffffff163373ffffffffffffffffffffffffffffffffffffffff1614611625576040517f08c379a000000000000000000000000000000000000000000000000000000000815260040161161c906121ac565b60405180910390fd5b80600260008282546116379190611b28565b9250508190555050565b600060028190555060008060006101000a81548173ffffffffffffffffffffffffffffffffffffffff021916908373ffffffffffffffffffffffffffffffffffffffff1602179055506000600160006101000a81548173ffffffffffffffffffffffffffffffffffffffff021916908373ffffffffffffffffffffffffffffffffffffffff1602179055506000801b6004819055506000801b6005819055506000600360016101000a81548160ff021916908360038111156117065761170561176b565b5b02179055506000600360026101000a81548160ff021916908360038111156117315761173061176b565b5b0217905550565b6000828260405160200161174d92919061220e565b60405160208183030381529060405280519060200120905092915050565b7f4e487b7100000000000000000000000000000000000000000000000000000000600052602160045260246000fd5b600381106117ab576117aa61176b565b5b50565b60008190506117bc8261179a565b919050565b60006117cc826117ae565b9050919050565b6117dc816117c1565b82525050565b60006020820190506117f760008301846117d3565b92915050565b600080fd5b600073ffffffffffffffffffffffffffffffffffffffff82169050919050565b600061182d82611802565b9050919050565b61183d81611822565b811461184857600080fd5b50565b60008135905061185a81611834565b92915050565b600060208284031215611876576118756117fd565b5b60006118848482850161184b565b91505092915050565b60008115159050919050565b6118a28161188d565b82525050565b60006020820190506118bd6000830184611899565b92915050565b6000819050919050565b6118d6816118c3565b82525050565b60006020820190506118f160008301846118cd565b92915050565b611900816118c3565b811461190b57600080fd5b50565b60008135905061191d816118f7565b92915050565b6000819050919050565b61193681611923565b811461194157600080fd5b50565b6000813590506119538161192d565b92915050565b600080604083850312156119705761196f6117fd565b5b600061197e8582860161190e565b925050602061198f85828601611944565b9150509250929050565b600481106119aa576119a961176b565b5b50565b60008190506119bb82611999565b919050565b60006119cb826119ad565b9050919050565b6119db816119c0565b82525050565b60006020820190506119f660008301846119d2565b92915050565b600060208284031215611a1257611a116117fd565b5b6000611a2084828501611944565b91505092915050565b600060208284031215611a3f57611a3e6117fd565b5b6000611a4d8482850161190e565b91505092915050565b600082825260208201905092915050565b7f4f6e65206f662074686520706c6179657273206f7220626f746820646964206e60008201527f6f7420636f6d6d69740000000000000000000000000000000000000000000000602082015250565b6000611ac3602983611a56565b9150611ace82611a67565b604082019050919050565b60006020820190508181036000830152611af281611ab6565b9050919050565b7f4e487b7100000000000000000000000000000000000000000000000000000000600052601160045260246000fd5b6000611b33826118c3565b9150611b3e836118c3565b9250828201905080821115611b5657611b55611af9565b5b92915050565b6000611b67826118c3565b9150611b72836118c3565b9250828203905081811115611b8a57611b89611af9565b5b92915050565b7f4e487b7100000000000000000000000000000000000000000000000000000000600052601260045260246000fd5b6000611bca826118c3565b9150611bd5836118c3565b925082611be557611be4611b90565b5b828206905092915050565b7f426574206973206c6f776572207468616e20706f737369626c65206d696e696d60008201527f756d000000000000000000000000000000000000000000000000000000000000602082015250565b6000611c4c602283611a56565b9150611c5782611bf0565b604082019050919050565b60006020820190508181036000830152611c7b81611c3f565b9050919050565b7f50726f626c656d207769746820746865207374616b6500000000000000000000600082015250565b6000611cb8601683611a56565b9150611cc382611c82565b602082019050919050565b60006020820190508181036000830152611ce781611cab565b9050919050565b7f5468697320706c617965722068617320616c726561647920726567697374657260008201527f6564000000000000000000000000000000000000000000000000000000000000602082015250565b6000611d4a602283611a56565b9150611d5582611cee565b604082019050919050565b60006020820190508181036000830152611d7981611d3d565b9050919050565b6000819050919050565b6000819050919050565b6000611daf611daa611da584611d80565b611d8a565b6118c3565b9050919050565b611dbf81611d94565b82525050565b6000602082019050611dda6000830184611db6565b92915050565b6000819050919050565b6000611e05611e00611dfb84611de0565b611d8a565b6118c3565b9050919050565b611e1581611dea565b82525050565b6000602082019050611e306000830184611e0c565b92915050565b6000819050919050565b6000611e5b611e56611e5184611e36565b611d8a565b6118c3565b9050919050565b611e6b81611e40565b82525050565b6000602082019050611e866000830184611e62565b92915050565b7f4e6f74207265676973746572656420706c617965722079657400000000000000600082015250565b6000611ec2601983611a56565b9150611ecd82611e8c565b602082019050919050565b60006020820190508181036000830152611ef181611eb5565b9050919050565b7f496e636f72726563742063686f69636500000000000000000000000000000000600082015250565b6000611f2e601083611a56565b9150611f3982611ef8565b602082019050919050565b60006020820190508181036000830152611f5d81611f21565b9050919050565b7f4f6e65206f662074686520706c6179657273206f7220626f746820646964206e60008201527f6f74207265676973746572656400000000000000000000000000000000000000602082015250565b6000611fc0602d83611a56565b9150611fcb82611f64565b604082019050919050565b60006020820190508181036000830152611fef81611fb3565b9050919050565b7f70726f626c656d20776974682073616c74000000000000000000000000000000600082015250565b600061202c601183611a56565b915061203782611ff6565b602082019050919050565b6000602082019050818103600083015261205b8161201f565b9050919050565b7f50726f626c656d20776974682061646472657373657300000000000000000000600082015250565b6000612098601683611a56565b91506120a382612062565b602082019050919050565b600060208201905081810360008301526120c78161208b565b9050919050565b7f47616d65206861736820776173206e6f742070726f7669646564000000000000600082015250565b6000612104601a83611a56565b915061210f826120ce565b602082019050919050565b60006020820190508181036000830152612133816120f7565b9050919050565b7f4f6e6c79206f776e6572206f6620636f6e747261637420697320616c6c6f776560008201527f6420746f2074686973206d6574686f6400000000000000000000000000000000602082015250565b6000612196603083611a56565b91506121a18261213a565b604082019050919050565b600060208201905081810360008301526121c581612189565b9050919050565b6000819050919050565b6121e76121e2826118c3565b6121cc565b82525050565b6000819050919050565b61220861220382611923565b6121ed565b82525050565b600061221a82856121d6565b60208201915061222a82846121f7565b602082019150819050939250505056fea2646970667358221220f741e367df0368005de056a0e8aafffb3d3ce4f199bf9c324cd5d3b3d5f0a4a764736f6c63430008110033",
  "linkReferences": {},
  "deployedLinkReferences": {}
}