{
  "_format": "hh-sol-artifact-1",
  "contractName": "RPS",
  "sourceName": "contracts/RPS.sol",
  "abi": [
    {
      "anonymous": false,
      "inputs": [
        {
          "indexed": false,
          "internalType": "bool",
          "name": "",
          "type": "bool"
        }
      ],
      "name": "GameCommit",
      "type": "event"
    },
    {
      "anonymous": false,
      "inputs": [
        {
          "indexed": false,
          "internalType": "uint256",
          "name": "",
          "type": "uint256"
        }
      ],
      "name": "GameRegister",
      "type": "event"
    },
    {
      "anonymous": false,
      "inputs": [
        {
          "indexed": false,
          "internalType": "enum RPS.GameChoice",
          "name": "",
          "type": "uint8"
        }
      ],
      "name": "GameReveal",
      "type": "event"
    },
    {
      "anonymous": false,
      "inputs": [
        {
          "indexed": false,
          "internalType": "enum RPS.GameOutcome",
          "name": "",
          "type": "uint8"
        }
      ],
      "name": "GetGameOutcome",
      "type": "event"
    },
    {
      "inputs": [],
      "name": "bothCommitted",
      "outputs": [
        {
          "internalType": "bool",
          "name": "",
          "type": "bool"
        }
      ],
      "stateMutability": "view",
      "type": "function"
    },
    {
      "inputs": [],
      "name": "bothRevealed",
      "outputs": [
        {
          "internalType": "bool",
          "name": "",
          "type": "bool"
        }
      ],
      "stateMutability": "view",
      "type": "function"
    },
    {
      "inputs": [
        {
          "internalType": "bytes32",
          "name": "gameHash",
          "type": "bytes32"
        }
      ],
      "name": "commitMove",
      "outputs": [
        {
          "internalType": "bool",
          "name": "",
          "type": "bool"
        }
      ],
      "stateMutability": "nonpayable",
      "type": "function"
    },
    {
      "inputs": [],
      "name": "endGames",
      "outputs": [
        {
          "internalType": "enum RPS.GameOutcome",
          "name": "",
          "type": "uint8"
        }
      ],
      "stateMutability": "nonpayable",
      "type": "function"
    },
    {
      "inputs": [],
      "name": "getContractBalance",
      "outputs": [
        {
          "internalType": "uint256",
          "name": "",
          "type": "uint256"
        }
      ],
      "stateMutability": "view",
      "type": "function"
    },
    {
      "inputs": [
        {
          "internalType": "address",
          "name": "player",
          "type": "address"
        }
      ],
      "name": "isCommitted",
      "outputs": [
        {
          "internalType": "bool",
          "name": "",
          "type": "bool"
        }
      ],
      "stateMutability": "view",
      "type": "function"
    },
    {
      "inputs": [
        {
          "internalType": "address",
          "name": "player",
          "type": "address"
        }
      ],
      "name": "isRegistered",
      "outputs": [
        {
          "internalType": "bool",
          "name": "",
          "type": "bool"
        }
      ],
      "stateMutability": "view",
      "type": "function"
    },
    {
      "inputs": [
        {
          "internalType": "address",
          "name": "player",
          "type": "address"
        }
      ],
      "name": "isRevealed",
      "outputs": [
        {
          "internalType": "bool",
          "name": "",
          "type": "bool"
        }
      ],
      "stateMutability": "view",
      "type": "function"
    },
    {
      "inputs": [],
      "name": "outcome",
      "outputs": [
        {
          "internalType": "enum RPS.GameOutcome",
          "name": "",
          "type": "uint8"
        }
      ],
      "stateMutability": "view",
      "type": "function"
    },
    {
      "inputs": [],
      "name": "regPlayer",
      "outputs": [
        {
          "internalType": "uint256",
          "name": "",
          "type": "uint256"
        }
      ],
      "stateMutability": "payable",
      "type": "function"
    },
    {
      "inputs": [
        {
          "internalType": "uint256",
          "name": "choice",
          "type": "uint256"
        },
        {
          "internalType": "bytes32",
          "name": "salt",
          "type": "bytes32"
        }
      ],
      "name": "revealChoice",
      "outputs": [
        {
          "internalType": "enum RPS.GameChoice",
          "name": "",
          "type": "uint8"
        }
      ],
      "stateMutability": "nonpayable",
      "type": "function"
    },
    {
      "inputs": [],
      "name": "stake",
      "outputs": [
        {
          "internalType": "uint256",
          "name": "",
          "type": "uint256"
        }
      ],
      "stateMutability": "view",
      "type": "function"
    }
  ],
  "bytecode": "0x608060405234801561001057600080fd5b50611d82806100206000396000f3fe6080604052600436106100a75760003560e01c80636f9fb98a116100645780636f9fb98a146101b35780638c10bb96146101de57806392c904801461021b578063a9ea37b614610246578063c3c5a54714610283578063e711a812146102c0576100a7565b806311b0af15146100ac57806315b80df8146100d7578063207377961461011457806327793f87146101325780633a4b66f11461015d57806343445ca814610188575b600080fd5b3480156100b857600080fd5b506100c16102fd565b6040516100ce91906114d7565b60405180910390f35b3480156100e357600080fd5b506100fe60048036038101906100f99190611555565b61069d565b60405161010b919061159d565b60405180910390f35b61011c61076f565b60405161012991906115d1565b60405180910390f35b34801561013e57600080fd5b50610147610ae5565b60405161015491906114d7565b60405180910390f35b34801561016957600080fd5b50610172610af8565b60405161017f91906115d1565b60405180910390f35b34801561019457600080fd5b5061019d610afe565b6040516101aa919061159d565b60405180910390f35b3480156101bf57600080fd5b506101c8610b7c565b6040516101d591906115d1565b60405180910390f35b3480156101ea57600080fd5b506102056004803603810190610200919061164e565b610b84565b60405161021291906116d6565b60405180910390f35b34801561022757600080fd5b50610230610f98565b60405161023d919061159d565b60405180910390f35b34801561025257600080fd5b5061026d600480360381019061026891906116f1565b610fb9565b60405161027a919061159d565b60405180910390f35b34801561028f57600080fd5b506102aa60048036038101906102a59190611555565b61124d565b6040516102b7919061159d565b60405180910390f35b3480156102cc57600080fd5b506102e760048036038101906102e29190611555565b6112fd565b6040516102f4919061159d565b60405180910390f35b600080600381111561031257610311611460565b5b600360019054906101000a900460ff16600381111561033457610333611460565b5b1415801561037657506000600381111561035157610350611460565b5b600360029054906101000a900460ff16600381111561037357610372611460565b5b14155b61037f57600080fd5b60038060029054906101000a900460ff1660038111156103a2576103a1611460565b5b600360019054906101000a900460ff1660038111156103c4576103c3611460565b5b60036103d0919061174d565b6103da9190611781565b6103e491906117e4565b60028111156103f6576103f5611460565b5b600360006101000a81548160ff0219169083600281111561041a57610419611460565b5b02179055506001600281111561043357610432611460565b5b600360009054906101000a900460ff16600281111561045557610454611460565b5b036104c65760008054906101000a900473ffffffffffffffffffffffffffffffffffffffff1673ffffffffffffffffffffffffffffffffffffffff166108fc479081150290604051600060405180830381858888f193505050501580156104c0573d6000803e3d6000fd5b50610642565b6002808111156104d9576104d8611460565b5b600360009054906101000a900460ff1660028111156104fb576104fa611460565b5b0361056e57600160009054906101000a900473ffffffffffffffffffffffffffffffffffffffff1673ffffffffffffffffffffffffffffffffffffffff166108fc479081150290604051600060405180830381858888f19350505050158015610568573d6000803e3d6000fd5b50610641565b60008054906101000a900473ffffffffffffffffffffffffffffffffffffffff1673ffffffffffffffffffffffffffffffffffffffff166108fc6002549081150290604051600060405180830381858888f193505050501580156105d6573d6000803e3d6000fd5b50600160009054906101000a900473ffffffffffffffffffffffffffffffffffffffff1673ffffffffffffffffffffffffffffffffffffffff166108fc479081150290604051600060405180830381858888f1935050505015801561063f573d6000803e3d6000fd5b505b5b7f6d1a16000380c9adde391bcb46a92c2ce8c46811cff002ed5dec38dfdc2373cd600360009054906101000a900460ff1660405161068091906114d7565b60405180910390a1600360009054906101000a900460ff16905090565b60008173ffffffffffffffffffffffffffffffffffffffff1660008054906101000a900473ffffffffffffffffffffffffffffffffffffffff1673ffffffffffffffffffffffffffffffffffffffff161480156106ff57506000801b60045414155b8061076857508173ffffffffffffffffffffffffffffffffffffffff16600160009054906101000a900473ffffffffffffffffffffffffffffffffffffffff1673ffffffffffffffffffffffffffffffffffffffff1614801561076757506000801b60055414155b5b9050919050565b60006103e83410156107b6576040517f08c379a00000000000000000000000000000000000000000000000000000000081526004016107ad90611898565b60405180910390fd5b600060025414806107c957506002543410155b610808576040517f08c379a00000000000000000000000000000000000000000000000000000000081526004016107ff90611904565b60405180910390fd5b60008054906101000a900473ffffffffffffffffffffffffffffffffffffffff1673ffffffffffffffffffffffffffffffffffffffff163373ffffffffffffffffffffffffffffffffffffffff16141580156108b25750600160009054906101000a900473ffffffffffffffffffffffffffffffffffffffff1673ffffffffffffffffffffffffffffffffffffffff163373ffffffffffffffffffffffffffffffffffffffff1614155b6108f1576040517f08c379a00000000000000000000000000000000000000000000000000000000081526004016108e890611996565b60405180910390fd5b600073ffffffffffffffffffffffffffffffffffffffff1660008054906101000a900473ffffffffffffffffffffffffffffffffffffffff1673ffffffffffffffffffffffffffffffffffffffff16036109cd57336000806101000a81548173ffffffffffffffffffffffffffffffffffffffff021916908373ffffffffffffffffffffffffffffffffffffffff160217905550346002819055507f982cddadd143916f714d5e4cdb1fdbf71a3a44c802807791f444525464ad42ad60016040516109bc91906119fb565b60405180910390a160019050610ae2565b600073ffffffffffffffffffffffffffffffffffffffff16600160009054906101000a900473ffffffffffffffffffffffffffffffffffffffff1673ffffffffffffffffffffffffffffffffffffffff1603610aa55733600160006101000a81548173ffffffffffffffffffffffffffffffffffffffff021916908373ffffffffffffffffffffffffffffffffffffffff1602179055507f982cddadd143916f714d5e4cdb1fdbf71a3a44c802807791f444525464ad42ad6002604051610a949190611a51565b60405180910390a160029050610ae2565b7f982cddadd143916f714d5e4cdb1fdbf71a3a44c802807791f444525464ad42ad6000604051610ad59190611aa7565b60405180910390a1600090505b90565b600360009054906101000a900460ff1681565b60025481565b6000806003811115610b1357610b12611460565b5b600360019054906101000a900460ff166003811115610b3557610b34611460565b5b14158015610b77575060006003811115610b5257610b51611460565b5b600360029054906101000a900460ff166003811115610b7457610b73611460565b5b14155b905090565b600047905090565b60008060009054906101000a900473ffffffffffffffffffffffffffffffffffffffff1673ffffffffffffffffffffffffffffffffffffffff163373ffffffffffffffffffffffffffffffffffffffff161480610c2e5750600160009054906101000a900473ffffffffffffffffffffffffffffffffffffffff1673ffffffffffffffffffffffffffffffffffffffff163373ffffffffffffffffffffffffffffffffffffffff16145b610c6d576040517f08c379a0000000000000000000000000000000000000000000000000000000008152600401610c6490611b0e565b60405180910390fd5b8260018110158015610c80575060038111155b610cbf576040517f08c379a0000000000000000000000000000000000000000000000000000000008152600401610cb690611b7a565b60405180910390fd5b6000801b60045414158015610cd957506000801b60055414155b610ce257600080fd5b3373ffffffffffffffffffffffffffffffffffffffff1660008054906101000a900473ffffffffffffffffffffffffffffffffffffffff1673ffffffffffffffffffffffffffffffffffffffff1603610e1b57610d3f848461142d565b60045414610d82576040517f08c379a0000000000000000000000000000000000000000000000000000000008152600401610d7990611be6565b60405180910390fd5b836003811115610d9557610d94611460565b5b600360016101000a81548160ff02191690836003811115610db957610db8611460565b5b02179055507f47c7acbd4d57f5dbc1f9e9d1f9e0899016b547afbad29e7a416a892b44898e97600360019054906101000a900460ff16604051610dfc91906116d6565b60405180910390a1600360019054906101000a900460ff169150610f91565b3373ffffffffffffffffffffffffffffffffffffffff16600160009054906101000a900473ffffffffffffffffffffffffffffffffffffffff1673ffffffffffffffffffffffffffffffffffffffff1603610f5657610e7a848461142d565b60055414610ebd576040517f08c379a0000000000000000000000000000000000000000000000000000000008152600401610eb490611be6565b60405180910390fd5b836003811115610ed057610ecf611460565b5b600360026101000a81548160ff02191690836003811115610ef457610ef3611460565b5b02179055507f47c7acbd4d57f5dbc1f9e9d1f9e0899016b547afbad29e7a416a892b44898e97600360029054906101000a900460ff16604051610f3791906116d6565b60405180910390a1600360029054906101000a900460ff169150610f91565b6040517f08c379a0000000000000000000000000000000000000000000000000000000008152600401610f8890611c52565b60405180910390fd5b5092915050565b60008060001b60045414158015610fb457506000801b60055414155b905090565b60008060009054906101000a900473ffffffffffffffffffffffffffffffffffffffff1673ffffffffffffffffffffffffffffffffffffffff163373ffffffffffffffffffffffffffffffffffffffff1614806110635750600160009054906101000a900473ffffffffffffffffffffffffffffffffffffffff1673ffffffffffffffffffffffffffffffffffffffff163373ffffffffffffffffffffffffffffffffffffffff16145b6110a2576040517f08c379a000000000000000000000000000000000000000000000000000000000815260040161109990611b0e565b60405180910390fd5b81600081036110e6576040517f08c379a00000000000000000000000000000000000000000000000000000000081526004016110dd90611cbe565b60405180910390fd5b60008054906101000a900473ffffffffffffffffffffffffffffffffffffffff1673ffffffffffffffffffffffffffffffffffffffff163373ffffffffffffffffffffffffffffffffffffffff1614801561114557506000801b600454145b15611156578260048190555061120a565b600160009054906101000a900473ffffffffffffffffffffffffffffffffffffffff1673ffffffffffffffffffffffffffffffffffffffff163373ffffffffffffffffffffffffffffffffffffffff161480156111b757506000801b600554145b156111c85782600581905550611209565b7fd0e0eee22af482d2b75b0facf637b601c155f06c6f143b473711527a01110f8460006040516111f8919061159d565b60405180910390a160009150611247565b5b7fd0e0eee22af482d2b75b0facf637b601c155f06c6f143b473711527a01110f84600160405161123a919061159d565b60405180910390a1600191505b50919050565b60008173ffffffffffffffffffffffffffffffffffffffff1660008054906101000a900473ffffffffffffffffffffffffffffffffffffffff1673ffffffffffffffffffffffffffffffffffffffff1614806112f657508173ffffffffffffffffffffffffffffffffffffffff16600160009054906101000a900473ffffffffffffffffffffffffffffffffffffffff1673ffffffffffffffffffffffffffffffffffffffff16145b9050919050565b60008173ffffffffffffffffffffffffffffffffffffffff1660008054906101000a900473ffffffffffffffffffffffffffffffffffffffff1673ffffffffffffffffffffffffffffffffffffffff1614801561138e57506000600381111561136957611368611460565b5b600360019054906101000a900460ff16600381111561138b5761138a611460565b5b14155b8061142657508173ffffffffffffffffffffffffffffffffffffffff16600160009054906101000a900473ffffffffffffffffffffffffffffffffffffffff1673ffffffffffffffffffffffffffffffffffffffff16148015611425575060006003811115611400576113ff611460565b5b600360029054906101000a900460ff16600381111561142257611421611460565b5b14155b5b9050919050565b60008282604051602001611442929190611d20565b60405160208183030381529060405280519060200120905092915050565b7f4e487b7100000000000000000000000000000000000000000000000000000000600052602160045260246000fd5b600381106114a05761149f611460565b5b50565b60008190506114b18261148f565b919050565b60006114c1826114a3565b9050919050565b6114d1816114b6565b82525050565b60006020820190506114ec60008301846114c8565b92915050565b600080fd5b600073ffffffffffffffffffffffffffffffffffffffff82169050919050565b6000611522826114f7565b9050919050565b61153281611517565b811461153d57600080fd5b50565b60008135905061154f81611529565b92915050565b60006020828403121561156b5761156a6114f2565b5b600061157984828501611540565b91505092915050565b60008115159050919050565b61159781611582565b82525050565b60006020820190506115b2600083018461158e565b92915050565b6000819050919050565b6115cb816115b8565b82525050565b60006020820190506115e660008301846115c2565b92915050565b6115f5816115b8565b811461160057600080fd5b50565b600081359050611612816115ec565b92915050565b6000819050919050565b61162b81611618565b811461163657600080fd5b50565b60008135905061164881611622565b92915050565b60008060408385031215611665576116646114f2565b5b600061167385828601611603565b925050602061168485828601611639565b9150509250929050565b6004811061169f5761169e611460565b5b50565b60008190506116b08261168e565b919050565b60006116c0826116a2565b9050919050565b6116d0816116b5565b82525050565b60006020820190506116eb60008301846116c7565b92915050565b600060208284031215611707576117066114f2565b5b600061171584828501611639565b91505092915050565b7f4e487b7100000000000000000000000000000000000000000000000000000000600052601160045260246000fd5b6000611758826115b8565b9150611763836115b8565b925082820190508082111561177b5761177a61171e565b5b92915050565b600061178c826115b8565b9150611797836115b8565b92508282039050818111156117af576117ae61171e565b5b92915050565b7f4e487b7100000000000000000000000000000000000000000000000000000000600052601260045260246000fd5b60006117ef826115b8565b91506117fa836115b8565b92508261180a576118096117b5565b5b828206905092915050565b600082825260208201905092915050565b7f426574206973206c6f776572207468616e20706f737369626c65206d696e696d60008201527f756d000000000000000000000000000000000000000000000000000000000000602082015250565b6000611882602283611815565b915061188d82611826565b604082019050919050565b600060208201905081810360008301526118b181611875565b9050919050565b7f50726f626c656d207769746820746865207374616b6500000000000000000000600082015250565b60006118ee601683611815565b91506118f9826118b8565b602082019050919050565b6000602082019050818103600083015261191d816118e1565b9050919050565b7f5468697320706c617965722068617320616c726561647920726567697374657260008201527f6564000000000000000000000000000000000000000000000000000000000000602082015250565b6000611980602283611815565b915061198b82611924565b604082019050919050565b600060208201905081810360008301526119af81611973565b9050919050565b6000819050919050565b6000819050919050565b60006119e56119e06119db846119b6565b6119c0565b6115b8565b9050919050565b6119f5816119ca565b82525050565b6000602082019050611a1060008301846119ec565b92915050565b6000819050919050565b6000611a3b611a36611a3184611a16565b6119c0565b6115b8565b9050919050565b611a4b81611a20565b82525050565b6000602082019050611a666000830184611a42565b92915050565b6000819050919050565b6000611a91611a8c611a8784611a6c565b6119c0565b6115b8565b9050919050565b611aa181611a76565b82525050565b6000602082019050611abc6000830184611a98565b92915050565b7f4e6f74207265676973746572656420706c617965722079657400000000000000600082015250565b6000611af8601983611815565b9150611b0382611ac2565b602082019050919050565b60006020820190508181036000830152611b2781611aeb565b9050919050565b7f496e636f72726563742063686f69636500000000000000000000000000000000600082015250565b6000611b64601083611815565b9150611b6f82611b2e565b602082019050919050565b60006020820190508181036000830152611b9381611b57565b9050919050565b7f70726f626c656d20776974682073616c74000000000000000000000000000000600082015250565b6000611bd0601183611815565b9150611bdb82611b9a565b602082019050919050565b60006020820190508181036000830152611bff81611bc3565b9050919050565b7f50726f626c656d20776974682061646472657373657300000000000000000000600082015250565b6000611c3c601683611815565b9150611c4782611c06565b602082019050919050565b60006020820190508181036000830152611c6b81611c2f565b9050919050565b7f47616d65206861736820776173206e6f742070726f7669646564000000000000600082015250565b6000611ca8601a83611815565b9150611cb382611c72565b602082019050919050565b60006020820190508181036000830152611cd781611c9b565b9050919050565b6000819050919050565b611cf9611cf4826115b8565b611cde565b82525050565b6000819050919050565b611d1a611d1582611618565b611cff565b82525050565b6000611d2c8285611ce8565b602082019150611d3c8284611d09565b602082019150819050939250505056fea26469706673582212209635b2fb9a6660b8b29d46446ac20f824cce05ae0ba039676992ea8acc25e8c664736f6c63430008110033",
  "linkReferences": {},
  "deployedLinkReferences": {}
}