{
	"contracts/RPS.sol": {
		"RPS": {
			"abi": [
				{
					"anonymous": false,
					"inputs": [
						{
							"indexed": false,
							"internalType": "bool",
							"name": "",
							"type": "bool"
						}
					],
					"name": "GameCommit",
					"type": "event"
				},
				{
					"anonymous": false,
					"inputs": [
						{
							"indexed": false,
							"internalType": "uint256",
							"name": "",
							"type": "uint256"
						}
					],
					"name": "GameRegister",
					"type": "event"
				},
				{
					"anonymous": false,
					"inputs": [
						{
							"indexed": false,
							"internalType": "enum RPS.GameChoice",
							"name": "",
							"type": "uint8"
						}
					],
					"name": "GameReveal",
					"type": "event"
				},
				{
					"anonymous": false,
					"inputs": [
						{
							"indexed": false,
							"internalType": "enum RPS.GameOutcome",
							"name": "",
							"type": "uint8"
						}
					],
					"name": "GetGameOutcome",
					"type": "event"
				},
				{
					"inputs": [],
					"name": "bothCommitted",
					"outputs": [
						{
							"internalType": "bool",
							"name": "",
							"type": "bool"
						}
					],
					"stateMutability": "view",
					"type": "function"
				},
				{
					"inputs": [],
					"name": "bothRevealed",
					"outputs": [
						{
							"internalType": "bool",
							"name": "",
							"type": "bool"
						}
					],
					"stateMutability": "view",
					"type": "function"
				},
				{
					"inputs": [
						{
							"internalType": "bytes32",
							"name": "gameHash",
							"type": "bytes32"
						}
					],
					"name": "commitMove",
					"outputs": [
						{
							"internalType": "bool",
							"name": "",
							"type": "bool"
						}
					],
					"stateMutability": "nonpayable",
					"type": "function"
				},
				{
					"inputs": [],
					"name": "endGames",
					"outputs": [
						{
							"internalType": "enum RPS.GameOutcome",
							"name": "",
							"type": "uint8"
						}
					],
					"stateMutability": "nonpayable",
					"type": "function"
				},
				{
					"inputs": [],
					"name": "getContractBalance",
					"outputs": [
						{
							"internalType": "uint256",
							"name": "",
							"type": "uint256"
						}
					],
					"stateMutability": "view",
					"type": "function"
				},
				{
					"inputs": [],
					"name": "increaseStake",
					"outputs": [],
					"stateMutability": "payable",
					"type": "function"
				},
				{
					"inputs": [
						{
							"internalType": "address",
							"name": "player",
							"type": "address"
						}
					],
					"name": "isCommitted",
					"outputs": [
						{
							"internalType": "bool",
							"name": "",
							"type": "bool"
						}
					],
					"stateMutability": "view",
					"type": "function"
				},
				{
					"inputs": [
						{
							"internalType": "address",
							"name": "player",
							"type": "address"
						}
					],
					"name": "isRegistered",
					"outputs": [
						{
							"internalType": "bool",
							"name": "",
							"type": "bool"
						}
					],
					"stateMutability": "view",
					"type": "function"
				},
				{
					"inputs": [
						{
							"internalType": "address",
							"name": "player",
							"type": "address"
						}
					],
					"name": "isRevealed",
					"outputs": [
						{
							"internalType": "bool",
							"name": "",
							"type": "bool"
						}
					],
					"stateMutability": "view",
					"type": "function"
				},
				{
					"inputs": [],
					"name": "outcome",
					"outputs": [
						{
							"internalType": "enum RPS.GameOutcome",
							"name": "",
							"type": "uint8"
						}
					],
					"stateMutability": "view",
					"type": "function"
				},
				{
					"inputs": [],
					"name": "regPlayer",
					"outputs": [
						{
							"internalType": "uint256",
							"name": "",
							"type": "uint256"
						}
					],
					"stateMutability": "payable",
					"type": "function"
				},
				{
					"inputs": [],
					"name": "resetExternal",
					"outputs": [],
					"stateMutability": "nonpayable",
					"type": "function"
				},
				{
					"inputs": [
						{
							"internalType": "uint256",
							"name": "choice",
							"type": "uint256"
						},
						{
							"internalType": "bytes32",
							"name": "salt",
							"type": "bytes32"
						}
					],
					"name": "revealChoice",
					"outputs": [
						{
							"internalType": "enum RPS.GameChoice",
							"name": "",
							"type": "uint8"
						}
					],
					"stateMutability": "nonpayable",
					"type": "function"
				},
				{
					"inputs": [],
					"name": "stake",
					"outputs": [
						{
							"internalType": "uint256",
							"name": "",
							"type": "uint256"
						}
					],
					"stateMutability": "view",
					"type": "function"
				}
			],
			"devdoc": {
				"kind": "dev",
				"methods": {},
				"version": 1
			},
			"evm": {
				"assembly": "    /* \"contracts/RPS.sol\":75:5792  contract RPS {... */\n  mstore(0x40, 0x80)\n  callvalue\n  dup1\n  iszero\n  tag_1\n  jumpi\n  0x00\n  dup1\n  revert\ntag_1:\n  pop\n  dataSize(sub_0)\n  dup1\n  dataOffset(sub_0)\n  0x00\n  codecopy\n  0x00\n  return\nstop\n\nsub_0: assembly {\n        /* \"contracts/RPS.sol\":75:5792  contract RPS {... */\n      mstore(0x40, 0x80)\n      jumpi(tag_1, lt(calldatasize, 0x04))\n      shr(0xe0, calldataload(0x00))\n      dup1\n      0x8c10bb96\n      gt\n      tag_16\n      jumpi\n      dup1\n      0xaf2d2517\n      gt\n      tag_17\n      jumpi\n      dup1\n      0xaf2d2517\n      eq\n      tag_12\n      jumpi\n      dup1\n      0xc3c5a547\n      eq\n      tag_13\n      jumpi\n      dup1\n      0xd9e257ef\n      eq\n      tag_14\n      jumpi\n      dup1\n      0xe711a812\n      eq\n      tag_15\n      jumpi\n      jump(tag_1)\n    tag_17:\n      dup1\n      0x8c10bb96\n      eq\n      tag_9\n      jumpi\n      dup1\n      0x92c90480\n      eq\n      tag_10\n      jumpi\n      dup1\n      0xa9ea37b6\n      eq\n      tag_11\n      jumpi\n      jump(tag_1)\n    tag_16:\n      dup1\n      0x27793f87\n      gt\n      tag_18\n      jumpi\n      dup1\n      0x27793f87\n      eq\n      tag_5\n      jumpi\n      dup1\n      0x3a4b66f1\n      eq\n      tag_6\n      jumpi\n      dup1\n      0x43445ca8\n      eq\n      tag_7\n      jumpi\n      dup1\n      0x6f9fb98a\n      eq\n      tag_8\n      jumpi\n      jump(tag_1)\n    tag_18:\n      dup1\n      0x11b0af15\n      eq\n      tag_2\n      jumpi\n      dup1\n      0x15b80df8\n      eq\n      tag_3\n      jumpi\n      dup1\n      0x20737796\n      eq\n      tag_4\n      jumpi\n    tag_1:\n      0x00\n      dup1\n      revert\n        /* \"contracts/RPS.sol\":3634:4212  function endGames() external revealed returns(GameOutcome) {... */\n    tag_2:\n      callvalue\n      dup1\n      iszero\n      tag_19\n      jumpi\n      0x00\n      dup1\n      revert\n    tag_19:\n      pop\n      tag_20\n      tag_21\n      jump\t// in\n    tag_20:\n      mload(0x40)\n      tag_22\n      swap2\n      swap1\n      tag_23\n      jump\t// in\n    tag_22:\n      mload(0x40)\n      dup1\n      swap2\n      sub\n      swap1\n      return\n        /* \"contracts/RPS.sol\":5080:5277  function isCommitted(address player) public view returns (bool) {... */\n    tag_3:\n      callvalue\n      dup1\n      iszero\n      tag_24\n      jumpi\n      0x00\n      dup1\n      revert\n    tag_24:\n      pop\n      tag_25\n      0x04\n      dup1\n      calldatasize\n      sub\n      dup2\n      add\n      swap1\n      tag_26\n      swap2\n      swap1\n      tag_27\n      jump\t// in\n    tag_26:\n      tag_28\n      jump\t// in\n    tag_25:\n      mload(0x40)\n      tag_29\n      swap2\n      swap1\n      tag_30\n      jump\t// in\n    tag_29:\n      mload(0x40)\n      dup1\n      swap2\n      sub\n      swap1\n      return\n        /* \"contracts/RPS.sol\":1975:2436  function regPlayer() public payable validBet notRegistered returns (uint) {... */\n    tag_4:\n      tag_31\n      tag_32\n      jump\t// in\n    tag_31:\n      mload(0x40)\n      tag_33\n      swap2\n      swap1\n      tag_34\n      jump\t// in\n    tag_33:\n      mload(0x40)\n      dup1\n      swap2\n      sub\n      swap1\n      return\n        /* \"contracts/RPS.sol\":517:543  GameOutcome public outcome */\n    tag_5:\n      callvalue\n      dup1\n      iszero\n      tag_35\n      jumpi\n      0x00\n      dup1\n      revert\n    tag_35:\n      pop\n      tag_36\n      tag_37\n      jump\t// in\n    tag_36:\n      mload(0x40)\n      tag_38\n      swap2\n      swap1\n      tag_23\n      jump\t// in\n    tag_38:\n      mload(0x40)\n      dup1\n      swap2\n      sub\n      swap1\n      return\n        /* \"contracts/RPS.sol\":494:511  uint public stake */\n    tag_6:\n      callvalue\n      dup1\n      iszero\n      tag_39\n      jumpi\n      0x00\n      dup1\n      revert\n    tag_39:\n      pop\n      tag_40\n      tag_41\n      jump\t// in\n    tag_40:\n      mload(0x40)\n      tag_42\n      swap2\n      swap1\n      tag_34\n      jump\t// in\n    tag_42:\n      mload(0x40)\n      dup1\n      swap2\n      sub\n      swap1\n      return\n        /* \"contracts/RPS.sol\":5641:5790  function bothRevealed() public view returns (bool) {... */\n    tag_7:\n      callvalue\n      dup1\n      iszero\n      tag_43\n      jumpi\n      0x00\n      dup1\n      revert\n    tag_43:\n      pop\n      tag_44\n      tag_45\n      jump\t// in\n    tag_44:\n      mload(0x40)\n      tag_46\n      swap2\n      swap1\n      tag_30\n      jump\t// in\n    tag_46:\n      mload(0x40)\n      dup1\n      swap2\n      sub\n      swap1\n      return\n        /* \"contracts/RPS.sol\":4833:4935  function getContractBalance() public view returns (uint) {... */\n    tag_8:\n      callvalue\n      dup1\n      iszero\n      tag_47\n      jumpi\n      0x00\n      dup1\n      revert\n    tag_47:\n      pop\n      tag_48\n      tag_49\n      jump\t// in\n    tag_48:\n      mload(0x40)\n      tag_50\n      swap2\n      swap1\n      tag_34\n      jump\t// in\n    tag_50:\n      mload(0x40)\n      dup1\n      swap2\n      sub\n      swap1\n      return\n        /* \"contracts/RPS.sol\":2902:3628  function revealChoice(uint choice, bytes32 salt) public hasRegistered correctChoice(choice) committed returns (GameChoice) {... */\n    tag_9:\n      callvalue\n      dup1\n      iszero\n      tag_51\n      jumpi\n      0x00\n      dup1\n      revert\n    tag_51:\n      pop\n      tag_52\n      0x04\n      dup1\n      calldatasize\n      sub\n      dup2\n      add\n      swap1\n      tag_53\n      swap2\n      swap1\n      tag_54\n      jump\t// in\n    tag_53:\n      tag_55\n      jump\t// in\n    tag_52:\n      mload(0x40)\n      tag_56\n      swap2\n      swap1\n      tag_57\n      jump\t// in\n    tag_56:\n      mload(0x40)\n      dup1\n      swap2\n      sub\n      swap1\n      return\n        /* \"contracts/RPS.sol\":5513:5635  function bothCommitted() public view returns (bool) {... */\n    tag_10:\n      callvalue\n      dup1\n      iszero\n      tag_58\n      jumpi\n      0x00\n      dup1\n      revert\n    tag_58:\n      pop\n      tag_59\n      tag_60\n      jump\t// in\n    tag_59:\n      mload(0x40)\n      tag_61\n      swap2\n      swap1\n      tag_30\n      jump\t// in\n    tag_61:\n      mload(0x40)\n      dup1\n      swap2\n      sub\n      swap1\n      return\n        /* \"contracts/RPS.sol\":2442:2896  function commitMove(bytes32 gameHash) public hasRegistered hashProvided(gameHash) returns (bool) {... */\n    tag_11:\n      callvalue\n      dup1\n      iszero\n      tag_62\n      jumpi\n      0x00\n      dup1\n      revert\n    tag_62:\n      pop\n      tag_63\n      0x04\n      dup1\n      calldatasize\n      sub\n      dup2\n      add\n      swap1\n      tag_64\n      swap2\n      swap1\n      tag_65\n      jump\t// in\n    tag_64:\n      tag_66\n      jump\t// in\n    tag_63:\n      mload(0x40)\n      tag_67\n      swap2\n      swap1\n      tag_30\n      jump\t// in\n    tag_67:\n      mload(0x40)\n      dup1\n      swap2\n      sub\n      swap1\n      return\n        /* \"contracts/RPS.sol\":4218:4284  function resetExternal() public onlyOwner {... */\n    tag_12:\n      callvalue\n      dup1\n      iszero\n      tag_68\n      jumpi\n      0x00\n      dup1\n      revert\n    tag_68:\n      pop\n      tag_69\n      tag_70\n      jump\t// in\n    tag_69:\n      stop\n        /* \"contracts/RPS.sol\":4941:5074  function isRegistered(address player) public view returns (bool) {... */\n    tag_13:\n      callvalue\n      dup1\n      iszero\n      tag_71\n      jumpi\n      0x00\n      dup1\n      revert\n    tag_71:\n      pop\n      tag_72\n      0x04\n      dup1\n      calldatasize\n      sub\n      dup2\n      add\n      swap1\n      tag_73\n      swap2\n      swap1\n      tag_27\n      jump\t// in\n    tag_73:\n      tag_74\n      jump\t// in\n    tag_72:\n      mload(0x40)\n      tag_75\n      swap2\n      swap1\n      tag_30\n      jump\t// in\n    tag_75:\n      mload(0x40)\n      dup1\n      swap2\n      sub\n      swap1\n      return\n        /* \"contracts/RPS.sol\":4290:4384  function increaseStake() public onlyOwner validBet payable {... */\n    tag_14:\n      tag_76\n      tag_77\n      jump\t// in\n    tag_76:\n      stop\n        /* \"contracts/RPS.sol\":5283:5507  function isRevealed(address player) public view returns (bool) {... */\n    tag_15:\n      callvalue\n      dup1\n      iszero\n      tag_78\n      jumpi\n      0x00\n      dup1\n      revert\n    tag_78:\n      pop\n      tag_79\n      0x04\n      dup1\n      calldatasize\n      sub\n      dup2\n      add\n      swap1\n      tag_80\n      swap2\n      swap1\n      tag_27\n      jump\t// in\n    tag_80:\n      tag_81\n      jump\t// in\n    tag_79:\n      mload(0x40)\n      tag_82\n      swap2\n      swap1\n      tag_30\n      jump\t// in\n    tag_82:\n      mload(0x40)\n      dup1\n      swap2\n      sub\n      swap1\n      return\n        /* \"contracts/RPS.sol\":3634:4212  function endGames() external revealed returns(GameOutcome) {... */\n    tag_21:\n        /* \"contracts/RPS.sol\":3680:3691  GameOutcome */\n      0x00\n        /* \"contracts/RPS.sol\":1671:1686  GameChoice.none */\n      dup1\n        /* \"contracts/RPS.sol\":1652:1686  playerOneChoice != GameChoice.none */\n      0x03\n      dup2\n      gt\n      iszero\n      tag_84\n      jumpi\n      tag_85\n      tag_86\n      jump\t// in\n    tag_85:\n    tag_84:\n        /* \"contracts/RPS.sol\":1652:1667  playerOneChoice */\n      0x03\n      0x01\n      swap1\n      sload\n      swap1\n      0x0100\n      exp\n      swap1\n      div\n      0xff\n      and\n        /* \"contracts/RPS.sol\":1652:1686  playerOneChoice != GameChoice.none */\n      0x03\n      dup2\n      gt\n      iszero\n      tag_87\n      jumpi\n      tag_88\n      tag_86\n      jump\t// in\n    tag_88:\n    tag_87:\n      eq\n      iszero\n        /* \"contracts/RPS.sol\":1652:1724  playerOneChoice != GameChoice.none && playerTwoChoice != GameChoice.none */\n      dup1\n      iszero\n      tag_89\n      jumpi\n      pop\n        /* \"contracts/RPS.sol\":1709:1724  GameChoice.none */\n      0x00\n        /* \"contracts/RPS.sol\":1690:1724  playerTwoChoice != GameChoice.none */\n      0x03\n      dup2\n      gt\n      iszero\n      tag_90\n      jumpi\n      tag_91\n      tag_86\n      jump\t// in\n    tag_91:\n    tag_90:\n        /* \"contracts/RPS.sol\":1690:1705  playerTwoChoice */\n      0x03\n      0x02\n      swap1\n      sload\n      swap1\n      0x0100\n      exp\n      swap1\n      div\n      0xff\n      and\n        /* \"contracts/RPS.sol\":1690:1724  playerTwoChoice != GameChoice.none */\n      0x03\n      dup2\n      gt\n      iszero\n      tag_92\n      jumpi\n      tag_93\n      tag_86\n      jump\t// in\n    tag_93:\n    tag_92:\n      eq\n      iszero\n        /* \"contracts/RPS.sol\":1652:1724  playerOneChoice != GameChoice.none && playerTwoChoice != GameChoice.none */\n    tag_89:\n        /* \"contracts/RPS.sol\":1644:1770  require(playerOneChoice != GameChoice.none && playerTwoChoice != GameChoice.none, \"One of the players or both did not commit\") */\n      tag_94\n      jumpi\n      mload(0x40)\n      0x08c379a000000000000000000000000000000000000000000000000000000000\n      dup2\n      mstore\n      0x04\n      add\n      tag_95\n      swap1\n      tag_96\n      jump\t// in\n    tag_95:\n      mload(0x40)\n      dup1\n      swap2\n      sub\n      swap1\n      revert\n    tag_94:\n        /* \"contracts/RPS.sol\":3779:3780  3 */\n      0x03\n        /* \"contracts/RPS.sol\":3759:3774  playerTwoChoice */\n      dup1\n      0x02\n      swap1\n      sload\n      swap1\n      0x0100\n      exp\n      swap1\n      div\n      0xff\n      and\n        /* \"contracts/RPS.sol\":3754:3775  uint(playerTwoChoice) */\n      0x03\n      dup2\n      gt\n      iszero\n      tag_98\n      jumpi\n      tag_99\n      tag_86\n      jump\t// in\n    tag_99:\n    tag_98:\n        /* \"contracts/RPS.sol\":3735:3750  playerOneChoice */\n      0x03\n      0x01\n      swap1\n      sload\n      swap1\n      0x0100\n      exp\n      swap1\n      div\n      0xff\n      and\n        /* \"contracts/RPS.sol\":3730:3751  uint(playerOneChoice) */\n      0x03\n      dup2\n      gt\n      iszero\n      tag_100\n      jumpi\n      tag_101\n      tag_86\n      jump\t// in\n    tag_101:\n    tag_100:\n        /* \"contracts/RPS.sol\":3726:3727  3 */\n      0x03\n        /* \"contracts/RPS.sol\":3726:3751  3 + uint(playerOneChoice) */\n      tag_102\n      swap2\n      swap1\n      tag_103\n      jump\t// in\n    tag_102:\n        /* \"contracts/RPS.sol\":3726:3775  3 + uint(playerOneChoice) - uint(playerTwoChoice) */\n      tag_104\n      swap2\n      swap1\n      tag_105\n      jump\t// in\n    tag_104:\n        /* \"contracts/RPS.sol\":3725:3780  (3 + uint(playerOneChoice) - uint(playerTwoChoice)) % 3 */\n      tag_106\n      swap2\n      swap1\n      tag_107\n      jump\t// in\n    tag_106:\n        /* \"contracts/RPS.sol\":3713:3781  GameOutcome((3 + uint(playerOneChoice) - uint(playerTwoChoice)) % 3) */\n      0x02\n      dup2\n      gt\n      iszero\n      tag_108\n      jumpi\n      tag_109\n      tag_86\n      jump\t// in\n    tag_109:\n    tag_108:\n        /* \"contracts/RPS.sol\":3703:3710  outcome */\n      0x03\n      0x00\n        /* \"contracts/RPS.sol\":3703:3781  outcome = GameOutcome((3 + uint(playerOneChoice) - uint(playerTwoChoice)) % 3) */\n      0x0100\n      exp\n      dup2\n      sload\n      dup2\n      0xff\n      mul\n      not\n      and\n      swap1\n      dup4\n      0x02\n      dup2\n      gt\n      iszero\n      tag_110\n      jumpi\n      tag_111\n      tag_86\n      jump\t// in\n    tag_111:\n    tag_110:\n      mul\n      or\n      swap1\n      sstore\n      pop\n        /* \"contracts/RPS.sol\":3807:3828  GameOutcome.playerOne */\n      0x01\n        /* \"contracts/RPS.sol\":3796:3828  outcome == GameOutcome.playerOne */\n      0x02\n      dup2\n      gt\n      iszero\n      tag_112\n      jumpi\n      tag_113\n      tag_86\n      jump\t// in\n    tag_113:\n    tag_112:\n        /* \"contracts/RPS.sol\":3796:3803  outcome */\n      0x03\n      0x00\n      swap1\n      sload\n      swap1\n      0x0100\n      exp\n      swap1\n      div\n      0xff\n      and\n        /* \"contracts/RPS.sol\":3796:3828  outcome == GameOutcome.playerOne */\n      0x02\n      dup2\n      gt\n      iszero\n      tag_114\n      jumpi\n      tag_115\n      tag_86\n      jump\t// in\n    tag_115:\n    tag_114:\n      eq\n        /* \"contracts/RPS.sol\":3792:4117  if (outcome == GameOutcome.playerOne) {... */\n      iszero\n      tag_116\n      jumpi\n        /* \"contracts/RPS.sol\":3844:3853  playerOne */\n      0x00\n      dup1\n      sload\n      swap1\n      0x0100\n      exp\n      swap1\n      div\n      0xffffffffffffffffffffffffffffffffffffffff\n      and\n        /* \"contracts/RPS.sol\":3844:3862  playerOne.transfer */\n      0xffffffffffffffffffffffffffffffffffffffff\n      and\n        /* \"contracts/RPS.sol\":3844:3885  playerOne.transfer(address(this).balance) */\n      0x08fc\n        /* \"contracts/RPS.sol\":3863:3884  address(this).balance */\n      selfbalance\n        /* \"contracts/RPS.sol\":3844:3885  playerOne.transfer(address(this).balance) */\n      swap1\n      dup2\n      iszero\n      mul\n      swap1\n      mload(0x40)\n      0x00\n      mload(0x40)\n      dup1\n      dup4\n      sub\n      dup2\n      dup6\n      dup9\n      dup9\n      call\n      swap4\n      pop\n      pop\n      pop\n      pop\n      iszero\n      dup1\n      iszero\n      tag_118\n      jumpi\n      returndatasize\n      0x00\n      dup1\n      returndatacopy\n      revert(0x00, returndatasize)\n    tag_118:\n      pop\n        /* \"contracts/RPS.sol\":3792:4117  if (outcome == GameOutcome.playerOne) {... */\n      jump(tag_119)\n    tag_116:\n        /* \"contracts/RPS.sol\":3917:3938  GameOutcome.playerTwo */\n      0x02\n        /* \"contracts/RPS.sol\":3906:3938  outcome == GameOutcome.playerTwo */\n      dup1\n      dup2\n      gt\n      iszero\n      tag_120\n      jumpi\n      tag_121\n      tag_86\n      jump\t// in\n    tag_121:\n    tag_120:\n        /* \"contracts/RPS.sol\":3906:3913  outcome */\n      0x03\n      0x00\n      swap1\n      sload\n      swap1\n      0x0100\n      exp\n      swap1\n      div\n      0xff\n      and\n        /* \"contracts/RPS.sol\":3906:3938  outcome == GameOutcome.playerTwo */\n      0x02\n      dup2\n      gt\n      iszero\n      tag_122\n      jumpi\n      tag_123\n      tag_86\n      jump\t// in\n    tag_123:\n    tag_122:\n      eq\n        /* \"contracts/RPS.sol\":3902:4117  if (outcome == GameOutcome.playerTwo) {... */\n      iszero\n      tag_124\n      jumpi\n        /* \"contracts/RPS.sol\":3954:3963  playerTwo */\n      0x01\n      0x00\n      swap1\n      sload\n      swap1\n      0x0100\n      exp\n      swap1\n      div\n      0xffffffffffffffffffffffffffffffffffffffff\n      and\n        /* \"contracts/RPS.sol\":3954:3972  playerTwo.transfer */\n      0xffffffffffffffffffffffffffffffffffffffff\n      and\n        /* \"contracts/RPS.sol\":3954:3995  playerTwo.transfer(address(this).balance) */\n      0x08fc\n        /* \"contracts/RPS.sol\":3973:3994  address(this).balance */\n      selfbalance\n        /* \"contracts/RPS.sol\":3954:3995  playerTwo.transfer(address(this).balance) */\n      swap1\n      dup2\n      iszero\n      mul\n      swap1\n      mload(0x40)\n      0x00\n      mload(0x40)\n      dup1\n      dup4\n      sub\n      dup2\n      dup6\n      dup9\n      dup9\n      call\n      swap4\n      pop\n      pop\n      pop\n      pop\n      iszero\n      dup1\n      iszero\n      tag_126\n      jumpi\n      returndatasize\n      0x00\n      dup1\n      returndatacopy\n      revert(0x00, returndatasize)\n    tag_126:\n      pop\n        /* \"contracts/RPS.sol\":3902:4117  if (outcome == GameOutcome.playerTwo) {... */\n      jump(tag_127)\n    tag_124:\n        /* \"contracts/RPS.sol\":4026:4035  playerOne */\n      0x00\n      dup1\n      sload\n      swap1\n      0x0100\n      exp\n      swap1\n      div\n      0xffffffffffffffffffffffffffffffffffffffff\n      and\n        /* \"contracts/RPS.sol\":4026:4044  playerOne.transfer */\n      0xffffffffffffffffffffffffffffffffffffffff\n      and\n        /* \"contracts/RPS.sol\":4026:4051  playerOne.transfer(stake) */\n      0x08fc\n        /* \"contracts/RPS.sol\":4045:4050  stake */\n      sload(0x02)\n        /* \"contracts/RPS.sol\":4026:4051  playerOne.transfer(stake) */\n      swap1\n      dup2\n      iszero\n      mul\n      swap1\n      mload(0x40)\n      0x00\n      mload(0x40)\n      dup1\n      dup4\n      sub\n      dup2\n      dup6\n      dup9\n      dup9\n      call\n      swap4\n      pop\n      pop\n      pop\n      pop\n      iszero\n      dup1\n      iszero\n      tag_129\n      jumpi\n      returndatasize\n      0x00\n      dup1\n      returndatacopy\n      revert(0x00, returndatasize)\n    tag_129:\n      pop\n        /* \"contracts/RPS.sol\":4065:4074  playerTwo */\n      0x01\n      0x00\n      swap1\n      sload\n      swap1\n      0x0100\n      exp\n      swap1\n      div\n      0xffffffffffffffffffffffffffffffffffffffff\n      and\n        /* \"contracts/RPS.sol\":4065:4083  playerTwo.transfer */\n      0xffffffffffffffffffffffffffffffffffffffff\n      and\n        /* \"contracts/RPS.sol\":4065:4106  playerTwo.transfer(address(this).balance) */\n      0x08fc\n        /* \"contracts/RPS.sol\":4084:4105  address(this).balance */\n      selfbalance\n        /* \"contracts/RPS.sol\":4065:4106  playerTwo.transfer(address(this).balance) */\n      swap1\n      dup2\n      iszero\n      mul\n      swap1\n      mload(0x40)\n      0x00\n      mload(0x40)\n      dup1\n      dup4\n      sub\n      dup2\n      dup6\n      dup9\n      dup9\n      call\n      swap4\n      pop\n      pop\n      pop\n      pop\n      iszero\n      dup1\n      iszero\n      tag_131\n      jumpi\n      returndatasize\n      0x00\n      dup1\n      returndatacopy\n      revert(0x00, returndatasize)\n    tag_131:\n      pop\n        /* \"contracts/RPS.sol\":3902:4117  if (outcome == GameOutcome.playerTwo) {... */\n    tag_127:\n        /* \"contracts/RPS.sol\":3792:4117  if (outcome == GameOutcome.playerOne) {... */\n    tag_119:\n        /* \"contracts/RPS.sol\":4127:4134  reset() */\n      tag_132\n        /* \"contracts/RPS.sol\":4127:4132  reset */\n      tag_133\n        /* \"contracts/RPS.sol\":4127:4134  reset() */\n      jump\t// in\n    tag_132:\n        /* \"contracts/RPS.sol\":4158:4181  GetGameOutcome(outcome) */\n      0x6d1a16000380c9adde391bcb46a92c2ce8c46811cff002ed5dec38dfdc2373cd\n        /* \"contracts/RPS.sol\":4173:4180  outcome */\n      0x03\n      0x00\n      swap1\n      sload\n      swap1\n      0x0100\n      exp\n      swap1\n      div\n      0xff\n      and\n        /* \"contracts/RPS.sol\":4158:4181  GetGameOutcome(outcome) */\n      mload(0x40)\n      tag_134\n      swap2\n      swap1\n      tag_23\n      jump\t// in\n    tag_134:\n      mload(0x40)\n      dup1\n      swap2\n      sub\n      swap1\n      log1\n        /* \"contracts/RPS.sol\":4198:4205  outcome */\n      0x03\n      0x00\n      swap1\n      sload\n      swap1\n      0x0100\n      exp\n      swap1\n      div\n      0xff\n      and\n        /* \"contracts/RPS.sol\":4191:4205  return outcome */\n      swap1\n      pop\n        /* \"contracts/RPS.sol\":3634:4212  function endGames() external revealed returns(GameOutcome) {... */\n      swap1\n      jump\t// out\n        /* \"contracts/RPS.sol\":5080:5277  function isCommitted(address player) public view returns (bool) {... */\n    tag_28:\n        /* \"contracts/RPS.sol\":5138:5142  bool */\n      0x00\n        /* \"contracts/RPS.sol\":5175:5181  player */\n      dup2\n        /* \"contracts/RPS.sol\":5162:5181  playerOne == player */\n      0xffffffffffffffffffffffffffffffffffffffff\n      and\n        /* \"contracts/RPS.sol\":5162:5171  playerOne */\n      0x00\n      dup1\n      sload\n      swap1\n      0x0100\n      exp\n      swap1\n      div\n      0xffffffffffffffffffffffffffffffffffffffff\n      and\n        /* \"contracts/RPS.sol\":5162:5181  playerOne == player */\n      0xffffffffffffffffffffffffffffffffffffffff\n      and\n      eq\n        /* \"contracts/RPS.sol\":5162:5205  playerOne == player && playerOneHash != 0x0 */\n      dup1\n      iszero\n      tag_136\n      jumpi\n      pop\n        /* \"contracts/RPS.sol\":5202:5205  0x0 */\n      0x00\n        /* \"contracts/RPS.sol\":5185:5205  playerOneHash != 0x0 */\n      dup1\n      shl\n        /* \"contracts/RPS.sol\":5185:5198  playerOneHash */\n      sload(0x04)\n        /* \"contracts/RPS.sol\":5185:5205  playerOneHash != 0x0 */\n      eq\n      iszero\n        /* \"contracts/RPS.sol\":5162:5205  playerOne == player && playerOneHash != 0x0 */\n    tag_136:\n        /* \"contracts/RPS.sol\":5162:5269  playerOne == player && playerOneHash != 0x0 || ... */\n      dup1\n      tag_137\n      jumpi\n      pop\n        /* \"contracts/RPS.sol\":5239:5245  player */\n      dup2\n        /* \"contracts/RPS.sol\":5226:5245  playerTwo == player */\n      0xffffffffffffffffffffffffffffffffffffffff\n      and\n        /* \"contracts/RPS.sol\":5226:5235  playerTwo */\n      0x01\n      0x00\n      swap1\n      sload\n      swap1\n      0x0100\n      exp\n      swap1\n      div\n      0xffffffffffffffffffffffffffffffffffffffff\n      and\n        /* \"contracts/RPS.sol\":5226:5245  playerTwo == player */\n      0xffffffffffffffffffffffffffffffffffffffff\n      and\n      eq\n        /* \"contracts/RPS.sol\":5226:5269  playerTwo == player && playerTwoHash != 0x0 */\n      dup1\n      iszero\n      tag_138\n      jumpi\n      pop\n        /* \"contracts/RPS.sol\":5266:5269  0x0 */\n      0x00\n        /* \"contracts/RPS.sol\":5249:5269  playerTwoHash != 0x0 */\n      dup1\n      shl\n        /* \"contracts/RPS.sol\":5249:5262  playerTwoHash */\n      sload(0x05)\n        /* \"contracts/RPS.sol\":5249:5269  playerTwoHash != 0x0 */\n      eq\n      iszero\n        /* \"contracts/RPS.sol\":5226:5269  playerTwo == player && playerTwoHash != 0x0 */\n    tag_138:\n        /* \"contracts/RPS.sol\":5162:5269  playerOne == player && playerOneHash != 0x0 || ... */\n    tag_137:\n        /* \"contracts/RPS.sol\":5154:5270  return (playerOne == player && playerOneHash != 0x0 || ... */\n      swap1\n      pop\n        /* \"contracts/RPS.sol\":5080:5277  function isCommitted(address player) public view returns (bool) {... */\n      swap2\n      swap1\n      pop\n      jump\t// out\n        /* \"contracts/RPS.sol\":1975:2436  function regPlayer() public payable validBet notRegistered returns (uint) {... */\n    tag_32:\n        /* \"contracts/RPS.sol\":2043:2047  uint */\n      0x00\n        /* \"contracts/RPS.sol\":118:122  1000 */\n      0x03e8\n        /* \"contracts/RPS.sol\":740:749  msg.value */\n      callvalue\n        /* \"contracts/RPS.sol\":740:760  msg.value >= MIN_BET */\n      lt\n      iszero\n        /* \"contracts/RPS.sol\":732:799  require(msg.value >= MIN_BET, \"Bet is lower than possible minimum\") */\n      tag_140\n      jumpi\n      mload(0x40)\n      0x08c379a000000000000000000000000000000000000000000000000000000000\n      dup2\n      mstore\n      0x04\n      add\n      tag_141\n      swap1\n      tag_142\n      jump\t// in\n    tag_141:\n      mload(0x40)\n      dup1\n      swap2\n      sub\n      swap1\n      revert\n    tag_140:\n        /* \"contracts/RPS.sol\":826:827  0 */\n      0x00\n        /* \"contracts/RPS.sol\":817:822  stake */\n      sload(0x02)\n        /* \"contracts/RPS.sol\":817:827  stake == 0 */\n      eq\n        /* \"contracts/RPS.sol\":817:849  stake == 0 || msg.value >= stake */\n      dup1\n      tag_143\n      jumpi\n      pop\n        /* \"contracts/RPS.sol\":844:849  stake */\n      sload(0x02)\n        /* \"contracts/RPS.sol\":831:840  msg.value */\n      callvalue\n        /* \"contracts/RPS.sol\":831:849  msg.value >= stake */\n      lt\n      iszero\n        /* \"contracts/RPS.sol\":817:849  stake == 0 || msg.value >= stake */\n    tag_143:\n        /* \"contracts/RPS.sol\":809:876  require(stake == 0 || msg.value >= stake, \"Problem with the stake\") */\n      tag_144\n      jumpi\n      mload(0x40)\n      0x08c379a000000000000000000000000000000000000000000000000000000000\n      dup2\n      mstore\n      0x04\n      add\n      tag_145\n      swap1\n      tag_146\n      jump\t// in\n    tag_145:\n      mload(0x40)\n      dup1\n      swap2\n      sub\n      swap1\n      revert\n    tag_144:\n        /* \"contracts/RPS.sol\":957:966  playerOne */\n      0x00\n      dup1\n      sload\n      swap1\n      0x0100\n      exp\n      swap1\n      div\n      0xffffffffffffffffffffffffffffffffffffffff\n      and\n        /* \"contracts/RPS.sol\":943:966  msg.sender != playerOne */\n      0xffffffffffffffffffffffffffffffffffffffff\n      and\n        /* \"contracts/RPS.sol\":943:953  msg.sender */\n      caller\n        /* \"contracts/RPS.sol\":943:966  msg.sender != playerOne */\n      0xffffffffffffffffffffffffffffffffffffffff\n      and\n      eq\n      iszero\n        /* \"contracts/RPS.sol\":943:993  msg.sender != playerOne && msg.sender != playerTwo */\n      dup1\n      iszero\n      tag_148\n      jumpi\n      pop\n        /* \"contracts/RPS.sol\":984:993  playerTwo */\n      0x01\n      0x00\n      swap1\n      sload\n      swap1\n      0x0100\n      exp\n      swap1\n      div\n      0xffffffffffffffffffffffffffffffffffffffff\n      and\n        /* \"contracts/RPS.sol\":970:993  msg.sender != playerTwo */\n      0xffffffffffffffffffffffffffffffffffffffff\n      and\n        /* \"contracts/RPS.sol\":970:980  msg.sender */\n      caller\n        /* \"contracts/RPS.sol\":970:993  msg.sender != playerTwo */\n      0xffffffffffffffffffffffffffffffffffffffff\n      and\n      eq\n      iszero\n        /* \"contracts/RPS.sol\":943:993  msg.sender != playerOne && msg.sender != playerTwo */\n    tag_148:\n        /* \"contracts/RPS.sol\":935:1032  require(msg.sender != playerOne && msg.sender != playerTwo, \"This player has already registered\") */\n      tag_149\n      jumpi\n      mload(0x40)\n      0x08c379a000000000000000000000000000000000000000000000000000000000\n      dup2\n      mstore\n      0x04\n      add\n      tag_150\n      swap1\n      tag_151\n      jump\t// in\n    tag_150:\n      mload(0x40)\n      dup1\n      swap2\n      sub\n      swap1\n      revert\n    tag_149:\n        /* \"contracts/RPS.sol\":2084:2087  0x0 */\n      0x00\n        /* \"contracts/RPS.sol\":2063:2088  playerOne == address(0x0) */\n      0xffffffffffffffffffffffffffffffffffffffff\n      and\n        /* \"contracts/RPS.sol\":2063:2072  playerOne */\n      0x00\n      dup1\n      sload\n      swap1\n      0x0100\n      exp\n      swap1\n      div\n      0xffffffffffffffffffffffffffffffffffffffff\n      and\n        /* \"contracts/RPS.sol\":2063:2088  playerOne == address(0x0) */\n      0xffffffffffffffffffffffffffffffffffffffff\n      and\n      eq\n        /* \"contracts/RPS.sol\":2059:2382  if (playerOne == address(0x0)) {... */\n      iszero\n      tag_153\n      jumpi\n        /* \"contracts/RPS.sol\":2124:2134  msg.sender */\n      caller\n        /* \"contracts/RPS.sol\":2104:2113  playerOne */\n      0x00\n      dup1\n        /* \"contracts/RPS.sol\":2104:2135  playerOne = payable(msg.sender) */\n      0x0100\n      exp\n      dup2\n      sload\n      dup2\n      0xffffffffffffffffffffffffffffffffffffffff\n      mul\n      not\n      and\n      swap1\n      dup4\n      0xffffffffffffffffffffffffffffffffffffffff\n      and\n      mul\n      or\n      swap1\n      sstore\n      pop\n        /* \"contracts/RPS.sol\":2157:2166  msg.value */\n      callvalue\n        /* \"contracts/RPS.sol\":2149:2154  stake */\n      0x02\n        /* \"contracts/RPS.sol\":2149:2166  stake = msg.value */\n      dup2\n      swap1\n      sstore\n      pop\n        /* \"contracts/RPS.sol\":2185:2200  GameRegister(1) */\n      0x982cddadd143916f714d5e4cdb1fdbf71a3a44c802807791f444525464ad42ad\n        /* \"contracts/RPS.sol\":2198:2199  1 */\n      0x01\n        /* \"contracts/RPS.sol\":2185:2200  GameRegister(1) */\n      mload(0x40)\n      tag_154\n      swap2\n      swap1\n      tag_155\n      jump\t// in\n    tag_154:\n      mload(0x40)\n      dup1\n      swap2\n      sub\n      swap1\n      log1\n        /* \"contracts/RPS.sol\":2221:2222  1 */\n      0x01\n        /* \"contracts/RPS.sol\":2214:2222  return 1 */\n      swap1\n      pop\n      jump(tag_152)\n        /* \"contracts/RPS.sol\":2059:2382  if (playerOne == address(0x0)) {... */\n    tag_153:\n        /* \"contracts/RPS.sol\":2264:2267  0x0 */\n      0x00\n        /* \"contracts/RPS.sol\":2243:2268  playerTwo == address(0x0) */\n      0xffffffffffffffffffffffffffffffffffffffff\n      and\n        /* \"contracts/RPS.sol\":2243:2252  playerTwo */\n      0x01\n      0x00\n      swap1\n      sload\n      swap1\n      0x0100\n      exp\n      swap1\n      div\n      0xffffffffffffffffffffffffffffffffffffffff\n      and\n        /* \"contracts/RPS.sol\":2243:2268  playerTwo == address(0x0) */\n      0xffffffffffffffffffffffffffffffffffffffff\n      and\n      eq\n        /* \"contracts/RPS.sol\":2239:2382  if (playerTwo == address(0x0)) {... */\n      iszero\n      tag_157\n      jumpi\n        /* \"contracts/RPS.sol\":2304:2314  msg.sender */\n      caller\n        /* \"contracts/RPS.sol\":2284:2293  playerTwo */\n      0x01\n      0x00\n        /* \"contracts/RPS.sol\":2284:2315  playerTwo = payable(msg.sender) */\n      0x0100\n      exp\n      dup2\n      sload\n      dup2\n      0xffffffffffffffffffffffffffffffffffffffff\n      mul\n      not\n      and\n      swap1\n      dup4\n      0xffffffffffffffffffffffffffffffffffffffff\n      and\n      mul\n      or\n      swap1\n      sstore\n      pop\n        /* \"contracts/RPS.sol\":2334:2349  GameRegister(2) */\n      0x982cddadd143916f714d5e4cdb1fdbf71a3a44c802807791f444525464ad42ad\n        /* \"contracts/RPS.sol\":2347:2348  2 */\n      0x02\n        /* \"contracts/RPS.sol\":2334:2349  GameRegister(2) */\n      mload(0x40)\n      tag_158\n      swap2\n      swap1\n      tag_159\n      jump\t// in\n    tag_158:\n      mload(0x40)\n      dup1\n      swap2\n      sub\n      swap1\n      log1\n        /* \"contracts/RPS.sol\":2370:2371  2 */\n      0x02\n        /* \"contracts/RPS.sol\":2363:2371  return 2 */\n      swap1\n      pop\n      jump(tag_152)\n        /* \"contracts/RPS.sol\":2239:2382  if (playerTwo == address(0x0)) {... */\n    tag_157:\n        /* \"contracts/RPS.sol\":2396:2411  GameRegister(0) */\n      0x982cddadd143916f714d5e4cdb1fdbf71a3a44c802807791f444525464ad42ad\n        /* \"contracts/RPS.sol\":2409:2410  0 */\n      0x00\n        /* \"contracts/RPS.sol\":2396:2411  GameRegister(0) */\n      mload(0x40)\n      tag_160\n      swap2\n      swap1\n      tag_161\n      jump\t// in\n    tag_160:\n      mload(0x40)\n      dup1\n      swap2\n      sub\n      swap1\n      log1\n        /* \"contracts/RPS.sol\":2428:2429  0 */\n      0x00\n        /* \"contracts/RPS.sol\":2421:2429  return 0 */\n      swap1\n      pop\n        /* \"contracts/RPS.sol\":1042:1043  _ */\n    tag_152:\n        /* \"contracts/RPS.sol\":1975:2436  function regPlayer() public payable validBet notRegistered returns (uint) {... */\n      swap1\n      jump\t// out\n        /* \"contracts/RPS.sol\":517:543  GameOutcome public outcome */\n    tag_37:\n      0x03\n      0x00\n      swap1\n      sload\n      swap1\n      0x0100\n      exp\n      swap1\n      div\n      0xff\n      and\n      dup2\n      jump\t// out\n        /* \"contracts/RPS.sol\":494:511  uint public stake */\n    tag_41:\n      sload(0x02)\n      dup2\n      jump\t// out\n        /* \"contracts/RPS.sol\":5641:5790  function bothRevealed() public view returns (bool) {... */\n    tag_45:\n        /* \"contracts/RPS.sol\":5686:5690  bool */\n      0x00\n        /* \"contracts/RPS.sol\":5729:5744  GameChoice.none */\n      dup1\n        /* \"contracts/RPS.sol\":5710:5744  playerOneChoice != GameChoice.none */\n      0x03\n      dup2\n      gt\n      iszero\n      tag_163\n      jumpi\n      tag_164\n      tag_86\n      jump\t// in\n    tag_164:\n    tag_163:\n        /* \"contracts/RPS.sol\":5710:5725  playerOneChoice */\n      0x03\n      0x01\n      swap1\n      sload\n      swap1\n      0x0100\n      exp\n      swap1\n      div\n      0xff\n      and\n        /* \"contracts/RPS.sol\":5710:5744  playerOneChoice != GameChoice.none */\n      0x03\n      dup2\n      gt\n      iszero\n      tag_165\n      jumpi\n      tag_166\n      tag_86\n      jump\t// in\n    tag_166:\n    tag_165:\n      eq\n      iszero\n        /* \"contracts/RPS.sol\":5710:5782  playerOneChoice != GameChoice.none && playerTwoChoice != GameChoice.none */\n      dup1\n      iszero\n      tag_167\n      jumpi\n      pop\n        /* \"contracts/RPS.sol\":5767:5782  GameChoice.none */\n      0x00\n        /* \"contracts/RPS.sol\":5748:5782  playerTwoChoice != GameChoice.none */\n      0x03\n      dup2\n      gt\n      iszero\n      tag_168\n      jumpi\n      tag_169\n      tag_86\n      jump\t// in\n    tag_169:\n    tag_168:\n        /* \"contracts/RPS.sol\":5748:5763  playerTwoChoice */\n      0x03\n      0x02\n      swap1\n      sload\n      swap1\n      0x0100\n      exp\n      swap1\n      div\n      0xff\n      and\n        /* \"contracts/RPS.sol\":5748:5782  playerTwoChoice != GameChoice.none */\n      0x03\n      dup2\n      gt\n      iszero\n      tag_170\n      jumpi\n      tag_171\n      tag_86\n      jump\t// in\n    tag_171:\n    tag_170:\n      eq\n      iszero\n        /* \"contracts/RPS.sol\":5710:5782  playerOneChoice != GameChoice.none && playerTwoChoice != GameChoice.none */\n    tag_167:\n        /* \"contracts/RPS.sol\":5702:5783  return (playerOneChoice != GameChoice.none && playerTwoChoice != GameChoice.none) */\n      swap1\n      pop\n        /* \"contracts/RPS.sol\":5641:5790  function bothRevealed() public view returns (bool) {... */\n      swap1\n      jump\t// out\n        /* \"contracts/RPS.sol\":4833:4935  function getContractBalance() public view returns (uint) {... */\n    tag_49:\n        /* \"contracts/RPS.sol\":4884:4888  uint */\n      0x00\n        /* \"contracts/RPS.sol\":4907:4928  address(this).balance */\n      selfbalance\n        /* \"contracts/RPS.sol\":4900:4928  return address(this).balance */\n      swap1\n      pop\n        /* \"contracts/RPS.sol\":4833:4935  function getContractBalance() public view returns (uint) {... */\n      swap1\n      jump\t// out\n        /* \"contracts/RPS.sol\":2902:3628  function revealChoice(uint choice, bytes32 salt) public hasRegistered correctChoice(choice) committed returns (GameChoice) {... */\n    tag_55:\n        /* \"contracts/RPS.sol\":3013:3023  GameChoice */\n      0x00\n        /* \"contracts/RPS.sol\":1114:1123  playerOne */\n      dup1\n      0x00\n      swap1\n      sload\n      swap1\n      0x0100\n      exp\n      swap1\n      div\n      0xffffffffffffffffffffffffffffffffffffffff\n      and\n        /* \"contracts/RPS.sol\":1100:1123  msg.sender == playerOne */\n      0xffffffffffffffffffffffffffffffffffffffff\n      and\n        /* \"contracts/RPS.sol\":1100:1110  msg.sender */\n      caller\n        /* \"contracts/RPS.sol\":1100:1123  msg.sender == playerOne */\n      0xffffffffffffffffffffffffffffffffffffffff\n      and\n      eq\n        /* \"contracts/RPS.sol\":1100:1150  msg.sender == playerOne || msg.sender == playerTwo */\n      dup1\n      tag_174\n      jumpi\n      pop\n        /* \"contracts/RPS.sol\":1141:1150  playerTwo */\n      0x01\n      0x00\n      swap1\n      sload\n      swap1\n      0x0100\n      exp\n      swap1\n      div\n      0xffffffffffffffffffffffffffffffffffffffff\n      and\n        /* \"contracts/RPS.sol\":1127:1150  msg.sender == playerTwo */\n      0xffffffffffffffffffffffffffffffffffffffff\n      and\n        /* \"contracts/RPS.sol\":1127:1137  msg.sender */\n      caller\n        /* \"contracts/RPS.sol\":1127:1150  msg.sender == playerTwo */\n      0xffffffffffffffffffffffffffffffffffffffff\n      and\n      eq\n        /* \"contracts/RPS.sol\":1100:1150  msg.sender == playerOne || msg.sender == playerTwo */\n    tag_174:\n        /* \"contracts/RPS.sol\":1091:1180  require (msg.sender == playerOne || msg.sender == playerTwo, \"Not registered player yet\") */\n      tag_175\n      jumpi\n      mload(0x40)\n      0x08c379a000000000000000000000000000000000000000000000000000000000\n      dup2\n      mstore\n      0x04\n      add\n      tag_176\n      swap1\n      tag_177\n      jump\t// in\n    tag_176:\n      mload(0x40)\n      dup1\n      swap2\n      sub\n      swap1\n      revert\n    tag_175:\n        /* \"contracts/RPS.sol\":2986:2992  choice */\n      dup3\n        /* \"contracts/RPS.sol\":1396:1397  1 */\n      0x01\n        /* \"contracts/RPS.sol\":1386:1392  choice */\n      dup2\n        /* \"contracts/RPS.sol\":1386:1397  choice >= 1 */\n      lt\n      iszero\n        /* \"contracts/RPS.sol\":1386:1412  choice >= 1 && choice <= 3 */\n      dup1\n      iszero\n      tag_179\n      jumpi\n      pop\n        /* \"contracts/RPS.sol\":1411:1412  3 */\n      0x03\n        /* \"contracts/RPS.sol\":1401:1407  choice */\n      dup2\n        /* \"contracts/RPS.sol\":1401:1412  choice <= 3 */\n      gt\n      iszero\n        /* \"contracts/RPS.sol\":1386:1412  choice >= 1 && choice <= 3 */\n    tag_179:\n        /* \"contracts/RPS.sol\":1377:1433  require (choice >= 1 && choice <= 3, \"Incorrect choice\") */\n      tag_180\n      jumpi\n      mload(0x40)\n      0x08c379a000000000000000000000000000000000000000000000000000000000\n      dup2\n      mstore\n      0x04\n      add\n      tag_181\n      swap1\n      tag_182\n      jump\t// in\n    tag_181:\n      mload(0x40)\n      dup1\n      swap2\n      sub\n      swap1\n      revert\n    tag_180:\n        /* \"contracts/RPS.sol\":1513:1516  0x0 */\n      0x00\n        /* \"contracts/RPS.sol\":1496:1516  playerOneHash != 0x0 */\n      dup1\n      shl\n        /* \"contracts/RPS.sol\":1496:1509  playerOneHash */\n      sload(0x04)\n        /* \"contracts/RPS.sol\":1496:1516  playerOneHash != 0x0 */\n      eq\n      iszero\n        /* \"contracts/RPS.sol\":1496:1540  playerOneHash != 0x0 && playerTwoHash != 0x0 */\n      dup1\n      iszero\n      tag_184\n      jumpi\n      pop\n        /* \"contracts/RPS.sol\":1537:1540  0x0 */\n      0x00\n        /* \"contracts/RPS.sol\":1520:1540  playerTwoHash != 0x0 */\n      dup1\n      shl\n        /* \"contracts/RPS.sol\":1520:1533  playerTwoHash */\n      sload(0x05)\n        /* \"contracts/RPS.sol\":1520:1540  playerTwoHash != 0x0 */\n      eq\n      iszero\n        /* \"contracts/RPS.sol\":1496:1540  playerOneHash != 0x0 && playerTwoHash != 0x0 */\n    tag_184:\n        /* \"contracts/RPS.sol\":1488:1590  require(playerOneHash != 0x0 && playerTwoHash != 0x0, \"One of the players or both did not registered\") */\n      tag_185\n      jumpi\n      mload(0x40)\n      0x08c379a000000000000000000000000000000000000000000000000000000000\n      dup2\n      mstore\n      0x04\n      add\n      tag_186\n      swap1\n      tag_187\n      jump\t// in\n    tag_186:\n      mload(0x40)\n      dup1\n      swap2\n      sub\n      swap1\n      revert\n    tag_185:\n        /* \"contracts/RPS.sol\":3051:3061  msg.sender */\n      caller\n        /* \"contracts/RPS.sol\":3038:3061  playerOne == msg.sender */\n      0xffffffffffffffffffffffffffffffffffffffff\n      and\n        /* \"contracts/RPS.sol\":3038:3047  playerOne */\n      0x00\n      dup1\n      sload\n      swap1\n      0x0100\n      exp\n      swap1\n      div\n      0xffffffffffffffffffffffffffffffffffffffff\n      and\n        /* \"contracts/RPS.sol\":3038:3061  playerOne == msg.sender */\n      0xffffffffffffffffffffffffffffffffffffffff\n      and\n      eq\n        /* \"contracts/RPS.sol\":3035:3622  if(playerOne == msg.sender) {... */\n      iszero\n      tag_189\n      jumpi\n        /* \"contracts/RPS.sol\":3102:3129  getSaltedHash(choice, salt) */\n      tag_190\n        /* \"contracts/RPS.sol\":3116:3122  choice */\n      dup5\n        /* \"contracts/RPS.sol\":3124:3128  salt */\n      dup5\n        /* \"contracts/RPS.sol\":3102:3115  getSaltedHash */\n      tag_191\n        /* \"contracts/RPS.sol\":3102:3129  getSaltedHash(choice, salt) */\n      jump\t// in\n    tag_190:\n        /* \"contracts/RPS.sol\":3085:3098  playerOneHash */\n      sload(0x04)\n        /* \"contracts/RPS.sol\":3085:3129  playerOneHash == getSaltedHash(choice, salt) */\n      eq\n        /* \"contracts/RPS.sol\":3077:3151  require(playerOneHash == getSaltedHash(choice, salt), \"problem with salt\") */\n      tag_192\n      jumpi\n      mload(0x40)\n      0x08c379a000000000000000000000000000000000000000000000000000000000\n      dup2\n      mstore\n      0x04\n      add\n      tag_193\n      swap1\n      tag_194\n      jump\t// in\n    tag_193:\n      mload(0x40)\n      dup1\n      swap2\n      sub\n      swap1\n      revert\n    tag_192:\n        /* \"contracts/RPS.sol\":3194:3200  choice */\n      dup4\n        /* \"contracts/RPS.sol\":3183:3201  GameChoice(choice) */\n      0x03\n      dup2\n      gt\n      iszero\n      tag_195\n      jumpi\n      tag_196\n      tag_86\n      jump\t// in\n    tag_196:\n    tag_195:\n        /* \"contracts/RPS.sol\":3165:3180  playerOneChoice */\n      0x03\n      0x01\n        /* \"contracts/RPS.sol\":3165:3201  playerOneChoice = GameChoice(choice) */\n      0x0100\n      exp\n      dup2\n      sload\n      dup2\n      0xff\n      mul\n      not\n      and\n      swap1\n      dup4\n      0x03\n      dup2\n      gt\n      iszero\n      tag_197\n      jumpi\n      tag_198\n      tag_86\n      jump\t// in\n    tag_198:\n    tag_197:\n      mul\n      or\n      swap1\n      sstore\n      pop\n        /* \"contracts/RPS.sol\":3220:3247  GameReveal(playerOneChoice) */\n      0x47c7acbd4d57f5dbc1f9e9d1f9e0899016b547afbad29e7a416a892b44898e97\n        /* \"contracts/RPS.sol\":3231:3246  playerOneChoice */\n      0x03\n      0x01\n      swap1\n      sload\n      swap1\n      0x0100\n      exp\n      swap1\n      div\n      0xff\n      and\n        /* \"contracts/RPS.sol\":3220:3247  GameReveal(playerOneChoice) */\n      mload(0x40)\n      tag_199\n      swap2\n      swap1\n      tag_57\n      jump\t// in\n    tag_199:\n      mload(0x40)\n      dup1\n      swap2\n      sub\n      swap1\n      log1\n        /* \"contracts/RPS.sol\":3268:3283  playerOneChoice */\n      0x03\n      0x01\n      swap1\n      sload\n      swap1\n      0x0100\n      exp\n      swap1\n      div\n      0xff\n      and\n        /* \"contracts/RPS.sol\":3261:3283  return playerOneChoice */\n      swap2\n      pop\n      jump(tag_188)\n        /* \"contracts/RPS.sol\":3035:3622  if(playerOne == msg.sender) {... */\n    tag_189:\n        /* \"contracts/RPS.sol\":3316:3326  msg.sender */\n      caller\n        /* \"contracts/RPS.sol\":3303:3326  playerTwo == msg.sender */\n      0xffffffffffffffffffffffffffffffffffffffff\n      and\n        /* \"contracts/RPS.sol\":3303:3312  playerTwo */\n      0x01\n      0x00\n      swap1\n      sload\n      swap1\n      0x0100\n      exp\n      swap1\n      div\n      0xffffffffffffffffffffffffffffffffffffffff\n      and\n        /* \"contracts/RPS.sol\":3303:3326  playerTwo == msg.sender */\n      0xffffffffffffffffffffffffffffffffffffffff\n      and\n      eq\n        /* \"contracts/RPS.sol\":3300:3622  if(playerTwo == msg.sender) {... */\n      iszero\n      tag_201\n      jumpi\n        /* \"contracts/RPS.sol\":3367:3394  getSaltedHash(choice, salt) */\n      tag_202\n        /* \"contracts/RPS.sol\":3381:3387  choice */\n      dup5\n        /* \"contracts/RPS.sol\":3389:3393  salt */\n      dup5\n        /* \"contracts/RPS.sol\":3367:3380  getSaltedHash */\n      tag_191\n        /* \"contracts/RPS.sol\":3367:3394  getSaltedHash(choice, salt) */\n      jump\t// in\n    tag_202:\n        /* \"contracts/RPS.sol\":3350:3363  playerTwoHash */\n      sload(0x05)\n        /* \"contracts/RPS.sol\":3350:3394  playerTwoHash == getSaltedHash(choice, salt) */\n      eq\n        /* \"contracts/RPS.sol\":3342:3416  require(playerTwoHash == getSaltedHash(choice, salt), \"problem with salt\") */\n      tag_203\n      jumpi\n      mload(0x40)\n      0x08c379a000000000000000000000000000000000000000000000000000000000\n      dup2\n      mstore\n      0x04\n      add\n      tag_204\n      swap1\n      tag_194\n      jump\t// in\n    tag_204:\n      mload(0x40)\n      dup1\n      swap2\n      sub\n      swap1\n      revert\n    tag_203:\n        /* \"contracts/RPS.sol\":3459:3465  choice */\n      dup4\n        /* \"contracts/RPS.sol\":3448:3466  GameChoice(choice) */\n      0x03\n      dup2\n      gt\n      iszero\n      tag_205\n      jumpi\n      tag_206\n      tag_86\n      jump\t// in\n    tag_206:\n    tag_205:\n        /* \"contracts/RPS.sol\":3430:3445  playerTwoChoice */\n      0x03\n      0x02\n        /* \"contracts/RPS.sol\":3430:3466  playerTwoChoice = GameChoice(choice) */\n      0x0100\n      exp\n      dup2\n      sload\n      dup2\n      0xff\n      mul\n      not\n      and\n      swap1\n      dup4\n      0x03\n      dup2\n      gt\n      iszero\n      tag_207\n      jumpi\n      tag_208\n      tag_86\n      jump\t// in\n    tag_208:\n    tag_207:\n      mul\n      or\n      swap1\n      sstore\n      pop\n        /* \"contracts/RPS.sol\":3485:3512  GameReveal(playerTwoChoice) */\n      0x47c7acbd4d57f5dbc1f9e9d1f9e0899016b547afbad29e7a416a892b44898e97\n        /* \"contracts/RPS.sol\":3496:3511  playerTwoChoice */\n      0x03\n      0x02\n      swap1\n      sload\n      swap1\n      0x0100\n      exp\n      swap1\n      div\n      0xff\n      and\n        /* \"contracts/RPS.sol\":3485:3512  GameReveal(playerTwoChoice) */\n      mload(0x40)\n      tag_209\n      swap2\n      swap1\n      tag_57\n      jump\t// in\n    tag_209:\n      mload(0x40)\n      dup1\n      swap2\n      sub\n      swap1\n      log1\n        /* \"contracts/RPS.sol\":3533:3548  playerTwoChoice */\n      0x03\n      0x02\n      swap1\n      sload\n      swap1\n      0x0100\n      exp\n      swap1\n      div\n      0xff\n      and\n        /* \"contracts/RPS.sol\":3526:3548  return playerTwoChoice */\n      swap2\n      pop\n      jump(tag_188)\n        /* \"contracts/RPS.sol\":3300:3622  if(playerTwo == msg.sender) {... */\n    tag_201:\n        /* \"contracts/RPS.sol\":3579:3611  revert(\"Problem with addresses\") */\n      mload(0x40)\n      0x08c379a000000000000000000000000000000000000000000000000000000000\n      dup2\n      mstore\n      0x04\n      add\n      tag_211\n      swap1\n      tag_212\n      jump\t// in\n    tag_211:\n      mload(0x40)\n      dup1\n      swap2\n      sub\n      swap1\n      revert\n        /* \"contracts/RPS.sol\":1600:1601  _ */\n    tag_188:\n        /* \"contracts/RPS.sol\":1190:1191  _ */\n      pop\n        /* \"contracts/RPS.sol\":2902:3628  function revealChoice(uint choice, bytes32 salt) public hasRegistered correctChoice(choice) committed returns (GameChoice) {... */\n      swap3\n      swap2\n      pop\n      pop\n      jump\t// out\n        /* \"contracts/RPS.sol\":5513:5635  function bothCommitted() public view returns (bool) {... */\n    tag_60:\n        /* \"contracts/RPS.sol\":5559:5563  bool */\n      0x00\n        /* \"contracts/RPS.sol\":5600:5603  0x0 */\n      dup1\n        /* \"contracts/RPS.sol\":5583:5603  playerOneHash != 0x0 */\n      0x00\n      shl\n        /* \"contracts/RPS.sol\":5583:5596  playerOneHash */\n      sload(0x04)\n        /* \"contracts/RPS.sol\":5583:5603  playerOneHash != 0x0 */\n      eq\n      iszero\n        /* \"contracts/RPS.sol\":5583:5627  playerOneHash != 0x0 && playerTwoHash != 0x0 */\n      dup1\n      iszero\n      tag_214\n      jumpi\n      pop\n        /* \"contracts/RPS.sol\":5624:5627  0x0 */\n      0x00\n        /* \"contracts/RPS.sol\":5607:5627  playerTwoHash != 0x0 */\n      dup1\n      shl\n        /* \"contracts/RPS.sol\":5607:5620  playerTwoHash */\n      sload(0x05)\n        /* \"contracts/RPS.sol\":5607:5627  playerTwoHash != 0x0 */\n      eq\n      iszero\n        /* \"contracts/RPS.sol\":5583:5627  playerOneHash != 0x0 && playerTwoHash != 0x0 */\n    tag_214:\n        /* \"contracts/RPS.sol\":5575:5628  return (playerOneHash != 0x0 && playerTwoHash != 0x0) */\n      swap1\n      pop\n        /* \"contracts/RPS.sol\":5513:5635  function bothCommitted() public view returns (bool) {... */\n      swap1\n      jump\t// out\n        /* \"contracts/RPS.sol\":2442:2896  function commitMove(bytes32 gameHash) public hasRegistered hashProvided(gameHash) returns (bool) {... */\n    tag_66:\n        /* \"contracts/RPS.sol\":2533:2537  bool */\n      0x00\n        /* \"contracts/RPS.sol\":1114:1123  playerOne */\n      dup1\n      0x00\n      swap1\n      sload\n      swap1\n      0x0100\n      exp\n      swap1\n      div\n      0xffffffffffffffffffffffffffffffffffffffff\n      and\n        /* \"contracts/RPS.sol\":1100:1123  msg.sender == playerOne */\n      0xffffffffffffffffffffffffffffffffffffffff\n      and\n        /* \"contracts/RPS.sol\":1100:1110  msg.sender */\n      caller\n        /* \"contracts/RPS.sol\":1100:1123  msg.sender == playerOne */\n      0xffffffffffffffffffffffffffffffffffffffff\n      and\n      eq\n        /* \"contracts/RPS.sol\":1100:1150  msg.sender == playerOne || msg.sender == playerTwo */\n      dup1\n      tag_216\n      jumpi\n      pop\n        /* \"contracts/RPS.sol\":1141:1150  playerTwo */\n      0x01\n      0x00\n      swap1\n      sload\n      swap1\n      0x0100\n      exp\n      swap1\n      div\n      0xffffffffffffffffffffffffffffffffffffffff\n      and\n        /* \"contracts/RPS.sol\":1127:1150  msg.sender == playerTwo */\n      0xffffffffffffffffffffffffffffffffffffffff\n      and\n        /* \"contracts/RPS.sol\":1127:1137  msg.sender */\n      caller\n        /* \"contracts/RPS.sol\":1127:1150  msg.sender == playerTwo */\n      0xffffffffffffffffffffffffffffffffffffffff\n      and\n      eq\n        /* \"contracts/RPS.sol\":1100:1150  msg.sender == playerOne || msg.sender == playerTwo */\n    tag_216:\n        /* \"contracts/RPS.sol\":1091:1180  require (msg.sender == playerOne || msg.sender == playerTwo, \"Not registered player yet\") */\n      tag_217\n      jumpi\n      mload(0x40)\n      0x08c379a000000000000000000000000000000000000000000000000000000000\n      dup2\n      mstore\n      0x04\n      add\n      tag_218\n      swap1\n      tag_177\n      jump\t// in\n    tag_218:\n      mload(0x40)\n      dup1\n      swap2\n      sub\n      swap1\n      revert\n    tag_217:\n        /* \"contracts/RPS.sol\":2514:2522  gameHash */\n      dup2\n        /* \"contracts/RPS.sol\":1262:1276  gameHash != \"\" */\n      0x00\n        /* \"contracts/RPS.sol\":1262:1270  gameHash */\n      dup2\n        /* \"contracts/RPS.sol\":1262:1276  gameHash != \"\" */\n      eq\n      iszero\n        /* \"contracts/RPS.sol\":1254:1307  require(gameHash != \"\", \"Game hash was not provided\") */\n      tag_220\n      jumpi\n      mload(0x40)\n      0x08c379a000000000000000000000000000000000000000000000000000000000\n      dup2\n      mstore\n      0x04\n      add\n      tag_221\n      swap1\n      tag_222\n      jump\t// in\n    tag_221:\n      mload(0x40)\n      dup1\n      swap2\n      sub\n      swap1\n      revert\n    tag_220:\n        /* \"contracts/RPS.sol\":2567:2576  playerOne */\n      0x00\n      dup1\n      sload\n      swap1\n      0x0100\n      exp\n      swap1\n      div\n      0xffffffffffffffffffffffffffffffffffffffff\n      and\n        /* \"contracts/RPS.sol\":2553:2576  msg.sender == playerOne */\n      0xffffffffffffffffffffffffffffffffffffffff\n      and\n        /* \"contracts/RPS.sol\":2553:2563  msg.sender */\n      caller\n        /* \"contracts/RPS.sol\":2553:2576  msg.sender == playerOne */\n      0xffffffffffffffffffffffffffffffffffffffff\n      and\n      eq\n        /* \"contracts/RPS.sol\":2553:2600  msg.sender == playerOne && playerOneHash == 0x0 */\n      dup1\n      iszero\n      tag_224\n      jumpi\n      pop\n        /* \"contracts/RPS.sol\":2597:2600  0x0 */\n      0x00\n        /* \"contracts/RPS.sol\":2580:2600  playerOneHash == 0x0 */\n      dup1\n      shl\n        /* \"contracts/RPS.sol\":2580:2593  playerOneHash */\n      sload(0x04)\n        /* \"contracts/RPS.sol\":2580:2600  playerOneHash == 0x0 */\n      eq\n        /* \"contracts/RPS.sol\":2553:2600  msg.sender == playerOne && playerOneHash == 0x0 */\n    tag_224:\n        /* \"contracts/RPS.sol\":2549:2838  if (msg.sender == playerOne && playerOneHash == 0x0) {... */\n      iszero\n      tag_225\n      jumpi\n        /* \"contracts/RPS.sol\":2632:2640  gameHash */\n      dup3\n        /* \"contracts/RPS.sol\":2616:2629  playerOneHash */\n      0x04\n        /* \"contracts/RPS.sol\":2616:2640  playerOneHash = gameHash */\n      dup2\n      swap1\n      sstore\n      pop\n        /* \"contracts/RPS.sol\":2549:2838  if (msg.sender == playerOne && playerOneHash == 0x0) {... */\n      jump(tag_226)\n    tag_225:\n        /* \"contracts/RPS.sol\":2675:2684  playerTwo */\n      0x01\n      0x00\n      swap1\n      sload\n      swap1\n      0x0100\n      exp\n      swap1\n      div\n      0xffffffffffffffffffffffffffffffffffffffff\n      and\n        /* \"contracts/RPS.sol\":2661:2684  msg.sender == playerTwo */\n      0xffffffffffffffffffffffffffffffffffffffff\n      and\n        /* \"contracts/RPS.sol\":2661:2671  msg.sender */\n      caller\n        /* \"contracts/RPS.sol\":2661:2684  msg.sender == playerTwo */\n      0xffffffffffffffffffffffffffffffffffffffff\n      and\n      eq\n        /* \"contracts/RPS.sol\":2661:2708  msg.sender == playerTwo && playerTwoHash == 0x0 */\n      dup1\n      iszero\n      tag_227\n      jumpi\n      pop\n        /* \"contracts/RPS.sol\":2705:2708  0x0 */\n      0x00\n        /* \"contracts/RPS.sol\":2688:2708  playerTwoHash == 0x0 */\n      dup1\n      shl\n        /* \"contracts/RPS.sol\":2688:2701  playerTwoHash */\n      sload(0x05)\n        /* \"contracts/RPS.sol\":2688:2708  playerTwoHash == 0x0 */\n      eq\n        /* \"contracts/RPS.sol\":2661:2708  msg.sender == playerTwo && playerTwoHash == 0x0 */\n    tag_227:\n        /* \"contracts/RPS.sol\":2657:2838  if (msg.sender == playerTwo && playerTwoHash == 0x0) {... */\n      iszero\n      tag_228\n      jumpi\n        /* \"contracts/RPS.sol\":2740:2748  gameHash */\n      dup3\n        /* \"contracts/RPS.sol\":2724:2737  playerTwoHash */\n      0x05\n        /* \"contracts/RPS.sol\":2724:2748  playerTwoHash = gameHash */\n      dup2\n      swap1\n      sstore\n      pop\n        /* \"contracts/RPS.sol\":2657:2838  if (msg.sender == playerTwo && playerTwoHash == 0x0) {... */\n      jump(tag_229)\n    tag_228:\n        /* \"contracts/RPS.sol\":2784:2801  GameCommit(false) */\n      0xd0e0eee22af482d2b75b0facf637b601c155f06c6f143b473711527a01110f84\n        /* \"contracts/RPS.sol\":2795:2800  false */\n      0x00\n        /* \"contracts/RPS.sol\":2784:2801  GameCommit(false) */\n      mload(0x40)\n      tag_230\n      swap2\n      swap1\n      tag_30\n      jump\t// in\n    tag_230:\n      mload(0x40)\n      dup1\n      swap2\n      sub\n      swap1\n      log1\n        /* \"contracts/RPS.sol\":2822:2827  false */\n      0x00\n        /* \"contracts/RPS.sol\":2815:2827  return false */\n      swap2\n      pop\n      jump(tag_223)\n        /* \"contracts/RPS.sol\":2657:2838  if (msg.sender == playerTwo && playerTwoHash == 0x0) {... */\n    tag_229:\n        /* \"contracts/RPS.sol\":2549:2838  if (msg.sender == playerOne && playerOneHash == 0x0) {... */\n    tag_226:\n        /* \"contracts/RPS.sol\":2852:2868  GameCommit(true) */\n      0xd0e0eee22af482d2b75b0facf637b601c155f06c6f143b473711527a01110f84\n        /* \"contracts/RPS.sol\":2863:2867  true */\n      0x01\n        /* \"contracts/RPS.sol\":2852:2868  GameCommit(true) */\n      mload(0x40)\n      tag_231\n      swap2\n      swap1\n      tag_30\n      jump\t// in\n    tag_231:\n      mload(0x40)\n      dup1\n      swap2\n      sub\n      swap1\n      log1\n        /* \"contracts/RPS.sol\":2885:2889  true */\n      0x01\n        /* \"contracts/RPS.sol\":2878:2889  return true */\n      swap2\n      pop\n        /* \"contracts/RPS.sol\":1317:1318  _ */\n    tag_223:\n        /* \"contracts/RPS.sol\":1190:1191  _ */\n      pop\n        /* \"contracts/RPS.sol\":2442:2896  function commitMove(bytes32 gameHash) public hasRegistered hashProvided(gameHash) returns (bool) {... */\n      swap2\n      swap1\n      pop\n      jump\t// out\n        /* \"contracts/RPS.sol\":4218:4284  function resetExternal() public onlyOwner {... */\n    tag_70:\n        /* \"contracts/RPS.sol\":1855:1897  0x91cDa83c363A6F72f81A2041836b1e79b4a01Ab1 */\n      0x91cda83c363a6f72f81a2041836b1e79b4a01ab1\n        /* \"contracts/RPS.sol\":1833:1898  msg.sender == address(0x91cDa83c363A6F72f81A2041836b1e79b4a01Ab1) */\n      0xffffffffffffffffffffffffffffffffffffffff\n      and\n        /* \"contracts/RPS.sol\":1833:1843  msg.sender */\n      caller\n        /* \"contracts/RPS.sol\":1833:1898  msg.sender == address(0x91cDa83c363A6F72f81A2041836b1e79b4a01Ab1) */\n      0xffffffffffffffffffffffffffffffffffffffff\n      and\n      eq\n        /* \"contracts/RPS.sol\":1825:1951  require(msg.sender == address(0x91cDa83c363A6F72f81A2041836b1e79b4a01Ab1), \"Only owner of contract is allowed to this method\") */\n      tag_233\n      jumpi\n      mload(0x40)\n      0x08c379a000000000000000000000000000000000000000000000000000000000\n      dup2\n      mstore\n      0x04\n      add\n      tag_234\n      swap1\n      tag_235\n      jump\t// in\n    tag_234:\n      mload(0x40)\n      dup1\n      swap2\n      sub\n      swap1\n      revert\n    tag_233:\n        /* \"contracts/RPS.sol\":4270:4277  reset() */\n      tag_237\n        /* \"contracts/RPS.sol\":4270:4275  reset */\n      tag_133\n        /* \"contracts/RPS.sol\":4270:4277  reset() */\n      jump\t// in\n    tag_237:\n        /* \"contracts/RPS.sol\":4218:4284  function resetExternal() public onlyOwner {... */\n      jump\t// out\n        /* \"contracts/RPS.sol\":4941:5074  function isRegistered(address player) public view returns (bool) {... */\n    tag_74:\n        /* \"contracts/RPS.sol\":5000:5004  bool */\n      0x00\n        /* \"contracts/RPS.sol\":5037:5043  player */\n      dup2\n        /* \"contracts/RPS.sol\":5024:5043  playerOne == player */\n      0xffffffffffffffffffffffffffffffffffffffff\n      and\n        /* \"contracts/RPS.sol\":5024:5033  playerOne */\n      0x00\n      dup1\n      sload\n      swap1\n      0x0100\n      exp\n      swap1\n      div\n      0xffffffffffffffffffffffffffffffffffffffff\n      and\n        /* \"contracts/RPS.sol\":5024:5043  playerOne == player */\n      0xffffffffffffffffffffffffffffffffffffffff\n      and\n      eq\n        /* \"contracts/RPS.sol\":5024:5066  playerOne == player || playerTwo == player */\n      dup1\n      tag_239\n      jumpi\n      pop\n        /* \"contracts/RPS.sol\":5060:5066  player */\n      dup2\n        /* \"contracts/RPS.sol\":5047:5066  playerTwo == player */\n      0xffffffffffffffffffffffffffffffffffffffff\n      and\n        /* \"contracts/RPS.sol\":5047:5056  playerTwo */\n      0x01\n      0x00\n      swap1\n      sload\n      swap1\n      0x0100\n      exp\n      swap1\n      div\n      0xffffffffffffffffffffffffffffffffffffffff\n      and\n        /* \"contracts/RPS.sol\":5047:5066  playerTwo == player */\n      0xffffffffffffffffffffffffffffffffffffffff\n      and\n      eq\n        /* \"contracts/RPS.sol\":5024:5066  playerOne == player || playerTwo == player */\n    tag_239:\n        /* \"contracts/RPS.sol\":5016:5067  return (playerOne == player || playerTwo == player) */\n      swap1\n      pop\n        /* \"contracts/RPS.sol\":4941:5074  function isRegistered(address player) public view returns (bool) {... */\n      swap2\n      swap1\n      pop\n      jump\t// out\n        /* \"contracts/RPS.sol\":4290:4384  function increaseStake() public onlyOwner validBet payable {... */\n    tag_77:\n        /* \"contracts/RPS.sol\":1855:1897  0x91cDa83c363A6F72f81A2041836b1e79b4a01Ab1 */\n      0x91cda83c363a6f72f81a2041836b1e79b4a01ab1\n        /* \"contracts/RPS.sol\":1833:1898  msg.sender == address(0x91cDa83c363A6F72f81A2041836b1e79b4a01Ab1) */\n      0xffffffffffffffffffffffffffffffffffffffff\n      and\n        /* \"contracts/RPS.sol\":1833:1843  msg.sender */\n      caller\n        /* \"contracts/RPS.sol\":1833:1898  msg.sender == address(0x91cDa83c363A6F72f81A2041836b1e79b4a01Ab1) */\n      0xffffffffffffffffffffffffffffffffffffffff\n      and\n      eq\n        /* \"contracts/RPS.sol\":1825:1951  require(msg.sender == address(0x91cDa83c363A6F72f81A2041836b1e79b4a01Ab1), \"Only owner of contract is allowed to this method\") */\n      tag_241\n      jumpi\n      mload(0x40)\n      0x08c379a000000000000000000000000000000000000000000000000000000000\n      dup2\n      mstore\n      0x04\n      add\n      tag_242\n      swap1\n      tag_235\n      jump\t// in\n    tag_242:\n      mload(0x40)\n      dup1\n      swap2\n      sub\n      swap1\n      revert\n    tag_241:\n        /* \"contracts/RPS.sol\":118:122  1000 */\n      0x03e8\n        /* \"contracts/RPS.sol\":740:749  msg.value */\n      callvalue\n        /* \"contracts/RPS.sol\":740:760  msg.value >= MIN_BET */\n      lt\n      iszero\n        /* \"contracts/RPS.sol\":732:799  require(msg.value >= MIN_BET, \"Bet is lower than possible minimum\") */\n      tag_244\n      jumpi\n      mload(0x40)\n      0x08c379a000000000000000000000000000000000000000000000000000000000\n      dup2\n      mstore\n      0x04\n      add\n      tag_245\n      swap1\n      tag_142\n      jump\t// in\n    tag_245:\n      mload(0x40)\n      dup1\n      swap2\n      sub\n      swap1\n      revert\n    tag_244:\n        /* \"contracts/RPS.sol\":826:827  0 */\n      0x00\n        /* \"contracts/RPS.sol\":817:822  stake */\n      sload(0x02)\n        /* \"contracts/RPS.sol\":817:827  stake == 0 */\n      eq\n        /* \"contracts/RPS.sol\":817:849  stake == 0 || msg.value >= stake */\n      dup1\n      tag_246\n      jumpi\n      pop\n        /* \"contracts/RPS.sol\":844:849  stake */\n      sload(0x02)\n        /* \"contracts/RPS.sol\":831:840  msg.value */\n      callvalue\n        /* \"contracts/RPS.sol\":831:849  msg.value >= stake */\n      lt\n      iszero\n        /* \"contracts/RPS.sol\":817:849  stake == 0 || msg.value >= stake */\n    tag_246:\n        /* \"contracts/RPS.sol\":809:876  require(stake == 0 || msg.value >= stake, \"Problem with the stake\") */\n      tag_247\n      jumpi\n      mload(0x40)\n      0x08c379a000000000000000000000000000000000000000000000000000000000\n      dup2\n      mstore\n      0x04\n      add\n      tag_248\n      swap1\n      tag_146\n      jump\t// in\n    tag_248:\n      mload(0x40)\n      dup1\n      swap2\n      sub\n      swap1\n      revert\n    tag_247:\n        /* \"contracts/RPS.sol\":4368:4377  msg.value */\n      callvalue\n        /* \"contracts/RPS.sol\":4359:4364  stake */\n      0x02\n      0x00\n        /* \"contracts/RPS.sol\":4359:4377  stake += msg.value */\n      dup3\n      dup3\n      sload\n      tag_250\n      swap2\n      swap1\n      tag_103\n      jump\t// in\n    tag_250:\n      swap3\n      pop\n      pop\n      dup2\n      swap1\n      sstore\n      pop\n        /* \"contracts/RPS.sol\":4290:4384  function increaseStake() public onlyOwner validBet payable {... */\n      jump\t// out\n        /* \"contracts/RPS.sol\":5283:5507  function isRevealed(address player) public view returns (bool) {... */\n    tag_81:\n        /* \"contracts/RPS.sol\":5340:5344  bool */\n      0x00\n        /* \"contracts/RPS.sol\":5377:5383  player */\n      dup2\n        /* \"contracts/RPS.sol\":5364:5383  playerOne == player */\n      0xffffffffffffffffffffffffffffffffffffffff\n      and\n        /* \"contracts/RPS.sol\":5364:5373  playerOne */\n      0x00\n      dup1\n      sload\n      swap1\n      0x0100\n      exp\n      swap1\n      div\n      0xffffffffffffffffffffffffffffffffffffffff\n      and\n        /* \"contracts/RPS.sol\":5364:5383  playerOne == player */\n      0xffffffffffffffffffffffffffffffffffffffff\n      and\n      eq\n        /* \"contracts/RPS.sol\":5364:5421  playerOne == player && playerOneChoice != GameChoice.none */\n      dup1\n      iszero\n      tag_252\n      jumpi\n      pop\n        /* \"contracts/RPS.sol\":5406:5421  GameChoice.none */\n      0x00\n        /* \"contracts/RPS.sol\":5387:5421  playerOneChoice != GameChoice.none */\n      0x03\n      dup2\n      gt\n      iszero\n      tag_253\n      jumpi\n      tag_254\n      tag_86\n      jump\t// in\n    tag_254:\n    tag_253:\n        /* \"contracts/RPS.sol\":5387:5402  playerOneChoice */\n      0x03\n      0x01\n      swap1\n      sload\n      swap1\n      0x0100\n      exp\n      swap1\n      div\n      0xff\n      and\n        /* \"contracts/RPS.sol\":5387:5421  playerOneChoice != GameChoice.none */\n      0x03\n      dup2\n      gt\n      iszero\n      tag_255\n      jumpi\n      tag_256\n      tag_86\n      jump\t// in\n    tag_256:\n    tag_255:\n      eq\n      iszero\n        /* \"contracts/RPS.sol\":5364:5421  playerOne == player && playerOneChoice != GameChoice.none */\n    tag_252:\n        /* \"contracts/RPS.sol\":5364:5499  playerOne == player && playerOneChoice != GameChoice.none || ... */\n      dup1\n      tag_257\n      jumpi\n      pop\n        /* \"contracts/RPS.sol\":5455:5461  player */\n      dup2\n        /* \"contracts/RPS.sol\":5442:5461  playerTwo == player */\n      0xffffffffffffffffffffffffffffffffffffffff\n      and\n        /* \"contracts/RPS.sol\":5442:5451  playerTwo */\n      0x01\n      0x00\n      swap1\n      sload\n      swap1\n      0x0100\n      exp\n      swap1\n      div\n      0xffffffffffffffffffffffffffffffffffffffff\n      and\n        /* \"contracts/RPS.sol\":5442:5461  playerTwo == player */\n      0xffffffffffffffffffffffffffffffffffffffff\n      and\n      eq\n        /* \"contracts/RPS.sol\":5442:5499  playerTwo == player && playerTwoChoice != GameChoice.none */\n      dup1\n      iszero\n      tag_258\n      jumpi\n      pop\n        /* \"contracts/RPS.sol\":5484:5499  GameChoice.none */\n      0x00\n        /* \"contracts/RPS.sol\":5465:5499  playerTwoChoice != GameChoice.none */\n      0x03\n      dup2\n      gt\n      iszero\n      tag_259\n      jumpi\n      tag_260\n      tag_86\n      jump\t// in\n    tag_260:\n    tag_259:\n        /* \"contracts/RPS.sol\":5465:5480  playerTwoChoice */\n      0x03\n      0x02\n      swap1\n      sload\n      swap1\n      0x0100\n      exp\n      swap1\n      div\n      0xff\n      and\n        /* \"contracts/RPS.sol\":5465:5499  playerTwoChoice != GameChoice.none */\n      0x03\n      dup2\n      gt\n      iszero\n      tag_261\n      jumpi\n      tag_262\n      tag_86\n      jump\t// in\n    tag_262:\n    tag_261:\n      eq\n      iszero\n        /* \"contracts/RPS.sol\":5442:5499  playerTwo == player && playerTwoChoice != GameChoice.none */\n    tag_258:\n        /* \"contracts/RPS.sol\":5364:5499  playerOne == player && playerOneChoice != GameChoice.none || ... */\n    tag_257:\n        /* \"contracts/RPS.sol\":5356:5500  return (playerOne == player && playerOneChoice != GameChoice.none || ... */\n      swap1\n      pop\n        /* \"contracts/RPS.sol\":5283:5507  function isRevealed(address player) public view returns (bool) {... */\n      swap2\n      swap1\n      pop\n      jump\t// out\n        /* \"contracts/RPS.sol\":4390:4671  function reset() private {... */\n    tag_133:\n        /* \"contracts/RPS.sol\":4433:4434  0 */\n      0x00\n        /* \"contracts/RPS.sol\":4425:4430  stake */\n      0x02\n        /* \"contracts/RPS.sol\":4425:4434  stake = 0 */\n      dup2\n      swap1\n      sstore\n      pop\n        /* \"contracts/RPS.sol\":4472:4475  0x0 */\n      0x00\n        /* \"contracts/RPS.sol\":4444:4453  playerOne */\n      dup1\n      0x00\n        /* \"contracts/RPS.sol\":4444:4477  playerOne = payable(address(0x0)) */\n      0x0100\n      exp\n      dup2\n      sload\n      dup2\n      0xffffffffffffffffffffffffffffffffffffffff\n      mul\n      not\n      and\n      swap1\n      dup4\n      0xffffffffffffffffffffffffffffffffffffffff\n      and\n      mul\n      or\n      swap1\n      sstore\n      pop\n        /* \"contracts/RPS.sol\":4515:4518  0x0 */\n      0x00\n        /* \"contracts/RPS.sol\":4487:4496  playerTwo */\n      0x01\n      0x00\n        /* \"contracts/RPS.sol\":4487:4520  playerTwo = payable(address(0x0)) */\n      0x0100\n      exp\n      dup2\n      sload\n      dup2\n      0xffffffffffffffffffffffffffffffffffffffff\n      mul\n      not\n      and\n      swap1\n      dup4\n      0xffffffffffffffffffffffffffffffffffffffff\n      and\n      mul\n      or\n      swap1\n      sstore\n      pop\n        /* \"contracts/RPS.sol\":4546:4549  0x0 */\n      0x00\n        /* \"contracts/RPS.sol\":4530:4549  playerOneHash = 0x0 */\n      dup1\n      shl\n        /* \"contracts/RPS.sol\":4530:4543  playerOneHash */\n      0x04\n        /* \"contracts/RPS.sol\":4530:4549  playerOneHash = 0x0 */\n      dup2\n      swap1\n      sstore\n      pop\n        /* \"contracts/RPS.sol\":4575:4578  0x0 */\n      0x00\n        /* \"contracts/RPS.sol\":4559:4578  playerTwoHash = 0x0 */\n      dup1\n      shl\n        /* \"contracts/RPS.sol\":4559:4572  playerTwoHash */\n      0x05\n        /* \"contracts/RPS.sol\":4559:4578  playerTwoHash = 0x0 */\n      dup2\n      swap1\n      sstore\n      pop\n        /* \"contracts/RPS.sol\":4606:4621  GameChoice.none */\n      0x00\n        /* \"contracts/RPS.sol\":4588:4603  playerOneChoice */\n      0x03\n      0x01\n        /* \"contracts/RPS.sol\":4588:4621  playerOneChoice = GameChoice.none */\n      0x0100\n      exp\n      dup2\n      sload\n      dup2\n      0xff\n      mul\n      not\n      and\n      swap1\n      dup4\n      0x03\n      dup2\n      gt\n      iszero\n      tag_264\n      jumpi\n      tag_265\n      tag_86\n      jump\t// in\n    tag_265:\n    tag_264:\n      mul\n      or\n      swap1\n      sstore\n      pop\n        /* \"contracts/RPS.sol\":4649:4664  GameChoice.none */\n      0x00\n        /* \"contracts/RPS.sol\":4631:4646  playerTwoChoice */\n      0x03\n      0x02\n        /* \"contracts/RPS.sol\":4631:4664  playerTwoChoice = GameChoice.none */\n      0x0100\n      exp\n      dup2\n      sload\n      dup2\n      0xff\n      mul\n      not\n      and\n      swap1\n      dup4\n      0x03\n      dup2\n      gt\n      iszero\n      tag_266\n      jumpi\n      tag_267\n      tag_86\n      jump\t// in\n    tag_267:\n    tag_266:\n      mul\n      or\n      swap1\n      sstore\n      pop\n        /* \"contracts/RPS.sol\":4390:4671  function reset() private {... */\n      jump\t// out\n        /* \"contracts/RPS.sol\":4681:4827  function getSaltedHash(uint answer, bytes32 salt) internal pure returns (bytes32) {... */\n    tag_191:\n        /* \"contracts/RPS.sol\":4754:4761  bytes32 */\n      0x00\n        /* \"contracts/RPS.sol\":4806:4812  answer */\n      dup3\n        /* \"contracts/RPS.sol\":4814:4818  salt */\n      dup3\n        /* \"contracts/RPS.sol\":4789:4819  abi.encodePacked(answer, salt) */\n      add(0x20, mload(0x40))\n      tag_269\n      swap3\n      swap2\n      swap1\n      tag_270\n      jump\t// in\n    tag_269:\n      mload(0x40)\n      0x20\n      dup2\n      dup4\n      sub\n      sub\n      dup2\n      mstore\n      swap1\n      0x40\n      mstore\n        /* \"contracts/RPS.sol\":4779:4820  keccak256(abi.encodePacked(answer, salt)) */\n      dup1\n      mload\n      swap1\n      0x20\n      add\n      keccak256\n        /* \"contracts/RPS.sol\":4772:4820  return keccak256(abi.encodePacked(answer, salt)) */\n      swap1\n      pop\n        /* \"contracts/RPS.sol\":4681:4827  function getSaltedHash(uint answer, bytes32 salt) internal pure returns (bytes32) {... */\n      swap3\n      swap2\n      pop\n      pop\n      jump\t// out\n        /* \"#utility.yul\":7:146   */\n    tag_272:\n        /* \"#utility.yul\":53:58   */\n      0x00\n        /* \"#utility.yul\":91:97   */\n      dup2\n        /* \"#utility.yul\":78:98   */\n      calldataload\n        /* \"#utility.yul\":69:98   */\n      swap1\n      pop\n        /* \"#utility.yul\":107:140   */\n      tag_274\n        /* \"#utility.yul\":134:139   */\n      dup2\n        /* \"#utility.yul\":107:140   */\n      tag_275\n      jump\t// in\n    tag_274:\n        /* \"#utility.yul\":7:146   */\n      swap3\n      swap2\n      pop\n      pop\n      jump\t// out\n        /* \"#utility.yul\":152:291   */\n    tag_276:\n        /* \"#utility.yul\":198:203   */\n      0x00\n        /* \"#utility.yul\":236:242   */\n      dup2\n        /* \"#utility.yul\":223:243   */\n      calldataload\n        /* \"#utility.yul\":214:243   */\n      swap1\n      pop\n        /* \"#utility.yul\":252:285   */\n      tag_278\n        /* \"#utility.yul\":279:284   */\n      dup2\n        /* \"#utility.yul\":252:285   */\n      tag_279\n      jump\t// in\n    tag_278:\n        /* \"#utility.yul\":152:291   */\n      swap3\n      swap2\n      pop\n      pop\n      jump\t// out\n        /* \"#utility.yul\":297:436   */\n    tag_280:\n        /* \"#utility.yul\":343:348   */\n      0x00\n        /* \"#utility.yul\":381:387   */\n      dup2\n        /* \"#utility.yul\":368:388   */\n      calldataload\n        /* \"#utility.yul\":359:388   */\n      swap1\n      pop\n        /* \"#utility.yul\":397:430   */\n      tag_282\n        /* \"#utility.yul\":424:429   */\n      dup2\n        /* \"#utility.yul\":397:430   */\n      tag_283\n      jump\t// in\n    tag_282:\n        /* \"#utility.yul\":297:436   */\n      swap3\n      swap2\n      pop\n      pop\n      jump\t// out\n        /* \"#utility.yul\":442:771   */\n    tag_27:\n        /* \"#utility.yul\":501:507   */\n      0x00\n        /* \"#utility.yul\":550:552   */\n      0x20\n        /* \"#utility.yul\":538:547   */\n      dup3\n        /* \"#utility.yul\":529:536   */\n      dup5\n        /* \"#utility.yul\":525:548   */\n      sub\n        /* \"#utility.yul\":521:553   */\n      slt\n        /* \"#utility.yul\":518:637   */\n      iszero\n      tag_285\n      jumpi\n        /* \"#utility.yul\":556:635   */\n      tag_286\n      tag_287\n      jump\t// in\n    tag_286:\n        /* \"#utility.yul\":518:637   */\n    tag_285:\n        /* \"#utility.yul\":676:677   */\n      0x00\n        /* \"#utility.yul\":701:754   */\n      tag_288\n        /* \"#utility.yul\":746:753   */\n      dup5\n        /* \"#utility.yul\":737:743   */\n      dup3\n        /* \"#utility.yul\":726:735   */\n      dup6\n        /* \"#utility.yul\":722:744   */\n      add\n        /* \"#utility.yul\":701:754   */\n      tag_272\n      jump\t// in\n    tag_288:\n        /* \"#utility.yul\":691:754   */\n      swap2\n      pop\n        /* \"#utility.yul\":647:764   */\n      pop\n        /* \"#utility.yul\":442:771   */\n      swap3\n      swap2\n      pop\n      pop\n      jump\t// out\n        /* \"#utility.yul\":777:1106   */\n    tag_65:\n        /* \"#utility.yul\":836:842   */\n      0x00\n        /* \"#utility.yul\":885:887   */\n      0x20\n        /* \"#utility.yul\":873:882   */\n      dup3\n        /* \"#utility.yul\":864:871   */\n      dup5\n        /* \"#utility.yul\":860:883   */\n      sub\n        /* \"#utility.yul\":856:888   */\n      slt\n        /* \"#utility.yul\":853:972   */\n      iszero\n      tag_290\n      jumpi\n        /* \"#utility.yul\":891:970   */\n      tag_291\n      tag_287\n      jump\t// in\n    tag_291:\n        /* \"#utility.yul\":853:972   */\n    tag_290:\n        /* \"#utility.yul\":1011:1012   */\n      0x00\n        /* \"#utility.yul\":1036:1089   */\n      tag_292\n        /* \"#utility.yul\":1081:1088   */\n      dup5\n        /* \"#utility.yul\":1072:1078   */\n      dup3\n        /* \"#utility.yul\":1061:1070   */\n      dup6\n        /* \"#utility.yul\":1057:1079   */\n      add\n        /* \"#utility.yul\":1036:1089   */\n      tag_276\n      jump\t// in\n    tag_292:\n        /* \"#utility.yul\":1026:1089   */\n      swap2\n      pop\n        /* \"#utility.yul\":982:1099   */\n      pop\n        /* \"#utility.yul\":777:1106   */\n      swap3\n      swap2\n      pop\n      pop\n      jump\t// out\n        /* \"#utility.yul\":1112:1586   */\n    tag_54:\n        /* \"#utility.yul\":1180:1186   */\n      0x00\n        /* \"#utility.yul\":1188:1194   */\n      dup1\n        /* \"#utility.yul\":1237:1239   */\n      0x40\n        /* \"#utility.yul\":1225:1234   */\n      dup4\n        /* \"#utility.yul\":1216:1223   */\n      dup6\n        /* \"#utility.yul\":1212:1235   */\n      sub\n        /* \"#utility.yul\":1208:1240   */\n      slt\n        /* \"#utility.yul\":1205:1324   */\n      iszero\n      tag_294\n      jumpi\n        /* \"#utility.yul\":1243:1322   */\n      tag_295\n      tag_287\n      jump\t// in\n    tag_295:\n        /* \"#utility.yul\":1205:1324   */\n    tag_294:\n        /* \"#utility.yul\":1363:1364   */\n      0x00\n        /* \"#utility.yul\":1388:1441   */\n      tag_296\n        /* \"#utility.yul\":1433:1440   */\n      dup6\n        /* \"#utility.yul\":1424:1430   */\n      dup3\n        /* \"#utility.yul\":1413:1422   */\n      dup7\n        /* \"#utility.yul\":1409:1431   */\n      add\n        /* \"#utility.yul\":1388:1441   */\n      tag_280\n      jump\t// in\n    tag_296:\n        /* \"#utility.yul\":1378:1441   */\n      swap3\n      pop\n        /* \"#utility.yul\":1334:1451   */\n      pop\n        /* \"#utility.yul\":1490:1492   */\n      0x20\n        /* \"#utility.yul\":1516:1569   */\n      tag_297\n        /* \"#utility.yul\":1561:1568   */\n      dup6\n        /* \"#utility.yul\":1552:1558   */\n      dup3\n        /* \"#utility.yul\":1541:1550   */\n      dup7\n        /* \"#utility.yul\":1537:1559   */\n      add\n        /* \"#utility.yul\":1516:1569   */\n      tag_276\n      jump\t// in\n    tag_297:\n        /* \"#utility.yul\":1506:1569   */\n      swap2\n      pop\n        /* \"#utility.yul\":1461:1579   */\n      pop\n        /* \"#utility.yul\":1112:1586   */\n      swap3\n      pop\n      swap3\n      swap1\n      pop\n      jump\t// out\n        /* \"#utility.yul\":1592:1701   */\n    tag_298:\n        /* \"#utility.yul\":1673:1694   */\n      tag_300\n        /* \"#utility.yul\":1688:1693   */\n      dup2\n        /* \"#utility.yul\":1673:1694   */\n      tag_301\n      jump\t// in\n    tag_300:\n        /* \"#utility.yul\":1668:1671   */\n      dup3\n        /* \"#utility.yul\":1661:1695   */\n      mstore\n        /* \"#utility.yul\":1592:1701   */\n      pop\n      pop\n      jump\t// out\n        /* \"#utility.yul\":1707:1864   */\n    tag_302:\n        /* \"#utility.yul\":1812:1857   */\n      tag_304\n        /* \"#utility.yul\":1832:1856   */\n      tag_305\n        /* \"#utility.yul\":1850:1855   */\n      dup3\n        /* \"#utility.yul\":1832:1856   */\n      tag_306\n      jump\t// in\n    tag_305:\n        /* \"#utility.yul\":1812:1857   */\n      tag_307\n      jump\t// in\n    tag_304:\n        /* \"#utility.yul\":1807:1810   */\n      dup3\n        /* \"#utility.yul\":1800:1858   */\n      mstore\n        /* \"#utility.yul\":1707:1864   */\n      pop\n      pop\n      jump\t// out\n        /* \"#utility.yul\":1870:2023   */\n    tag_308:\n        /* \"#utility.yul\":1968:2016   */\n      tag_310\n        /* \"#utility.yul\":2010:2015   */\n      dup2\n        /* \"#utility.yul\":1968:2016   */\n      tag_311\n      jump\t// in\n    tag_310:\n        /* \"#utility.yul\":1963:1966   */\n      dup3\n        /* \"#utility.yul\":1956:2017   */\n      mstore\n        /* \"#utility.yul\":1870:2023   */\n      pop\n      pop\n      jump\t// out\n        /* \"#utility.yul\":2029:2184   */\n    tag_312:\n        /* \"#utility.yul\":2128:2177   */\n      tag_314\n        /* \"#utility.yul\":2171:2176   */\n      dup2\n        /* \"#utility.yul\":2128:2177   */\n      tag_315\n      jump\t// in\n    tag_314:\n        /* \"#utility.yul\":2123:2126   */\n      dup3\n        /* \"#utility.yul\":2116:2178   */\n      mstore\n        /* \"#utility.yul\":2029:2184   */\n      pop\n      pop\n      jump\t// out\n        /* \"#utility.yul\":2190:2337   */\n    tag_316:\n        /* \"#utility.yul\":2285:2330   */\n      tag_318\n        /* \"#utility.yul\":2324:2329   */\n      dup2\n        /* \"#utility.yul\":2285:2330   */\n      tag_319\n      jump\t// in\n    tag_318:\n        /* \"#utility.yul\":2280:2283   */\n      dup3\n        /* \"#utility.yul\":2273:2331   */\n      mstore\n        /* \"#utility.yul\":2190:2337   */\n      pop\n      pop\n      jump\t// out\n        /* \"#utility.yul\":2343:2490   */\n    tag_320:\n        /* \"#utility.yul\":2438:2483   */\n      tag_322\n        /* \"#utility.yul\":2477:2482   */\n      dup2\n        /* \"#utility.yul\":2438:2483   */\n      tag_323\n      jump\t// in\n    tag_322:\n        /* \"#utility.yul\":2433:2436   */\n      dup3\n        /* \"#utility.yul\":2426:2484   */\n      mstore\n        /* \"#utility.yul\":2343:2490   */\n      pop\n      pop\n      jump\t// out\n        /* \"#utility.yul\":2496:2643   */\n    tag_324:\n        /* \"#utility.yul\":2591:2636   */\n      tag_326\n        /* \"#utility.yul\":2630:2635   */\n      dup2\n        /* \"#utility.yul\":2591:2636   */\n      tag_327\n      jump\t// in\n    tag_326:\n        /* \"#utility.yul\":2586:2589   */\n      dup3\n        /* \"#utility.yul\":2579:2637   */\n      mstore\n        /* \"#utility.yul\":2496:2643   */\n      pop\n      pop\n      jump\t// out\n        /* \"#utility.yul\":2649:3015   */\n    tag_328:\n        /* \"#utility.yul\":2791:2794   */\n      0x00\n        /* \"#utility.yul\":2812:2879   */\n      tag_330\n        /* \"#utility.yul\":2876:2878   */\n      0x16\n        /* \"#utility.yul\":2871:2874   */\n      dup4\n        /* \"#utility.yul\":2812:2879   */\n      tag_331\n      jump\t// in\n    tag_330:\n        /* \"#utility.yul\":2805:2879   */\n      swap2\n      pop\n        /* \"#utility.yul\":2888:2981   */\n      tag_332\n        /* \"#utility.yul\":2977:2980   */\n      dup3\n        /* \"#utility.yul\":2888:2981   */\n      tag_333\n      jump\t// in\n    tag_332:\n        /* \"#utility.yul\":3006:3008   */\n      0x20\n        /* \"#utility.yul\":3001:3004   */\n      dup3\n        /* \"#utility.yul\":2997:3009   */\n      add\n        /* \"#utility.yul\":2990:3009   */\n      swap1\n      pop\n        /* \"#utility.yul\":2649:3015   */\n      swap2\n      swap1\n      pop\n      jump\t// out\n        /* \"#utility.yul\":3021:3387   */\n    tag_334:\n        /* \"#utility.yul\":3163:3166   */\n      0x00\n        /* \"#utility.yul\":3184:3251   */\n      tag_336\n        /* \"#utility.yul\":3248:3250   */\n      0x19\n        /* \"#utility.yul\":3243:3246   */\n      dup4\n        /* \"#utility.yul\":3184:3251   */\n      tag_331\n      jump\t// in\n    tag_336:\n        /* \"#utility.yul\":3177:3251   */\n      swap2\n      pop\n        /* \"#utility.yul\":3260:3353   */\n      tag_337\n        /* \"#utility.yul\":3349:3352   */\n      dup3\n        /* \"#utility.yul\":3260:3353   */\n      tag_338\n      jump\t// in\n    tag_337:\n        /* \"#utility.yul\":3378:3380   */\n      0x20\n        /* \"#utility.yul\":3373:3376   */\n      dup3\n        /* \"#utility.yul\":3369:3381   */\n      add\n        /* \"#utility.yul\":3362:3381   */\n      swap1\n      pop\n        /* \"#utility.yul\":3021:3387   */\n      swap2\n      swap1\n      pop\n      jump\t// out\n        /* \"#utility.yul\":3393:3759   */\n    tag_339:\n        /* \"#utility.yul\":3535:3538   */\n      0x00\n        /* \"#utility.yul\":3556:3623   */\n      tag_341\n        /* \"#utility.yul\":3620:3622   */\n      0x22\n        /* \"#utility.yul\":3615:3618   */\n      dup4\n        /* \"#utility.yul\":3556:3623   */\n      tag_331\n      jump\t// in\n    tag_341:\n        /* \"#utility.yul\":3549:3623   */\n      swap2\n      pop\n        /* \"#utility.yul\":3632:3725   */\n      tag_342\n        /* \"#utility.yul\":3721:3724   */\n      dup3\n        /* \"#utility.yul\":3632:3725   */\n      tag_343\n      jump\t// in\n    tag_342:\n        /* \"#utility.yul\":3750:3752   */\n      0x40\n        /* \"#utility.yul\":3745:3748   */\n      dup3\n        /* \"#utility.yul\":3741:3753   */\n      add\n        /* \"#utility.yul\":3734:3753   */\n      swap1\n      pop\n        /* \"#utility.yul\":3393:3759   */\n      swap2\n      swap1\n      pop\n      jump\t// out\n        /* \"#utility.yul\":3765:4131   */\n    tag_344:\n        /* \"#utility.yul\":3907:3910   */\n      0x00\n        /* \"#utility.yul\":3928:3995   */\n      tag_346\n        /* \"#utility.yul\":3992:3994   */\n      0x29\n        /* \"#utility.yul\":3987:3990   */\n      dup4\n        /* \"#utility.yul\":3928:3995   */\n      tag_331\n      jump\t// in\n    tag_346:\n        /* \"#utility.yul\":3921:3995   */\n      swap2\n      pop\n        /* \"#utility.yul\":4004:4097   */\n      tag_347\n        /* \"#utility.yul\":4093:4096   */\n      dup3\n        /* \"#utility.yul\":4004:4097   */\n      tag_348\n      jump\t// in\n    tag_347:\n        /* \"#utility.yul\":4122:4124   */\n      0x40\n        /* \"#utility.yul\":4117:4120   */\n      dup3\n        /* \"#utility.yul\":4113:4125   */\n      add\n        /* \"#utility.yul\":4106:4125   */\n      swap1\n      pop\n        /* \"#utility.yul\":3765:4131   */\n      swap2\n      swap1\n      pop\n      jump\t// out\n        /* \"#utility.yul\":4137:4503   */\n    tag_349:\n        /* \"#utility.yul\":4279:4282   */\n      0x00\n        /* \"#utility.yul\":4300:4367   */\n      tag_351\n        /* \"#utility.yul\":4364:4366   */\n      0x10\n        /* \"#utility.yul\":4359:4362   */\n      dup4\n        /* \"#utility.yul\":4300:4367   */\n      tag_331\n      jump\t// in\n    tag_351:\n        /* \"#utility.yul\":4293:4367   */\n      swap2\n      pop\n        /* \"#utility.yul\":4376:4469   */\n      tag_352\n        /* \"#utility.yul\":4465:4468   */\n      dup3\n        /* \"#utility.yul\":4376:4469   */\n      tag_353\n      jump\t// in\n    tag_352:\n        /* \"#utility.yul\":4494:4496   */\n      0x20\n        /* \"#utility.yul\":4489:4492   */\n      dup3\n        /* \"#utility.yul\":4485:4497   */\n      add\n        /* \"#utility.yul\":4478:4497   */\n      swap1\n      pop\n        /* \"#utility.yul\":4137:4503   */\n      swap2\n      swap1\n      pop\n      jump\t// out\n        /* \"#utility.yul\":4509:4875   */\n    tag_354:\n        /* \"#utility.yul\":4651:4654   */\n      0x00\n        /* \"#utility.yul\":4672:4739   */\n      tag_356\n        /* \"#utility.yul\":4736:4738   */\n      0x2d\n        /* \"#utility.yul\":4731:4734   */\n      dup4\n        /* \"#utility.yul\":4672:4739   */\n      tag_331\n      jump\t// in\n    tag_356:\n        /* \"#utility.yul\":4665:4739   */\n      swap2\n      pop\n        /* \"#utility.yul\":4748:4841   */\n      tag_357\n        /* \"#utility.yul\":4837:4840   */\n      dup3\n        /* \"#utility.yul\":4748:4841   */\n      tag_358\n      jump\t// in\n    tag_357:\n        /* \"#utility.yul\":4866:4868   */\n      0x40\n        /* \"#utility.yul\":4861:4864   */\n      dup3\n        /* \"#utility.yul\":4857:4869   */\n      add\n        /* \"#utility.yul\":4850:4869   */\n      swap1\n      pop\n        /* \"#utility.yul\":4509:4875   */\n      swap2\n      swap1\n      pop\n      jump\t// out\n        /* \"#utility.yul\":4881:5247   */\n    tag_359:\n        /* \"#utility.yul\":5023:5026   */\n      0x00\n        /* \"#utility.yul\":5044:5111   */\n      tag_361\n        /* \"#utility.yul\":5108:5110   */\n      0x1a\n        /* \"#utility.yul\":5103:5106   */\n      dup4\n        /* \"#utility.yul\":5044:5111   */\n      tag_331\n      jump\t// in\n    tag_361:\n        /* \"#utility.yul\":5037:5111   */\n      swap2\n      pop\n        /* \"#utility.yul\":5120:5213   */\n      tag_362\n        /* \"#utility.yul\":5209:5212   */\n      dup3\n        /* \"#utility.yul\":5120:5213   */\n      tag_363\n      jump\t// in\n    tag_362:\n        /* \"#utility.yul\":5238:5240   */\n      0x20\n        /* \"#utility.yul\":5233:5236   */\n      dup3\n        /* \"#utility.yul\":5229:5241   */\n      add\n        /* \"#utility.yul\":5222:5241   */\n      swap1\n      pop\n        /* \"#utility.yul\":4881:5247   */\n      swap2\n      swap1\n      pop\n      jump\t// out\n        /* \"#utility.yul\":5253:5619   */\n    tag_364:\n        /* \"#utility.yul\":5395:5398   */\n      0x00\n        /* \"#utility.yul\":5416:5483   */\n      tag_366\n        /* \"#utility.yul\":5480:5482   */\n      0x11\n        /* \"#utility.yul\":5475:5478   */\n      dup4\n        /* \"#utility.yul\":5416:5483   */\n      tag_331\n      jump\t// in\n    tag_366:\n        /* \"#utility.yul\":5409:5483   */\n      swap2\n      pop\n        /* \"#utility.yul\":5492:5585   */\n      tag_367\n        /* \"#utility.yul\":5581:5584   */\n      dup3\n        /* \"#utility.yul\":5492:5585   */\n      tag_368\n      jump\t// in\n    tag_367:\n        /* \"#utility.yul\":5610:5612   */\n      0x20\n        /* \"#utility.yul\":5605:5608   */\n      dup3\n        /* \"#utility.yul\":5601:5613   */\n      add\n        /* \"#utility.yul\":5594:5613   */\n      swap1\n      pop\n        /* \"#utility.yul\":5253:5619   */\n      swap2\n      swap1\n      pop\n      jump\t// out\n        /* \"#utility.yul\":5625:5991   */\n    tag_369:\n        /* \"#utility.yul\":5767:5770   */\n      0x00\n        /* \"#utility.yul\":5788:5855   */\n      tag_371\n        /* \"#utility.yul\":5852:5854   */\n      0x22\n        /* \"#utility.yul\":5847:5850   */\n      dup4\n        /* \"#utility.yul\":5788:5855   */\n      tag_331\n      jump\t// in\n    tag_371:\n        /* \"#utility.yul\":5781:5855   */\n      swap2\n      pop\n        /* \"#utility.yul\":5864:5957   */\n      tag_372\n        /* \"#utility.yul\":5953:5956   */\n      dup3\n        /* \"#utility.yul\":5864:5957   */\n      tag_373\n      jump\t// in\n    tag_372:\n        /* \"#utility.yul\":5982:5984   */\n      0x40\n        /* \"#utility.yul\":5977:5980   */\n      dup3\n        /* \"#utility.yul\":5973:5985   */\n      add\n        /* \"#utility.yul\":5966:5985   */\n      swap1\n      pop\n        /* \"#utility.yul\":5625:5991   */\n      swap2\n      swap1\n      pop\n      jump\t// out\n        /* \"#utility.yul\":5997:6363   */\n    tag_374:\n        /* \"#utility.yul\":6139:6142   */\n      0x00\n        /* \"#utility.yul\":6160:6227   */\n      tag_376\n        /* \"#utility.yul\":6224:6226   */\n      0x30\n        /* \"#utility.yul\":6219:6222   */\n      dup4\n        /* \"#utility.yul\":6160:6227   */\n      tag_331\n      jump\t// in\n    tag_376:\n        /* \"#utility.yul\":6153:6227   */\n      swap2\n      pop\n        /* \"#utility.yul\":6236:6329   */\n      tag_377\n        /* \"#utility.yul\":6325:6328   */\n      dup3\n        /* \"#utility.yul\":6236:6329   */\n      tag_378\n      jump\t// in\n    tag_377:\n        /* \"#utility.yul\":6354:6356   */\n      0x40\n        /* \"#utility.yul\":6349:6352   */\n      dup3\n        /* \"#utility.yul\":6345:6357   */\n      add\n        /* \"#utility.yul\":6338:6357   */\n      swap1\n      pop\n        /* \"#utility.yul\":5997:6363   */\n      swap2\n      swap1\n      pop\n      jump\t// out\n        /* \"#utility.yul\":6369:6735   */\n    tag_379:\n        /* \"#utility.yul\":6511:6514   */\n      0x00\n        /* \"#utility.yul\":6532:6599   */\n      tag_381\n        /* \"#utility.yul\":6596:6598   */\n      0x16\n        /* \"#utility.yul\":6591:6594   */\n      dup4\n        /* \"#utility.yul\":6532:6599   */\n      tag_331\n      jump\t// in\n    tag_381:\n        /* \"#utility.yul\":6525:6599   */\n      swap2\n      pop\n        /* \"#utility.yul\":6608:6701   */\n      tag_382\n        /* \"#utility.yul\":6697:6700   */\n      dup3\n        /* \"#utility.yul\":6608:6701   */\n      tag_383\n      jump\t// in\n    tag_382:\n        /* \"#utility.yul\":6726:6728   */\n      0x20\n        /* \"#utility.yul\":6721:6724   */\n      dup3\n        /* \"#utility.yul\":6717:6729   */\n      add\n        /* \"#utility.yul\":6710:6729   */\n      swap1\n      pop\n        /* \"#utility.yul\":6369:6735   */\n      swap2\n      swap1\n      pop\n      jump\t// out\n        /* \"#utility.yul\":6741:6859   */\n    tag_384:\n        /* \"#utility.yul\":6828:6852   */\n      tag_386\n        /* \"#utility.yul\":6846:6851   */\n      dup2\n        /* \"#utility.yul\":6828:6852   */\n      tag_387\n      jump\t// in\n    tag_386:\n        /* \"#utility.yul\":6823:6826   */\n      dup3\n        /* \"#utility.yul\":6816:6853   */\n      mstore\n        /* \"#utility.yul\":6741:6859   */\n      pop\n      pop\n      jump\t// out\n        /* \"#utility.yul\":6865:7022   */\n    tag_388:\n        /* \"#utility.yul\":6970:7015   */\n      tag_390\n        /* \"#utility.yul\":6990:7014   */\n      tag_391\n        /* \"#utility.yul\":7008:7013   */\n      dup3\n        /* \"#utility.yul\":6990:7014   */\n      tag_387\n      jump\t// in\n    tag_391:\n        /* \"#utility.yul\":6970:7015   */\n      tag_392\n      jump\t// in\n    tag_390:\n        /* \"#utility.yul\":6965:6968   */\n      dup3\n        /* \"#utility.yul\":6958:7016   */\n      mstore\n        /* \"#utility.yul\":6865:7022   */\n      pop\n      pop\n      jump\t// out\n        /* \"#utility.yul\":7028:7425   */\n    tag_270:\n        /* \"#utility.yul\":7168:7171   */\n      0x00\n        /* \"#utility.yul\":7183:7258   */\n      tag_394\n        /* \"#utility.yul\":7254:7257   */\n      dup3\n        /* \"#utility.yul\":7245:7251   */\n      dup6\n        /* \"#utility.yul\":7183:7258   */\n      tag_388\n      jump\t// in\n    tag_394:\n        /* \"#utility.yul\":7283:7285   */\n      0x20\n        /* \"#utility.yul\":7278:7281   */\n      dup3\n        /* \"#utility.yul\":7274:7286   */\n      add\n        /* \"#utility.yul\":7267:7286   */\n      swap2\n      pop\n        /* \"#utility.yul\":7296:7371   */\n      tag_395\n        /* \"#utility.yul\":7367:7370   */\n      dup3\n        /* \"#utility.yul\":7358:7364   */\n      dup5\n        /* \"#utility.yul\":7296:7371   */\n      tag_302\n      jump\t// in\n    tag_395:\n        /* \"#utility.yul\":7396:7398   */\n      0x20\n        /* \"#utility.yul\":7391:7394   */\n      dup3\n        /* \"#utility.yul\":7387:7399   */\n      add\n        /* \"#utility.yul\":7380:7399   */\n      swap2\n      pop\n        /* \"#utility.yul\":7416:7419   */\n      dup2\n        /* \"#utility.yul\":7409:7419   */\n      swap1\n      pop\n        /* \"#utility.yul\":7028:7425   */\n      swap4\n      swap3\n      pop\n      pop\n      pop\n      jump\t// out\n        /* \"#utility.yul\":7431:7641   */\n    tag_30:\n        /* \"#utility.yul\":7518:7522   */\n      0x00\n        /* \"#utility.yul\":7556:7558   */\n      0x20\n        /* \"#utility.yul\":7545:7554   */\n      dup3\n        /* \"#utility.yul\":7541:7559   */\n      add\n        /* \"#utility.yul\":7533:7559   */\n      swap1\n      pop\n        /* \"#utility.yul\":7569:7634   */\n      tag_397\n        /* \"#utility.yul\":7631:7632   */\n      0x00\n        /* \"#utility.yul\":7620:7629   */\n      dup4\n        /* \"#utility.yul\":7616:7633   */\n      add\n        /* \"#utility.yul\":7607:7613   */\n      dup5\n        /* \"#utility.yul\":7569:7634   */\n      tag_298\n      jump\t// in\n    tag_397:\n        /* \"#utility.yul\":7431:7641   */\n      swap3\n      swap2\n      pop\n      pop\n      jump\t// out\n        /* \"#utility.yul\":7647:7891   */\n    tag_57:\n        /* \"#utility.yul\":7751:7755   */\n      0x00\n        /* \"#utility.yul\":7789:7791   */\n      0x20\n        /* \"#utility.yul\":7778:7787   */\n      dup3\n        /* \"#utility.yul\":7774:7792   */\n      add\n        /* \"#utility.yul\":7766:7792   */\n      swap1\n      pop\n        /* \"#utility.yul\":7802:7884   */\n      tag_399\n        /* \"#utility.yul\":7881:7882   */\n      0x00\n        /* \"#utility.yul\":7870:7879   */\n      dup4\n        /* \"#utility.yul\":7866:7883   */\n      add\n        /* \"#utility.yul\":7857:7863   */\n      dup5\n        /* \"#utility.yul\":7802:7884   */\n      tag_308\n      jump\t// in\n    tag_399:\n        /* \"#utility.yul\":7647:7891   */\n      swap3\n      swap2\n      pop\n      pop\n      jump\t// out\n        /* \"#utility.yul\":7897:8143   */\n    tag_23:\n        /* \"#utility.yul\":8002:8006   */\n      0x00\n        /* \"#utility.yul\":8040:8042   */\n      0x20\n        /* \"#utility.yul\":8029:8038   */\n      dup3\n        /* \"#utility.yul\":8025:8043   */\n      add\n        /* \"#utility.yul\":8017:8043   */\n      swap1\n      pop\n        /* \"#utility.yul\":8053:8136   */\n      tag_401\n        /* \"#utility.yul\":8133:8134   */\n      0x00\n        /* \"#utility.yul\":8122:8131   */\n      dup4\n        /* \"#utility.yul\":8118:8135   */\n      add\n        /* \"#utility.yul\":8109:8115   */\n      dup5\n        /* \"#utility.yul\":8053:8136   */\n      tag_312\n      jump\t// in\n    tag_401:\n        /* \"#utility.yul\":7897:8143   */\n      swap3\n      swap2\n      pop\n      pop\n      jump\t// out\n        /* \"#utility.yul\":8149:8387   */\n    tag_161:\n        /* \"#utility.yul\":8250:8254   */\n      0x00\n        /* \"#utility.yul\":8288:8290   */\n      0x20\n        /* \"#utility.yul\":8277:8286   */\n      dup3\n        /* \"#utility.yul\":8273:8291   */\n      add\n        /* \"#utility.yul\":8265:8291   */\n      swap1\n      pop\n        /* \"#utility.yul\":8301:8380   */\n      tag_403\n        /* \"#utility.yul\":8377:8378   */\n      0x00\n        /* \"#utility.yul\":8366:8375   */\n      dup4\n        /* \"#utility.yul\":8362:8379   */\n      add\n        /* \"#utility.yul\":8353:8359   */\n      dup5\n        /* \"#utility.yul\":8301:8380   */\n      tag_316\n      jump\t// in\n    tag_403:\n        /* \"#utility.yul\":8149:8387   */\n      swap3\n      swap2\n      pop\n      pop\n      jump\t// out\n        /* \"#utility.yul\":8393:8631   */\n    tag_155:\n        /* \"#utility.yul\":8494:8498   */\n      0x00\n        /* \"#utility.yul\":8532:8534   */\n      0x20\n        /* \"#utility.yul\":8521:8530   */\n      dup3\n        /* \"#utility.yul\":8517:8535   */\n      add\n        /* \"#utility.yul\":8509:8535   */\n      swap1\n      pop\n        /* \"#utility.yul\":8545:8624   */\n      tag_405\n        /* \"#utility.yul\":8621:8622   */\n      0x00\n        /* \"#utility.yul\":8610:8619   */\n      dup4\n        /* \"#utility.yul\":8606:8623   */\n      add\n        /* \"#utility.yul\":8597:8603   */\n      dup5\n        /* \"#utility.yul\":8545:8624   */\n      tag_320\n      jump\t// in\n    tag_405:\n        /* \"#utility.yul\":8393:8631   */\n      swap3\n      swap2\n      pop\n      pop\n      jump\t// out\n        /* \"#utility.yul\":8637:8875   */\n    tag_159:\n        /* \"#utility.yul\":8738:8742   */\n      0x00\n        /* \"#utility.yul\":8776:8778   */\n      0x20\n        /* \"#utility.yul\":8765:8774   */\n      dup3\n        /* \"#utility.yul\":8761:8779   */\n      add\n        /* \"#utility.yul\":8753:8779   */\n      swap1\n      pop\n        /* \"#utility.yul\":8789:8868   */\n      tag_407\n        /* \"#utility.yul\":8865:8866   */\n      0x00\n        /* \"#utility.yul\":8854:8863   */\n      dup4\n        /* \"#utility.yul\":8850:8867   */\n      add\n        /* \"#utility.yul\":8841:8847   */\n      dup5\n        /* \"#utility.yul\":8789:8868   */\n      tag_324\n      jump\t// in\n    tag_407:\n        /* \"#utility.yul\":8637:8875   */\n      swap3\n      swap2\n      pop\n      pop\n      jump\t// out\n        /* \"#utility.yul\":8881:9300   */\n    tag_212:\n        /* \"#utility.yul\":9047:9051   */\n      0x00\n        /* \"#utility.yul\":9085:9087   */\n      0x20\n        /* \"#utility.yul\":9074:9083   */\n      dup3\n        /* \"#utility.yul\":9070:9088   */\n      add\n        /* \"#utility.yul\":9062:9088   */\n      swap1\n      pop\n        /* \"#utility.yul\":9134:9143   */\n      dup2\n        /* \"#utility.yul\":9128:9132   */\n      dup2\n        /* \"#utility.yul\":9124:9144   */\n      sub\n        /* \"#utility.yul\":9120:9121   */\n      0x00\n        /* \"#utility.yul\":9109:9118   */\n      dup4\n        /* \"#utility.yul\":9105:9122   */\n      add\n        /* \"#utility.yul\":9098:9145   */\n      mstore\n        /* \"#utility.yul\":9162:9293   */\n      tag_409\n        /* \"#utility.yul\":9288:9292   */\n      dup2\n        /* \"#utility.yul\":9162:9293   */\n      tag_328\n      jump\t// in\n    tag_409:\n        /* \"#utility.yul\":9154:9293   */\n      swap1\n      pop\n        /* \"#utility.yul\":8881:9300   */\n      swap2\n      swap1\n      pop\n      jump\t// out\n        /* \"#utility.yul\":9306:9725   */\n    tag_177:\n        /* \"#utility.yul\":9472:9476   */\n      0x00\n        /* \"#utility.yul\":9510:9512   */\n      0x20\n        /* \"#utility.yul\":9499:9508   */\n      dup3\n        /* \"#utility.yul\":9495:9513   */\n      add\n        /* \"#utility.yul\":9487:9513   */\n      swap1\n      pop\n        /* \"#utility.yul\":9559:9568   */\n      dup2\n        /* \"#utility.yul\":9553:9557   */\n      dup2\n        /* \"#utility.yul\":9549:9569   */\n      sub\n        /* \"#utility.yul\":9545:9546   */\n      0x00\n        /* \"#utility.yul\":9534:9543   */\n      dup4\n        /* \"#utility.yul\":9530:9547   */\n      add\n        /* \"#utility.yul\":9523:9570   */\n      mstore\n        /* \"#utility.yul\":9587:9718   */\n      tag_411\n        /* \"#utility.yul\":9713:9717   */\n      dup2\n        /* \"#utility.yul\":9587:9718   */\n      tag_334\n      jump\t// in\n    tag_411:\n        /* \"#utility.yul\":9579:9718   */\n      swap1\n      pop\n        /* \"#utility.yul\":9306:9725   */\n      swap2\n      swap1\n      pop\n      jump\t// out\n        /* \"#utility.yul\":9731:10150   */\n    tag_151:\n        /* \"#utility.yul\":9897:9901   */\n      0x00\n        /* \"#utility.yul\":9935:9937   */\n      0x20\n        /* \"#utility.yul\":9924:9933   */\n      dup3\n        /* \"#utility.yul\":9920:9938   */\n      add\n        /* \"#utility.yul\":9912:9938   */\n      swap1\n      pop\n        /* \"#utility.yul\":9984:9993   */\n      dup2\n        /* \"#utility.yul\":9978:9982   */\n      dup2\n        /* \"#utility.yul\":9974:9994   */\n      sub\n        /* \"#utility.yul\":9970:9971   */\n      0x00\n        /* \"#utility.yul\":9959:9968   */\n      dup4\n        /* \"#utility.yul\":9955:9972   */\n      add\n        /* \"#utility.yul\":9948:9995   */\n      mstore\n        /* \"#utility.yul\":10012:10143   */\n      tag_413\n        /* \"#utility.yul\":10138:10142   */\n      dup2\n        /* \"#utility.yul\":10012:10143   */\n      tag_339\n      jump\t// in\n    tag_413:\n        /* \"#utility.yul\":10004:10143   */\n      swap1\n      pop\n        /* \"#utility.yul\":9731:10150   */\n      swap2\n      swap1\n      pop\n      jump\t// out\n        /* \"#utility.yul\":10156:10575   */\n    tag_96:\n        /* \"#utility.yul\":10322:10326   */\n      0x00\n        /* \"#utility.yul\":10360:10362   */\n      0x20\n        /* \"#utility.yul\":10349:10358   */\n      dup3\n        /* \"#utility.yul\":10345:10363   */\n      add\n        /* \"#utility.yul\":10337:10363   */\n      swap1\n      pop\n        /* \"#utility.yul\":10409:10418   */\n      dup2\n        /* \"#utility.yul\":10403:10407   */\n      dup2\n        /* \"#utility.yul\":10399:10419   */\n      sub\n        /* \"#utility.yul\":10395:10396   */\n      0x00\n        /* \"#utility.yul\":10384:10393   */\n      dup4\n        /* \"#utility.yul\":10380:10397   */\n      add\n        /* \"#utility.yul\":10373:10420   */\n      mstore\n        /* \"#utility.yul\":10437:10568   */\n      tag_415\n        /* \"#utility.yul\":10563:10567   */\n      dup2\n        /* \"#utility.yul\":10437:10568   */\n      tag_344\n      jump\t// in\n    tag_415:\n        /* \"#utility.yul\":10429:10568   */\n      swap1\n      pop\n        /* \"#utility.yul\":10156:10575   */\n      swap2\n      swap1\n      pop\n      jump\t// out\n        /* \"#utility.yul\":10581:11000   */\n    tag_182:\n        /* \"#utility.yul\":10747:10751   */\n      0x00\n        /* \"#utility.yul\":10785:10787   */\n      0x20\n        /* \"#utility.yul\":10774:10783   */\n      dup3\n        /* \"#utility.yul\":10770:10788   */\n      add\n        /* \"#utility.yul\":10762:10788   */\n      swap1\n      pop\n        /* \"#utility.yul\":10834:10843   */\n      dup2\n        /* \"#utility.yul\":10828:10832   */\n      dup2\n        /* \"#utility.yul\":10824:10844   */\n      sub\n        /* \"#utility.yul\":10820:10821   */\n      0x00\n        /* \"#utility.yul\":10809:10818   */\n      dup4\n        /* \"#utility.yul\":10805:10822   */\n      add\n        /* \"#utility.yul\":10798:10845   */\n      mstore\n        /* \"#utility.yul\":10862:10993   */\n      tag_417\n        /* \"#utility.yul\":10988:10992   */\n      dup2\n        /* \"#utility.yul\":10862:10993   */\n      tag_349\n      jump\t// in\n    tag_417:\n        /* \"#utility.yul\":10854:10993   */\n      swap1\n      pop\n        /* \"#utility.yul\":10581:11000   */\n      swap2\n      swap1\n      pop\n      jump\t// out\n        /* \"#utility.yul\":11006:11425   */\n    tag_187:\n        /* \"#utility.yul\":11172:11176   */\n      0x00\n        /* \"#utility.yul\":11210:11212   */\n      0x20\n        /* \"#utility.yul\":11199:11208   */\n      dup3\n        /* \"#utility.yul\":11195:11213   */\n      add\n        /* \"#utility.yul\":11187:11213   */\n      swap1\n      pop\n        /* \"#utility.yul\":11259:11268   */\n      dup2\n        /* \"#utility.yul\":11253:11257   */\n      dup2\n        /* \"#utility.yul\":11249:11269   */\n      sub\n        /* \"#utility.yul\":11245:11246   */\n      0x00\n        /* \"#utility.yul\":11234:11243   */\n      dup4\n        /* \"#utility.yul\":11230:11247   */\n      add\n        /* \"#utility.yul\":11223:11270   */\n      mstore\n        /* \"#utility.yul\":11287:11418   */\n      tag_419\n        /* \"#utility.yul\":11413:11417   */\n      dup2\n        /* \"#utility.yul\":11287:11418   */\n      tag_354\n      jump\t// in\n    tag_419:\n        /* \"#utility.yul\":11279:11418   */\n      swap1\n      pop\n        /* \"#utility.yul\":11006:11425   */\n      swap2\n      swap1\n      pop\n      jump\t// out\n        /* \"#utility.yul\":11431:11850   */\n    tag_222:\n        /* \"#utility.yul\":11597:11601   */\n      0x00\n        /* \"#utility.yul\":11635:11637   */\n      0x20\n        /* \"#utility.yul\":11624:11633   */\n      dup3\n        /* \"#utility.yul\":11620:11638   */\n      add\n        /* \"#utility.yul\":11612:11638   */\n      swap1\n      pop\n        /* \"#utility.yul\":11684:11693   */\n      dup2\n        /* \"#utility.yul\":11678:11682   */\n      dup2\n        /* \"#utility.yul\":11674:11694   */\n      sub\n        /* \"#utility.yul\":11670:11671   */\n      0x00\n        /* \"#utility.yul\":11659:11668   */\n      dup4\n        /* \"#utility.yul\":11655:11672   */\n      add\n        /* \"#utility.yul\":11648:11695   */\n      mstore\n        /* \"#utility.yul\":11712:11843   */\n      tag_421\n        /* \"#utility.yul\":11838:11842   */\n      dup2\n        /* \"#utility.yul\":11712:11843   */\n      tag_359\n      jump\t// in\n    tag_421:\n        /* \"#utility.yul\":11704:11843   */\n      swap1\n      pop\n        /* \"#utility.yul\":11431:11850   */\n      swap2\n      swap1\n      pop\n      jump\t// out\n        /* \"#utility.yul\":11856:12275   */\n    tag_194:\n        /* \"#utility.yul\":12022:12026   */\n      0x00\n        /* \"#utility.yul\":12060:12062   */\n      0x20\n        /* \"#utility.yul\":12049:12058   */\n      dup3\n        /* \"#utility.yul\":12045:12063   */\n      add\n        /* \"#utility.yul\":12037:12063   */\n      swap1\n      pop\n        /* \"#utility.yul\":12109:12118   */\n      dup2\n        /* \"#utility.yul\":12103:12107   */\n      dup2\n        /* \"#utility.yul\":12099:12119   */\n      sub\n        /* \"#utility.yul\":12095:12096   */\n      0x00\n        /* \"#utility.yul\":12084:12093   */\n      dup4\n        /* \"#utility.yul\":12080:12097   */\n      add\n        /* \"#utility.yul\":12073:12120   */\n      mstore\n        /* \"#utility.yul\":12137:12268   */\n      tag_423\n        /* \"#utility.yul\":12263:12267   */\n      dup2\n        /* \"#utility.yul\":12137:12268   */\n      tag_364\n      jump\t// in\n    tag_423:\n        /* \"#utility.yul\":12129:12268   */\n      swap1\n      pop\n        /* \"#utility.yul\":11856:12275   */\n      swap2\n      swap1\n      pop\n      jump\t// out\n        /* \"#utility.yul\":12281:12700   */\n    tag_142:\n        /* \"#utility.yul\":12447:12451   */\n      0x00\n        /* \"#utility.yul\":12485:12487   */\n      0x20\n        /* \"#utility.yul\":12474:12483   */\n      dup3\n        /* \"#utility.yul\":12470:12488   */\n      add\n        /* \"#utility.yul\":12462:12488   */\n      swap1\n      pop\n        /* \"#utility.yul\":12534:12543   */\n      dup2\n        /* \"#utility.yul\":12528:12532   */\n      dup2\n        /* \"#utility.yul\":12524:12544   */\n      sub\n        /* \"#utility.yul\":12520:12521   */\n      0x00\n        /* \"#utility.yul\":12509:12518   */\n      dup4\n        /* \"#utility.yul\":12505:12522   */\n      add\n        /* \"#utility.yul\":12498:12545   */\n      mstore\n        /* \"#utility.yul\":12562:12693   */\n      tag_425\n        /* \"#utility.yul\":12688:12692   */\n      dup2\n        /* \"#utility.yul\":12562:12693   */\n      tag_369\n      jump\t// in\n    tag_425:\n        /* \"#utility.yul\":12554:12693   */\n      swap1\n      pop\n        /* \"#utility.yul\":12281:12700   */\n      swap2\n      swap1\n      pop\n      jump\t// out\n        /* \"#utility.yul\":12706:13125   */\n    tag_235:\n        /* \"#utility.yul\":12872:12876   */\n      0x00\n        /* \"#utility.yul\":12910:12912   */\n      0x20\n        /* \"#utility.yul\":12899:12908   */\n      dup3\n        /* \"#utility.yul\":12895:12913   */\n      add\n        /* \"#utility.yul\":12887:12913   */\n      swap1\n      pop\n        /* \"#utility.yul\":12959:12968   */\n      dup2\n        /* \"#utility.yul\":12953:12957   */\n      dup2\n        /* \"#utility.yul\":12949:12969   */\n      sub\n        /* \"#utility.yul\":12945:12946   */\n      0x00\n        /* \"#utility.yul\":12934:12943   */\n      dup4\n        /* \"#utility.yul\":12930:12947   */\n      add\n        /* \"#utility.yul\":12923:12970   */\n      mstore\n        /* \"#utility.yul\":12987:13118   */\n      tag_427\n        /* \"#utility.yul\":13113:13117   */\n      dup2\n        /* \"#utility.yul\":12987:13118   */\n      tag_374\n      jump\t// in\n    tag_427:\n        /* \"#utility.yul\":12979:13118   */\n      swap1\n      pop\n        /* \"#utility.yul\":12706:13125   */\n      swap2\n      swap1\n      pop\n      jump\t// out\n        /* \"#utility.yul\":13131:13550   */\n    tag_146:\n        /* \"#utility.yul\":13297:13301   */\n      0x00\n        /* \"#utility.yul\":13335:13337   */\n      0x20\n        /* \"#utility.yul\":13324:13333   */\n      dup3\n        /* \"#utility.yul\":13320:13338   */\n      add\n        /* \"#utility.yul\":13312:13338   */\n      swap1\n      pop\n        /* \"#utility.yul\":13384:13393   */\n      dup2\n        /* \"#utility.yul\":13378:13382   */\n      dup2\n        /* \"#utility.yul\":13374:13394   */\n      sub\n        /* \"#utility.yul\":13370:13371   */\n      0x00\n        /* \"#utility.yul\":13359:13368   */\n      dup4\n        /* \"#utility.yul\":13355:13372   */\n      add\n        /* \"#utility.yul\":13348:13395   */\n      mstore\n        /* \"#utility.yul\":13412:13543   */\n      tag_429\n        /* \"#utility.yul\":13538:13542   */\n      dup2\n        /* \"#utility.yul\":13412:13543   */\n      tag_379\n      jump\t// in\n    tag_429:\n        /* \"#utility.yul\":13404:13543   */\n      swap1\n      pop\n        /* \"#utility.yul\":13131:13550   */\n      swap2\n      swap1\n      pop\n      jump\t// out\n        /* \"#utility.yul\":13556:13778   */\n    tag_34:\n        /* \"#utility.yul\":13649:13653   */\n      0x00\n        /* \"#utility.yul\":13687:13689   */\n      0x20\n        /* \"#utility.yul\":13676:13685   */\n      dup3\n        /* \"#utility.yul\":13672:13690   */\n      add\n        /* \"#utility.yul\":13664:13690   */\n      swap1\n      pop\n        /* \"#utility.yul\":13700:13771   */\n      tag_431\n        /* \"#utility.yul\":13768:13769   */\n      0x00\n        /* \"#utility.yul\":13757:13766   */\n      dup4\n        /* \"#utility.yul\":13753:13770   */\n      add\n        /* \"#utility.yul\":13744:13750   */\n      dup5\n        /* \"#utility.yul\":13700:13771   */\n      tag_384\n      jump\t// in\n    tag_431:\n        /* \"#utility.yul\":13556:13778   */\n      swap3\n      swap2\n      pop\n      pop\n      jump\t// out\n        /* \"#utility.yul\":13865:14034   */\n    tag_331:\n        /* \"#utility.yul\":13949:13960   */\n      0x00\n        /* \"#utility.yul\":13983:13989   */\n      dup3\n        /* \"#utility.yul\":13978:13981   */\n      dup3\n        /* \"#utility.yul\":13971:13990   */\n      mstore\n        /* \"#utility.yul\":14023:14027   */\n      0x20\n        /* \"#utility.yul\":14018:14021   */\n      dup3\n        /* \"#utility.yul\":14014:14028   */\n      add\n        /* \"#utility.yul\":13999:14028   */\n      swap1\n      pop\n        /* \"#utility.yul\":13865:14034   */\n      swap3\n      swap2\n      pop\n      pop\n      jump\t// out\n        /* \"#utility.yul\":14040:14345   */\n    tag_103:\n        /* \"#utility.yul\":14080:14083   */\n      0x00\n        /* \"#utility.yul\":14099:14119   */\n      tag_436\n        /* \"#utility.yul\":14117:14118   */\n      dup3\n        /* \"#utility.yul\":14099:14119   */\n      tag_387\n      jump\t// in\n    tag_436:\n        /* \"#utility.yul\":14094:14119   */\n      swap2\n      pop\n        /* \"#utility.yul\":14133:14153   */\n      tag_437\n        /* \"#utility.yul\":14151:14152   */\n      dup4\n        /* \"#utility.yul\":14133:14153   */\n      tag_387\n      jump\t// in\n    tag_437:\n        /* \"#utility.yul\":14128:14153   */\n      swap3\n      pop\n        /* \"#utility.yul\":14287:14288   */\n      dup3\n        /* \"#utility.yul\":14219:14285   */\n      0xffffffffffffffffffffffffffffffffffffffffffffffffffffffffffffffff\n        /* \"#utility.yul\":14215:14289   */\n      sub\n        /* \"#utility.yul\":14212:14213   */\n      dup3\n        /* \"#utility.yul\":14209:14290   */\n      gt\n        /* \"#utility.yul\":14206:14313   */\n      iszero\n      tag_438\n      jumpi\n        /* \"#utility.yul\":14293:14311   */\n      tag_439\n      tag_440\n      jump\t// in\n    tag_439:\n        /* \"#utility.yul\":14206:14313   */\n    tag_438:\n        /* \"#utility.yul\":14337:14338   */\n      dup3\n        /* \"#utility.yul\":14334:14335   */\n      dup3\n        /* \"#utility.yul\":14330:14339   */\n      add\n        /* \"#utility.yul\":14323:14339   */\n      swap1\n      pop\n        /* \"#utility.yul\":14040:14345   */\n      swap3\n      swap2\n      pop\n      pop\n      jump\t// out\n        /* \"#utility.yul\":14351:14542   */\n    tag_105:\n        /* \"#utility.yul\":14391:14395   */\n      0x00\n        /* \"#utility.yul\":14411:14431   */\n      tag_442\n        /* \"#utility.yul\":14429:14430   */\n      dup3\n        /* \"#utility.yul\":14411:14431   */\n      tag_387\n      jump\t// in\n    tag_442:\n        /* \"#utility.yul\":14406:14431   */\n      swap2\n      pop\n        /* \"#utility.yul\":14445:14465   */\n      tag_443\n        /* \"#utility.yul\":14463:14464   */\n      dup4\n        /* \"#utility.yul\":14445:14465   */\n      tag_387\n      jump\t// in\n    tag_443:\n        /* \"#utility.yul\":14440:14465   */\n      swap3\n      pop\n        /* \"#utility.yul\":14484:14485   */\n      dup3\n        /* \"#utility.yul\":14481:14482   */\n      dup3\n        /* \"#utility.yul\":14478:14486   */\n      lt\n        /* \"#utility.yul\":14475:14509   */\n      iszero\n      tag_444\n      jumpi\n        /* \"#utility.yul\":14489:14507   */\n      tag_445\n      tag_440\n      jump\t// in\n    tag_445:\n        /* \"#utility.yul\":14475:14509   */\n    tag_444:\n        /* \"#utility.yul\":14534:14535   */\n      dup3\n        /* \"#utility.yul\":14531:14532   */\n      dup3\n        /* \"#utility.yul\":14527:14536   */\n      sub\n        /* \"#utility.yul\":14519:14536   */\n      swap1\n      pop\n        /* \"#utility.yul\":14351:14542   */\n      swap3\n      swap2\n      pop\n      pop\n      jump\t// out\n        /* \"#utility.yul\":14548:14644   */\n    tag_446:\n        /* \"#utility.yul\":14585:14592   */\n      0x00\n        /* \"#utility.yul\":14614:14638   */\n      tag_448\n        /* \"#utility.yul\":14632:14637   */\n      dup3\n        /* \"#utility.yul\":14614:14638   */\n      tag_449\n      jump\t// in\n    tag_448:\n        /* \"#utility.yul\":14603:14638   */\n      swap1\n      pop\n        /* \"#utility.yul\":14548:14644   */\n      swap2\n      swap1\n      pop\n      jump\t// out\n        /* \"#utility.yul\":14650:14740   */\n    tag_301:\n        /* \"#utility.yul\":14684:14691   */\n      0x00\n        /* \"#utility.yul\":14727:14732   */\n      dup2\n        /* \"#utility.yul\":14720:14733   */\n      iszero\n        /* \"#utility.yul\":14713:14734   */\n      iszero\n        /* \"#utility.yul\":14702:14734   */\n      swap1\n      pop\n        /* \"#utility.yul\":14650:14740   */\n      swap2\n      swap1\n      pop\n      jump\t// out\n        /* \"#utility.yul\":14746:14823   */\n    tag_306:\n        /* \"#utility.yul\":14783:14790   */\n      0x00\n        /* \"#utility.yul\":14812:14817   */\n      dup2\n        /* \"#utility.yul\":14801:14817   */\n      swap1\n      pop\n        /* \"#utility.yul\":14746:14823   */\n      swap2\n      swap1\n      pop\n      jump\t// out\n        /* \"#utility.yul\":14829:14966   */\n    tag_452:\n        /* \"#utility.yul\":14879:14886   */\n      0x00\n        /* \"#utility.yul\":14908:14913   */\n      dup2\n        /* \"#utility.yul\":14897:14913   */\n      swap1\n      pop\n        /* \"#utility.yul\":14914:14960   */\n      tag_454\n        /* \"#utility.yul\":14954:14959   */\n      dup3\n        /* \"#utility.yul\":14914:14960   */\n      tag_455\n      jump\t// in\n    tag_454:\n        /* \"#utility.yul\":14829:14966   */\n      swap2\n      swap1\n      pop\n      jump\t// out\n        /* \"#utility.yul\":14972:15111   */\n    tag_456:\n        /* \"#utility.yul\":15023:15030   */\n      0x00\n        /* \"#utility.yul\":15052:15057   */\n      dup2\n        /* \"#utility.yul\":15041:15057   */\n      swap1\n      pop\n        /* \"#utility.yul\":15058:15105   */\n      tag_458\n        /* \"#utility.yul\":15099:15104   */\n      dup3\n        /* \"#utility.yul\":15058:15105   */\n      tag_459\n      jump\t// in\n    tag_458:\n        /* \"#utility.yul\":14972:15111   */\n      swap2\n      swap1\n      pop\n      jump\t// out\n        /* \"#utility.yul\":15117:15243   */\n    tag_449:\n        /* \"#utility.yul\":15154:15161   */\n      0x00\n        /* \"#utility.yul\":15194:15236   */\n      0xffffffffffffffffffffffffffffffffffffffff\n        /* \"#utility.yul\":15187:15192   */\n      dup3\n        /* \"#utility.yul\":15183:15237   */\n      and\n        /* \"#utility.yul\":15172:15237   */\n      swap1\n      pop\n        /* \"#utility.yul\":15117:15243   */\n      swap2\n      swap1\n      pop\n      jump\t// out\n        /* \"#utility.yul\":15249:15326   */\n    tag_387:\n        /* \"#utility.yul\":15286:15293   */\n      0x00\n        /* \"#utility.yul\":15315:15320   */\n      dup2\n        /* \"#utility.yul\":15304:15320   */\n      swap1\n      pop\n        /* \"#utility.yul\":15249:15326   */\n      swap2\n      swap1\n      pop\n      jump\t// out\n        /* \"#utility.yul\":15332:15469   */\n    tag_311:\n        /* \"#utility.yul\":15393:15402   */\n      0x00\n        /* \"#utility.yul\":15426:15463   */\n      tag_463\n        /* \"#utility.yul\":15457:15462   */\n      dup3\n        /* \"#utility.yul\":15426:15463   */\n      tag_452\n      jump\t// in\n    tag_463:\n        /* \"#utility.yul\":15413:15463   */\n      swap1\n      pop\n        /* \"#utility.yul\":15332:15469   */\n      swap2\n      swap1\n      pop\n      jump\t// out\n        /* \"#utility.yul\":15475:15614   */\n    tag_315:\n        /* \"#utility.yul\":15537:15546   */\n      0x00\n        /* \"#utility.yul\":15570:15608   */\n      tag_465\n        /* \"#utility.yul\":15602:15607   */\n      dup3\n        /* \"#utility.yul\":15570:15608   */\n      tag_456\n      jump\t// in\n    tag_465:\n        /* \"#utility.yul\":15557:15608   */\n      swap1\n      pop\n        /* \"#utility.yul\":15475:15614   */\n      swap2\n      swap1\n      pop\n      jump\t// out\n        /* \"#utility.yul\":15620:15741   */\n    tag_319:\n        /* \"#utility.yul\":15678:15687   */\n      0x00\n        /* \"#utility.yul\":15711:15735   */\n      tag_467\n        /* \"#utility.yul\":15729:15734   */\n      dup3\n        /* \"#utility.yul\":15711:15735   */\n      tag_387\n      jump\t// in\n    tag_467:\n        /* \"#utility.yul\":15698:15735   */\n      swap1\n      pop\n        /* \"#utility.yul\":15620:15741   */\n      swap2\n      swap1\n      pop\n      jump\t// out\n        /* \"#utility.yul\":15747:15868   */\n    tag_323:\n        /* \"#utility.yul\":15805:15814   */\n      0x00\n        /* \"#utility.yul\":15838:15862   */\n      tag_469\n        /* \"#utility.yul\":15856:15861   */\n      dup3\n        /* \"#utility.yul\":15838:15862   */\n      tag_387\n      jump\t// in\n    tag_469:\n        /* \"#utility.yul\":15825:15862   */\n      swap1\n      pop\n        /* \"#utility.yul\":15747:15868   */\n      swap2\n      swap1\n      pop\n      jump\t// out\n        /* \"#utility.yul\":15874:15995   */\n    tag_327:\n        /* \"#utility.yul\":15932:15941   */\n      0x00\n        /* \"#utility.yul\":15965:15989   */\n      tag_471\n        /* \"#utility.yul\":15983:15988   */\n      dup3\n        /* \"#utility.yul\":15965:15989   */\n      tag_387\n      jump\t// in\n    tag_471:\n        /* \"#utility.yul\":15952:15989   */\n      swap1\n      pop\n        /* \"#utility.yul\":15874:15995   */\n      swap2\n      swap1\n      pop\n      jump\t// out\n        /* \"#utility.yul\":16001:16080   */\n    tag_307:\n        /* \"#utility.yul\":16040:16047   */\n      0x00\n        /* \"#utility.yul\":16069:16074   */\n      dup2\n        /* \"#utility.yul\":16058:16074   */\n      swap1\n      pop\n        /* \"#utility.yul\":16001:16080   */\n      swap2\n      swap1\n      pop\n      jump\t// out\n        /* \"#utility.yul\":16086:16165   */\n    tag_392:\n        /* \"#utility.yul\":16125:16132   */\n      0x00\n        /* \"#utility.yul\":16154:16159   */\n      dup2\n        /* \"#utility.yul\":16143:16159   */\n      swap1\n      pop\n        /* \"#utility.yul\":16086:16165   */\n      swap2\n      swap1\n      pop\n      jump\t// out\n        /* \"#utility.yul\":16171:16347   */\n    tag_107:\n        /* \"#utility.yul\":16203:16204   */\n      0x00\n        /* \"#utility.yul\":16220:16240   */\n      tag_475\n        /* \"#utility.yul\":16238:16239   */\n      dup3\n        /* \"#utility.yul\":16220:16240   */\n      tag_387\n      jump\t// in\n    tag_475:\n        /* \"#utility.yul\":16215:16240   */\n      swap2\n      pop\n        /* \"#utility.yul\":16254:16274   */\n      tag_476\n        /* \"#utility.yul\":16272:16273   */\n      dup4\n        /* \"#utility.yul\":16254:16274   */\n      tag_387\n      jump\t// in\n    tag_476:\n        /* \"#utility.yul\":16249:16274   */\n      swap3\n      pop\n        /* \"#utility.yul\":16293:16294   */\n      dup3\n        /* \"#utility.yul\":16283:16318   */\n      tag_477\n      jumpi\n        /* \"#utility.yul\":16298:16316   */\n      tag_478\n      tag_479\n      jump\t// in\n    tag_478:\n        /* \"#utility.yul\":16283:16318   */\n    tag_477:\n        /* \"#utility.yul\":16339:16340   */\n      dup3\n        /* \"#utility.yul\":16336:16337   */\n      dup3\n        /* \"#utility.yul\":16332:16341   */\n      mod\n        /* \"#utility.yul\":16327:16341   */\n      swap1\n      pop\n        /* \"#utility.yul\":16171:16347   */\n      swap3\n      swap2\n      pop\n      pop\n      jump\t// out\n        /* \"#utility.yul\":16353:16533   */\n    tag_440:\n        /* \"#utility.yul\":16401:16478   */\n      0x4e487b7100000000000000000000000000000000000000000000000000000000\n        /* \"#utility.yul\":16398:16399   */\n      0x00\n        /* \"#utility.yul\":16391:16479   */\n      mstore\n        /* \"#utility.yul\":16498:16502   */\n      0x11\n        /* \"#utility.yul\":16495:16496   */\n      0x04\n        /* \"#utility.yul\":16488:16503   */\n      mstore\n        /* \"#utility.yul\":16522:16526   */\n      0x24\n        /* \"#utility.yul\":16519:16520   */\n      0x00\n        /* \"#utility.yul\":16512:16527   */\n      revert\n        /* \"#utility.yul\":16539:16719   */\n    tag_479:\n        /* \"#utility.yul\":16587:16664   */\n      0x4e487b7100000000000000000000000000000000000000000000000000000000\n        /* \"#utility.yul\":16584:16585   */\n      0x00\n        /* \"#utility.yul\":16577:16665   */\n      mstore\n        /* \"#utility.yul\":16684:16688   */\n      0x12\n        /* \"#utility.yul\":16681:16682   */\n      0x04\n        /* \"#utility.yul\":16674:16689   */\n      mstore\n        /* \"#utility.yul\":16708:16712   */\n      0x24\n        /* \"#utility.yul\":16705:16706   */\n      0x00\n        /* \"#utility.yul\":16698:16713   */\n      revert\n        /* \"#utility.yul\":16725:16905   */\n    tag_86:\n        /* \"#utility.yul\":16773:16850   */\n      0x4e487b7100000000000000000000000000000000000000000000000000000000\n        /* \"#utility.yul\":16770:16771   */\n      0x00\n        /* \"#utility.yul\":16763:16851   */\n      mstore\n        /* \"#utility.yul\":16870:16874   */\n      0x21\n        /* \"#utility.yul\":16867:16868   */\n      0x04\n        /* \"#utility.yul\":16860:16875   */\n      mstore\n        /* \"#utility.yul\":16894:16898   */\n      0x24\n        /* \"#utility.yul\":16891:16892   */\n      0x00\n        /* \"#utility.yul\":16884:16899   */\n      revert\n        /* \"#utility.yul\":17034:17151   */\n    tag_287:\n        /* \"#utility.yul\":17143:17144   */\n      0x00\n        /* \"#utility.yul\":17140:17141   */\n      dup1\n        /* \"#utility.yul\":17133:17145   */\n      revert\n        /* \"#utility.yul\":17157:17329   */\n    tag_333:\n        /* \"#utility.yul\":17297:17321   */\n      0x50726f626c656d20776974682061646472657373657300000000000000000000\n        /* \"#utility.yul\":17293:17294   */\n      0x00\n        /* \"#utility.yul\":17285:17291   */\n      dup3\n        /* \"#utility.yul\":17281:17295   */\n      add\n        /* \"#utility.yul\":17274:17322   */\n      mstore\n        /* \"#utility.yul\":17157:17329   */\n      pop\n      jump\t// out\n        /* \"#utility.yul\":17335:17510   */\n    tag_338:\n        /* \"#utility.yul\":17475:17502   */\n      0x4e6f74207265676973746572656420706c617965722079657400000000000000\n        /* \"#utility.yul\":17471:17472   */\n      0x00\n        /* \"#utility.yul\":17463:17469   */\n      dup3\n        /* \"#utility.yul\":17459:17473   */\n      add\n        /* \"#utility.yul\":17452:17503   */\n      mstore\n        /* \"#utility.yul\":17335:17510   */\n      pop\n      jump\t// out\n        /* \"#utility.yul\":17516:17737   */\n    tag_343:\n        /* \"#utility.yul\":17656:17690   */\n      0x5468697320706c617965722068617320616c7265616479207265676973746572\n        /* \"#utility.yul\":17652:17653   */\n      0x00\n        /* \"#utility.yul\":17644:17650   */\n      dup3\n        /* \"#utility.yul\":17640:17654   */\n      add\n        /* \"#utility.yul\":17633:17691   */\n      mstore\n        /* \"#utility.yul\":17725:17729   */\n      0x6564000000000000000000000000000000000000000000000000000000000000\n        /* \"#utility.yul\":17720:17722   */\n      0x20\n        /* \"#utility.yul\":17712:17718   */\n      dup3\n        /* \"#utility.yul\":17708:17723   */\n      add\n        /* \"#utility.yul\":17701:17730   */\n      mstore\n        /* \"#utility.yul\":17516:17737   */\n      pop\n      jump\t// out\n        /* \"#utility.yul\":17743:17971   */\n    tag_348:\n        /* \"#utility.yul\":17883:17917   */\n      0x4f6e65206f662074686520706c6179657273206f7220626f746820646964206e\n        /* \"#utility.yul\":17879:17880   */\n      0x00\n        /* \"#utility.yul\":17871:17877   */\n      dup3\n        /* \"#utility.yul\":17867:17881   */\n      add\n        /* \"#utility.yul\":17860:17918   */\n      mstore\n        /* \"#utility.yul\":17952:17963   */\n      0x6f7420636f6d6d69740000000000000000000000000000000000000000000000\n        /* \"#utility.yul\":17947:17949   */\n      0x20\n        /* \"#utility.yul\":17939:17945   */\n      dup3\n        /* \"#utility.yul\":17935:17950   */\n      add\n        /* \"#utility.yul\":17928:17964   */\n      mstore\n        /* \"#utility.yul\":17743:17971   */\n      pop\n      jump\t// out\n        /* \"#utility.yul\":17977:18143   */\n    tag_353:\n        /* \"#utility.yul\":18117:18135   */\n      0x496e636f72726563742063686f69636500000000000000000000000000000000\n        /* \"#utility.yul\":18113:18114   */\n      0x00\n        /* \"#utility.yul\":18105:18111   */\n      dup3\n        /* \"#utility.yul\":18101:18115   */\n      add\n        /* \"#utility.yul\":18094:18136   */\n      mstore\n        /* \"#utility.yul\":17977:18143   */\n      pop\n      jump\t// out\n        /* \"#utility.yul\":18149:18381   */\n    tag_358:\n        /* \"#utility.yul\":18289:18323   */\n      0x4f6e65206f662074686520706c6179657273206f7220626f746820646964206e\n        /* \"#utility.yul\":18285:18286   */\n      0x00\n        /* \"#utility.yul\":18277:18283   */\n      dup3\n        /* \"#utility.yul\":18273:18287   */\n      add\n        /* \"#utility.yul\":18266:18324   */\n      mstore\n        /* \"#utility.yul\":18358:18373   */\n      0x6f74207265676973746572656400000000000000000000000000000000000000\n        /* \"#utility.yul\":18353:18355   */\n      0x20\n        /* \"#utility.yul\":18345:18351   */\n      dup3\n        /* \"#utility.yul\":18341:18356   */\n      add\n        /* \"#utility.yul\":18334:18374   */\n      mstore\n        /* \"#utility.yul\":18149:18381   */\n      pop\n      jump\t// out\n        /* \"#utility.yul\":18387:18563   */\n    tag_363:\n        /* \"#utility.yul\":18527:18555   */\n      0x47616d65206861736820776173206e6f742070726f7669646564000000000000\n        /* \"#utility.yul\":18523:18524   */\n      0x00\n        /* \"#utility.yul\":18515:18521   */\n      dup3\n        /* \"#utility.yul\":18511:18525   */\n      add\n        /* \"#utility.yul\":18504:18556   */\n      mstore\n        /* \"#utility.yul\":18387:18563   */\n      pop\n      jump\t// out\n        /* \"#utility.yul\":18569:18736   */\n    tag_368:\n        /* \"#utility.yul\":18709:18728   */\n      0x70726f626c656d20776974682073616c74000000000000000000000000000000\n        /* \"#utility.yul\":18705:18706   */\n      0x00\n        /* \"#utility.yul\":18697:18703   */\n      dup3\n        /* \"#utility.yul\":18693:18707   */\n      add\n        /* \"#utility.yul\":18686:18729   */\n      mstore\n        /* \"#utility.yul\":18569:18736   */\n      pop\n      jump\t// out\n        /* \"#utility.yul\":18742:18963   */\n    tag_373:\n        /* \"#utility.yul\":18882:18916   */\n      0x426574206973206c6f776572207468616e20706f737369626c65206d696e696d\n        /* \"#utility.yul\":18878:18879   */\n      0x00\n        /* \"#utility.yul\":18870:18876   */\n      dup3\n        /* \"#utility.yul\":18866:18880   */\n      add\n        /* \"#utility.yul\":18859:18917   */\n      mstore\n        /* \"#utility.yul\":18951:18955   */\n      0x756d000000000000000000000000000000000000000000000000000000000000\n        /* \"#utility.yul\":18946:18948   */\n      0x20\n        /* \"#utility.yul\":18938:18944   */\n      dup3\n        /* \"#utility.yul\":18934:18949   */\n      add\n        /* \"#utility.yul\":18927:18956   */\n      mstore\n        /* \"#utility.yul\":18742:18963   */\n      pop\n      jump\t// out\n        /* \"#utility.yul\":18969:19204   */\n    tag_378:\n        /* \"#utility.yul\":19109:19143   */\n      0x4f6e6c79206f776e6572206f6620636f6e747261637420697320616c6c6f7765\n        /* \"#utility.yul\":19105:19106   */\n      0x00\n        /* \"#utility.yul\":19097:19103   */\n      dup3\n        /* \"#utility.yul\":19093:19107   */\n      add\n        /* \"#utility.yul\":19086:19144   */\n      mstore\n        /* \"#utility.yul\":19178:19196   */\n      0x6420746f2074686973206d6574686f6400000000000000000000000000000000\n        /* \"#utility.yul\":19173:19175   */\n      0x20\n        /* \"#utility.yul\":19165:19171   */\n      dup3\n        /* \"#utility.yul\":19161:19176   */\n      add\n        /* \"#utility.yul\":19154:19197   */\n      mstore\n        /* \"#utility.yul\":18969:19204   */\n      pop\n      jump\t// out\n        /* \"#utility.yul\":19210:19382   */\n    tag_383:\n        /* \"#utility.yul\":19350:19374   */\n      0x50726f626c656d207769746820746865207374616b6500000000000000000000\n        /* \"#utility.yul\":19346:19347   */\n      0x00\n        /* \"#utility.yul\":19338:19344   */\n      dup3\n        /* \"#utility.yul\":19334:19348   */\n      add\n        /* \"#utility.yul\":19327:19375   */\n      mstore\n        /* \"#utility.yul\":19210:19382   */\n      pop\n      jump\t// out\n        /* \"#utility.yul\":19388:19506   */\n    tag_455:\n        /* \"#utility.yul\":19474:19475   */\n      0x04\n        /* \"#utility.yul\":19467:19472   */\n      dup2\n        /* \"#utility.yul\":19464:19476   */\n      lt\n        /* \"#utility.yul\":19454:19500   */\n      tag_498\n      jumpi\n        /* \"#utility.yul\":19480:19498   */\n      tag_499\n      tag_86\n      jump\t// in\n    tag_499:\n        /* \"#utility.yul\":19454:19500   */\n    tag_498:\n        /* \"#utility.yul\":19388:19506   */\n      pop\n      jump\t// out\n        /* \"#utility.yul\":19512:19631   */\n    tag_459:\n        /* \"#utility.yul\":19599:19600   */\n      0x03\n        /* \"#utility.yul\":19592:19597   */\n      dup2\n        /* \"#utility.yul\":19589:19601   */\n      lt\n        /* \"#utility.yul\":19579:19625   */\n      tag_501\n      jumpi\n        /* \"#utility.yul\":19605:19623   */\n      tag_502\n      tag_86\n      jump\t// in\n    tag_502:\n        /* \"#utility.yul\":19579:19625   */\n    tag_501:\n        /* \"#utility.yul\":19512:19631   */\n      pop\n      jump\t// out\n        /* \"#utility.yul\":19637:19759   */\n    tag_275:\n        /* \"#utility.yul\":19710:19734   */\n      tag_504\n        /* \"#utility.yul\":19728:19733   */\n      dup2\n        /* \"#utility.yul\":19710:19734   */\n      tag_446\n      jump\t// in\n    tag_504:\n        /* \"#utility.yul\":19703:19708   */\n      dup2\n        /* \"#utility.yul\":19700:19735   */\n      eq\n        /* \"#utility.yul\":19690:19753   */\n      tag_505\n      jumpi\n        /* \"#utility.yul\":19749:19750   */\n      0x00\n        /* \"#utility.yul\":19746:19747   */\n      dup1\n        /* \"#utility.yul\":19739:19751   */\n      revert\n        /* \"#utility.yul\":19690:19753   */\n    tag_505:\n        /* \"#utility.yul\":19637:19759   */\n      pop\n      jump\t// out\n        /* \"#utility.yul\":19765:19887   */\n    tag_279:\n        /* \"#utility.yul\":19838:19862   */\n      tag_507\n        /* \"#utility.yul\":19856:19861   */\n      dup2\n        /* \"#utility.yul\":19838:19862   */\n      tag_306\n      jump\t// in\n    tag_507:\n        /* \"#utility.yul\":19831:19836   */\n      dup2\n        /* \"#utility.yul\":19828:19863   */\n      eq\n        /* \"#utility.yul\":19818:19881   */\n      tag_508\n      jumpi\n        /* \"#utility.yul\":19877:19878   */\n      0x00\n        /* \"#utility.yul\":19874:19875   */\n      dup1\n        /* \"#utility.yul\":19867:19879   */\n      revert\n        /* \"#utility.yul\":19818:19881   */\n    tag_508:\n        /* \"#utility.yul\":19765:19887   */\n      pop\n      jump\t// out\n        /* \"#utility.yul\":19893:20015   */\n    tag_283:\n        /* \"#utility.yul\":19966:19990   */\n      tag_510\n        /* \"#utility.yul\":19984:19989   */\n      dup2\n        /* \"#utility.yul\":19966:19990   */\n      tag_387\n      jump\t// in\n    tag_510:\n        /* \"#utility.yul\":19959:19964   */\n      dup2\n        /* \"#utility.yul\":19956:19991   */\n      eq\n        /* \"#utility.yul\":19946:20009   */\n      tag_511\n      jumpi\n        /* \"#utility.yul\":20005:20006   */\n      0x00\n        /* \"#utility.yul\":20002:20003   */\n      dup1\n        /* \"#utility.yul\":19995:20007   */\n      revert\n        /* \"#utility.yul\":19946:20009   */\n    tag_511:\n        /* \"#utility.yul\":19893:20015   */\n      pop\n      jump\t// out\n\n    auxdata: 0xa2646970667358221220b533b84d8933c0ee46811735b73a5485d12b15c694d4294d67fc6cc49ac483c164736f6c63430008070033\n}\n",
				"bytecode": {
					"linkReferences": {},
					"object": "608060405234801561001057600080fd5b5061228b806100206000396000f3fe6080604052600436106100dd5760003560e01c80638c10bb961161007f578063af2d251711610059578063af2d2517146102b9578063c3c5a547146102d0578063d9e257ef1461030d578063e711a81214610317576100dd565b80638c10bb961461021457806392c9048014610251578063a9ea37b61461027c576100dd565b806327793f87116100bb57806327793f87146101685780633a4b66f11461019357806343445ca8146101be5780636f9fb98a146101e9576100dd565b806311b0af15146100e257806315b80df81461010d578063207377961461014a575b600080fd5b3480156100ee57600080fd5b506100f7610354565b6040516101049190611b3c565b60405180910390f35b34801561011957600080fd5b50610134600480360381019061012f9190611828565b610734565b6040516101419190611b06565b60405180910390f35b610152610806565b60405161015f9190611d08565b60405180910390f35b34801561017457600080fd5b5061017d610b7e565b60405161018a9190611b3c565b60405180910390f35b34801561019f57600080fd5b506101a8610b91565b6040516101b59190611d08565b60405180910390f35b3480156101ca57600080fd5b506101d3610b97565b6040516101e09190611b06565b60405180910390f35b3480156101f557600080fd5b506101fe610c15565b60405161020b9190611d08565b60405180910390f35b34801561022057600080fd5b5061023b60048036038101906102369190611882565b610c1d565b6040516102489190611b21565b60405180910390f35b34801561025d57600080fd5b50610266611069565b6040516102739190611b06565b60405180910390f35b34801561028857600080fd5b506102a3600480360381019061029e9190611855565b61108a565b6040516102b09190611b06565b60405180910390f35b3480156102c557600080fd5b506102ce61131f565b005b3480156102dc57600080fd5b506102f760048036038101906102f29190611828565b6113ab565b6040516103049190611b06565b60405180910390f35b61031561145b565b005b34801561032357600080fd5b5061033e60048036038101906103399190611828565b61158f565b60405161034b9190611b06565b60405180910390f35b600080600381111561036957610368611f33565b5b600360019054906101000a900460ff16600381111561038b5761038a611f33565b5b141580156103cd5750600060038111156103a8576103a7611f33565b5b600360029054906101000a900460ff1660038111156103ca576103c9611f33565b5b14155b61040c576040517f08c379a000000000000000000000000000000000000000000000000000000000815260040161040390611c08565b60405180910390fd5b60038060029054906101000a900460ff16600381111561042f5761042e611f33565b5b600360019054906101000a900460ff16600381111561045157610450611f33565b5b600361045d9190611d34565b6104679190611d8a565b6104719190611ea4565b600281111561048357610482611f33565b5b600360006101000a81548160ff021916908360028111156104a7576104a6611f33565b5b0217905550600160028111156104c0576104bf611f33565b5b600360009054906101000a900460ff1660028111156104e2576104e1611f33565b5b14156105545760008054906101000a900473ffffffffffffffffffffffffffffffffffffffff1673ffffffffffffffffffffffffffffffffffffffff166108fc479081150290604051600060405180830381858888f1935050505015801561054e573d6000803e3d6000fd5b506106d1565b60028081111561056757610566611f33565b5b600360009054906101000a900460ff16600281111561058957610588611f33565b5b14156105fd57600160009054906101000a900473ffffffffffffffffffffffffffffffffffffffff1673ffffffffffffffffffffffffffffffffffffffff166108fc479081150290604051600060405180830381858888f193505050501580156105f7573d6000803e3d6000fd5b506106d0565b60008054906101000a900473ffffffffffffffffffffffffffffffffffffffff1673ffffffffffffffffffffffffffffffffffffffff166108fc6002549081150290604051600060405180830381858888f19350505050158015610665573d6000803e3d6000fd5b50600160009054906101000a900473ffffffffffffffffffffffffffffffffffffffff1673ffffffffffffffffffffffffffffffffffffffff166108fc479081150290604051600060405180830381858888f193505050501580156106ce573d6000803e3d6000fd5b505b5b6106d96116bf565b7f6d1a16000380c9adde391bcb46a92c2ce8c46811cff002ed5dec38dfdc2373cd600360009054906101000a900460ff166040516107179190611b3c565b60405180910390a1600360009054906101000a900460ff16905090565b60008173ffffffffffffffffffffffffffffffffffffffff1660008054906101000a900473ffffffffffffffffffffffffffffffffffffffff1673ffffffffffffffffffffffffffffffffffffffff1614801561079657506000801b60045414155b806107ff57508173ffffffffffffffffffffffffffffffffffffffff16600160009054906101000a900473ffffffffffffffffffffffffffffffffffffffff1673ffffffffffffffffffffffffffffffffffffffff161480156107fe57506000801b60055414155b5b9050919050565b60006103e834101561084d576040517f08c379a000000000000000000000000000000000000000000000000000000000815260040161084490611ca8565b60405180910390fd5b6000600254148061086057506002543410155b61089f576040517f08c379a000000000000000000000000000000000000000000000000000000000815260040161089690611ce8565b60405180910390fd5b60008054906101000a900473ffffffffffffffffffffffffffffffffffffffff1673ffffffffffffffffffffffffffffffffffffffff163373ffffffffffffffffffffffffffffffffffffffff16141580156109495750600160009054906101000a900473ffffffffffffffffffffffffffffffffffffffff1673ffffffffffffffffffffffffffffffffffffffff163373ffffffffffffffffffffffffffffffffffffffff1614155b610988576040517f08c379a000000000000000000000000000000000000000000000000000000000815260040161097f90611be8565b60405180910390fd5b600073ffffffffffffffffffffffffffffffffffffffff1660008054906101000a900473ffffffffffffffffffffffffffffffffffffffff1673ffffffffffffffffffffffffffffffffffffffff161415610a6557336000806101000a81548173ffffffffffffffffffffffffffffffffffffffff021916908373ffffffffffffffffffffffffffffffffffffffff160217905550346002819055507f982cddadd143916f714d5e4cdb1fdbf71a3a44c802807791f444525464ad42ad6001604051610a549190611b72565b60405180910390a160019050610b7b565b600073ffffffffffffffffffffffffffffffffffffffff16600160009054906101000a900473ffffffffffffffffffffffffffffffffffffffff1673ffffffffffffffffffffffffffffffffffffffff161415610b3e5733600160006101000a81548173ffffffffffffffffffffffffffffffffffffffff021916908373ffffffffffffffffffffffffffffffffffffffff1602179055507f982cddadd143916f714d5e4cdb1fdbf71a3a44c802807791f444525464ad42ad6002604051610b2d9190611b8d565b60405180910390a160029050610b7b565b7f982cddadd143916f714d5e4cdb1fdbf71a3a44c802807791f444525464ad42ad6000604051610b6e9190611b57565b60405180910390a1600090505b90565b600360009054906101000a900460ff1681565b60025481565b6000806003811115610bac57610bab611f33565b5b600360019054906101000a900460ff166003811115610bce57610bcd611f33565b5b14158015610c10575060006003811115610beb57610bea611f33565b5b600360029054906101000a900460ff166003811115610c0d57610c0c611f33565b5b14155b905090565b600047905090565b60008060009054906101000a900473ffffffffffffffffffffffffffffffffffffffff1673ffffffffffffffffffffffffffffffffffffffff163373ffffffffffffffffffffffffffffffffffffffff161480610cc75750600160009054906101000a900473ffffffffffffffffffffffffffffffffffffffff1673ffffffffffffffffffffffffffffffffffffffff163373ffffffffffffffffffffffffffffffffffffffff16145b610d06576040517f08c379a0000000000000000000000000000000000000000000000000000000008152600401610cfd90611bc8565b60405180910390fd5b8260018110158015610d19575060038111155b610d58576040517f08c379a0000000000000000000000000000000000000000000000000000000008152600401610d4f90611c28565b60405180910390fd5b6000801b60045414158015610d7257506000801b60055414155b610db1576040517f08c379a0000000000000000000000000000000000000000000000000000000008152600401610da890611c48565b60405180910390fd5b3373ffffffffffffffffffffffffffffffffffffffff1660008054906101000a900473ffffffffffffffffffffffffffffffffffffffff1673ffffffffffffffffffffffffffffffffffffffff161415610eeb57610e0f84846117b6565b60045414610e52576040517f08c379a0000000000000000000000000000000000000000000000000000000008152600401610e4990611c88565b60405180910390fd5b836003811115610e6557610e64611f33565b5b600360016101000a81548160ff02191690836003811115610e8957610e88611f33565b5b02179055507f47c7acbd4d57f5dbc1f9e9d1f9e0899016b547afbad29e7a416a892b44898e97600360019054906101000a900460ff16604051610ecc9190611b21565b60405180910390a1600360019054906101000a900460ff169150611062565b3373ffffffffffffffffffffffffffffffffffffffff16600160009054906101000a900473ffffffffffffffffffffffffffffffffffffffff1673ffffffffffffffffffffffffffffffffffffffff16141561102757610f4b84846117b6565b60055414610f8e576040517f08c379a0000000000000000000000000000000000000000000000000000000008152600401610f8590611c88565b60405180910390fd5b836003811115610fa157610fa0611f33565b5b600360026101000a81548160ff02191690836003811115610fc557610fc4611f33565b5b02179055507f47c7acbd4d57f5dbc1f9e9d1f9e0899016b547afbad29e7a416a892b44898e97600360029054906101000a900460ff166040516110089190611b21565b60405180910390a1600360029054906101000a900460ff169150611062565b6040517f08c379a000000000000000000000000000000000000000000000000000000000815260040161105990611ba8565b60405180910390fd5b5092915050565b60008060001b6004541415801561108557506000801b60055414155b905090565b60008060009054906101000a900473ffffffffffffffffffffffffffffffffffffffff1673ffffffffffffffffffffffffffffffffffffffff163373ffffffffffffffffffffffffffffffffffffffff1614806111345750600160009054906101000a900473ffffffffffffffffffffffffffffffffffffffff1673ffffffffffffffffffffffffffffffffffffffff163373ffffffffffffffffffffffffffffffffffffffff16145b611173576040517f08c379a000000000000000000000000000000000000000000000000000000000815260040161116a90611bc8565b60405180910390fd5b8160008114156111b8576040517f08c379a00000000000000000000000000000000000000000000000000000000081526004016111af90611c68565b60405180910390fd5b60008054906101000a900473ffffffffffffffffffffffffffffffffffffffff1673ffffffffffffffffffffffffffffffffffffffff163373ffffffffffffffffffffffffffffffffffffffff1614801561121757506000801b600454145b1561122857826004819055506112dc565b600160009054906101000a900473ffffffffffffffffffffffffffffffffffffffff1673ffffffffffffffffffffffffffffffffffffffff163373ffffffffffffffffffffffffffffffffffffffff1614801561128957506000801b600554145b1561129a57826005819055506112db565b7fd0e0eee22af482d2b75b0facf637b601c155f06c6f143b473711527a01110f8460006040516112ca9190611b06565b60405180910390a160009150611319565b5b7fd0e0eee22af482d2b75b0facf637b601c155f06c6f143b473711527a01110f84600160405161130c9190611b06565b60405180910390a1600191505b50919050565b7391cda83c363a6f72f81a2041836b1e79b4a01ab173ffffffffffffffffffffffffffffffffffffffff163373ffffffffffffffffffffffffffffffffffffffff16146113a1576040517f08c379a000000000000000000000000000000000000000000000000000000000815260040161139890611cc8565b60405180910390fd5b6113a96116bf565b565b60008173ffffffffffffffffffffffffffffffffffffffff1660008054906101000a900473ffffffffffffffffffffffffffffffffffffffff1673ffffffffffffffffffffffffffffffffffffffff16148061145457508173ffffffffffffffffffffffffffffffffffffffff16600160009054906101000a900473ffffffffffffffffffffffffffffffffffffffff1673ffffffffffffffffffffffffffffffffffffffff16145b9050919050565b7391cda83c363a6f72f81a2041836b1e79b4a01ab173ffffffffffffffffffffffffffffffffffffffff163373ffffffffffffffffffffffffffffffffffffffff16146114dd576040517f08c379a00000000000000000000000000000000000000000000000000000000081526004016114d490611cc8565b60405180910390fd5b6103e8341015611522576040517f08c379a000000000000000000000000000000000000000000000000000000000815260040161151990611ca8565b60405180910390fd5b6000600254148061153557506002543410155b611574576040517f08c379a000000000000000000000000000000000000000000000000000000000815260040161156b90611ce8565b60405180910390fd5b34600260008282546115869190611d34565b92505081905550565b60008173ffffffffffffffffffffffffffffffffffffffff1660008054906101000a900473ffffffffffffffffffffffffffffffffffffffff1673ffffffffffffffffffffffffffffffffffffffff161480156116205750600060038111156115fb576115fa611f33565b5b600360019054906101000a900460ff16600381111561161d5761161c611f33565b5b14155b806116b857508173ffffffffffffffffffffffffffffffffffffffff16600160009054906101000a900473ffffffffffffffffffffffffffffffffffffffff1673ffffffffffffffffffffffffffffffffffffffff161480156116b757506000600381111561169257611691611f33565b5b600360029054906101000a900460ff1660038111156116b4576116b3611f33565b5b14155b5b9050919050565b600060028190555060008060006101000a81548173ffffffffffffffffffffffffffffffffffffffff021916908373ffffffffffffffffffffffffffffffffffffffff1602179055506000600160006101000a81548173ffffffffffffffffffffffffffffffffffffffff021916908373ffffffffffffffffffffffffffffffffffffffff1602179055506000801b6004819055506000801b6005819055506000600360016101000a81548160ff0219169083600381111561178457611783611f33565b5b02179055506000600360026101000a81548160ff021916908360038111156117af576117ae611f33565b5b0217905550565b600082826040516020016117cb929190611ada565b60405160208183030381529060405280519060200120905092915050565b6000813590506117f881612210565b92915050565b60008135905061180d81612227565b92915050565b6000813590506118228161223e565b92915050565b60006020828403121561183e5761183d611f62565b5b600061184c848285016117e9565b91505092915050565b60006020828403121561186b5761186a611f62565b5b6000611879848285016117fe565b91505092915050565b6000806040838503121561189957611898611f62565b5b60006118a785828601611813565b92505060206118b8858286016117fe565b9150509250929050565b6118cb81611dd0565b82525050565b6118e26118dd82611ddc565b611e90565b82525050565b6118f181611e36565b82525050565b61190081611e48565b82525050565b61190f81611e5a565b82525050565b61191e81611e6c565b82525050565b61192d81611e7e565b82525050565b6000611940601683611d23565b915061194b82611f67565b602082019050919050565b6000611963601983611d23565b915061196e82611f90565b602082019050919050565b6000611986602283611d23565b915061199182611fb9565b604082019050919050565b60006119a9602983611d23565b91506119b482612008565b604082019050919050565b60006119cc601083611d23565b91506119d782612057565b602082019050919050565b60006119ef602d83611d23565b91506119fa82612080565b604082019050919050565b6000611a12601a83611d23565b9150611a1d826120cf565b602082019050919050565b6000611a35601183611d23565b9150611a40826120f8565b602082019050919050565b6000611a58602283611d23565b9150611a6382612121565b604082019050919050565b6000611a7b603083611d23565b9150611a8682612170565b604082019050919050565b6000611a9e601683611d23565b9150611aa9826121bf565b602082019050919050565b611abd81611e2c565b82525050565b611ad4611acf82611e2c565b611e9a565b82525050565b6000611ae68285611ac3565b602082019150611af682846118d1565b6020820191508190509392505050565b6000602082019050611b1b60008301846118c2565b92915050565b6000602082019050611b3660008301846118e8565b92915050565b6000602082019050611b5160008301846118f7565b92915050565b6000602082019050611b6c6000830184611906565b92915050565b6000602082019050611b876000830184611915565b92915050565b6000602082019050611ba26000830184611924565b92915050565b60006020820190508181036000830152611bc181611933565b9050919050565b60006020820190508181036000830152611be181611956565b9050919050565b60006020820190508181036000830152611c0181611979565b9050919050565b60006020820190508181036000830152611c218161199c565b9050919050565b60006020820190508181036000830152611c41816119bf565b9050919050565b60006020820190508181036000830152611c61816119e2565b9050919050565b60006020820190508181036000830152611c8181611a05565b9050919050565b60006020820190508181036000830152611ca181611a28565b9050919050565b60006020820190508181036000830152611cc181611a4b565b9050919050565b60006020820190508181036000830152611ce181611a6e565b9050919050565b60006020820190508181036000830152611d0181611a91565b9050919050565b6000602082019050611d1d6000830184611ab4565b92915050565b600082825260208201905092915050565b6000611d3f82611e2c565b9150611d4a83611e2c565b9250827fffffffffffffffffffffffffffffffffffffffffffffffffffffffffffffffff03821115611d7f57611d7e611ed5565b5b828201905092915050565b6000611d9582611e2c565b9150611da083611e2c565b925082821015611db357611db2611ed5565b5b828203905092915050565b6000611dc982611e0c565b9050919050565b60008115159050919050565b6000819050919050565b6000819050611df4826121e8565b919050565b6000819050611e07826121fc565b919050565b600073ffffffffffffffffffffffffffffffffffffffff82169050919050565b6000819050919050565b6000611e4182611de6565b9050919050565b6000611e5382611df9565b9050919050565b6000611e6582611e2c565b9050919050565b6000611e7782611e2c565b9050919050565b6000611e8982611e2c565b9050919050565b6000819050919050565b6000819050919050565b6000611eaf82611e2c565b9150611eba83611e2c565b925082611eca57611ec9611f04565b5b828206905092915050565b7f4e487b7100000000000000000000000000000000000000000000000000000000600052601160045260246000fd5b7f4e487b7100000000000000000000000000000000000000000000000000000000600052601260045260246000fd5b7f4e487b7100000000000000000000000000000000000000000000000000000000600052602160045260246000fd5b600080fd5b7f50726f626c656d20776974682061646472657373657300000000000000000000600082015250565b7f4e6f74207265676973746572656420706c617965722079657400000000000000600082015250565b7f5468697320706c617965722068617320616c726561647920726567697374657260008201527f6564000000000000000000000000000000000000000000000000000000000000602082015250565b7f4f6e65206f662074686520706c6179657273206f7220626f746820646964206e60008201527f6f7420636f6d6d69740000000000000000000000000000000000000000000000602082015250565b7f496e636f72726563742063686f69636500000000000000000000000000000000600082015250565b7f4f6e65206f662074686520706c6179657273206f7220626f746820646964206e60008201527f6f74207265676973746572656400000000000000000000000000000000000000602082015250565b7f47616d65206861736820776173206e6f742070726f7669646564000000000000600082015250565b7f70726f626c656d20776974682073616c74000000000000000000000000000000600082015250565b7f426574206973206c6f776572207468616e20706f737369626c65206d696e696d60008201527f756d000000000000000000000000000000000000000000000000000000000000602082015250565b7f4f6e6c79206f776e6572206f6620636f6e747261637420697320616c6c6f776560008201527f6420746f2074686973206d6574686f6400000000000000000000000000000000602082015250565b7f50726f626c656d207769746820746865207374616b6500000000000000000000600082015250565b600481106121f9576121f8611f33565b5b50565b6003811061220d5761220c611f33565b5b50565b61221981611dbe565b811461222457600080fd5b50565b61223081611ddc565b811461223b57600080fd5b50565b61224781611e2c565b811461225257600080fd5b5056fea2646970667358221220b533b84d8933c0ee46811735b73a5485d12b15c694d4294d67fc6cc49ac483c164736f6c63430008070033",
					"opcodes": "PUSH1 0x80 PUSH1 0x40 MSTORE CALLVALUE DUP1 ISZERO PUSH2 0x10 JUMPI PUSH1 0x0 DUP1 REVERT JUMPDEST POP PUSH2 0x228B DUP1 PUSH2 0x20 PUSH1 0x0 CODECOPY PUSH1 0x0 RETURN INVALID PUSH1 0x80 PUSH1 0x40 MSTORE PUSH1 0x4 CALLDATASIZE LT PUSH2 0xDD JUMPI PUSH1 0x0 CALLDATALOAD PUSH1 0xE0 SHR DUP1 PUSH4 0x8C10BB96 GT PUSH2 0x7F JUMPI DUP1 PUSH4 0xAF2D2517 GT PUSH2 0x59 JUMPI DUP1 PUSH4 0xAF2D2517 EQ PUSH2 0x2B9 JUMPI DUP1 PUSH4 0xC3C5A547 EQ PUSH2 0x2D0 JUMPI DUP1 PUSH4 0xD9E257EF EQ PUSH2 0x30D JUMPI DUP1 PUSH4 0xE711A812 EQ PUSH2 0x317 JUMPI PUSH2 0xDD JUMP JUMPDEST DUP1 PUSH4 0x8C10BB96 EQ PUSH2 0x214 JUMPI DUP1 PUSH4 0x92C90480 EQ PUSH2 0x251 JUMPI DUP1 PUSH4 0xA9EA37B6 EQ PUSH2 0x27C JUMPI PUSH2 0xDD JUMP JUMPDEST DUP1 PUSH4 0x27793F87 GT PUSH2 0xBB JUMPI DUP1 PUSH4 0x27793F87 EQ PUSH2 0x168 JUMPI DUP1 PUSH4 0x3A4B66F1 EQ PUSH2 0x193 JUMPI DUP1 PUSH4 0x43445CA8 EQ PUSH2 0x1BE JUMPI DUP1 PUSH4 0x6F9FB98A EQ PUSH2 0x1E9 JUMPI PUSH2 0xDD JUMP JUMPDEST DUP1 PUSH4 0x11B0AF15 EQ PUSH2 0xE2 JUMPI DUP1 PUSH4 0x15B80DF8 EQ PUSH2 0x10D JUMPI DUP1 PUSH4 0x20737796 EQ PUSH2 0x14A JUMPI JUMPDEST PUSH1 0x0 DUP1 REVERT JUMPDEST CALLVALUE DUP1 ISZERO PUSH2 0xEE JUMPI PUSH1 0x0 DUP1 REVERT JUMPDEST POP PUSH2 0xF7 PUSH2 0x354 JUMP JUMPDEST PUSH1 0x40 MLOAD PUSH2 0x104 SWAP2 SWAP1 PUSH2 0x1B3C JUMP JUMPDEST PUSH1 0x40 MLOAD DUP1 SWAP2 SUB SWAP1 RETURN JUMPDEST CALLVALUE DUP1 ISZERO PUSH2 0x119 JUMPI PUSH1 0x0 DUP1 REVERT JUMPDEST POP PUSH2 0x134 PUSH1 0x4 DUP1 CALLDATASIZE SUB DUP2 ADD SWAP1 PUSH2 0x12F SWAP2 SWAP1 PUSH2 0x1828 JUMP JUMPDEST PUSH2 0x734 JUMP JUMPDEST PUSH1 0x40 MLOAD PUSH2 0x141 SWAP2 SWAP1 PUSH2 0x1B06 JUMP JUMPDEST PUSH1 0x40 MLOAD DUP1 SWAP2 SUB SWAP1 RETURN JUMPDEST PUSH2 0x152 PUSH2 0x806 JUMP JUMPDEST PUSH1 0x40 MLOAD PUSH2 0x15F SWAP2 SWAP1 PUSH2 0x1D08 JUMP JUMPDEST PUSH1 0x40 MLOAD DUP1 SWAP2 SUB SWAP1 RETURN JUMPDEST CALLVALUE DUP1 ISZERO PUSH2 0x174 JUMPI PUSH1 0x0 DUP1 REVERT JUMPDEST POP PUSH2 0x17D PUSH2 0xB7E JUMP JUMPDEST PUSH1 0x40 MLOAD PUSH2 0x18A SWAP2 SWAP1 PUSH2 0x1B3C JUMP JUMPDEST PUSH1 0x40 MLOAD DUP1 SWAP2 SUB SWAP1 RETURN JUMPDEST CALLVALUE DUP1 ISZERO PUSH2 0x19F JUMPI PUSH1 0x0 DUP1 REVERT JUMPDEST POP PUSH2 0x1A8 PUSH2 0xB91 JUMP JUMPDEST PUSH1 0x40 MLOAD PUSH2 0x1B5 SWAP2 SWAP1 PUSH2 0x1D08 JUMP JUMPDEST PUSH1 0x40 MLOAD DUP1 SWAP2 SUB SWAP1 RETURN JUMPDEST CALLVALUE DUP1 ISZERO PUSH2 0x1CA JUMPI PUSH1 0x0 DUP1 REVERT JUMPDEST POP PUSH2 0x1D3 PUSH2 0xB97 JUMP JUMPDEST PUSH1 0x40 MLOAD PUSH2 0x1E0 SWAP2 SWAP1 PUSH2 0x1B06 JUMP JUMPDEST PUSH1 0x40 MLOAD DUP1 SWAP2 SUB SWAP1 RETURN JUMPDEST CALLVALUE DUP1 ISZERO PUSH2 0x1F5 JUMPI PUSH1 0x0 DUP1 REVERT JUMPDEST POP PUSH2 0x1FE PUSH2 0xC15 JUMP JUMPDEST PUSH1 0x40 MLOAD PUSH2 0x20B SWAP2 SWAP1 PUSH2 0x1D08 JUMP JUMPDEST PUSH1 0x40 MLOAD DUP1 SWAP2 SUB SWAP1 RETURN JUMPDEST CALLVALUE DUP1 ISZERO PUSH2 0x220 JUMPI PUSH1 0x0 DUP1 REVERT JUMPDEST POP PUSH2 0x23B PUSH1 0x4 DUP1 CALLDATASIZE SUB DUP2 ADD SWAP1 PUSH2 0x236 SWAP2 SWAP1 PUSH2 0x1882 JUMP JUMPDEST PUSH2 0xC1D JUMP JUMPDEST PUSH1 0x40 MLOAD PUSH2 0x248 SWAP2 SWAP1 PUSH2 0x1B21 JUMP JUMPDEST PUSH1 0x40 MLOAD DUP1 SWAP2 SUB SWAP1 RETURN JUMPDEST CALLVALUE DUP1 ISZERO PUSH2 0x25D JUMPI PUSH1 0x0 DUP1 REVERT JUMPDEST POP PUSH2 0x266 PUSH2 0x1069 JUMP JUMPDEST PUSH1 0x40 MLOAD PUSH2 0x273 SWAP2 SWAP1 PUSH2 0x1B06 JUMP JUMPDEST PUSH1 0x40 MLOAD DUP1 SWAP2 SUB SWAP1 RETURN JUMPDEST CALLVALUE DUP1 ISZERO PUSH2 0x288 JUMPI PUSH1 0x0 DUP1 REVERT JUMPDEST POP PUSH2 0x2A3 PUSH1 0x4 DUP1 CALLDATASIZE SUB DUP2 ADD SWAP1 PUSH2 0x29E SWAP2 SWAP1 PUSH2 0x1855 JUMP JUMPDEST PUSH2 0x108A JUMP JUMPDEST PUSH1 0x40 MLOAD PUSH2 0x2B0 SWAP2 SWAP1 PUSH2 0x1B06 JUMP JUMPDEST PUSH1 0x40 MLOAD DUP1 SWAP2 SUB SWAP1 RETURN JUMPDEST CALLVALUE DUP1 ISZERO PUSH2 0x2C5 JUMPI PUSH1 0x0 DUP1 REVERT JUMPDEST POP PUSH2 0x2CE PUSH2 0x131F JUMP JUMPDEST STOP JUMPDEST CALLVALUE DUP1 ISZERO PUSH2 0x2DC JUMPI PUSH1 0x0 DUP1 REVERT JUMPDEST POP PUSH2 0x2F7 PUSH1 0x4 DUP1 CALLDATASIZE SUB DUP2 ADD SWAP1 PUSH2 0x2F2 SWAP2 SWAP1 PUSH2 0x1828 JUMP JUMPDEST PUSH2 0x13AB JUMP JUMPDEST PUSH1 0x40 MLOAD PUSH2 0x304 SWAP2 SWAP1 PUSH2 0x1B06 JUMP JUMPDEST PUSH1 0x40 MLOAD DUP1 SWAP2 SUB SWAP1 RETURN JUMPDEST PUSH2 0x315 PUSH2 0x145B JUMP JUMPDEST STOP JUMPDEST CALLVALUE DUP1 ISZERO PUSH2 0x323 JUMPI PUSH1 0x0 DUP1 REVERT JUMPDEST POP PUSH2 0x33E PUSH1 0x4 DUP1 CALLDATASIZE SUB DUP2 ADD SWAP1 PUSH2 0x339 SWAP2 SWAP1 PUSH2 0x1828 JUMP JUMPDEST PUSH2 0x158F JUMP JUMPDEST PUSH1 0x40 MLOAD PUSH2 0x34B SWAP2 SWAP1 PUSH2 0x1B06 JUMP JUMPDEST PUSH1 0x40 MLOAD DUP1 SWAP2 SUB SWAP1 RETURN JUMPDEST PUSH1 0x0 DUP1 PUSH1 0x3 DUP2 GT ISZERO PUSH2 0x369 JUMPI PUSH2 0x368 PUSH2 0x1F33 JUMP JUMPDEST JUMPDEST PUSH1 0x3 PUSH1 0x1 SWAP1 SLOAD SWAP1 PUSH2 0x100 EXP SWAP1 DIV PUSH1 0xFF AND PUSH1 0x3 DUP2 GT ISZERO PUSH2 0x38B JUMPI PUSH2 0x38A PUSH2 0x1F33 JUMP JUMPDEST JUMPDEST EQ ISZERO DUP1 ISZERO PUSH2 0x3CD JUMPI POP PUSH1 0x0 PUSH1 0x3 DUP2 GT ISZERO PUSH2 0x3A8 JUMPI PUSH2 0x3A7 PUSH2 0x1F33 JUMP JUMPDEST JUMPDEST PUSH1 0x3 PUSH1 0x2 SWAP1 SLOAD SWAP1 PUSH2 0x100 EXP SWAP1 DIV PUSH1 0xFF AND PUSH1 0x3 DUP2 GT ISZERO PUSH2 0x3CA JUMPI PUSH2 0x3C9 PUSH2 0x1F33 JUMP JUMPDEST JUMPDEST EQ ISZERO JUMPDEST PUSH2 0x40C JUMPI PUSH1 0x40 MLOAD PUSH32 0x8C379A000000000000000000000000000000000000000000000000000000000 DUP2 MSTORE PUSH1 0x4 ADD PUSH2 0x403 SWAP1 PUSH2 0x1C08 JUMP JUMPDEST PUSH1 0x40 MLOAD DUP1 SWAP2 SUB SWAP1 REVERT JUMPDEST PUSH1 0x3 DUP1 PUSH1 0x2 SWAP1 SLOAD SWAP1 PUSH2 0x100 EXP SWAP1 DIV PUSH1 0xFF AND PUSH1 0x3 DUP2 GT ISZERO PUSH2 0x42F JUMPI PUSH2 0x42E PUSH2 0x1F33 JUMP JUMPDEST JUMPDEST PUSH1 0x3 PUSH1 0x1 SWAP1 SLOAD SWAP1 PUSH2 0x100 EXP SWAP1 DIV PUSH1 0xFF AND PUSH1 0x3 DUP2 GT ISZERO PUSH2 0x451 JUMPI PUSH2 0x450 PUSH2 0x1F33 JUMP JUMPDEST JUMPDEST PUSH1 0x3 PUSH2 0x45D SWAP2 SWAP1 PUSH2 0x1D34 JUMP JUMPDEST PUSH2 0x467 SWAP2 SWAP1 PUSH2 0x1D8A JUMP JUMPDEST PUSH2 0x471 SWAP2 SWAP1 PUSH2 0x1EA4 JUMP JUMPDEST PUSH1 0x2 DUP2 GT ISZERO PUSH2 0x483 JUMPI PUSH2 0x482 PUSH2 0x1F33 JUMP JUMPDEST JUMPDEST PUSH1 0x3 PUSH1 0x0 PUSH2 0x100 EXP DUP2 SLOAD DUP2 PUSH1 0xFF MUL NOT AND SWAP1 DUP4 PUSH1 0x2 DUP2 GT ISZERO PUSH2 0x4A7 JUMPI PUSH2 0x4A6 PUSH2 0x1F33 JUMP JUMPDEST JUMPDEST MUL OR SWAP1 SSTORE POP PUSH1 0x1 PUSH1 0x2 DUP2 GT ISZERO PUSH2 0x4C0 JUMPI PUSH2 0x4BF PUSH2 0x1F33 JUMP JUMPDEST JUMPDEST PUSH1 0x3 PUSH1 0x0 SWAP1 SLOAD SWAP1 PUSH2 0x100 EXP SWAP1 DIV PUSH1 0xFF AND PUSH1 0x2 DUP2 GT ISZERO PUSH2 0x4E2 JUMPI PUSH2 0x4E1 PUSH2 0x1F33 JUMP JUMPDEST JUMPDEST EQ ISZERO PUSH2 0x554 JUMPI PUSH1 0x0 DUP1 SLOAD SWAP1 PUSH2 0x100 EXP SWAP1 DIV PUSH20 0xFFFFFFFFFFFFFFFFFFFFFFFFFFFFFFFFFFFFFFFF AND PUSH20 0xFFFFFFFFFFFFFFFFFFFFFFFFFFFFFFFFFFFFFFFF AND PUSH2 0x8FC SELFBALANCE SWAP1 DUP2 ISZERO MUL SWAP1 PUSH1 0x40 MLOAD PUSH1 0x0 PUSH1 0x40 MLOAD DUP1 DUP4 SUB DUP2 DUP6 DUP9 DUP9 CALL SWAP4 POP POP POP POP ISZERO DUP1 ISZERO PUSH2 0x54E JUMPI RETURNDATASIZE PUSH1 0x0 DUP1 RETURNDATACOPY RETURNDATASIZE PUSH1 0x0 REVERT JUMPDEST POP PUSH2 0x6D1 JUMP JUMPDEST PUSH1 0x2 DUP1 DUP2 GT ISZERO PUSH2 0x567 JUMPI PUSH2 0x566 PUSH2 0x1F33 JUMP JUMPDEST JUMPDEST PUSH1 0x3 PUSH1 0x0 SWAP1 SLOAD SWAP1 PUSH2 0x100 EXP SWAP1 DIV PUSH1 0xFF AND PUSH1 0x2 DUP2 GT ISZERO PUSH2 0x589 JUMPI PUSH2 0x588 PUSH2 0x1F33 JUMP JUMPDEST JUMPDEST EQ ISZERO PUSH2 0x5FD JUMPI PUSH1 0x1 PUSH1 0x0 SWAP1 SLOAD SWAP1 PUSH2 0x100 EXP SWAP1 DIV PUSH20 0xFFFFFFFFFFFFFFFFFFFFFFFFFFFFFFFFFFFFFFFF AND PUSH20 0xFFFFFFFFFFFFFFFFFFFFFFFFFFFFFFFFFFFFFFFF AND PUSH2 0x8FC SELFBALANCE SWAP1 DUP2 ISZERO MUL SWAP1 PUSH1 0x40 MLOAD PUSH1 0x0 PUSH1 0x40 MLOAD DUP1 DUP4 SUB DUP2 DUP6 DUP9 DUP9 CALL SWAP4 POP POP POP POP ISZERO DUP1 ISZERO PUSH2 0x5F7 JUMPI RETURNDATASIZE PUSH1 0x0 DUP1 RETURNDATACOPY RETURNDATASIZE PUSH1 0x0 REVERT JUMPDEST POP PUSH2 0x6D0 JUMP JUMPDEST PUSH1 0x0 DUP1 SLOAD SWAP1 PUSH2 0x100 EXP SWAP1 DIV PUSH20 0xFFFFFFFFFFFFFFFFFFFFFFFFFFFFFFFFFFFFFFFF AND PUSH20 0xFFFFFFFFFFFFFFFFFFFFFFFFFFFFFFFFFFFFFFFF AND PUSH2 0x8FC PUSH1 0x2 SLOAD SWAP1 DUP2 ISZERO MUL SWAP1 PUSH1 0x40 MLOAD PUSH1 0x0 PUSH1 0x40 MLOAD DUP1 DUP4 SUB DUP2 DUP6 DUP9 DUP9 CALL SWAP4 POP POP POP POP ISZERO DUP1 ISZERO PUSH2 0x665 JUMPI RETURNDATASIZE PUSH1 0x0 DUP1 RETURNDATACOPY RETURNDATASIZE PUSH1 0x0 REVERT JUMPDEST POP PUSH1 0x1 PUSH1 0x0 SWAP1 SLOAD SWAP1 PUSH2 0x100 EXP SWAP1 DIV PUSH20 0xFFFFFFFFFFFFFFFFFFFFFFFFFFFFFFFFFFFFFFFF AND PUSH20 0xFFFFFFFFFFFFFFFFFFFFFFFFFFFFFFFFFFFFFFFF AND PUSH2 0x8FC SELFBALANCE SWAP1 DUP2 ISZERO MUL SWAP1 PUSH1 0x40 MLOAD PUSH1 0x0 PUSH1 0x40 MLOAD DUP1 DUP4 SUB DUP2 DUP6 DUP9 DUP9 CALL SWAP4 POP POP POP POP ISZERO DUP1 ISZERO PUSH2 0x6CE JUMPI RETURNDATASIZE PUSH1 0x0 DUP1 RETURNDATACOPY RETURNDATASIZE PUSH1 0x0 REVERT JUMPDEST POP JUMPDEST JUMPDEST PUSH2 0x6D9 PUSH2 0x16BF JUMP JUMPDEST PUSH32 0x6D1A16000380C9ADDE391BCB46A92C2CE8C46811CFF002ED5DEC38DFDC2373CD PUSH1 0x3 PUSH1 0x0 SWAP1 SLOAD SWAP1 PUSH2 0x100 EXP SWAP1 DIV PUSH1 0xFF AND PUSH1 0x40 MLOAD PUSH2 0x717 SWAP2 SWAP1 PUSH2 0x1B3C JUMP JUMPDEST PUSH1 0x40 MLOAD DUP1 SWAP2 SUB SWAP1 LOG1 PUSH1 0x3 PUSH1 0x0 SWAP1 SLOAD SWAP1 PUSH2 0x100 EXP SWAP1 DIV PUSH1 0xFF AND SWAP1 POP SWAP1 JUMP JUMPDEST PUSH1 0x0 DUP2 PUSH20 0xFFFFFFFFFFFFFFFFFFFFFFFFFFFFFFFFFFFFFFFF AND PUSH1 0x0 DUP1 SLOAD SWAP1 PUSH2 0x100 EXP SWAP1 DIV PUSH20 0xFFFFFFFFFFFFFFFFFFFFFFFFFFFFFFFFFFFFFFFF AND PUSH20 0xFFFFFFFFFFFFFFFFFFFFFFFFFFFFFFFFFFFFFFFF AND EQ DUP1 ISZERO PUSH2 0x796 JUMPI POP PUSH1 0x0 DUP1 SHL PUSH1 0x4 SLOAD EQ ISZERO JUMPDEST DUP1 PUSH2 0x7FF JUMPI POP DUP2 PUSH20 0xFFFFFFFFFFFFFFFFFFFFFFFFFFFFFFFFFFFFFFFF AND PUSH1 0x1 PUSH1 0x0 SWAP1 SLOAD SWAP1 PUSH2 0x100 EXP SWAP1 DIV PUSH20 0xFFFFFFFFFFFFFFFFFFFFFFFFFFFFFFFFFFFFFFFF AND PUSH20 0xFFFFFFFFFFFFFFFFFFFFFFFFFFFFFFFFFFFFFFFF AND EQ DUP1 ISZERO PUSH2 0x7FE JUMPI POP PUSH1 0x0 DUP1 SHL PUSH1 0x5 SLOAD EQ ISZERO JUMPDEST JUMPDEST SWAP1 POP SWAP2 SWAP1 POP JUMP JUMPDEST PUSH1 0x0 PUSH2 0x3E8 CALLVALUE LT ISZERO PUSH2 0x84D JUMPI PUSH1 0x40 MLOAD PUSH32 0x8C379A000000000000000000000000000000000000000000000000000000000 DUP2 MSTORE PUSH1 0x4 ADD PUSH2 0x844 SWAP1 PUSH2 0x1CA8 JUMP JUMPDEST PUSH1 0x40 MLOAD DUP1 SWAP2 SUB SWAP1 REVERT JUMPDEST PUSH1 0x0 PUSH1 0x2 SLOAD EQ DUP1 PUSH2 0x860 JUMPI POP PUSH1 0x2 SLOAD CALLVALUE LT ISZERO JUMPDEST PUSH2 0x89F JUMPI PUSH1 0x40 MLOAD PUSH32 0x8C379A000000000000000000000000000000000000000000000000000000000 DUP2 MSTORE PUSH1 0x4 ADD PUSH2 0x896 SWAP1 PUSH2 0x1CE8 JUMP JUMPDEST PUSH1 0x40 MLOAD DUP1 SWAP2 SUB SWAP1 REVERT JUMPDEST PUSH1 0x0 DUP1 SLOAD SWAP1 PUSH2 0x100 EXP SWAP1 DIV PUSH20 0xFFFFFFFFFFFFFFFFFFFFFFFFFFFFFFFFFFFFFFFF AND PUSH20 0xFFFFFFFFFFFFFFFFFFFFFFFFFFFFFFFFFFFFFFFF AND CALLER PUSH20 0xFFFFFFFFFFFFFFFFFFFFFFFFFFFFFFFFFFFFFFFF AND EQ ISZERO DUP1 ISZERO PUSH2 0x949 JUMPI POP PUSH1 0x1 PUSH1 0x0 SWAP1 SLOAD SWAP1 PUSH2 0x100 EXP SWAP1 DIV PUSH20 0xFFFFFFFFFFFFFFFFFFFFFFFFFFFFFFFFFFFFFFFF AND PUSH20 0xFFFFFFFFFFFFFFFFFFFFFFFFFFFFFFFFFFFFFFFF AND CALLER PUSH20 0xFFFFFFFFFFFFFFFFFFFFFFFFFFFFFFFFFFFFFFFF AND EQ ISZERO JUMPDEST PUSH2 0x988 JUMPI PUSH1 0x40 MLOAD PUSH32 0x8C379A000000000000000000000000000000000000000000000000000000000 DUP2 MSTORE PUSH1 0x4 ADD PUSH2 0x97F SWAP1 PUSH2 0x1BE8 JUMP JUMPDEST PUSH1 0x40 MLOAD DUP1 SWAP2 SUB SWAP1 REVERT JUMPDEST PUSH1 0x0 PUSH20 0xFFFFFFFFFFFFFFFFFFFFFFFFFFFFFFFFFFFFFFFF AND PUSH1 0x0 DUP1 SLOAD SWAP1 PUSH2 0x100 EXP SWAP1 DIV PUSH20 0xFFFFFFFFFFFFFFFFFFFFFFFFFFFFFFFFFFFFFFFF AND PUSH20 0xFFFFFFFFFFFFFFFFFFFFFFFFFFFFFFFFFFFFFFFF AND EQ ISZERO PUSH2 0xA65 JUMPI CALLER PUSH1 0x0 DUP1 PUSH2 0x100 EXP DUP2 SLOAD DUP2 PUSH20 0xFFFFFFFFFFFFFFFFFFFFFFFFFFFFFFFFFFFFFFFF MUL NOT AND SWAP1 DUP4 PUSH20 0xFFFFFFFFFFFFFFFFFFFFFFFFFFFFFFFFFFFFFFFF AND MUL OR SWAP1 SSTORE POP CALLVALUE PUSH1 0x2 DUP2 SWAP1 SSTORE POP PUSH32 0x982CDDADD143916F714D5E4CDB1FDBF71A3A44C802807791F444525464AD42AD PUSH1 0x1 PUSH1 0x40 MLOAD PUSH2 0xA54 SWAP2 SWAP1 PUSH2 0x1B72 JUMP JUMPDEST PUSH1 0x40 MLOAD DUP1 SWAP2 SUB SWAP1 LOG1 PUSH1 0x1 SWAP1 POP PUSH2 0xB7B JUMP JUMPDEST PUSH1 0x0 PUSH20 0xFFFFFFFFFFFFFFFFFFFFFFFFFFFFFFFFFFFFFFFF AND PUSH1 0x1 PUSH1 0x0 SWAP1 SLOAD SWAP1 PUSH2 0x100 EXP SWAP1 DIV PUSH20 0xFFFFFFFFFFFFFFFFFFFFFFFFFFFFFFFFFFFFFFFF AND PUSH20 0xFFFFFFFFFFFFFFFFFFFFFFFFFFFFFFFFFFFFFFFF AND EQ ISZERO PUSH2 0xB3E JUMPI CALLER PUSH1 0x1 PUSH1 0x0 PUSH2 0x100 EXP DUP2 SLOAD DUP2 PUSH20 0xFFFFFFFFFFFFFFFFFFFFFFFFFFFFFFFFFFFFFFFF MUL NOT AND SWAP1 DUP4 PUSH20 0xFFFFFFFFFFFFFFFFFFFFFFFFFFFFFFFFFFFFFFFF AND MUL OR SWAP1 SSTORE POP PUSH32 0x982CDDADD143916F714D5E4CDB1FDBF71A3A44C802807791F444525464AD42AD PUSH1 0x2 PUSH1 0x40 MLOAD PUSH2 0xB2D SWAP2 SWAP1 PUSH2 0x1B8D JUMP JUMPDEST PUSH1 0x40 MLOAD DUP1 SWAP2 SUB SWAP1 LOG1 PUSH1 0x2 SWAP1 POP PUSH2 0xB7B JUMP JUMPDEST PUSH32 0x982CDDADD143916F714D5E4CDB1FDBF71A3A44C802807791F444525464AD42AD PUSH1 0x0 PUSH1 0x40 MLOAD PUSH2 0xB6E SWAP2 SWAP1 PUSH2 0x1B57 JUMP JUMPDEST PUSH1 0x40 MLOAD DUP1 SWAP2 SUB SWAP1 LOG1 PUSH1 0x0 SWAP1 POP JUMPDEST SWAP1 JUMP JUMPDEST PUSH1 0x3 PUSH1 0x0 SWAP1 SLOAD SWAP1 PUSH2 0x100 EXP SWAP1 DIV PUSH1 0xFF AND DUP2 JUMP JUMPDEST PUSH1 0x2 SLOAD DUP2 JUMP JUMPDEST PUSH1 0x0 DUP1 PUSH1 0x3 DUP2 GT ISZERO PUSH2 0xBAC JUMPI PUSH2 0xBAB PUSH2 0x1F33 JUMP JUMPDEST JUMPDEST PUSH1 0x3 PUSH1 0x1 SWAP1 SLOAD SWAP1 PUSH2 0x100 EXP SWAP1 DIV PUSH1 0xFF AND PUSH1 0x3 DUP2 GT ISZERO PUSH2 0xBCE JUMPI PUSH2 0xBCD PUSH2 0x1F33 JUMP JUMPDEST JUMPDEST EQ ISZERO DUP1 ISZERO PUSH2 0xC10 JUMPI POP PUSH1 0x0 PUSH1 0x3 DUP2 GT ISZERO PUSH2 0xBEB JUMPI PUSH2 0xBEA PUSH2 0x1F33 JUMP JUMPDEST JUMPDEST PUSH1 0x3 PUSH1 0x2 SWAP1 SLOAD SWAP1 PUSH2 0x100 EXP SWAP1 DIV PUSH1 0xFF AND PUSH1 0x3 DUP2 GT ISZERO PUSH2 0xC0D JUMPI PUSH2 0xC0C PUSH2 0x1F33 JUMP JUMPDEST JUMPDEST EQ ISZERO JUMPDEST SWAP1 POP SWAP1 JUMP JUMPDEST PUSH1 0x0 SELFBALANCE SWAP1 POP SWAP1 JUMP JUMPDEST PUSH1 0x0 DUP1 PUSH1 0x0 SWAP1 SLOAD SWAP1 PUSH2 0x100 EXP SWAP1 DIV PUSH20 0xFFFFFFFFFFFFFFFFFFFFFFFFFFFFFFFFFFFFFFFF AND PUSH20 0xFFFFFFFFFFFFFFFFFFFFFFFFFFFFFFFFFFFFFFFF AND CALLER PUSH20 0xFFFFFFFFFFFFFFFFFFFFFFFFFFFFFFFFFFFFFFFF AND EQ DUP1 PUSH2 0xCC7 JUMPI POP PUSH1 0x1 PUSH1 0x0 SWAP1 SLOAD SWAP1 PUSH2 0x100 EXP SWAP1 DIV PUSH20 0xFFFFFFFFFFFFFFFFFFFFFFFFFFFFFFFFFFFFFFFF AND PUSH20 0xFFFFFFFFFFFFFFFFFFFFFFFFFFFFFFFFFFFFFFFF AND CALLER PUSH20 0xFFFFFFFFFFFFFFFFFFFFFFFFFFFFFFFFFFFFFFFF AND EQ JUMPDEST PUSH2 0xD06 JUMPI PUSH1 0x40 MLOAD PUSH32 0x8C379A000000000000000000000000000000000000000000000000000000000 DUP2 MSTORE PUSH1 0x4 ADD PUSH2 0xCFD SWAP1 PUSH2 0x1BC8 JUMP JUMPDEST PUSH1 0x40 MLOAD DUP1 SWAP2 SUB SWAP1 REVERT JUMPDEST DUP3 PUSH1 0x1 DUP2 LT ISZERO DUP1 ISZERO PUSH2 0xD19 JUMPI POP PUSH1 0x3 DUP2 GT ISZERO JUMPDEST PUSH2 0xD58 JUMPI PUSH1 0x40 MLOAD PUSH32 0x8C379A000000000000000000000000000000000000000000000000000000000 DUP2 MSTORE PUSH1 0x4 ADD PUSH2 0xD4F SWAP1 PUSH2 0x1C28 JUMP JUMPDEST PUSH1 0x40 MLOAD DUP1 SWAP2 SUB SWAP1 REVERT JUMPDEST PUSH1 0x0 DUP1 SHL PUSH1 0x4 SLOAD EQ ISZERO DUP1 ISZERO PUSH2 0xD72 JUMPI POP PUSH1 0x0 DUP1 SHL PUSH1 0x5 SLOAD EQ ISZERO JUMPDEST PUSH2 0xDB1 JUMPI PUSH1 0x40 MLOAD PUSH32 0x8C379A000000000000000000000000000000000000000000000000000000000 DUP2 MSTORE PUSH1 0x4 ADD PUSH2 0xDA8 SWAP1 PUSH2 0x1C48 JUMP JUMPDEST PUSH1 0x40 MLOAD DUP1 SWAP2 SUB SWAP1 REVERT JUMPDEST CALLER PUSH20 0xFFFFFFFFFFFFFFFFFFFFFFFFFFFFFFFFFFFFFFFF AND PUSH1 0x0 DUP1 SLOAD SWAP1 PUSH2 0x100 EXP SWAP1 DIV PUSH20 0xFFFFFFFFFFFFFFFFFFFFFFFFFFFFFFFFFFFFFFFF AND PUSH20 0xFFFFFFFFFFFFFFFFFFFFFFFFFFFFFFFFFFFFFFFF AND EQ ISZERO PUSH2 0xEEB JUMPI PUSH2 0xE0F DUP5 DUP5 PUSH2 0x17B6 JUMP JUMPDEST PUSH1 0x4 SLOAD EQ PUSH2 0xE52 JUMPI PUSH1 0x40 MLOAD PUSH32 0x8C379A000000000000000000000000000000000000000000000000000000000 DUP2 MSTORE PUSH1 0x4 ADD PUSH2 0xE49 SWAP1 PUSH2 0x1C88 JUMP JUMPDEST PUSH1 0x40 MLOAD DUP1 SWAP2 SUB SWAP1 REVERT JUMPDEST DUP4 PUSH1 0x3 DUP2 GT ISZERO PUSH2 0xE65 JUMPI PUSH2 0xE64 PUSH2 0x1F33 JUMP JUMPDEST JUMPDEST PUSH1 0x3 PUSH1 0x1 PUSH2 0x100 EXP DUP2 SLOAD DUP2 PUSH1 0xFF MUL NOT AND SWAP1 DUP4 PUSH1 0x3 DUP2 GT ISZERO PUSH2 0xE89 JUMPI PUSH2 0xE88 PUSH2 0x1F33 JUMP JUMPDEST JUMPDEST MUL OR SWAP1 SSTORE POP PUSH32 0x47C7ACBD4D57F5DBC1F9E9D1F9E0899016B547AFBAD29E7A416A892B44898E97 PUSH1 0x3 PUSH1 0x1 SWAP1 SLOAD SWAP1 PUSH2 0x100 EXP SWAP1 DIV PUSH1 0xFF AND PUSH1 0x40 MLOAD PUSH2 0xECC SWAP2 SWAP1 PUSH2 0x1B21 JUMP JUMPDEST PUSH1 0x40 MLOAD DUP1 SWAP2 SUB SWAP1 LOG1 PUSH1 0x3 PUSH1 0x1 SWAP1 SLOAD SWAP1 PUSH2 0x100 EXP SWAP1 DIV PUSH1 0xFF AND SWAP2 POP PUSH2 0x1062 JUMP JUMPDEST CALLER PUSH20 0xFFFFFFFFFFFFFFFFFFFFFFFFFFFFFFFFFFFFFFFF AND PUSH1 0x1 PUSH1 0x0 SWAP1 SLOAD SWAP1 PUSH2 0x100 EXP SWAP1 DIV PUSH20 0xFFFFFFFFFFFFFFFFFFFFFFFFFFFFFFFFFFFFFFFF AND PUSH20 0xFFFFFFFFFFFFFFFFFFFFFFFFFFFFFFFFFFFFFFFF AND EQ ISZERO PUSH2 0x1027 JUMPI PUSH2 0xF4B DUP5 DUP5 PUSH2 0x17B6 JUMP JUMPDEST PUSH1 0x5 SLOAD EQ PUSH2 0xF8E JUMPI PUSH1 0x40 MLOAD PUSH32 0x8C379A000000000000000000000000000000000000000000000000000000000 DUP2 MSTORE PUSH1 0x4 ADD PUSH2 0xF85 SWAP1 PUSH2 0x1C88 JUMP JUMPDEST PUSH1 0x40 MLOAD DUP1 SWAP2 SUB SWAP1 REVERT JUMPDEST DUP4 PUSH1 0x3 DUP2 GT ISZERO PUSH2 0xFA1 JUMPI PUSH2 0xFA0 PUSH2 0x1F33 JUMP JUMPDEST JUMPDEST PUSH1 0x3 PUSH1 0x2 PUSH2 0x100 EXP DUP2 SLOAD DUP2 PUSH1 0xFF MUL NOT AND SWAP1 DUP4 PUSH1 0x3 DUP2 GT ISZERO PUSH2 0xFC5 JUMPI PUSH2 0xFC4 PUSH2 0x1F33 JUMP JUMPDEST JUMPDEST MUL OR SWAP1 SSTORE POP PUSH32 0x47C7ACBD4D57F5DBC1F9E9D1F9E0899016B547AFBAD29E7A416A892B44898E97 PUSH1 0x3 PUSH1 0x2 SWAP1 SLOAD SWAP1 PUSH2 0x100 EXP SWAP1 DIV PUSH1 0xFF AND PUSH1 0x40 MLOAD PUSH2 0x1008 SWAP2 SWAP1 PUSH2 0x1B21 JUMP JUMPDEST PUSH1 0x40 MLOAD DUP1 SWAP2 SUB SWAP1 LOG1 PUSH1 0x3 PUSH1 0x2 SWAP1 SLOAD SWAP1 PUSH2 0x100 EXP SWAP1 DIV PUSH1 0xFF AND SWAP2 POP PUSH2 0x1062 JUMP JUMPDEST PUSH1 0x40 MLOAD PUSH32 0x8C379A000000000000000000000000000000000000000000000000000000000 DUP2 MSTORE PUSH1 0x4 ADD PUSH2 0x1059 SWAP1 PUSH2 0x1BA8 JUMP JUMPDEST PUSH1 0x40 MLOAD DUP1 SWAP2 SUB SWAP1 REVERT JUMPDEST POP SWAP3 SWAP2 POP POP JUMP JUMPDEST PUSH1 0x0 DUP1 PUSH1 0x0 SHL PUSH1 0x4 SLOAD EQ ISZERO DUP1 ISZERO PUSH2 0x1085 JUMPI POP PUSH1 0x0 DUP1 SHL PUSH1 0x5 SLOAD EQ ISZERO JUMPDEST SWAP1 POP SWAP1 JUMP JUMPDEST PUSH1 0x0 DUP1 PUSH1 0x0 SWAP1 SLOAD SWAP1 PUSH2 0x100 EXP SWAP1 DIV PUSH20 0xFFFFFFFFFFFFFFFFFFFFFFFFFFFFFFFFFFFFFFFF AND PUSH20 0xFFFFFFFFFFFFFFFFFFFFFFFFFFFFFFFFFFFFFFFF AND CALLER PUSH20 0xFFFFFFFFFFFFFFFFFFFFFFFFFFFFFFFFFFFFFFFF AND EQ DUP1 PUSH2 0x1134 JUMPI POP PUSH1 0x1 PUSH1 0x0 SWAP1 SLOAD SWAP1 PUSH2 0x100 EXP SWAP1 DIV PUSH20 0xFFFFFFFFFFFFFFFFFFFFFFFFFFFFFFFFFFFFFFFF AND PUSH20 0xFFFFFFFFFFFFFFFFFFFFFFFFFFFFFFFFFFFFFFFF AND CALLER PUSH20 0xFFFFFFFFFFFFFFFFFFFFFFFFFFFFFFFFFFFFFFFF AND EQ JUMPDEST PUSH2 0x1173 JUMPI PUSH1 0x40 MLOAD PUSH32 0x8C379A000000000000000000000000000000000000000000000000000000000 DUP2 MSTORE PUSH1 0x4 ADD PUSH2 0x116A SWAP1 PUSH2 0x1BC8 JUMP JUMPDEST PUSH1 0x40 MLOAD DUP1 SWAP2 SUB SWAP1 REVERT JUMPDEST DUP2 PUSH1 0x0 DUP2 EQ ISZERO PUSH2 0x11B8 JUMPI PUSH1 0x40 MLOAD PUSH32 0x8C379A000000000000000000000000000000000000000000000000000000000 DUP2 MSTORE PUSH1 0x4 ADD PUSH2 0x11AF SWAP1 PUSH2 0x1C68 JUMP JUMPDEST PUSH1 0x40 MLOAD DUP1 SWAP2 SUB SWAP1 REVERT JUMPDEST PUSH1 0x0 DUP1 SLOAD SWAP1 PUSH2 0x100 EXP SWAP1 DIV PUSH20 0xFFFFFFFFFFFFFFFFFFFFFFFFFFFFFFFFFFFFFFFF AND PUSH20 0xFFFFFFFFFFFFFFFFFFFFFFFFFFFFFFFFFFFFFFFF AND CALLER PUSH20 0xFFFFFFFFFFFFFFFFFFFFFFFFFFFFFFFFFFFFFFFF AND EQ DUP1 ISZERO PUSH2 0x1217 JUMPI POP PUSH1 0x0 DUP1 SHL PUSH1 0x4 SLOAD EQ JUMPDEST ISZERO PUSH2 0x1228 JUMPI DUP3 PUSH1 0x4 DUP2 SWAP1 SSTORE POP PUSH2 0x12DC JUMP JUMPDEST PUSH1 0x1 PUSH1 0x0 SWAP1 SLOAD SWAP1 PUSH2 0x100 EXP SWAP1 DIV PUSH20 0xFFFFFFFFFFFFFFFFFFFFFFFFFFFFFFFFFFFFFFFF AND PUSH20 0xFFFFFFFFFFFFFFFFFFFFFFFFFFFFFFFFFFFFFFFF AND CALLER PUSH20 0xFFFFFFFFFFFFFFFFFFFFFFFFFFFFFFFFFFFFFFFF AND EQ DUP1 ISZERO PUSH2 0x1289 JUMPI POP PUSH1 0x0 DUP1 SHL PUSH1 0x5 SLOAD EQ JUMPDEST ISZERO PUSH2 0x129A JUMPI DUP3 PUSH1 0x5 DUP2 SWAP1 SSTORE POP PUSH2 0x12DB JUMP JUMPDEST PUSH32 0xD0E0EEE22AF482D2B75B0FACF637B601C155F06C6F143B473711527A01110F84 PUSH1 0x0 PUSH1 0x40 MLOAD PUSH2 0x12CA SWAP2 SWAP1 PUSH2 0x1B06 JUMP JUMPDEST PUSH1 0x40 MLOAD DUP1 SWAP2 SUB SWAP1 LOG1 PUSH1 0x0 SWAP2 POP PUSH2 0x1319 JUMP JUMPDEST JUMPDEST PUSH32 0xD0E0EEE22AF482D2B75B0FACF637B601C155F06C6F143B473711527A01110F84 PUSH1 0x1 PUSH1 0x40 MLOAD PUSH2 0x130C SWAP2 SWAP1 PUSH2 0x1B06 JUMP JUMPDEST PUSH1 0x40 MLOAD DUP1 SWAP2 SUB SWAP1 LOG1 PUSH1 0x1 SWAP2 POP JUMPDEST POP SWAP2 SWAP1 POP JUMP JUMPDEST PUSH20 0x91CDA83C363A6F72F81A2041836B1E79B4A01AB1 PUSH20 0xFFFFFFFFFFFFFFFFFFFFFFFFFFFFFFFFFFFFFFFF AND CALLER PUSH20 0xFFFFFFFFFFFFFFFFFFFFFFFFFFFFFFFFFFFFFFFF AND EQ PUSH2 0x13A1 JUMPI PUSH1 0x40 MLOAD PUSH32 0x8C379A000000000000000000000000000000000000000000000000000000000 DUP2 MSTORE PUSH1 0x4 ADD PUSH2 0x1398 SWAP1 PUSH2 0x1CC8 JUMP JUMPDEST PUSH1 0x40 MLOAD DUP1 SWAP2 SUB SWAP1 REVERT JUMPDEST PUSH2 0x13A9 PUSH2 0x16BF JUMP JUMPDEST JUMP JUMPDEST PUSH1 0x0 DUP2 PUSH20 0xFFFFFFFFFFFFFFFFFFFFFFFFFFFFFFFFFFFFFFFF AND PUSH1 0x0 DUP1 SLOAD SWAP1 PUSH2 0x100 EXP SWAP1 DIV PUSH20 0xFFFFFFFFFFFFFFFFFFFFFFFFFFFFFFFFFFFFFFFF AND PUSH20 0xFFFFFFFFFFFFFFFFFFFFFFFFFFFFFFFFFFFFFFFF AND EQ DUP1 PUSH2 0x1454 JUMPI POP DUP2 PUSH20 0xFFFFFFFFFFFFFFFFFFFFFFFFFFFFFFFFFFFFFFFF AND PUSH1 0x1 PUSH1 0x0 SWAP1 SLOAD SWAP1 PUSH2 0x100 EXP SWAP1 DIV PUSH20 0xFFFFFFFFFFFFFFFFFFFFFFFFFFFFFFFFFFFFFFFF AND PUSH20 0xFFFFFFFFFFFFFFFFFFFFFFFFFFFFFFFFFFFFFFFF AND EQ JUMPDEST SWAP1 POP SWAP2 SWAP1 POP JUMP JUMPDEST PUSH20 0x91CDA83C363A6F72F81A2041836B1E79B4A01AB1 PUSH20 0xFFFFFFFFFFFFFFFFFFFFFFFFFFFFFFFFFFFFFFFF AND CALLER PUSH20 0xFFFFFFFFFFFFFFFFFFFFFFFFFFFFFFFFFFFFFFFF AND EQ PUSH2 0x14DD JUMPI PUSH1 0x40 MLOAD PUSH32 0x8C379A000000000000000000000000000000000000000000000000000000000 DUP2 MSTORE PUSH1 0x4 ADD PUSH2 0x14D4 SWAP1 PUSH2 0x1CC8 JUMP JUMPDEST PUSH1 0x40 MLOAD DUP1 SWAP2 SUB SWAP1 REVERT JUMPDEST PUSH2 0x3E8 CALLVALUE LT ISZERO PUSH2 0x1522 JUMPI PUSH1 0x40 MLOAD PUSH32 0x8C379A000000000000000000000000000000000000000000000000000000000 DUP2 MSTORE PUSH1 0x4 ADD PUSH2 0x1519 SWAP1 PUSH2 0x1CA8 JUMP JUMPDEST PUSH1 0x40 MLOAD DUP1 SWAP2 SUB SWAP1 REVERT JUMPDEST PUSH1 0x0 PUSH1 0x2 SLOAD EQ DUP1 PUSH2 0x1535 JUMPI POP PUSH1 0x2 SLOAD CALLVALUE LT ISZERO JUMPDEST PUSH2 0x1574 JUMPI PUSH1 0x40 MLOAD PUSH32 0x8C379A000000000000000000000000000000000000000000000000000000000 DUP2 MSTORE PUSH1 0x4 ADD PUSH2 0x156B SWAP1 PUSH2 0x1CE8 JUMP JUMPDEST PUSH1 0x40 MLOAD DUP1 SWAP2 SUB SWAP1 REVERT JUMPDEST CALLVALUE PUSH1 0x2 PUSH1 0x0 DUP3 DUP3 SLOAD PUSH2 0x1586 SWAP2 SWAP1 PUSH2 0x1D34 JUMP JUMPDEST SWAP3 POP POP DUP2 SWAP1 SSTORE POP JUMP JUMPDEST PUSH1 0x0 DUP2 PUSH20 0xFFFFFFFFFFFFFFFFFFFFFFFFFFFFFFFFFFFFFFFF AND PUSH1 0x0 DUP1 SLOAD SWAP1 PUSH2 0x100 EXP SWAP1 DIV PUSH20 0xFFFFFFFFFFFFFFFFFFFFFFFFFFFFFFFFFFFFFFFF AND PUSH20 0xFFFFFFFFFFFFFFFFFFFFFFFFFFFFFFFFFFFFFFFF AND EQ DUP1 ISZERO PUSH2 0x1620 JUMPI POP PUSH1 0x0 PUSH1 0x3 DUP2 GT ISZERO PUSH2 0x15FB JUMPI PUSH2 0x15FA PUSH2 0x1F33 JUMP JUMPDEST JUMPDEST PUSH1 0x3 PUSH1 0x1 SWAP1 SLOAD SWAP1 PUSH2 0x100 EXP SWAP1 DIV PUSH1 0xFF AND PUSH1 0x3 DUP2 GT ISZERO PUSH2 0x161D JUMPI PUSH2 0x161C PUSH2 0x1F33 JUMP JUMPDEST JUMPDEST EQ ISZERO JUMPDEST DUP1 PUSH2 0x16B8 JUMPI POP DUP2 PUSH20 0xFFFFFFFFFFFFFFFFFFFFFFFFFFFFFFFFFFFFFFFF AND PUSH1 0x1 PUSH1 0x0 SWAP1 SLOAD SWAP1 PUSH2 0x100 EXP SWAP1 DIV PUSH20 0xFFFFFFFFFFFFFFFFFFFFFFFFFFFFFFFFFFFFFFFF AND PUSH20 0xFFFFFFFFFFFFFFFFFFFFFFFFFFFFFFFFFFFFFFFF AND EQ DUP1 ISZERO PUSH2 0x16B7 JUMPI POP PUSH1 0x0 PUSH1 0x3 DUP2 GT ISZERO PUSH2 0x1692 JUMPI PUSH2 0x1691 PUSH2 0x1F33 JUMP JUMPDEST JUMPDEST PUSH1 0x3 PUSH1 0x2 SWAP1 SLOAD SWAP1 PUSH2 0x100 EXP SWAP1 DIV PUSH1 0xFF AND PUSH1 0x3 DUP2 GT ISZERO PUSH2 0x16B4 JUMPI PUSH2 0x16B3 PUSH2 0x1F33 JUMP JUMPDEST JUMPDEST EQ ISZERO JUMPDEST JUMPDEST SWAP1 POP SWAP2 SWAP1 POP JUMP JUMPDEST PUSH1 0x0 PUSH1 0x2 DUP2 SWAP1 SSTORE POP PUSH1 0x0 DUP1 PUSH1 0x0 PUSH2 0x100 EXP DUP2 SLOAD DUP2 PUSH20 0xFFFFFFFFFFFFFFFFFFFFFFFFFFFFFFFFFFFFFFFF MUL NOT AND SWAP1 DUP4 PUSH20 0xFFFFFFFFFFFFFFFFFFFFFFFFFFFFFFFFFFFFFFFF AND MUL OR SWAP1 SSTORE POP PUSH1 0x0 PUSH1 0x1 PUSH1 0x0 PUSH2 0x100 EXP DUP2 SLOAD DUP2 PUSH20 0xFFFFFFFFFFFFFFFFFFFFFFFFFFFFFFFFFFFFFFFF MUL NOT AND SWAP1 DUP4 PUSH20 0xFFFFFFFFFFFFFFFFFFFFFFFFFFFFFFFFFFFFFFFF AND MUL OR SWAP1 SSTORE POP PUSH1 0x0 DUP1 SHL PUSH1 0x4 DUP2 SWAP1 SSTORE POP PUSH1 0x0 DUP1 SHL PUSH1 0x5 DUP2 SWAP1 SSTORE POP PUSH1 0x0 PUSH1 0x3 PUSH1 0x1 PUSH2 0x100 EXP DUP2 SLOAD DUP2 PUSH1 0xFF MUL NOT AND SWAP1 DUP4 PUSH1 0x3 DUP2 GT ISZERO PUSH2 0x1784 JUMPI PUSH2 0x1783 PUSH2 0x1F33 JUMP JUMPDEST JUMPDEST MUL OR SWAP1 SSTORE POP PUSH1 0x0 PUSH1 0x3 PUSH1 0x2 PUSH2 0x100 EXP DUP2 SLOAD DUP2 PUSH1 0xFF MUL NOT AND SWAP1 DUP4 PUSH1 0x3 DUP2 GT ISZERO PUSH2 0x17AF JUMPI PUSH2 0x17AE PUSH2 0x1F33 JUMP JUMPDEST JUMPDEST MUL OR SWAP1 SSTORE POP JUMP JUMPDEST PUSH1 0x0 DUP3 DUP3 PUSH1 0x40 MLOAD PUSH1 0x20 ADD PUSH2 0x17CB SWAP3 SWAP2 SWAP1 PUSH2 0x1ADA JUMP JUMPDEST PUSH1 0x40 MLOAD PUSH1 0x20 DUP2 DUP4 SUB SUB DUP2 MSTORE SWAP1 PUSH1 0x40 MSTORE DUP1 MLOAD SWAP1 PUSH1 0x20 ADD KECCAK256 SWAP1 POP SWAP3 SWAP2 POP POP JUMP JUMPDEST PUSH1 0x0 DUP2 CALLDATALOAD SWAP1 POP PUSH2 0x17F8 DUP2 PUSH2 0x2210 JUMP JUMPDEST SWAP3 SWAP2 POP POP JUMP JUMPDEST PUSH1 0x0 DUP2 CALLDATALOAD SWAP1 POP PUSH2 0x180D DUP2 PUSH2 0x2227 JUMP JUMPDEST SWAP3 SWAP2 POP POP JUMP JUMPDEST PUSH1 0x0 DUP2 CALLDATALOAD SWAP1 POP PUSH2 0x1822 DUP2 PUSH2 0x223E JUMP JUMPDEST SWAP3 SWAP2 POP POP JUMP JUMPDEST PUSH1 0x0 PUSH1 0x20 DUP3 DUP5 SUB SLT ISZERO PUSH2 0x183E JUMPI PUSH2 0x183D PUSH2 0x1F62 JUMP JUMPDEST JUMPDEST PUSH1 0x0 PUSH2 0x184C DUP5 DUP3 DUP6 ADD PUSH2 0x17E9 JUMP JUMPDEST SWAP2 POP POP SWAP3 SWAP2 POP POP JUMP JUMPDEST PUSH1 0x0 PUSH1 0x20 DUP3 DUP5 SUB SLT ISZERO PUSH2 0x186B JUMPI PUSH2 0x186A PUSH2 0x1F62 JUMP JUMPDEST JUMPDEST PUSH1 0x0 PUSH2 0x1879 DUP5 DUP3 DUP6 ADD PUSH2 0x17FE JUMP JUMPDEST SWAP2 POP POP SWAP3 SWAP2 POP POP JUMP JUMPDEST PUSH1 0x0 DUP1 PUSH1 0x40 DUP4 DUP6 SUB SLT ISZERO PUSH2 0x1899 JUMPI PUSH2 0x1898 PUSH2 0x1F62 JUMP JUMPDEST JUMPDEST PUSH1 0x0 PUSH2 0x18A7 DUP6 DUP3 DUP7 ADD PUSH2 0x1813 JUMP JUMPDEST SWAP3 POP POP PUSH1 0x20 PUSH2 0x18B8 DUP6 DUP3 DUP7 ADD PUSH2 0x17FE JUMP JUMPDEST SWAP2 POP POP SWAP3 POP SWAP3 SWAP1 POP JUMP JUMPDEST PUSH2 0x18CB DUP2 PUSH2 0x1DD0 JUMP JUMPDEST DUP3 MSTORE POP POP JUMP JUMPDEST PUSH2 0x18E2 PUSH2 0x18DD DUP3 PUSH2 0x1DDC JUMP JUMPDEST PUSH2 0x1E90 JUMP JUMPDEST DUP3 MSTORE POP POP JUMP JUMPDEST PUSH2 0x18F1 DUP2 PUSH2 0x1E36 JUMP JUMPDEST DUP3 MSTORE POP POP JUMP JUMPDEST PUSH2 0x1900 DUP2 PUSH2 0x1E48 JUMP JUMPDEST DUP3 MSTORE POP POP JUMP JUMPDEST PUSH2 0x190F DUP2 PUSH2 0x1E5A JUMP JUMPDEST DUP3 MSTORE POP POP JUMP JUMPDEST PUSH2 0x191E DUP2 PUSH2 0x1E6C JUMP JUMPDEST DUP3 MSTORE POP POP JUMP JUMPDEST PUSH2 0x192D DUP2 PUSH2 0x1E7E JUMP JUMPDEST DUP3 MSTORE POP POP JUMP JUMPDEST PUSH1 0x0 PUSH2 0x1940 PUSH1 0x16 DUP4 PUSH2 0x1D23 JUMP JUMPDEST SWAP2 POP PUSH2 0x194B DUP3 PUSH2 0x1F67 JUMP JUMPDEST PUSH1 0x20 DUP3 ADD SWAP1 POP SWAP2 SWAP1 POP JUMP JUMPDEST PUSH1 0x0 PUSH2 0x1963 PUSH1 0x19 DUP4 PUSH2 0x1D23 JUMP JUMPDEST SWAP2 POP PUSH2 0x196E DUP3 PUSH2 0x1F90 JUMP JUMPDEST PUSH1 0x20 DUP3 ADD SWAP1 POP SWAP2 SWAP1 POP JUMP JUMPDEST PUSH1 0x0 PUSH2 0x1986 PUSH1 0x22 DUP4 PUSH2 0x1D23 JUMP JUMPDEST SWAP2 POP PUSH2 0x1991 DUP3 PUSH2 0x1FB9 JUMP JUMPDEST PUSH1 0x40 DUP3 ADD SWAP1 POP SWAP2 SWAP1 POP JUMP JUMPDEST PUSH1 0x0 PUSH2 0x19A9 PUSH1 0x29 DUP4 PUSH2 0x1D23 JUMP JUMPDEST SWAP2 POP PUSH2 0x19B4 DUP3 PUSH2 0x2008 JUMP JUMPDEST PUSH1 0x40 DUP3 ADD SWAP1 POP SWAP2 SWAP1 POP JUMP JUMPDEST PUSH1 0x0 PUSH2 0x19CC PUSH1 0x10 DUP4 PUSH2 0x1D23 JUMP JUMPDEST SWAP2 POP PUSH2 0x19D7 DUP3 PUSH2 0x2057 JUMP JUMPDEST PUSH1 0x20 DUP3 ADD SWAP1 POP SWAP2 SWAP1 POP JUMP JUMPDEST PUSH1 0x0 PUSH2 0x19EF PUSH1 0x2D DUP4 PUSH2 0x1D23 JUMP JUMPDEST SWAP2 POP PUSH2 0x19FA DUP3 PUSH2 0x2080 JUMP JUMPDEST PUSH1 0x40 DUP3 ADD SWAP1 POP SWAP2 SWAP1 POP JUMP JUMPDEST PUSH1 0x0 PUSH2 0x1A12 PUSH1 0x1A DUP4 PUSH2 0x1D23 JUMP JUMPDEST SWAP2 POP PUSH2 0x1A1D DUP3 PUSH2 0x20CF JUMP JUMPDEST PUSH1 0x20 DUP3 ADD SWAP1 POP SWAP2 SWAP1 POP JUMP JUMPDEST PUSH1 0x0 PUSH2 0x1A35 PUSH1 0x11 DUP4 PUSH2 0x1D23 JUMP JUMPDEST SWAP2 POP PUSH2 0x1A40 DUP3 PUSH2 0x20F8 JUMP JUMPDEST PUSH1 0x20 DUP3 ADD SWAP1 POP SWAP2 SWAP1 POP JUMP JUMPDEST PUSH1 0x0 PUSH2 0x1A58 PUSH1 0x22 DUP4 PUSH2 0x1D23 JUMP JUMPDEST SWAP2 POP PUSH2 0x1A63 DUP3 PUSH2 0x2121 JUMP JUMPDEST PUSH1 0x40 DUP3 ADD SWAP1 POP SWAP2 SWAP1 POP JUMP JUMPDEST PUSH1 0x0 PUSH2 0x1A7B PUSH1 0x30 DUP4 PUSH2 0x1D23 JUMP JUMPDEST SWAP2 POP PUSH2 0x1A86 DUP3 PUSH2 0x2170 JUMP JUMPDEST PUSH1 0x40 DUP3 ADD SWAP1 POP SWAP2 SWAP1 POP JUMP JUMPDEST PUSH1 0x0 PUSH2 0x1A9E PUSH1 0x16 DUP4 PUSH2 0x1D23 JUMP JUMPDEST SWAP2 POP PUSH2 0x1AA9 DUP3 PUSH2 0x21BF JUMP JUMPDEST PUSH1 0x20 DUP3 ADD SWAP1 POP SWAP2 SWAP1 POP JUMP JUMPDEST PUSH2 0x1ABD DUP2 PUSH2 0x1E2C JUMP JUMPDEST DUP3 MSTORE POP POP JUMP JUMPDEST PUSH2 0x1AD4 PUSH2 0x1ACF DUP3 PUSH2 0x1E2C JUMP JUMPDEST PUSH2 0x1E9A JUMP JUMPDEST DUP3 MSTORE POP POP JUMP JUMPDEST PUSH1 0x0 PUSH2 0x1AE6 DUP3 DUP6 PUSH2 0x1AC3 JUMP JUMPDEST PUSH1 0x20 DUP3 ADD SWAP2 POP PUSH2 0x1AF6 DUP3 DUP5 PUSH2 0x18D1 JUMP JUMPDEST PUSH1 0x20 DUP3 ADD SWAP2 POP DUP2 SWAP1 POP SWAP4 SWAP3 POP POP POP JUMP JUMPDEST PUSH1 0x0 PUSH1 0x20 DUP3 ADD SWAP1 POP PUSH2 0x1B1B PUSH1 0x0 DUP4 ADD DUP5 PUSH2 0x18C2 JUMP JUMPDEST SWAP3 SWAP2 POP POP JUMP JUMPDEST PUSH1 0x0 PUSH1 0x20 DUP3 ADD SWAP1 POP PUSH2 0x1B36 PUSH1 0x0 DUP4 ADD DUP5 PUSH2 0x18E8 JUMP JUMPDEST SWAP3 SWAP2 POP POP JUMP JUMPDEST PUSH1 0x0 PUSH1 0x20 DUP3 ADD SWAP1 POP PUSH2 0x1B51 PUSH1 0x0 DUP4 ADD DUP5 PUSH2 0x18F7 JUMP JUMPDEST SWAP3 SWAP2 POP POP JUMP JUMPDEST PUSH1 0x0 PUSH1 0x20 DUP3 ADD SWAP1 POP PUSH2 0x1B6C PUSH1 0x0 DUP4 ADD DUP5 PUSH2 0x1906 JUMP JUMPDEST SWAP3 SWAP2 POP POP JUMP JUMPDEST PUSH1 0x0 PUSH1 0x20 DUP3 ADD SWAP1 POP PUSH2 0x1B87 PUSH1 0x0 DUP4 ADD DUP5 PUSH2 0x1915 JUMP JUMPDEST SWAP3 SWAP2 POP POP JUMP JUMPDEST PUSH1 0x0 PUSH1 0x20 DUP3 ADD SWAP1 POP PUSH2 0x1BA2 PUSH1 0x0 DUP4 ADD DUP5 PUSH2 0x1924 JUMP JUMPDEST SWAP3 SWAP2 POP POP JUMP JUMPDEST PUSH1 0x0 PUSH1 0x20 DUP3 ADD SWAP1 POP DUP2 DUP2 SUB PUSH1 0x0 DUP4 ADD MSTORE PUSH2 0x1BC1 DUP2 PUSH2 0x1933 JUMP JUMPDEST SWAP1 POP SWAP2 SWAP1 POP JUMP JUMPDEST PUSH1 0x0 PUSH1 0x20 DUP3 ADD SWAP1 POP DUP2 DUP2 SUB PUSH1 0x0 DUP4 ADD MSTORE PUSH2 0x1BE1 DUP2 PUSH2 0x1956 JUMP JUMPDEST SWAP1 POP SWAP2 SWAP1 POP JUMP JUMPDEST PUSH1 0x0 PUSH1 0x20 DUP3 ADD SWAP1 POP DUP2 DUP2 SUB PUSH1 0x0 DUP4 ADD MSTORE PUSH2 0x1C01 DUP2 PUSH2 0x1979 JUMP JUMPDEST SWAP1 POP SWAP2 SWAP1 POP JUMP JUMPDEST PUSH1 0x0 PUSH1 0x20 DUP3 ADD SWAP1 POP DUP2 DUP2 SUB PUSH1 0x0 DUP4 ADD MSTORE PUSH2 0x1C21 DUP2 PUSH2 0x199C JUMP JUMPDEST SWAP1 POP SWAP2 SWAP1 POP JUMP JUMPDEST PUSH1 0x0 PUSH1 0x20 DUP3 ADD SWAP1 POP DUP2 DUP2 SUB PUSH1 0x0 DUP4 ADD MSTORE PUSH2 0x1C41 DUP2 PUSH2 0x19BF JUMP JUMPDEST SWAP1 POP SWAP2 SWAP1 POP JUMP JUMPDEST PUSH1 0x0 PUSH1 0x20 DUP3 ADD SWAP1 POP DUP2 DUP2 SUB PUSH1 0x0 DUP4 ADD MSTORE PUSH2 0x1C61 DUP2 PUSH2 0x19E2 JUMP JUMPDEST SWAP1 POP SWAP2 SWAP1 POP JUMP JUMPDEST PUSH1 0x0 PUSH1 0x20 DUP3 ADD SWAP1 POP DUP2 DUP2 SUB PUSH1 0x0 DUP4 ADD MSTORE PUSH2 0x1C81 DUP2 PUSH2 0x1A05 JUMP JUMPDEST SWAP1 POP SWAP2 SWAP1 POP JUMP JUMPDEST PUSH1 0x0 PUSH1 0x20 DUP3 ADD SWAP1 POP DUP2 DUP2 SUB PUSH1 0x0 DUP4 ADD MSTORE PUSH2 0x1CA1 DUP2 PUSH2 0x1A28 JUMP JUMPDEST SWAP1 POP SWAP2 SWAP1 POP JUMP JUMPDEST PUSH1 0x0 PUSH1 0x20 DUP3 ADD SWAP1 POP DUP2 DUP2 SUB PUSH1 0x0 DUP4 ADD MSTORE PUSH2 0x1CC1 DUP2 PUSH2 0x1A4B JUMP JUMPDEST SWAP1 POP SWAP2 SWAP1 POP JUMP JUMPDEST PUSH1 0x0 PUSH1 0x20 DUP3 ADD SWAP1 POP DUP2 DUP2 SUB PUSH1 0x0 DUP4 ADD MSTORE PUSH2 0x1CE1 DUP2 PUSH2 0x1A6E JUMP JUMPDEST SWAP1 POP SWAP2 SWAP1 POP JUMP JUMPDEST PUSH1 0x0 PUSH1 0x20 DUP3 ADD SWAP1 POP DUP2 DUP2 SUB PUSH1 0x0 DUP4 ADD MSTORE PUSH2 0x1D01 DUP2 PUSH2 0x1A91 JUMP JUMPDEST SWAP1 POP SWAP2 SWAP1 POP JUMP JUMPDEST PUSH1 0x0 PUSH1 0x20 DUP3 ADD SWAP1 POP PUSH2 0x1D1D PUSH1 0x0 DUP4 ADD DUP5 PUSH2 0x1AB4 JUMP JUMPDEST SWAP3 SWAP2 POP POP JUMP JUMPDEST PUSH1 0x0 DUP3 DUP3 MSTORE PUSH1 0x20 DUP3 ADD SWAP1 POP SWAP3 SWAP2 POP POP JUMP JUMPDEST PUSH1 0x0 PUSH2 0x1D3F DUP3 PUSH2 0x1E2C JUMP JUMPDEST SWAP2 POP PUSH2 0x1D4A DUP4 PUSH2 0x1E2C JUMP JUMPDEST SWAP3 POP DUP3 PUSH32 0xFFFFFFFFFFFFFFFFFFFFFFFFFFFFFFFFFFFFFFFFFFFFFFFFFFFFFFFFFFFFFFFF SUB DUP3 GT ISZERO PUSH2 0x1D7F JUMPI PUSH2 0x1D7E PUSH2 0x1ED5 JUMP JUMPDEST JUMPDEST DUP3 DUP3 ADD SWAP1 POP SWAP3 SWAP2 POP POP JUMP JUMPDEST PUSH1 0x0 PUSH2 0x1D95 DUP3 PUSH2 0x1E2C JUMP JUMPDEST SWAP2 POP PUSH2 0x1DA0 DUP4 PUSH2 0x1E2C JUMP JUMPDEST SWAP3 POP DUP3 DUP3 LT ISZERO PUSH2 0x1DB3 JUMPI PUSH2 0x1DB2 PUSH2 0x1ED5 JUMP JUMPDEST JUMPDEST DUP3 DUP3 SUB SWAP1 POP SWAP3 SWAP2 POP POP JUMP JUMPDEST PUSH1 0x0 PUSH2 0x1DC9 DUP3 PUSH2 0x1E0C JUMP JUMPDEST SWAP1 POP SWAP2 SWAP1 POP JUMP JUMPDEST PUSH1 0x0 DUP2 ISZERO ISZERO SWAP1 POP SWAP2 SWAP1 POP JUMP JUMPDEST PUSH1 0x0 DUP2 SWAP1 POP SWAP2 SWAP1 POP JUMP JUMPDEST PUSH1 0x0 DUP2 SWAP1 POP PUSH2 0x1DF4 DUP3 PUSH2 0x21E8 JUMP JUMPDEST SWAP2 SWAP1 POP JUMP JUMPDEST PUSH1 0x0 DUP2 SWAP1 POP PUSH2 0x1E07 DUP3 PUSH2 0x21FC JUMP JUMPDEST SWAP2 SWAP1 POP JUMP JUMPDEST PUSH1 0x0 PUSH20 0xFFFFFFFFFFFFFFFFFFFFFFFFFFFFFFFFFFFFFFFF DUP3 AND SWAP1 POP SWAP2 SWAP1 POP JUMP JUMPDEST PUSH1 0x0 DUP2 SWAP1 POP SWAP2 SWAP1 POP JUMP JUMPDEST PUSH1 0x0 PUSH2 0x1E41 DUP3 PUSH2 0x1DE6 JUMP JUMPDEST SWAP1 POP SWAP2 SWAP1 POP JUMP JUMPDEST PUSH1 0x0 PUSH2 0x1E53 DUP3 PUSH2 0x1DF9 JUMP JUMPDEST SWAP1 POP SWAP2 SWAP1 POP JUMP JUMPDEST PUSH1 0x0 PUSH2 0x1E65 DUP3 PUSH2 0x1E2C JUMP JUMPDEST SWAP1 POP SWAP2 SWAP1 POP JUMP JUMPDEST PUSH1 0x0 PUSH2 0x1E77 DUP3 PUSH2 0x1E2C JUMP JUMPDEST SWAP1 POP SWAP2 SWAP1 POP JUMP JUMPDEST PUSH1 0x0 PUSH2 0x1E89 DUP3 PUSH2 0x1E2C JUMP JUMPDEST SWAP1 POP SWAP2 SWAP1 POP JUMP JUMPDEST PUSH1 0x0 DUP2 SWAP1 POP SWAP2 SWAP1 POP JUMP JUMPDEST PUSH1 0x0 DUP2 SWAP1 POP SWAP2 SWAP1 POP JUMP JUMPDEST PUSH1 0x0 PUSH2 0x1EAF DUP3 PUSH2 0x1E2C JUMP JUMPDEST SWAP2 POP PUSH2 0x1EBA DUP4 PUSH2 0x1E2C JUMP JUMPDEST SWAP3 POP DUP3 PUSH2 0x1ECA JUMPI PUSH2 0x1EC9 PUSH2 0x1F04 JUMP JUMPDEST JUMPDEST DUP3 DUP3 MOD SWAP1 POP SWAP3 SWAP2 POP POP JUMP JUMPDEST PUSH32 0x4E487B7100000000000000000000000000000000000000000000000000000000 PUSH1 0x0 MSTORE PUSH1 0x11 PUSH1 0x4 MSTORE PUSH1 0x24 PUSH1 0x0 REVERT JUMPDEST PUSH32 0x4E487B7100000000000000000000000000000000000000000000000000000000 PUSH1 0x0 MSTORE PUSH1 0x12 PUSH1 0x4 MSTORE PUSH1 0x24 PUSH1 0x0 REVERT JUMPDEST PUSH32 0x4E487B7100000000000000000000000000000000000000000000000000000000 PUSH1 0x0 MSTORE PUSH1 0x21 PUSH1 0x4 MSTORE PUSH1 0x24 PUSH1 0x0 REVERT JUMPDEST PUSH1 0x0 DUP1 REVERT JUMPDEST PUSH32 0x50726F626C656D20776974682061646472657373657300000000000000000000 PUSH1 0x0 DUP3 ADD MSTORE POP JUMP JUMPDEST PUSH32 0x4E6F74207265676973746572656420706C617965722079657400000000000000 PUSH1 0x0 DUP3 ADD MSTORE POP JUMP JUMPDEST PUSH32 0x5468697320706C617965722068617320616C7265616479207265676973746572 PUSH1 0x0 DUP3 ADD MSTORE PUSH32 0x6564000000000000000000000000000000000000000000000000000000000000 PUSH1 0x20 DUP3 ADD MSTORE POP JUMP JUMPDEST PUSH32 0x4F6E65206F662074686520706C6179657273206F7220626F746820646964206E PUSH1 0x0 DUP3 ADD MSTORE PUSH32 0x6F7420636F6D6D69740000000000000000000000000000000000000000000000 PUSH1 0x20 DUP3 ADD MSTORE POP JUMP JUMPDEST PUSH32 0x496E636F72726563742063686F69636500000000000000000000000000000000 PUSH1 0x0 DUP3 ADD MSTORE POP JUMP JUMPDEST PUSH32 0x4F6E65206F662074686520706C6179657273206F7220626F746820646964206E PUSH1 0x0 DUP3 ADD MSTORE PUSH32 0x6F74207265676973746572656400000000000000000000000000000000000000 PUSH1 0x20 DUP3 ADD MSTORE POP JUMP JUMPDEST PUSH32 0x47616D65206861736820776173206E6F742070726F7669646564000000000000 PUSH1 0x0 DUP3 ADD MSTORE POP JUMP JUMPDEST PUSH32 0x70726F626C656D20776974682073616C74000000000000000000000000000000 PUSH1 0x0 DUP3 ADD MSTORE POP JUMP JUMPDEST PUSH32 0x426574206973206C6F776572207468616E20706F737369626C65206D696E696D PUSH1 0x0 DUP3 ADD MSTORE PUSH32 0x756D000000000000000000000000000000000000000000000000000000000000 PUSH1 0x20 DUP3 ADD MSTORE POP JUMP JUMPDEST PUSH32 0x4F6E6C79206F776E6572206F6620636F6E747261637420697320616C6C6F7765 PUSH1 0x0 DUP3 ADD MSTORE PUSH32 0x6420746F2074686973206D6574686F6400000000000000000000000000000000 PUSH1 0x20 DUP3 ADD MSTORE POP JUMP JUMPDEST PUSH32 0x50726F626C656D207769746820746865207374616B6500000000000000000000 PUSH1 0x0 DUP3 ADD MSTORE POP JUMP JUMPDEST PUSH1 0x4 DUP2 LT PUSH2 0x21F9 JUMPI PUSH2 0x21F8 PUSH2 0x1F33 JUMP JUMPDEST JUMPDEST POP JUMP JUMPDEST PUSH1 0x3 DUP2 LT PUSH2 0x220D JUMPI PUSH2 0x220C PUSH2 0x1F33 JUMP JUMPDEST JUMPDEST POP JUMP JUMPDEST PUSH2 0x2219 DUP2 PUSH2 0x1DBE JUMP JUMPDEST DUP2 EQ PUSH2 0x2224 JUMPI PUSH1 0x0 DUP1 REVERT JUMPDEST POP JUMP JUMPDEST PUSH2 0x2230 DUP2 PUSH2 0x1DDC JUMP JUMPDEST DUP2 EQ PUSH2 0x223B JUMPI PUSH1 0x0 DUP1 REVERT JUMPDEST POP JUMP JUMPDEST PUSH2 0x2247 DUP2 PUSH2 0x1E2C JUMP JUMPDEST DUP2 EQ PUSH2 0x2252 JUMPI PUSH1 0x0 DUP1 REVERT JUMPDEST POP JUMP INVALID LOG2 PUSH5 0x6970667358 0x22 SLT KECCAK256 0xB5 CALLER 0xB8 0x4D DUP10 CALLER 0xC0 0xEE CHAINID DUP2 OR CALLDATALOAD 0xB7 GASPRICE SLOAD DUP6 0xD1 0x2B ISZERO 0xC6 SWAP5 0xD4 0x29 0x4D PUSH8 0xFC6CC49AC483C164 PUSH20 0x6F6C634300080700330000000000000000000000 "
				},
				"gasEstimates": {
					"creation": {
						"codeDepositCost": "1768600",
						"executionCost": "1862",
						"totalCost": "1770462"
					},
					"external": {
						"bothCommitted()": "4643",
						"bothRevealed()": "4929",
						"commitMove(bytes32)": "infinite",
						"endGames()": "infinite",
						"getContractBalance()": "428",
						"increaseStake()": "infinite",
						"isCommitted(address)": "9310",
						"isRegistered(address)": "5028",
						"isRevealed(address)": "9616",
						"outcome()": "2583",
						"regPlayer()": "infinite",
						"resetExternal()": "112486",
						"revealChoice(uint256,bytes32)": "infinite",
						"stake()": "2474"
					},
					"internal": {
						"getSaltedHash(uint256,bytes32)": "infinite",
						"reset()": "112271"
					}
				},
				"methodIdentifiers": {
					"bothCommitted()": "92c90480",
					"bothRevealed()": "43445ca8",
					"commitMove(bytes32)": "a9ea37b6",
					"endGames()": "11b0af15",
					"getContractBalance()": "6f9fb98a",
					"increaseStake()": "d9e257ef",
					"isCommitted(address)": "15b80df8",
					"isRegistered(address)": "c3c5a547",
					"isRevealed(address)": "e711a812",
					"outcome()": "27793f87",
					"regPlayer()": "20737796",
					"resetExternal()": "af2d2517",
					"revealChoice(uint256,bytes32)": "8c10bb96",
					"stake()": "3a4b66f1"
				}
			},
			"storageLayout": {
				"storage": [
					{
						"astId": 33,
						"contract": "contracts/RPS.sol:RPS",
						"label": "playerOne",
						"offset": 0,
						"slot": "0",
						"type": "t_address_payable"
					},
					{
						"astId": 35,
						"contract": "contracts/RPS.sol:RPS",
						"label": "playerTwo",
						"offset": 0,
						"slot": "1",
						"type": "t_address_payable"
					},
					{
						"astId": 37,
						"contract": "contracts/RPS.sol:RPS",
						"label": "stake",
						"offset": 0,
						"slot": "2",
						"type": "t_uint256"
					},
					{
						"astId": 40,
						"contract": "contracts/RPS.sol:RPS",
						"label": "outcome",
						"offset": 0,
						"slot": "3",
						"type": "t_enum(GameOutcome)26"
					},
					{
						"astId": 43,
						"contract": "contracts/RPS.sol:RPS",
						"label": "playerOneChoice",
						"offset": 1,
						"slot": "3",
						"type": "t_enum(GameChoice)31"
					},
					{
						"astId": 46,
						"contract": "contracts/RPS.sol:RPS",
						"label": "playerTwoChoice",
						"offset": 2,
						"slot": "3",
						"type": "t_enum(GameChoice)31"
					},
					{
						"astId": 48,
						"contract": "contracts/RPS.sol:RPS",
						"label": "playerOneHash",
						"offset": 0,
						"slot": "4",
						"type": "t_bytes32"
					},
					{
						"astId": 50,
						"contract": "contracts/RPS.sol:RPS",
						"label": "playerTwoHash",
						"offset": 0,
						"slot": "5",
						"type": "t_bytes32"
					}
				],
				"types": {
					"t_address_payable": {
						"encoding": "inplace",
						"label": "address payable",
						"numberOfBytes": "20"
					},
					"t_bytes32": {
						"encoding": "inplace",
						"label": "bytes32",
						"numberOfBytes": "32"
					},
					"t_enum(GameChoice)31": {
						"encoding": "inplace",
						"label": "enum RPS.GameChoice",
						"numberOfBytes": "1"
					},
					"t_enum(GameOutcome)26": {
						"encoding": "inplace",
						"label": "enum RPS.GameOutcome",
						"numberOfBytes": "1"
					},
					"t_uint256": {
						"encoding": "inplace",
						"label": "uint256",
						"numberOfBytes": "32"
					}
				}
			},
			"userdoc": {
				"kind": "user",
				"methods": {},
				"version": 1
			}
		}
	}
}