{
	"contracts/RPS.sol": {
		"RPS": {
			"abi": [
				{
					"anonymous": false,
					"inputs": [
						{
							"indexed": false,
							"internalType": "bool",
							"name": "",
							"type": "bool"
						}
					],
					"name": "GameCommit",
					"type": "event"
				},
				{
					"anonymous": false,
					"inputs": [
						{
							"indexed": false,
							"internalType": "uint256",
							"name": "",
							"type": "uint256"
						}
					],
					"name": "GameRegister",
					"type": "event"
				},
				{
					"anonymous": false,
					"inputs": [
						{
							"indexed": false,
							"internalType": "enum RPS.GameChoice",
							"name": "",
							"type": "uint8"
						}
					],
					"name": "GameReveal",
					"type": "event"
				},
				{
					"anonymous": false,
					"inputs": [
						{
							"indexed": false,
							"internalType": "enum RPS.GameOutcome",
							"name": "",
							"type": "uint8"
						}
					],
					"name": "GetGameOutcome",
					"type": "event"
				},
				{
					"inputs": [],
					"name": "bothCommitted",
					"outputs": [
						{
							"internalType": "bool",
							"name": "",
							"type": "bool"
						}
					],
					"stateMutability": "view",
					"type": "function"
				},
				{
					"inputs": [],
					"name": "bothRevealed",
					"outputs": [
						{
							"internalType": "bool",
							"name": "",
							"type": "bool"
						}
					],
					"stateMutability": "view",
					"type": "function"
				},
				{
					"inputs": [
						{
							"internalType": "bytes32",
							"name": "gameHash",
							"type": "bytes32"
						}
					],
					"name": "commitMove",
					"outputs": [
						{
							"internalType": "bool",
							"name": "",
							"type": "bool"
						}
					],
					"stateMutability": "nonpayable",
					"type": "function"
				},
				{
					"inputs": [],
					"name": "endGames",
					"outputs": [
						{
							"internalType": "enum RPS.GameOutcome",
							"name": "",
							"type": "uint8"
						}
					],
					"stateMutability": "nonpayable",
					"type": "function"
				},
				{
					"inputs": [],
					"name": "getContractBalance",
					"outputs": [
						{
							"internalType": "uint256",
							"name": "",
							"type": "uint256"
						}
					],
					"stateMutability": "view",
					"type": "function"
				},
				{
					"inputs": [
						{
							"internalType": "uint256",
							"name": "addStake",
							"type": "uint256"
						}
					],
					"name": "increaseStake",
					"outputs": [],
					"stateMutability": "nonpayable",
					"type": "function"
				},
				{
					"inputs": [
						{
							"internalType": "address",
							"name": "player",
							"type": "address"
						}
					],
					"name": "isCommitted",
					"outputs": [
						{
							"internalType": "bool",
							"name": "",
							"type": "bool"
						}
					],
					"stateMutability": "view",
					"type": "function"
				},
				{
					"inputs": [
						{
							"internalType": "address",
							"name": "player",
							"type": "address"
						}
					],
					"name": "isRegistered",
					"outputs": [
						{
							"internalType": "bool",
							"name": "",
							"type": "bool"
						}
					],
					"stateMutability": "view",
					"type": "function"
				},
				{
					"inputs": [
						{
							"internalType": "address",
							"name": "player",
							"type": "address"
						}
					],
					"name": "isRevealed",
					"outputs": [
						{
							"internalType": "bool",
							"name": "",
							"type": "bool"
						}
					],
					"stateMutability": "view",
					"type": "function"
				},
				{
					"inputs": [],
					"name": "outcome",
					"outputs": [
						{
							"internalType": "enum RPS.GameOutcome",
							"name": "",
							"type": "uint8"
						}
					],
					"stateMutability": "view",
					"type": "function"
				},
				{
					"inputs": [],
					"name": "regPlayer",
					"outputs": [
						{
							"internalType": "uint256",
							"name": "",
							"type": "uint256"
						}
					],
					"stateMutability": "payable",
					"type": "function"
				},
				{
					"inputs": [],
					"name": "resetExternal",
					"outputs": [],
					"stateMutability": "nonpayable",
					"type": "function"
				},
				{
					"inputs": [
						{
							"internalType": "uint256",
							"name": "choice",
							"type": "uint256"
						},
						{
							"internalType": "bytes32",
							"name": "salt",
							"type": "bytes32"
						}
					],
					"name": "revealChoice",
					"outputs": [
						{
							"internalType": "enum RPS.GameChoice",
							"name": "",
							"type": "uint8"
						}
					],
					"stateMutability": "nonpayable",
					"type": "function"
				},
				{
					"inputs": [],
					"name": "stake",
					"outputs": [
						{
							"internalType": "uint256",
							"name": "",
							"type": "uint256"
						}
					],
					"stateMutability": "view",
					"type": "function"
				}
			],
			"devdoc": {
				"kind": "dev",
				"methods": {},
				"version": 1
			},
			"evm": {
				"assembly": "    /* \"contracts/RPS.sol\":75:5791  contract RPS {... */\n  mstore(0x40, 0x80)\n  callvalue\n  dup1\n  iszero\n  tag_1\n  jumpi\n  0x00\n  dup1\n  revert\ntag_1:\n  pop\n  dataSize(sub_0)\n  dup1\n  dataOffset(sub_0)\n  0x00\n  codecopy\n  0x00\n  return\nstop\n\nsub_0: assembly {\n        /* \"contracts/RPS.sol\":75:5791  contract RPS {... */\n      mstore(0x40, 0x80)\n      jumpi(tag_1, lt(calldatasize, 0x04))\n      shr(0xe0, calldataload(0x00))\n      dup1\n      0x8c10bb96\n      gt\n      tag_16\n      jumpi\n      dup1\n      0xaf2d2517\n      gt\n      tag_17\n      jumpi\n      dup1\n      0xaf2d2517\n      eq\n      tag_12\n      jumpi\n      dup1\n      0xc3c5a547\n      eq\n      tag_13\n      jumpi\n      dup1\n      0xe711a812\n      eq\n      tag_14\n      jumpi\n      dup1\n      0xeedad66b\n      eq\n      tag_15\n      jumpi\n      jump(tag_1)\n    tag_17:\n      dup1\n      0x8c10bb96\n      eq\n      tag_9\n      jumpi\n      dup1\n      0x92c90480\n      eq\n      tag_10\n      jumpi\n      dup1\n      0xa9ea37b6\n      eq\n      tag_11\n      jumpi\n      jump(tag_1)\n    tag_16:\n      dup1\n      0x27793f87\n      gt\n      tag_18\n      jumpi\n      dup1\n      0x27793f87\n      eq\n      tag_5\n      jumpi\n      dup1\n      0x3a4b66f1\n      eq\n      tag_6\n      jumpi\n      dup1\n      0x43445ca8\n      eq\n      tag_7\n      jumpi\n      dup1\n      0x6f9fb98a\n      eq\n      tag_8\n      jumpi\n      jump(tag_1)\n    tag_18:\n      dup1\n      0x11b0af15\n      eq\n      tag_2\n      jumpi\n      dup1\n      0x15b80df8\n      eq\n      tag_3\n      jumpi\n      dup1\n      0x20737796\n      eq\n      tag_4\n      jumpi\n    tag_1:\n      0x00\n      dup1\n      revert\n        /* \"contracts/RPS.sol\":3634:4212  function endGames() external revealed returns(GameOutcome) {... */\n    tag_2:\n      callvalue\n      dup1\n      iszero\n      tag_19\n      jumpi\n      0x00\n      dup1\n      revert\n    tag_19:\n      pop\n      tag_20\n      tag_21\n      jump\t// in\n    tag_20:\n      mload(0x40)\n      tag_22\n      swap2\n      swap1\n      tag_23\n      jump\t// in\n    tag_22:\n      mload(0x40)\n      dup1\n      swap2\n      sub\n      swap1\n      return\n        /* \"contracts/RPS.sol\":5079:5276  function isCommitted(address player) public view returns (bool) {... */\n    tag_3:\n      callvalue\n      dup1\n      iszero\n      tag_24\n      jumpi\n      0x00\n      dup1\n      revert\n    tag_24:\n      pop\n      tag_25\n      0x04\n      dup1\n      calldatasize\n      sub\n      dup2\n      add\n      swap1\n      tag_26\n      swap2\n      swap1\n      tag_27\n      jump\t// in\n    tag_26:\n      tag_28\n      jump\t// in\n    tag_25:\n      mload(0x40)\n      tag_29\n      swap2\n      swap1\n      tag_30\n      jump\t// in\n    tag_29:\n      mload(0x40)\n      dup1\n      swap2\n      sub\n      swap1\n      return\n        /* \"contracts/RPS.sol\":1975:2436  function regPlayer() public payable validBet notRegistered returns (uint) {... */\n    tag_4:\n      tag_31\n      tag_32\n      jump\t// in\n    tag_31:\n      mload(0x40)\n      tag_33\n      swap2\n      swap1\n      tag_34\n      jump\t// in\n    tag_33:\n      mload(0x40)\n      dup1\n      swap2\n      sub\n      swap1\n      return\n        /* \"contracts/RPS.sol\":517:543  GameOutcome public outcome */\n    tag_5:\n      callvalue\n      dup1\n      iszero\n      tag_35\n      jumpi\n      0x00\n      dup1\n      revert\n    tag_35:\n      pop\n      tag_36\n      tag_37\n      jump\t// in\n    tag_36:\n      mload(0x40)\n      tag_38\n      swap2\n      swap1\n      tag_23\n      jump\t// in\n    tag_38:\n      mload(0x40)\n      dup1\n      swap2\n      sub\n      swap1\n      return\n        /* \"contracts/RPS.sol\":494:511  uint public stake */\n    tag_6:\n      callvalue\n      dup1\n      iszero\n      tag_39\n      jumpi\n      0x00\n      dup1\n      revert\n    tag_39:\n      pop\n      tag_40\n      tag_41\n      jump\t// in\n    tag_40:\n      mload(0x40)\n      tag_42\n      swap2\n      swap1\n      tag_34\n      jump\t// in\n    tag_42:\n      mload(0x40)\n      dup1\n      swap2\n      sub\n      swap1\n      return\n        /* \"contracts/RPS.sol\":5640:5789  function bothRevealed() public view returns (bool) {... */\n    tag_7:\n      callvalue\n      dup1\n      iszero\n      tag_43\n      jumpi\n      0x00\n      dup1\n      revert\n    tag_43:\n      pop\n      tag_44\n      tag_45\n      jump\t// in\n    tag_44:\n      mload(0x40)\n      tag_46\n      swap2\n      swap1\n      tag_30\n      jump\t// in\n    tag_46:\n      mload(0x40)\n      dup1\n      swap2\n      sub\n      swap1\n      return\n        /* \"contracts/RPS.sol\":4832:4934  function getContractBalance() public view returns (uint) {... */\n    tag_8:\n      callvalue\n      dup1\n      iszero\n      tag_47\n      jumpi\n      0x00\n      dup1\n      revert\n    tag_47:\n      pop\n      tag_48\n      tag_49\n      jump\t// in\n    tag_48:\n      mload(0x40)\n      tag_50\n      swap2\n      swap1\n      tag_34\n      jump\t// in\n    tag_50:\n      mload(0x40)\n      dup1\n      swap2\n      sub\n      swap1\n      return\n        /* \"contracts/RPS.sol\":2902:3628  function revealChoice(uint choice, bytes32 salt) public hasRegistered correctChoice(choice) committed returns (GameChoice) {... */\n    tag_9:\n      callvalue\n      dup1\n      iszero\n      tag_51\n      jumpi\n      0x00\n      dup1\n      revert\n    tag_51:\n      pop\n      tag_52\n      0x04\n      dup1\n      calldatasize\n      sub\n      dup2\n      add\n      swap1\n      tag_53\n      swap2\n      swap1\n      tag_54\n      jump\t// in\n    tag_53:\n      tag_55\n      jump\t// in\n    tag_52:\n      mload(0x40)\n      tag_56\n      swap2\n      swap1\n      tag_57\n      jump\t// in\n    tag_56:\n      mload(0x40)\n      dup1\n      swap2\n      sub\n      swap1\n      return\n        /* \"contracts/RPS.sol\":5512:5634  function bothCommitted() public view returns (bool) {... */\n    tag_10:\n      callvalue\n      dup1\n      iszero\n      tag_58\n      jumpi\n      0x00\n      dup1\n      revert\n    tag_58:\n      pop\n      tag_59\n      tag_60\n      jump\t// in\n    tag_59:\n      mload(0x40)\n      tag_61\n      swap2\n      swap1\n      tag_30\n      jump\t// in\n    tag_61:\n      mload(0x40)\n      dup1\n      swap2\n      sub\n      swap1\n      return\n        /* \"contracts/RPS.sol\":2442:2896  function commitMove(bytes32 gameHash) public hasRegistered hashProvided(gameHash) returns (bool) {... */\n    tag_11:\n      callvalue\n      dup1\n      iszero\n      tag_62\n      jumpi\n      0x00\n      dup1\n      revert\n    tag_62:\n      pop\n      tag_63\n      0x04\n      dup1\n      calldatasize\n      sub\n      dup2\n      add\n      swap1\n      tag_64\n      swap2\n      swap1\n      tag_65\n      jump\t// in\n    tag_64:\n      tag_66\n      jump\t// in\n    tag_63:\n      mload(0x40)\n      tag_67\n      swap2\n      swap1\n      tag_30\n      jump\t// in\n    tag_67:\n      mload(0x40)\n      dup1\n      swap2\n      sub\n      swap1\n      return\n        /* \"contracts/RPS.sol\":4218:4286  function resetExternal() external onlyOwner {... */\n    tag_12:\n      callvalue\n      dup1\n      iszero\n      tag_68\n      jumpi\n      0x00\n      dup1\n      revert\n    tag_68:\n      pop\n      tag_69\n      tag_70\n      jump\t// in\n    tag_69:\n      stop\n        /* \"contracts/RPS.sol\":4940:5073  function isRegistered(address player) public view returns (bool) {... */\n    tag_13:\n      callvalue\n      dup1\n      iszero\n      tag_71\n      jumpi\n      0x00\n      dup1\n      revert\n    tag_71:\n      pop\n      tag_72\n      0x04\n      dup1\n      calldatasize\n      sub\n      dup2\n      add\n      swap1\n      tag_73\n      swap2\n      swap1\n      tag_27\n      jump\t// in\n    tag_73:\n      tag_74\n      jump\t// in\n    tag_72:\n      mload(0x40)\n      tag_75\n      swap2\n      swap1\n      tag_30\n      jump\t// in\n    tag_75:\n      mload(0x40)\n      dup1\n      swap2\n      sub\n      swap1\n      return\n        /* \"contracts/RPS.sol\":5282:5506  function isRevealed(address player) public view returns (bool) {... */\n    tag_14:\n      callvalue\n      dup1\n      iszero\n      tag_76\n      jumpi\n      0x00\n      dup1\n      revert\n    tag_76:\n      pop\n      tag_77\n      0x04\n      dup1\n      calldatasize\n      sub\n      dup2\n      add\n      swap1\n      tag_78\n      swap2\n      swap1\n      tag_27\n      jump\t// in\n    tag_78:\n      tag_79\n      jump\t// in\n    tag_77:\n      mload(0x40)\n      tag_80\n      swap2\n      swap1\n      tag_30\n      jump\t// in\n    tag_80:\n      mload(0x40)\n      dup1\n      swap2\n      sub\n      swap1\n      return\n        /* \"contracts/RPS.sol\":4292:4383  function increaseStake(uint addStake) external onlyOwner {... */\n    tag_15:\n      callvalue\n      dup1\n      iszero\n      tag_81\n      jumpi\n      0x00\n      dup1\n      revert\n    tag_81:\n      pop\n      tag_82\n      0x04\n      dup1\n      calldatasize\n      sub\n      dup2\n      add\n      swap1\n      tag_83\n      swap2\n      swap1\n      tag_84\n      jump\t// in\n    tag_83:\n      tag_85\n      jump\t// in\n    tag_82:\n      stop\n        /* \"contracts/RPS.sol\":3634:4212  function endGames() external revealed returns(GameOutcome) {... */\n    tag_21:\n        /* \"contracts/RPS.sol\":3680:3691  GameOutcome */\n      0x00\n        /* \"contracts/RPS.sol\":1671:1686  GameChoice.none */\n      dup1\n        /* \"contracts/RPS.sol\":1652:1686  playerOneChoice != GameChoice.none */\n      0x03\n      dup2\n      gt\n      iszero\n      tag_87\n      jumpi\n      tag_88\n      tag_89\n      jump\t// in\n    tag_88:\n    tag_87:\n        /* \"contracts/RPS.sol\":1652:1667  playerOneChoice */\n      0x03\n      0x01\n      swap1\n      sload\n      swap1\n      0x0100\n      exp\n      swap1\n      div\n      0xff\n      and\n        /* \"contracts/RPS.sol\":1652:1686  playerOneChoice != GameChoice.none */\n      0x03\n      dup2\n      gt\n      iszero\n      tag_90\n      jumpi\n      tag_91\n      tag_89\n      jump\t// in\n    tag_91:\n    tag_90:\n      eq\n      iszero\n        /* \"contracts/RPS.sol\":1652:1724  playerOneChoice != GameChoice.none && playerTwoChoice != GameChoice.none */\n      dup1\n      iszero\n      tag_92\n      jumpi\n      pop\n        /* \"contracts/RPS.sol\":1709:1724  GameChoice.none */\n      0x00\n        /* \"contracts/RPS.sol\":1690:1724  playerTwoChoice != GameChoice.none */\n      0x03\n      dup2\n      gt\n      iszero\n      tag_93\n      jumpi\n      tag_94\n      tag_89\n      jump\t// in\n    tag_94:\n    tag_93:\n        /* \"contracts/RPS.sol\":1690:1705  playerTwoChoice */\n      0x03\n      0x02\n      swap1\n      sload\n      swap1\n      0x0100\n      exp\n      swap1\n      div\n      0xff\n      and\n        /* \"contracts/RPS.sol\":1690:1724  playerTwoChoice != GameChoice.none */\n      0x03\n      dup2\n      gt\n      iszero\n      tag_95\n      jumpi\n      tag_96\n      tag_89\n      jump\t// in\n    tag_96:\n    tag_95:\n      eq\n      iszero\n        /* \"contracts/RPS.sol\":1652:1724  playerOneChoice != GameChoice.none && playerTwoChoice != GameChoice.none */\n    tag_92:\n        /* \"contracts/RPS.sol\":1644:1770  require(playerOneChoice != GameChoice.none && playerTwoChoice != GameChoice.none, \"One of the players or both did not commit\") */\n      tag_97\n      jumpi\n      mload(0x40)\n      0x08c379a000000000000000000000000000000000000000000000000000000000\n      dup2\n      mstore\n      0x04\n      add\n      tag_98\n      swap1\n      tag_99\n      jump\t// in\n    tag_98:\n      mload(0x40)\n      dup1\n      swap2\n      sub\n      swap1\n      revert\n    tag_97:\n        /* \"contracts/RPS.sol\":3779:3780  3 */\n      0x03\n        /* \"contracts/RPS.sol\":3759:3774  playerTwoChoice */\n      dup1\n      0x02\n      swap1\n      sload\n      swap1\n      0x0100\n      exp\n      swap1\n      div\n      0xff\n      and\n        /* \"contracts/RPS.sol\":3754:3775  uint(playerTwoChoice) */\n      0x03\n      dup2\n      gt\n      iszero\n      tag_101\n      jumpi\n      tag_102\n      tag_89\n      jump\t// in\n    tag_102:\n    tag_101:\n        /* \"contracts/RPS.sol\":3735:3750  playerOneChoice */\n      0x03\n      0x01\n      swap1\n      sload\n      swap1\n      0x0100\n      exp\n      swap1\n      div\n      0xff\n      and\n        /* \"contracts/RPS.sol\":3730:3751  uint(playerOneChoice) */\n      0x03\n      dup2\n      gt\n      iszero\n      tag_103\n      jumpi\n      tag_104\n      tag_89\n      jump\t// in\n    tag_104:\n    tag_103:\n        /* \"contracts/RPS.sol\":3726:3727  3 */\n      0x03\n        /* \"contracts/RPS.sol\":3726:3751  3 + uint(playerOneChoice) */\n      tag_105\n      swap2\n      swap1\n      tag_106\n      jump\t// in\n    tag_105:\n        /* \"contracts/RPS.sol\":3726:3775  3 + uint(playerOneChoice) - uint(playerTwoChoice) */\n      tag_107\n      swap2\n      swap1\n      tag_108\n      jump\t// in\n    tag_107:\n        /* \"contracts/RPS.sol\":3725:3780  (3 + uint(playerOneChoice) - uint(playerTwoChoice)) % 3 */\n      tag_109\n      swap2\n      swap1\n      tag_110\n      jump\t// in\n    tag_109:\n        /* \"contracts/RPS.sol\":3713:3781  GameOutcome((3 + uint(playerOneChoice) - uint(playerTwoChoice)) % 3) */\n      0x02\n      dup2\n      gt\n      iszero\n      tag_111\n      jumpi\n      tag_112\n      tag_89\n      jump\t// in\n    tag_112:\n    tag_111:\n        /* \"contracts/RPS.sol\":3703:3710  outcome */\n      0x03\n      0x00\n        /* \"contracts/RPS.sol\":3703:3781  outcome = GameOutcome((3 + uint(playerOneChoice) - uint(playerTwoChoice)) % 3) */\n      0x0100\n      exp\n      dup2\n      sload\n      dup2\n      0xff\n      mul\n      not\n      and\n      swap1\n      dup4\n      0x02\n      dup2\n      gt\n      iszero\n      tag_113\n      jumpi\n      tag_114\n      tag_89\n      jump\t// in\n    tag_114:\n    tag_113:\n      mul\n      or\n      swap1\n      sstore\n      pop\n        /* \"contracts/RPS.sol\":3807:3828  GameOutcome.playerOne */\n      0x01\n        /* \"contracts/RPS.sol\":3796:3828  outcome == GameOutcome.playerOne */\n      0x02\n      dup2\n      gt\n      iszero\n      tag_115\n      jumpi\n      tag_116\n      tag_89\n      jump\t// in\n    tag_116:\n    tag_115:\n        /* \"contracts/RPS.sol\":3796:3803  outcome */\n      0x03\n      0x00\n      swap1\n      sload\n      swap1\n      0x0100\n      exp\n      swap1\n      div\n      0xff\n      and\n        /* \"contracts/RPS.sol\":3796:3828  outcome == GameOutcome.playerOne */\n      0x02\n      dup2\n      gt\n      iszero\n      tag_117\n      jumpi\n      tag_118\n      tag_89\n      jump\t// in\n    tag_118:\n    tag_117:\n      eq\n        /* \"contracts/RPS.sol\":3792:4117  if (outcome == GameOutcome.playerOne) {... */\n      iszero\n      tag_119\n      jumpi\n        /* \"contracts/RPS.sol\":3844:3853  playerOne */\n      0x00\n      dup1\n      sload\n      swap1\n      0x0100\n      exp\n      swap1\n      div\n      0xffffffffffffffffffffffffffffffffffffffff\n      and\n        /* \"contracts/RPS.sol\":3844:3862  playerOne.transfer */\n      0xffffffffffffffffffffffffffffffffffffffff\n      and\n        /* \"contracts/RPS.sol\":3844:3885  playerOne.transfer(address(this).balance) */\n      0x08fc\n        /* \"contracts/RPS.sol\":3863:3884  address(this).balance */\n      selfbalance\n        /* \"contracts/RPS.sol\":3844:3885  playerOne.transfer(address(this).balance) */\n      swap1\n      dup2\n      iszero\n      mul\n      swap1\n      mload(0x40)\n      0x00\n      mload(0x40)\n      dup1\n      dup4\n      sub\n      dup2\n      dup6\n      dup9\n      dup9\n      call\n      swap4\n      pop\n      pop\n      pop\n      pop\n      iszero\n      dup1\n      iszero\n      tag_121\n      jumpi\n      returndatasize\n      0x00\n      dup1\n      returndatacopy\n      revert(0x00, returndatasize)\n    tag_121:\n      pop\n        /* \"contracts/RPS.sol\":3792:4117  if (outcome == GameOutcome.playerOne) {... */\n      jump(tag_122)\n    tag_119:\n        /* \"contracts/RPS.sol\":3917:3938  GameOutcome.playerTwo */\n      0x02\n        /* \"contracts/RPS.sol\":3906:3938  outcome == GameOutcome.playerTwo */\n      dup1\n      dup2\n      gt\n      iszero\n      tag_123\n      jumpi\n      tag_124\n      tag_89\n      jump\t// in\n    tag_124:\n    tag_123:\n        /* \"contracts/RPS.sol\":3906:3913  outcome */\n      0x03\n      0x00\n      swap1\n      sload\n      swap1\n      0x0100\n      exp\n      swap1\n      div\n      0xff\n      and\n        /* \"contracts/RPS.sol\":3906:3938  outcome == GameOutcome.playerTwo */\n      0x02\n      dup2\n      gt\n      iszero\n      tag_125\n      jumpi\n      tag_126\n      tag_89\n      jump\t// in\n    tag_126:\n    tag_125:\n      eq\n        /* \"contracts/RPS.sol\":3902:4117  if (outcome == GameOutcome.playerTwo) {... */\n      iszero\n      tag_127\n      jumpi\n        /* \"contracts/RPS.sol\":3954:3963  playerTwo */\n      0x01\n      0x00\n      swap1\n      sload\n      swap1\n      0x0100\n      exp\n      swap1\n      div\n      0xffffffffffffffffffffffffffffffffffffffff\n      and\n        /* \"contracts/RPS.sol\":3954:3972  playerTwo.transfer */\n      0xffffffffffffffffffffffffffffffffffffffff\n      and\n        /* \"contracts/RPS.sol\":3954:3995  playerTwo.transfer(address(this).balance) */\n      0x08fc\n        /* \"contracts/RPS.sol\":3973:3994  address(this).balance */\n      selfbalance\n        /* \"contracts/RPS.sol\":3954:3995  playerTwo.transfer(address(this).balance) */\n      swap1\n      dup2\n      iszero\n      mul\n      swap1\n      mload(0x40)\n      0x00\n      mload(0x40)\n      dup1\n      dup4\n      sub\n      dup2\n      dup6\n      dup9\n      dup9\n      call\n      swap4\n      pop\n      pop\n      pop\n      pop\n      iszero\n      dup1\n      iszero\n      tag_129\n      jumpi\n      returndatasize\n      0x00\n      dup1\n      returndatacopy\n      revert(0x00, returndatasize)\n    tag_129:\n      pop\n        /* \"contracts/RPS.sol\":3902:4117  if (outcome == GameOutcome.playerTwo) {... */\n      jump(tag_130)\n    tag_127:\n        /* \"contracts/RPS.sol\":4026:4035  playerOne */\n      0x00\n      dup1\n      sload\n      swap1\n      0x0100\n      exp\n      swap1\n      div\n      0xffffffffffffffffffffffffffffffffffffffff\n      and\n        /* \"contracts/RPS.sol\":4026:4044  playerOne.transfer */\n      0xffffffffffffffffffffffffffffffffffffffff\n      and\n        /* \"contracts/RPS.sol\":4026:4051  playerOne.transfer(stake) */\n      0x08fc\n        /* \"contracts/RPS.sol\":4045:4050  stake */\n      sload(0x02)\n        /* \"contracts/RPS.sol\":4026:4051  playerOne.transfer(stake) */\n      swap1\n      dup2\n      iszero\n      mul\n      swap1\n      mload(0x40)\n      0x00\n      mload(0x40)\n      dup1\n      dup4\n      sub\n      dup2\n      dup6\n      dup9\n      dup9\n      call\n      swap4\n      pop\n      pop\n      pop\n      pop\n      iszero\n      dup1\n      iszero\n      tag_132\n      jumpi\n      returndatasize\n      0x00\n      dup1\n      returndatacopy\n      revert(0x00, returndatasize)\n    tag_132:\n      pop\n        /* \"contracts/RPS.sol\":4065:4074  playerTwo */\n      0x01\n      0x00\n      swap1\n      sload\n      swap1\n      0x0100\n      exp\n      swap1\n      div\n      0xffffffffffffffffffffffffffffffffffffffff\n      and\n        /* \"contracts/RPS.sol\":4065:4083  playerTwo.transfer */\n      0xffffffffffffffffffffffffffffffffffffffff\n      and\n        /* \"contracts/RPS.sol\":4065:4106  playerTwo.transfer(address(this).balance) */\n      0x08fc\n        /* \"contracts/RPS.sol\":4084:4105  address(this).balance */\n      selfbalance\n        /* \"contracts/RPS.sol\":4065:4106  playerTwo.transfer(address(this).balance) */\n      swap1\n      dup2\n      iszero\n      mul\n      swap1\n      mload(0x40)\n      0x00\n      mload(0x40)\n      dup1\n      dup4\n      sub\n      dup2\n      dup6\n      dup9\n      dup9\n      call\n      swap4\n      pop\n      pop\n      pop\n      pop\n      iszero\n      dup1\n      iszero\n      tag_134\n      jumpi\n      returndatasize\n      0x00\n      dup1\n      returndatacopy\n      revert(0x00, returndatasize)\n    tag_134:\n      pop\n        /* \"contracts/RPS.sol\":3902:4117  if (outcome == GameOutcome.playerTwo) {... */\n    tag_130:\n        /* \"contracts/RPS.sol\":3792:4117  if (outcome == GameOutcome.playerOne) {... */\n    tag_122:\n        /* \"contracts/RPS.sol\":4127:4134  reset() */\n      tag_135\n        /* \"contracts/RPS.sol\":4127:4132  reset */\n      tag_136\n        /* \"contracts/RPS.sol\":4127:4134  reset() */\n      jump\t// in\n    tag_135:\n        /* \"contracts/RPS.sol\":4158:4181  GetGameOutcome(outcome) */\n      0x6d1a16000380c9adde391bcb46a92c2ce8c46811cff002ed5dec38dfdc2373cd\n        /* \"contracts/RPS.sol\":4173:4180  outcome */\n      0x03\n      0x00\n      swap1\n      sload\n      swap1\n      0x0100\n      exp\n      swap1\n      div\n      0xff\n      and\n        /* \"contracts/RPS.sol\":4158:4181  GetGameOutcome(outcome) */\n      mload(0x40)\n      tag_137\n      swap2\n      swap1\n      tag_23\n      jump\t// in\n    tag_137:\n      mload(0x40)\n      dup1\n      swap2\n      sub\n      swap1\n      log1\n        /* \"contracts/RPS.sol\":4198:4205  outcome */\n      0x03\n      0x00\n      swap1\n      sload\n      swap1\n      0x0100\n      exp\n      swap1\n      div\n      0xff\n      and\n        /* \"contracts/RPS.sol\":4191:4205  return outcome */\n      swap1\n      pop\n        /* \"contracts/RPS.sol\":3634:4212  function endGames() external revealed returns(GameOutcome) {... */\n      swap1\n      jump\t// out\n        /* \"contracts/RPS.sol\":5079:5276  function isCommitted(address player) public view returns (bool) {... */\n    tag_28:\n        /* \"contracts/RPS.sol\":5137:5141  bool */\n      0x00\n        /* \"contracts/RPS.sol\":5174:5180  player */\n      dup2\n        /* \"contracts/RPS.sol\":5161:5180  playerOne == player */\n      0xffffffffffffffffffffffffffffffffffffffff\n      and\n        /* \"contracts/RPS.sol\":5161:5170  playerOne */\n      0x00\n      dup1\n      sload\n      swap1\n      0x0100\n      exp\n      swap1\n      div\n      0xffffffffffffffffffffffffffffffffffffffff\n      and\n        /* \"contracts/RPS.sol\":5161:5180  playerOne == player */\n      0xffffffffffffffffffffffffffffffffffffffff\n      and\n      eq\n        /* \"contracts/RPS.sol\":5161:5204  playerOne == player && playerOneHash != 0x0 */\n      dup1\n      iszero\n      tag_139\n      jumpi\n      pop\n        /* \"contracts/RPS.sol\":5201:5204  0x0 */\n      0x00\n        /* \"contracts/RPS.sol\":5184:5204  playerOneHash != 0x0 */\n      dup1\n      shl\n        /* \"contracts/RPS.sol\":5184:5197  playerOneHash */\n      sload(0x04)\n        /* \"contracts/RPS.sol\":5184:5204  playerOneHash != 0x0 */\n      eq\n      iszero\n        /* \"contracts/RPS.sol\":5161:5204  playerOne == player && playerOneHash != 0x0 */\n    tag_139:\n        /* \"contracts/RPS.sol\":5161:5268  playerOne == player && playerOneHash != 0x0 || ... */\n      dup1\n      tag_140\n      jumpi\n      pop\n        /* \"contracts/RPS.sol\":5238:5244  player */\n      dup2\n        /* \"contracts/RPS.sol\":5225:5244  playerTwo == player */\n      0xffffffffffffffffffffffffffffffffffffffff\n      and\n        /* \"contracts/RPS.sol\":5225:5234  playerTwo */\n      0x01\n      0x00\n      swap1\n      sload\n      swap1\n      0x0100\n      exp\n      swap1\n      div\n      0xffffffffffffffffffffffffffffffffffffffff\n      and\n        /* \"contracts/RPS.sol\":5225:5244  playerTwo == player */\n      0xffffffffffffffffffffffffffffffffffffffff\n      and\n      eq\n        /* \"contracts/RPS.sol\":5225:5268  playerTwo == player && playerTwoHash != 0x0 */\n      dup1\n      iszero\n      tag_141\n      jumpi\n      pop\n        /* \"contracts/RPS.sol\":5265:5268  0x0 */\n      0x00\n        /* \"contracts/RPS.sol\":5248:5268  playerTwoHash != 0x0 */\n      dup1\n      shl\n        /* \"contracts/RPS.sol\":5248:5261  playerTwoHash */\n      sload(0x05)\n        /* \"contracts/RPS.sol\":5248:5268  playerTwoHash != 0x0 */\n      eq\n      iszero\n        /* \"contracts/RPS.sol\":5225:5268  playerTwo == player && playerTwoHash != 0x0 */\n    tag_141:\n        /* \"contracts/RPS.sol\":5161:5268  playerOne == player && playerOneHash != 0x0 || ... */\n    tag_140:\n        /* \"contracts/RPS.sol\":5153:5269  return (playerOne == player && playerOneHash != 0x0 || ... */\n      swap1\n      pop\n        /* \"contracts/RPS.sol\":5079:5276  function isCommitted(address player) public view returns (bool) {... */\n      swap2\n      swap1\n      pop\n      jump\t// out\n        /* \"contracts/RPS.sol\":1975:2436  function regPlayer() public payable validBet notRegistered returns (uint) {... */\n    tag_32:\n        /* \"contracts/RPS.sol\":2043:2047  uint */\n      0x00\n        /* \"contracts/RPS.sol\":118:122  1000 */\n      0x03e8\n        /* \"contracts/RPS.sol\":740:749  msg.value */\n      callvalue\n        /* \"contracts/RPS.sol\":740:760  msg.value >= MIN_BET */\n      lt\n      iszero\n        /* \"contracts/RPS.sol\":732:799  require(msg.value >= MIN_BET, \"Bet is lower than possible minimum\") */\n      tag_143\n      jumpi\n      mload(0x40)\n      0x08c379a000000000000000000000000000000000000000000000000000000000\n      dup2\n      mstore\n      0x04\n      add\n      tag_144\n      swap1\n      tag_145\n      jump\t// in\n    tag_144:\n      mload(0x40)\n      dup1\n      swap2\n      sub\n      swap1\n      revert\n    tag_143:\n        /* \"contracts/RPS.sol\":826:827  0 */\n      0x00\n        /* \"contracts/RPS.sol\":817:822  stake */\n      sload(0x02)\n        /* \"contracts/RPS.sol\":817:827  stake == 0 */\n      eq\n        /* \"contracts/RPS.sol\":817:849  stake == 0 || msg.value >= stake */\n      dup1\n      tag_146\n      jumpi\n      pop\n        /* \"contracts/RPS.sol\":844:849  stake */\n      sload(0x02)\n        /* \"contracts/RPS.sol\":831:840  msg.value */\n      callvalue\n        /* \"contracts/RPS.sol\":831:849  msg.value >= stake */\n      lt\n      iszero\n        /* \"contracts/RPS.sol\":817:849  stake == 0 || msg.value >= stake */\n    tag_146:\n        /* \"contracts/RPS.sol\":809:876  require(stake == 0 || msg.value >= stake, \"Problem with the stake\") */\n      tag_147\n      jumpi\n      mload(0x40)\n      0x08c379a000000000000000000000000000000000000000000000000000000000\n      dup2\n      mstore\n      0x04\n      add\n      tag_148\n      swap1\n      tag_149\n      jump\t// in\n    tag_148:\n      mload(0x40)\n      dup1\n      swap2\n      sub\n      swap1\n      revert\n    tag_147:\n        /* \"contracts/RPS.sol\":957:966  playerOne */\n      0x00\n      dup1\n      sload\n      swap1\n      0x0100\n      exp\n      swap1\n      div\n      0xffffffffffffffffffffffffffffffffffffffff\n      and\n        /* \"contracts/RPS.sol\":943:966  msg.sender != playerOne */\n      0xffffffffffffffffffffffffffffffffffffffff\n      and\n        /* \"contracts/RPS.sol\":943:953  msg.sender */\n      caller\n        /* \"contracts/RPS.sol\":943:966  msg.sender != playerOne */\n      0xffffffffffffffffffffffffffffffffffffffff\n      and\n      eq\n      iszero\n        /* \"contracts/RPS.sol\":943:993  msg.sender != playerOne && msg.sender != playerTwo */\n      dup1\n      iszero\n      tag_151\n      jumpi\n      pop\n        /* \"contracts/RPS.sol\":984:993  playerTwo */\n      0x01\n      0x00\n      swap1\n      sload\n      swap1\n      0x0100\n      exp\n      swap1\n      div\n      0xffffffffffffffffffffffffffffffffffffffff\n      and\n        /* \"contracts/RPS.sol\":970:993  msg.sender != playerTwo */\n      0xffffffffffffffffffffffffffffffffffffffff\n      and\n        /* \"contracts/RPS.sol\":970:980  msg.sender */\n      caller\n        /* \"contracts/RPS.sol\":970:993  msg.sender != playerTwo */\n      0xffffffffffffffffffffffffffffffffffffffff\n      and\n      eq\n      iszero\n        /* \"contracts/RPS.sol\":943:993  msg.sender != playerOne && msg.sender != playerTwo */\n    tag_151:\n        /* \"contracts/RPS.sol\":935:1032  require(msg.sender != playerOne && msg.sender != playerTwo, \"This player has already registered\") */\n      tag_152\n      jumpi\n      mload(0x40)\n      0x08c379a000000000000000000000000000000000000000000000000000000000\n      dup2\n      mstore\n      0x04\n      add\n      tag_153\n      swap1\n      tag_154\n      jump\t// in\n    tag_153:\n      mload(0x40)\n      dup1\n      swap2\n      sub\n      swap1\n      revert\n    tag_152:\n        /* \"contracts/RPS.sol\":2084:2087  0x0 */\n      0x00\n        /* \"contracts/RPS.sol\":2063:2088  playerOne == address(0x0) */\n      0xffffffffffffffffffffffffffffffffffffffff\n      and\n        /* \"contracts/RPS.sol\":2063:2072  playerOne */\n      0x00\n      dup1\n      sload\n      swap1\n      0x0100\n      exp\n      swap1\n      div\n      0xffffffffffffffffffffffffffffffffffffffff\n      and\n        /* \"contracts/RPS.sol\":2063:2088  playerOne == address(0x0) */\n      0xffffffffffffffffffffffffffffffffffffffff\n      and\n      eq\n        /* \"contracts/RPS.sol\":2059:2382  if (playerOne == address(0x0)) {... */\n      iszero\n      tag_156\n      jumpi\n        /* \"contracts/RPS.sol\":2124:2134  msg.sender */\n      caller\n        /* \"contracts/RPS.sol\":2104:2113  playerOne */\n      0x00\n      dup1\n        /* \"contracts/RPS.sol\":2104:2135  playerOne = payable(msg.sender) */\n      0x0100\n      exp\n      dup2\n      sload\n      dup2\n      0xffffffffffffffffffffffffffffffffffffffff\n      mul\n      not\n      and\n      swap1\n      dup4\n      0xffffffffffffffffffffffffffffffffffffffff\n      and\n      mul\n      or\n      swap1\n      sstore\n      pop\n        /* \"contracts/RPS.sol\":2157:2166  msg.value */\n      callvalue\n        /* \"contracts/RPS.sol\":2149:2154  stake */\n      0x02\n        /* \"contracts/RPS.sol\":2149:2166  stake = msg.value */\n      dup2\n      swap1\n      sstore\n      pop\n        /* \"contracts/RPS.sol\":2185:2200  GameRegister(1) */\n      0x982cddadd143916f714d5e4cdb1fdbf71a3a44c802807791f444525464ad42ad\n        /* \"contracts/RPS.sol\":2198:2199  1 */\n      0x01\n        /* \"contracts/RPS.sol\":2185:2200  GameRegister(1) */\n      mload(0x40)\n      tag_157\n      swap2\n      swap1\n      tag_158\n      jump\t// in\n    tag_157:\n      mload(0x40)\n      dup1\n      swap2\n      sub\n      swap1\n      log1\n        /* \"contracts/RPS.sol\":2221:2222  1 */\n      0x01\n        /* \"contracts/RPS.sol\":2214:2222  return 1 */\n      swap1\n      pop\n      jump(tag_155)\n        /* \"contracts/RPS.sol\":2059:2382  if (playerOne == address(0x0)) {... */\n    tag_156:\n        /* \"contracts/RPS.sol\":2264:2267  0x0 */\n      0x00\n        /* \"contracts/RPS.sol\":2243:2268  playerTwo == address(0x0) */\n      0xffffffffffffffffffffffffffffffffffffffff\n      and\n        /* \"contracts/RPS.sol\":2243:2252  playerTwo */\n      0x01\n      0x00\n      swap1\n      sload\n      swap1\n      0x0100\n      exp\n      swap1\n      div\n      0xffffffffffffffffffffffffffffffffffffffff\n      and\n        /* \"contracts/RPS.sol\":2243:2268  playerTwo == address(0x0) */\n      0xffffffffffffffffffffffffffffffffffffffff\n      and\n      eq\n        /* \"contracts/RPS.sol\":2239:2382  if (playerTwo == address(0x0)) {... */\n      iszero\n      tag_160\n      jumpi\n        /* \"contracts/RPS.sol\":2304:2314  msg.sender */\n      caller\n        /* \"contracts/RPS.sol\":2284:2293  playerTwo */\n      0x01\n      0x00\n        /* \"contracts/RPS.sol\":2284:2315  playerTwo = payable(msg.sender) */\n      0x0100\n      exp\n      dup2\n      sload\n      dup2\n      0xffffffffffffffffffffffffffffffffffffffff\n      mul\n      not\n      and\n      swap1\n      dup4\n      0xffffffffffffffffffffffffffffffffffffffff\n      and\n      mul\n      or\n      swap1\n      sstore\n      pop\n        /* \"contracts/RPS.sol\":2334:2349  GameRegister(2) */\n      0x982cddadd143916f714d5e4cdb1fdbf71a3a44c802807791f444525464ad42ad\n        /* \"contracts/RPS.sol\":2347:2348  2 */\n      0x02\n        /* \"contracts/RPS.sol\":2334:2349  GameRegister(2) */\n      mload(0x40)\n      tag_161\n      swap2\n      swap1\n      tag_162\n      jump\t// in\n    tag_161:\n      mload(0x40)\n      dup1\n      swap2\n      sub\n      swap1\n      log1\n        /* \"contracts/RPS.sol\":2370:2371  2 */\n      0x02\n        /* \"contracts/RPS.sol\":2363:2371  return 2 */\n      swap1\n      pop\n      jump(tag_155)\n        /* \"contracts/RPS.sol\":2239:2382  if (playerTwo == address(0x0)) {... */\n    tag_160:\n        /* \"contracts/RPS.sol\":2396:2411  GameRegister(0) */\n      0x982cddadd143916f714d5e4cdb1fdbf71a3a44c802807791f444525464ad42ad\n        /* \"contracts/RPS.sol\":2409:2410  0 */\n      0x00\n        /* \"contracts/RPS.sol\":2396:2411  GameRegister(0) */\n      mload(0x40)\n      tag_163\n      swap2\n      swap1\n      tag_164\n      jump\t// in\n    tag_163:\n      mload(0x40)\n      dup1\n      swap2\n      sub\n      swap1\n      log1\n        /* \"contracts/RPS.sol\":2428:2429  0 */\n      0x00\n        /* \"contracts/RPS.sol\":2421:2429  return 0 */\n      swap1\n      pop\n        /* \"contracts/RPS.sol\":1042:1043  _ */\n    tag_155:\n        /* \"contracts/RPS.sol\":1975:2436  function regPlayer() public payable validBet notRegistered returns (uint) {... */\n      swap1\n      jump\t// out\n        /* \"contracts/RPS.sol\":517:543  GameOutcome public outcome */\n    tag_37:\n      0x03\n      0x00\n      swap1\n      sload\n      swap1\n      0x0100\n      exp\n      swap1\n      div\n      0xff\n      and\n      dup2\n      jump\t// out\n        /* \"contracts/RPS.sol\":494:511  uint public stake */\n    tag_41:\n      sload(0x02)\n      dup2\n      jump\t// out\n        /* \"contracts/RPS.sol\":5640:5789  function bothRevealed() public view returns (bool) {... */\n    tag_45:\n        /* \"contracts/RPS.sol\":5685:5689  bool */\n      0x00\n        /* \"contracts/RPS.sol\":5728:5743  GameChoice.none */\n      dup1\n        /* \"contracts/RPS.sol\":5709:5743  playerOneChoice != GameChoice.none */\n      0x03\n      dup2\n      gt\n      iszero\n      tag_166\n      jumpi\n      tag_167\n      tag_89\n      jump\t// in\n    tag_167:\n    tag_166:\n        /* \"contracts/RPS.sol\":5709:5724  playerOneChoice */\n      0x03\n      0x01\n      swap1\n      sload\n      swap1\n      0x0100\n      exp\n      swap1\n      div\n      0xff\n      and\n        /* \"contracts/RPS.sol\":5709:5743  playerOneChoice != GameChoice.none */\n      0x03\n      dup2\n      gt\n      iszero\n      tag_168\n      jumpi\n      tag_169\n      tag_89\n      jump\t// in\n    tag_169:\n    tag_168:\n      eq\n      iszero\n        /* \"contracts/RPS.sol\":5709:5781  playerOneChoice != GameChoice.none && playerTwoChoice != GameChoice.none */\n      dup1\n      iszero\n      tag_170\n      jumpi\n      pop\n        /* \"contracts/RPS.sol\":5766:5781  GameChoice.none */\n      0x00\n        /* \"contracts/RPS.sol\":5747:5781  playerTwoChoice != GameChoice.none */\n      0x03\n      dup2\n      gt\n      iszero\n      tag_171\n      jumpi\n      tag_172\n      tag_89\n      jump\t// in\n    tag_172:\n    tag_171:\n        /* \"contracts/RPS.sol\":5747:5762  playerTwoChoice */\n      0x03\n      0x02\n      swap1\n      sload\n      swap1\n      0x0100\n      exp\n      swap1\n      div\n      0xff\n      and\n        /* \"contracts/RPS.sol\":5747:5781  playerTwoChoice != GameChoice.none */\n      0x03\n      dup2\n      gt\n      iszero\n      tag_173\n      jumpi\n      tag_174\n      tag_89\n      jump\t// in\n    tag_174:\n    tag_173:\n      eq\n      iszero\n        /* \"contracts/RPS.sol\":5709:5781  playerOneChoice != GameChoice.none && playerTwoChoice != GameChoice.none */\n    tag_170:\n        /* \"contracts/RPS.sol\":5701:5782  return (playerOneChoice != GameChoice.none && playerTwoChoice != GameChoice.none) */\n      swap1\n      pop\n        /* \"contracts/RPS.sol\":5640:5789  function bothRevealed() public view returns (bool) {... */\n      swap1\n      jump\t// out\n        /* \"contracts/RPS.sol\":4832:4934  function getContractBalance() public view returns (uint) {... */\n    tag_49:\n        /* \"contracts/RPS.sol\":4883:4887  uint */\n      0x00\n        /* \"contracts/RPS.sol\":4906:4927  address(this).balance */\n      selfbalance\n        /* \"contracts/RPS.sol\":4899:4927  return address(this).balance */\n      swap1\n      pop\n        /* \"contracts/RPS.sol\":4832:4934  function getContractBalance() public view returns (uint) {... */\n      swap1\n      jump\t// out\n        /* \"contracts/RPS.sol\":2902:3628  function revealChoice(uint choice, bytes32 salt) public hasRegistered correctChoice(choice) committed returns (GameChoice) {... */\n    tag_55:\n        /* \"contracts/RPS.sol\":3013:3023  GameChoice */\n      0x00\n        /* \"contracts/RPS.sol\":1114:1123  playerOne */\n      dup1\n      0x00\n      swap1\n      sload\n      swap1\n      0x0100\n      exp\n      swap1\n      div\n      0xffffffffffffffffffffffffffffffffffffffff\n      and\n        /* \"contracts/RPS.sol\":1100:1123  msg.sender == playerOne */\n      0xffffffffffffffffffffffffffffffffffffffff\n      and\n        /* \"contracts/RPS.sol\":1100:1110  msg.sender */\n      caller\n        /* \"contracts/RPS.sol\":1100:1123  msg.sender == playerOne */\n      0xffffffffffffffffffffffffffffffffffffffff\n      and\n      eq\n        /* \"contracts/RPS.sol\":1100:1150  msg.sender == playerOne || msg.sender == playerTwo */\n      dup1\n      tag_177\n      jumpi\n      pop\n        /* \"contracts/RPS.sol\":1141:1150  playerTwo */\n      0x01\n      0x00\n      swap1\n      sload\n      swap1\n      0x0100\n      exp\n      swap1\n      div\n      0xffffffffffffffffffffffffffffffffffffffff\n      and\n        /* \"contracts/RPS.sol\":1127:1150  msg.sender == playerTwo */\n      0xffffffffffffffffffffffffffffffffffffffff\n      and\n        /* \"contracts/RPS.sol\":1127:1137  msg.sender */\n      caller\n        /* \"contracts/RPS.sol\":1127:1150  msg.sender == playerTwo */\n      0xffffffffffffffffffffffffffffffffffffffff\n      and\n      eq\n        /* \"contracts/RPS.sol\":1100:1150  msg.sender == playerOne || msg.sender == playerTwo */\n    tag_177:\n        /* \"contracts/RPS.sol\":1091:1180  require (msg.sender == playerOne || msg.sender == playerTwo, \"Not registered player yet\") */\n      tag_178\n      jumpi\n      mload(0x40)\n      0x08c379a000000000000000000000000000000000000000000000000000000000\n      dup2\n      mstore\n      0x04\n      add\n      tag_179\n      swap1\n      tag_180\n      jump\t// in\n    tag_179:\n      mload(0x40)\n      dup1\n      swap2\n      sub\n      swap1\n      revert\n    tag_178:\n        /* \"contracts/RPS.sol\":2986:2992  choice */\n      dup3\n        /* \"contracts/RPS.sol\":1396:1397  1 */\n      0x01\n        /* \"contracts/RPS.sol\":1386:1392  choice */\n      dup2\n        /* \"contracts/RPS.sol\":1386:1397  choice >= 1 */\n      lt\n      iszero\n        /* \"contracts/RPS.sol\":1386:1412  choice >= 1 && choice <= 3 */\n      dup1\n      iszero\n      tag_182\n      jumpi\n      pop\n        /* \"contracts/RPS.sol\":1411:1412  3 */\n      0x03\n        /* \"contracts/RPS.sol\":1401:1407  choice */\n      dup2\n        /* \"contracts/RPS.sol\":1401:1412  choice <= 3 */\n      gt\n      iszero\n        /* \"contracts/RPS.sol\":1386:1412  choice >= 1 && choice <= 3 */\n    tag_182:\n        /* \"contracts/RPS.sol\":1377:1433  require (choice >= 1 && choice <= 3, \"Incorrect choice\") */\n      tag_183\n      jumpi\n      mload(0x40)\n      0x08c379a000000000000000000000000000000000000000000000000000000000\n      dup2\n      mstore\n      0x04\n      add\n      tag_184\n      swap1\n      tag_185\n      jump\t// in\n    tag_184:\n      mload(0x40)\n      dup1\n      swap2\n      sub\n      swap1\n      revert\n    tag_183:\n        /* \"contracts/RPS.sol\":1513:1516  0x0 */\n      0x00\n        /* \"contracts/RPS.sol\":1496:1516  playerOneHash != 0x0 */\n      dup1\n      shl\n        /* \"contracts/RPS.sol\":1496:1509  playerOneHash */\n      sload(0x04)\n        /* \"contracts/RPS.sol\":1496:1516  playerOneHash != 0x0 */\n      eq\n      iszero\n        /* \"contracts/RPS.sol\":1496:1540  playerOneHash != 0x0 && playerTwoHash != 0x0 */\n      dup1\n      iszero\n      tag_187\n      jumpi\n      pop\n        /* \"contracts/RPS.sol\":1537:1540  0x0 */\n      0x00\n        /* \"contracts/RPS.sol\":1520:1540  playerTwoHash != 0x0 */\n      dup1\n      shl\n        /* \"contracts/RPS.sol\":1520:1533  playerTwoHash */\n      sload(0x05)\n        /* \"contracts/RPS.sol\":1520:1540  playerTwoHash != 0x0 */\n      eq\n      iszero\n        /* \"contracts/RPS.sol\":1496:1540  playerOneHash != 0x0 && playerTwoHash != 0x0 */\n    tag_187:\n        /* \"contracts/RPS.sol\":1488:1590  require(playerOneHash != 0x0 && playerTwoHash != 0x0, \"One of the players or both did not registered\") */\n      tag_188\n      jumpi\n      mload(0x40)\n      0x08c379a000000000000000000000000000000000000000000000000000000000\n      dup2\n      mstore\n      0x04\n      add\n      tag_189\n      swap1\n      tag_190\n      jump\t// in\n    tag_189:\n      mload(0x40)\n      dup1\n      swap2\n      sub\n      swap1\n      revert\n    tag_188:\n        /* \"contracts/RPS.sol\":3051:3061  msg.sender */\n      caller\n        /* \"contracts/RPS.sol\":3038:3061  playerOne == msg.sender */\n      0xffffffffffffffffffffffffffffffffffffffff\n      and\n        /* \"contracts/RPS.sol\":3038:3047  playerOne */\n      0x00\n      dup1\n      sload\n      swap1\n      0x0100\n      exp\n      swap1\n      div\n      0xffffffffffffffffffffffffffffffffffffffff\n      and\n        /* \"contracts/RPS.sol\":3038:3061  playerOne == msg.sender */\n      0xffffffffffffffffffffffffffffffffffffffff\n      and\n      eq\n        /* \"contracts/RPS.sol\":3035:3622  if(playerOne == msg.sender) {... */\n      iszero\n      tag_192\n      jumpi\n        /* \"contracts/RPS.sol\":3102:3129  getSaltedHash(choice, salt) */\n      tag_193\n        /* \"contracts/RPS.sol\":3116:3122  choice */\n      dup5\n        /* \"contracts/RPS.sol\":3124:3128  salt */\n      dup5\n        /* \"contracts/RPS.sol\":3102:3115  getSaltedHash */\n      tag_194\n        /* \"contracts/RPS.sol\":3102:3129  getSaltedHash(choice, salt) */\n      jump\t// in\n    tag_193:\n        /* \"contracts/RPS.sol\":3085:3098  playerOneHash */\n      sload(0x04)\n        /* \"contracts/RPS.sol\":3085:3129  playerOneHash == getSaltedHash(choice, salt) */\n      eq\n        /* \"contracts/RPS.sol\":3077:3151  require(playerOneHash == getSaltedHash(choice, salt), \"problem with salt\") */\n      tag_195\n      jumpi\n      mload(0x40)\n      0x08c379a000000000000000000000000000000000000000000000000000000000\n      dup2\n      mstore\n      0x04\n      add\n      tag_196\n      swap1\n      tag_197\n      jump\t// in\n    tag_196:\n      mload(0x40)\n      dup1\n      swap2\n      sub\n      swap1\n      revert\n    tag_195:\n        /* \"contracts/RPS.sol\":3194:3200  choice */\n      dup4\n        /* \"contracts/RPS.sol\":3183:3201  GameChoice(choice) */\n      0x03\n      dup2\n      gt\n      iszero\n      tag_198\n      jumpi\n      tag_199\n      tag_89\n      jump\t// in\n    tag_199:\n    tag_198:\n        /* \"contracts/RPS.sol\":3165:3180  playerOneChoice */\n      0x03\n      0x01\n        /* \"contracts/RPS.sol\":3165:3201  playerOneChoice = GameChoice(choice) */\n      0x0100\n      exp\n      dup2\n      sload\n      dup2\n      0xff\n      mul\n      not\n      and\n      swap1\n      dup4\n      0x03\n      dup2\n      gt\n      iszero\n      tag_200\n      jumpi\n      tag_201\n      tag_89\n      jump\t// in\n    tag_201:\n    tag_200:\n      mul\n      or\n      swap1\n      sstore\n      pop\n        /* \"contracts/RPS.sol\":3220:3247  GameReveal(playerOneChoice) */\n      0x47c7acbd4d57f5dbc1f9e9d1f9e0899016b547afbad29e7a416a892b44898e97\n        /* \"contracts/RPS.sol\":3231:3246  playerOneChoice */\n      0x03\n      0x01\n      swap1\n      sload\n      swap1\n      0x0100\n      exp\n      swap1\n      div\n      0xff\n      and\n        /* \"contracts/RPS.sol\":3220:3247  GameReveal(playerOneChoice) */\n      mload(0x40)\n      tag_202\n      swap2\n      swap1\n      tag_57\n      jump\t// in\n    tag_202:\n      mload(0x40)\n      dup1\n      swap2\n      sub\n      swap1\n      log1\n        /* \"contracts/RPS.sol\":3268:3283  playerOneChoice */\n      0x03\n      0x01\n      swap1\n      sload\n      swap1\n      0x0100\n      exp\n      swap1\n      div\n      0xff\n      and\n        /* \"contracts/RPS.sol\":3261:3283  return playerOneChoice */\n      swap2\n      pop\n      jump(tag_191)\n        /* \"contracts/RPS.sol\":3035:3622  if(playerOne == msg.sender) {... */\n    tag_192:\n        /* \"contracts/RPS.sol\":3316:3326  msg.sender */\n      caller\n        /* \"contracts/RPS.sol\":3303:3326  playerTwo == msg.sender */\n      0xffffffffffffffffffffffffffffffffffffffff\n      and\n        /* \"contracts/RPS.sol\":3303:3312  playerTwo */\n      0x01\n      0x00\n      swap1\n      sload\n      swap1\n      0x0100\n      exp\n      swap1\n      div\n      0xffffffffffffffffffffffffffffffffffffffff\n      and\n        /* \"contracts/RPS.sol\":3303:3326  playerTwo == msg.sender */\n      0xffffffffffffffffffffffffffffffffffffffff\n      and\n      eq\n        /* \"contracts/RPS.sol\":3300:3622  if(playerTwo == msg.sender) {... */\n      iszero\n      tag_204\n      jumpi\n        /* \"contracts/RPS.sol\":3367:3394  getSaltedHash(choice, salt) */\n      tag_205\n        /* \"contracts/RPS.sol\":3381:3387  choice */\n      dup5\n        /* \"contracts/RPS.sol\":3389:3393  salt */\n      dup5\n        /* \"contracts/RPS.sol\":3367:3380  getSaltedHash */\n      tag_194\n        /* \"contracts/RPS.sol\":3367:3394  getSaltedHash(choice, salt) */\n      jump\t// in\n    tag_205:\n        /* \"contracts/RPS.sol\":3350:3363  playerTwoHash */\n      sload(0x05)\n        /* \"contracts/RPS.sol\":3350:3394  playerTwoHash == getSaltedHash(choice, salt) */\n      eq\n        /* \"contracts/RPS.sol\":3342:3416  require(playerTwoHash == getSaltedHash(choice, salt), \"problem with salt\") */\n      tag_206\n      jumpi\n      mload(0x40)\n      0x08c379a000000000000000000000000000000000000000000000000000000000\n      dup2\n      mstore\n      0x04\n      add\n      tag_207\n      swap1\n      tag_197\n      jump\t// in\n    tag_207:\n      mload(0x40)\n      dup1\n      swap2\n      sub\n      swap1\n      revert\n    tag_206:\n        /* \"contracts/RPS.sol\":3459:3465  choice */\n      dup4\n        /* \"contracts/RPS.sol\":3448:3466  GameChoice(choice) */\n      0x03\n      dup2\n      gt\n      iszero\n      tag_208\n      jumpi\n      tag_209\n      tag_89\n      jump\t// in\n    tag_209:\n    tag_208:\n        /* \"contracts/RPS.sol\":3430:3445  playerTwoChoice */\n      0x03\n      0x02\n        /* \"contracts/RPS.sol\":3430:3466  playerTwoChoice = GameChoice(choice) */\n      0x0100\n      exp\n      dup2\n      sload\n      dup2\n      0xff\n      mul\n      not\n      and\n      swap1\n      dup4\n      0x03\n      dup2\n      gt\n      iszero\n      tag_210\n      jumpi\n      tag_211\n      tag_89\n      jump\t// in\n    tag_211:\n    tag_210:\n      mul\n      or\n      swap1\n      sstore\n      pop\n        /* \"contracts/RPS.sol\":3485:3512  GameReveal(playerTwoChoice) */\n      0x47c7acbd4d57f5dbc1f9e9d1f9e0899016b547afbad29e7a416a892b44898e97\n        /* \"contracts/RPS.sol\":3496:3511  playerTwoChoice */\n      0x03\n      0x02\n      swap1\n      sload\n      swap1\n      0x0100\n      exp\n      swap1\n      div\n      0xff\n      and\n        /* \"contracts/RPS.sol\":3485:3512  GameReveal(playerTwoChoice) */\n      mload(0x40)\n      tag_212\n      swap2\n      swap1\n      tag_57\n      jump\t// in\n    tag_212:\n      mload(0x40)\n      dup1\n      swap2\n      sub\n      swap1\n      log1\n        /* \"contracts/RPS.sol\":3533:3548  playerTwoChoice */\n      0x03\n      0x02\n      swap1\n      sload\n      swap1\n      0x0100\n      exp\n      swap1\n      div\n      0xff\n      and\n        /* \"contracts/RPS.sol\":3526:3548  return playerTwoChoice */\n      swap2\n      pop\n      jump(tag_191)\n        /* \"contracts/RPS.sol\":3300:3622  if(playerTwo == msg.sender) {... */\n    tag_204:\n        /* \"contracts/RPS.sol\":3579:3611  revert(\"Problem with addresses\") */\n      mload(0x40)\n      0x08c379a000000000000000000000000000000000000000000000000000000000\n      dup2\n      mstore\n      0x04\n      add\n      tag_214\n      swap1\n      tag_215\n      jump\t// in\n    tag_214:\n      mload(0x40)\n      dup1\n      swap2\n      sub\n      swap1\n      revert\n        /* \"contracts/RPS.sol\":1600:1601  _ */\n    tag_191:\n        /* \"contracts/RPS.sol\":1190:1191  _ */\n      pop\n        /* \"contracts/RPS.sol\":2902:3628  function revealChoice(uint choice, bytes32 salt) public hasRegistered correctChoice(choice) committed returns (GameChoice) {... */\n      swap3\n      swap2\n      pop\n      pop\n      jump\t// out\n        /* \"contracts/RPS.sol\":5512:5634  function bothCommitted() public view returns (bool) {... */\n    tag_60:\n        /* \"contracts/RPS.sol\":5558:5562  bool */\n      0x00\n        /* \"contracts/RPS.sol\":5599:5602  0x0 */\n      dup1\n        /* \"contracts/RPS.sol\":5582:5602  playerOneHash != 0x0 */\n      0x00\n      shl\n        /* \"contracts/RPS.sol\":5582:5595  playerOneHash */\n      sload(0x04)\n        /* \"contracts/RPS.sol\":5582:5602  playerOneHash != 0x0 */\n      eq\n      iszero\n        /* \"contracts/RPS.sol\":5582:5626  playerOneHash != 0x0 && playerTwoHash != 0x0 */\n      dup1\n      iszero\n      tag_217\n      jumpi\n      pop\n        /* \"contracts/RPS.sol\":5623:5626  0x0 */\n      0x00\n        /* \"contracts/RPS.sol\":5606:5626  playerTwoHash != 0x0 */\n      dup1\n      shl\n        /* \"contracts/RPS.sol\":5606:5619  playerTwoHash */\n      sload(0x05)\n        /* \"contracts/RPS.sol\":5606:5626  playerTwoHash != 0x0 */\n      eq\n      iszero\n        /* \"contracts/RPS.sol\":5582:5626  playerOneHash != 0x0 && playerTwoHash != 0x0 */\n    tag_217:\n        /* \"contracts/RPS.sol\":5574:5627  return (playerOneHash != 0x0 && playerTwoHash != 0x0) */\n      swap1\n      pop\n        /* \"contracts/RPS.sol\":5512:5634  function bothCommitted() public view returns (bool) {... */\n      swap1\n      jump\t// out\n        /* \"contracts/RPS.sol\":2442:2896  function commitMove(bytes32 gameHash) public hasRegistered hashProvided(gameHash) returns (bool) {... */\n    tag_66:\n        /* \"contracts/RPS.sol\":2533:2537  bool */\n      0x00\n        /* \"contracts/RPS.sol\":1114:1123  playerOne */\n      dup1\n      0x00\n      swap1\n      sload\n      swap1\n      0x0100\n      exp\n      swap1\n      div\n      0xffffffffffffffffffffffffffffffffffffffff\n      and\n        /* \"contracts/RPS.sol\":1100:1123  msg.sender == playerOne */\n      0xffffffffffffffffffffffffffffffffffffffff\n      and\n        /* \"contracts/RPS.sol\":1100:1110  msg.sender */\n      caller\n        /* \"contracts/RPS.sol\":1100:1123  msg.sender == playerOne */\n      0xffffffffffffffffffffffffffffffffffffffff\n      and\n      eq\n        /* \"contracts/RPS.sol\":1100:1150  msg.sender == playerOne || msg.sender == playerTwo */\n      dup1\n      tag_219\n      jumpi\n      pop\n        /* \"contracts/RPS.sol\":1141:1150  playerTwo */\n      0x01\n      0x00\n      swap1\n      sload\n      swap1\n      0x0100\n      exp\n      swap1\n      div\n      0xffffffffffffffffffffffffffffffffffffffff\n      and\n        /* \"contracts/RPS.sol\":1127:1150  msg.sender == playerTwo */\n      0xffffffffffffffffffffffffffffffffffffffff\n      and\n        /* \"contracts/RPS.sol\":1127:1137  msg.sender */\n      caller\n        /* \"contracts/RPS.sol\":1127:1150  msg.sender == playerTwo */\n      0xffffffffffffffffffffffffffffffffffffffff\n      and\n      eq\n        /* \"contracts/RPS.sol\":1100:1150  msg.sender == playerOne || msg.sender == playerTwo */\n    tag_219:\n        /* \"contracts/RPS.sol\":1091:1180  require (msg.sender == playerOne || msg.sender == playerTwo, \"Not registered player yet\") */\n      tag_220\n      jumpi\n      mload(0x40)\n      0x08c379a000000000000000000000000000000000000000000000000000000000\n      dup2\n      mstore\n      0x04\n      add\n      tag_221\n      swap1\n      tag_180\n      jump\t// in\n    tag_221:\n      mload(0x40)\n      dup1\n      swap2\n      sub\n      swap1\n      revert\n    tag_220:\n        /* \"contracts/RPS.sol\":2514:2522  gameHash */\n      dup2\n        /* \"contracts/RPS.sol\":1262:1276  gameHash != \"\" */\n      0x00\n        /* \"contracts/RPS.sol\":1262:1270  gameHash */\n      dup2\n        /* \"contracts/RPS.sol\":1262:1276  gameHash != \"\" */\n      eq\n      iszero\n        /* \"contracts/RPS.sol\":1254:1307  require(gameHash != \"\", \"Game hash was not provided\") */\n      tag_223\n      jumpi\n      mload(0x40)\n      0x08c379a000000000000000000000000000000000000000000000000000000000\n      dup2\n      mstore\n      0x04\n      add\n      tag_224\n      swap1\n      tag_225\n      jump\t// in\n    tag_224:\n      mload(0x40)\n      dup1\n      swap2\n      sub\n      swap1\n      revert\n    tag_223:\n        /* \"contracts/RPS.sol\":2567:2576  playerOne */\n      0x00\n      dup1\n      sload\n      swap1\n      0x0100\n      exp\n      swap1\n      div\n      0xffffffffffffffffffffffffffffffffffffffff\n      and\n        /* \"contracts/RPS.sol\":2553:2576  msg.sender == playerOne */\n      0xffffffffffffffffffffffffffffffffffffffff\n      and\n        /* \"contracts/RPS.sol\":2553:2563  msg.sender */\n      caller\n        /* \"contracts/RPS.sol\":2553:2576  msg.sender == playerOne */\n      0xffffffffffffffffffffffffffffffffffffffff\n      and\n      eq\n        /* \"contracts/RPS.sol\":2553:2600  msg.sender == playerOne && playerOneHash == 0x0 */\n      dup1\n      iszero\n      tag_227\n      jumpi\n      pop\n        /* \"contracts/RPS.sol\":2597:2600  0x0 */\n      0x00\n        /* \"contracts/RPS.sol\":2580:2600  playerOneHash == 0x0 */\n      dup1\n      shl\n        /* \"contracts/RPS.sol\":2580:2593  playerOneHash */\n      sload(0x04)\n        /* \"contracts/RPS.sol\":2580:2600  playerOneHash == 0x0 */\n      eq\n        /* \"contracts/RPS.sol\":2553:2600  msg.sender == playerOne && playerOneHash == 0x0 */\n    tag_227:\n        /* \"contracts/RPS.sol\":2549:2838  if (msg.sender == playerOne && playerOneHash == 0x0) {... */\n      iszero\n      tag_228\n      jumpi\n        /* \"contracts/RPS.sol\":2632:2640  gameHash */\n      dup3\n        /* \"contracts/RPS.sol\":2616:2629  playerOneHash */\n      0x04\n        /* \"contracts/RPS.sol\":2616:2640  playerOneHash = gameHash */\n      dup2\n      swap1\n      sstore\n      pop\n        /* \"contracts/RPS.sol\":2549:2838  if (msg.sender == playerOne && playerOneHash == 0x0) {... */\n      jump(tag_229)\n    tag_228:\n        /* \"contracts/RPS.sol\":2675:2684  playerTwo */\n      0x01\n      0x00\n      swap1\n      sload\n      swap1\n      0x0100\n      exp\n      swap1\n      div\n      0xffffffffffffffffffffffffffffffffffffffff\n      and\n        /* \"contracts/RPS.sol\":2661:2684  msg.sender == playerTwo */\n      0xffffffffffffffffffffffffffffffffffffffff\n      and\n        /* \"contracts/RPS.sol\":2661:2671  msg.sender */\n      caller\n        /* \"contracts/RPS.sol\":2661:2684  msg.sender == playerTwo */\n      0xffffffffffffffffffffffffffffffffffffffff\n      and\n      eq\n        /* \"contracts/RPS.sol\":2661:2708  msg.sender == playerTwo && playerTwoHash == 0x0 */\n      dup1\n      iszero\n      tag_230\n      jumpi\n      pop\n        /* \"contracts/RPS.sol\":2705:2708  0x0 */\n      0x00\n        /* \"contracts/RPS.sol\":2688:2708  playerTwoHash == 0x0 */\n      dup1\n      shl\n        /* \"contracts/RPS.sol\":2688:2701  playerTwoHash */\n      sload(0x05)\n        /* \"contracts/RPS.sol\":2688:2708  playerTwoHash == 0x0 */\n      eq\n        /* \"contracts/RPS.sol\":2661:2708  msg.sender == playerTwo && playerTwoHash == 0x0 */\n    tag_230:\n        /* \"contracts/RPS.sol\":2657:2838  if (msg.sender == playerTwo && playerTwoHash == 0x0) {... */\n      iszero\n      tag_231\n      jumpi\n        /* \"contracts/RPS.sol\":2740:2748  gameHash */\n      dup3\n        /* \"contracts/RPS.sol\":2724:2737  playerTwoHash */\n      0x05\n        /* \"contracts/RPS.sol\":2724:2748  playerTwoHash = gameHash */\n      dup2\n      swap1\n      sstore\n      pop\n        /* \"contracts/RPS.sol\":2657:2838  if (msg.sender == playerTwo && playerTwoHash == 0x0) {... */\n      jump(tag_232)\n    tag_231:\n        /* \"contracts/RPS.sol\":2784:2801  GameCommit(false) */\n      0xd0e0eee22af482d2b75b0facf637b601c155f06c6f143b473711527a01110f84\n        /* \"contracts/RPS.sol\":2795:2800  false */\n      0x00\n        /* \"contracts/RPS.sol\":2784:2801  GameCommit(false) */\n      mload(0x40)\n      tag_233\n      swap2\n      swap1\n      tag_30\n      jump\t// in\n    tag_233:\n      mload(0x40)\n      dup1\n      swap2\n      sub\n      swap1\n      log1\n        /* \"contracts/RPS.sol\":2822:2827  false */\n      0x00\n        /* \"contracts/RPS.sol\":2815:2827  return false */\n      swap2\n      pop\n      jump(tag_226)\n        /* \"contracts/RPS.sol\":2657:2838  if (msg.sender == playerTwo && playerTwoHash == 0x0) {... */\n    tag_232:\n        /* \"contracts/RPS.sol\":2549:2838  if (msg.sender == playerOne && playerOneHash == 0x0) {... */\n    tag_229:\n        /* \"contracts/RPS.sol\":2852:2868  GameCommit(true) */\n      0xd0e0eee22af482d2b75b0facf637b601c155f06c6f143b473711527a01110f84\n        /* \"contracts/RPS.sol\":2863:2867  true */\n      0x01\n        /* \"contracts/RPS.sol\":2852:2868  GameCommit(true) */\n      mload(0x40)\n      tag_234\n      swap2\n      swap1\n      tag_30\n      jump\t// in\n    tag_234:\n      mload(0x40)\n      dup1\n      swap2\n      sub\n      swap1\n      log1\n        /* \"contracts/RPS.sol\":2885:2889  true */\n      0x01\n        /* \"contracts/RPS.sol\":2878:2889  return true */\n      swap2\n      pop\n        /* \"contracts/RPS.sol\":1317:1318  _ */\n    tag_226:\n        /* \"contracts/RPS.sol\":1190:1191  _ */\n      pop\n        /* \"contracts/RPS.sol\":2442:2896  function commitMove(bytes32 gameHash) public hasRegistered hashProvided(gameHash) returns (bool) {... */\n      swap2\n      swap1\n      pop\n      jump\t// out\n        /* \"contracts/RPS.sol\":4218:4286  function resetExternal() external onlyOwner {... */\n    tag_70:\n        /* \"contracts/RPS.sol\":1855:1897  0x91cDa83c363A6F72f81A2041836b1e79b4a01Ab1 */\n      0x91cda83c363a6f72f81a2041836b1e79b4a01ab1\n        /* \"contracts/RPS.sol\":1833:1898  msg.sender == address(0x91cDa83c363A6F72f81A2041836b1e79b4a01Ab1) */\n      0xffffffffffffffffffffffffffffffffffffffff\n      and\n        /* \"contracts/RPS.sol\":1833:1843  msg.sender */\n      caller\n        /* \"contracts/RPS.sol\":1833:1898  msg.sender == address(0x91cDa83c363A6F72f81A2041836b1e79b4a01Ab1) */\n      0xffffffffffffffffffffffffffffffffffffffff\n      and\n      eq\n        /* \"contracts/RPS.sol\":1825:1951  require(msg.sender == address(0x91cDa83c363A6F72f81A2041836b1e79b4a01Ab1), \"Only owner of contract is allowed to this method\") */\n      tag_236\n      jumpi\n      mload(0x40)\n      0x08c379a000000000000000000000000000000000000000000000000000000000\n      dup2\n      mstore\n      0x04\n      add\n      tag_237\n      swap1\n      tag_238\n      jump\t// in\n    tag_237:\n      mload(0x40)\n      dup1\n      swap2\n      sub\n      swap1\n      revert\n    tag_236:\n        /* \"contracts/RPS.sol\":4272:4279  reset() */\n      tag_240\n        /* \"contracts/RPS.sol\":4272:4277  reset */\n      tag_136\n        /* \"contracts/RPS.sol\":4272:4279  reset() */\n      jump\t// in\n    tag_240:\n        /* \"contracts/RPS.sol\":4218:4286  function resetExternal() external onlyOwner {... */\n      jump\t// out\n        /* \"contracts/RPS.sol\":4940:5073  function isRegistered(address player) public view returns (bool) {... */\n    tag_74:\n        /* \"contracts/RPS.sol\":4999:5003  bool */\n      0x00\n        /* \"contracts/RPS.sol\":5036:5042  player */\n      dup2\n        /* \"contracts/RPS.sol\":5023:5042  playerOne == player */\n      0xffffffffffffffffffffffffffffffffffffffff\n      and\n        /* \"contracts/RPS.sol\":5023:5032  playerOne */\n      0x00\n      dup1\n      sload\n      swap1\n      0x0100\n      exp\n      swap1\n      div\n      0xffffffffffffffffffffffffffffffffffffffff\n      and\n        /* \"contracts/RPS.sol\":5023:5042  playerOne == player */\n      0xffffffffffffffffffffffffffffffffffffffff\n      and\n      eq\n        /* \"contracts/RPS.sol\":5023:5065  playerOne == player || playerTwo == player */\n      dup1\n      tag_242\n      jumpi\n      pop\n        /* \"contracts/RPS.sol\":5059:5065  player */\n      dup2\n        /* \"contracts/RPS.sol\":5046:5065  playerTwo == player */\n      0xffffffffffffffffffffffffffffffffffffffff\n      and\n        /* \"contracts/RPS.sol\":5046:5055  playerTwo */\n      0x01\n      0x00\n      swap1\n      sload\n      swap1\n      0x0100\n      exp\n      swap1\n      div\n      0xffffffffffffffffffffffffffffffffffffffff\n      and\n        /* \"contracts/RPS.sol\":5046:5065  playerTwo == player */\n      0xffffffffffffffffffffffffffffffffffffffff\n      and\n      eq\n        /* \"contracts/RPS.sol\":5023:5065  playerOne == player || playerTwo == player */\n    tag_242:\n        /* \"contracts/RPS.sol\":5015:5066  return (playerOne == player || playerTwo == player) */\n      swap1\n      pop\n        /* \"contracts/RPS.sol\":4940:5073  function isRegistered(address player) public view returns (bool) {... */\n      swap2\n      swap1\n      pop\n      jump\t// out\n        /* \"contracts/RPS.sol\":5282:5506  function isRevealed(address player) public view returns (bool) {... */\n    tag_79:\n        /* \"contracts/RPS.sol\":5339:5343  bool */\n      0x00\n        /* \"contracts/RPS.sol\":5376:5382  player */\n      dup2\n        /* \"contracts/RPS.sol\":5363:5382  playerOne == player */\n      0xffffffffffffffffffffffffffffffffffffffff\n      and\n        /* \"contracts/RPS.sol\":5363:5372  playerOne */\n      0x00\n      dup1\n      sload\n      swap1\n      0x0100\n      exp\n      swap1\n      div\n      0xffffffffffffffffffffffffffffffffffffffff\n      and\n        /* \"contracts/RPS.sol\":5363:5382  playerOne == player */\n      0xffffffffffffffffffffffffffffffffffffffff\n      and\n      eq\n        /* \"contracts/RPS.sol\":5363:5420  playerOne == player && playerOneChoice != GameChoice.none */\n      dup1\n      iszero\n      tag_244\n      jumpi\n      pop\n        /* \"contracts/RPS.sol\":5405:5420  GameChoice.none */\n      0x00\n        /* \"contracts/RPS.sol\":5386:5420  playerOneChoice != GameChoice.none */\n      0x03\n      dup2\n      gt\n      iszero\n      tag_245\n      jumpi\n      tag_246\n      tag_89\n      jump\t// in\n    tag_246:\n    tag_245:\n        /* \"contracts/RPS.sol\":5386:5401  playerOneChoice */\n      0x03\n      0x01\n      swap1\n      sload\n      swap1\n      0x0100\n      exp\n      swap1\n      div\n      0xff\n      and\n        /* \"contracts/RPS.sol\":5386:5420  playerOneChoice != GameChoice.none */\n      0x03\n      dup2\n      gt\n      iszero\n      tag_247\n      jumpi\n      tag_248\n      tag_89\n      jump\t// in\n    tag_248:\n    tag_247:\n      eq\n      iszero\n        /* \"contracts/RPS.sol\":5363:5420  playerOne == player && playerOneChoice != GameChoice.none */\n    tag_244:\n        /* \"contracts/RPS.sol\":5363:5498  playerOne == player && playerOneChoice != GameChoice.none || ... */\n      dup1\n      tag_249\n      jumpi\n      pop\n        /* \"contracts/RPS.sol\":5454:5460  player */\n      dup2\n        /* \"contracts/RPS.sol\":5441:5460  playerTwo == player */\n      0xffffffffffffffffffffffffffffffffffffffff\n      and\n        /* \"contracts/RPS.sol\":5441:5450  playerTwo */\n      0x01\n      0x00\n      swap1\n      sload\n      swap1\n      0x0100\n      exp\n      swap1\n      div\n      0xffffffffffffffffffffffffffffffffffffffff\n      and\n        /* \"contracts/RPS.sol\":5441:5460  playerTwo == player */\n      0xffffffffffffffffffffffffffffffffffffffff\n      and\n      eq\n        /* \"contracts/RPS.sol\":5441:5498  playerTwo == player && playerTwoChoice != GameChoice.none */\n      dup1\n      iszero\n      tag_250\n      jumpi\n      pop\n        /* \"contracts/RPS.sol\":5483:5498  GameChoice.none */\n      0x00\n        /* \"contracts/RPS.sol\":5464:5498  playerTwoChoice != GameChoice.none */\n      0x03\n      dup2\n      gt\n      iszero\n      tag_251\n      jumpi\n      tag_252\n      tag_89\n      jump\t// in\n    tag_252:\n    tag_251:\n        /* \"contracts/RPS.sol\":5464:5479  playerTwoChoice */\n      0x03\n      0x02\n      swap1\n      sload\n      swap1\n      0x0100\n      exp\n      swap1\n      div\n      0xff\n      and\n        /* \"contracts/RPS.sol\":5464:5498  playerTwoChoice != GameChoice.none */\n      0x03\n      dup2\n      gt\n      iszero\n      tag_253\n      jumpi\n      tag_254\n      tag_89\n      jump\t// in\n    tag_254:\n    tag_253:\n      eq\n      iszero\n        /* \"contracts/RPS.sol\":5441:5498  playerTwo == player && playerTwoChoice != GameChoice.none */\n    tag_250:\n        /* \"contracts/RPS.sol\":5363:5498  playerOne == player && playerOneChoice != GameChoice.none || ... */\n    tag_249:\n        /* \"contracts/RPS.sol\":5355:5499  return (playerOne == player && playerOneChoice != GameChoice.none || ... */\n      swap1\n      pop\n        /* \"contracts/RPS.sol\":5282:5506  function isRevealed(address player) public view returns (bool) {... */\n      swap2\n      swap1\n      pop\n      jump\t// out\n        /* \"contracts/RPS.sol\":4292:4383  function increaseStake(uint addStake) external onlyOwner {... */\n    tag_85:\n        /* \"contracts/RPS.sol\":1855:1897  0x91cDa83c363A6F72f81A2041836b1e79b4a01Ab1 */\n      0x91cda83c363a6f72f81a2041836b1e79b4a01ab1\n        /* \"contracts/RPS.sol\":1833:1898  msg.sender == address(0x91cDa83c363A6F72f81A2041836b1e79b4a01Ab1) */\n      0xffffffffffffffffffffffffffffffffffffffff\n      and\n        /* \"contracts/RPS.sol\":1833:1843  msg.sender */\n      caller\n        /* \"contracts/RPS.sol\":1833:1898  msg.sender == address(0x91cDa83c363A6F72f81A2041836b1e79b4a01Ab1) */\n      0xffffffffffffffffffffffffffffffffffffffff\n      and\n      eq\n        /* \"contracts/RPS.sol\":1825:1951  require(msg.sender == address(0x91cDa83c363A6F72f81A2041836b1e79b4a01Ab1), \"Only owner of contract is allowed to this method\") */\n      tag_256\n      jumpi\n      mload(0x40)\n      0x08c379a000000000000000000000000000000000000000000000000000000000\n      dup2\n      mstore\n      0x04\n      add\n      tag_257\n      swap1\n      tag_238\n      jump\t// in\n    tag_257:\n      mload(0x40)\n      dup1\n      swap2\n      sub\n      swap1\n      revert\n    tag_256:\n        /* \"contracts/RPS.sol\":4368:4376  addStake */\n      dup1\n        /* \"contracts/RPS.sol\":4359:4364  stake */\n      0x02\n      0x00\n        /* \"contracts/RPS.sol\":4359:4376  stake += addStake */\n      dup3\n      dup3\n      sload\n      tag_259\n      swap2\n      swap1\n      tag_106\n      jump\t// in\n    tag_259:\n      swap3\n      pop\n      pop\n      dup2\n      swap1\n      sstore\n      pop\n        /* \"contracts/RPS.sol\":4292:4383  function increaseStake(uint addStake) external onlyOwner {... */\n      pop\n      jump\t// out\n        /* \"contracts/RPS.sol\":4389:4670  function reset() private {... */\n    tag_136:\n        /* \"contracts/RPS.sol\":4432:4433  0 */\n      0x00\n        /* \"contracts/RPS.sol\":4424:4429  stake */\n      0x02\n        /* \"contracts/RPS.sol\":4424:4433  stake = 0 */\n      dup2\n      swap1\n      sstore\n      pop\n        /* \"contracts/RPS.sol\":4471:4474  0x0 */\n      0x00\n        /* \"contracts/RPS.sol\":4443:4452  playerOne */\n      dup1\n      0x00\n        /* \"contracts/RPS.sol\":4443:4476  playerOne = payable(address(0x0)) */\n      0x0100\n      exp\n      dup2\n      sload\n      dup2\n      0xffffffffffffffffffffffffffffffffffffffff\n      mul\n      not\n      and\n      swap1\n      dup4\n      0xffffffffffffffffffffffffffffffffffffffff\n      and\n      mul\n      or\n      swap1\n      sstore\n      pop\n        /* \"contracts/RPS.sol\":4514:4517  0x0 */\n      0x00\n        /* \"contracts/RPS.sol\":4486:4495  playerTwo */\n      0x01\n      0x00\n        /* \"contracts/RPS.sol\":4486:4519  playerTwo = payable(address(0x0)) */\n      0x0100\n      exp\n      dup2\n      sload\n      dup2\n      0xffffffffffffffffffffffffffffffffffffffff\n      mul\n      not\n      and\n      swap1\n      dup4\n      0xffffffffffffffffffffffffffffffffffffffff\n      and\n      mul\n      or\n      swap1\n      sstore\n      pop\n        /* \"contracts/RPS.sol\":4545:4548  0x0 */\n      0x00\n        /* \"contracts/RPS.sol\":4529:4548  playerOneHash = 0x0 */\n      dup1\n      shl\n        /* \"contracts/RPS.sol\":4529:4542  playerOneHash */\n      0x04\n        /* \"contracts/RPS.sol\":4529:4548  playerOneHash = 0x0 */\n      dup2\n      swap1\n      sstore\n      pop\n        /* \"contracts/RPS.sol\":4574:4577  0x0 */\n      0x00\n        /* \"contracts/RPS.sol\":4558:4577  playerTwoHash = 0x0 */\n      dup1\n      shl\n        /* \"contracts/RPS.sol\":4558:4571  playerTwoHash */\n      0x05\n        /* \"contracts/RPS.sol\":4558:4577  playerTwoHash = 0x0 */\n      dup2\n      swap1\n      sstore\n      pop\n        /* \"contracts/RPS.sol\":4605:4620  GameChoice.none */\n      0x00\n        /* \"contracts/RPS.sol\":4587:4602  playerOneChoice */\n      0x03\n      0x01\n        /* \"contracts/RPS.sol\":4587:4620  playerOneChoice = GameChoice.none */\n      0x0100\n      exp\n      dup2\n      sload\n      dup2\n      0xff\n      mul\n      not\n      and\n      swap1\n      dup4\n      0x03\n      dup2\n      gt\n      iszero\n      tag_261\n      jumpi\n      tag_262\n      tag_89\n      jump\t// in\n    tag_262:\n    tag_261:\n      mul\n      or\n      swap1\n      sstore\n      pop\n        /* \"contracts/RPS.sol\":4648:4663  GameChoice.none */\n      0x00\n        /* \"contracts/RPS.sol\":4630:4645  playerTwoChoice */\n      0x03\n      0x02\n        /* \"contracts/RPS.sol\":4630:4663  playerTwoChoice = GameChoice.none */\n      0x0100\n      exp\n      dup2\n      sload\n      dup2\n      0xff\n      mul\n      not\n      and\n      swap1\n      dup4\n      0x03\n      dup2\n      gt\n      iszero\n      tag_263\n      jumpi\n      tag_264\n      tag_89\n      jump\t// in\n    tag_264:\n    tag_263:\n      mul\n      or\n      swap1\n      sstore\n      pop\n        /* \"contracts/RPS.sol\":4389:4670  function reset() private {... */\n      jump\t// out\n        /* \"contracts/RPS.sol\":4680:4826  function getSaltedHash(uint answer, bytes32 salt) internal pure returns (bytes32) {... */\n    tag_194:\n        /* \"contracts/RPS.sol\":4753:4760  bytes32 */\n      0x00\n        /* \"contracts/RPS.sol\":4805:4811  answer */\n      dup3\n        /* \"contracts/RPS.sol\":4813:4817  salt */\n      dup3\n        /* \"contracts/RPS.sol\":4788:4818  abi.encodePacked(answer, salt) */\n      add(0x20, mload(0x40))\n      tag_266\n      swap3\n      swap2\n      swap1\n      tag_267\n      jump\t// in\n    tag_266:\n      mload(0x40)\n      0x20\n      dup2\n      dup4\n      sub\n      sub\n      dup2\n      mstore\n      swap1\n      0x40\n      mstore\n        /* \"contracts/RPS.sol\":4778:4819  keccak256(abi.encodePacked(answer, salt)) */\n      dup1\n      mload\n      swap1\n      0x20\n      add\n      keccak256\n        /* \"contracts/RPS.sol\":4771:4819  return keccak256(abi.encodePacked(answer, salt)) */\n      swap1\n      pop\n        /* \"contracts/RPS.sol\":4680:4826  function getSaltedHash(uint answer, bytes32 salt) internal pure returns (bytes32) {... */\n      swap3\n      swap2\n      pop\n      pop\n      jump\t// out\n        /* \"#utility.yul\":7:146   */\n    tag_269:\n        /* \"#utility.yul\":53:58   */\n      0x00\n        /* \"#utility.yul\":91:97   */\n      dup2\n        /* \"#utility.yul\":78:98   */\n      calldataload\n        /* \"#utility.yul\":69:98   */\n      swap1\n      pop\n        /* \"#utility.yul\":107:140   */\n      tag_271\n        /* \"#utility.yul\":134:139   */\n      dup2\n        /* \"#utility.yul\":107:140   */\n      tag_272\n      jump\t// in\n    tag_271:\n        /* \"#utility.yul\":7:146   */\n      swap3\n      swap2\n      pop\n      pop\n      jump\t// out\n        /* \"#utility.yul\":152:291   */\n    tag_273:\n        /* \"#utility.yul\":198:203   */\n      0x00\n        /* \"#utility.yul\":236:242   */\n      dup2\n        /* \"#utility.yul\":223:243   */\n      calldataload\n        /* \"#utility.yul\":214:243   */\n      swap1\n      pop\n        /* \"#utility.yul\":252:285   */\n      tag_275\n        /* \"#utility.yul\":279:284   */\n      dup2\n        /* \"#utility.yul\":252:285   */\n      tag_276\n      jump\t// in\n    tag_275:\n        /* \"#utility.yul\":152:291   */\n      swap3\n      swap2\n      pop\n      pop\n      jump\t// out\n        /* \"#utility.yul\":297:436   */\n    tag_277:\n        /* \"#utility.yul\":343:348   */\n      0x00\n        /* \"#utility.yul\":381:387   */\n      dup2\n        /* \"#utility.yul\":368:388   */\n      calldataload\n        /* \"#utility.yul\":359:388   */\n      swap1\n      pop\n        /* \"#utility.yul\":397:430   */\n      tag_279\n        /* \"#utility.yul\":424:429   */\n      dup2\n        /* \"#utility.yul\":397:430   */\n      tag_280\n      jump\t// in\n    tag_279:\n        /* \"#utility.yul\":297:436   */\n      swap3\n      swap2\n      pop\n      pop\n      jump\t// out\n        /* \"#utility.yul\":442:771   */\n    tag_27:\n        /* \"#utility.yul\":501:507   */\n      0x00\n        /* \"#utility.yul\":550:552   */\n      0x20\n        /* \"#utility.yul\":538:547   */\n      dup3\n        /* \"#utility.yul\":529:536   */\n      dup5\n        /* \"#utility.yul\":525:548   */\n      sub\n        /* \"#utility.yul\":521:553   */\n      slt\n        /* \"#utility.yul\":518:637   */\n      iszero\n      tag_282\n      jumpi\n        /* \"#utility.yul\":556:635   */\n      tag_283\n      tag_284\n      jump\t// in\n    tag_283:\n        /* \"#utility.yul\":518:637   */\n    tag_282:\n        /* \"#utility.yul\":676:677   */\n      0x00\n        /* \"#utility.yul\":701:754   */\n      tag_285\n        /* \"#utility.yul\":746:753   */\n      dup5\n        /* \"#utility.yul\":737:743   */\n      dup3\n        /* \"#utility.yul\":726:735   */\n      dup6\n        /* \"#utility.yul\":722:744   */\n      add\n        /* \"#utility.yul\":701:754   */\n      tag_269\n      jump\t// in\n    tag_285:\n        /* \"#utility.yul\":691:754   */\n      swap2\n      pop\n        /* \"#utility.yul\":647:764   */\n      pop\n        /* \"#utility.yul\":442:771   */\n      swap3\n      swap2\n      pop\n      pop\n      jump\t// out\n        /* \"#utility.yul\":777:1106   */\n    tag_65:\n        /* \"#utility.yul\":836:842   */\n      0x00\n        /* \"#utility.yul\":885:887   */\n      0x20\n        /* \"#utility.yul\":873:882   */\n      dup3\n        /* \"#utility.yul\":864:871   */\n      dup5\n        /* \"#utility.yul\":860:883   */\n      sub\n        /* \"#utility.yul\":856:888   */\n      slt\n        /* \"#utility.yul\":853:972   */\n      iszero\n      tag_287\n      jumpi\n        /* \"#utility.yul\":891:970   */\n      tag_288\n      tag_284\n      jump\t// in\n    tag_288:\n        /* \"#utility.yul\":853:972   */\n    tag_287:\n        /* \"#utility.yul\":1011:1012   */\n      0x00\n        /* \"#utility.yul\":1036:1089   */\n      tag_289\n        /* \"#utility.yul\":1081:1088   */\n      dup5\n        /* \"#utility.yul\":1072:1078   */\n      dup3\n        /* \"#utility.yul\":1061:1070   */\n      dup6\n        /* \"#utility.yul\":1057:1079   */\n      add\n        /* \"#utility.yul\":1036:1089   */\n      tag_273\n      jump\t// in\n    tag_289:\n        /* \"#utility.yul\":1026:1089   */\n      swap2\n      pop\n        /* \"#utility.yul\":982:1099   */\n      pop\n        /* \"#utility.yul\":777:1106   */\n      swap3\n      swap2\n      pop\n      pop\n      jump\t// out\n        /* \"#utility.yul\":1112:1441   */\n    tag_84:\n        /* \"#utility.yul\":1171:1177   */\n      0x00\n        /* \"#utility.yul\":1220:1222   */\n      0x20\n        /* \"#utility.yul\":1208:1217   */\n      dup3\n        /* \"#utility.yul\":1199:1206   */\n      dup5\n        /* \"#utility.yul\":1195:1218   */\n      sub\n        /* \"#utility.yul\":1191:1223   */\n      slt\n        /* \"#utility.yul\":1188:1307   */\n      iszero\n      tag_291\n      jumpi\n        /* \"#utility.yul\":1226:1305   */\n      tag_292\n      tag_284\n      jump\t// in\n    tag_292:\n        /* \"#utility.yul\":1188:1307   */\n    tag_291:\n        /* \"#utility.yul\":1346:1347   */\n      0x00\n        /* \"#utility.yul\":1371:1424   */\n      tag_293\n        /* \"#utility.yul\":1416:1423   */\n      dup5\n        /* \"#utility.yul\":1407:1413   */\n      dup3\n        /* \"#utility.yul\":1396:1405   */\n      dup6\n        /* \"#utility.yul\":1392:1414   */\n      add\n        /* \"#utility.yul\":1371:1424   */\n      tag_277\n      jump\t// in\n    tag_293:\n        /* \"#utility.yul\":1361:1424   */\n      swap2\n      pop\n        /* \"#utility.yul\":1317:1434   */\n      pop\n        /* \"#utility.yul\":1112:1441   */\n      swap3\n      swap2\n      pop\n      pop\n      jump\t// out\n        /* \"#utility.yul\":1447:1921   */\n    tag_54:\n        /* \"#utility.yul\":1515:1521   */\n      0x00\n        /* \"#utility.yul\":1523:1529   */\n      dup1\n        /* \"#utility.yul\":1572:1574   */\n      0x40\n        /* \"#utility.yul\":1560:1569   */\n      dup4\n        /* \"#utility.yul\":1551:1558   */\n      dup6\n        /* \"#utility.yul\":1547:1570   */\n      sub\n        /* \"#utility.yul\":1543:1575   */\n      slt\n        /* \"#utility.yul\":1540:1659   */\n      iszero\n      tag_295\n      jumpi\n        /* \"#utility.yul\":1578:1657   */\n      tag_296\n      tag_284\n      jump\t// in\n    tag_296:\n        /* \"#utility.yul\":1540:1659   */\n    tag_295:\n        /* \"#utility.yul\":1698:1699   */\n      0x00\n        /* \"#utility.yul\":1723:1776   */\n      tag_297\n        /* \"#utility.yul\":1768:1775   */\n      dup6\n        /* \"#utility.yul\":1759:1765   */\n      dup3\n        /* \"#utility.yul\":1748:1757   */\n      dup7\n        /* \"#utility.yul\":1744:1766   */\n      add\n        /* \"#utility.yul\":1723:1776   */\n      tag_277\n      jump\t// in\n    tag_297:\n        /* \"#utility.yul\":1713:1776   */\n      swap3\n      pop\n        /* \"#utility.yul\":1669:1786   */\n      pop\n        /* \"#utility.yul\":1825:1827   */\n      0x20\n        /* \"#utility.yul\":1851:1904   */\n      tag_298\n        /* \"#utility.yul\":1896:1903   */\n      dup6\n        /* \"#utility.yul\":1887:1893   */\n      dup3\n        /* \"#utility.yul\":1876:1885   */\n      dup7\n        /* \"#utility.yul\":1872:1894   */\n      add\n        /* \"#utility.yul\":1851:1904   */\n      tag_273\n      jump\t// in\n    tag_298:\n        /* \"#utility.yul\":1841:1904   */\n      swap2\n      pop\n        /* \"#utility.yul\":1796:1914   */\n      pop\n        /* \"#utility.yul\":1447:1921   */\n      swap3\n      pop\n      swap3\n      swap1\n      pop\n      jump\t// out\n        /* \"#utility.yul\":1927:2036   */\n    tag_299:\n        /* \"#utility.yul\":2008:2029   */\n      tag_301\n        /* \"#utility.yul\":2023:2028   */\n      dup2\n        /* \"#utility.yul\":2008:2029   */\n      tag_302\n      jump\t// in\n    tag_301:\n        /* \"#utility.yul\":2003:2006   */\n      dup3\n        /* \"#utility.yul\":1996:2030   */\n      mstore\n        /* \"#utility.yul\":1927:2036   */\n      pop\n      pop\n      jump\t// out\n        /* \"#utility.yul\":2042:2199   */\n    tag_303:\n        /* \"#utility.yul\":2147:2192   */\n      tag_305\n        /* \"#utility.yul\":2167:2191   */\n      tag_306\n        /* \"#utility.yul\":2185:2190   */\n      dup3\n        /* \"#utility.yul\":2167:2191   */\n      tag_307\n      jump\t// in\n    tag_306:\n        /* \"#utility.yul\":2147:2192   */\n      tag_308\n      jump\t// in\n    tag_305:\n        /* \"#utility.yul\":2142:2145   */\n      dup3\n        /* \"#utility.yul\":2135:2193   */\n      mstore\n        /* \"#utility.yul\":2042:2199   */\n      pop\n      pop\n      jump\t// out\n        /* \"#utility.yul\":2205:2358   */\n    tag_309:\n        /* \"#utility.yul\":2303:2351   */\n      tag_311\n        /* \"#utility.yul\":2345:2350   */\n      dup2\n        /* \"#utility.yul\":2303:2351   */\n      tag_312\n      jump\t// in\n    tag_311:\n        /* \"#utility.yul\":2298:2301   */\n      dup3\n        /* \"#utility.yul\":2291:2352   */\n      mstore\n        /* \"#utility.yul\":2205:2358   */\n      pop\n      pop\n      jump\t// out\n        /* \"#utility.yul\":2364:2519   */\n    tag_313:\n        /* \"#utility.yul\":2463:2512   */\n      tag_315\n        /* \"#utility.yul\":2506:2511   */\n      dup2\n        /* \"#utility.yul\":2463:2512   */\n      tag_316\n      jump\t// in\n    tag_315:\n        /* \"#utility.yul\":2458:2461   */\n      dup3\n        /* \"#utility.yul\":2451:2513   */\n      mstore\n        /* \"#utility.yul\":2364:2519   */\n      pop\n      pop\n      jump\t// out\n        /* \"#utility.yul\":2525:2672   */\n    tag_317:\n        /* \"#utility.yul\":2620:2665   */\n      tag_319\n        /* \"#utility.yul\":2659:2664   */\n      dup2\n        /* \"#utility.yul\":2620:2665   */\n      tag_320\n      jump\t// in\n    tag_319:\n        /* \"#utility.yul\":2615:2618   */\n      dup3\n        /* \"#utility.yul\":2608:2666   */\n      mstore\n        /* \"#utility.yul\":2525:2672   */\n      pop\n      pop\n      jump\t// out\n        /* \"#utility.yul\":2678:2825   */\n    tag_321:\n        /* \"#utility.yul\":2773:2818   */\n      tag_323\n        /* \"#utility.yul\":2812:2817   */\n      dup2\n        /* \"#utility.yul\":2773:2818   */\n      tag_324\n      jump\t// in\n    tag_323:\n        /* \"#utility.yul\":2768:2771   */\n      dup3\n        /* \"#utility.yul\":2761:2819   */\n      mstore\n        /* \"#utility.yul\":2678:2825   */\n      pop\n      pop\n      jump\t// out\n        /* \"#utility.yul\":2831:2978   */\n    tag_325:\n        /* \"#utility.yul\":2926:2971   */\n      tag_327\n        /* \"#utility.yul\":2965:2970   */\n      dup2\n        /* \"#utility.yul\":2926:2971   */\n      tag_328\n      jump\t// in\n    tag_327:\n        /* \"#utility.yul\":2921:2924   */\n      dup3\n        /* \"#utility.yul\":2914:2972   */\n      mstore\n        /* \"#utility.yul\":2831:2978   */\n      pop\n      pop\n      jump\t// out\n        /* \"#utility.yul\":2984:3350   */\n    tag_329:\n        /* \"#utility.yul\":3126:3129   */\n      0x00\n        /* \"#utility.yul\":3147:3214   */\n      tag_331\n        /* \"#utility.yul\":3211:3213   */\n      0x16\n        /* \"#utility.yul\":3206:3209   */\n      dup4\n        /* \"#utility.yul\":3147:3214   */\n      tag_332\n      jump\t// in\n    tag_331:\n        /* \"#utility.yul\":3140:3214   */\n      swap2\n      pop\n        /* \"#utility.yul\":3223:3316   */\n      tag_333\n        /* \"#utility.yul\":3312:3315   */\n      dup3\n        /* \"#utility.yul\":3223:3316   */\n      tag_334\n      jump\t// in\n    tag_333:\n        /* \"#utility.yul\":3341:3343   */\n      0x20\n        /* \"#utility.yul\":3336:3339   */\n      dup3\n        /* \"#utility.yul\":3332:3344   */\n      add\n        /* \"#utility.yul\":3325:3344   */\n      swap1\n      pop\n        /* \"#utility.yul\":2984:3350   */\n      swap2\n      swap1\n      pop\n      jump\t// out\n        /* \"#utility.yul\":3356:3722   */\n    tag_335:\n        /* \"#utility.yul\":3498:3501   */\n      0x00\n        /* \"#utility.yul\":3519:3586   */\n      tag_337\n        /* \"#utility.yul\":3583:3585   */\n      0x19\n        /* \"#utility.yul\":3578:3581   */\n      dup4\n        /* \"#utility.yul\":3519:3586   */\n      tag_332\n      jump\t// in\n    tag_337:\n        /* \"#utility.yul\":3512:3586   */\n      swap2\n      pop\n        /* \"#utility.yul\":3595:3688   */\n      tag_338\n        /* \"#utility.yul\":3684:3687   */\n      dup3\n        /* \"#utility.yul\":3595:3688   */\n      tag_339\n      jump\t// in\n    tag_338:\n        /* \"#utility.yul\":3713:3715   */\n      0x20\n        /* \"#utility.yul\":3708:3711   */\n      dup3\n        /* \"#utility.yul\":3704:3716   */\n      add\n        /* \"#utility.yul\":3697:3716   */\n      swap1\n      pop\n        /* \"#utility.yul\":3356:3722   */\n      swap2\n      swap1\n      pop\n      jump\t// out\n        /* \"#utility.yul\":3728:4094   */\n    tag_340:\n        /* \"#utility.yul\":3870:3873   */\n      0x00\n        /* \"#utility.yul\":3891:3958   */\n      tag_342\n        /* \"#utility.yul\":3955:3957   */\n      0x22\n        /* \"#utility.yul\":3950:3953   */\n      dup4\n        /* \"#utility.yul\":3891:3958   */\n      tag_332\n      jump\t// in\n    tag_342:\n        /* \"#utility.yul\":3884:3958   */\n      swap2\n      pop\n        /* \"#utility.yul\":3967:4060   */\n      tag_343\n        /* \"#utility.yul\":4056:4059   */\n      dup3\n        /* \"#utility.yul\":3967:4060   */\n      tag_344\n      jump\t// in\n    tag_343:\n        /* \"#utility.yul\":4085:4087   */\n      0x40\n        /* \"#utility.yul\":4080:4083   */\n      dup3\n        /* \"#utility.yul\":4076:4088   */\n      add\n        /* \"#utility.yul\":4069:4088   */\n      swap1\n      pop\n        /* \"#utility.yul\":3728:4094   */\n      swap2\n      swap1\n      pop\n      jump\t// out\n        /* \"#utility.yul\":4100:4466   */\n    tag_345:\n        /* \"#utility.yul\":4242:4245   */\n      0x00\n        /* \"#utility.yul\":4263:4330   */\n      tag_347\n        /* \"#utility.yul\":4327:4329   */\n      0x29\n        /* \"#utility.yul\":4322:4325   */\n      dup4\n        /* \"#utility.yul\":4263:4330   */\n      tag_332\n      jump\t// in\n    tag_347:\n        /* \"#utility.yul\":4256:4330   */\n      swap2\n      pop\n        /* \"#utility.yul\":4339:4432   */\n      tag_348\n        /* \"#utility.yul\":4428:4431   */\n      dup3\n        /* \"#utility.yul\":4339:4432   */\n      tag_349\n      jump\t// in\n    tag_348:\n        /* \"#utility.yul\":4457:4459   */\n      0x40\n        /* \"#utility.yul\":4452:4455   */\n      dup3\n        /* \"#utility.yul\":4448:4460   */\n      add\n        /* \"#utility.yul\":4441:4460   */\n      swap1\n      pop\n        /* \"#utility.yul\":4100:4466   */\n      swap2\n      swap1\n      pop\n      jump\t// out\n        /* \"#utility.yul\":4472:4838   */\n    tag_350:\n        /* \"#utility.yul\":4614:4617   */\n      0x00\n        /* \"#utility.yul\":4635:4702   */\n      tag_352\n        /* \"#utility.yul\":4699:4701   */\n      0x10\n        /* \"#utility.yul\":4694:4697   */\n      dup4\n        /* \"#utility.yul\":4635:4702   */\n      tag_332\n      jump\t// in\n    tag_352:\n        /* \"#utility.yul\":4628:4702   */\n      swap2\n      pop\n        /* \"#utility.yul\":4711:4804   */\n      tag_353\n        /* \"#utility.yul\":4800:4803   */\n      dup3\n        /* \"#utility.yul\":4711:4804   */\n      tag_354\n      jump\t// in\n    tag_353:\n        /* \"#utility.yul\":4829:4831   */\n      0x20\n        /* \"#utility.yul\":4824:4827   */\n      dup3\n        /* \"#utility.yul\":4820:4832   */\n      add\n        /* \"#utility.yul\":4813:4832   */\n      swap1\n      pop\n        /* \"#utility.yul\":4472:4838   */\n      swap2\n      swap1\n      pop\n      jump\t// out\n        /* \"#utility.yul\":4844:5210   */\n    tag_355:\n        /* \"#utility.yul\":4986:4989   */\n      0x00\n        /* \"#utility.yul\":5007:5074   */\n      tag_357\n        /* \"#utility.yul\":5071:5073   */\n      0x2d\n        /* \"#utility.yul\":5066:5069   */\n      dup4\n        /* \"#utility.yul\":5007:5074   */\n      tag_332\n      jump\t// in\n    tag_357:\n        /* \"#utility.yul\":5000:5074   */\n      swap2\n      pop\n        /* \"#utility.yul\":5083:5176   */\n      tag_358\n        /* \"#utility.yul\":5172:5175   */\n      dup3\n        /* \"#utility.yul\":5083:5176   */\n      tag_359\n      jump\t// in\n    tag_358:\n        /* \"#utility.yul\":5201:5203   */\n      0x40\n        /* \"#utility.yul\":5196:5199   */\n      dup3\n        /* \"#utility.yul\":5192:5204   */\n      add\n        /* \"#utility.yul\":5185:5204   */\n      swap1\n      pop\n        /* \"#utility.yul\":4844:5210   */\n      swap2\n      swap1\n      pop\n      jump\t// out\n        /* \"#utility.yul\":5216:5582   */\n    tag_360:\n        /* \"#utility.yul\":5358:5361   */\n      0x00\n        /* \"#utility.yul\":5379:5446   */\n      tag_362\n        /* \"#utility.yul\":5443:5445   */\n      0x1a\n        /* \"#utility.yul\":5438:5441   */\n      dup4\n        /* \"#utility.yul\":5379:5446   */\n      tag_332\n      jump\t// in\n    tag_362:\n        /* \"#utility.yul\":5372:5446   */\n      swap2\n      pop\n        /* \"#utility.yul\":5455:5548   */\n      tag_363\n        /* \"#utility.yul\":5544:5547   */\n      dup3\n        /* \"#utility.yul\":5455:5548   */\n      tag_364\n      jump\t// in\n    tag_363:\n        /* \"#utility.yul\":5573:5575   */\n      0x20\n        /* \"#utility.yul\":5568:5571   */\n      dup3\n        /* \"#utility.yul\":5564:5576   */\n      add\n        /* \"#utility.yul\":5557:5576   */\n      swap1\n      pop\n        /* \"#utility.yul\":5216:5582   */\n      swap2\n      swap1\n      pop\n      jump\t// out\n        /* \"#utility.yul\":5588:5954   */\n    tag_365:\n        /* \"#utility.yul\":5730:5733   */\n      0x00\n        /* \"#utility.yul\":5751:5818   */\n      tag_367\n        /* \"#utility.yul\":5815:5817   */\n      0x11\n        /* \"#utility.yul\":5810:5813   */\n      dup4\n        /* \"#utility.yul\":5751:5818   */\n      tag_332\n      jump\t// in\n    tag_367:\n        /* \"#utility.yul\":5744:5818   */\n      swap2\n      pop\n        /* \"#utility.yul\":5827:5920   */\n      tag_368\n        /* \"#utility.yul\":5916:5919   */\n      dup3\n        /* \"#utility.yul\":5827:5920   */\n      tag_369\n      jump\t// in\n    tag_368:\n        /* \"#utility.yul\":5945:5947   */\n      0x20\n        /* \"#utility.yul\":5940:5943   */\n      dup3\n        /* \"#utility.yul\":5936:5948   */\n      add\n        /* \"#utility.yul\":5929:5948   */\n      swap1\n      pop\n        /* \"#utility.yul\":5588:5954   */\n      swap2\n      swap1\n      pop\n      jump\t// out\n        /* \"#utility.yul\":5960:6326   */\n    tag_370:\n        /* \"#utility.yul\":6102:6105   */\n      0x00\n        /* \"#utility.yul\":6123:6190   */\n      tag_372\n        /* \"#utility.yul\":6187:6189   */\n      0x22\n        /* \"#utility.yul\":6182:6185   */\n      dup4\n        /* \"#utility.yul\":6123:6190   */\n      tag_332\n      jump\t// in\n    tag_372:\n        /* \"#utility.yul\":6116:6190   */\n      swap2\n      pop\n        /* \"#utility.yul\":6199:6292   */\n      tag_373\n        /* \"#utility.yul\":6288:6291   */\n      dup3\n        /* \"#utility.yul\":6199:6292   */\n      tag_374\n      jump\t// in\n    tag_373:\n        /* \"#utility.yul\":6317:6319   */\n      0x40\n        /* \"#utility.yul\":6312:6315   */\n      dup3\n        /* \"#utility.yul\":6308:6320   */\n      add\n        /* \"#utility.yul\":6301:6320   */\n      swap1\n      pop\n        /* \"#utility.yul\":5960:6326   */\n      swap2\n      swap1\n      pop\n      jump\t// out\n        /* \"#utility.yul\":6332:6698   */\n    tag_375:\n        /* \"#utility.yul\":6474:6477   */\n      0x00\n        /* \"#utility.yul\":6495:6562   */\n      tag_377\n        /* \"#utility.yul\":6559:6561   */\n      0x30\n        /* \"#utility.yul\":6554:6557   */\n      dup4\n        /* \"#utility.yul\":6495:6562   */\n      tag_332\n      jump\t// in\n    tag_377:\n        /* \"#utility.yul\":6488:6562   */\n      swap2\n      pop\n        /* \"#utility.yul\":6571:6664   */\n      tag_378\n        /* \"#utility.yul\":6660:6663   */\n      dup3\n        /* \"#utility.yul\":6571:6664   */\n      tag_379\n      jump\t// in\n    tag_378:\n        /* \"#utility.yul\":6689:6691   */\n      0x40\n        /* \"#utility.yul\":6684:6687   */\n      dup3\n        /* \"#utility.yul\":6680:6692   */\n      add\n        /* \"#utility.yul\":6673:6692   */\n      swap1\n      pop\n        /* \"#utility.yul\":6332:6698   */\n      swap2\n      swap1\n      pop\n      jump\t// out\n        /* \"#utility.yul\":6704:7070   */\n    tag_380:\n        /* \"#utility.yul\":6846:6849   */\n      0x00\n        /* \"#utility.yul\":6867:6934   */\n      tag_382\n        /* \"#utility.yul\":6931:6933   */\n      0x16\n        /* \"#utility.yul\":6926:6929   */\n      dup4\n        /* \"#utility.yul\":6867:6934   */\n      tag_332\n      jump\t// in\n    tag_382:\n        /* \"#utility.yul\":6860:6934   */\n      swap2\n      pop\n        /* \"#utility.yul\":6943:7036   */\n      tag_383\n        /* \"#utility.yul\":7032:7035   */\n      dup3\n        /* \"#utility.yul\":6943:7036   */\n      tag_384\n      jump\t// in\n    tag_383:\n        /* \"#utility.yul\":7061:7063   */\n      0x20\n        /* \"#utility.yul\":7056:7059   */\n      dup3\n        /* \"#utility.yul\":7052:7064   */\n      add\n        /* \"#utility.yul\":7045:7064   */\n      swap1\n      pop\n        /* \"#utility.yul\":6704:7070   */\n      swap2\n      swap1\n      pop\n      jump\t// out\n        /* \"#utility.yul\":7076:7194   */\n    tag_385:\n        /* \"#utility.yul\":7163:7187   */\n      tag_387\n        /* \"#utility.yul\":7181:7186   */\n      dup2\n        /* \"#utility.yul\":7163:7187   */\n      tag_388\n      jump\t// in\n    tag_387:\n        /* \"#utility.yul\":7158:7161   */\n      dup3\n        /* \"#utility.yul\":7151:7188   */\n      mstore\n        /* \"#utility.yul\":7076:7194   */\n      pop\n      pop\n      jump\t// out\n        /* \"#utility.yul\":7200:7357   */\n    tag_389:\n        /* \"#utility.yul\":7305:7350   */\n      tag_391\n        /* \"#utility.yul\":7325:7349   */\n      tag_392\n        /* \"#utility.yul\":7343:7348   */\n      dup3\n        /* \"#utility.yul\":7325:7349   */\n      tag_388\n      jump\t// in\n    tag_392:\n        /* \"#utility.yul\":7305:7350   */\n      tag_393\n      jump\t// in\n    tag_391:\n        /* \"#utility.yul\":7300:7303   */\n      dup3\n        /* \"#utility.yul\":7293:7351   */\n      mstore\n        /* \"#utility.yul\":7200:7357   */\n      pop\n      pop\n      jump\t// out\n        /* \"#utility.yul\":7363:7760   */\n    tag_267:\n        /* \"#utility.yul\":7503:7506   */\n      0x00\n        /* \"#utility.yul\":7518:7593   */\n      tag_395\n        /* \"#utility.yul\":7589:7592   */\n      dup3\n        /* \"#utility.yul\":7580:7586   */\n      dup6\n        /* \"#utility.yul\":7518:7593   */\n      tag_389\n      jump\t// in\n    tag_395:\n        /* \"#utility.yul\":7618:7620   */\n      0x20\n        /* \"#utility.yul\":7613:7616   */\n      dup3\n        /* \"#utility.yul\":7609:7621   */\n      add\n        /* \"#utility.yul\":7602:7621   */\n      swap2\n      pop\n        /* \"#utility.yul\":7631:7706   */\n      tag_396\n        /* \"#utility.yul\":7702:7705   */\n      dup3\n        /* \"#utility.yul\":7693:7699   */\n      dup5\n        /* \"#utility.yul\":7631:7706   */\n      tag_303\n      jump\t// in\n    tag_396:\n        /* \"#utility.yul\":7731:7733   */\n      0x20\n        /* \"#utility.yul\":7726:7729   */\n      dup3\n        /* \"#utility.yul\":7722:7734   */\n      add\n        /* \"#utility.yul\":7715:7734   */\n      swap2\n      pop\n        /* \"#utility.yul\":7751:7754   */\n      dup2\n        /* \"#utility.yul\":7744:7754   */\n      swap1\n      pop\n        /* \"#utility.yul\":7363:7760   */\n      swap4\n      swap3\n      pop\n      pop\n      pop\n      jump\t// out\n        /* \"#utility.yul\":7766:7976   */\n    tag_30:\n        /* \"#utility.yul\":7853:7857   */\n      0x00\n        /* \"#utility.yul\":7891:7893   */\n      0x20\n        /* \"#utility.yul\":7880:7889   */\n      dup3\n        /* \"#utility.yul\":7876:7894   */\n      add\n        /* \"#utility.yul\":7868:7894   */\n      swap1\n      pop\n        /* \"#utility.yul\":7904:7969   */\n      tag_398\n        /* \"#utility.yul\":7966:7967   */\n      0x00\n        /* \"#utility.yul\":7955:7964   */\n      dup4\n        /* \"#utility.yul\":7951:7968   */\n      add\n        /* \"#utility.yul\":7942:7948   */\n      dup5\n        /* \"#utility.yul\":7904:7969   */\n      tag_299\n      jump\t// in\n    tag_398:\n        /* \"#utility.yul\":7766:7976   */\n      swap3\n      swap2\n      pop\n      pop\n      jump\t// out\n        /* \"#utility.yul\":7982:8226   */\n    tag_57:\n        /* \"#utility.yul\":8086:8090   */\n      0x00\n        /* \"#utility.yul\":8124:8126   */\n      0x20\n        /* \"#utility.yul\":8113:8122   */\n      dup3\n        /* \"#utility.yul\":8109:8127   */\n      add\n        /* \"#utility.yul\":8101:8127   */\n      swap1\n      pop\n        /* \"#utility.yul\":8137:8219   */\n      tag_400\n        /* \"#utility.yul\":8216:8217   */\n      0x00\n        /* \"#utility.yul\":8205:8214   */\n      dup4\n        /* \"#utility.yul\":8201:8218   */\n      add\n        /* \"#utility.yul\":8192:8198   */\n      dup5\n        /* \"#utility.yul\":8137:8219   */\n      tag_309\n      jump\t// in\n    tag_400:\n        /* \"#utility.yul\":7982:8226   */\n      swap3\n      swap2\n      pop\n      pop\n      jump\t// out\n        /* \"#utility.yul\":8232:8478   */\n    tag_23:\n        /* \"#utility.yul\":8337:8341   */\n      0x00\n        /* \"#utility.yul\":8375:8377   */\n      0x20\n        /* \"#utility.yul\":8364:8373   */\n      dup3\n        /* \"#utility.yul\":8360:8378   */\n      add\n        /* \"#utility.yul\":8352:8378   */\n      swap1\n      pop\n        /* \"#utility.yul\":8388:8471   */\n      tag_402\n        /* \"#utility.yul\":8468:8469   */\n      0x00\n        /* \"#utility.yul\":8457:8466   */\n      dup4\n        /* \"#utility.yul\":8453:8470   */\n      add\n        /* \"#utility.yul\":8444:8450   */\n      dup5\n        /* \"#utility.yul\":8388:8471   */\n      tag_313\n      jump\t// in\n    tag_402:\n        /* \"#utility.yul\":8232:8478   */\n      swap3\n      swap2\n      pop\n      pop\n      jump\t// out\n        /* \"#utility.yul\":8484:8722   */\n    tag_164:\n        /* \"#utility.yul\":8585:8589   */\n      0x00\n        /* \"#utility.yul\":8623:8625   */\n      0x20\n        /* \"#utility.yul\":8612:8621   */\n      dup3\n        /* \"#utility.yul\":8608:8626   */\n      add\n        /* \"#utility.yul\":8600:8626   */\n      swap1\n      pop\n        /* \"#utility.yul\":8636:8715   */\n      tag_404\n        /* \"#utility.yul\":8712:8713   */\n      0x00\n        /* \"#utility.yul\":8701:8710   */\n      dup4\n        /* \"#utility.yul\":8697:8714   */\n      add\n        /* \"#utility.yul\":8688:8694   */\n      dup5\n        /* \"#utility.yul\":8636:8715   */\n      tag_317\n      jump\t// in\n    tag_404:\n        /* \"#utility.yul\":8484:8722   */\n      swap3\n      swap2\n      pop\n      pop\n      jump\t// out\n        /* \"#utility.yul\":8728:8966   */\n    tag_158:\n        /* \"#utility.yul\":8829:8833   */\n      0x00\n        /* \"#utility.yul\":8867:8869   */\n      0x20\n        /* \"#utility.yul\":8856:8865   */\n      dup3\n        /* \"#utility.yul\":8852:8870   */\n      add\n        /* \"#utility.yul\":8844:8870   */\n      swap1\n      pop\n        /* \"#utility.yul\":8880:8959   */\n      tag_406\n        /* \"#utility.yul\":8956:8957   */\n      0x00\n        /* \"#utility.yul\":8945:8954   */\n      dup4\n        /* \"#utility.yul\":8941:8958   */\n      add\n        /* \"#utility.yul\":8932:8938   */\n      dup5\n        /* \"#utility.yul\":8880:8959   */\n      tag_321\n      jump\t// in\n    tag_406:\n        /* \"#utility.yul\":8728:8966   */\n      swap3\n      swap2\n      pop\n      pop\n      jump\t// out\n        /* \"#utility.yul\":8972:9210   */\n    tag_162:\n        /* \"#utility.yul\":9073:9077   */\n      0x00\n        /* \"#utility.yul\":9111:9113   */\n      0x20\n        /* \"#utility.yul\":9100:9109   */\n      dup3\n        /* \"#utility.yul\":9096:9114   */\n      add\n        /* \"#utility.yul\":9088:9114   */\n      swap1\n      pop\n        /* \"#utility.yul\":9124:9203   */\n      tag_408\n        /* \"#utility.yul\":9200:9201   */\n      0x00\n        /* \"#utility.yul\":9189:9198   */\n      dup4\n        /* \"#utility.yul\":9185:9202   */\n      add\n        /* \"#utility.yul\":9176:9182   */\n      dup5\n        /* \"#utility.yul\":9124:9203   */\n      tag_325\n      jump\t// in\n    tag_408:\n        /* \"#utility.yul\":8972:9210   */\n      swap3\n      swap2\n      pop\n      pop\n      jump\t// out\n        /* \"#utility.yul\":9216:9635   */\n    tag_215:\n        /* \"#utility.yul\":9382:9386   */\n      0x00\n        /* \"#utility.yul\":9420:9422   */\n      0x20\n        /* \"#utility.yul\":9409:9418   */\n      dup3\n        /* \"#utility.yul\":9405:9423   */\n      add\n        /* \"#utility.yul\":9397:9423   */\n      swap1\n      pop\n        /* \"#utility.yul\":9469:9478   */\n      dup2\n        /* \"#utility.yul\":9463:9467   */\n      dup2\n        /* \"#utility.yul\":9459:9479   */\n      sub\n        /* \"#utility.yul\":9455:9456   */\n      0x00\n        /* \"#utility.yul\":9444:9453   */\n      dup4\n        /* \"#utility.yul\":9440:9457   */\n      add\n        /* \"#utility.yul\":9433:9480   */\n      mstore\n        /* \"#utility.yul\":9497:9628   */\n      tag_410\n        /* \"#utility.yul\":9623:9627   */\n      dup2\n        /* \"#utility.yul\":9497:9628   */\n      tag_329\n      jump\t// in\n    tag_410:\n        /* \"#utility.yul\":9489:9628   */\n      swap1\n      pop\n        /* \"#utility.yul\":9216:9635   */\n      swap2\n      swap1\n      pop\n      jump\t// out\n        /* \"#utility.yul\":9641:10060   */\n    tag_180:\n        /* \"#utility.yul\":9807:9811   */\n      0x00\n        /* \"#utility.yul\":9845:9847   */\n      0x20\n        /* \"#utility.yul\":9834:9843   */\n      dup3\n        /* \"#utility.yul\":9830:9848   */\n      add\n        /* \"#utility.yul\":9822:9848   */\n      swap1\n      pop\n        /* \"#utility.yul\":9894:9903   */\n      dup2\n        /* \"#utility.yul\":9888:9892   */\n      dup2\n        /* \"#utility.yul\":9884:9904   */\n      sub\n        /* \"#utility.yul\":9880:9881   */\n      0x00\n        /* \"#utility.yul\":9869:9878   */\n      dup4\n        /* \"#utility.yul\":9865:9882   */\n      add\n        /* \"#utility.yul\":9858:9905   */\n      mstore\n        /* \"#utility.yul\":9922:10053   */\n      tag_412\n        /* \"#utility.yul\":10048:10052   */\n      dup2\n        /* \"#utility.yul\":9922:10053   */\n      tag_335\n      jump\t// in\n    tag_412:\n        /* \"#utility.yul\":9914:10053   */\n      swap1\n      pop\n        /* \"#utility.yul\":9641:10060   */\n      swap2\n      swap1\n      pop\n      jump\t// out\n        /* \"#utility.yul\":10066:10485   */\n    tag_154:\n        /* \"#utility.yul\":10232:10236   */\n      0x00\n        /* \"#utility.yul\":10270:10272   */\n      0x20\n        /* \"#utility.yul\":10259:10268   */\n      dup3\n        /* \"#utility.yul\":10255:10273   */\n      add\n        /* \"#utility.yul\":10247:10273   */\n      swap1\n      pop\n        /* \"#utility.yul\":10319:10328   */\n      dup2\n        /* \"#utility.yul\":10313:10317   */\n      dup2\n        /* \"#utility.yul\":10309:10329   */\n      sub\n        /* \"#utility.yul\":10305:10306   */\n      0x00\n        /* \"#utility.yul\":10294:10303   */\n      dup4\n        /* \"#utility.yul\":10290:10307   */\n      add\n        /* \"#utility.yul\":10283:10330   */\n      mstore\n        /* \"#utility.yul\":10347:10478   */\n      tag_414\n        /* \"#utility.yul\":10473:10477   */\n      dup2\n        /* \"#utility.yul\":10347:10478   */\n      tag_340\n      jump\t// in\n    tag_414:\n        /* \"#utility.yul\":10339:10478   */\n      swap1\n      pop\n        /* \"#utility.yul\":10066:10485   */\n      swap2\n      swap1\n      pop\n      jump\t// out\n        /* \"#utility.yul\":10491:10910   */\n    tag_99:\n        /* \"#utility.yul\":10657:10661   */\n      0x00\n        /* \"#utility.yul\":10695:10697   */\n      0x20\n        /* \"#utility.yul\":10684:10693   */\n      dup3\n        /* \"#utility.yul\":10680:10698   */\n      add\n        /* \"#utility.yul\":10672:10698   */\n      swap1\n      pop\n        /* \"#utility.yul\":10744:10753   */\n      dup2\n        /* \"#utility.yul\":10738:10742   */\n      dup2\n        /* \"#utility.yul\":10734:10754   */\n      sub\n        /* \"#utility.yul\":10730:10731   */\n      0x00\n        /* \"#utility.yul\":10719:10728   */\n      dup4\n        /* \"#utility.yul\":10715:10732   */\n      add\n        /* \"#utility.yul\":10708:10755   */\n      mstore\n        /* \"#utility.yul\":10772:10903   */\n      tag_416\n        /* \"#utility.yul\":10898:10902   */\n      dup2\n        /* \"#utility.yul\":10772:10903   */\n      tag_345\n      jump\t// in\n    tag_416:\n        /* \"#utility.yul\":10764:10903   */\n      swap1\n      pop\n        /* \"#utility.yul\":10491:10910   */\n      swap2\n      swap1\n      pop\n      jump\t// out\n        /* \"#utility.yul\":10916:11335   */\n    tag_185:\n        /* \"#utility.yul\":11082:11086   */\n      0x00\n        /* \"#utility.yul\":11120:11122   */\n      0x20\n        /* \"#utility.yul\":11109:11118   */\n      dup3\n        /* \"#utility.yul\":11105:11123   */\n      add\n        /* \"#utility.yul\":11097:11123   */\n      swap1\n      pop\n        /* \"#utility.yul\":11169:11178   */\n      dup2\n        /* \"#utility.yul\":11163:11167   */\n      dup2\n        /* \"#utility.yul\":11159:11179   */\n      sub\n        /* \"#utility.yul\":11155:11156   */\n      0x00\n        /* \"#utility.yul\":11144:11153   */\n      dup4\n        /* \"#utility.yul\":11140:11157   */\n      add\n        /* \"#utility.yul\":11133:11180   */\n      mstore\n        /* \"#utility.yul\":11197:11328   */\n      tag_418\n        /* \"#utility.yul\":11323:11327   */\n      dup2\n        /* \"#utility.yul\":11197:11328   */\n      tag_350\n      jump\t// in\n    tag_418:\n        /* \"#utility.yul\":11189:11328   */\n      swap1\n      pop\n        /* \"#utility.yul\":10916:11335   */\n      swap2\n      swap1\n      pop\n      jump\t// out\n        /* \"#utility.yul\":11341:11760   */\n    tag_190:\n        /* \"#utility.yul\":11507:11511   */\n      0x00\n        /* \"#utility.yul\":11545:11547   */\n      0x20\n        /* \"#utility.yul\":11534:11543   */\n      dup3\n        /* \"#utility.yul\":11530:11548   */\n      add\n        /* \"#utility.yul\":11522:11548   */\n      swap1\n      pop\n        /* \"#utility.yul\":11594:11603   */\n      dup2\n        /* \"#utility.yul\":11588:11592   */\n      dup2\n        /* \"#utility.yul\":11584:11604   */\n      sub\n        /* \"#utility.yul\":11580:11581   */\n      0x00\n        /* \"#utility.yul\":11569:11578   */\n      dup4\n        /* \"#utility.yul\":11565:11582   */\n      add\n        /* \"#utility.yul\":11558:11605   */\n      mstore\n        /* \"#utility.yul\":11622:11753   */\n      tag_420\n        /* \"#utility.yul\":11748:11752   */\n      dup2\n        /* \"#utility.yul\":11622:11753   */\n      tag_355\n      jump\t// in\n    tag_420:\n        /* \"#utility.yul\":11614:11753   */\n      swap1\n      pop\n        /* \"#utility.yul\":11341:11760   */\n      swap2\n      swap1\n      pop\n      jump\t// out\n        /* \"#utility.yul\":11766:12185   */\n    tag_225:\n        /* \"#utility.yul\":11932:11936   */\n      0x00\n        /* \"#utility.yul\":11970:11972   */\n      0x20\n        /* \"#utility.yul\":11959:11968   */\n      dup3\n        /* \"#utility.yul\":11955:11973   */\n      add\n        /* \"#utility.yul\":11947:11973   */\n      swap1\n      pop\n        /* \"#utility.yul\":12019:12028   */\n      dup2\n        /* \"#utility.yul\":12013:12017   */\n      dup2\n        /* \"#utility.yul\":12009:12029   */\n      sub\n        /* \"#utility.yul\":12005:12006   */\n      0x00\n        /* \"#utility.yul\":11994:12003   */\n      dup4\n        /* \"#utility.yul\":11990:12007   */\n      add\n        /* \"#utility.yul\":11983:12030   */\n      mstore\n        /* \"#utility.yul\":12047:12178   */\n      tag_422\n        /* \"#utility.yul\":12173:12177   */\n      dup2\n        /* \"#utility.yul\":12047:12178   */\n      tag_360\n      jump\t// in\n    tag_422:\n        /* \"#utility.yul\":12039:12178   */\n      swap1\n      pop\n        /* \"#utility.yul\":11766:12185   */\n      swap2\n      swap1\n      pop\n      jump\t// out\n        /* \"#utility.yul\":12191:12610   */\n    tag_197:\n        /* \"#utility.yul\":12357:12361   */\n      0x00\n        /* \"#utility.yul\":12395:12397   */\n      0x20\n        /* \"#utility.yul\":12384:12393   */\n      dup3\n        /* \"#utility.yul\":12380:12398   */\n      add\n        /* \"#utility.yul\":12372:12398   */\n      swap1\n      pop\n        /* \"#utility.yul\":12444:12453   */\n      dup2\n        /* \"#utility.yul\":12438:12442   */\n      dup2\n        /* \"#utility.yul\":12434:12454   */\n      sub\n        /* \"#utility.yul\":12430:12431   */\n      0x00\n        /* \"#utility.yul\":12419:12428   */\n      dup4\n        /* \"#utility.yul\":12415:12432   */\n      add\n        /* \"#utility.yul\":12408:12455   */\n      mstore\n        /* \"#utility.yul\":12472:12603   */\n      tag_424\n        /* \"#utility.yul\":12598:12602   */\n      dup2\n        /* \"#utility.yul\":12472:12603   */\n      tag_365\n      jump\t// in\n    tag_424:\n        /* \"#utility.yul\":12464:12603   */\n      swap1\n      pop\n        /* \"#utility.yul\":12191:12610   */\n      swap2\n      swap1\n      pop\n      jump\t// out\n        /* \"#utility.yul\":12616:13035   */\n    tag_145:\n        /* \"#utility.yul\":12782:12786   */\n      0x00\n        /* \"#utility.yul\":12820:12822   */\n      0x20\n        /* \"#utility.yul\":12809:12818   */\n      dup3\n        /* \"#utility.yul\":12805:12823   */\n      add\n        /* \"#utility.yul\":12797:12823   */\n      swap1\n      pop\n        /* \"#utility.yul\":12869:12878   */\n      dup2\n        /* \"#utility.yul\":12863:12867   */\n      dup2\n        /* \"#utility.yul\":12859:12879   */\n      sub\n        /* \"#utility.yul\":12855:12856   */\n      0x00\n        /* \"#utility.yul\":12844:12853   */\n      dup4\n        /* \"#utility.yul\":12840:12857   */\n      add\n        /* \"#utility.yul\":12833:12880   */\n      mstore\n        /* \"#utility.yul\":12897:13028   */\n      tag_426\n        /* \"#utility.yul\":13023:13027   */\n      dup2\n        /* \"#utility.yul\":12897:13028   */\n      tag_370\n      jump\t// in\n    tag_426:\n        /* \"#utility.yul\":12889:13028   */\n      swap1\n      pop\n        /* \"#utility.yul\":12616:13035   */\n      swap2\n      swap1\n      pop\n      jump\t// out\n        /* \"#utility.yul\":13041:13460   */\n    tag_238:\n        /* \"#utility.yul\":13207:13211   */\n      0x00\n        /* \"#utility.yul\":13245:13247   */\n      0x20\n        /* \"#utility.yul\":13234:13243   */\n      dup3\n        /* \"#utility.yul\":13230:13248   */\n      add\n        /* \"#utility.yul\":13222:13248   */\n      swap1\n      pop\n        /* \"#utility.yul\":13294:13303   */\n      dup2\n        /* \"#utility.yul\":13288:13292   */\n      dup2\n        /* \"#utility.yul\":13284:13304   */\n      sub\n        /* \"#utility.yul\":13280:13281   */\n      0x00\n        /* \"#utility.yul\":13269:13278   */\n      dup4\n        /* \"#utility.yul\":13265:13282   */\n      add\n        /* \"#utility.yul\":13258:13305   */\n      mstore\n        /* \"#utility.yul\":13322:13453   */\n      tag_428\n        /* \"#utility.yul\":13448:13452   */\n      dup2\n        /* \"#utility.yul\":13322:13453   */\n      tag_375\n      jump\t// in\n    tag_428:\n        /* \"#utility.yul\":13314:13453   */\n      swap1\n      pop\n        /* \"#utility.yul\":13041:13460   */\n      swap2\n      swap1\n      pop\n      jump\t// out\n        /* \"#utility.yul\":13466:13885   */\n    tag_149:\n        /* \"#utility.yul\":13632:13636   */\n      0x00\n        /* \"#utility.yul\":13670:13672   */\n      0x20\n        /* \"#utility.yul\":13659:13668   */\n      dup3\n        /* \"#utility.yul\":13655:13673   */\n      add\n        /* \"#utility.yul\":13647:13673   */\n      swap1\n      pop\n        /* \"#utility.yul\":13719:13728   */\n      dup2\n        /* \"#utility.yul\":13713:13717   */\n      dup2\n        /* \"#utility.yul\":13709:13729   */\n      sub\n        /* \"#utility.yul\":13705:13706   */\n      0x00\n        /* \"#utility.yul\":13694:13703   */\n      dup4\n        /* \"#utility.yul\":13690:13707   */\n      add\n        /* \"#utility.yul\":13683:13730   */\n      mstore\n        /* \"#utility.yul\":13747:13878   */\n      tag_430\n        /* \"#utility.yul\":13873:13877   */\n      dup2\n        /* \"#utility.yul\":13747:13878   */\n      tag_380\n      jump\t// in\n    tag_430:\n        /* \"#utility.yul\":13739:13878   */\n      swap1\n      pop\n        /* \"#utility.yul\":13466:13885   */\n      swap2\n      swap1\n      pop\n      jump\t// out\n        /* \"#utility.yul\":13891:14113   */\n    tag_34:\n        /* \"#utility.yul\":13984:13988   */\n      0x00\n        /* \"#utility.yul\":14022:14024   */\n      0x20\n        /* \"#utility.yul\":14011:14020   */\n      dup3\n        /* \"#utility.yul\":14007:14025   */\n      add\n        /* \"#utility.yul\":13999:14025   */\n      swap1\n      pop\n        /* \"#utility.yul\":14035:14106   */\n      tag_432\n        /* \"#utility.yul\":14103:14104   */\n      0x00\n        /* \"#utility.yul\":14092:14101   */\n      dup4\n        /* \"#utility.yul\":14088:14105   */\n      add\n        /* \"#utility.yul\":14079:14085   */\n      dup5\n        /* \"#utility.yul\":14035:14106   */\n      tag_385\n      jump\t// in\n    tag_432:\n        /* \"#utility.yul\":13891:14113   */\n      swap3\n      swap2\n      pop\n      pop\n      jump\t// out\n        /* \"#utility.yul\":14200:14369   */\n    tag_332:\n        /* \"#utility.yul\":14284:14295   */\n      0x00\n        /* \"#utility.yul\":14318:14324   */\n      dup3\n        /* \"#utility.yul\":14313:14316   */\n      dup3\n        /* \"#utility.yul\":14306:14325   */\n      mstore\n        /* \"#utility.yul\":14358:14362   */\n      0x20\n        /* \"#utility.yul\":14353:14356   */\n      dup3\n        /* \"#utility.yul\":14349:14363   */\n      add\n        /* \"#utility.yul\":14334:14363   */\n      swap1\n      pop\n        /* \"#utility.yul\":14200:14369   */\n      swap3\n      swap2\n      pop\n      pop\n      jump\t// out\n        /* \"#utility.yul\":14375:14680   */\n    tag_106:\n        /* \"#utility.yul\":14415:14418   */\n      0x00\n        /* \"#utility.yul\":14434:14454   */\n      tag_437\n        /* \"#utility.yul\":14452:14453   */\n      dup3\n        /* \"#utility.yul\":14434:14454   */\n      tag_388\n      jump\t// in\n    tag_437:\n        /* \"#utility.yul\":14429:14454   */\n      swap2\n      pop\n        /* \"#utility.yul\":14468:14488   */\n      tag_438\n        /* \"#utility.yul\":14486:14487   */\n      dup4\n        /* \"#utility.yul\":14468:14488   */\n      tag_388\n      jump\t// in\n    tag_438:\n        /* \"#utility.yul\":14463:14488   */\n      swap3\n      pop\n        /* \"#utility.yul\":14622:14623   */\n      dup3\n        /* \"#utility.yul\":14554:14620   */\n      0xffffffffffffffffffffffffffffffffffffffffffffffffffffffffffffffff\n        /* \"#utility.yul\":14550:14624   */\n      sub\n        /* \"#utility.yul\":14547:14548   */\n      dup3\n        /* \"#utility.yul\":14544:14625   */\n      gt\n        /* \"#utility.yul\":14541:14648   */\n      iszero\n      tag_439\n      jumpi\n        /* \"#utility.yul\":14628:14646   */\n      tag_440\n      tag_441\n      jump\t// in\n    tag_440:\n        /* \"#utility.yul\":14541:14648   */\n    tag_439:\n        /* \"#utility.yul\":14672:14673   */\n      dup3\n        /* \"#utility.yul\":14669:14670   */\n      dup3\n        /* \"#utility.yul\":14665:14674   */\n      add\n        /* \"#utility.yul\":14658:14674   */\n      swap1\n      pop\n        /* \"#utility.yul\":14375:14680   */\n      swap3\n      swap2\n      pop\n      pop\n      jump\t// out\n        /* \"#utility.yul\":14686:14877   */\n    tag_108:\n        /* \"#utility.yul\":14726:14730   */\n      0x00\n        /* \"#utility.yul\":14746:14766   */\n      tag_443\n        /* \"#utility.yul\":14764:14765   */\n      dup3\n        /* \"#utility.yul\":14746:14766   */\n      tag_388\n      jump\t// in\n    tag_443:\n        /* \"#utility.yul\":14741:14766   */\n      swap2\n      pop\n        /* \"#utility.yul\":14780:14800   */\n      tag_444\n        /* \"#utility.yul\":14798:14799   */\n      dup4\n        /* \"#utility.yul\":14780:14800   */\n      tag_388\n      jump\t// in\n    tag_444:\n        /* \"#utility.yul\":14775:14800   */\n      swap3\n      pop\n        /* \"#utility.yul\":14819:14820   */\n      dup3\n        /* \"#utility.yul\":14816:14817   */\n      dup3\n        /* \"#utility.yul\":14813:14821   */\n      lt\n        /* \"#utility.yul\":14810:14844   */\n      iszero\n      tag_445\n      jumpi\n        /* \"#utility.yul\":14824:14842   */\n      tag_446\n      tag_441\n      jump\t// in\n    tag_446:\n        /* \"#utility.yul\":14810:14844   */\n    tag_445:\n        /* \"#utility.yul\":14869:14870   */\n      dup3\n        /* \"#utility.yul\":14866:14867   */\n      dup3\n        /* \"#utility.yul\":14862:14871   */\n      sub\n        /* \"#utility.yul\":14854:14871   */\n      swap1\n      pop\n        /* \"#utility.yul\":14686:14877   */\n      swap3\n      swap2\n      pop\n      pop\n      jump\t// out\n        /* \"#utility.yul\":14883:14979   */\n    tag_447:\n        /* \"#utility.yul\":14920:14927   */\n      0x00\n        /* \"#utility.yul\":14949:14973   */\n      tag_449\n        /* \"#utility.yul\":14967:14972   */\n      dup3\n        /* \"#utility.yul\":14949:14973   */\n      tag_450\n      jump\t// in\n    tag_449:\n        /* \"#utility.yul\":14938:14973   */\n      swap1\n      pop\n        /* \"#utility.yul\":14883:14979   */\n      swap2\n      swap1\n      pop\n      jump\t// out\n        /* \"#utility.yul\":14985:15075   */\n    tag_302:\n        /* \"#utility.yul\":15019:15026   */\n      0x00\n        /* \"#utility.yul\":15062:15067   */\n      dup2\n        /* \"#utility.yul\":15055:15068   */\n      iszero\n        /* \"#utility.yul\":15048:15069   */\n      iszero\n        /* \"#utility.yul\":15037:15069   */\n      swap1\n      pop\n        /* \"#utility.yul\":14985:15075   */\n      swap2\n      swap1\n      pop\n      jump\t// out\n        /* \"#utility.yul\":15081:15158   */\n    tag_307:\n        /* \"#utility.yul\":15118:15125   */\n      0x00\n        /* \"#utility.yul\":15147:15152   */\n      dup2\n        /* \"#utility.yul\":15136:15152   */\n      swap1\n      pop\n        /* \"#utility.yul\":15081:15158   */\n      swap2\n      swap1\n      pop\n      jump\t// out\n        /* \"#utility.yul\":15164:15301   */\n    tag_453:\n        /* \"#utility.yul\":15214:15221   */\n      0x00\n        /* \"#utility.yul\":15243:15248   */\n      dup2\n        /* \"#utility.yul\":15232:15248   */\n      swap1\n      pop\n        /* \"#utility.yul\":15249:15295   */\n      tag_455\n        /* \"#utility.yul\":15289:15294   */\n      dup3\n        /* \"#utility.yul\":15249:15295   */\n      tag_456\n      jump\t// in\n    tag_455:\n        /* \"#utility.yul\":15164:15301   */\n      swap2\n      swap1\n      pop\n      jump\t// out\n        /* \"#utility.yul\":15307:15446   */\n    tag_457:\n        /* \"#utility.yul\":15358:15365   */\n      0x00\n        /* \"#utility.yul\":15387:15392   */\n      dup2\n        /* \"#utility.yul\":15376:15392   */\n      swap1\n      pop\n        /* \"#utility.yul\":15393:15440   */\n      tag_459\n        /* \"#utility.yul\":15434:15439   */\n      dup3\n        /* \"#utility.yul\":15393:15440   */\n      tag_460\n      jump\t// in\n    tag_459:\n        /* \"#utility.yul\":15307:15446   */\n      swap2\n      swap1\n      pop\n      jump\t// out\n        /* \"#utility.yul\":15452:15578   */\n    tag_450:\n        /* \"#utility.yul\":15489:15496   */\n      0x00\n        /* \"#utility.yul\":15529:15571   */\n      0xffffffffffffffffffffffffffffffffffffffff\n        /* \"#utility.yul\":15522:15527   */\n      dup3\n        /* \"#utility.yul\":15518:15572   */\n      and\n        /* \"#utility.yul\":15507:15572   */\n      swap1\n      pop\n        /* \"#utility.yul\":15452:15578   */\n      swap2\n      swap1\n      pop\n      jump\t// out\n        /* \"#utility.yul\":15584:15661   */\n    tag_388:\n        /* \"#utility.yul\":15621:15628   */\n      0x00\n        /* \"#utility.yul\":15650:15655   */\n      dup2\n        /* \"#utility.yul\":15639:15655   */\n      swap1\n      pop\n        /* \"#utility.yul\":15584:15661   */\n      swap2\n      swap1\n      pop\n      jump\t// out\n        /* \"#utility.yul\":15667:15804   */\n    tag_312:\n        /* \"#utility.yul\":15728:15737   */\n      0x00\n        /* \"#utility.yul\":15761:15798   */\n      tag_464\n        /* \"#utility.yul\":15792:15797   */\n      dup3\n        /* \"#utility.yul\":15761:15798   */\n      tag_453\n      jump\t// in\n    tag_464:\n        /* \"#utility.yul\":15748:15798   */\n      swap1\n      pop\n        /* \"#utility.yul\":15667:15804   */\n      swap2\n      swap1\n      pop\n      jump\t// out\n        /* \"#utility.yul\":15810:15949   */\n    tag_316:\n        /* \"#utility.yul\":15872:15881   */\n      0x00\n        /* \"#utility.yul\":15905:15943   */\n      tag_466\n        /* \"#utility.yul\":15937:15942   */\n      dup3\n        /* \"#utility.yul\":15905:15943   */\n      tag_457\n      jump\t// in\n    tag_466:\n        /* \"#utility.yul\":15892:15943   */\n      swap1\n      pop\n        /* \"#utility.yul\":15810:15949   */\n      swap2\n      swap1\n      pop\n      jump\t// out\n        /* \"#utility.yul\":15955:16076   */\n    tag_320:\n        /* \"#utility.yul\":16013:16022   */\n      0x00\n        /* \"#utility.yul\":16046:16070   */\n      tag_468\n        /* \"#utility.yul\":16064:16069   */\n      dup3\n        /* \"#utility.yul\":16046:16070   */\n      tag_388\n      jump\t// in\n    tag_468:\n        /* \"#utility.yul\":16033:16070   */\n      swap1\n      pop\n        /* \"#utility.yul\":15955:16076   */\n      swap2\n      swap1\n      pop\n      jump\t// out\n        /* \"#utility.yul\":16082:16203   */\n    tag_324:\n        /* \"#utility.yul\":16140:16149   */\n      0x00\n        /* \"#utility.yul\":16173:16197   */\n      tag_470\n        /* \"#utility.yul\":16191:16196   */\n      dup3\n        /* \"#utility.yul\":16173:16197   */\n      tag_388\n      jump\t// in\n    tag_470:\n        /* \"#utility.yul\":16160:16197   */\n      swap1\n      pop\n        /* \"#utility.yul\":16082:16203   */\n      swap2\n      swap1\n      pop\n      jump\t// out\n        /* \"#utility.yul\":16209:16330   */\n    tag_328:\n        /* \"#utility.yul\":16267:16276   */\n      0x00\n        /* \"#utility.yul\":16300:16324   */\n      tag_472\n        /* \"#utility.yul\":16318:16323   */\n      dup3\n        /* \"#utility.yul\":16300:16324   */\n      tag_388\n      jump\t// in\n    tag_472:\n        /* \"#utility.yul\":16287:16324   */\n      swap1\n      pop\n        /* \"#utility.yul\":16209:16330   */\n      swap2\n      swap1\n      pop\n      jump\t// out\n        /* \"#utility.yul\":16336:16415   */\n    tag_308:\n        /* \"#utility.yul\":16375:16382   */\n      0x00\n        /* \"#utility.yul\":16404:16409   */\n      dup2\n        /* \"#utility.yul\":16393:16409   */\n      swap1\n      pop\n        /* \"#utility.yul\":16336:16415   */\n      swap2\n      swap1\n      pop\n      jump\t// out\n        /* \"#utility.yul\":16421:16500   */\n    tag_393:\n        /* \"#utility.yul\":16460:16467   */\n      0x00\n        /* \"#utility.yul\":16489:16494   */\n      dup2\n        /* \"#utility.yul\":16478:16494   */\n      swap1\n      pop\n        /* \"#utility.yul\":16421:16500   */\n      swap2\n      swap1\n      pop\n      jump\t// out\n        /* \"#utility.yul\":16506:16682   */\n    tag_110:\n        /* \"#utility.yul\":16538:16539   */\n      0x00\n        /* \"#utility.yul\":16555:16575   */\n      tag_476\n        /* \"#utility.yul\":16573:16574   */\n      dup3\n        /* \"#utility.yul\":16555:16575   */\n      tag_388\n      jump\t// in\n    tag_476:\n        /* \"#utility.yul\":16550:16575   */\n      swap2\n      pop\n        /* \"#utility.yul\":16589:16609   */\n      tag_477\n        /* \"#utility.yul\":16607:16608   */\n      dup4\n        /* \"#utility.yul\":16589:16609   */\n      tag_388\n      jump\t// in\n    tag_477:\n        /* \"#utility.yul\":16584:16609   */\n      swap3\n      pop\n        /* \"#utility.yul\":16628:16629   */\n      dup3\n        /* \"#utility.yul\":16618:16653   */\n      tag_478\n      jumpi\n        /* \"#utility.yul\":16633:16651   */\n      tag_479\n      tag_480\n      jump\t// in\n    tag_479:\n        /* \"#utility.yul\":16618:16653   */\n    tag_478:\n        /* \"#utility.yul\":16674:16675   */\n      dup3\n        /* \"#utility.yul\":16671:16672   */\n      dup3\n        /* \"#utility.yul\":16667:16676   */\n      mod\n        /* \"#utility.yul\":16662:16676   */\n      swap1\n      pop\n        /* \"#utility.yul\":16506:16682   */\n      swap3\n      swap2\n      pop\n      pop\n      jump\t// out\n        /* \"#utility.yul\":16688:16868   */\n    tag_441:\n        /* \"#utility.yul\":16736:16813   */\n      0x4e487b7100000000000000000000000000000000000000000000000000000000\n        /* \"#utility.yul\":16733:16734   */\n      0x00\n        /* \"#utility.yul\":16726:16814   */\n      mstore\n        /* \"#utility.yul\":16833:16837   */\n      0x11\n        /* \"#utility.yul\":16830:16831   */\n      0x04\n        /* \"#utility.yul\":16823:16838   */\n      mstore\n        /* \"#utility.yul\":16857:16861   */\n      0x24\n        /* \"#utility.yul\":16854:16855   */\n      0x00\n        /* \"#utility.yul\":16847:16862   */\n      revert\n        /* \"#utility.yul\":16874:17054   */\n    tag_480:\n        /* \"#utility.yul\":16922:16999   */\n      0x4e487b7100000000000000000000000000000000000000000000000000000000\n        /* \"#utility.yul\":16919:16920   */\n      0x00\n        /* \"#utility.yul\":16912:17000   */\n      mstore\n        /* \"#utility.yul\":17019:17023   */\n      0x12\n        /* \"#utility.yul\":17016:17017   */\n      0x04\n        /* \"#utility.yul\":17009:17024   */\n      mstore\n        /* \"#utility.yul\":17043:17047   */\n      0x24\n        /* \"#utility.yul\":17040:17041   */\n      0x00\n        /* \"#utility.yul\":17033:17048   */\n      revert\n        /* \"#utility.yul\":17060:17240   */\n    tag_89:\n        /* \"#utility.yul\":17108:17185   */\n      0x4e487b7100000000000000000000000000000000000000000000000000000000\n        /* \"#utility.yul\":17105:17106   */\n      0x00\n        /* \"#utility.yul\":17098:17186   */\n      mstore\n        /* \"#utility.yul\":17205:17209   */\n      0x21\n        /* \"#utility.yul\":17202:17203   */\n      0x04\n        /* \"#utility.yul\":17195:17210   */\n      mstore\n        /* \"#utility.yul\":17229:17233   */\n      0x24\n        /* \"#utility.yul\":17226:17227   */\n      0x00\n        /* \"#utility.yul\":17219:17234   */\n      revert\n        /* \"#utility.yul\":17369:17486   */\n    tag_284:\n        /* \"#utility.yul\":17478:17479   */\n      0x00\n        /* \"#utility.yul\":17475:17476   */\n      dup1\n        /* \"#utility.yul\":17468:17480   */\n      revert\n        /* \"#utility.yul\":17492:17664   */\n    tag_334:\n        /* \"#utility.yul\":17632:17656   */\n      0x50726f626c656d20776974682061646472657373657300000000000000000000\n        /* \"#utility.yul\":17628:17629   */\n      0x00\n        /* \"#utility.yul\":17620:17626   */\n      dup3\n        /* \"#utility.yul\":17616:17630   */\n      add\n        /* \"#utility.yul\":17609:17657   */\n      mstore\n        /* \"#utility.yul\":17492:17664   */\n      pop\n      jump\t// out\n        /* \"#utility.yul\":17670:17845   */\n    tag_339:\n        /* \"#utility.yul\":17810:17837   */\n      0x4e6f74207265676973746572656420706c617965722079657400000000000000\n        /* \"#utility.yul\":17806:17807   */\n      0x00\n        /* \"#utility.yul\":17798:17804   */\n      dup3\n        /* \"#utility.yul\":17794:17808   */\n      add\n        /* \"#utility.yul\":17787:17838   */\n      mstore\n        /* \"#utility.yul\":17670:17845   */\n      pop\n      jump\t// out\n        /* \"#utility.yul\":17851:18072   */\n    tag_344:\n        /* \"#utility.yul\":17991:18025   */\n      0x5468697320706c617965722068617320616c7265616479207265676973746572\n        /* \"#utility.yul\":17987:17988   */\n      0x00\n        /* \"#utility.yul\":17979:17985   */\n      dup3\n        /* \"#utility.yul\":17975:17989   */\n      add\n        /* \"#utility.yul\":17968:18026   */\n      mstore\n        /* \"#utility.yul\":18060:18064   */\n      0x6564000000000000000000000000000000000000000000000000000000000000\n        /* \"#utility.yul\":18055:18057   */\n      0x20\n        /* \"#utility.yul\":18047:18053   */\n      dup3\n        /* \"#utility.yul\":18043:18058   */\n      add\n        /* \"#utility.yul\":18036:18065   */\n      mstore\n        /* \"#utility.yul\":17851:18072   */\n      pop\n      jump\t// out\n        /* \"#utility.yul\":18078:18306   */\n    tag_349:\n        /* \"#utility.yul\":18218:18252   */\n      0x4f6e65206f662074686520706c6179657273206f7220626f746820646964206e\n        /* \"#utility.yul\":18214:18215   */\n      0x00\n        /* \"#utility.yul\":18206:18212   */\n      dup3\n        /* \"#utility.yul\":18202:18216   */\n      add\n        /* \"#utility.yul\":18195:18253   */\n      mstore\n        /* \"#utility.yul\":18287:18298   */\n      0x6f7420636f6d6d69740000000000000000000000000000000000000000000000\n        /* \"#utility.yul\":18282:18284   */\n      0x20\n        /* \"#utility.yul\":18274:18280   */\n      dup3\n        /* \"#utility.yul\":18270:18285   */\n      add\n        /* \"#utility.yul\":18263:18299   */\n      mstore\n        /* \"#utility.yul\":18078:18306   */\n      pop\n      jump\t// out\n        /* \"#utility.yul\":18312:18478   */\n    tag_354:\n        /* \"#utility.yul\":18452:18470   */\n      0x496e636f72726563742063686f69636500000000000000000000000000000000\n        /* \"#utility.yul\":18448:18449   */\n      0x00\n        /* \"#utility.yul\":18440:18446   */\n      dup3\n        /* \"#utility.yul\":18436:18450   */\n      add\n        /* \"#utility.yul\":18429:18471   */\n      mstore\n        /* \"#utility.yul\":18312:18478   */\n      pop\n      jump\t// out\n        /* \"#utility.yul\":18484:18716   */\n    tag_359:\n        /* \"#utility.yul\":18624:18658   */\n      0x4f6e65206f662074686520706c6179657273206f7220626f746820646964206e\n        /* \"#utility.yul\":18620:18621   */\n      0x00\n        /* \"#utility.yul\":18612:18618   */\n      dup3\n        /* \"#utility.yul\":18608:18622   */\n      add\n        /* \"#utility.yul\":18601:18659   */\n      mstore\n        /* \"#utility.yul\":18693:18708   */\n      0x6f74207265676973746572656400000000000000000000000000000000000000\n        /* \"#utility.yul\":18688:18690   */\n      0x20\n        /* \"#utility.yul\":18680:18686   */\n      dup3\n        /* \"#utility.yul\":18676:18691   */\n      add\n        /* \"#utility.yul\":18669:18709   */\n      mstore\n        /* \"#utility.yul\":18484:18716   */\n      pop\n      jump\t// out\n        /* \"#utility.yul\":18722:18898   */\n    tag_364:\n        /* \"#utility.yul\":18862:18890   */\n      0x47616d65206861736820776173206e6f742070726f7669646564000000000000\n        /* \"#utility.yul\":18858:18859   */\n      0x00\n        /* \"#utility.yul\":18850:18856   */\n      dup3\n        /* \"#utility.yul\":18846:18860   */\n      add\n        /* \"#utility.yul\":18839:18891   */\n      mstore\n        /* \"#utility.yul\":18722:18898   */\n      pop\n      jump\t// out\n        /* \"#utility.yul\":18904:19071   */\n    tag_369:\n        /* \"#utility.yul\":19044:19063   */\n      0x70726f626c656d20776974682073616c74000000000000000000000000000000\n        /* \"#utility.yul\":19040:19041   */\n      0x00\n        /* \"#utility.yul\":19032:19038   */\n      dup3\n        /* \"#utility.yul\":19028:19042   */\n      add\n        /* \"#utility.yul\":19021:19064   */\n      mstore\n        /* \"#utility.yul\":18904:19071   */\n      pop\n      jump\t// out\n        /* \"#utility.yul\":19077:19298   */\n    tag_374:\n        /* \"#utility.yul\":19217:19251   */\n      0x426574206973206c6f776572207468616e20706f737369626c65206d696e696d\n        /* \"#utility.yul\":19213:19214   */\n      0x00\n        /* \"#utility.yul\":19205:19211   */\n      dup3\n        /* \"#utility.yul\":19201:19215   */\n      add\n        /* \"#utility.yul\":19194:19252   */\n      mstore\n        /* \"#utility.yul\":19286:19290   */\n      0x756d000000000000000000000000000000000000000000000000000000000000\n        /* \"#utility.yul\":19281:19283   */\n      0x20\n        /* \"#utility.yul\":19273:19279   */\n      dup3\n        /* \"#utility.yul\":19269:19284   */\n      add\n        /* \"#utility.yul\":19262:19291   */\n      mstore\n        /* \"#utility.yul\":19077:19298   */\n      pop\n      jump\t// out\n        /* \"#utility.yul\":19304:19539   */\n    tag_379:\n        /* \"#utility.yul\":19444:19478   */\n      0x4f6e6c79206f776e6572206f6620636f6e747261637420697320616c6c6f7765\n        /* \"#utility.yul\":19440:19441   */\n      0x00\n        /* \"#utility.yul\":19432:19438   */\n      dup3\n        /* \"#utility.yul\":19428:19442   */\n      add\n        /* \"#utility.yul\":19421:19479   */\n      mstore\n        /* \"#utility.yul\":19513:19531   */\n      0x6420746f2074686973206d6574686f6400000000000000000000000000000000\n        /* \"#utility.yul\":19508:19510   */\n      0x20\n        /* \"#utility.yul\":19500:19506   */\n      dup3\n        /* \"#utility.yul\":19496:19511   */\n      add\n        /* \"#utility.yul\":19489:19532   */\n      mstore\n        /* \"#utility.yul\":19304:19539   */\n      pop\n      jump\t// out\n        /* \"#utility.yul\":19545:19717   */\n    tag_384:\n        /* \"#utility.yul\":19685:19709   */\n      0x50726f626c656d207769746820746865207374616b6500000000000000000000\n        /* \"#utility.yul\":19681:19682   */\n      0x00\n        /* \"#utility.yul\":19673:19679   */\n      dup3\n        /* \"#utility.yul\":19669:19683   */\n      add\n        /* \"#utility.yul\":19662:19710   */\n      mstore\n        /* \"#utility.yul\":19545:19717   */\n      pop\n      jump\t// out\n        /* \"#utility.yul\":19723:19841   */\n    tag_456:\n        /* \"#utility.yul\":19809:19810   */\n      0x04\n        /* \"#utility.yul\":19802:19807   */\n      dup2\n        /* \"#utility.yul\":19799:19811   */\n      lt\n        /* \"#utility.yul\":19789:19835   */\n      tag_499\n      jumpi\n        /* \"#utility.yul\":19815:19833   */\n      tag_500\n      tag_89\n      jump\t// in\n    tag_500:\n        /* \"#utility.yul\":19789:19835   */\n    tag_499:\n        /* \"#utility.yul\":19723:19841   */\n      pop\n      jump\t// out\n        /* \"#utility.yul\":19847:19966   */\n    tag_460:\n        /* \"#utility.yul\":19934:19935   */\n      0x03\n        /* \"#utility.yul\":19927:19932   */\n      dup2\n        /* \"#utility.yul\":19924:19936   */\n      lt\n        /* \"#utility.yul\":19914:19960   */\n      tag_502\n      jumpi\n        /* \"#utility.yul\":19940:19958   */\n      tag_503\n      tag_89\n      jump\t// in\n    tag_503:\n        /* \"#utility.yul\":19914:19960   */\n    tag_502:\n        /* \"#utility.yul\":19847:19966   */\n      pop\n      jump\t// out\n        /* \"#utility.yul\":19972:20094   */\n    tag_272:\n        /* \"#utility.yul\":20045:20069   */\n      tag_505\n        /* \"#utility.yul\":20063:20068   */\n      dup2\n        /* \"#utility.yul\":20045:20069   */\n      tag_447\n      jump\t// in\n    tag_505:\n        /* \"#utility.yul\":20038:20043   */\n      dup2\n        /* \"#utility.yul\":20035:20070   */\n      eq\n        /* \"#utility.yul\":20025:20088   */\n      tag_506\n      jumpi\n        /* \"#utility.yul\":20084:20085   */\n      0x00\n        /* \"#utility.yul\":20081:20082   */\n      dup1\n        /* \"#utility.yul\":20074:20086   */\n      revert\n        /* \"#utility.yul\":20025:20088   */\n    tag_506:\n        /* \"#utility.yul\":19972:20094   */\n      pop\n      jump\t// out\n        /* \"#utility.yul\":20100:20222   */\n    tag_276:\n        /* \"#utility.yul\":20173:20197   */\n      tag_508\n        /* \"#utility.yul\":20191:20196   */\n      dup2\n        /* \"#utility.yul\":20173:20197   */\n      tag_307\n      jump\t// in\n    tag_508:\n        /* \"#utility.yul\":20166:20171   */\n      dup2\n        /* \"#utility.yul\":20163:20198   */\n      eq\n        /* \"#utility.yul\":20153:20216   */\n      tag_509\n      jumpi\n        /* \"#utility.yul\":20212:20213   */\n      0x00\n        /* \"#utility.yul\":20209:20210   */\n      dup1\n        /* \"#utility.yul\":20202:20214   */\n      revert\n        /* \"#utility.yul\":20153:20216   */\n    tag_509:\n        /* \"#utility.yul\":20100:20222   */\n      pop\n      jump\t// out\n        /* \"#utility.yul\":20228:20350   */\n    tag_280:\n        /* \"#utility.yul\":20301:20325   */\n      tag_511\n        /* \"#utility.yul\":20319:20324   */\n      dup2\n        /* \"#utility.yul\":20301:20325   */\n      tag_388\n      jump\t// in\n    tag_511:\n        /* \"#utility.yul\":20294:20299   */\n      dup2\n        /* \"#utility.yul\":20291:20326   */\n      eq\n        /* \"#utility.yul\":20281:20344   */\n      tag_512\n      jumpi\n        /* \"#utility.yul\":20340:20341   */\n      0x00\n        /* \"#utility.yul\":20337:20338   */\n      dup1\n        /* \"#utility.yul\":20330:20342   */\n      revert\n        /* \"#utility.yul\":20281:20344   */\n    tag_512:\n        /* \"#utility.yul\":20228:20350   */\n      pop\n      jump\t// out\n\n    auxdata: 0xa2646970667358221220241adfaca7fbdc2c92b4514973b79b0891f0059ea797b71a70b59b9f0f26dab864736f6c63430008070033\n}\n",
				"bytecode": {
					"linkReferences": {},
					"object": "608060405234801561001057600080fd5b50612241806100206000396000f3fe6080604052600436106100dd5760003560e01c80638c10bb961161007f578063af2d251711610059578063af2d2517146102b9578063c3c5a547146102d0578063e711a8121461030d578063eedad66b1461034a576100dd565b80638c10bb961461021457806392c9048014610251578063a9ea37b61461027c576100dd565b806327793f87116100bb57806327793f87146101685780633a4b66f11461019357806343445ca8146101be5780636f9fb98a146101e9576100dd565b806311b0af15146100e257806315b80df81461010d578063207377961461014a575b600080fd5b3480156100ee57600080fd5b506100f7610373565b6040516101049190611af2565b60405180910390f35b34801561011957600080fd5b50610134600480360381019061012f91906117b1565b610753565b6040516101419190611abc565b60405180910390f35b610152610825565b60405161015f9190611cbe565b60405180910390f35b34801561017457600080fd5b5061017d610b9d565b60405161018a9190611af2565b60405180910390f35b34801561019f57600080fd5b506101a8610bb0565b6040516101b59190611cbe565b60405180910390f35b3480156101ca57600080fd5b506101d3610bb6565b6040516101e09190611abc565b60405180910390f35b3480156101f557600080fd5b506101fe610c34565b60405161020b9190611cbe565b60405180910390f35b34801561022057600080fd5b5061023b60048036038101906102369190611838565b610c3c565b6040516102489190611ad7565b60405180910390f35b34801561025d57600080fd5b50610266611088565b6040516102739190611abc565b60405180910390f35b34801561028857600080fd5b506102a3600480360381019061029e91906117de565b6110a9565b6040516102b09190611abc565b60405180910390f35b3480156102c557600080fd5b506102ce61133e565b005b3480156102dc57600080fd5b506102f760048036038101906102f291906117b1565b6113ca565b6040516103049190611abc565b60405180910390f35b34801561031957600080fd5b50610334600480360381019061032f91906117b1565b61147a565b6040516103419190611abc565b60405180910390f35b34801561035657600080fd5b50610371600480360381019061036c919061180b565b6115aa565b005b600080600381111561038857610387611ee9565b5b600360019054906101000a900460ff1660038111156103aa576103a9611ee9565b5b141580156103ec5750600060038111156103c7576103c6611ee9565b5b600360029054906101000a900460ff1660038111156103e9576103e8611ee9565b5b14155b61042b576040517f08c379a000000000000000000000000000000000000000000000000000000000815260040161042290611bbe565b60405180910390fd5b60038060029054906101000a900460ff16600381111561044e5761044d611ee9565b5b600360019054906101000a900460ff1660038111156104705761046f611ee9565b5b600361047c9190611cea565b6104869190611d40565b6104909190611e5a565b60028111156104a2576104a1611ee9565b5b600360006101000a81548160ff021916908360028111156104c6576104c5611ee9565b5b0217905550600160028111156104df576104de611ee9565b5b600360009054906101000a900460ff16600281111561050157610500611ee9565b5b14156105735760008054906101000a900473ffffffffffffffffffffffffffffffffffffffff1673ffffffffffffffffffffffffffffffffffffffff166108fc479081150290604051600060405180830381858888f1935050505015801561056d573d6000803e3d6000fd5b506106f0565b60028081111561058657610585611ee9565b5b600360009054906101000a900460ff1660028111156105a8576105a7611ee9565b5b141561061c57600160009054906101000a900473ffffffffffffffffffffffffffffffffffffffff1673ffffffffffffffffffffffffffffffffffffffff166108fc479081150290604051600060405180830381858888f19350505050158015610616573d6000803e3d6000fd5b506106ef565b60008054906101000a900473ffffffffffffffffffffffffffffffffffffffff1673ffffffffffffffffffffffffffffffffffffffff166108fc6002549081150290604051600060405180830381858888f19350505050158015610684573d6000803e3d6000fd5b50600160009054906101000a900473ffffffffffffffffffffffffffffffffffffffff1673ffffffffffffffffffffffffffffffffffffffff166108fc479081150290604051600060405180830381858888f193505050501580156106ed573d6000803e3d6000fd5b505b5b6106f8611648565b7f6d1a16000380c9adde391bcb46a92c2ce8c46811cff002ed5dec38dfdc2373cd600360009054906101000a900460ff166040516107369190611af2565b60405180910390a1600360009054906101000a900460ff16905090565b60008173ffffffffffffffffffffffffffffffffffffffff1660008054906101000a900473ffffffffffffffffffffffffffffffffffffffff1673ffffffffffffffffffffffffffffffffffffffff161480156107b557506000801b60045414155b8061081e57508173ffffffffffffffffffffffffffffffffffffffff16600160009054906101000a900473ffffffffffffffffffffffffffffffffffffffff1673ffffffffffffffffffffffffffffffffffffffff1614801561081d57506000801b60055414155b5b9050919050565b60006103e834101561086c576040517f08c379a000000000000000000000000000000000000000000000000000000000815260040161086390611c5e565b60405180910390fd5b6000600254148061087f57506002543410155b6108be576040517f08c379a00000000000000000000000000000000000000000000000000000000081526004016108b590611c9e565b60405180910390fd5b60008054906101000a900473ffffffffffffffffffffffffffffffffffffffff1673ffffffffffffffffffffffffffffffffffffffff163373ffffffffffffffffffffffffffffffffffffffff16141580156109685750600160009054906101000a900473ffffffffffffffffffffffffffffffffffffffff1673ffffffffffffffffffffffffffffffffffffffff163373ffffffffffffffffffffffffffffffffffffffff1614155b6109a7576040517f08c379a000000000000000000000000000000000000000000000000000000000815260040161099e90611b9e565b60405180910390fd5b600073ffffffffffffffffffffffffffffffffffffffff1660008054906101000a900473ffffffffffffffffffffffffffffffffffffffff1673ffffffffffffffffffffffffffffffffffffffff161415610a8457336000806101000a81548173ffffffffffffffffffffffffffffffffffffffff021916908373ffffffffffffffffffffffffffffffffffffffff160217905550346002819055507f982cddadd143916f714d5e4cdb1fdbf71a3a44c802807791f444525464ad42ad6001604051610a739190611b28565b60405180910390a160019050610b9a565b600073ffffffffffffffffffffffffffffffffffffffff16600160009054906101000a900473ffffffffffffffffffffffffffffffffffffffff1673ffffffffffffffffffffffffffffffffffffffff161415610b5d5733600160006101000a81548173ffffffffffffffffffffffffffffffffffffffff021916908373ffffffffffffffffffffffffffffffffffffffff1602179055507f982cddadd143916f714d5e4cdb1fdbf71a3a44c802807791f444525464ad42ad6002604051610b4c9190611b43565b60405180910390a160029050610b9a565b7f982cddadd143916f714d5e4cdb1fdbf71a3a44c802807791f444525464ad42ad6000604051610b8d9190611b0d565b60405180910390a1600090505b90565b600360009054906101000a900460ff1681565b60025481565b6000806003811115610bcb57610bca611ee9565b5b600360019054906101000a900460ff166003811115610bed57610bec611ee9565b5b14158015610c2f575060006003811115610c0a57610c09611ee9565b5b600360029054906101000a900460ff166003811115610c2c57610c2b611ee9565b5b14155b905090565b600047905090565b60008060009054906101000a900473ffffffffffffffffffffffffffffffffffffffff1673ffffffffffffffffffffffffffffffffffffffff163373ffffffffffffffffffffffffffffffffffffffff161480610ce65750600160009054906101000a900473ffffffffffffffffffffffffffffffffffffffff1673ffffffffffffffffffffffffffffffffffffffff163373ffffffffffffffffffffffffffffffffffffffff16145b610d25576040517f08c379a0000000000000000000000000000000000000000000000000000000008152600401610d1c90611b7e565b60405180910390fd5b8260018110158015610d38575060038111155b610d77576040517f08c379a0000000000000000000000000000000000000000000000000000000008152600401610d6e90611bde565b60405180910390fd5b6000801b60045414158015610d9157506000801b60055414155b610dd0576040517f08c379a0000000000000000000000000000000000000000000000000000000008152600401610dc790611bfe565b60405180910390fd5b3373ffffffffffffffffffffffffffffffffffffffff1660008054906101000a900473ffffffffffffffffffffffffffffffffffffffff1673ffffffffffffffffffffffffffffffffffffffff161415610f0a57610e2e848461173f565b60045414610e71576040517f08c379a0000000000000000000000000000000000000000000000000000000008152600401610e6890611c3e565b60405180910390fd5b836003811115610e8457610e83611ee9565b5b600360016101000a81548160ff02191690836003811115610ea857610ea7611ee9565b5b02179055507f47c7acbd4d57f5dbc1f9e9d1f9e0899016b547afbad29e7a416a892b44898e97600360019054906101000a900460ff16604051610eeb9190611ad7565b60405180910390a1600360019054906101000a900460ff169150611081565b3373ffffffffffffffffffffffffffffffffffffffff16600160009054906101000a900473ffffffffffffffffffffffffffffffffffffffff1673ffffffffffffffffffffffffffffffffffffffff16141561104657610f6a848461173f565b60055414610fad576040517f08c379a0000000000000000000000000000000000000000000000000000000008152600401610fa490611c3e565b60405180910390fd5b836003811115610fc057610fbf611ee9565b5b600360026101000a81548160ff02191690836003811115610fe457610fe3611ee9565b5b02179055507f47c7acbd4d57f5dbc1f9e9d1f9e0899016b547afbad29e7a416a892b44898e97600360029054906101000a900460ff166040516110279190611ad7565b60405180910390a1600360029054906101000a900460ff169150611081565b6040517f08c379a000000000000000000000000000000000000000000000000000000000815260040161107890611b5e565b60405180910390fd5b5092915050565b60008060001b600454141580156110a457506000801b60055414155b905090565b60008060009054906101000a900473ffffffffffffffffffffffffffffffffffffffff1673ffffffffffffffffffffffffffffffffffffffff163373ffffffffffffffffffffffffffffffffffffffff1614806111535750600160009054906101000a900473ffffffffffffffffffffffffffffffffffffffff1673ffffffffffffffffffffffffffffffffffffffff163373ffffffffffffffffffffffffffffffffffffffff16145b611192576040517f08c379a000000000000000000000000000000000000000000000000000000000815260040161118990611b7e565b60405180910390fd5b8160008114156111d7576040517f08c379a00000000000000000000000000000000000000000000000000000000081526004016111ce90611c1e565b60405180910390fd5b60008054906101000a900473ffffffffffffffffffffffffffffffffffffffff1673ffffffffffffffffffffffffffffffffffffffff163373ffffffffffffffffffffffffffffffffffffffff1614801561123657506000801b600454145b1561124757826004819055506112fb565b600160009054906101000a900473ffffffffffffffffffffffffffffffffffffffff1673ffffffffffffffffffffffffffffffffffffffff163373ffffffffffffffffffffffffffffffffffffffff161480156112a857506000801b600554145b156112b957826005819055506112fa565b7fd0e0eee22af482d2b75b0facf637b601c155f06c6f143b473711527a01110f8460006040516112e99190611abc565b60405180910390a160009150611338565b5b7fd0e0eee22af482d2b75b0facf637b601c155f06c6f143b473711527a01110f84600160405161132b9190611abc565b60405180910390a1600191505b50919050565b7391cda83c363a6f72f81a2041836b1e79b4a01ab173ffffffffffffffffffffffffffffffffffffffff163373ffffffffffffffffffffffffffffffffffffffff16146113c0576040517f08c379a00000000000000000000000000000000000000000000000000000000081526004016113b790611c7e565b60405180910390fd5b6113c8611648565b565b60008173ffffffffffffffffffffffffffffffffffffffff1660008054906101000a900473ffffffffffffffffffffffffffffffffffffffff1673ffffffffffffffffffffffffffffffffffffffff16148061147357508173ffffffffffffffffffffffffffffffffffffffff16600160009054906101000a900473ffffffffffffffffffffffffffffffffffffffff1673ffffffffffffffffffffffffffffffffffffffff16145b9050919050565b60008173ffffffffffffffffffffffffffffffffffffffff1660008054906101000a900473ffffffffffffffffffffffffffffffffffffffff1673ffffffffffffffffffffffffffffffffffffffff1614801561150b5750600060038111156114e6576114e5611ee9565b5b600360019054906101000a900460ff16600381111561150857611507611ee9565b5b14155b806115a357508173ffffffffffffffffffffffffffffffffffffffff16600160009054906101000a900473ffffffffffffffffffffffffffffffffffffffff1673ffffffffffffffffffffffffffffffffffffffff161480156115a257506000600381111561157d5761157c611ee9565b5b600360029054906101000a900460ff16600381111561159f5761159e611ee9565b5b14155b5b9050919050565b7391cda83c363a6f72f81a2041836b1e79b4a01ab173ffffffffffffffffffffffffffffffffffffffff163373ffffffffffffffffffffffffffffffffffffffff161461162c576040517f08c379a000000000000000000000000000000000000000000000000000000000815260040161162390611c7e565b60405180910390fd5b806002600082825461163e9190611cea565b9250508190555050565b600060028190555060008060006101000a81548173ffffffffffffffffffffffffffffffffffffffff021916908373ffffffffffffffffffffffffffffffffffffffff1602179055506000600160006101000a81548173ffffffffffffffffffffffffffffffffffffffff021916908373ffffffffffffffffffffffffffffffffffffffff1602179055506000801b6004819055506000801b6005819055506000600360016101000a81548160ff0219169083600381111561170d5761170c611ee9565b5b02179055506000600360026101000a81548160ff0219169083600381111561173857611737611ee9565b5b0217905550565b60008282604051602001611754929190611a90565b60405160208183030381529060405280519060200120905092915050565b600081359050611781816121c6565b92915050565b600081359050611796816121dd565b92915050565b6000813590506117ab816121f4565b92915050565b6000602082840312156117c7576117c6611f18565b5b60006117d584828501611772565b91505092915050565b6000602082840312156117f4576117f3611f18565b5b600061180284828501611787565b91505092915050565b60006020828403121561182157611820611f18565b5b600061182f8482850161179c565b91505092915050565b6000806040838503121561184f5761184e611f18565b5b600061185d8582860161179c565b925050602061186e85828601611787565b9150509250929050565b61188181611d86565b82525050565b61189861189382611d92565b611e46565b82525050565b6118a781611dec565b82525050565b6118b681611dfe565b82525050565b6118c581611e10565b82525050565b6118d481611e22565b82525050565b6118e381611e34565b82525050565b60006118f6601683611cd9565b915061190182611f1d565b602082019050919050565b6000611919601983611cd9565b915061192482611f46565b602082019050919050565b600061193c602283611cd9565b915061194782611f6f565b604082019050919050565b600061195f602983611cd9565b915061196a82611fbe565b604082019050919050565b6000611982601083611cd9565b915061198d8261200d565b602082019050919050565b60006119a5602d83611cd9565b91506119b082612036565b604082019050919050565b60006119c8601a83611cd9565b91506119d382612085565b602082019050919050565b60006119eb601183611cd9565b91506119f6826120ae565b602082019050919050565b6000611a0e602283611cd9565b9150611a19826120d7565b604082019050919050565b6000611a31603083611cd9565b9150611a3c82612126565b604082019050919050565b6000611a54601683611cd9565b9150611a5f82612175565b602082019050919050565b611a7381611de2565b82525050565b611a8a611a8582611de2565b611e50565b82525050565b6000611a9c8285611a79565b602082019150611aac8284611887565b6020820191508190509392505050565b6000602082019050611ad16000830184611878565b92915050565b6000602082019050611aec600083018461189e565b92915050565b6000602082019050611b0760008301846118ad565b92915050565b6000602082019050611b2260008301846118bc565b92915050565b6000602082019050611b3d60008301846118cb565b92915050565b6000602082019050611b5860008301846118da565b92915050565b60006020820190508181036000830152611b77816118e9565b9050919050565b60006020820190508181036000830152611b978161190c565b9050919050565b60006020820190508181036000830152611bb78161192f565b9050919050565b60006020820190508181036000830152611bd781611952565b9050919050565b60006020820190508181036000830152611bf781611975565b9050919050565b60006020820190508181036000830152611c1781611998565b9050919050565b60006020820190508181036000830152611c37816119bb565b9050919050565b60006020820190508181036000830152611c57816119de565b9050919050565b60006020820190508181036000830152611c7781611a01565b9050919050565b60006020820190508181036000830152611c9781611a24565b9050919050565b60006020820190508181036000830152611cb781611a47565b9050919050565b6000602082019050611cd36000830184611a6a565b92915050565b600082825260208201905092915050565b6000611cf582611de2565b9150611d0083611de2565b9250827fffffffffffffffffffffffffffffffffffffffffffffffffffffffffffffffff03821115611d3557611d34611e8b565b5b828201905092915050565b6000611d4b82611de2565b9150611d5683611de2565b925082821015611d6957611d68611e8b565b5b828203905092915050565b6000611d7f82611dc2565b9050919050565b60008115159050919050565b6000819050919050565b6000819050611daa8261219e565b919050565b6000819050611dbd826121b2565b919050565b600073ffffffffffffffffffffffffffffffffffffffff82169050919050565b6000819050919050565b6000611df782611d9c565b9050919050565b6000611e0982611daf565b9050919050565b6000611e1b82611de2565b9050919050565b6000611e2d82611de2565b9050919050565b6000611e3f82611de2565b9050919050565b6000819050919050565b6000819050919050565b6000611e6582611de2565b9150611e7083611de2565b925082611e8057611e7f611eba565b5b828206905092915050565b7f4e487b7100000000000000000000000000000000000000000000000000000000600052601160045260246000fd5b7f4e487b7100000000000000000000000000000000000000000000000000000000600052601260045260246000fd5b7f4e487b7100000000000000000000000000000000000000000000000000000000600052602160045260246000fd5b600080fd5b7f50726f626c656d20776974682061646472657373657300000000000000000000600082015250565b7f4e6f74207265676973746572656420706c617965722079657400000000000000600082015250565b7f5468697320706c617965722068617320616c726561647920726567697374657260008201527f6564000000000000000000000000000000000000000000000000000000000000602082015250565b7f4f6e65206f662074686520706c6179657273206f7220626f746820646964206e60008201527f6f7420636f6d6d69740000000000000000000000000000000000000000000000602082015250565b7f496e636f72726563742063686f69636500000000000000000000000000000000600082015250565b7f4f6e65206f662074686520706c6179657273206f7220626f746820646964206e60008201527f6f74207265676973746572656400000000000000000000000000000000000000602082015250565b7f47616d65206861736820776173206e6f742070726f7669646564000000000000600082015250565b7f70726f626c656d20776974682073616c74000000000000000000000000000000600082015250565b7f426574206973206c6f776572207468616e20706f737369626c65206d696e696d60008201527f756d000000000000000000000000000000000000000000000000000000000000602082015250565b7f4f6e6c79206f776e6572206f6620636f6e747261637420697320616c6c6f776560008201527f6420746f2074686973206d6574686f6400000000000000000000000000000000602082015250565b7f50726f626c656d207769746820746865207374616b6500000000000000000000600082015250565b600481106121af576121ae611ee9565b5b50565b600381106121c3576121c2611ee9565b5b50565b6121cf81611d74565b81146121da57600080fd5b50565b6121e681611d92565b81146121f157600080fd5b50565b6121fd81611de2565b811461220857600080fd5b5056fea2646970667358221220241adfaca7fbdc2c92b4514973b79b0891f0059ea797b71a70b59b9f0f26dab864736f6c63430008070033",
					"opcodes": "PUSH1 0x80 PUSH1 0x40 MSTORE CALLVALUE DUP1 ISZERO PUSH2 0x10 JUMPI PUSH1 0x0 DUP1 REVERT JUMPDEST POP PUSH2 0x2241 DUP1 PUSH2 0x20 PUSH1 0x0 CODECOPY PUSH1 0x0 RETURN INVALID PUSH1 0x80 PUSH1 0x40 MSTORE PUSH1 0x4 CALLDATASIZE LT PUSH2 0xDD JUMPI PUSH1 0x0 CALLDATALOAD PUSH1 0xE0 SHR DUP1 PUSH4 0x8C10BB96 GT PUSH2 0x7F JUMPI DUP1 PUSH4 0xAF2D2517 GT PUSH2 0x59 JUMPI DUP1 PUSH4 0xAF2D2517 EQ PUSH2 0x2B9 JUMPI DUP1 PUSH4 0xC3C5A547 EQ PUSH2 0x2D0 JUMPI DUP1 PUSH4 0xE711A812 EQ PUSH2 0x30D JUMPI DUP1 PUSH4 0xEEDAD66B EQ PUSH2 0x34A JUMPI PUSH2 0xDD JUMP JUMPDEST DUP1 PUSH4 0x8C10BB96 EQ PUSH2 0x214 JUMPI DUP1 PUSH4 0x92C90480 EQ PUSH2 0x251 JUMPI DUP1 PUSH4 0xA9EA37B6 EQ PUSH2 0x27C JUMPI PUSH2 0xDD JUMP JUMPDEST DUP1 PUSH4 0x27793F87 GT PUSH2 0xBB JUMPI DUP1 PUSH4 0x27793F87 EQ PUSH2 0x168 JUMPI DUP1 PUSH4 0x3A4B66F1 EQ PUSH2 0x193 JUMPI DUP1 PUSH4 0x43445CA8 EQ PUSH2 0x1BE JUMPI DUP1 PUSH4 0x6F9FB98A EQ PUSH2 0x1E9 JUMPI PUSH2 0xDD JUMP JUMPDEST DUP1 PUSH4 0x11B0AF15 EQ PUSH2 0xE2 JUMPI DUP1 PUSH4 0x15B80DF8 EQ PUSH2 0x10D JUMPI DUP1 PUSH4 0x20737796 EQ PUSH2 0x14A JUMPI JUMPDEST PUSH1 0x0 DUP1 REVERT JUMPDEST CALLVALUE DUP1 ISZERO PUSH2 0xEE JUMPI PUSH1 0x0 DUP1 REVERT JUMPDEST POP PUSH2 0xF7 PUSH2 0x373 JUMP JUMPDEST PUSH1 0x40 MLOAD PUSH2 0x104 SWAP2 SWAP1 PUSH2 0x1AF2 JUMP JUMPDEST PUSH1 0x40 MLOAD DUP1 SWAP2 SUB SWAP1 RETURN JUMPDEST CALLVALUE DUP1 ISZERO PUSH2 0x119 JUMPI PUSH1 0x0 DUP1 REVERT JUMPDEST POP PUSH2 0x134 PUSH1 0x4 DUP1 CALLDATASIZE SUB DUP2 ADD SWAP1 PUSH2 0x12F SWAP2 SWAP1 PUSH2 0x17B1 JUMP JUMPDEST PUSH2 0x753 JUMP JUMPDEST PUSH1 0x40 MLOAD PUSH2 0x141 SWAP2 SWAP1 PUSH2 0x1ABC JUMP JUMPDEST PUSH1 0x40 MLOAD DUP1 SWAP2 SUB SWAP1 RETURN JUMPDEST PUSH2 0x152 PUSH2 0x825 JUMP JUMPDEST PUSH1 0x40 MLOAD PUSH2 0x15F SWAP2 SWAP1 PUSH2 0x1CBE JUMP JUMPDEST PUSH1 0x40 MLOAD DUP1 SWAP2 SUB SWAP1 RETURN JUMPDEST CALLVALUE DUP1 ISZERO PUSH2 0x174 JUMPI PUSH1 0x0 DUP1 REVERT JUMPDEST POP PUSH2 0x17D PUSH2 0xB9D JUMP JUMPDEST PUSH1 0x40 MLOAD PUSH2 0x18A SWAP2 SWAP1 PUSH2 0x1AF2 JUMP JUMPDEST PUSH1 0x40 MLOAD DUP1 SWAP2 SUB SWAP1 RETURN JUMPDEST CALLVALUE DUP1 ISZERO PUSH2 0x19F JUMPI PUSH1 0x0 DUP1 REVERT JUMPDEST POP PUSH2 0x1A8 PUSH2 0xBB0 JUMP JUMPDEST PUSH1 0x40 MLOAD PUSH2 0x1B5 SWAP2 SWAP1 PUSH2 0x1CBE JUMP JUMPDEST PUSH1 0x40 MLOAD DUP1 SWAP2 SUB SWAP1 RETURN JUMPDEST CALLVALUE DUP1 ISZERO PUSH2 0x1CA JUMPI PUSH1 0x0 DUP1 REVERT JUMPDEST POP PUSH2 0x1D3 PUSH2 0xBB6 JUMP JUMPDEST PUSH1 0x40 MLOAD PUSH2 0x1E0 SWAP2 SWAP1 PUSH2 0x1ABC JUMP JUMPDEST PUSH1 0x40 MLOAD DUP1 SWAP2 SUB SWAP1 RETURN JUMPDEST CALLVALUE DUP1 ISZERO PUSH2 0x1F5 JUMPI PUSH1 0x0 DUP1 REVERT JUMPDEST POP PUSH2 0x1FE PUSH2 0xC34 JUMP JUMPDEST PUSH1 0x40 MLOAD PUSH2 0x20B SWAP2 SWAP1 PUSH2 0x1CBE JUMP JUMPDEST PUSH1 0x40 MLOAD DUP1 SWAP2 SUB SWAP1 RETURN JUMPDEST CALLVALUE DUP1 ISZERO PUSH2 0x220 JUMPI PUSH1 0x0 DUP1 REVERT JUMPDEST POP PUSH2 0x23B PUSH1 0x4 DUP1 CALLDATASIZE SUB DUP2 ADD SWAP1 PUSH2 0x236 SWAP2 SWAP1 PUSH2 0x1838 JUMP JUMPDEST PUSH2 0xC3C JUMP JUMPDEST PUSH1 0x40 MLOAD PUSH2 0x248 SWAP2 SWAP1 PUSH2 0x1AD7 JUMP JUMPDEST PUSH1 0x40 MLOAD DUP1 SWAP2 SUB SWAP1 RETURN JUMPDEST CALLVALUE DUP1 ISZERO PUSH2 0x25D JUMPI PUSH1 0x0 DUP1 REVERT JUMPDEST POP PUSH2 0x266 PUSH2 0x1088 JUMP JUMPDEST PUSH1 0x40 MLOAD PUSH2 0x273 SWAP2 SWAP1 PUSH2 0x1ABC JUMP JUMPDEST PUSH1 0x40 MLOAD DUP1 SWAP2 SUB SWAP1 RETURN JUMPDEST CALLVALUE DUP1 ISZERO PUSH2 0x288 JUMPI PUSH1 0x0 DUP1 REVERT JUMPDEST POP PUSH2 0x2A3 PUSH1 0x4 DUP1 CALLDATASIZE SUB DUP2 ADD SWAP1 PUSH2 0x29E SWAP2 SWAP1 PUSH2 0x17DE JUMP JUMPDEST PUSH2 0x10A9 JUMP JUMPDEST PUSH1 0x40 MLOAD PUSH2 0x2B0 SWAP2 SWAP1 PUSH2 0x1ABC JUMP JUMPDEST PUSH1 0x40 MLOAD DUP1 SWAP2 SUB SWAP1 RETURN JUMPDEST CALLVALUE DUP1 ISZERO PUSH2 0x2C5 JUMPI PUSH1 0x0 DUP1 REVERT JUMPDEST POP PUSH2 0x2CE PUSH2 0x133E JUMP JUMPDEST STOP JUMPDEST CALLVALUE DUP1 ISZERO PUSH2 0x2DC JUMPI PUSH1 0x0 DUP1 REVERT JUMPDEST POP PUSH2 0x2F7 PUSH1 0x4 DUP1 CALLDATASIZE SUB DUP2 ADD SWAP1 PUSH2 0x2F2 SWAP2 SWAP1 PUSH2 0x17B1 JUMP JUMPDEST PUSH2 0x13CA JUMP JUMPDEST PUSH1 0x40 MLOAD PUSH2 0x304 SWAP2 SWAP1 PUSH2 0x1ABC JUMP JUMPDEST PUSH1 0x40 MLOAD DUP1 SWAP2 SUB SWAP1 RETURN JUMPDEST CALLVALUE DUP1 ISZERO PUSH2 0x319 JUMPI PUSH1 0x0 DUP1 REVERT JUMPDEST POP PUSH2 0x334 PUSH1 0x4 DUP1 CALLDATASIZE SUB DUP2 ADD SWAP1 PUSH2 0x32F SWAP2 SWAP1 PUSH2 0x17B1 JUMP JUMPDEST PUSH2 0x147A JUMP JUMPDEST PUSH1 0x40 MLOAD PUSH2 0x341 SWAP2 SWAP1 PUSH2 0x1ABC JUMP JUMPDEST PUSH1 0x40 MLOAD DUP1 SWAP2 SUB SWAP1 RETURN JUMPDEST CALLVALUE DUP1 ISZERO PUSH2 0x356 JUMPI PUSH1 0x0 DUP1 REVERT JUMPDEST POP PUSH2 0x371 PUSH1 0x4 DUP1 CALLDATASIZE SUB DUP2 ADD SWAP1 PUSH2 0x36C SWAP2 SWAP1 PUSH2 0x180B JUMP JUMPDEST PUSH2 0x15AA JUMP JUMPDEST STOP JUMPDEST PUSH1 0x0 DUP1 PUSH1 0x3 DUP2 GT ISZERO PUSH2 0x388 JUMPI PUSH2 0x387 PUSH2 0x1EE9 JUMP JUMPDEST JUMPDEST PUSH1 0x3 PUSH1 0x1 SWAP1 SLOAD SWAP1 PUSH2 0x100 EXP SWAP1 DIV PUSH1 0xFF AND PUSH1 0x3 DUP2 GT ISZERO PUSH2 0x3AA JUMPI PUSH2 0x3A9 PUSH2 0x1EE9 JUMP JUMPDEST JUMPDEST EQ ISZERO DUP1 ISZERO PUSH2 0x3EC JUMPI POP PUSH1 0x0 PUSH1 0x3 DUP2 GT ISZERO PUSH2 0x3C7 JUMPI PUSH2 0x3C6 PUSH2 0x1EE9 JUMP JUMPDEST JUMPDEST PUSH1 0x3 PUSH1 0x2 SWAP1 SLOAD SWAP1 PUSH2 0x100 EXP SWAP1 DIV PUSH1 0xFF AND PUSH1 0x3 DUP2 GT ISZERO PUSH2 0x3E9 JUMPI PUSH2 0x3E8 PUSH2 0x1EE9 JUMP JUMPDEST JUMPDEST EQ ISZERO JUMPDEST PUSH2 0x42B JUMPI PUSH1 0x40 MLOAD PUSH32 0x8C379A000000000000000000000000000000000000000000000000000000000 DUP2 MSTORE PUSH1 0x4 ADD PUSH2 0x422 SWAP1 PUSH2 0x1BBE JUMP JUMPDEST PUSH1 0x40 MLOAD DUP1 SWAP2 SUB SWAP1 REVERT JUMPDEST PUSH1 0x3 DUP1 PUSH1 0x2 SWAP1 SLOAD SWAP1 PUSH2 0x100 EXP SWAP1 DIV PUSH1 0xFF AND PUSH1 0x3 DUP2 GT ISZERO PUSH2 0x44E JUMPI PUSH2 0x44D PUSH2 0x1EE9 JUMP JUMPDEST JUMPDEST PUSH1 0x3 PUSH1 0x1 SWAP1 SLOAD SWAP1 PUSH2 0x100 EXP SWAP1 DIV PUSH1 0xFF AND PUSH1 0x3 DUP2 GT ISZERO PUSH2 0x470 JUMPI PUSH2 0x46F PUSH2 0x1EE9 JUMP JUMPDEST JUMPDEST PUSH1 0x3 PUSH2 0x47C SWAP2 SWAP1 PUSH2 0x1CEA JUMP JUMPDEST PUSH2 0x486 SWAP2 SWAP1 PUSH2 0x1D40 JUMP JUMPDEST PUSH2 0x490 SWAP2 SWAP1 PUSH2 0x1E5A JUMP JUMPDEST PUSH1 0x2 DUP2 GT ISZERO PUSH2 0x4A2 JUMPI PUSH2 0x4A1 PUSH2 0x1EE9 JUMP JUMPDEST JUMPDEST PUSH1 0x3 PUSH1 0x0 PUSH2 0x100 EXP DUP2 SLOAD DUP2 PUSH1 0xFF MUL NOT AND SWAP1 DUP4 PUSH1 0x2 DUP2 GT ISZERO PUSH2 0x4C6 JUMPI PUSH2 0x4C5 PUSH2 0x1EE9 JUMP JUMPDEST JUMPDEST MUL OR SWAP1 SSTORE POP PUSH1 0x1 PUSH1 0x2 DUP2 GT ISZERO PUSH2 0x4DF JUMPI PUSH2 0x4DE PUSH2 0x1EE9 JUMP JUMPDEST JUMPDEST PUSH1 0x3 PUSH1 0x0 SWAP1 SLOAD SWAP1 PUSH2 0x100 EXP SWAP1 DIV PUSH1 0xFF AND PUSH1 0x2 DUP2 GT ISZERO PUSH2 0x501 JUMPI PUSH2 0x500 PUSH2 0x1EE9 JUMP JUMPDEST JUMPDEST EQ ISZERO PUSH2 0x573 JUMPI PUSH1 0x0 DUP1 SLOAD SWAP1 PUSH2 0x100 EXP SWAP1 DIV PUSH20 0xFFFFFFFFFFFFFFFFFFFFFFFFFFFFFFFFFFFFFFFF AND PUSH20 0xFFFFFFFFFFFFFFFFFFFFFFFFFFFFFFFFFFFFFFFF AND PUSH2 0x8FC SELFBALANCE SWAP1 DUP2 ISZERO MUL SWAP1 PUSH1 0x40 MLOAD PUSH1 0x0 PUSH1 0x40 MLOAD DUP1 DUP4 SUB DUP2 DUP6 DUP9 DUP9 CALL SWAP4 POP POP POP POP ISZERO DUP1 ISZERO PUSH2 0x56D JUMPI RETURNDATASIZE PUSH1 0x0 DUP1 RETURNDATACOPY RETURNDATASIZE PUSH1 0x0 REVERT JUMPDEST POP PUSH2 0x6F0 JUMP JUMPDEST PUSH1 0x2 DUP1 DUP2 GT ISZERO PUSH2 0x586 JUMPI PUSH2 0x585 PUSH2 0x1EE9 JUMP JUMPDEST JUMPDEST PUSH1 0x3 PUSH1 0x0 SWAP1 SLOAD SWAP1 PUSH2 0x100 EXP SWAP1 DIV PUSH1 0xFF AND PUSH1 0x2 DUP2 GT ISZERO PUSH2 0x5A8 JUMPI PUSH2 0x5A7 PUSH2 0x1EE9 JUMP JUMPDEST JUMPDEST EQ ISZERO PUSH2 0x61C JUMPI PUSH1 0x1 PUSH1 0x0 SWAP1 SLOAD SWAP1 PUSH2 0x100 EXP SWAP1 DIV PUSH20 0xFFFFFFFFFFFFFFFFFFFFFFFFFFFFFFFFFFFFFFFF AND PUSH20 0xFFFFFFFFFFFFFFFFFFFFFFFFFFFFFFFFFFFFFFFF AND PUSH2 0x8FC SELFBALANCE SWAP1 DUP2 ISZERO MUL SWAP1 PUSH1 0x40 MLOAD PUSH1 0x0 PUSH1 0x40 MLOAD DUP1 DUP4 SUB DUP2 DUP6 DUP9 DUP9 CALL SWAP4 POP POP POP POP ISZERO DUP1 ISZERO PUSH2 0x616 JUMPI RETURNDATASIZE PUSH1 0x0 DUP1 RETURNDATACOPY RETURNDATASIZE PUSH1 0x0 REVERT JUMPDEST POP PUSH2 0x6EF JUMP JUMPDEST PUSH1 0x0 DUP1 SLOAD SWAP1 PUSH2 0x100 EXP SWAP1 DIV PUSH20 0xFFFFFFFFFFFFFFFFFFFFFFFFFFFFFFFFFFFFFFFF AND PUSH20 0xFFFFFFFFFFFFFFFFFFFFFFFFFFFFFFFFFFFFFFFF AND PUSH2 0x8FC PUSH1 0x2 SLOAD SWAP1 DUP2 ISZERO MUL SWAP1 PUSH1 0x40 MLOAD PUSH1 0x0 PUSH1 0x40 MLOAD DUP1 DUP4 SUB DUP2 DUP6 DUP9 DUP9 CALL SWAP4 POP POP POP POP ISZERO DUP1 ISZERO PUSH2 0x684 JUMPI RETURNDATASIZE PUSH1 0x0 DUP1 RETURNDATACOPY RETURNDATASIZE PUSH1 0x0 REVERT JUMPDEST POP PUSH1 0x1 PUSH1 0x0 SWAP1 SLOAD SWAP1 PUSH2 0x100 EXP SWAP1 DIV PUSH20 0xFFFFFFFFFFFFFFFFFFFFFFFFFFFFFFFFFFFFFFFF AND PUSH20 0xFFFFFFFFFFFFFFFFFFFFFFFFFFFFFFFFFFFFFFFF AND PUSH2 0x8FC SELFBALANCE SWAP1 DUP2 ISZERO MUL SWAP1 PUSH1 0x40 MLOAD PUSH1 0x0 PUSH1 0x40 MLOAD DUP1 DUP4 SUB DUP2 DUP6 DUP9 DUP9 CALL SWAP4 POP POP POP POP ISZERO DUP1 ISZERO PUSH2 0x6ED JUMPI RETURNDATASIZE PUSH1 0x0 DUP1 RETURNDATACOPY RETURNDATASIZE PUSH1 0x0 REVERT JUMPDEST POP JUMPDEST JUMPDEST PUSH2 0x6F8 PUSH2 0x1648 JUMP JUMPDEST PUSH32 0x6D1A16000380C9ADDE391BCB46A92C2CE8C46811CFF002ED5DEC38DFDC2373CD PUSH1 0x3 PUSH1 0x0 SWAP1 SLOAD SWAP1 PUSH2 0x100 EXP SWAP1 DIV PUSH1 0xFF AND PUSH1 0x40 MLOAD PUSH2 0x736 SWAP2 SWAP1 PUSH2 0x1AF2 JUMP JUMPDEST PUSH1 0x40 MLOAD DUP1 SWAP2 SUB SWAP1 LOG1 PUSH1 0x3 PUSH1 0x0 SWAP1 SLOAD SWAP1 PUSH2 0x100 EXP SWAP1 DIV PUSH1 0xFF AND SWAP1 POP SWAP1 JUMP JUMPDEST PUSH1 0x0 DUP2 PUSH20 0xFFFFFFFFFFFFFFFFFFFFFFFFFFFFFFFFFFFFFFFF AND PUSH1 0x0 DUP1 SLOAD SWAP1 PUSH2 0x100 EXP SWAP1 DIV PUSH20 0xFFFFFFFFFFFFFFFFFFFFFFFFFFFFFFFFFFFFFFFF AND PUSH20 0xFFFFFFFFFFFFFFFFFFFFFFFFFFFFFFFFFFFFFFFF AND EQ DUP1 ISZERO PUSH2 0x7B5 JUMPI POP PUSH1 0x0 DUP1 SHL PUSH1 0x4 SLOAD EQ ISZERO JUMPDEST DUP1 PUSH2 0x81E JUMPI POP DUP2 PUSH20 0xFFFFFFFFFFFFFFFFFFFFFFFFFFFFFFFFFFFFFFFF AND PUSH1 0x1 PUSH1 0x0 SWAP1 SLOAD SWAP1 PUSH2 0x100 EXP SWAP1 DIV PUSH20 0xFFFFFFFFFFFFFFFFFFFFFFFFFFFFFFFFFFFFFFFF AND PUSH20 0xFFFFFFFFFFFFFFFFFFFFFFFFFFFFFFFFFFFFFFFF AND EQ DUP1 ISZERO PUSH2 0x81D JUMPI POP PUSH1 0x0 DUP1 SHL PUSH1 0x5 SLOAD EQ ISZERO JUMPDEST JUMPDEST SWAP1 POP SWAP2 SWAP1 POP JUMP JUMPDEST PUSH1 0x0 PUSH2 0x3E8 CALLVALUE LT ISZERO PUSH2 0x86C JUMPI PUSH1 0x40 MLOAD PUSH32 0x8C379A000000000000000000000000000000000000000000000000000000000 DUP2 MSTORE PUSH1 0x4 ADD PUSH2 0x863 SWAP1 PUSH2 0x1C5E JUMP JUMPDEST PUSH1 0x40 MLOAD DUP1 SWAP2 SUB SWAP1 REVERT JUMPDEST PUSH1 0x0 PUSH1 0x2 SLOAD EQ DUP1 PUSH2 0x87F JUMPI POP PUSH1 0x2 SLOAD CALLVALUE LT ISZERO JUMPDEST PUSH2 0x8BE JUMPI PUSH1 0x40 MLOAD PUSH32 0x8C379A000000000000000000000000000000000000000000000000000000000 DUP2 MSTORE PUSH1 0x4 ADD PUSH2 0x8B5 SWAP1 PUSH2 0x1C9E JUMP JUMPDEST PUSH1 0x40 MLOAD DUP1 SWAP2 SUB SWAP1 REVERT JUMPDEST PUSH1 0x0 DUP1 SLOAD SWAP1 PUSH2 0x100 EXP SWAP1 DIV PUSH20 0xFFFFFFFFFFFFFFFFFFFFFFFFFFFFFFFFFFFFFFFF AND PUSH20 0xFFFFFFFFFFFFFFFFFFFFFFFFFFFFFFFFFFFFFFFF AND CALLER PUSH20 0xFFFFFFFFFFFFFFFFFFFFFFFFFFFFFFFFFFFFFFFF AND EQ ISZERO DUP1 ISZERO PUSH2 0x968 JUMPI POP PUSH1 0x1 PUSH1 0x0 SWAP1 SLOAD SWAP1 PUSH2 0x100 EXP SWAP1 DIV PUSH20 0xFFFFFFFFFFFFFFFFFFFFFFFFFFFFFFFFFFFFFFFF AND PUSH20 0xFFFFFFFFFFFFFFFFFFFFFFFFFFFFFFFFFFFFFFFF AND CALLER PUSH20 0xFFFFFFFFFFFFFFFFFFFFFFFFFFFFFFFFFFFFFFFF AND EQ ISZERO JUMPDEST PUSH2 0x9A7 JUMPI PUSH1 0x40 MLOAD PUSH32 0x8C379A000000000000000000000000000000000000000000000000000000000 DUP2 MSTORE PUSH1 0x4 ADD PUSH2 0x99E SWAP1 PUSH2 0x1B9E JUMP JUMPDEST PUSH1 0x40 MLOAD DUP1 SWAP2 SUB SWAP1 REVERT JUMPDEST PUSH1 0x0 PUSH20 0xFFFFFFFFFFFFFFFFFFFFFFFFFFFFFFFFFFFFFFFF AND PUSH1 0x0 DUP1 SLOAD SWAP1 PUSH2 0x100 EXP SWAP1 DIV PUSH20 0xFFFFFFFFFFFFFFFFFFFFFFFFFFFFFFFFFFFFFFFF AND PUSH20 0xFFFFFFFFFFFFFFFFFFFFFFFFFFFFFFFFFFFFFFFF AND EQ ISZERO PUSH2 0xA84 JUMPI CALLER PUSH1 0x0 DUP1 PUSH2 0x100 EXP DUP2 SLOAD DUP2 PUSH20 0xFFFFFFFFFFFFFFFFFFFFFFFFFFFFFFFFFFFFFFFF MUL NOT AND SWAP1 DUP4 PUSH20 0xFFFFFFFFFFFFFFFFFFFFFFFFFFFFFFFFFFFFFFFF AND MUL OR SWAP1 SSTORE POP CALLVALUE PUSH1 0x2 DUP2 SWAP1 SSTORE POP PUSH32 0x982CDDADD143916F714D5E4CDB1FDBF71A3A44C802807791F444525464AD42AD PUSH1 0x1 PUSH1 0x40 MLOAD PUSH2 0xA73 SWAP2 SWAP1 PUSH2 0x1B28 JUMP JUMPDEST PUSH1 0x40 MLOAD DUP1 SWAP2 SUB SWAP1 LOG1 PUSH1 0x1 SWAP1 POP PUSH2 0xB9A JUMP JUMPDEST PUSH1 0x0 PUSH20 0xFFFFFFFFFFFFFFFFFFFFFFFFFFFFFFFFFFFFFFFF AND PUSH1 0x1 PUSH1 0x0 SWAP1 SLOAD SWAP1 PUSH2 0x100 EXP SWAP1 DIV PUSH20 0xFFFFFFFFFFFFFFFFFFFFFFFFFFFFFFFFFFFFFFFF AND PUSH20 0xFFFFFFFFFFFFFFFFFFFFFFFFFFFFFFFFFFFFFFFF AND EQ ISZERO PUSH2 0xB5D JUMPI CALLER PUSH1 0x1 PUSH1 0x0 PUSH2 0x100 EXP DUP2 SLOAD DUP2 PUSH20 0xFFFFFFFFFFFFFFFFFFFFFFFFFFFFFFFFFFFFFFFF MUL NOT AND SWAP1 DUP4 PUSH20 0xFFFFFFFFFFFFFFFFFFFFFFFFFFFFFFFFFFFFFFFF AND MUL OR SWAP1 SSTORE POP PUSH32 0x982CDDADD143916F714D5E4CDB1FDBF71A3A44C802807791F444525464AD42AD PUSH1 0x2 PUSH1 0x40 MLOAD PUSH2 0xB4C SWAP2 SWAP1 PUSH2 0x1B43 JUMP JUMPDEST PUSH1 0x40 MLOAD DUP1 SWAP2 SUB SWAP1 LOG1 PUSH1 0x2 SWAP1 POP PUSH2 0xB9A JUMP JUMPDEST PUSH32 0x982CDDADD143916F714D5E4CDB1FDBF71A3A44C802807791F444525464AD42AD PUSH1 0x0 PUSH1 0x40 MLOAD PUSH2 0xB8D SWAP2 SWAP1 PUSH2 0x1B0D JUMP JUMPDEST PUSH1 0x40 MLOAD DUP1 SWAP2 SUB SWAP1 LOG1 PUSH1 0x0 SWAP1 POP JUMPDEST SWAP1 JUMP JUMPDEST PUSH1 0x3 PUSH1 0x0 SWAP1 SLOAD SWAP1 PUSH2 0x100 EXP SWAP1 DIV PUSH1 0xFF AND DUP2 JUMP JUMPDEST PUSH1 0x2 SLOAD DUP2 JUMP JUMPDEST PUSH1 0x0 DUP1 PUSH1 0x3 DUP2 GT ISZERO PUSH2 0xBCB JUMPI PUSH2 0xBCA PUSH2 0x1EE9 JUMP JUMPDEST JUMPDEST PUSH1 0x3 PUSH1 0x1 SWAP1 SLOAD SWAP1 PUSH2 0x100 EXP SWAP1 DIV PUSH1 0xFF AND PUSH1 0x3 DUP2 GT ISZERO PUSH2 0xBED JUMPI PUSH2 0xBEC PUSH2 0x1EE9 JUMP JUMPDEST JUMPDEST EQ ISZERO DUP1 ISZERO PUSH2 0xC2F JUMPI POP PUSH1 0x0 PUSH1 0x3 DUP2 GT ISZERO PUSH2 0xC0A JUMPI PUSH2 0xC09 PUSH2 0x1EE9 JUMP JUMPDEST JUMPDEST PUSH1 0x3 PUSH1 0x2 SWAP1 SLOAD SWAP1 PUSH2 0x100 EXP SWAP1 DIV PUSH1 0xFF AND PUSH1 0x3 DUP2 GT ISZERO PUSH2 0xC2C JUMPI PUSH2 0xC2B PUSH2 0x1EE9 JUMP JUMPDEST JUMPDEST EQ ISZERO JUMPDEST SWAP1 POP SWAP1 JUMP JUMPDEST PUSH1 0x0 SELFBALANCE SWAP1 POP SWAP1 JUMP JUMPDEST PUSH1 0x0 DUP1 PUSH1 0x0 SWAP1 SLOAD SWAP1 PUSH2 0x100 EXP SWAP1 DIV PUSH20 0xFFFFFFFFFFFFFFFFFFFFFFFFFFFFFFFFFFFFFFFF AND PUSH20 0xFFFFFFFFFFFFFFFFFFFFFFFFFFFFFFFFFFFFFFFF AND CALLER PUSH20 0xFFFFFFFFFFFFFFFFFFFFFFFFFFFFFFFFFFFFFFFF AND EQ DUP1 PUSH2 0xCE6 JUMPI POP PUSH1 0x1 PUSH1 0x0 SWAP1 SLOAD SWAP1 PUSH2 0x100 EXP SWAP1 DIV PUSH20 0xFFFFFFFFFFFFFFFFFFFFFFFFFFFFFFFFFFFFFFFF AND PUSH20 0xFFFFFFFFFFFFFFFFFFFFFFFFFFFFFFFFFFFFFFFF AND CALLER PUSH20 0xFFFFFFFFFFFFFFFFFFFFFFFFFFFFFFFFFFFFFFFF AND EQ JUMPDEST PUSH2 0xD25 JUMPI PUSH1 0x40 MLOAD PUSH32 0x8C379A000000000000000000000000000000000000000000000000000000000 DUP2 MSTORE PUSH1 0x4 ADD PUSH2 0xD1C SWAP1 PUSH2 0x1B7E JUMP JUMPDEST PUSH1 0x40 MLOAD DUP1 SWAP2 SUB SWAP1 REVERT JUMPDEST DUP3 PUSH1 0x1 DUP2 LT ISZERO DUP1 ISZERO PUSH2 0xD38 JUMPI POP PUSH1 0x3 DUP2 GT ISZERO JUMPDEST PUSH2 0xD77 JUMPI PUSH1 0x40 MLOAD PUSH32 0x8C379A000000000000000000000000000000000000000000000000000000000 DUP2 MSTORE PUSH1 0x4 ADD PUSH2 0xD6E SWAP1 PUSH2 0x1BDE JUMP JUMPDEST PUSH1 0x40 MLOAD DUP1 SWAP2 SUB SWAP1 REVERT JUMPDEST PUSH1 0x0 DUP1 SHL PUSH1 0x4 SLOAD EQ ISZERO DUP1 ISZERO PUSH2 0xD91 JUMPI POP PUSH1 0x0 DUP1 SHL PUSH1 0x5 SLOAD EQ ISZERO JUMPDEST PUSH2 0xDD0 JUMPI PUSH1 0x40 MLOAD PUSH32 0x8C379A000000000000000000000000000000000000000000000000000000000 DUP2 MSTORE PUSH1 0x4 ADD PUSH2 0xDC7 SWAP1 PUSH2 0x1BFE JUMP JUMPDEST PUSH1 0x40 MLOAD DUP1 SWAP2 SUB SWAP1 REVERT JUMPDEST CALLER PUSH20 0xFFFFFFFFFFFFFFFFFFFFFFFFFFFFFFFFFFFFFFFF AND PUSH1 0x0 DUP1 SLOAD SWAP1 PUSH2 0x100 EXP SWAP1 DIV PUSH20 0xFFFFFFFFFFFFFFFFFFFFFFFFFFFFFFFFFFFFFFFF AND PUSH20 0xFFFFFFFFFFFFFFFFFFFFFFFFFFFFFFFFFFFFFFFF AND EQ ISZERO PUSH2 0xF0A JUMPI PUSH2 0xE2E DUP5 DUP5 PUSH2 0x173F JUMP JUMPDEST PUSH1 0x4 SLOAD EQ PUSH2 0xE71 JUMPI PUSH1 0x40 MLOAD PUSH32 0x8C379A000000000000000000000000000000000000000000000000000000000 DUP2 MSTORE PUSH1 0x4 ADD PUSH2 0xE68 SWAP1 PUSH2 0x1C3E JUMP JUMPDEST PUSH1 0x40 MLOAD DUP1 SWAP2 SUB SWAP1 REVERT JUMPDEST DUP4 PUSH1 0x3 DUP2 GT ISZERO PUSH2 0xE84 JUMPI PUSH2 0xE83 PUSH2 0x1EE9 JUMP JUMPDEST JUMPDEST PUSH1 0x3 PUSH1 0x1 PUSH2 0x100 EXP DUP2 SLOAD DUP2 PUSH1 0xFF MUL NOT AND SWAP1 DUP4 PUSH1 0x3 DUP2 GT ISZERO PUSH2 0xEA8 JUMPI PUSH2 0xEA7 PUSH2 0x1EE9 JUMP JUMPDEST JUMPDEST MUL OR SWAP1 SSTORE POP PUSH32 0x47C7ACBD4D57F5DBC1F9E9D1F9E0899016B547AFBAD29E7A416A892B44898E97 PUSH1 0x3 PUSH1 0x1 SWAP1 SLOAD SWAP1 PUSH2 0x100 EXP SWAP1 DIV PUSH1 0xFF AND PUSH1 0x40 MLOAD PUSH2 0xEEB SWAP2 SWAP1 PUSH2 0x1AD7 JUMP JUMPDEST PUSH1 0x40 MLOAD DUP1 SWAP2 SUB SWAP1 LOG1 PUSH1 0x3 PUSH1 0x1 SWAP1 SLOAD SWAP1 PUSH2 0x100 EXP SWAP1 DIV PUSH1 0xFF AND SWAP2 POP PUSH2 0x1081 JUMP JUMPDEST CALLER PUSH20 0xFFFFFFFFFFFFFFFFFFFFFFFFFFFFFFFFFFFFFFFF AND PUSH1 0x1 PUSH1 0x0 SWAP1 SLOAD SWAP1 PUSH2 0x100 EXP SWAP1 DIV PUSH20 0xFFFFFFFFFFFFFFFFFFFFFFFFFFFFFFFFFFFFFFFF AND PUSH20 0xFFFFFFFFFFFFFFFFFFFFFFFFFFFFFFFFFFFFFFFF AND EQ ISZERO PUSH2 0x1046 JUMPI PUSH2 0xF6A DUP5 DUP5 PUSH2 0x173F JUMP JUMPDEST PUSH1 0x5 SLOAD EQ PUSH2 0xFAD JUMPI PUSH1 0x40 MLOAD PUSH32 0x8C379A000000000000000000000000000000000000000000000000000000000 DUP2 MSTORE PUSH1 0x4 ADD PUSH2 0xFA4 SWAP1 PUSH2 0x1C3E JUMP JUMPDEST PUSH1 0x40 MLOAD DUP1 SWAP2 SUB SWAP1 REVERT JUMPDEST DUP4 PUSH1 0x3 DUP2 GT ISZERO PUSH2 0xFC0 JUMPI PUSH2 0xFBF PUSH2 0x1EE9 JUMP JUMPDEST JUMPDEST PUSH1 0x3 PUSH1 0x2 PUSH2 0x100 EXP DUP2 SLOAD DUP2 PUSH1 0xFF MUL NOT AND SWAP1 DUP4 PUSH1 0x3 DUP2 GT ISZERO PUSH2 0xFE4 JUMPI PUSH2 0xFE3 PUSH2 0x1EE9 JUMP JUMPDEST JUMPDEST MUL OR SWAP1 SSTORE POP PUSH32 0x47C7ACBD4D57F5DBC1F9E9D1F9E0899016B547AFBAD29E7A416A892B44898E97 PUSH1 0x3 PUSH1 0x2 SWAP1 SLOAD SWAP1 PUSH2 0x100 EXP SWAP1 DIV PUSH1 0xFF AND PUSH1 0x40 MLOAD PUSH2 0x1027 SWAP2 SWAP1 PUSH2 0x1AD7 JUMP JUMPDEST PUSH1 0x40 MLOAD DUP1 SWAP2 SUB SWAP1 LOG1 PUSH1 0x3 PUSH1 0x2 SWAP1 SLOAD SWAP1 PUSH2 0x100 EXP SWAP1 DIV PUSH1 0xFF AND SWAP2 POP PUSH2 0x1081 JUMP JUMPDEST PUSH1 0x40 MLOAD PUSH32 0x8C379A000000000000000000000000000000000000000000000000000000000 DUP2 MSTORE PUSH1 0x4 ADD PUSH2 0x1078 SWAP1 PUSH2 0x1B5E JUMP JUMPDEST PUSH1 0x40 MLOAD DUP1 SWAP2 SUB SWAP1 REVERT JUMPDEST POP SWAP3 SWAP2 POP POP JUMP JUMPDEST PUSH1 0x0 DUP1 PUSH1 0x0 SHL PUSH1 0x4 SLOAD EQ ISZERO DUP1 ISZERO PUSH2 0x10A4 JUMPI POP PUSH1 0x0 DUP1 SHL PUSH1 0x5 SLOAD EQ ISZERO JUMPDEST SWAP1 POP SWAP1 JUMP JUMPDEST PUSH1 0x0 DUP1 PUSH1 0x0 SWAP1 SLOAD SWAP1 PUSH2 0x100 EXP SWAP1 DIV PUSH20 0xFFFFFFFFFFFFFFFFFFFFFFFFFFFFFFFFFFFFFFFF AND PUSH20 0xFFFFFFFFFFFFFFFFFFFFFFFFFFFFFFFFFFFFFFFF AND CALLER PUSH20 0xFFFFFFFFFFFFFFFFFFFFFFFFFFFFFFFFFFFFFFFF AND EQ DUP1 PUSH2 0x1153 JUMPI POP PUSH1 0x1 PUSH1 0x0 SWAP1 SLOAD SWAP1 PUSH2 0x100 EXP SWAP1 DIV PUSH20 0xFFFFFFFFFFFFFFFFFFFFFFFFFFFFFFFFFFFFFFFF AND PUSH20 0xFFFFFFFFFFFFFFFFFFFFFFFFFFFFFFFFFFFFFFFF AND CALLER PUSH20 0xFFFFFFFFFFFFFFFFFFFFFFFFFFFFFFFFFFFFFFFF AND EQ JUMPDEST PUSH2 0x1192 JUMPI PUSH1 0x40 MLOAD PUSH32 0x8C379A000000000000000000000000000000000000000000000000000000000 DUP2 MSTORE PUSH1 0x4 ADD PUSH2 0x1189 SWAP1 PUSH2 0x1B7E JUMP JUMPDEST PUSH1 0x40 MLOAD DUP1 SWAP2 SUB SWAP1 REVERT JUMPDEST DUP2 PUSH1 0x0 DUP2 EQ ISZERO PUSH2 0x11D7 JUMPI PUSH1 0x40 MLOAD PUSH32 0x8C379A000000000000000000000000000000000000000000000000000000000 DUP2 MSTORE PUSH1 0x4 ADD PUSH2 0x11CE SWAP1 PUSH2 0x1C1E JUMP JUMPDEST PUSH1 0x40 MLOAD DUP1 SWAP2 SUB SWAP1 REVERT JUMPDEST PUSH1 0x0 DUP1 SLOAD SWAP1 PUSH2 0x100 EXP SWAP1 DIV PUSH20 0xFFFFFFFFFFFFFFFFFFFFFFFFFFFFFFFFFFFFFFFF AND PUSH20 0xFFFFFFFFFFFFFFFFFFFFFFFFFFFFFFFFFFFFFFFF AND CALLER PUSH20 0xFFFFFFFFFFFFFFFFFFFFFFFFFFFFFFFFFFFFFFFF AND EQ DUP1 ISZERO PUSH2 0x1236 JUMPI POP PUSH1 0x0 DUP1 SHL PUSH1 0x4 SLOAD EQ JUMPDEST ISZERO PUSH2 0x1247 JUMPI DUP3 PUSH1 0x4 DUP2 SWAP1 SSTORE POP PUSH2 0x12FB JUMP JUMPDEST PUSH1 0x1 PUSH1 0x0 SWAP1 SLOAD SWAP1 PUSH2 0x100 EXP SWAP1 DIV PUSH20 0xFFFFFFFFFFFFFFFFFFFFFFFFFFFFFFFFFFFFFFFF AND PUSH20 0xFFFFFFFFFFFFFFFFFFFFFFFFFFFFFFFFFFFFFFFF AND CALLER PUSH20 0xFFFFFFFFFFFFFFFFFFFFFFFFFFFFFFFFFFFFFFFF AND EQ DUP1 ISZERO PUSH2 0x12A8 JUMPI POP PUSH1 0x0 DUP1 SHL PUSH1 0x5 SLOAD EQ JUMPDEST ISZERO PUSH2 0x12B9 JUMPI DUP3 PUSH1 0x5 DUP2 SWAP1 SSTORE POP PUSH2 0x12FA JUMP JUMPDEST PUSH32 0xD0E0EEE22AF482D2B75B0FACF637B601C155F06C6F143B473711527A01110F84 PUSH1 0x0 PUSH1 0x40 MLOAD PUSH2 0x12E9 SWAP2 SWAP1 PUSH2 0x1ABC JUMP JUMPDEST PUSH1 0x40 MLOAD DUP1 SWAP2 SUB SWAP1 LOG1 PUSH1 0x0 SWAP2 POP PUSH2 0x1338 JUMP JUMPDEST JUMPDEST PUSH32 0xD0E0EEE22AF482D2B75B0FACF637B601C155F06C6F143B473711527A01110F84 PUSH1 0x1 PUSH1 0x40 MLOAD PUSH2 0x132B SWAP2 SWAP1 PUSH2 0x1ABC JUMP JUMPDEST PUSH1 0x40 MLOAD DUP1 SWAP2 SUB SWAP1 LOG1 PUSH1 0x1 SWAP2 POP JUMPDEST POP SWAP2 SWAP1 POP JUMP JUMPDEST PUSH20 0x91CDA83C363A6F72F81A2041836B1E79B4A01AB1 PUSH20 0xFFFFFFFFFFFFFFFFFFFFFFFFFFFFFFFFFFFFFFFF AND CALLER PUSH20 0xFFFFFFFFFFFFFFFFFFFFFFFFFFFFFFFFFFFFFFFF AND EQ PUSH2 0x13C0 JUMPI PUSH1 0x40 MLOAD PUSH32 0x8C379A000000000000000000000000000000000000000000000000000000000 DUP2 MSTORE PUSH1 0x4 ADD PUSH2 0x13B7 SWAP1 PUSH2 0x1C7E JUMP JUMPDEST PUSH1 0x40 MLOAD DUP1 SWAP2 SUB SWAP1 REVERT JUMPDEST PUSH2 0x13C8 PUSH2 0x1648 JUMP JUMPDEST JUMP JUMPDEST PUSH1 0x0 DUP2 PUSH20 0xFFFFFFFFFFFFFFFFFFFFFFFFFFFFFFFFFFFFFFFF AND PUSH1 0x0 DUP1 SLOAD SWAP1 PUSH2 0x100 EXP SWAP1 DIV PUSH20 0xFFFFFFFFFFFFFFFFFFFFFFFFFFFFFFFFFFFFFFFF AND PUSH20 0xFFFFFFFFFFFFFFFFFFFFFFFFFFFFFFFFFFFFFFFF AND EQ DUP1 PUSH2 0x1473 JUMPI POP DUP2 PUSH20 0xFFFFFFFFFFFFFFFFFFFFFFFFFFFFFFFFFFFFFFFF AND PUSH1 0x1 PUSH1 0x0 SWAP1 SLOAD SWAP1 PUSH2 0x100 EXP SWAP1 DIV PUSH20 0xFFFFFFFFFFFFFFFFFFFFFFFFFFFFFFFFFFFFFFFF AND PUSH20 0xFFFFFFFFFFFFFFFFFFFFFFFFFFFFFFFFFFFFFFFF AND EQ JUMPDEST SWAP1 POP SWAP2 SWAP1 POP JUMP JUMPDEST PUSH1 0x0 DUP2 PUSH20 0xFFFFFFFFFFFFFFFFFFFFFFFFFFFFFFFFFFFFFFFF AND PUSH1 0x0 DUP1 SLOAD SWAP1 PUSH2 0x100 EXP SWAP1 DIV PUSH20 0xFFFFFFFFFFFFFFFFFFFFFFFFFFFFFFFFFFFFFFFF AND PUSH20 0xFFFFFFFFFFFFFFFFFFFFFFFFFFFFFFFFFFFFFFFF AND EQ DUP1 ISZERO PUSH2 0x150B JUMPI POP PUSH1 0x0 PUSH1 0x3 DUP2 GT ISZERO PUSH2 0x14E6 JUMPI PUSH2 0x14E5 PUSH2 0x1EE9 JUMP JUMPDEST JUMPDEST PUSH1 0x3 PUSH1 0x1 SWAP1 SLOAD SWAP1 PUSH2 0x100 EXP SWAP1 DIV PUSH1 0xFF AND PUSH1 0x3 DUP2 GT ISZERO PUSH2 0x1508 JUMPI PUSH2 0x1507 PUSH2 0x1EE9 JUMP JUMPDEST JUMPDEST EQ ISZERO JUMPDEST DUP1 PUSH2 0x15A3 JUMPI POP DUP2 PUSH20 0xFFFFFFFFFFFFFFFFFFFFFFFFFFFFFFFFFFFFFFFF AND PUSH1 0x1 PUSH1 0x0 SWAP1 SLOAD SWAP1 PUSH2 0x100 EXP SWAP1 DIV PUSH20 0xFFFFFFFFFFFFFFFFFFFFFFFFFFFFFFFFFFFFFFFF AND PUSH20 0xFFFFFFFFFFFFFFFFFFFFFFFFFFFFFFFFFFFFFFFF AND EQ DUP1 ISZERO PUSH2 0x15A2 JUMPI POP PUSH1 0x0 PUSH1 0x3 DUP2 GT ISZERO PUSH2 0x157D JUMPI PUSH2 0x157C PUSH2 0x1EE9 JUMP JUMPDEST JUMPDEST PUSH1 0x3 PUSH1 0x2 SWAP1 SLOAD SWAP1 PUSH2 0x100 EXP SWAP1 DIV PUSH1 0xFF AND PUSH1 0x3 DUP2 GT ISZERO PUSH2 0x159F JUMPI PUSH2 0x159E PUSH2 0x1EE9 JUMP JUMPDEST JUMPDEST EQ ISZERO JUMPDEST JUMPDEST SWAP1 POP SWAP2 SWAP1 POP JUMP JUMPDEST PUSH20 0x91CDA83C363A6F72F81A2041836B1E79B4A01AB1 PUSH20 0xFFFFFFFFFFFFFFFFFFFFFFFFFFFFFFFFFFFFFFFF AND CALLER PUSH20 0xFFFFFFFFFFFFFFFFFFFFFFFFFFFFFFFFFFFFFFFF AND EQ PUSH2 0x162C JUMPI PUSH1 0x40 MLOAD PUSH32 0x8C379A000000000000000000000000000000000000000000000000000000000 DUP2 MSTORE PUSH1 0x4 ADD PUSH2 0x1623 SWAP1 PUSH2 0x1C7E JUMP JUMPDEST PUSH1 0x40 MLOAD DUP1 SWAP2 SUB SWAP1 REVERT JUMPDEST DUP1 PUSH1 0x2 PUSH1 0x0 DUP3 DUP3 SLOAD PUSH2 0x163E SWAP2 SWAP1 PUSH2 0x1CEA JUMP JUMPDEST SWAP3 POP POP DUP2 SWAP1 SSTORE POP POP JUMP JUMPDEST PUSH1 0x0 PUSH1 0x2 DUP2 SWAP1 SSTORE POP PUSH1 0x0 DUP1 PUSH1 0x0 PUSH2 0x100 EXP DUP2 SLOAD DUP2 PUSH20 0xFFFFFFFFFFFFFFFFFFFFFFFFFFFFFFFFFFFFFFFF MUL NOT AND SWAP1 DUP4 PUSH20 0xFFFFFFFFFFFFFFFFFFFFFFFFFFFFFFFFFFFFFFFF AND MUL OR SWAP1 SSTORE POP PUSH1 0x0 PUSH1 0x1 PUSH1 0x0 PUSH2 0x100 EXP DUP2 SLOAD DUP2 PUSH20 0xFFFFFFFFFFFFFFFFFFFFFFFFFFFFFFFFFFFFFFFF MUL NOT AND SWAP1 DUP4 PUSH20 0xFFFFFFFFFFFFFFFFFFFFFFFFFFFFFFFFFFFFFFFF AND MUL OR SWAP1 SSTORE POP PUSH1 0x0 DUP1 SHL PUSH1 0x4 DUP2 SWAP1 SSTORE POP PUSH1 0x0 DUP1 SHL PUSH1 0x5 DUP2 SWAP1 SSTORE POP PUSH1 0x0 PUSH1 0x3 PUSH1 0x1 PUSH2 0x100 EXP DUP2 SLOAD DUP2 PUSH1 0xFF MUL NOT AND SWAP1 DUP4 PUSH1 0x3 DUP2 GT ISZERO PUSH2 0x170D JUMPI PUSH2 0x170C PUSH2 0x1EE9 JUMP JUMPDEST JUMPDEST MUL OR SWAP1 SSTORE POP PUSH1 0x0 PUSH1 0x3 PUSH1 0x2 PUSH2 0x100 EXP DUP2 SLOAD DUP2 PUSH1 0xFF MUL NOT AND SWAP1 DUP4 PUSH1 0x3 DUP2 GT ISZERO PUSH2 0x1738 JUMPI PUSH2 0x1737 PUSH2 0x1EE9 JUMP JUMPDEST JUMPDEST MUL OR SWAP1 SSTORE POP JUMP JUMPDEST PUSH1 0x0 DUP3 DUP3 PUSH1 0x40 MLOAD PUSH1 0x20 ADD PUSH2 0x1754 SWAP3 SWAP2 SWAP1 PUSH2 0x1A90 JUMP JUMPDEST PUSH1 0x40 MLOAD PUSH1 0x20 DUP2 DUP4 SUB SUB DUP2 MSTORE SWAP1 PUSH1 0x40 MSTORE DUP1 MLOAD SWAP1 PUSH1 0x20 ADD KECCAK256 SWAP1 POP SWAP3 SWAP2 POP POP JUMP JUMPDEST PUSH1 0x0 DUP2 CALLDATALOAD SWAP1 POP PUSH2 0x1781 DUP2 PUSH2 0x21C6 JUMP JUMPDEST SWAP3 SWAP2 POP POP JUMP JUMPDEST PUSH1 0x0 DUP2 CALLDATALOAD SWAP1 POP PUSH2 0x1796 DUP2 PUSH2 0x21DD JUMP JUMPDEST SWAP3 SWAP2 POP POP JUMP JUMPDEST PUSH1 0x0 DUP2 CALLDATALOAD SWAP1 POP PUSH2 0x17AB DUP2 PUSH2 0x21F4 JUMP JUMPDEST SWAP3 SWAP2 POP POP JUMP JUMPDEST PUSH1 0x0 PUSH1 0x20 DUP3 DUP5 SUB SLT ISZERO PUSH2 0x17C7 JUMPI PUSH2 0x17C6 PUSH2 0x1F18 JUMP JUMPDEST JUMPDEST PUSH1 0x0 PUSH2 0x17D5 DUP5 DUP3 DUP6 ADD PUSH2 0x1772 JUMP JUMPDEST SWAP2 POP POP SWAP3 SWAP2 POP POP JUMP JUMPDEST PUSH1 0x0 PUSH1 0x20 DUP3 DUP5 SUB SLT ISZERO PUSH2 0x17F4 JUMPI PUSH2 0x17F3 PUSH2 0x1F18 JUMP JUMPDEST JUMPDEST PUSH1 0x0 PUSH2 0x1802 DUP5 DUP3 DUP6 ADD PUSH2 0x1787 JUMP JUMPDEST SWAP2 POP POP SWAP3 SWAP2 POP POP JUMP JUMPDEST PUSH1 0x0 PUSH1 0x20 DUP3 DUP5 SUB SLT ISZERO PUSH2 0x1821 JUMPI PUSH2 0x1820 PUSH2 0x1F18 JUMP JUMPDEST JUMPDEST PUSH1 0x0 PUSH2 0x182F DUP5 DUP3 DUP6 ADD PUSH2 0x179C JUMP JUMPDEST SWAP2 POP POP SWAP3 SWAP2 POP POP JUMP JUMPDEST PUSH1 0x0 DUP1 PUSH1 0x40 DUP4 DUP6 SUB SLT ISZERO PUSH2 0x184F JUMPI PUSH2 0x184E PUSH2 0x1F18 JUMP JUMPDEST JUMPDEST PUSH1 0x0 PUSH2 0x185D DUP6 DUP3 DUP7 ADD PUSH2 0x179C JUMP JUMPDEST SWAP3 POP POP PUSH1 0x20 PUSH2 0x186E DUP6 DUP3 DUP7 ADD PUSH2 0x1787 JUMP JUMPDEST SWAP2 POP POP SWAP3 POP SWAP3 SWAP1 POP JUMP JUMPDEST PUSH2 0x1881 DUP2 PUSH2 0x1D86 JUMP JUMPDEST DUP3 MSTORE POP POP JUMP JUMPDEST PUSH2 0x1898 PUSH2 0x1893 DUP3 PUSH2 0x1D92 JUMP JUMPDEST PUSH2 0x1E46 JUMP JUMPDEST DUP3 MSTORE POP POP JUMP JUMPDEST PUSH2 0x18A7 DUP2 PUSH2 0x1DEC JUMP JUMPDEST DUP3 MSTORE POP POP JUMP JUMPDEST PUSH2 0x18B6 DUP2 PUSH2 0x1DFE JUMP JUMPDEST DUP3 MSTORE POP POP JUMP JUMPDEST PUSH2 0x18C5 DUP2 PUSH2 0x1E10 JUMP JUMPDEST DUP3 MSTORE POP POP JUMP JUMPDEST PUSH2 0x18D4 DUP2 PUSH2 0x1E22 JUMP JUMPDEST DUP3 MSTORE POP POP JUMP JUMPDEST PUSH2 0x18E3 DUP2 PUSH2 0x1E34 JUMP JUMPDEST DUP3 MSTORE POP POP JUMP JUMPDEST PUSH1 0x0 PUSH2 0x18F6 PUSH1 0x16 DUP4 PUSH2 0x1CD9 JUMP JUMPDEST SWAP2 POP PUSH2 0x1901 DUP3 PUSH2 0x1F1D JUMP JUMPDEST PUSH1 0x20 DUP3 ADD SWAP1 POP SWAP2 SWAP1 POP JUMP JUMPDEST PUSH1 0x0 PUSH2 0x1919 PUSH1 0x19 DUP4 PUSH2 0x1CD9 JUMP JUMPDEST SWAP2 POP PUSH2 0x1924 DUP3 PUSH2 0x1F46 JUMP JUMPDEST PUSH1 0x20 DUP3 ADD SWAP1 POP SWAP2 SWAP1 POP JUMP JUMPDEST PUSH1 0x0 PUSH2 0x193C PUSH1 0x22 DUP4 PUSH2 0x1CD9 JUMP JUMPDEST SWAP2 POP PUSH2 0x1947 DUP3 PUSH2 0x1F6F JUMP JUMPDEST PUSH1 0x40 DUP3 ADD SWAP1 POP SWAP2 SWAP1 POP JUMP JUMPDEST PUSH1 0x0 PUSH2 0x195F PUSH1 0x29 DUP4 PUSH2 0x1CD9 JUMP JUMPDEST SWAP2 POP PUSH2 0x196A DUP3 PUSH2 0x1FBE JUMP JUMPDEST PUSH1 0x40 DUP3 ADD SWAP1 POP SWAP2 SWAP1 POP JUMP JUMPDEST PUSH1 0x0 PUSH2 0x1982 PUSH1 0x10 DUP4 PUSH2 0x1CD9 JUMP JUMPDEST SWAP2 POP PUSH2 0x198D DUP3 PUSH2 0x200D JUMP JUMPDEST PUSH1 0x20 DUP3 ADD SWAP1 POP SWAP2 SWAP1 POP JUMP JUMPDEST PUSH1 0x0 PUSH2 0x19A5 PUSH1 0x2D DUP4 PUSH2 0x1CD9 JUMP JUMPDEST SWAP2 POP PUSH2 0x19B0 DUP3 PUSH2 0x2036 JUMP JUMPDEST PUSH1 0x40 DUP3 ADD SWAP1 POP SWAP2 SWAP1 POP JUMP JUMPDEST PUSH1 0x0 PUSH2 0x19C8 PUSH1 0x1A DUP4 PUSH2 0x1CD9 JUMP JUMPDEST SWAP2 POP PUSH2 0x19D3 DUP3 PUSH2 0x2085 JUMP JUMPDEST PUSH1 0x20 DUP3 ADD SWAP1 POP SWAP2 SWAP1 POP JUMP JUMPDEST PUSH1 0x0 PUSH2 0x19EB PUSH1 0x11 DUP4 PUSH2 0x1CD9 JUMP JUMPDEST SWAP2 POP PUSH2 0x19F6 DUP3 PUSH2 0x20AE JUMP JUMPDEST PUSH1 0x20 DUP3 ADD SWAP1 POP SWAP2 SWAP1 POP JUMP JUMPDEST PUSH1 0x0 PUSH2 0x1A0E PUSH1 0x22 DUP4 PUSH2 0x1CD9 JUMP JUMPDEST SWAP2 POP PUSH2 0x1A19 DUP3 PUSH2 0x20D7 JUMP JUMPDEST PUSH1 0x40 DUP3 ADD SWAP1 POP SWAP2 SWAP1 POP JUMP JUMPDEST PUSH1 0x0 PUSH2 0x1A31 PUSH1 0x30 DUP4 PUSH2 0x1CD9 JUMP JUMPDEST SWAP2 POP PUSH2 0x1A3C DUP3 PUSH2 0x2126 JUMP JUMPDEST PUSH1 0x40 DUP3 ADD SWAP1 POP SWAP2 SWAP1 POP JUMP JUMPDEST PUSH1 0x0 PUSH2 0x1A54 PUSH1 0x16 DUP4 PUSH2 0x1CD9 JUMP JUMPDEST SWAP2 POP PUSH2 0x1A5F DUP3 PUSH2 0x2175 JUMP JUMPDEST PUSH1 0x20 DUP3 ADD SWAP1 POP SWAP2 SWAP1 POP JUMP JUMPDEST PUSH2 0x1A73 DUP2 PUSH2 0x1DE2 JUMP JUMPDEST DUP3 MSTORE POP POP JUMP JUMPDEST PUSH2 0x1A8A PUSH2 0x1A85 DUP3 PUSH2 0x1DE2 JUMP JUMPDEST PUSH2 0x1E50 JUMP JUMPDEST DUP3 MSTORE POP POP JUMP JUMPDEST PUSH1 0x0 PUSH2 0x1A9C DUP3 DUP6 PUSH2 0x1A79 JUMP JUMPDEST PUSH1 0x20 DUP3 ADD SWAP2 POP PUSH2 0x1AAC DUP3 DUP5 PUSH2 0x1887 JUMP JUMPDEST PUSH1 0x20 DUP3 ADD SWAP2 POP DUP2 SWAP1 POP SWAP4 SWAP3 POP POP POP JUMP JUMPDEST PUSH1 0x0 PUSH1 0x20 DUP3 ADD SWAP1 POP PUSH2 0x1AD1 PUSH1 0x0 DUP4 ADD DUP5 PUSH2 0x1878 JUMP JUMPDEST SWAP3 SWAP2 POP POP JUMP JUMPDEST PUSH1 0x0 PUSH1 0x20 DUP3 ADD SWAP1 POP PUSH2 0x1AEC PUSH1 0x0 DUP4 ADD DUP5 PUSH2 0x189E JUMP JUMPDEST SWAP3 SWAP2 POP POP JUMP JUMPDEST PUSH1 0x0 PUSH1 0x20 DUP3 ADD SWAP1 POP PUSH2 0x1B07 PUSH1 0x0 DUP4 ADD DUP5 PUSH2 0x18AD JUMP JUMPDEST SWAP3 SWAP2 POP POP JUMP JUMPDEST PUSH1 0x0 PUSH1 0x20 DUP3 ADD SWAP1 POP PUSH2 0x1B22 PUSH1 0x0 DUP4 ADD DUP5 PUSH2 0x18BC JUMP JUMPDEST SWAP3 SWAP2 POP POP JUMP JUMPDEST PUSH1 0x0 PUSH1 0x20 DUP3 ADD SWAP1 POP PUSH2 0x1B3D PUSH1 0x0 DUP4 ADD DUP5 PUSH2 0x18CB JUMP JUMPDEST SWAP3 SWAP2 POP POP JUMP JUMPDEST PUSH1 0x0 PUSH1 0x20 DUP3 ADD SWAP1 POP PUSH2 0x1B58 PUSH1 0x0 DUP4 ADD DUP5 PUSH2 0x18DA JUMP JUMPDEST SWAP3 SWAP2 POP POP JUMP JUMPDEST PUSH1 0x0 PUSH1 0x20 DUP3 ADD SWAP1 POP DUP2 DUP2 SUB PUSH1 0x0 DUP4 ADD MSTORE PUSH2 0x1B77 DUP2 PUSH2 0x18E9 JUMP JUMPDEST SWAP1 POP SWAP2 SWAP1 POP JUMP JUMPDEST PUSH1 0x0 PUSH1 0x20 DUP3 ADD SWAP1 POP DUP2 DUP2 SUB PUSH1 0x0 DUP4 ADD MSTORE PUSH2 0x1B97 DUP2 PUSH2 0x190C JUMP JUMPDEST SWAP1 POP SWAP2 SWAP1 POP JUMP JUMPDEST PUSH1 0x0 PUSH1 0x20 DUP3 ADD SWAP1 POP DUP2 DUP2 SUB PUSH1 0x0 DUP4 ADD MSTORE PUSH2 0x1BB7 DUP2 PUSH2 0x192F JUMP JUMPDEST SWAP1 POP SWAP2 SWAP1 POP JUMP JUMPDEST PUSH1 0x0 PUSH1 0x20 DUP3 ADD SWAP1 POP DUP2 DUP2 SUB PUSH1 0x0 DUP4 ADD MSTORE PUSH2 0x1BD7 DUP2 PUSH2 0x1952 JUMP JUMPDEST SWAP1 POP SWAP2 SWAP1 POP JUMP JUMPDEST PUSH1 0x0 PUSH1 0x20 DUP3 ADD SWAP1 POP DUP2 DUP2 SUB PUSH1 0x0 DUP4 ADD MSTORE PUSH2 0x1BF7 DUP2 PUSH2 0x1975 JUMP JUMPDEST SWAP1 POP SWAP2 SWAP1 POP JUMP JUMPDEST PUSH1 0x0 PUSH1 0x20 DUP3 ADD SWAP1 POP DUP2 DUP2 SUB PUSH1 0x0 DUP4 ADD MSTORE PUSH2 0x1C17 DUP2 PUSH2 0x1998 JUMP JUMPDEST SWAP1 POP SWAP2 SWAP1 POP JUMP JUMPDEST PUSH1 0x0 PUSH1 0x20 DUP3 ADD SWAP1 POP DUP2 DUP2 SUB PUSH1 0x0 DUP4 ADD MSTORE PUSH2 0x1C37 DUP2 PUSH2 0x19BB JUMP JUMPDEST SWAP1 POP SWAP2 SWAP1 POP JUMP JUMPDEST PUSH1 0x0 PUSH1 0x20 DUP3 ADD SWAP1 POP DUP2 DUP2 SUB PUSH1 0x0 DUP4 ADD MSTORE PUSH2 0x1C57 DUP2 PUSH2 0x19DE JUMP JUMPDEST SWAP1 POP SWAP2 SWAP1 POP JUMP JUMPDEST PUSH1 0x0 PUSH1 0x20 DUP3 ADD SWAP1 POP DUP2 DUP2 SUB PUSH1 0x0 DUP4 ADD MSTORE PUSH2 0x1C77 DUP2 PUSH2 0x1A01 JUMP JUMPDEST SWAP1 POP SWAP2 SWAP1 POP JUMP JUMPDEST PUSH1 0x0 PUSH1 0x20 DUP3 ADD SWAP1 POP DUP2 DUP2 SUB PUSH1 0x0 DUP4 ADD MSTORE PUSH2 0x1C97 DUP2 PUSH2 0x1A24 JUMP JUMPDEST SWAP1 POP SWAP2 SWAP1 POP JUMP JUMPDEST PUSH1 0x0 PUSH1 0x20 DUP3 ADD SWAP1 POP DUP2 DUP2 SUB PUSH1 0x0 DUP4 ADD MSTORE PUSH2 0x1CB7 DUP2 PUSH2 0x1A47 JUMP JUMPDEST SWAP1 POP SWAP2 SWAP1 POP JUMP JUMPDEST PUSH1 0x0 PUSH1 0x20 DUP3 ADD SWAP1 POP PUSH2 0x1CD3 PUSH1 0x0 DUP4 ADD DUP5 PUSH2 0x1A6A JUMP JUMPDEST SWAP3 SWAP2 POP POP JUMP JUMPDEST PUSH1 0x0 DUP3 DUP3 MSTORE PUSH1 0x20 DUP3 ADD SWAP1 POP SWAP3 SWAP2 POP POP JUMP JUMPDEST PUSH1 0x0 PUSH2 0x1CF5 DUP3 PUSH2 0x1DE2 JUMP JUMPDEST SWAP2 POP PUSH2 0x1D00 DUP4 PUSH2 0x1DE2 JUMP JUMPDEST SWAP3 POP DUP3 PUSH32 0xFFFFFFFFFFFFFFFFFFFFFFFFFFFFFFFFFFFFFFFFFFFFFFFFFFFFFFFFFFFFFFFF SUB DUP3 GT ISZERO PUSH2 0x1D35 JUMPI PUSH2 0x1D34 PUSH2 0x1E8B JUMP JUMPDEST JUMPDEST DUP3 DUP3 ADD SWAP1 POP SWAP3 SWAP2 POP POP JUMP JUMPDEST PUSH1 0x0 PUSH2 0x1D4B DUP3 PUSH2 0x1DE2 JUMP JUMPDEST SWAP2 POP PUSH2 0x1D56 DUP4 PUSH2 0x1DE2 JUMP JUMPDEST SWAP3 POP DUP3 DUP3 LT ISZERO PUSH2 0x1D69 JUMPI PUSH2 0x1D68 PUSH2 0x1E8B JUMP JUMPDEST JUMPDEST DUP3 DUP3 SUB SWAP1 POP SWAP3 SWAP2 POP POP JUMP JUMPDEST PUSH1 0x0 PUSH2 0x1D7F DUP3 PUSH2 0x1DC2 JUMP JUMPDEST SWAP1 POP SWAP2 SWAP1 POP JUMP JUMPDEST PUSH1 0x0 DUP2 ISZERO ISZERO SWAP1 POP SWAP2 SWAP1 POP JUMP JUMPDEST PUSH1 0x0 DUP2 SWAP1 POP SWAP2 SWAP1 POP JUMP JUMPDEST PUSH1 0x0 DUP2 SWAP1 POP PUSH2 0x1DAA DUP3 PUSH2 0x219E JUMP JUMPDEST SWAP2 SWAP1 POP JUMP JUMPDEST PUSH1 0x0 DUP2 SWAP1 POP PUSH2 0x1DBD DUP3 PUSH2 0x21B2 JUMP JUMPDEST SWAP2 SWAP1 POP JUMP JUMPDEST PUSH1 0x0 PUSH20 0xFFFFFFFFFFFFFFFFFFFFFFFFFFFFFFFFFFFFFFFF DUP3 AND SWAP1 POP SWAP2 SWAP1 POP JUMP JUMPDEST PUSH1 0x0 DUP2 SWAP1 POP SWAP2 SWAP1 POP JUMP JUMPDEST PUSH1 0x0 PUSH2 0x1DF7 DUP3 PUSH2 0x1D9C JUMP JUMPDEST SWAP1 POP SWAP2 SWAP1 POP JUMP JUMPDEST PUSH1 0x0 PUSH2 0x1E09 DUP3 PUSH2 0x1DAF JUMP JUMPDEST SWAP1 POP SWAP2 SWAP1 POP JUMP JUMPDEST PUSH1 0x0 PUSH2 0x1E1B DUP3 PUSH2 0x1DE2 JUMP JUMPDEST SWAP1 POP SWAP2 SWAP1 POP JUMP JUMPDEST PUSH1 0x0 PUSH2 0x1E2D DUP3 PUSH2 0x1DE2 JUMP JUMPDEST SWAP1 POP SWAP2 SWAP1 POP JUMP JUMPDEST PUSH1 0x0 PUSH2 0x1E3F DUP3 PUSH2 0x1DE2 JUMP JUMPDEST SWAP1 POP SWAP2 SWAP1 POP JUMP JUMPDEST PUSH1 0x0 DUP2 SWAP1 POP SWAP2 SWAP1 POP JUMP JUMPDEST PUSH1 0x0 DUP2 SWAP1 POP SWAP2 SWAP1 POP JUMP JUMPDEST PUSH1 0x0 PUSH2 0x1E65 DUP3 PUSH2 0x1DE2 JUMP JUMPDEST SWAP2 POP PUSH2 0x1E70 DUP4 PUSH2 0x1DE2 JUMP JUMPDEST SWAP3 POP DUP3 PUSH2 0x1E80 JUMPI PUSH2 0x1E7F PUSH2 0x1EBA JUMP JUMPDEST JUMPDEST DUP3 DUP3 MOD SWAP1 POP SWAP3 SWAP2 POP POP JUMP JUMPDEST PUSH32 0x4E487B7100000000000000000000000000000000000000000000000000000000 PUSH1 0x0 MSTORE PUSH1 0x11 PUSH1 0x4 MSTORE PUSH1 0x24 PUSH1 0x0 REVERT JUMPDEST PUSH32 0x4E487B7100000000000000000000000000000000000000000000000000000000 PUSH1 0x0 MSTORE PUSH1 0x12 PUSH1 0x4 MSTORE PUSH1 0x24 PUSH1 0x0 REVERT JUMPDEST PUSH32 0x4E487B7100000000000000000000000000000000000000000000000000000000 PUSH1 0x0 MSTORE PUSH1 0x21 PUSH1 0x4 MSTORE PUSH1 0x24 PUSH1 0x0 REVERT JUMPDEST PUSH1 0x0 DUP1 REVERT JUMPDEST PUSH32 0x50726F626C656D20776974682061646472657373657300000000000000000000 PUSH1 0x0 DUP3 ADD MSTORE POP JUMP JUMPDEST PUSH32 0x4E6F74207265676973746572656420706C617965722079657400000000000000 PUSH1 0x0 DUP3 ADD MSTORE POP JUMP JUMPDEST PUSH32 0x5468697320706C617965722068617320616C7265616479207265676973746572 PUSH1 0x0 DUP3 ADD MSTORE PUSH32 0x6564000000000000000000000000000000000000000000000000000000000000 PUSH1 0x20 DUP3 ADD MSTORE POP JUMP JUMPDEST PUSH32 0x4F6E65206F662074686520706C6179657273206F7220626F746820646964206E PUSH1 0x0 DUP3 ADD MSTORE PUSH32 0x6F7420636F6D6D69740000000000000000000000000000000000000000000000 PUSH1 0x20 DUP3 ADD MSTORE POP JUMP JUMPDEST PUSH32 0x496E636F72726563742063686F69636500000000000000000000000000000000 PUSH1 0x0 DUP3 ADD MSTORE POP JUMP JUMPDEST PUSH32 0x4F6E65206F662074686520706C6179657273206F7220626F746820646964206E PUSH1 0x0 DUP3 ADD MSTORE PUSH32 0x6F74207265676973746572656400000000000000000000000000000000000000 PUSH1 0x20 DUP3 ADD MSTORE POP JUMP JUMPDEST PUSH32 0x47616D65206861736820776173206E6F742070726F7669646564000000000000 PUSH1 0x0 DUP3 ADD MSTORE POP JUMP JUMPDEST PUSH32 0x70726F626C656D20776974682073616C74000000000000000000000000000000 PUSH1 0x0 DUP3 ADD MSTORE POP JUMP JUMPDEST PUSH32 0x426574206973206C6F776572207468616E20706F737369626C65206D696E696D PUSH1 0x0 DUP3 ADD MSTORE PUSH32 0x756D000000000000000000000000000000000000000000000000000000000000 PUSH1 0x20 DUP3 ADD MSTORE POP JUMP JUMPDEST PUSH32 0x4F6E6C79206F776E6572206F6620636F6E747261637420697320616C6C6F7765 PUSH1 0x0 DUP3 ADD MSTORE PUSH32 0x6420746F2074686973206D6574686F6400000000000000000000000000000000 PUSH1 0x20 DUP3 ADD MSTORE POP JUMP JUMPDEST PUSH32 0x50726F626C656D207769746820746865207374616B6500000000000000000000 PUSH1 0x0 DUP3 ADD MSTORE POP JUMP JUMPDEST PUSH1 0x4 DUP2 LT PUSH2 0x21AF JUMPI PUSH2 0x21AE PUSH2 0x1EE9 JUMP JUMPDEST JUMPDEST POP JUMP JUMPDEST PUSH1 0x3 DUP2 LT PUSH2 0x21C3 JUMPI PUSH2 0x21C2 PUSH2 0x1EE9 JUMP JUMPDEST JUMPDEST POP JUMP JUMPDEST PUSH2 0x21CF DUP2 PUSH2 0x1D74 JUMP JUMPDEST DUP2 EQ PUSH2 0x21DA JUMPI PUSH1 0x0 DUP1 REVERT JUMPDEST POP JUMP JUMPDEST PUSH2 0x21E6 DUP2 PUSH2 0x1D92 JUMP JUMPDEST DUP2 EQ PUSH2 0x21F1 JUMPI PUSH1 0x0 DUP1 REVERT JUMPDEST POP JUMP JUMPDEST PUSH2 0x21FD DUP2 PUSH2 0x1DE2 JUMP JUMPDEST DUP2 EQ PUSH2 0x2208 JUMPI PUSH1 0x0 DUP1 REVERT JUMPDEST POP JUMP INVALID LOG2 PUSH5 0x6970667358 0x22 SLT KECCAK256 0x24 BYTE 0xDF 0xAC 0xA7 0xFB 0xDC 0x2C SWAP3 0xB4 MLOAD 0x49 PUSH20 0xB79B0891F0059EA797B71A70B59B9F0F26DAB864 PUSH20 0x6F6C634300080700330000000000000000000000 "
				},
				"gasEstimates": {
					"creation": {
						"codeDepositCost": "1753800",
						"executionCost": "1848",
						"totalCost": "1755648"
					},
					"external": {
						"bothCommitted()": "4643",
						"bothRevealed()": "4929",
						"commitMove(bytes32)": "infinite",
						"endGames()": "infinite",
						"getContractBalance()": "428",
						"increaseStake(uint256)": "infinite",
						"isCommitted(address)": "9310",
						"isRegistered(address)": "5028",
						"isRevealed(address)": "9594",
						"outcome()": "2583",
						"regPlayer()": "infinite",
						"resetExternal()": "112486",
						"revealChoice(uint256,bytes32)": "infinite",
						"stake()": "2474"
					},
					"internal": {
						"getSaltedHash(uint256,bytes32)": "infinite",
						"reset()": "112271"
					}
				},
				"methodIdentifiers": {
					"bothCommitted()": "92c90480",
					"bothRevealed()": "43445ca8",
					"commitMove(bytes32)": "a9ea37b6",
					"endGames()": "11b0af15",
					"getContractBalance()": "6f9fb98a",
					"increaseStake(uint256)": "eedad66b",
					"isCommitted(address)": "15b80df8",
					"isRegistered(address)": "c3c5a547",
					"isRevealed(address)": "e711a812",
					"outcome()": "27793f87",
					"regPlayer()": "20737796",
					"resetExternal()": "af2d2517",
					"revealChoice(uint256,bytes32)": "8c10bb96",
					"stake()": "3a4b66f1"
				}
			},
			"storageLayout": {
				"storage": [
					{
						"astId": 33,
						"contract": "contracts/RPS.sol:RPS",
						"label": "playerOne",
						"offset": 0,
						"slot": "0",
						"type": "t_address_payable"
					},
					{
						"astId": 35,
						"contract": "contracts/RPS.sol:RPS",
						"label": "playerTwo",
						"offset": 0,
						"slot": "1",
						"type": "t_address_payable"
					},
					{
						"astId": 37,
						"contract": "contracts/RPS.sol:RPS",
						"label": "stake",
						"offset": 0,
						"slot": "2",
						"type": "t_uint256"
					},
					{
						"astId": 40,
						"contract": "contracts/RPS.sol:RPS",
						"label": "outcome",
						"offset": 0,
						"slot": "3",
						"type": "t_enum(GameOutcome)26"
					},
					{
						"astId": 43,
						"contract": "contracts/RPS.sol:RPS",
						"label": "playerOneChoice",
						"offset": 1,
						"slot": "3",
						"type": "t_enum(GameChoice)31"
					},
					{
						"astId": 46,
						"contract": "contracts/RPS.sol:RPS",
						"label": "playerTwoChoice",
						"offset": 2,
						"slot": "3",
						"type": "t_enum(GameChoice)31"
					},
					{
						"astId": 48,
						"contract": "contracts/RPS.sol:RPS",
						"label": "playerOneHash",
						"offset": 0,
						"slot": "4",
						"type": "t_bytes32"
					},
					{
						"astId": 50,
						"contract": "contracts/RPS.sol:RPS",
						"label": "playerTwoHash",
						"offset": 0,
						"slot": "5",
						"type": "t_bytes32"
					}
				],
				"types": {
					"t_address_payable": {
						"encoding": "inplace",
						"label": "address payable",
						"numberOfBytes": "20"
					},
					"t_bytes32": {
						"encoding": "inplace",
						"label": "bytes32",
						"numberOfBytes": "32"
					},
					"t_enum(GameChoice)31": {
						"encoding": "inplace",
						"label": "enum RPS.GameChoice",
						"numberOfBytes": "1"
					},
					"t_enum(GameOutcome)26": {
						"encoding": "inplace",
						"label": "enum RPS.GameOutcome",
						"numberOfBytes": "1"
					},
					"t_uint256": {
						"encoding": "inplace",
						"label": "uint256",
						"numberOfBytes": "32"
					}
				}
			},
			"userdoc": {
				"kind": "user",
				"methods": {},
				"version": 1
			}
		}
	}
}