{
	"contracts/RPS.sol": {
		"RPS": {
			"abi": [
				{
					"anonymous": false,
					"inputs": [
						{
							"indexed": false,
							"internalType": "enum RPS.GameOutcome",
							"name": "",
							"type": "uint8"
						}
					],
					"name": "GetGameOutcome",
					"type": "event"
				},
				{
					"inputs": [
						{
							"internalType": "address",
							"name": "playerOne",
							"type": "address"
						}
					],
					"name": "endGame",
					"outputs": [
						{
							"internalType": "enum RPS.GameOutcome",
							"name": "gameResult",
							"type": "uint8"
						}
					],
					"stateMutability": "nonpayable",
					"type": "function"
				},
				{
					"inputs": [
						{
							"internalType": "address",
							"name": "",
							"type": "address"
						}
					],
					"name": "games",
					"outputs": [
						{
							"internalType": "address",
							"name": "playerOne",
							"type": "address"
						},
						{
							"internalType": "address",
							"name": "playerTwo",
							"type": "address"
						},
						{
							"internalType": "uint256",
							"name": "stake",
							"type": "uint256"
						},
						{
							"internalType": "uint256",
							"name": "playerOneChoice",
							"type": "uint256"
						},
						{
							"internalType": "uint256",
							"name": "playerTwoChoice",
							"type": "uint256"
						},
						{
							"internalType": "bytes32",
							"name": "playerOneHash",
							"type": "bytes32"
						},
						{
							"internalType": "bytes32",
							"name": "playerTwoHash",
							"type": "bytes32"
						},
						{
							"internalType": "enum RPS.GameStatus",
							"name": "status",
							"type": "uint8"
						},
						{
							"internalType": "enum RPS.GameOutcome",
							"name": "outcome",
							"type": "uint8"
						}
					],
					"stateMutability": "view",
					"type": "function"
				},
				{
					"inputs": [
						{
							"internalType": "bytes32",
							"name": "gameHash",
							"type": "bytes32"
						},
						{
							"internalType": "address",
							"name": "opponent",
							"type": "address"
						}
					],
					"name": "participateGame",
					"outputs": [],
					"stateMutability": "nonpayable",
					"type": "function"
				},
				{
					"inputs": [
						{
							"internalType": "address",
							"name": "",
							"type": "address"
						}
					],
					"name": "playerBalances",
					"outputs": [
						{
							"internalType": "uint256",
							"name": "",
							"type": "uint256"
						}
					],
					"stateMutability": "view",
					"type": "function"
				},
				{
					"inputs": [
						{
							"internalType": "uint256",
							"name": "choice",
							"type": "uint256"
						},
						{
							"internalType": "bytes32",
							"name": "salt",
							"type": "bytes32"
						},
						{
							"internalType": "address",
							"name": "playerOne",
							"type": "address"
						}
					],
					"name": "revealChoice",
					"outputs": [],
					"stateMutability": "nonpayable",
					"type": "function"
				},
				{
					"inputs": [
						{
							"internalType": "bytes32",
							"name": "gameHash",
							"type": "bytes32"
						},
						{
							"internalType": "address",
							"name": "opponent",
							"type": "address"
						},
						{
							"internalType": "uint256",
							"name": "gameStake",
							"type": "uint256"
						}
					],
					"name": "startGame",
					"outputs": [],
					"stateMutability": "nonpayable",
					"type": "function"
				}
			],
			"devdoc": {
				"kind": "dev",
				"methods": {},
				"version": 1
			},
			"evm": {
				"assembly": "    /* \"contracts/RPS.sol\":75:4371  contract RPS {... */\n  mstore(0x40, 0x80)\n  callvalue\n  dup1\n  iszero\n  tag_1\n  jumpi\n  0x00\n  dup1\n  revert\ntag_1:\n  pop\n  dataSize(sub_0)\n  dup1\n  dataOffset(sub_0)\n  0x00\n  codecopy\n  0x00\n  return\nstop\n\nsub_0: assembly {\n        /* \"contracts/RPS.sol\":75:4371  contract RPS {... */\n      mstore(0x40, 0x80)\n      callvalue\n      dup1\n      iszero\n      tag_1\n      jumpi\n      0x00\n      dup1\n      revert\n    tag_1:\n      pop\n      jumpi(tag_2, lt(calldatasize, 0x04))\n      shr(0xe0, calldataload(0x00))\n      dup1\n      0x01cf26e3\n      eq\n      tag_3\n      jumpi\n      dup1\n      0x2a035b6c\n      eq\n      tag_4\n      jumpi\n      dup1\n      0x79131a19\n      eq\n      tag_5\n      jumpi\n      dup1\n      0x7b38314c\n      eq\n      tag_6\n      jumpi\n      dup1\n      0x9f799d9c\n      eq\n      tag_7\n      jumpi\n      dup1\n      0xc0dcf648\n      eq\n      tag_8\n      jumpi\n    tag_2:\n      0x00\n      dup1\n      revert\n        /* \"contracts/RPS.sol\":1624:2207  function participateGame(bytes32 gameHash, address opponent) external HashOpponent(gameHash, opponent, games[opponent].stake) {... */\n    tag_3:\n      tag_9\n      0x04\n      dup1\n      calldatasize\n      sub\n      dup2\n      add\n      swap1\n      tag_10\n      swap2\n      swap1\n      tag_11\n      jump\t// in\n    tag_10:\n      tag_12\n      jump\t// in\n    tag_9:\n      stop\n        /* \"contracts/RPS.sol\":2980:4213  function endGame(address playerOne) external returns(GameOutcome gameResult) {... */\n    tag_4:\n      tag_13\n      0x04\n      dup1\n      calldatasize\n      sub\n      dup2\n      add\n      swap1\n      tag_14\n      swap2\n      swap1\n      tag_15\n      jump\t// in\n    tag_14:\n      tag_16\n      jump\t// in\n    tag_13:\n      mload(0x40)\n      tag_17\n      swap2\n      swap1\n      tag_18\n      jump\t// in\n    tag_17:\n      mload(0x40)\n      dup1\n      swap2\n      sub\n      swap1\n      return\n        /* \"contracts/RPS.sol\":598:636  mapping (address => Game) public games */\n    tag_5:\n      tag_19\n      0x04\n      dup1\n      calldatasize\n      sub\n      dup2\n      add\n      swap1\n      tag_20\n      swap2\n      swap1\n      tag_15\n      jump\t// in\n    tag_20:\n      tag_21\n      jump\t// in\n    tag_19:\n      mload(0x40)\n      tag_22\n      swap10\n      swap9\n      swap8\n      swap7\n      swap6\n      swap5\n      swap4\n      swap3\n      swap2\n      swap1\n      tag_23\n      jump\t// in\n    tag_22:\n      mload(0x40)\n      dup1\n      swap2\n      sub\n      swap1\n      return\n        /* \"contracts/RPS.sol\":642:689  mapping (address => uint) public playerBalances */\n    tag_6:\n      tag_24\n      0x04\n      dup1\n      calldatasize\n      sub\n      dup2\n      add\n      swap1\n      tag_25\n      swap2\n      swap1\n      tag_15\n      jump\t// in\n    tag_25:\n      tag_26\n      jump\t// in\n    tag_24:\n      mload(0x40)\n      tag_27\n      swap2\n      swap1\n      tag_28\n      jump\t// in\n    tag_27:\n      mload(0x40)\n      dup1\n      swap2\n      sub\n      swap1\n      return\n        /* \"contracts/RPS.sol\":1050:1618  function startGame(bytes32 gameHash, address opponent, uint gameStake) external HashOpponent(gameHash, opponent, gameStake) {... */\n    tag_7:\n      tag_29\n      0x04\n      dup1\n      calldatasize\n      sub\n      dup2\n      add\n      swap1\n      tag_30\n      swap2\n      swap1\n      tag_31\n      jump\t// in\n    tag_30:\n      tag_32\n      jump\t// in\n    tag_29:\n      stop\n        /* \"contracts/RPS.sol\":2213:2970  function revealChoice(uint choice, bytes32 salt, address playerOne) external {        ... */\n    tag_8:\n      tag_33\n      0x04\n      dup1\n      calldatasize\n      sub\n      dup2\n      add\n      swap1\n      tag_34\n      swap2\n      swap1\n      tag_35\n      jump\t// in\n    tag_34:\n      tag_36\n      jump\t// in\n    tag_33:\n      stop\n        /* \"contracts/RPS.sol\":1624:2207  function participateGame(bytes32 gameHash, address opponent) external HashOpponent(gameHash, opponent, games[opponent].stake) {... */\n    tag_12:\n        /* \"contracts/RPS.sol\":1707:1715  gameHash */\n      dup2\n        /* \"contracts/RPS.sol\":1717:1725  opponent */\n      dup2\n        /* \"contracts/RPS.sol\":1727:1732  games */\n      0x00\n        /* \"contracts/RPS.sol\":1727:1742  games[opponent] */\n      dup1\n        /* \"contracts/RPS.sol\":1733:1741  opponent */\n      dup5\n        /* \"contracts/RPS.sol\":1727:1742  games[opponent] */\n      0xffffffffffffffffffffffffffffffffffffffff\n      and\n      0xffffffffffffffffffffffffffffffffffffffff\n      and\n      dup2\n      mstore\n      0x20\n      add\n      swap1\n      dup2\n      mstore\n      0x20\n      add\n      0x00\n      keccak256\n        /* \"contracts/RPS.sol\":1727:1748  games[opponent].stake */\n      0x02\n      add\n      sload\n        /* \"contracts/RPS.sol\":788:802  gameHash != \"\" */\n      0x00\n        /* \"contracts/RPS.sol\":788:796  gameHash */\n      dup4\n        /* \"contracts/RPS.sol\":788:802  gameHash != \"\" */\n      eq\n      iszero\n        /* \"contracts/RPS.sol\":780:833  require(gameHash != \"\", \"game hash was not provided\") */\n      tag_38\n      jumpi\n      mload(0x40)\n      0x08c379a000000000000000000000000000000000000000000000000000000000\n      dup2\n      mstore\n      0x04\n      add\n      tag_39\n      swap1\n      tag_40\n      jump\t// in\n    tag_39:\n      mload(0x40)\n      dup1\n      swap2\n      sub\n      swap1\n      revert\n    tag_38:\n        /* \"contracts/RPS.sol\":871:874  0x0 */\n      0x00\n        /* \"contracts/RPS.sol\":851:875  opponent != address(0x0) */\n      0xffffffffffffffffffffffffffffffffffffffff\n      and\n        /* \"contracts/RPS.sol\":851:859  opponent */\n      dup3\n        /* \"contracts/RPS.sol\":851:875  opponent != address(0x0) */\n      0xffffffffffffffffffffffffffffffffffffffff\n      and\n      eq\n      iszero\n        /* \"contracts/RPS.sol\":851:901  opponent != address(0x0) && opponent != msg.sender */\n      dup1\n      iszero\n      tag_41\n      jumpi\n      pop\n        /* \"contracts/RPS.sol\":891:901  msg.sender */\n      caller\n        /* \"contracts/RPS.sol\":879:901  opponent != msg.sender */\n      0xffffffffffffffffffffffffffffffffffffffff\n      and\n        /* \"contracts/RPS.sol\":879:887  opponent */\n      dup3\n        /* \"contracts/RPS.sol\":879:901  opponent != msg.sender */\n      0xffffffffffffffffffffffffffffffffffffffff\n      and\n      eq\n      iszero\n        /* \"contracts/RPS.sol\":851:901  opponent != address(0x0) && opponent != msg.sender */\n    tag_41:\n        /* \"contracts/RPS.sol\":843:934  require(opponent != address(0x0) && opponent != msg.sender, \"Problem with other player...\") */\n      tag_42\n      jumpi\n      mload(0x40)\n      0x08c379a000000000000000000000000000000000000000000000000000000000\n      dup2\n      mstore\n      0x04\n      add\n      tag_43\n      swap1\n      tag_44\n      jump\t// in\n    tag_43:\n      mload(0x40)\n      dup1\n      swap2\n      sub\n      swap1\n      revert\n    tag_42:\n        /* \"contracts/RPS.sol\":965:979  playerBalances */\n      0x01\n        /* \"contracts/RPS.sol\":965:991  playerBalances[msg.sender] */\n      0x00\n        /* \"contracts/RPS.sol\":980:990  msg.sender */\n      caller\n        /* \"contracts/RPS.sol\":965:991  playerBalances[msg.sender] */\n      0xffffffffffffffffffffffffffffffffffffffff\n      and\n      0xffffffffffffffffffffffffffffffffffffffff\n      and\n      dup2\n      mstore\n      0x20\n      add\n      swap1\n      dup2\n      mstore\n      0x20\n      add\n      0x00\n      keccak256\n      sload\n        /* \"contracts/RPS.sol\":952:961  gameStake */\n      dup2\n        /* \"contracts/RPS.sol\":952:991  gameStake <= playerBalances[msg.sender] */\n      gt\n      iszero\n        /* \"contracts/RPS.sol\":944:1026  require(gameStake <= playerBalances[msg.sender], \"Players funds are insufficient\") */\n      tag_45\n      jumpi\n      mload(0x40)\n      0x08c379a000000000000000000000000000000000000000000000000000000000\n      dup2\n      mstore\n      0x04\n      add\n      tag_46\n      swap1\n      tag_47\n      jump\t// in\n    tag_46:\n      mload(0x40)\n      dup1\n      swap2\n      sub\n      swap1\n      revert\n    tag_45:\n        /* \"contracts/RPS.sol\":1797:1807  msg.sender */\n      caller\n        /* \"contracts/RPS.sol\":1768:1807  games[opponent].playerTwo == msg.sender */\n      0xffffffffffffffffffffffffffffffffffffffff\n      and\n        /* \"contracts/RPS.sol\":1768:1773  games */\n      0x00\n        /* \"contracts/RPS.sol\":1768:1783  games[opponent] */\n      dup1\n        /* \"contracts/RPS.sol\":1774:1782  opponent */\n      dup7\n        /* \"contracts/RPS.sol\":1768:1783  games[opponent] */\n      0xffffffffffffffffffffffffffffffffffffffff\n      and\n      0xffffffffffffffffffffffffffffffffffffffff\n      and\n      dup2\n      mstore\n      0x20\n      add\n      swap1\n      dup2\n      mstore\n      0x20\n      add\n      0x00\n      keccak256\n        /* \"contracts/RPS.sol\":1768:1793  games[opponent].playerTwo */\n      0x01\n      add\n      0x00\n      swap1\n      sload\n      swap1\n      0x0100\n      exp\n      swap1\n      div\n      0xffffffffffffffffffffffffffffffffffffffff\n      and\n        /* \"contracts/RPS.sol\":1768:1807  games[opponent].playerTwo == msg.sender */\n      0xffffffffffffffffffffffffffffffffffffffff\n      and\n      eq\n        /* \"contracts/RPS.sol\":1760:1846  require(games[opponent].playerTwo == msg.sender, \"You are not Player 2 for this game\") */\n      tag_49\n      jumpi\n      mload(0x40)\n      0x08c379a000000000000000000000000000000000000000000000000000000000\n      dup2\n      mstore\n      0x04\n      add\n      tag_50\n      swap1\n      tag_51\n      jump\t// in\n    tag_50:\n      mload(0x40)\n      dup1\n      swap2\n      sub\n      swap1\n      revert\n    tag_49:\n        /* \"contracts/RPS.sol\":1890:1908  GameStatus.started */\n      0x01\n        /* \"contracts/RPS.sol\":1864:1908  games[opponent].status == GameStatus.started */\n      0x03\n      dup2\n      gt\n      iszero\n      tag_52\n      jumpi\n      tag_53\n      tag_54\n      jump\t// in\n    tag_53:\n    tag_52:\n        /* \"contracts/RPS.sol\":1864:1869  games */\n      0x00\n        /* \"contracts/RPS.sol\":1864:1879  games[opponent] */\n      dup1\n        /* \"contracts/RPS.sol\":1870:1878  opponent */\n      dup7\n        /* \"contracts/RPS.sol\":1864:1879  games[opponent] */\n      0xffffffffffffffffffffffffffffffffffffffff\n      and\n      0xffffffffffffffffffffffffffffffffffffffff\n      and\n      dup2\n      mstore\n      0x20\n      add\n      swap1\n      dup2\n      mstore\n      0x20\n      add\n      0x00\n      keccak256\n        /* \"contracts/RPS.sol\":1864:1886  games[opponent].status */\n      0x07\n      add\n      0x00\n      swap1\n      sload\n      swap1\n      0x0100\n      exp\n      swap1\n      div\n      0xff\n      and\n        /* \"contracts/RPS.sol\":1864:1908  games[opponent].status == GameStatus.started */\n      0x03\n      dup2\n      gt\n      iszero\n      tag_55\n      jumpi\n      tag_56\n      tag_54\n      jump\t// in\n    tag_56:\n    tag_55:\n      eq\n        /* \"contracts/RPS.sol\":1856:1965  require(games[opponent].status == GameStatus.started, \"Game not started or has already been participated in\") */\n      tag_57\n      jumpi\n      mload(0x40)\n      0x08c379a000000000000000000000000000000000000000000000000000000000\n      dup2\n      mstore\n      0x04\n      add\n      tag_58\n      swap1\n      tag_59\n      jump\t// in\n    tag_58:\n      mload(0x40)\n      dup1\n      swap2\n      sub\n      swap1\n      revert\n    tag_57:\n        /* \"contracts/RPS.sol\":1976:1990  uint gameStake */\n      0x00\n        /* \"contracts/RPS.sol\":1993:1998  games */\n      dup1\n        /* \"contracts/RPS.sol\":1993:2008  games[opponent] */\n      0x00\n        /* \"contracts/RPS.sol\":1999:2007  opponent */\n      dup7\n        /* \"contracts/RPS.sol\":1993:2008  games[opponent] */\n      0xffffffffffffffffffffffffffffffffffffffff\n      and\n      0xffffffffffffffffffffffffffffffffffffffff\n      and\n      dup2\n      mstore\n      0x20\n      add\n      swap1\n      dup2\n      mstore\n      0x20\n      add\n      0x00\n      keccak256\n        /* \"contracts/RPS.sol\":1993:2014  games[opponent].stake */\n      0x02\n      add\n      sload\n        /* \"contracts/RPS.sol\":1976:2014  uint gameStake = games[opponent].stake */\n      swap1\n      pop\n        /* \"contracts/RPS.sol\":2082:2091  gameStake */\n      dup1\n        /* \"contracts/RPS.sol\":2053:2067  playerBalances */\n      0x01\n        /* \"contracts/RPS.sol\":2053:2079  playerBalances[msg.sender] */\n      0x00\n        /* \"contracts/RPS.sol\":2068:2078  msg.sender */\n      caller\n        /* \"contracts/RPS.sol\":2053:2079  playerBalances[msg.sender] */\n      0xffffffffffffffffffffffffffffffffffffffff\n      and\n      0xffffffffffffffffffffffffffffffffffffffff\n      and\n      dup2\n      mstore\n      0x20\n      add\n      swap1\n      dup2\n      mstore\n      0x20\n      add\n      0x00\n      keccak256\n      sload\n        /* \"contracts/RPS.sol\":2053:2091  playerBalances[msg.sender] - gameStake */\n      tag_60\n      swap2\n      swap1\n      tag_61\n      jump\t// in\n    tag_60:\n        /* \"contracts/RPS.sol\":2024:2038  playerBalances */\n      0x01\n        /* \"contracts/RPS.sol\":2024:2050  playerBalances[msg.sender] */\n      0x00\n        /* \"contracts/RPS.sol\":2039:2049  msg.sender */\n      caller\n        /* \"contracts/RPS.sol\":2024:2050  playerBalances[msg.sender] */\n      0xffffffffffffffffffffffffffffffffffffffff\n      and\n      0xffffffffffffffffffffffffffffffffffffffff\n      and\n      dup2\n      mstore\n      0x20\n      add\n      swap1\n      dup2\n      mstore\n      0x20\n      add\n      0x00\n      keccak256\n        /* \"contracts/RPS.sol\":2024:2091  playerBalances[msg.sender] = playerBalances[msg.sender] - gameStake */\n      dup2\n      swap1\n      sstore\n      pop\n        /* \"contracts/RPS.sol\":2134:2142  gameHash */\n      dup6\n        /* \"contracts/RPS.sol\":2102:2107  games */\n      0x00\n        /* \"contracts/RPS.sol\":2102:2117  games[opponent] */\n      dup1\n        /* \"contracts/RPS.sol\":2108:2116  opponent */\n      dup8\n        /* \"contracts/RPS.sol\":2102:2117  games[opponent] */\n      0xffffffffffffffffffffffffffffffffffffffff\n      and\n      0xffffffffffffffffffffffffffffffffffffffff\n      and\n      dup2\n      mstore\n      0x20\n      add\n      swap1\n      dup2\n      mstore\n      0x20\n      add\n      0x00\n      keccak256\n        /* \"contracts/RPS.sol\":2102:2131  games[opponent].playerTwoHash */\n      0x06\n      add\n        /* \"contracts/RPS.sol\":2102:2142  games[opponent].playerTwoHash = gameHash */\n      dup2\n      swap1\n      sstore\n      pop\n        /* \"contracts/RPS.sol\":2177:2200  GameStatus.participated */\n      0x02\n        /* \"contracts/RPS.sol\":2152:2157  games */\n      0x00\n        /* \"contracts/RPS.sol\":2152:2167  games[opponent] */\n      dup1\n        /* \"contracts/RPS.sol\":2158:2166  opponent */\n      dup8\n        /* \"contracts/RPS.sol\":2152:2167  games[opponent] */\n      0xffffffffffffffffffffffffffffffffffffffff\n      and\n      0xffffffffffffffffffffffffffffffffffffffff\n      and\n      dup2\n      mstore\n      0x20\n      add\n      swap1\n      dup2\n      mstore\n      0x20\n      add\n      0x00\n      keccak256\n        /* \"contracts/RPS.sol\":2152:2174  games[opponent].status */\n      0x07\n      add\n      0x00\n        /* \"contracts/RPS.sol\":2152:2200  games[opponent].status = GameStatus.participated */\n      0x0100\n      exp\n      dup2\n      sload\n      dup2\n      0xff\n      mul\n      not\n      and\n      swap1\n      dup4\n      0x03\n      dup2\n      gt\n      iszero\n      tag_62\n      jumpi\n      tag_63\n      tag_54\n      jump\t// in\n    tag_63:\n    tag_62:\n      mul\n      or\n      swap1\n      sstore\n      pop\n        /* \"contracts/RPS.sol\":1750:2207  {... */\n      pop\n        /* \"contracts/RPS.sol\":1624:2207  function participateGame(bytes32 gameHash, address opponent) external HashOpponent(gameHash, opponent, games[opponent].stake) {... */\n      pop\n      pop\n      pop\n      pop\n      pop\n      jump\t// out\n        /* \"contracts/RPS.sol\":2980:4213  function endGame(address playerOne) external returns(GameOutcome gameResult) {... */\n    tag_16:\n        /* \"contracts/RPS.sol\":3033:3055  GameOutcome gameResult */\n      0x00\n        /* \"contracts/RPS.sol\":3121:3122  0 */\n      dup1\n        /* \"contracts/RPS.sol\":3086:3091  games */\n      0x00\n        /* \"contracts/RPS.sol\":3086:3102  games[playerOne] */\n      dup1\n        /* \"contracts/RPS.sol\":3092:3101  playerOne */\n      dup5\n        /* \"contracts/RPS.sol\":3086:3102  games[playerOne] */\n      0xffffffffffffffffffffffffffffffffffffffff\n      and\n      0xffffffffffffffffffffffffffffffffffffffff\n      and\n      dup2\n      mstore\n      0x20\n      add\n      swap1\n      dup2\n      mstore\n      0x20\n      add\n      0x00\n      keccak256\n        /* \"contracts/RPS.sol\":3086:3118  games[playerOne].playerOneChoice */\n      0x03\n      add\n      sload\n        /* \"contracts/RPS.sol\":3086:3122  games[playerOne].playerOneChoice > 0 */\n      gt\n        /* \"contracts/RPS.sol\":3086:3172  games[playerOne].playerOneChoice > 0 &&... */\n      dup1\n      iszero\n      tag_65\n      jumpi\n      pop\n        /* \"contracts/RPS.sol\":3171:3172  0 */\n      0x00\n        /* \"contracts/RPS.sol\":3136:3141  games */\n      dup1\n        /* \"contracts/RPS.sol\":3136:3152  games[playerOne] */\n      0x00\n        /* \"contracts/RPS.sol\":3142:3151  playerOne */\n      dup5\n        /* \"contracts/RPS.sol\":3136:3152  games[playerOne] */\n      0xffffffffffffffffffffffffffffffffffffffff\n      and\n      0xffffffffffffffffffffffffffffffffffffffff\n      and\n      dup2\n      mstore\n      0x20\n      add\n      swap1\n      dup2\n      mstore\n      0x20\n      add\n      0x00\n      keccak256\n        /* \"contracts/RPS.sol\":3136:3168  games[playerOne].playerTwoChoice */\n      0x04\n      add\n      sload\n        /* \"contracts/RPS.sol\":3136:3172  games[playerOne].playerTwoChoice > 0 */\n      gt\n        /* \"contracts/RPS.sol\":3086:3172  games[playerOne].playerOneChoice > 0 &&... */\n    tag_65:\n        /* \"contracts/RPS.sol\":3067:3266  require(... */\n      tag_66\n      jumpi\n      mload(0x40)\n      0x08c379a000000000000000000000000000000000000000000000000000000000\n      dup2\n      mstore\n      0x04\n      add\n      tag_67\n      swap1\n      tag_68\n      jump\t// in\n    tag_67:\n      mload(0x40)\n      dup1\n      swap2\n      sub\n      swap1\n      revert\n    tag_66:\n        /* \"contracts/RPS.sol\":3277:3294  address playerTwo */\n      0x00\n        /* \"contracts/RPS.sol\":3297:3302  games */\n      dup1\n        /* \"contracts/RPS.sol\":3297:3313  games[playerOne] */\n      0x00\n        /* \"contracts/RPS.sol\":3303:3312  playerOne */\n      dup5\n        /* \"contracts/RPS.sol\":3297:3313  games[playerOne] */\n      0xffffffffffffffffffffffffffffffffffffffff\n      and\n      0xffffffffffffffffffffffffffffffffffffffff\n      and\n      dup2\n      mstore\n      0x20\n      add\n      swap1\n      dup2\n      mstore\n      0x20\n      add\n      0x00\n      keccak256\n        /* \"contracts/RPS.sol\":3297:3323  games[playerOne].playerTwo */\n      0x01\n      add\n      0x00\n      swap1\n      sload\n      swap1\n      0x0100\n      exp\n      swap1\n      div\n      0xffffffffffffffffffffffffffffffffffffffff\n      and\n        /* \"contracts/RPS.sol\":3277:3323  address playerTwo = games[playerOne].playerTwo */\n      swap1\n      pop\n        /* \"contracts/RPS.sol\":3333:3353  uint playerOneChoice */\n      0x00\n        /* \"contracts/RPS.sol\":3356:3361  games */\n      dup1\n        /* \"contracts/RPS.sol\":3356:3372  games[playerOne] */\n      0x00\n        /* \"contracts/RPS.sol\":3362:3371  playerOne */\n      dup6\n        /* \"contracts/RPS.sol\":3356:3372  games[playerOne] */\n      0xffffffffffffffffffffffffffffffffffffffff\n      and\n      0xffffffffffffffffffffffffffffffffffffffff\n      and\n      dup2\n      mstore\n      0x20\n      add\n      swap1\n      dup2\n      mstore\n      0x20\n      add\n      0x00\n      keccak256\n        /* \"contracts/RPS.sol\":3356:3388  games[playerOne].playerOneChoice */\n      0x03\n      add\n      sload\n        /* \"contracts/RPS.sol\":3333:3388  uint playerOneChoice = games[playerOne].playerOneChoice */\n      swap1\n      pop\n        /* \"contracts/RPS.sol\":3398:3418  uint playerTwoChoice */\n      0x00\n        /* \"contracts/RPS.sol\":3421:3426  games */\n      dup1\n        /* \"contracts/RPS.sol\":3421:3437  games[playerOne] */\n      0x00\n        /* \"contracts/RPS.sol\":3427:3436  playerOne */\n      dup7\n        /* \"contracts/RPS.sol\":3421:3437  games[playerOne] */\n      0xffffffffffffffffffffffffffffffffffffffff\n      and\n      0xffffffffffffffffffffffffffffffffffffffff\n      and\n      dup2\n      mstore\n      0x20\n      add\n      swap1\n      dup2\n      mstore\n      0x20\n      add\n      0x00\n      keccak256\n        /* \"contracts/RPS.sol\":3421:3453  games[playerOne].playerTwoChoice */\n      0x04\n      add\n      sload\n        /* \"contracts/RPS.sol\":3398:3453  uint playerTwoChoice = games[playerOne].playerTwoChoice */\n      swap1\n      pop\n        /* \"contracts/RPS.sol\":3463:3473  uint stake */\n      0x00\n        /* \"contracts/RPS.sol\":3476:3481  games */\n      dup1\n        /* \"contracts/RPS.sol\":3476:3492  games[playerOne] */\n      0x00\n        /* \"contracts/RPS.sol\":3482:3491  playerOne */\n      dup8\n        /* \"contracts/RPS.sol\":3476:3492  games[playerOne] */\n      0xffffffffffffffffffffffffffffffffffffffff\n      and\n      0xffffffffffffffffffffffffffffffffffffffff\n      and\n      dup2\n      mstore\n      0x20\n      add\n      swap1\n      dup2\n      mstore\n      0x20\n      add\n      0x00\n      keccak256\n        /* \"contracts/RPS.sol\":3476:3498  games[playerOne].stake */\n      0x02\n      add\n      sload\n        /* \"contracts/RPS.sol\":3463:3498  uint stake = games[playerOne].stake */\n      swap1\n      pop\n        /* \"contracts/RPS.sol\":3576:3577  3 */\n      0x03\n        /* \"contracts/RPS.sol\":3557:3572  playerTwoChoice */\n      dup3\n        /* \"contracts/RPS.sol\":3539:3554  playerOneChoice */\n      dup5\n        /* \"contracts/RPS.sol\":3535:3536  3 */\n      0x03\n        /* \"contracts/RPS.sol\":3535:3554  3 + playerOneChoice */\n      tag_69\n      swap2\n      swap1\n      tag_70\n      jump\t// in\n    tag_69:\n        /* \"contracts/RPS.sol\":3535:3572  3 + playerOneChoice - playerTwoChoice */\n      tag_71\n      swap2\n      swap1\n      tag_61\n      jump\t// in\n    tag_71:\n        /* \"contracts/RPS.sol\":3534:3577  (3 + playerOneChoice - playerTwoChoice) % 3 */\n      tag_72\n      swap2\n      swap1\n      tag_73\n      jump\t// in\n    tag_72:\n        /* \"contracts/RPS.sol\":3522:3578  GameOutcome((3 + playerOneChoice - playerTwoChoice) % 3) */\n      0x02\n      dup2\n      gt\n      iszero\n      tag_74\n      jumpi\n      tag_75\n      tag_54\n      jump\t// in\n    tag_75:\n    tag_74:\n        /* \"contracts/RPS.sol\":3509:3578  gameResult = GameOutcome((3 + playerOneChoice - playerTwoChoice) % 3) */\n      swap5\n      pop\n        /* \"contracts/RPS.sol\":3606:3622  GameOutcome.draw */\n      0x00\n        /* \"contracts/RPS.sol\":3592:3622  gameResult == GameOutcome.draw */\n      0x02\n      dup2\n      gt\n      iszero\n      tag_76\n      jumpi\n      tag_77\n      tag_54\n      jump\t// in\n    tag_77:\n    tag_76:\n        /* \"contracts/RPS.sol\":3592:3602  gameResult */\n      dup6\n        /* \"contracts/RPS.sol\":3592:3622  gameResult == GameOutcome.draw */\n      0x02\n      dup2\n      gt\n      iszero\n      tag_78\n      jumpi\n      tag_79\n      tag_54\n      jump\t// in\n    tag_79:\n    tag_78:\n      eq\n        /* \"contracts/RPS.sol\":3589:4138  if(gameResult == GameOutcome.draw){... */\n      iszero\n      tag_80\n      jumpi\n        /* \"contracts/RPS.sol\":3693:3698  stake */\n      dup1\n        /* \"contracts/RPS.sol\":3665:3679  playerBalances */\n      0x01\n        /* \"contracts/RPS.sol\":3665:3690  playerBalances[playerOne] */\n      0x00\n        /* \"contracts/RPS.sol\":3680:3689  playerOne */\n      dup9\n        /* \"contracts/RPS.sol\":3665:3690  playerBalances[playerOne] */\n      0xffffffffffffffffffffffffffffffffffffffff\n      and\n      0xffffffffffffffffffffffffffffffffffffffff\n      and\n      dup2\n      mstore\n      0x20\n      add\n      swap1\n      dup2\n      mstore\n      0x20\n      add\n      0x00\n      keccak256\n      sload\n        /* \"contracts/RPS.sol\":3665:3698  playerBalances[playerOne] + stake */\n      tag_81\n      swap2\n      swap1\n      tag_70\n      jump\t// in\n    tag_81:\n        /* \"contracts/RPS.sol\":3637:3651  playerBalances */\n      0x01\n        /* \"contracts/RPS.sol\":3637:3662  playerBalances[playerOne] */\n      0x00\n        /* \"contracts/RPS.sol\":3652:3661  playerOne */\n      dup9\n        /* \"contracts/RPS.sol\":3637:3662  playerBalances[playerOne] */\n      0xffffffffffffffffffffffffffffffffffffffff\n      and\n      0xffffffffffffffffffffffffffffffffffffffff\n      and\n      dup2\n      mstore\n      0x20\n      add\n      swap1\n      dup2\n      mstore\n      0x20\n      add\n      0x00\n      keccak256\n        /* \"contracts/RPS.sol\":3637:3698  playerBalances[playerOne] = playerBalances[playerOne] + stake */\n      dup2\n      swap1\n      sstore\n      pop\n        /* \"contracts/RPS.sol\":3768:3773  stake */\n      dup1\n        /* \"contracts/RPS.sol\":3740:3754  playerBalances */\n      0x01\n        /* \"contracts/RPS.sol\":3740:3765  playerBalances[playerTwo] */\n      0x00\n        /* \"contracts/RPS.sol\":3755:3764  playerTwo */\n      dup7\n        /* \"contracts/RPS.sol\":3740:3765  playerBalances[playerTwo] */\n      0xffffffffffffffffffffffffffffffffffffffff\n      and\n      0xffffffffffffffffffffffffffffffffffffffff\n      and\n      dup2\n      mstore\n      0x20\n      add\n      swap1\n      dup2\n      mstore\n      0x20\n      add\n      0x00\n      keccak256\n      sload\n        /* \"contracts/RPS.sol\":3740:3773  playerBalances[playerTwo] + stake */\n      tag_82\n      swap2\n      swap1\n      tag_70\n      jump\t// in\n    tag_82:\n        /* \"contracts/RPS.sol\":3712:3726  playerBalances */\n      0x01\n        /* \"contracts/RPS.sol\":3712:3737  playerBalances[playerTwo] */\n      0x00\n        /* \"contracts/RPS.sol\":3727:3736  playerTwo */\n      dup7\n        /* \"contracts/RPS.sol\":3712:3737  playerBalances[playerTwo] */\n      0xffffffffffffffffffffffffffffffffffffffff\n      and\n      0xffffffffffffffffffffffffffffffffffffffff\n      and\n      dup2\n      mstore\n      0x20\n      add\n      swap1\n      dup2\n      mstore\n      0x20\n      add\n      0x00\n      keccak256\n        /* \"contracts/RPS.sol\":3712:3773  playerBalances[playerTwo] = playerBalances[playerTwo] + stake */\n      dup2\n      swap1\n      sstore\n      pop\n        /* \"contracts/RPS.sol\":3589:4138  if(gameResult == GameOutcome.draw){... */\n      jump(tag_83)\n    tag_80:\n        /* \"contracts/RPS.sol\":3815:3836  GameOutcome.playerOne */\n      0x01\n        /* \"contracts/RPS.sol\":3801:3836  gameResult == GameOutcome.playerOne */\n      0x02\n      dup2\n      gt\n      iszero\n      tag_84\n      jumpi\n      tag_85\n      tag_54\n      jump\t// in\n    tag_85:\n    tag_84:\n        /* \"contracts/RPS.sol\":3801:3811  gameResult */\n      dup6\n        /* \"contracts/RPS.sol\":3801:3836  gameResult == GameOutcome.playerOne */\n      0x02\n      dup2\n      gt\n      iszero\n      tag_86\n      jumpi\n      tag_87\n      tag_54\n      jump\t// in\n    tag_87:\n    tag_86:\n      eq\n        /* \"contracts/RPS.sol\":3798:4138  if(gameResult == GameOutcome.playerOne){... */\n      iszero\n      tag_88\n      jumpi\n        /* \"contracts/RPS.sol\":3915:3916  2 */\n      0x02\n        /* \"contracts/RPS.sol\":3907:3912  stake */\n      dup2\n        /* \"contracts/RPS.sol\":3907:3916  stake * 2 */\n      tag_89\n      swap2\n      swap1\n      tag_90\n      jump\t// in\n    tag_89:\n        /* \"contracts/RPS.sol\":3879:3893  playerBalances */\n      0x01\n        /* \"contracts/RPS.sol\":3879:3904  playerBalances[playerOne] */\n      0x00\n        /* \"contracts/RPS.sol\":3894:3903  playerOne */\n      dup9\n        /* \"contracts/RPS.sol\":3879:3904  playerBalances[playerOne] */\n      0xffffffffffffffffffffffffffffffffffffffff\n      and\n      0xffffffffffffffffffffffffffffffffffffffff\n      and\n      dup2\n      mstore\n      0x20\n      add\n      swap1\n      dup2\n      mstore\n      0x20\n      add\n      0x00\n      keccak256\n      sload\n        /* \"contracts/RPS.sol\":3879:3916  playerBalances[playerOne] + stake * 2 */\n      tag_91\n      swap2\n      swap1\n      tag_70\n      jump\t// in\n    tag_91:\n        /* \"contracts/RPS.sol\":3851:3865  playerBalances */\n      0x01\n        /* \"contracts/RPS.sol\":3851:3876  playerBalances[playerOne] */\n      0x00\n        /* \"contracts/RPS.sol\":3866:3875  playerOne */\n      dup9\n        /* \"contracts/RPS.sol\":3851:3876  playerBalances[playerOne] */\n      0xffffffffffffffffffffffffffffffffffffffff\n      and\n      0xffffffffffffffffffffffffffffffffffffffff\n      and\n      dup2\n      mstore\n      0x20\n      add\n      swap1\n      dup2\n      mstore\n      0x20\n      add\n      0x00\n      keccak256\n        /* \"contracts/RPS.sol\":3851:3916  playerBalances[playerOne] = playerBalances[playerOne] + stake * 2 */\n      dup2\n      swap1\n      sstore\n      pop\n        /* \"contracts/RPS.sol\":3798:4138  if(gameResult == GameOutcome.playerOne){... */\n      jump(tag_92)\n    tag_88:\n        /* \"contracts/RPS.sol\":3958:3979  GameOutcome.playerTwo */\n      0x02\n        /* \"contracts/RPS.sol\":3944:3979  gameResult == GameOutcome.playerTwo */\n      dup1\n      dup2\n      gt\n      iszero\n      tag_93\n      jumpi\n      tag_94\n      tag_54\n      jump\t// in\n    tag_94:\n    tag_93:\n        /* \"contracts/RPS.sol\":3944:3954  gameResult */\n      dup6\n        /* \"contracts/RPS.sol\":3944:3979  gameResult == GameOutcome.playerTwo */\n      0x02\n      dup2\n      gt\n      iszero\n      tag_95\n      jumpi\n      tag_96\n      tag_54\n      jump\t// in\n    tag_96:\n    tag_95:\n      eq\n        /* \"contracts/RPS.sol\":3941:4138  if(gameResult == GameOutcome.playerTwo){... */\n      iszero\n      tag_97\n      jumpi\n        /* \"contracts/RPS.sol\":4058:4059  2 */\n      0x02\n        /* \"contracts/RPS.sol\":4050:4055  stake */\n      dup2\n        /* \"contracts/RPS.sol\":4050:4059  stake * 2 */\n      tag_98\n      swap2\n      swap1\n      tag_90\n      jump\t// in\n    tag_98:\n        /* \"contracts/RPS.sol\":4022:4036  playerBalances */\n      0x01\n        /* \"contracts/RPS.sol\":4022:4047  playerBalances[playerTwo] */\n      0x00\n        /* \"contracts/RPS.sol\":4037:4046  playerTwo */\n      dup7\n        /* \"contracts/RPS.sol\":4022:4047  playerBalances[playerTwo] */\n      0xffffffffffffffffffffffffffffffffffffffff\n      and\n      0xffffffffffffffffffffffffffffffffffffffff\n      and\n      dup2\n      mstore\n      0x20\n      add\n      swap1\n      dup2\n      mstore\n      0x20\n      add\n      0x00\n      keccak256\n      sload\n        /* \"contracts/RPS.sol\":4022:4059  playerBalances[playerTwo] + stake * 2 */\n      tag_99\n      swap2\n      swap1\n      tag_70\n      jump\t// in\n    tag_99:\n        /* \"contracts/RPS.sol\":3994:4008  playerBalances */\n      0x01\n        /* \"contracts/RPS.sol\":3994:4019  playerBalances[playerTwo] */\n      0x00\n        /* \"contracts/RPS.sol\":4009:4018  playerTwo */\n      dup7\n        /* \"contracts/RPS.sol\":3994:4019  playerBalances[playerTwo] */\n      0xffffffffffffffffffffffffffffffffffffffff\n      and\n      0xffffffffffffffffffffffffffffffffffffffff\n      and\n      dup2\n      mstore\n      0x20\n      add\n      swap1\n      dup2\n      mstore\n      0x20\n      add\n      0x00\n      keccak256\n        /* \"contracts/RPS.sol\":3994:4059  playerBalances[playerTwo] = playerBalances[playerTwo] + stake * 2 */\n      dup2\n      swap1\n      sstore\n      pop\n        /* \"contracts/RPS.sol\":3941:4138  if(gameResult == GameOutcome.playerTwo){... */\n      jump(tag_100)\n    tag_97:\n        /* \"contracts/RPS.sol\":4097:4127  revert(\"Invalid Game Outcome\") */\n      mload(0x40)\n      0x08c379a000000000000000000000000000000000000000000000000000000000\n      dup2\n      mstore\n      0x04\n      add\n      tag_101\n      swap1\n      tag_102\n      jump\t// in\n    tag_101:\n      mload(0x40)\n      dup1\n      swap2\n      sub\n      swap1\n      revert\n        /* \"contracts/RPS.sol\":3941:4138  if(gameResult == GameOutcome.playerTwo){... */\n    tag_100:\n        /* \"contracts/RPS.sol\":3798:4138  if(gameResult == GameOutcome.playerOne){... */\n    tag_92:\n        /* \"contracts/RPS.sol\":3589:4138  if(gameResult == GameOutcome.draw){... */\n    tag_83:\n        /* \"contracts/RPS.sol\":4153:4179  GetGameOutcome(gameResult) */\n      0x6d1a16000380c9adde391bcb46a92c2ce8c46811cff002ed5dec38dfdc2373cd\n        /* \"contracts/RPS.sol\":4168:4178  gameResult */\n      dup6\n        /* \"contracts/RPS.sol\":4153:4179  GetGameOutcome(gameResult) */\n      mload(0x40)\n      tag_103\n      swap2\n      swap1\n      tag_18\n      jump\t// in\n    tag_103:\n      mload(0x40)\n      dup1\n      swap2\n      sub\n      swap1\n      log1\n        /* \"contracts/RPS.sol\":4189:4206  return gameResult */\n      pop\n      pop\n      pop\n      pop\n        /* \"contracts/RPS.sol\":2980:4213  function endGame(address playerOne) external returns(GameOutcome gameResult) {... */\n      swap2\n      swap1\n      pop\n      jump\t// out\n        /* \"contracts/RPS.sol\":598:636  mapping (address => Game) public games */\n    tag_21:\n      mstore(0x20, 0x00)\n      dup1\n      0x00\n      mstore\n      keccak256(0x00, 0x40)\n      0x00\n      swap2\n      pop\n      swap1\n      pop\n      dup1\n      0x00\n      add\n      0x00\n      swap1\n      sload\n      swap1\n      0x0100\n      exp\n      swap1\n      div\n      0xffffffffffffffffffffffffffffffffffffffff\n      and\n      swap1\n      dup1\n      0x01\n      add\n      0x00\n      swap1\n      sload\n      swap1\n      0x0100\n      exp\n      swap1\n      div\n      0xffffffffffffffffffffffffffffffffffffffff\n      and\n      swap1\n      dup1\n      0x02\n      add\n      sload\n      swap1\n      dup1\n      0x03\n      add\n      sload\n      swap1\n      dup1\n      0x04\n      add\n      sload\n      swap1\n      dup1\n      0x05\n      add\n      sload\n      swap1\n      dup1\n      0x06\n      add\n      sload\n      swap1\n      dup1\n      0x07\n      add\n      0x00\n      swap1\n      sload\n      swap1\n      0x0100\n      exp\n      swap1\n      div\n      0xff\n      and\n      swap1\n      dup1\n      0x07\n      add\n      0x01\n      swap1\n      sload\n      swap1\n      0x0100\n      exp\n      swap1\n      div\n      0xff\n      and\n      swap1\n      pop\n      dup10\n      jump\t// out\n        /* \"contracts/RPS.sol\":642:689  mapping (address => uint) public playerBalances */\n    tag_26:\n      mstore(0x20, 0x01)\n      dup1\n      0x00\n      mstore\n      keccak256(0x00, 0x40)\n      0x00\n      swap2\n      pop\n      swap1\n      pop\n      sload\n      dup2\n      jump\t// out\n        /* \"contracts/RPS.sol\":1050:1618  function startGame(bytes32 gameHash, address opponent, uint gameStake) external HashOpponent(gameHash, opponent, gameStake) {... */\n    tag_32:\n        /* \"contracts/RPS.sol\":1143:1151  gameHash */\n      dup3\n        /* \"contracts/RPS.sol\":1153:1161  opponent */\n      dup3\n        /* \"contracts/RPS.sol\":1163:1172  gameStake */\n      dup3\n        /* \"contracts/RPS.sol\":788:802  gameHash != \"\" */\n      0x00\n        /* \"contracts/RPS.sol\":788:796  gameHash */\n      dup4\n        /* \"contracts/RPS.sol\":788:802  gameHash != \"\" */\n      eq\n      iszero\n        /* \"contracts/RPS.sol\":780:833  require(gameHash != \"\", \"game hash was not provided\") */\n      tag_105\n      jumpi\n      mload(0x40)\n      0x08c379a000000000000000000000000000000000000000000000000000000000\n      dup2\n      mstore\n      0x04\n      add\n      tag_106\n      swap1\n      tag_40\n      jump\t// in\n    tag_106:\n      mload(0x40)\n      dup1\n      swap2\n      sub\n      swap1\n      revert\n    tag_105:\n        /* \"contracts/RPS.sol\":871:874  0x0 */\n      0x00\n        /* \"contracts/RPS.sol\":851:875  opponent != address(0x0) */\n      0xffffffffffffffffffffffffffffffffffffffff\n      and\n        /* \"contracts/RPS.sol\":851:859  opponent */\n      dup3\n        /* \"contracts/RPS.sol\":851:875  opponent != address(0x0) */\n      0xffffffffffffffffffffffffffffffffffffffff\n      and\n      eq\n      iszero\n        /* \"contracts/RPS.sol\":851:901  opponent != address(0x0) && opponent != msg.sender */\n      dup1\n      iszero\n      tag_107\n      jumpi\n      pop\n        /* \"contracts/RPS.sol\":891:901  msg.sender */\n      caller\n        /* \"contracts/RPS.sol\":879:901  opponent != msg.sender */\n      0xffffffffffffffffffffffffffffffffffffffff\n      and\n        /* \"contracts/RPS.sol\":879:887  opponent */\n      dup3\n        /* \"contracts/RPS.sol\":879:901  opponent != msg.sender */\n      0xffffffffffffffffffffffffffffffffffffffff\n      and\n      eq\n      iszero\n        /* \"contracts/RPS.sol\":851:901  opponent != address(0x0) && opponent != msg.sender */\n    tag_107:\n        /* \"contracts/RPS.sol\":843:934  require(opponent != address(0x0) && opponent != msg.sender, \"Problem with other player...\") */\n      tag_108\n      jumpi\n      mload(0x40)\n      0x08c379a000000000000000000000000000000000000000000000000000000000\n      dup2\n      mstore\n      0x04\n      add\n      tag_109\n      swap1\n      tag_44\n      jump\t// in\n    tag_109:\n      mload(0x40)\n      dup1\n      swap2\n      sub\n      swap1\n      revert\n    tag_108:\n        /* \"contracts/RPS.sol\":965:979  playerBalances */\n      0x01\n        /* \"contracts/RPS.sol\":965:991  playerBalances[msg.sender] */\n      0x00\n        /* \"contracts/RPS.sol\":980:990  msg.sender */\n      caller\n        /* \"contracts/RPS.sol\":965:991  playerBalances[msg.sender] */\n      0xffffffffffffffffffffffffffffffffffffffff\n      and\n      0xffffffffffffffffffffffffffffffffffffffff\n      and\n      dup2\n      mstore\n      0x20\n      add\n      swap1\n      dup2\n      mstore\n      0x20\n      add\n      0x00\n      keccak256\n      sload\n        /* \"contracts/RPS.sol\":952:961  gameStake */\n      dup2\n        /* \"contracts/RPS.sol\":952:991  gameStake <= playerBalances[msg.sender] */\n      gt\n      iszero\n        /* \"contracts/RPS.sol\":944:1026  require(gameStake <= playerBalances[msg.sender], \"Players funds are insufficient\") */\n      tag_110\n      jumpi\n      mload(0x40)\n      0x08c379a000000000000000000000000000000000000000000000000000000000\n      dup2\n      mstore\n      0x04\n      add\n      tag_111\n      swap1\n      tag_47\n      jump\t// in\n    tag_111:\n      mload(0x40)\n      dup1\n      swap2\n      sub\n      swap1\n      revert\n    tag_110:\n        /* \"contracts/RPS.sol\":1220:1242  GameStatus.nonExistent */\n      0x00\n        /* \"contracts/RPS.sol\":1192:1242  games[msg.sender].status == GameStatus.nonExistent */\n      0x03\n      dup2\n      gt\n      iszero\n      tag_113\n      jumpi\n      tag_114\n      tag_54\n      jump\t// in\n    tag_114:\n    tag_113:\n        /* \"contracts/RPS.sol\":1192:1197  games */\n      0x00\n        /* \"contracts/RPS.sol\":1192:1209  games[msg.sender] */\n      dup1\n        /* \"contracts/RPS.sol\":1198:1208  msg.sender */\n      caller\n        /* \"contracts/RPS.sol\":1192:1209  games[msg.sender] */\n      0xffffffffffffffffffffffffffffffffffffffff\n      and\n      0xffffffffffffffffffffffffffffffffffffffff\n      and\n      dup2\n      mstore\n      0x20\n      add\n      swap1\n      dup2\n      mstore\n      0x20\n      add\n      0x00\n      keccak256\n        /* \"contracts/RPS.sol\":1192:1216  games[msg.sender].status */\n      0x07\n      add\n      0x00\n      swap1\n      sload\n      swap1\n      0x0100\n      exp\n      swap1\n      div\n      0xff\n      and\n        /* \"contracts/RPS.sol\":1192:1242  games[msg.sender].status == GameStatus.nonExistent */\n      0x03\n      dup2\n      gt\n      iszero\n      tag_115\n      jumpi\n      tag_116\n      tag_54\n      jump\t// in\n    tag_116:\n    tag_115:\n      eq\n        /* \"contracts/RPS.sol\":1184:1274  require(games[msg.sender].status == GameStatus.nonExistent, \"Problem with game status...\") */\n      tag_117\n      jumpi\n      mload(0x40)\n      0x08c379a000000000000000000000000000000000000000000000000000000000\n      dup2\n      mstore\n      0x04\n      add\n      tag_118\n      swap1\n      tag_119\n      jump\t// in\n    tag_118:\n      mload(0x40)\n      dup1\n      swap2\n      sub\n      swap1\n      revert\n    tag_117:\n        /* \"contracts/RPS.sol\":1343:1352  gameStake */\n      dup4\n        /* \"contracts/RPS.sol\":1314:1328  playerBalances */\n      0x01\n        /* \"contracts/RPS.sol\":1314:1340  playerBalances[msg.sender] */\n      0x00\n        /* \"contracts/RPS.sol\":1329:1339  msg.sender */\n      caller\n        /* \"contracts/RPS.sol\":1314:1340  playerBalances[msg.sender] */\n      0xffffffffffffffffffffffffffffffffffffffff\n      and\n      0xffffffffffffffffffffffffffffffffffffffff\n      and\n      dup2\n      mstore\n      0x20\n      add\n      swap1\n      dup2\n      mstore\n      0x20\n      add\n      0x00\n      keccak256\n      sload\n        /* \"contracts/RPS.sol\":1314:1352  playerBalances[msg.sender] - gameStake */\n      tag_120\n      swap2\n      swap1\n      tag_61\n      jump\t// in\n    tag_120:\n        /* \"contracts/RPS.sol\":1285:1299  playerBalances */\n      0x01\n        /* \"contracts/RPS.sol\":1285:1311  playerBalances[msg.sender] */\n      0x00\n        /* \"contracts/RPS.sol\":1300:1310  msg.sender */\n      caller\n        /* \"contracts/RPS.sol\":1285:1311  playerBalances[msg.sender] */\n      0xffffffffffffffffffffffffffffffffffffffff\n      and\n      0xffffffffffffffffffffffffffffffffffffffff\n      and\n      dup2\n      mstore\n      0x20\n      add\n      swap1\n      dup2\n      mstore\n      0x20\n      add\n      0x00\n      keccak256\n        /* \"contracts/RPS.sol\":1285:1352  playerBalances[msg.sender] = playerBalances[msg.sender] - gameStake */\n      dup2\n      swap1\n      sstore\n      pop\n        /* \"contracts/RPS.sol\":1405:1413  gameHash */\n      dup6\n        /* \"contracts/RPS.sol\":1371:1376  games */\n      0x00\n        /* \"contracts/RPS.sol\":1371:1388  games[msg.sender] */\n      dup1\n        /* \"contracts/RPS.sol\":1377:1387  msg.sender */\n      caller\n        /* \"contracts/RPS.sol\":1371:1388  games[msg.sender] */\n      0xffffffffffffffffffffffffffffffffffffffff\n      and\n      0xffffffffffffffffffffffffffffffffffffffff\n      and\n      dup2\n      mstore\n      0x20\n      add\n      swap1\n      dup2\n      mstore\n      0x20\n      add\n      0x00\n      keccak256\n        /* \"contracts/RPS.sol\":1371:1402  games[msg.sender].playerOneHash */\n      0x05\n      add\n        /* \"contracts/RPS.sol\":1371:1413  games[msg.sender].playerOneHash = gameHash */\n      dup2\n      swap1\n      sstore\n      pop\n        /* \"contracts/RPS.sol\":1453:1463  msg.sender */\n      caller\n        /* \"contracts/RPS.sol\":1423:1428  games */\n      0x00\n        /* \"contracts/RPS.sol\":1423:1440  games[msg.sender] */\n      dup1\n        /* \"contracts/RPS.sol\":1429:1439  msg.sender */\n      caller\n        /* \"contracts/RPS.sol\":1423:1440  games[msg.sender] */\n      0xffffffffffffffffffffffffffffffffffffffff\n      and\n      0xffffffffffffffffffffffffffffffffffffffff\n      and\n      dup2\n      mstore\n      0x20\n      add\n      swap1\n      dup2\n      mstore\n      0x20\n      add\n      0x00\n      keccak256\n        /* \"contracts/RPS.sol\":1423:1450  games[msg.sender].playerOne */\n      0x00\n      add\n      0x00\n        /* \"contracts/RPS.sol\":1423:1463  games[msg.sender].playerOne = msg.sender */\n      0x0100\n      exp\n      dup2\n      sload\n      dup2\n      0xffffffffffffffffffffffffffffffffffffffff\n      mul\n      not\n      and\n      swap1\n      dup4\n      0xffffffffffffffffffffffffffffffffffffffff\n      and\n      mul\n      or\n      swap1\n      sstore\n      pop\n        /* \"contracts/RPS.sol\":1503:1511  opponent */\n      dup5\n        /* \"contracts/RPS.sol\":1473:1478  games */\n      0x00\n        /* \"contracts/RPS.sol\":1473:1490  games[msg.sender] */\n      dup1\n        /* \"contracts/RPS.sol\":1479:1489  msg.sender */\n      caller\n        /* \"contracts/RPS.sol\":1473:1490  games[msg.sender] */\n      0xffffffffffffffffffffffffffffffffffffffff\n      and\n      0xffffffffffffffffffffffffffffffffffffffff\n      and\n      dup2\n      mstore\n      0x20\n      add\n      swap1\n      dup2\n      mstore\n      0x20\n      add\n      0x00\n      keccak256\n        /* \"contracts/RPS.sol\":1473:1500  games[msg.sender].playerTwo */\n      0x01\n      add\n      0x00\n        /* \"contracts/RPS.sol\":1473:1511  games[msg.sender].playerTwo = opponent */\n      0x0100\n      exp\n      dup2\n      sload\n      dup2\n      0xffffffffffffffffffffffffffffffffffffffff\n      mul\n      not\n      and\n      swap1\n      dup4\n      0xffffffffffffffffffffffffffffffffffffffff\n      and\n      mul\n      or\n      swap1\n      sstore\n      pop\n        /* \"contracts/RPS.sol\":1547:1556  gameStake */\n      dup4\n        /* \"contracts/RPS.sol\":1521:1526  games */\n      0x00\n        /* \"contracts/RPS.sol\":1521:1538  games[msg.sender] */\n      dup1\n        /* \"contracts/RPS.sol\":1527:1537  msg.sender */\n      caller\n        /* \"contracts/RPS.sol\":1521:1538  games[msg.sender] */\n      0xffffffffffffffffffffffffffffffffffffffff\n      and\n      0xffffffffffffffffffffffffffffffffffffffff\n      and\n      dup2\n      mstore\n      0x20\n      add\n      swap1\n      dup2\n      mstore\n      0x20\n      add\n      0x00\n      keccak256\n        /* \"contracts/RPS.sol\":1521:1544  games[msg.sender].stake */\n      0x02\n      add\n        /* \"contracts/RPS.sol\":1521:1556  games[msg.sender].stake = gameStake */\n      dup2\n      swap1\n      sstore\n      pop\n        /* \"contracts/RPS.sol\":1593:1611  GameStatus.started */\n      0x01\n        /* \"contracts/RPS.sol\":1566:1571  games */\n      0x00\n        /* \"contracts/RPS.sol\":1566:1583  games[msg.sender] */\n      dup1\n        /* \"contracts/RPS.sol\":1572:1582  msg.sender */\n      caller\n        /* \"contracts/RPS.sol\":1566:1583  games[msg.sender] */\n      0xffffffffffffffffffffffffffffffffffffffff\n      and\n      0xffffffffffffffffffffffffffffffffffffffff\n      and\n      dup2\n      mstore\n      0x20\n      add\n      swap1\n      dup2\n      mstore\n      0x20\n      add\n      0x00\n      keccak256\n        /* \"contracts/RPS.sol\":1566:1590  games[msg.sender].status */\n      0x07\n      add\n      0x00\n        /* \"contracts/RPS.sol\":1566:1611  games[msg.sender].status = GameStatus.started */\n      0x0100\n      exp\n      dup2\n      sload\n      dup2\n      0xff\n      mul\n      not\n      and\n      swap1\n      dup4\n      0x03\n      dup2\n      gt\n      iszero\n      tag_121\n      jumpi\n      tag_122\n      tag_54\n      jump\t// in\n    tag_122:\n    tag_121:\n      mul\n      or\n      swap1\n      sstore\n      pop\n        /* \"contracts/RPS.sol\":1050:1618  function startGame(bytes32 gameHash, address opponent, uint gameStake) external HashOpponent(gameHash, opponent, gameStake) {... */\n      pop\n      pop\n      pop\n      pop\n      pop\n      pop\n      jump\t// out\n        /* \"contracts/RPS.sol\":2213:2970  function revealChoice(uint choice, bytes32 salt, address playerOne) external {        ... */\n    tag_36:\n        /* \"contracts/RPS.sol\":2343:2366  GameStatus.participated */\n      0x02\n        /* \"contracts/RPS.sol\":2316:2366  games[playerOne].status == GameStatus.participated */\n      0x03\n      dup2\n      gt\n      iszero\n      tag_124\n      jumpi\n      tag_125\n      tag_54\n      jump\t// in\n    tag_125:\n    tag_124:\n        /* \"contracts/RPS.sol\":2316:2321  games */\n      0x00\n        /* \"contracts/RPS.sol\":2316:2332  games[playerOne] */\n      dup1\n        /* \"contracts/RPS.sol\":2322:2331  playerOne */\n      dup4\n        /* \"contracts/RPS.sol\":2316:2332  games[playerOne] */\n      0xffffffffffffffffffffffffffffffffffffffff\n      and\n      0xffffffffffffffffffffffffffffffffffffffff\n      and\n      dup2\n      mstore\n      0x20\n      add\n      swap1\n      dup2\n      mstore\n      0x20\n      add\n      0x00\n      keccak256\n        /* \"contracts/RPS.sol\":2316:2339  games[playerOne].status */\n      0x07\n      add\n      0x00\n      swap1\n      sload\n      swap1\n      0x0100\n      exp\n      swap1\n      div\n      0xff\n      and\n        /* \"contracts/RPS.sol\":2316:2366  games[playerOne].status == GameStatus.participated */\n      0x03\n      dup2\n      gt\n      iszero\n      tag_126\n      jumpi\n      tag_127\n      tag_54\n      jump\t// in\n    tag_127:\n    tag_126:\n      eq\n        /* \"contracts/RPS.sol\":2308:2429  require(games[playerOne].status == GameStatus.participated, \"Game does not exist or player Two has not placed a bet yet\") */\n      tag_128\n      jumpi\n      mload(0x40)\n      0x08c379a000000000000000000000000000000000000000000000000000000000\n      dup2\n      mstore\n      0x04\n      add\n      tag_129\n      swap1\n      tag_130\n      jump\t// in\n    tag_129:\n      mload(0x40)\n      dup1\n      swap2\n      sub\n      swap1\n      revert\n    tag_128:\n        /* \"contracts/RPS.sol\":2496:2506  msg.sender */\n      caller\n        /* \"contracts/RPS.sol\":2466:2506  games[playerOne].playerOne == msg.sender */\n      0xffffffffffffffffffffffffffffffffffffffff\n      and\n        /* \"contracts/RPS.sol\":2466:2471  games */\n      0x00\n        /* \"contracts/RPS.sol\":2466:2482  games[playerOne] */\n      dup1\n        /* \"contracts/RPS.sol\":2472:2481  playerOne */\n      dup4\n        /* \"contracts/RPS.sol\":2466:2482  games[playerOne] */\n      0xffffffffffffffffffffffffffffffffffffffff\n      and\n      0xffffffffffffffffffffffffffffffffffffffff\n      and\n      dup2\n      mstore\n      0x20\n      add\n      swap1\n      dup2\n      mstore\n      0x20\n      add\n      0x00\n      keccak256\n        /* \"contracts/RPS.sol\":2466:2492  games[playerOne].playerOne */\n      0x00\n      add\n      0x00\n      swap1\n      sload\n      swap1\n      0x0100\n      exp\n      swap1\n      div\n      0xffffffffffffffffffffffffffffffffffffffff\n      and\n        /* \"contracts/RPS.sol\":2466:2506  games[playerOne].playerOne == msg.sender */\n      0xffffffffffffffffffffffffffffffffffffffff\n      and\n      eq\n        /* \"contracts/RPS.sol\":2463:2964  if(games[playerOne].playerOne == msg.sender) {... */\n      iszero\n      tag_131\n      jumpi\n        /* \"contracts/RPS.sol\":2564:2591  getSaltedHash(choice, salt) */\n      tag_132\n        /* \"contracts/RPS.sol\":2578:2584  choice */\n      dup4\n        /* \"contracts/RPS.sol\":2586:2590  salt */\n      dup4\n        /* \"contracts/RPS.sol\":2564:2577  getSaltedHash */\n      tag_133\n        /* \"contracts/RPS.sol\":2564:2591  getSaltedHash(choice, salt) */\n      jump\t// in\n    tag_132:\n        /* \"contracts/RPS.sol\":2530:2535  games */\n      0x00\n        /* \"contracts/RPS.sol\":2530:2546  games[playerOne] */\n      dup1\n        /* \"contracts/RPS.sol\":2536:2545  playerOne */\n      dup4\n        /* \"contracts/RPS.sol\":2530:2546  games[playerOne] */\n      0xffffffffffffffffffffffffffffffffffffffff\n      and\n      0xffffffffffffffffffffffffffffffffffffffff\n      and\n      dup2\n      mstore\n      0x20\n      add\n      swap1\n      dup2\n      mstore\n      0x20\n      add\n      0x00\n      keccak256\n        /* \"contracts/RPS.sol\":2530:2560  games[playerOne].playerOneHash */\n      0x05\n      add\n      sload\n        /* \"contracts/RPS.sol\":2530:2591  games[playerOne].playerOneHash == getSaltedHash(choice, salt) */\n      eq\n        /* \"contracts/RPS.sol\":2522:2613  require(games[playerOne].playerOneHash == getSaltedHash(choice, salt), \"problem with salt\") */\n      tag_134\n      jumpi\n      mload(0x40)\n      0x08c379a000000000000000000000000000000000000000000000000000000000\n      dup2\n      mstore\n      0x04\n      add\n      tag_135\n      swap1\n      tag_136\n      jump\t// in\n    tag_135:\n      mload(0x40)\n      dup1\n      swap2\n      sub\n      swap1\n      revert\n    tag_134:\n        /* \"contracts/RPS.sol\":2662:2668  choice */\n      dup3\n        /* \"contracts/RPS.sol\":2627:2632  games */\n      0x00\n        /* \"contracts/RPS.sol\":2627:2643  games[playerOne] */\n      dup1\n        /* \"contracts/RPS.sol\":2633:2642  playerOne */\n      dup4\n        /* \"contracts/RPS.sol\":2627:2643  games[playerOne] */\n      0xffffffffffffffffffffffffffffffffffffffff\n      and\n      0xffffffffffffffffffffffffffffffffffffffff\n      and\n      dup2\n      mstore\n      0x20\n      add\n      swap1\n      dup2\n      mstore\n      0x20\n      add\n      0x00\n      keccak256\n        /* \"contracts/RPS.sol\":2627:2659  games[playerOne].playerOneChoice */\n      0x03\n      add\n        /* \"contracts/RPS.sol\":2627:2668  games[playerOne].playerOneChoice = choice */\n      dup2\n      swap1\n      sstore\n      pop\n        /* \"contracts/RPS.sol\":2463:2964  if(games[playerOne].playerOne == msg.sender) {... */\n      jump(tag_137)\n    tag_131:\n        /* \"contracts/RPS.sol\":2718:2728  msg.sender */\n      caller\n        /* \"contracts/RPS.sol\":2688:2728  games[playerOne].playerTwo == msg.sender */\n      0xffffffffffffffffffffffffffffffffffffffff\n      and\n        /* \"contracts/RPS.sol\":2688:2693  games */\n      0x00\n        /* \"contracts/RPS.sol\":2688:2704  games[playerOne] */\n      dup1\n        /* \"contracts/RPS.sol\":2694:2703  playerOne */\n      dup4\n        /* \"contracts/RPS.sol\":2688:2704  games[playerOne] */\n      0xffffffffffffffffffffffffffffffffffffffff\n      and\n      0xffffffffffffffffffffffffffffffffffffffff\n      and\n      dup2\n      mstore\n      0x20\n      add\n      swap1\n      dup2\n      mstore\n      0x20\n      add\n      0x00\n      keccak256\n        /* \"contracts/RPS.sol\":2688:2714  games[playerOne].playerTwo */\n      0x01\n      add\n      0x00\n      swap1\n      sload\n      swap1\n      0x0100\n      exp\n      swap1\n      div\n      0xffffffffffffffffffffffffffffffffffffffff\n      and\n        /* \"contracts/RPS.sol\":2688:2728  games[playerOne].playerTwo == msg.sender */\n      0xffffffffffffffffffffffffffffffffffffffff\n      and\n      eq\n        /* \"contracts/RPS.sol\":2685:2964  if(games[playerOne].playerTwo == msg.sender) {... */\n      iszero\n      tag_138\n      jumpi\n        /* \"contracts/RPS.sol\":2786:2813  getSaltedHash(choice, salt) */\n      tag_139\n        /* \"contracts/RPS.sol\":2800:2806  choice */\n      dup4\n        /* \"contracts/RPS.sol\":2808:2812  salt */\n      dup4\n        /* \"contracts/RPS.sol\":2786:2799  getSaltedHash */\n      tag_133\n        /* \"contracts/RPS.sol\":2786:2813  getSaltedHash(choice, salt) */\n      jump\t// in\n    tag_139:\n        /* \"contracts/RPS.sol\":2752:2757  games */\n      0x00\n        /* \"contracts/RPS.sol\":2752:2768  games[playerOne] */\n      dup1\n        /* \"contracts/RPS.sol\":2758:2767  playerOne */\n      dup4\n        /* \"contracts/RPS.sol\":2752:2768  games[playerOne] */\n      0xffffffffffffffffffffffffffffffffffffffff\n      and\n      0xffffffffffffffffffffffffffffffffffffffff\n      and\n      dup2\n      mstore\n      0x20\n      add\n      swap1\n      dup2\n      mstore\n      0x20\n      add\n      0x00\n      keccak256\n        /* \"contracts/RPS.sol\":2752:2782  games[playerOne].playerTwoHash */\n      0x06\n      add\n      sload\n        /* \"contracts/RPS.sol\":2752:2813  games[playerOne].playerTwoHash == getSaltedHash(choice, salt) */\n      eq\n        /* \"contracts/RPS.sol\":2744:2835  require(games[playerOne].playerTwoHash == getSaltedHash(choice, salt), \"problem with salt\") */\n      tag_140\n      jumpi\n      mload(0x40)\n      0x08c379a000000000000000000000000000000000000000000000000000000000\n      dup2\n      mstore\n      0x04\n      add\n      tag_141\n      swap1\n      tag_136\n      jump\t// in\n    tag_141:\n      mload(0x40)\n      dup1\n      swap2\n      sub\n      swap1\n      revert\n    tag_140:\n        /* \"contracts/RPS.sol\":2884:2890  choice */\n      dup3\n        /* \"contracts/RPS.sol\":2849:2854  games */\n      0x00\n        /* \"contracts/RPS.sol\":2849:2865  games[playerOne] */\n      dup1\n        /* \"contracts/RPS.sol\":2855:2864  playerOne */\n      dup4\n        /* \"contracts/RPS.sol\":2849:2865  games[playerOne] */\n      0xffffffffffffffffffffffffffffffffffffffff\n      and\n      0xffffffffffffffffffffffffffffffffffffffff\n      and\n      dup2\n      mstore\n      0x20\n      add\n      swap1\n      dup2\n      mstore\n      0x20\n      add\n      0x00\n      keccak256\n        /* \"contracts/RPS.sol\":2849:2881  games[playerOne].playerTwoChoice */\n      0x04\n      add\n        /* \"contracts/RPS.sol\":2849:2890  games[playerOne].playerTwoChoice = choice */\n      dup2\n      swap1\n      sstore\n      pop\n        /* \"contracts/RPS.sol\":2685:2964  if(games[playerOne].playerTwo == msg.sender) {... */\n      jump(tag_142)\n    tag_138:\n        /* \"contracts/RPS.sol\":2921:2953  revert(\"Problem with addresses\") */\n      mload(0x40)\n      0x08c379a000000000000000000000000000000000000000000000000000000000\n      dup2\n      mstore\n      0x04\n      add\n      tag_143\n      swap1\n      tag_144\n      jump\t// in\n    tag_143:\n      mload(0x40)\n      dup1\n      swap2\n      sub\n      swap1\n      revert\n        /* \"contracts/RPS.sol\":2685:2964  if(games[playerOne].playerTwo == msg.sender) {... */\n    tag_142:\n        /* \"contracts/RPS.sol\":2463:2964  if(games[playerOne].playerOne == msg.sender) {... */\n    tag_137:\n        /* \"contracts/RPS.sol\":2213:2970  function revealChoice(uint choice, bytes32 salt, address playerOne) external {        ... */\n      pop\n      pop\n      pop\n      jump\t// out\n        /* \"contracts/RPS.sol\":4223:4369  function getSaltedHash(uint answer, bytes32 salt) internal pure returns (bytes32) {... */\n    tag_133:\n        /* \"contracts/RPS.sol\":4296:4303  bytes32 */\n      0x00\n        /* \"contracts/RPS.sol\":4348:4354  answer */\n      dup3\n        /* \"contracts/RPS.sol\":4356:4360  salt */\n      dup3\n        /* \"contracts/RPS.sol\":4331:4361  abi.encodePacked(answer, salt) */\n      add(0x20, mload(0x40))\n      tag_146\n      swap3\n      swap2\n      swap1\n      tag_147\n      jump\t// in\n    tag_146:\n      mload(0x40)\n      0x20\n      dup2\n      dup4\n      sub\n      sub\n      dup2\n      mstore\n      swap1\n      0x40\n      mstore\n        /* \"contracts/RPS.sol\":4321:4362  keccak256(abi.encodePacked(answer, salt)) */\n      dup1\n      mload\n      swap1\n      0x20\n      add\n      keccak256\n        /* \"contracts/RPS.sol\":4314:4362  return keccak256(abi.encodePacked(answer, salt)) */\n      swap1\n      pop\n        /* \"contracts/RPS.sol\":4223:4369  function getSaltedHash(uint answer, bytes32 salt) internal pure returns (bytes32) {... */\n      swap3\n      swap2\n      pop\n      pop\n      jump\t// out\n        /* \"#utility.yul\":7:146   */\n    tag_149:\n        /* \"#utility.yul\":53:58   */\n      0x00\n        /* \"#utility.yul\":91:97   */\n      dup2\n        /* \"#utility.yul\":78:98   */\n      calldataload\n        /* \"#utility.yul\":69:98   */\n      swap1\n      pop\n        /* \"#utility.yul\":107:140   */\n      tag_151\n        /* \"#utility.yul\":134:139   */\n      dup2\n        /* \"#utility.yul\":107:140   */\n      tag_152\n      jump\t// in\n    tag_151:\n        /* \"#utility.yul\":7:146   */\n      swap3\n      swap2\n      pop\n      pop\n      jump\t// out\n        /* \"#utility.yul\":152:291   */\n    tag_153:\n        /* \"#utility.yul\":198:203   */\n      0x00\n        /* \"#utility.yul\":236:242   */\n      dup2\n        /* \"#utility.yul\":223:243   */\n      calldataload\n        /* \"#utility.yul\":214:243   */\n      swap1\n      pop\n        /* \"#utility.yul\":252:285   */\n      tag_155\n        /* \"#utility.yul\":279:284   */\n      dup2\n        /* \"#utility.yul\":252:285   */\n      tag_156\n      jump\t// in\n    tag_155:\n        /* \"#utility.yul\":152:291   */\n      swap3\n      swap2\n      pop\n      pop\n      jump\t// out\n        /* \"#utility.yul\":297:436   */\n    tag_157:\n        /* \"#utility.yul\":343:348   */\n      0x00\n        /* \"#utility.yul\":381:387   */\n      dup2\n        /* \"#utility.yul\":368:388   */\n      calldataload\n        /* \"#utility.yul\":359:388   */\n      swap1\n      pop\n        /* \"#utility.yul\":397:430   */\n      tag_159\n        /* \"#utility.yul\":424:429   */\n      dup2\n        /* \"#utility.yul\":397:430   */\n      tag_160\n      jump\t// in\n    tag_159:\n        /* \"#utility.yul\":297:436   */\n      swap3\n      swap2\n      pop\n      pop\n      jump\t// out\n        /* \"#utility.yul\":442:771   */\n    tag_15:\n        /* \"#utility.yul\":501:507   */\n      0x00\n        /* \"#utility.yul\":550:552   */\n      0x20\n        /* \"#utility.yul\":538:547   */\n      dup3\n        /* \"#utility.yul\":529:536   */\n      dup5\n        /* \"#utility.yul\":525:548   */\n      sub\n        /* \"#utility.yul\":521:553   */\n      slt\n        /* \"#utility.yul\":518:637   */\n      iszero\n      tag_162\n      jumpi\n        /* \"#utility.yul\":556:635   */\n      tag_163\n      tag_164\n      jump\t// in\n    tag_163:\n        /* \"#utility.yul\":518:637   */\n    tag_162:\n        /* \"#utility.yul\":676:677   */\n      0x00\n        /* \"#utility.yul\":701:754   */\n      tag_165\n        /* \"#utility.yul\":746:753   */\n      dup5\n        /* \"#utility.yul\":737:743   */\n      dup3\n        /* \"#utility.yul\":726:735   */\n      dup6\n        /* \"#utility.yul\":722:744   */\n      add\n        /* \"#utility.yul\":701:754   */\n      tag_149\n      jump\t// in\n    tag_165:\n        /* \"#utility.yul\":691:754   */\n      swap2\n      pop\n        /* \"#utility.yul\":647:764   */\n      pop\n        /* \"#utility.yul\":442:771   */\n      swap3\n      swap2\n      pop\n      pop\n      jump\t// out\n        /* \"#utility.yul\":777:1251   */\n    tag_11:\n        /* \"#utility.yul\":845:851   */\n      0x00\n        /* \"#utility.yul\":853:859   */\n      dup1\n        /* \"#utility.yul\":902:904   */\n      0x40\n        /* \"#utility.yul\":890:899   */\n      dup4\n        /* \"#utility.yul\":881:888   */\n      dup6\n        /* \"#utility.yul\":877:900   */\n      sub\n        /* \"#utility.yul\":873:905   */\n      slt\n        /* \"#utility.yul\":870:989   */\n      iszero\n      tag_167\n      jumpi\n        /* \"#utility.yul\":908:987   */\n      tag_168\n      tag_164\n      jump\t// in\n    tag_168:\n        /* \"#utility.yul\":870:989   */\n    tag_167:\n        /* \"#utility.yul\":1028:1029   */\n      0x00\n        /* \"#utility.yul\":1053:1106   */\n      tag_169\n        /* \"#utility.yul\":1098:1105   */\n      dup6\n        /* \"#utility.yul\":1089:1095   */\n      dup3\n        /* \"#utility.yul\":1078:1087   */\n      dup7\n        /* \"#utility.yul\":1074:1096   */\n      add\n        /* \"#utility.yul\":1053:1106   */\n      tag_153\n      jump\t// in\n    tag_169:\n        /* \"#utility.yul\":1043:1106   */\n      swap3\n      pop\n        /* \"#utility.yul\":999:1116   */\n      pop\n        /* \"#utility.yul\":1155:1157   */\n      0x20\n        /* \"#utility.yul\":1181:1234   */\n      tag_170\n        /* \"#utility.yul\":1226:1233   */\n      dup6\n        /* \"#utility.yul\":1217:1223   */\n      dup3\n        /* \"#utility.yul\":1206:1215   */\n      dup7\n        /* \"#utility.yul\":1202:1224   */\n      add\n        /* \"#utility.yul\":1181:1234   */\n      tag_149\n      jump\t// in\n    tag_170:\n        /* \"#utility.yul\":1171:1234   */\n      swap2\n      pop\n        /* \"#utility.yul\":1126:1244   */\n      pop\n        /* \"#utility.yul\":777:1251   */\n      swap3\n      pop\n      swap3\n      swap1\n      pop\n      jump\t// out\n        /* \"#utility.yul\":1257:1876   */\n    tag_31:\n        /* \"#utility.yul\":1334:1340   */\n      0x00\n        /* \"#utility.yul\":1342:1348   */\n      dup1\n        /* \"#utility.yul\":1350:1356   */\n      0x00\n        /* \"#utility.yul\":1399:1401   */\n      0x60\n        /* \"#utility.yul\":1387:1396   */\n      dup5\n        /* \"#utility.yul\":1378:1385   */\n      dup7\n        /* \"#utility.yul\":1374:1397   */\n      sub\n        /* \"#utility.yul\":1370:1402   */\n      slt\n        /* \"#utility.yul\":1367:1486   */\n      iszero\n      tag_172\n      jumpi\n        /* \"#utility.yul\":1405:1484   */\n      tag_173\n      tag_164\n      jump\t// in\n    tag_173:\n        /* \"#utility.yul\":1367:1486   */\n    tag_172:\n        /* \"#utility.yul\":1525:1526   */\n      0x00\n        /* \"#utility.yul\":1550:1603   */\n      tag_174\n        /* \"#utility.yul\":1595:1602   */\n      dup7\n        /* \"#utility.yul\":1586:1592   */\n      dup3\n        /* \"#utility.yul\":1575:1584   */\n      dup8\n        /* \"#utility.yul\":1571:1593   */\n      add\n        /* \"#utility.yul\":1550:1603   */\n      tag_153\n      jump\t// in\n    tag_174:\n        /* \"#utility.yul\":1540:1603   */\n      swap4\n      pop\n        /* \"#utility.yul\":1496:1613   */\n      pop\n        /* \"#utility.yul\":1652:1654   */\n      0x20\n        /* \"#utility.yul\":1678:1731   */\n      tag_175\n        /* \"#utility.yul\":1723:1730   */\n      dup7\n        /* \"#utility.yul\":1714:1720   */\n      dup3\n        /* \"#utility.yul\":1703:1712   */\n      dup8\n        /* \"#utility.yul\":1699:1721   */\n      add\n        /* \"#utility.yul\":1678:1731   */\n      tag_149\n      jump\t// in\n    tag_175:\n        /* \"#utility.yul\":1668:1731   */\n      swap3\n      pop\n        /* \"#utility.yul\":1623:1741   */\n      pop\n        /* \"#utility.yul\":1780:1782   */\n      0x40\n        /* \"#utility.yul\":1806:1859   */\n      tag_176\n        /* \"#utility.yul\":1851:1858   */\n      dup7\n        /* \"#utility.yul\":1842:1848   */\n      dup3\n        /* \"#utility.yul\":1831:1840   */\n      dup8\n        /* \"#utility.yul\":1827:1849   */\n      add\n        /* \"#utility.yul\":1806:1859   */\n      tag_157\n      jump\t// in\n    tag_176:\n        /* \"#utility.yul\":1796:1859   */\n      swap2\n      pop\n        /* \"#utility.yul\":1751:1869   */\n      pop\n        /* \"#utility.yul\":1257:1876   */\n      swap3\n      pop\n      swap3\n      pop\n      swap3\n      jump\t// out\n        /* \"#utility.yul\":1882:2501   */\n    tag_35:\n        /* \"#utility.yul\":1959:1965   */\n      0x00\n        /* \"#utility.yul\":1967:1973   */\n      dup1\n        /* \"#utility.yul\":1975:1981   */\n      0x00\n        /* \"#utility.yul\":2024:2026   */\n      0x60\n        /* \"#utility.yul\":2012:2021   */\n      dup5\n        /* \"#utility.yul\":2003:2010   */\n      dup7\n        /* \"#utility.yul\":1999:2022   */\n      sub\n        /* \"#utility.yul\":1995:2027   */\n      slt\n        /* \"#utility.yul\":1992:2111   */\n      iszero\n      tag_178\n      jumpi\n        /* \"#utility.yul\":2030:2109   */\n      tag_179\n      tag_164\n      jump\t// in\n    tag_179:\n        /* \"#utility.yul\":1992:2111   */\n    tag_178:\n        /* \"#utility.yul\":2150:2151   */\n      0x00\n        /* \"#utility.yul\":2175:2228   */\n      tag_180\n        /* \"#utility.yul\":2220:2227   */\n      dup7\n        /* \"#utility.yul\":2211:2217   */\n      dup3\n        /* \"#utility.yul\":2200:2209   */\n      dup8\n        /* \"#utility.yul\":2196:2218   */\n      add\n        /* \"#utility.yul\":2175:2228   */\n      tag_157\n      jump\t// in\n    tag_180:\n        /* \"#utility.yul\":2165:2228   */\n      swap4\n      pop\n        /* \"#utility.yul\":2121:2238   */\n      pop\n        /* \"#utility.yul\":2277:2279   */\n      0x20\n        /* \"#utility.yul\":2303:2356   */\n      tag_181\n        /* \"#utility.yul\":2348:2355   */\n      dup7\n        /* \"#utility.yul\":2339:2345   */\n      dup3\n        /* \"#utility.yul\":2328:2337   */\n      dup8\n        /* \"#utility.yul\":2324:2346   */\n      add\n        /* \"#utility.yul\":2303:2356   */\n      tag_153\n      jump\t// in\n    tag_181:\n        /* \"#utility.yul\":2293:2356   */\n      swap3\n      pop\n        /* \"#utility.yul\":2248:2366   */\n      pop\n        /* \"#utility.yul\":2405:2407   */\n      0x40\n        /* \"#utility.yul\":2431:2484   */\n      tag_182\n        /* \"#utility.yul\":2476:2483   */\n      dup7\n        /* \"#utility.yul\":2467:2473   */\n      dup3\n        /* \"#utility.yul\":2456:2465   */\n      dup8\n        /* \"#utility.yul\":2452:2474   */\n      add\n        /* \"#utility.yul\":2431:2484   */\n      tag_149\n      jump\t// in\n    tag_182:\n        /* \"#utility.yul\":2421:2484   */\n      swap2\n      pop\n        /* \"#utility.yul\":2376:2494   */\n      pop\n        /* \"#utility.yul\":1882:2501   */\n      swap3\n      pop\n      swap3\n      pop\n      swap3\n      jump\t// out\n        /* \"#utility.yul\":2507:2625   */\n    tag_183:\n        /* \"#utility.yul\":2594:2618   */\n      tag_185\n        /* \"#utility.yul\":2612:2617   */\n      dup2\n        /* \"#utility.yul\":2594:2618   */\n      tag_186\n      jump\t// in\n    tag_185:\n        /* \"#utility.yul\":2589:2592   */\n      dup3\n        /* \"#utility.yul\":2582:2619   */\n      mstore\n        /* \"#utility.yul\":2507:2625   */\n      pop\n      pop\n      jump\t// out\n        /* \"#utility.yul\":2631:2749   */\n    tag_187:\n        /* \"#utility.yul\":2718:2742   */\n      tag_189\n        /* \"#utility.yul\":2736:2741   */\n      dup2\n        /* \"#utility.yul\":2718:2742   */\n      tag_190\n      jump\t// in\n    tag_189:\n        /* \"#utility.yul\":2713:2716   */\n      dup3\n        /* \"#utility.yul\":2706:2743   */\n      mstore\n        /* \"#utility.yul\":2631:2749   */\n      pop\n      pop\n      jump\t// out\n        /* \"#utility.yul\":2755:2912   */\n    tag_191:\n        /* \"#utility.yul\":2860:2905   */\n      tag_193\n        /* \"#utility.yul\":2880:2904   */\n      tag_194\n        /* \"#utility.yul\":2898:2903   */\n      dup3\n        /* \"#utility.yul\":2880:2904   */\n      tag_190\n      jump\t// in\n    tag_194:\n        /* \"#utility.yul\":2860:2905   */\n      tag_195\n      jump\t// in\n    tag_193:\n        /* \"#utility.yul\":2855:2858   */\n      dup3\n        /* \"#utility.yul\":2848:2906   */\n      mstore\n        /* \"#utility.yul\":2755:2912   */\n      pop\n      pop\n      jump\t// out\n        /* \"#utility.yul\":2918:3073   */\n    tag_196:\n        /* \"#utility.yul\":3017:3066   */\n      tag_198\n        /* \"#utility.yul\":3060:3065   */\n      dup2\n        /* \"#utility.yul\":3017:3066   */\n      tag_199\n      jump\t// in\n    tag_198:\n        /* \"#utility.yul\":3012:3015   */\n      dup3\n        /* \"#utility.yul\":3005:3067   */\n      mstore\n        /* \"#utility.yul\":2918:3073   */\n      pop\n      pop\n      jump\t// out\n        /* \"#utility.yul\":3079:3232   */\n    tag_200:\n        /* \"#utility.yul\":3177:3225   */\n      tag_202\n        /* \"#utility.yul\":3219:3224   */\n      dup2\n        /* \"#utility.yul\":3177:3225   */\n      tag_203\n      jump\t// in\n    tag_202:\n        /* \"#utility.yul\":3172:3175   */\n      dup3\n        /* \"#utility.yul\":3165:3226   */\n      mstore\n        /* \"#utility.yul\":3079:3232   */\n      pop\n      pop\n      jump\t// out\n        /* \"#utility.yul\":3238:3604   */\n    tag_204:\n        /* \"#utility.yul\":3380:3383   */\n      0x00\n        /* \"#utility.yul\":3401:3468   */\n      tag_206\n        /* \"#utility.yul\":3465:3467   */\n      0x14\n        /* \"#utility.yul\":3460:3463   */\n      dup4\n        /* \"#utility.yul\":3401:3468   */\n      tag_207\n      jump\t// in\n    tag_206:\n        /* \"#utility.yul\":3394:3468   */\n      swap2\n      pop\n        /* \"#utility.yul\":3477:3570   */\n      tag_208\n        /* \"#utility.yul\":3566:3569   */\n      dup3\n        /* \"#utility.yul\":3477:3570   */\n      tag_209\n      jump\t// in\n    tag_208:\n        /* \"#utility.yul\":3595:3597   */\n      0x20\n        /* \"#utility.yul\":3590:3593   */\n      dup3\n        /* \"#utility.yul\":3586:3598   */\n      add\n        /* \"#utility.yul\":3579:3598   */\n      swap1\n      pop\n        /* \"#utility.yul\":3238:3604   */\n      swap2\n      swap1\n      pop\n      jump\t// out\n        /* \"#utility.yul\":3610:3976   */\n    tag_210:\n        /* \"#utility.yul\":3752:3755   */\n      0x00\n        /* \"#utility.yul\":3773:3840   */\n      tag_212\n        /* \"#utility.yul\":3837:3839   */\n      0x1a\n        /* \"#utility.yul\":3832:3835   */\n      dup4\n        /* \"#utility.yul\":3773:3840   */\n      tag_207\n      jump\t// in\n    tag_212:\n        /* \"#utility.yul\":3766:3840   */\n      swap2\n      pop\n        /* \"#utility.yul\":3849:3942   */\n      tag_213\n        /* \"#utility.yul\":3938:3941   */\n      dup3\n        /* \"#utility.yul\":3849:3942   */\n      tag_214\n      jump\t// in\n    tag_213:\n        /* \"#utility.yul\":3967:3969   */\n      0x20\n        /* \"#utility.yul\":3962:3965   */\n      dup3\n        /* \"#utility.yul\":3958:3970   */\n      add\n        /* \"#utility.yul\":3951:3970   */\n      swap1\n      pop\n        /* \"#utility.yul\":3610:3976   */\n      swap2\n      swap1\n      pop\n      jump\t// out\n        /* \"#utility.yul\":3982:4348   */\n    tag_215:\n        /* \"#utility.yul\":4124:4127   */\n      0x00\n        /* \"#utility.yul\":4145:4212   */\n      tag_217\n        /* \"#utility.yul\":4209:4211   */\n      0x16\n        /* \"#utility.yul\":4204:4207   */\n      dup4\n        /* \"#utility.yul\":4145:4212   */\n      tag_207\n      jump\t// in\n    tag_217:\n        /* \"#utility.yul\":4138:4212   */\n      swap2\n      pop\n        /* \"#utility.yul\":4221:4314   */\n      tag_218\n        /* \"#utility.yul\":4310:4313   */\n      dup3\n        /* \"#utility.yul\":4221:4314   */\n      tag_219\n      jump\t// in\n    tag_218:\n        /* \"#utility.yul\":4339:4341   */\n      0x20\n        /* \"#utility.yul\":4334:4337   */\n      dup3\n        /* \"#utility.yul\":4330:4342   */\n      add\n        /* \"#utility.yul\":4323:4342   */\n      swap1\n      pop\n        /* \"#utility.yul\":3982:4348   */\n      swap2\n      swap1\n      pop\n      jump\t// out\n        /* \"#utility.yul\":4354:4720   */\n    tag_220:\n        /* \"#utility.yul\":4496:4499   */\n      0x00\n        /* \"#utility.yul\":4517:4584   */\n      tag_222\n        /* \"#utility.yul\":4581:4583   */\n      0x1e\n        /* \"#utility.yul\":4576:4579   */\n      dup4\n        /* \"#utility.yul\":4517:4584   */\n      tag_207\n      jump\t// in\n    tag_222:\n        /* \"#utility.yul\":4510:4584   */\n      swap2\n      pop\n        /* \"#utility.yul\":4593:4686   */\n      tag_223\n        /* \"#utility.yul\":4682:4685   */\n      dup3\n        /* \"#utility.yul\":4593:4686   */\n      tag_224\n      jump\t// in\n    tag_223:\n        /* \"#utility.yul\":4711:4713   */\n      0x20\n        /* \"#utility.yul\":4706:4709   */\n      dup3\n        /* \"#utility.yul\":4702:4714   */\n      add\n        /* \"#utility.yul\":4695:4714   */\n      swap1\n      pop\n        /* \"#utility.yul\":4354:4720   */\n      swap2\n      swap1\n      pop\n      jump\t// out\n        /* \"#utility.yul\":4726:5092   */\n    tag_225:\n        /* \"#utility.yul\":4868:4871   */\n      0x00\n        /* \"#utility.yul\":4889:4956   */\n      tag_227\n        /* \"#utility.yul\":4953:4955   */\n      0x34\n        /* \"#utility.yul\":4948:4951   */\n      dup4\n        /* \"#utility.yul\":4889:4956   */\n      tag_207\n      jump\t// in\n    tag_227:\n        /* \"#utility.yul\":4882:4956   */\n      swap2\n      pop\n        /* \"#utility.yul\":4965:5058   */\n      tag_228\n        /* \"#utility.yul\":5054:5057   */\n      dup3\n        /* \"#utility.yul\":4965:5058   */\n      tag_229\n      jump\t// in\n    tag_228:\n        /* \"#utility.yul\":5083:5085   */\n      0x40\n        /* \"#utility.yul\":5078:5081   */\n      dup3\n        /* \"#utility.yul\":5074:5086   */\n      add\n        /* \"#utility.yul\":5067:5086   */\n      swap1\n      pop\n        /* \"#utility.yul\":4726:5092   */\n      swap2\n      swap1\n      pop\n      jump\t// out\n        /* \"#utility.yul\":5098:5464   */\n    tag_230:\n        /* \"#utility.yul\":5240:5243   */\n      0x00\n        /* \"#utility.yul\":5261:5328   */\n      tag_232\n        /* \"#utility.yul\":5325:5327   */\n      0x3a\n        /* \"#utility.yul\":5320:5323   */\n      dup4\n        /* \"#utility.yul\":5261:5328   */\n      tag_207\n      jump\t// in\n    tag_232:\n        /* \"#utility.yul\":5254:5328   */\n      swap2\n      pop\n        /* \"#utility.yul\":5337:5430   */\n      tag_233\n        /* \"#utility.yul\":5426:5429   */\n      dup3\n        /* \"#utility.yul\":5337:5430   */\n      tag_234\n      jump\t// in\n    tag_233:\n        /* \"#utility.yul\":5455:5457   */\n      0x40\n        /* \"#utility.yul\":5450:5453   */\n      dup3\n        /* \"#utility.yul\":5446:5458   */\n      add\n        /* \"#utility.yul\":5439:5458   */\n      swap1\n      pop\n        /* \"#utility.yul\":5098:5464   */\n      swap2\n      swap1\n      pop\n      jump\t// out\n        /* \"#utility.yul\":5470:5836   */\n    tag_235:\n        /* \"#utility.yul\":5612:5615   */\n      0x00\n        /* \"#utility.yul\":5633:5700   */\n      tag_237\n        /* \"#utility.yul\":5697:5699   */\n      0x45\n        /* \"#utility.yul\":5692:5695   */\n      dup4\n        /* \"#utility.yul\":5633:5700   */\n      tag_207\n      jump\t// in\n    tag_237:\n        /* \"#utility.yul\":5626:5700   */\n      swap2\n      pop\n        /* \"#utility.yul\":5709:5802   */\n      tag_238\n        /* \"#utility.yul\":5798:5801   */\n      dup3\n        /* \"#utility.yul\":5709:5802   */\n      tag_239\n      jump\t// in\n    tag_238:\n        /* \"#utility.yul\":5827:5829   */\n      0x60\n        /* \"#utility.yul\":5822:5825   */\n      dup3\n        /* \"#utility.yul\":5818:5830   */\n      add\n        /* \"#utility.yul\":5811:5830   */\n      swap1\n      pop\n        /* \"#utility.yul\":5470:5836   */\n      swap2\n      swap1\n      pop\n      jump\t// out\n        /* \"#utility.yul\":5842:6208   */\n    tag_240:\n        /* \"#utility.yul\":5984:5987   */\n      0x00\n        /* \"#utility.yul\":6005:6072   */\n      tag_242\n        /* \"#utility.yul\":6069:6071   */\n      0x1c\n        /* \"#utility.yul\":6064:6067   */\n      dup4\n        /* \"#utility.yul\":6005:6072   */\n      tag_207\n      jump\t// in\n    tag_242:\n        /* \"#utility.yul\":5998:6072   */\n      swap2\n      pop\n        /* \"#utility.yul\":6081:6174   */\n      tag_243\n        /* \"#utility.yul\":6170:6173   */\n      dup3\n        /* \"#utility.yul\":6081:6174   */\n      tag_244\n      jump\t// in\n    tag_243:\n        /* \"#utility.yul\":6199:6201   */\n      0x20\n        /* \"#utility.yul\":6194:6197   */\n      dup3\n        /* \"#utility.yul\":6190:6202   */\n      add\n        /* \"#utility.yul\":6183:6202   */\n      swap1\n      pop\n        /* \"#utility.yul\":5842:6208   */\n      swap2\n      swap1\n      pop\n      jump\t// out\n        /* \"#utility.yul\":6214:6580   */\n    tag_245:\n        /* \"#utility.yul\":6356:6359   */\n      0x00\n        /* \"#utility.yul\":6377:6444   */\n      tag_247\n        /* \"#utility.yul\":6441:6443   */\n      0x1b\n        /* \"#utility.yul\":6436:6439   */\n      dup4\n        /* \"#utility.yul\":6377:6444   */\n      tag_207\n      jump\t// in\n    tag_247:\n        /* \"#utility.yul\":6370:6444   */\n      swap2\n      pop\n        /* \"#utility.yul\":6453:6546   */\n      tag_248\n        /* \"#utility.yul\":6542:6545   */\n      dup3\n        /* \"#utility.yul\":6453:6546   */\n      tag_249\n      jump\t// in\n    tag_248:\n        /* \"#utility.yul\":6571:6573   */\n      0x20\n        /* \"#utility.yul\":6566:6569   */\n      dup3\n        /* \"#utility.yul\":6562:6574   */\n      add\n        /* \"#utility.yul\":6555:6574   */\n      swap1\n      pop\n        /* \"#utility.yul\":6214:6580   */\n      swap2\n      swap1\n      pop\n      jump\t// out\n        /* \"#utility.yul\":6586:6952   */\n    tag_250:\n        /* \"#utility.yul\":6728:6731   */\n      0x00\n        /* \"#utility.yul\":6749:6816   */\n      tag_252\n        /* \"#utility.yul\":6813:6815   */\n      0x11\n        /* \"#utility.yul\":6808:6811   */\n      dup4\n        /* \"#utility.yul\":6749:6816   */\n      tag_207\n      jump\t// in\n    tag_252:\n        /* \"#utility.yul\":6742:6816   */\n      swap2\n      pop\n        /* \"#utility.yul\":6825:6918   */\n      tag_253\n        /* \"#utility.yul\":6914:6917   */\n      dup3\n        /* \"#utility.yul\":6825:6918   */\n      tag_254\n      jump\t// in\n    tag_253:\n        /* \"#utility.yul\":6943:6945   */\n      0x20\n        /* \"#utility.yul\":6938:6941   */\n      dup3\n        /* \"#utility.yul\":6934:6946   */\n      add\n        /* \"#utility.yul\":6927:6946   */\n      swap1\n      pop\n        /* \"#utility.yul\":6586:6952   */\n      swap2\n      swap1\n      pop\n      jump\t// out\n        /* \"#utility.yul\":6958:7324   */\n    tag_255:\n        /* \"#utility.yul\":7100:7103   */\n      0x00\n        /* \"#utility.yul\":7121:7188   */\n      tag_257\n        /* \"#utility.yul\":7185:7187   */\n      0x22\n        /* \"#utility.yul\":7180:7183   */\n      dup4\n        /* \"#utility.yul\":7121:7188   */\n      tag_207\n      jump\t// in\n    tag_257:\n        /* \"#utility.yul\":7114:7188   */\n      swap2\n      pop\n        /* \"#utility.yul\":7197:7290   */\n      tag_258\n        /* \"#utility.yul\":7286:7289   */\n      dup3\n        /* \"#utility.yul\":7197:7290   */\n      tag_259\n      jump\t// in\n    tag_258:\n        /* \"#utility.yul\":7315:7317   */\n      0x40\n        /* \"#utility.yul\":7310:7313   */\n      dup3\n        /* \"#utility.yul\":7306:7318   */\n      add\n        /* \"#utility.yul\":7299:7318   */\n      swap1\n      pop\n        /* \"#utility.yul\":6958:7324   */\n      swap2\n      swap1\n      pop\n      jump\t// out\n        /* \"#utility.yul\":7330:7448   */\n    tag_260:\n        /* \"#utility.yul\":7417:7441   */\n      tag_262\n        /* \"#utility.yul\":7435:7440   */\n      dup2\n        /* \"#utility.yul\":7417:7441   */\n      tag_263\n      jump\t// in\n    tag_262:\n        /* \"#utility.yul\":7412:7415   */\n      dup3\n        /* \"#utility.yul\":7405:7442   */\n      mstore\n        /* \"#utility.yul\":7330:7448   */\n      pop\n      pop\n      jump\t// out\n        /* \"#utility.yul\":7454:7611   */\n    tag_264:\n        /* \"#utility.yul\":7559:7604   */\n      tag_266\n        /* \"#utility.yul\":7579:7603   */\n      tag_267\n        /* \"#utility.yul\":7597:7602   */\n      dup3\n        /* \"#utility.yul\":7579:7603   */\n      tag_263\n      jump\t// in\n    tag_267:\n        /* \"#utility.yul\":7559:7604   */\n      tag_268\n      jump\t// in\n    tag_266:\n        /* \"#utility.yul\":7554:7557   */\n      dup3\n        /* \"#utility.yul\":7547:7605   */\n      mstore\n        /* \"#utility.yul\":7454:7611   */\n      pop\n      pop\n      jump\t// out\n        /* \"#utility.yul\":7617:8014   */\n    tag_147:\n        /* \"#utility.yul\":7757:7760   */\n      0x00\n        /* \"#utility.yul\":7772:7847   */\n      tag_270\n        /* \"#utility.yul\":7843:7846   */\n      dup3\n        /* \"#utility.yul\":7834:7840   */\n      dup6\n        /* \"#utility.yul\":7772:7847   */\n      tag_264\n      jump\t// in\n    tag_270:\n        /* \"#utility.yul\":7872:7874   */\n      0x20\n        /* \"#utility.yul\":7867:7870   */\n      dup3\n        /* \"#utility.yul\":7863:7875   */\n      add\n        /* \"#utility.yul\":7856:7875   */\n      swap2\n      pop\n        /* \"#utility.yul\":7885:7960   */\n      tag_271\n        /* \"#utility.yul\":7956:7959   */\n      dup3\n        /* \"#utility.yul\":7947:7953   */\n      dup5\n        /* \"#utility.yul\":7885:7960   */\n      tag_191\n      jump\t// in\n    tag_271:\n        /* \"#utility.yul\":7985:7987   */\n      0x20\n        /* \"#utility.yul\":7980:7983   */\n      dup3\n        /* \"#utility.yul\":7976:7988   */\n      add\n        /* \"#utility.yul\":7969:7988   */\n      swap2\n      pop\n        /* \"#utility.yul\":8005:8008   */\n      dup2\n        /* \"#utility.yul\":7998:8008   */\n      swap1\n      pop\n        /* \"#utility.yul\":7617:8014   */\n      swap4\n      swap3\n      pop\n      pop\n      pop\n      jump\t// out\n        /* \"#utility.yul\":8020:9174   */\n    tag_23:\n        /* \"#utility.yul\":8360:8364   */\n      0x00\n        /* \"#utility.yul\":8398:8401   */\n      0x0120\n        /* \"#utility.yul\":8387:8396   */\n      dup3\n        /* \"#utility.yul\":8383:8402   */\n      add\n        /* \"#utility.yul\":8375:8402   */\n      swap1\n      pop\n        /* \"#utility.yul\":8412:8483   */\n      tag_273\n        /* \"#utility.yul\":8480:8481   */\n      0x00\n        /* \"#utility.yul\":8469:8478   */\n      dup4\n        /* \"#utility.yul\":8465:8482   */\n      add\n        /* \"#utility.yul\":8456:8462   */\n      dup13\n        /* \"#utility.yul\":8412:8483   */\n      tag_183\n      jump\t// in\n    tag_273:\n        /* \"#utility.yul\":8493:8565   */\n      tag_274\n        /* \"#utility.yul\":8561:8563   */\n      0x20\n        /* \"#utility.yul\":8550:8559   */\n      dup4\n        /* \"#utility.yul\":8546:8564   */\n      add\n        /* \"#utility.yul\":8537:8543   */\n      dup12\n        /* \"#utility.yul\":8493:8565   */\n      tag_183\n      jump\t// in\n    tag_274:\n        /* \"#utility.yul\":8575:8647   */\n      tag_275\n        /* \"#utility.yul\":8643:8645   */\n      0x40\n        /* \"#utility.yul\":8632:8641   */\n      dup4\n        /* \"#utility.yul\":8628:8646   */\n      add\n        /* \"#utility.yul\":8619:8625   */\n      dup11\n        /* \"#utility.yul\":8575:8647   */\n      tag_260\n      jump\t// in\n    tag_275:\n        /* \"#utility.yul\":8657:8729   */\n      tag_276\n        /* \"#utility.yul\":8725:8727   */\n      0x60\n        /* \"#utility.yul\":8714:8723   */\n      dup4\n        /* \"#utility.yul\":8710:8728   */\n      add\n        /* \"#utility.yul\":8701:8707   */\n      dup10\n        /* \"#utility.yul\":8657:8729   */\n      tag_260\n      jump\t// in\n    tag_276:\n        /* \"#utility.yul\":8739:8812   */\n      tag_277\n        /* \"#utility.yul\":8807:8810   */\n      0x80\n        /* \"#utility.yul\":8796:8805   */\n      dup4\n        /* \"#utility.yul\":8792:8811   */\n      add\n        /* \"#utility.yul\":8783:8789   */\n      dup9\n        /* \"#utility.yul\":8739:8812   */\n      tag_260\n      jump\t// in\n    tag_277:\n        /* \"#utility.yul\":8822:8895   */\n      tag_278\n        /* \"#utility.yul\":8890:8893   */\n      0xa0\n        /* \"#utility.yul\":8879:8888   */\n      dup4\n        /* \"#utility.yul\":8875:8894   */\n      add\n        /* \"#utility.yul\":8866:8872   */\n      dup8\n        /* \"#utility.yul\":8822:8895   */\n      tag_187\n      jump\t// in\n    tag_278:\n        /* \"#utility.yul\":8905:8978   */\n      tag_279\n        /* \"#utility.yul\":8973:8976   */\n      0xc0\n        /* \"#utility.yul\":8962:8971   */\n      dup4\n        /* \"#utility.yul\":8958:8977   */\n      add\n        /* \"#utility.yul\":8949:8955   */\n      dup7\n        /* \"#utility.yul\":8905:8978   */\n      tag_187\n      jump\t// in\n    tag_279:\n        /* \"#utility.yul\":8988:9072   */\n      tag_280\n        /* \"#utility.yul\":9067:9070   */\n      0xe0\n        /* \"#utility.yul\":9056:9065   */\n      dup4\n        /* \"#utility.yul\":9052:9071   */\n      add\n        /* \"#utility.yul\":9043:9049   */\n      dup6\n        /* \"#utility.yul\":8988:9072   */\n      tag_200\n      jump\t// in\n    tag_280:\n        /* \"#utility.yul\":9082:9167   */\n      tag_281\n        /* \"#utility.yul\":9162:9165   */\n      0x0100\n        /* \"#utility.yul\":9151:9160   */\n      dup4\n        /* \"#utility.yul\":9147:9166   */\n      add\n        /* \"#utility.yul\":9138:9144   */\n      dup5\n        /* \"#utility.yul\":9082:9167   */\n      tag_196\n      jump\t// in\n    tag_281:\n        /* \"#utility.yul\":8020:9174   */\n      swap11\n      swap10\n      pop\n      pop\n      pop\n      pop\n      pop\n      pop\n      pop\n      pop\n      pop\n      pop\n      jump\t// out\n        /* \"#utility.yul\":9180:9426   */\n    tag_18:\n        /* \"#utility.yul\":9285:9289   */\n      0x00\n        /* \"#utility.yul\":9323:9325   */\n      0x20\n        /* \"#utility.yul\":9312:9321   */\n      dup3\n        /* \"#utility.yul\":9308:9326   */\n      add\n        /* \"#utility.yul\":9300:9326   */\n      swap1\n      pop\n        /* \"#utility.yul\":9336:9419   */\n      tag_283\n        /* \"#utility.yul\":9416:9417   */\n      0x00\n        /* \"#utility.yul\":9405:9414   */\n      dup4\n        /* \"#utility.yul\":9401:9418   */\n      add\n        /* \"#utility.yul\":9392:9398   */\n      dup5\n        /* \"#utility.yul\":9336:9419   */\n      tag_196\n      jump\t// in\n    tag_283:\n        /* \"#utility.yul\":9180:9426   */\n      swap3\n      swap2\n      pop\n      pop\n      jump\t// out\n        /* \"#utility.yul\":9432:9851   */\n    tag_102:\n        /* \"#utility.yul\":9598:9602   */\n      0x00\n        /* \"#utility.yul\":9636:9638   */\n      0x20\n        /* \"#utility.yul\":9625:9634   */\n      dup3\n        /* \"#utility.yul\":9621:9639   */\n      add\n        /* \"#utility.yul\":9613:9639   */\n      swap1\n      pop\n        /* \"#utility.yul\":9685:9694   */\n      dup2\n        /* \"#utility.yul\":9679:9683   */\n      dup2\n        /* \"#utility.yul\":9675:9695   */\n      sub\n        /* \"#utility.yul\":9671:9672   */\n      0x00\n        /* \"#utility.yul\":9660:9669   */\n      dup4\n        /* \"#utility.yul\":9656:9673   */\n      add\n        /* \"#utility.yul\":9649:9696   */\n      mstore\n        /* \"#utility.yul\":9713:9844   */\n      tag_285\n        /* \"#utility.yul\":9839:9843   */\n      dup2\n        /* \"#utility.yul\":9713:9844   */\n      tag_204\n      jump\t// in\n    tag_285:\n        /* \"#utility.yul\":9705:9844   */\n      swap1\n      pop\n        /* \"#utility.yul\":9432:9851   */\n      swap2\n      swap1\n      pop\n      jump\t// out\n        /* \"#utility.yul\":9857:10276   */\n    tag_40:\n        /* \"#utility.yul\":10023:10027   */\n      0x00\n        /* \"#utility.yul\":10061:10063   */\n      0x20\n        /* \"#utility.yul\":10050:10059   */\n      dup3\n        /* \"#utility.yul\":10046:10064   */\n      add\n        /* \"#utility.yul\":10038:10064   */\n      swap1\n      pop\n        /* \"#utility.yul\":10110:10119   */\n      dup2\n        /* \"#utility.yul\":10104:10108   */\n      dup2\n        /* \"#utility.yul\":10100:10120   */\n      sub\n        /* \"#utility.yul\":10096:10097   */\n      0x00\n        /* \"#utility.yul\":10085:10094   */\n      dup4\n        /* \"#utility.yul\":10081:10098   */\n      add\n        /* \"#utility.yul\":10074:10121   */\n      mstore\n        /* \"#utility.yul\":10138:10269   */\n      tag_287\n        /* \"#utility.yul\":10264:10268   */\n      dup2\n        /* \"#utility.yul\":10138:10269   */\n      tag_210\n      jump\t// in\n    tag_287:\n        /* \"#utility.yul\":10130:10269   */\n      swap1\n      pop\n        /* \"#utility.yul\":9857:10276   */\n      swap2\n      swap1\n      pop\n      jump\t// out\n        /* \"#utility.yul\":10282:10701   */\n    tag_144:\n        /* \"#utility.yul\":10448:10452   */\n      0x00\n        /* \"#utility.yul\":10486:10488   */\n      0x20\n        /* \"#utility.yul\":10475:10484   */\n      dup3\n        /* \"#utility.yul\":10471:10489   */\n      add\n        /* \"#utility.yul\":10463:10489   */\n      swap1\n      pop\n        /* \"#utility.yul\":10535:10544   */\n      dup2\n        /* \"#utility.yul\":10529:10533   */\n      dup2\n        /* \"#utility.yul\":10525:10545   */\n      sub\n        /* \"#utility.yul\":10521:10522   */\n      0x00\n        /* \"#utility.yul\":10510:10519   */\n      dup4\n        /* \"#utility.yul\":10506:10523   */\n      add\n        /* \"#utility.yul\":10499:10546   */\n      mstore\n        /* \"#utility.yul\":10563:10694   */\n      tag_289\n        /* \"#utility.yul\":10689:10693   */\n      dup2\n        /* \"#utility.yul\":10563:10694   */\n      tag_215\n      jump\t// in\n    tag_289:\n        /* \"#utility.yul\":10555:10694   */\n      swap1\n      pop\n        /* \"#utility.yul\":10282:10701   */\n      swap2\n      swap1\n      pop\n      jump\t// out\n        /* \"#utility.yul\":10707:11126   */\n    tag_47:\n        /* \"#utility.yul\":10873:10877   */\n      0x00\n        /* \"#utility.yul\":10911:10913   */\n      0x20\n        /* \"#utility.yul\":10900:10909   */\n      dup3\n        /* \"#utility.yul\":10896:10914   */\n      add\n        /* \"#utility.yul\":10888:10914   */\n      swap1\n      pop\n        /* \"#utility.yul\":10960:10969   */\n      dup2\n        /* \"#utility.yul\":10954:10958   */\n      dup2\n        /* \"#utility.yul\":10950:10970   */\n      sub\n        /* \"#utility.yul\":10946:10947   */\n      0x00\n        /* \"#utility.yul\":10935:10944   */\n      dup4\n        /* \"#utility.yul\":10931:10948   */\n      add\n        /* \"#utility.yul\":10924:10971   */\n      mstore\n        /* \"#utility.yul\":10988:11119   */\n      tag_291\n        /* \"#utility.yul\":11114:11118   */\n      dup2\n        /* \"#utility.yul\":10988:11119   */\n      tag_220\n      jump\t// in\n    tag_291:\n        /* \"#utility.yul\":10980:11119   */\n      swap1\n      pop\n        /* \"#utility.yul\":10707:11126   */\n      swap2\n      swap1\n      pop\n      jump\t// out\n        /* \"#utility.yul\":11132:11551   */\n    tag_59:\n        /* \"#utility.yul\":11298:11302   */\n      0x00\n        /* \"#utility.yul\":11336:11338   */\n      0x20\n        /* \"#utility.yul\":11325:11334   */\n      dup3\n        /* \"#utility.yul\":11321:11339   */\n      add\n        /* \"#utility.yul\":11313:11339   */\n      swap1\n      pop\n        /* \"#utility.yul\":11385:11394   */\n      dup2\n        /* \"#utility.yul\":11379:11383   */\n      dup2\n        /* \"#utility.yul\":11375:11395   */\n      sub\n        /* \"#utility.yul\":11371:11372   */\n      0x00\n        /* \"#utility.yul\":11360:11369   */\n      dup4\n        /* \"#utility.yul\":11356:11373   */\n      add\n        /* \"#utility.yul\":11349:11396   */\n      mstore\n        /* \"#utility.yul\":11413:11544   */\n      tag_293\n        /* \"#utility.yul\":11539:11543   */\n      dup2\n        /* \"#utility.yul\":11413:11544   */\n      tag_225\n      jump\t// in\n    tag_293:\n        /* \"#utility.yul\":11405:11544   */\n      swap1\n      pop\n        /* \"#utility.yul\":11132:11551   */\n      swap2\n      swap1\n      pop\n      jump\t// out\n        /* \"#utility.yul\":11557:11976   */\n    tag_130:\n        /* \"#utility.yul\":11723:11727   */\n      0x00\n        /* \"#utility.yul\":11761:11763   */\n      0x20\n        /* \"#utility.yul\":11750:11759   */\n      dup3\n        /* \"#utility.yul\":11746:11764   */\n      add\n        /* \"#utility.yul\":11738:11764   */\n      swap1\n      pop\n        /* \"#utility.yul\":11810:11819   */\n      dup2\n        /* \"#utility.yul\":11804:11808   */\n      dup2\n        /* \"#utility.yul\":11800:11820   */\n      sub\n        /* \"#utility.yul\":11796:11797   */\n      0x00\n        /* \"#utility.yul\":11785:11794   */\n      dup4\n        /* \"#utility.yul\":11781:11798   */\n      add\n        /* \"#utility.yul\":11774:11821   */\n      mstore\n        /* \"#utility.yul\":11838:11969   */\n      tag_295\n        /* \"#utility.yul\":11964:11968   */\n      dup2\n        /* \"#utility.yul\":11838:11969   */\n      tag_230\n      jump\t// in\n    tag_295:\n        /* \"#utility.yul\":11830:11969   */\n      swap1\n      pop\n        /* \"#utility.yul\":11557:11976   */\n      swap2\n      swap1\n      pop\n      jump\t// out\n        /* \"#utility.yul\":11982:12401   */\n    tag_68:\n        /* \"#utility.yul\":12148:12152   */\n      0x00\n        /* \"#utility.yul\":12186:12188   */\n      0x20\n        /* \"#utility.yul\":12175:12184   */\n      dup3\n        /* \"#utility.yul\":12171:12189   */\n      add\n        /* \"#utility.yul\":12163:12189   */\n      swap1\n      pop\n        /* \"#utility.yul\":12235:12244   */\n      dup2\n        /* \"#utility.yul\":12229:12233   */\n      dup2\n        /* \"#utility.yul\":12225:12245   */\n      sub\n        /* \"#utility.yul\":12221:12222   */\n      0x00\n        /* \"#utility.yul\":12210:12219   */\n      dup4\n        /* \"#utility.yul\":12206:12223   */\n      add\n        /* \"#utility.yul\":12199:12246   */\n      mstore\n        /* \"#utility.yul\":12263:12394   */\n      tag_297\n        /* \"#utility.yul\":12389:12393   */\n      dup2\n        /* \"#utility.yul\":12263:12394   */\n      tag_235\n      jump\t// in\n    tag_297:\n        /* \"#utility.yul\":12255:12394   */\n      swap1\n      pop\n        /* \"#utility.yul\":11982:12401   */\n      swap2\n      swap1\n      pop\n      jump\t// out\n        /* \"#utility.yul\":12407:12826   */\n    tag_44:\n        /* \"#utility.yul\":12573:12577   */\n      0x00\n        /* \"#utility.yul\":12611:12613   */\n      0x20\n        /* \"#utility.yul\":12600:12609   */\n      dup3\n        /* \"#utility.yul\":12596:12614   */\n      add\n        /* \"#utility.yul\":12588:12614   */\n      swap1\n      pop\n        /* \"#utility.yul\":12660:12669   */\n      dup2\n        /* \"#utility.yul\":12654:12658   */\n      dup2\n        /* \"#utility.yul\":12650:12670   */\n      sub\n        /* \"#utility.yul\":12646:12647   */\n      0x00\n        /* \"#utility.yul\":12635:12644   */\n      dup4\n        /* \"#utility.yul\":12631:12648   */\n      add\n        /* \"#utility.yul\":12624:12671   */\n      mstore\n        /* \"#utility.yul\":12688:12819   */\n      tag_299\n        /* \"#utility.yul\":12814:12818   */\n      dup2\n        /* \"#utility.yul\":12688:12819   */\n      tag_240\n      jump\t// in\n    tag_299:\n        /* \"#utility.yul\":12680:12819   */\n      swap1\n      pop\n        /* \"#utility.yul\":12407:12826   */\n      swap2\n      swap1\n      pop\n      jump\t// out\n        /* \"#utility.yul\":12832:13251   */\n    tag_119:\n        /* \"#utility.yul\":12998:13002   */\n      0x00\n        /* \"#utility.yul\":13036:13038   */\n      0x20\n        /* \"#utility.yul\":13025:13034   */\n      dup3\n        /* \"#utility.yul\":13021:13039   */\n      add\n        /* \"#utility.yul\":13013:13039   */\n      swap1\n      pop\n        /* \"#utility.yul\":13085:13094   */\n      dup2\n        /* \"#utility.yul\":13079:13083   */\n      dup2\n        /* \"#utility.yul\":13075:13095   */\n      sub\n        /* \"#utility.yul\":13071:13072   */\n      0x00\n        /* \"#utility.yul\":13060:13069   */\n      dup4\n        /* \"#utility.yul\":13056:13073   */\n      add\n        /* \"#utility.yul\":13049:13096   */\n      mstore\n        /* \"#utility.yul\":13113:13244   */\n      tag_301\n        /* \"#utility.yul\":13239:13243   */\n      dup2\n        /* \"#utility.yul\":13113:13244   */\n      tag_245\n      jump\t// in\n    tag_301:\n        /* \"#utility.yul\":13105:13244   */\n      swap1\n      pop\n        /* \"#utility.yul\":12832:13251   */\n      swap2\n      swap1\n      pop\n      jump\t// out\n        /* \"#utility.yul\":13257:13676   */\n    tag_136:\n        /* \"#utility.yul\":13423:13427   */\n      0x00\n        /* \"#utility.yul\":13461:13463   */\n      0x20\n        /* \"#utility.yul\":13450:13459   */\n      dup3\n        /* \"#utility.yul\":13446:13464   */\n      add\n        /* \"#utility.yul\":13438:13464   */\n      swap1\n      pop\n        /* \"#utility.yul\":13510:13519   */\n      dup2\n        /* \"#utility.yul\":13504:13508   */\n      dup2\n        /* \"#utility.yul\":13500:13520   */\n      sub\n        /* \"#utility.yul\":13496:13497   */\n      0x00\n        /* \"#utility.yul\":13485:13494   */\n      dup4\n        /* \"#utility.yul\":13481:13498   */\n      add\n        /* \"#utility.yul\":13474:13521   */\n      mstore\n        /* \"#utility.yul\":13538:13669   */\n      tag_303\n        /* \"#utility.yul\":13664:13668   */\n      dup2\n        /* \"#utility.yul\":13538:13669   */\n      tag_250\n      jump\t// in\n    tag_303:\n        /* \"#utility.yul\":13530:13669   */\n      swap1\n      pop\n        /* \"#utility.yul\":13257:13676   */\n      swap2\n      swap1\n      pop\n      jump\t// out\n        /* \"#utility.yul\":13682:14101   */\n    tag_51:\n        /* \"#utility.yul\":13848:13852   */\n      0x00\n        /* \"#utility.yul\":13886:13888   */\n      0x20\n        /* \"#utility.yul\":13875:13884   */\n      dup3\n        /* \"#utility.yul\":13871:13889   */\n      add\n        /* \"#utility.yul\":13863:13889   */\n      swap1\n      pop\n        /* \"#utility.yul\":13935:13944   */\n      dup2\n        /* \"#utility.yul\":13929:13933   */\n      dup2\n        /* \"#utility.yul\":13925:13945   */\n      sub\n        /* \"#utility.yul\":13921:13922   */\n      0x00\n        /* \"#utility.yul\":13910:13919   */\n      dup4\n        /* \"#utility.yul\":13906:13923   */\n      add\n        /* \"#utility.yul\":13899:13946   */\n      mstore\n        /* \"#utility.yul\":13963:14094   */\n      tag_305\n        /* \"#utility.yul\":14089:14093   */\n      dup2\n        /* \"#utility.yul\":13963:14094   */\n      tag_255\n      jump\t// in\n    tag_305:\n        /* \"#utility.yul\":13955:14094   */\n      swap1\n      pop\n        /* \"#utility.yul\":13682:14101   */\n      swap2\n      swap1\n      pop\n      jump\t// out\n        /* \"#utility.yul\":14107:14329   */\n    tag_28:\n        /* \"#utility.yul\":14200:14204   */\n      0x00\n        /* \"#utility.yul\":14238:14240   */\n      0x20\n        /* \"#utility.yul\":14227:14236   */\n      dup3\n        /* \"#utility.yul\":14223:14241   */\n      add\n        /* \"#utility.yul\":14215:14241   */\n      swap1\n      pop\n        /* \"#utility.yul\":14251:14322   */\n      tag_307\n        /* \"#utility.yul\":14319:14320   */\n      0x00\n        /* \"#utility.yul\":14308:14317   */\n      dup4\n        /* \"#utility.yul\":14304:14321   */\n      add\n        /* \"#utility.yul\":14295:14301   */\n      dup5\n        /* \"#utility.yul\":14251:14322   */\n      tag_260\n      jump\t// in\n    tag_307:\n        /* \"#utility.yul\":14107:14329   */\n      swap3\n      swap2\n      pop\n      pop\n      jump\t// out\n        /* \"#utility.yul\":14416:14585   */\n    tag_207:\n        /* \"#utility.yul\":14500:14511   */\n      0x00\n        /* \"#utility.yul\":14534:14540   */\n      dup3\n        /* \"#utility.yul\":14529:14532   */\n      dup3\n        /* \"#utility.yul\":14522:14541   */\n      mstore\n        /* \"#utility.yul\":14574:14578   */\n      0x20\n        /* \"#utility.yul\":14569:14572   */\n      dup3\n        /* \"#utility.yul\":14565:14579   */\n      add\n        /* \"#utility.yul\":14550:14579   */\n      swap1\n      pop\n        /* \"#utility.yul\":14416:14585   */\n      swap3\n      swap2\n      pop\n      pop\n      jump\t// out\n        /* \"#utility.yul\":14591:14896   */\n    tag_70:\n        /* \"#utility.yul\":14631:14634   */\n      0x00\n        /* \"#utility.yul\":14650:14670   */\n      tag_312\n        /* \"#utility.yul\":14668:14669   */\n      dup3\n        /* \"#utility.yul\":14650:14670   */\n      tag_263\n      jump\t// in\n    tag_312:\n        /* \"#utility.yul\":14645:14670   */\n      swap2\n      pop\n        /* \"#utility.yul\":14684:14704   */\n      tag_313\n        /* \"#utility.yul\":14702:14703   */\n      dup4\n        /* \"#utility.yul\":14684:14704   */\n      tag_263\n      jump\t// in\n    tag_313:\n        /* \"#utility.yul\":14679:14704   */\n      swap3\n      pop\n        /* \"#utility.yul\":14838:14839   */\n      dup3\n        /* \"#utility.yul\":14770:14836   */\n      0xffffffffffffffffffffffffffffffffffffffffffffffffffffffffffffffff\n        /* \"#utility.yul\":14766:14840   */\n      sub\n        /* \"#utility.yul\":14763:14764   */\n      dup3\n        /* \"#utility.yul\":14760:14841   */\n      gt\n        /* \"#utility.yul\":14757:14864   */\n      iszero\n      tag_314\n      jumpi\n        /* \"#utility.yul\":14844:14862   */\n      tag_315\n      tag_316\n      jump\t// in\n    tag_315:\n        /* \"#utility.yul\":14757:14864   */\n    tag_314:\n        /* \"#utility.yul\":14888:14889   */\n      dup3\n        /* \"#utility.yul\":14885:14886   */\n      dup3\n        /* \"#utility.yul\":14881:14890   */\n      add\n        /* \"#utility.yul\":14874:14890   */\n      swap1\n      pop\n        /* \"#utility.yul\":14591:14896   */\n      swap3\n      swap2\n      pop\n      pop\n      jump\t// out\n        /* \"#utility.yul\":14902:15250   */\n    tag_90:\n        /* \"#utility.yul\":14942:14949   */\n      0x00\n        /* \"#utility.yul\":14965:14985   */\n      tag_318\n        /* \"#utility.yul\":14983:14984   */\n      dup3\n        /* \"#utility.yul\":14965:14985   */\n      tag_263\n      jump\t// in\n    tag_318:\n        /* \"#utility.yul\":14960:14985   */\n      swap2\n      pop\n        /* \"#utility.yul\":14999:15019   */\n      tag_319\n        /* \"#utility.yul\":15017:15018   */\n      dup4\n        /* \"#utility.yul\":14999:15019   */\n      tag_263\n      jump\t// in\n    tag_319:\n        /* \"#utility.yul\":14994:15019   */\n      swap3\n      pop\n        /* \"#utility.yul\":15187:15188   */\n      dup2\n        /* \"#utility.yul\":15119:15185   */\n      0xffffffffffffffffffffffffffffffffffffffffffffffffffffffffffffffff\n        /* \"#utility.yul\":15115:15189   */\n      div\n        /* \"#utility.yul\":15112:15113   */\n      dup4\n        /* \"#utility.yul\":15109:15190   */\n      gt\n        /* \"#utility.yul\":15104:15105   */\n      dup3\n        /* \"#utility.yul\":15097:15106   */\n      iszero\n        /* \"#utility.yul\":15090:15107   */\n      iszero\n        /* \"#utility.yul\":15086:15191   */\n      and\n        /* \"#utility.yul\":15083:15214   */\n      iszero\n      tag_320\n      jumpi\n        /* \"#utility.yul\":15194:15212   */\n      tag_321\n      tag_316\n      jump\t// in\n    tag_321:\n        /* \"#utility.yul\":15083:15214   */\n    tag_320:\n        /* \"#utility.yul\":15242:15243   */\n      dup3\n        /* \"#utility.yul\":15239:15240   */\n      dup3\n        /* \"#utility.yul\":15235:15244   */\n      mul\n        /* \"#utility.yul\":15224:15244   */\n      swap1\n      pop\n        /* \"#utility.yul\":14902:15250   */\n      swap3\n      swap2\n      pop\n      pop\n      jump\t// out\n        /* \"#utility.yul\":15256:15447   */\n    tag_61:\n        /* \"#utility.yul\":15296:15300   */\n      0x00\n        /* \"#utility.yul\":15316:15336   */\n      tag_323\n        /* \"#utility.yul\":15334:15335   */\n      dup3\n        /* \"#utility.yul\":15316:15336   */\n      tag_263\n      jump\t// in\n    tag_323:\n        /* \"#utility.yul\":15311:15336   */\n      swap2\n      pop\n        /* \"#utility.yul\":15350:15370   */\n      tag_324\n        /* \"#utility.yul\":15368:15369   */\n      dup4\n        /* \"#utility.yul\":15350:15370   */\n      tag_263\n      jump\t// in\n    tag_324:\n        /* \"#utility.yul\":15345:15370   */\n      swap3\n      pop\n        /* \"#utility.yul\":15389:15390   */\n      dup3\n        /* \"#utility.yul\":15386:15387   */\n      dup3\n        /* \"#utility.yul\":15383:15391   */\n      lt\n        /* \"#utility.yul\":15380:15414   */\n      iszero\n      tag_325\n      jumpi\n        /* \"#utility.yul\":15394:15412   */\n      tag_326\n      tag_316\n      jump\t// in\n    tag_326:\n        /* \"#utility.yul\":15380:15414   */\n    tag_325:\n        /* \"#utility.yul\":15439:15440   */\n      dup3\n        /* \"#utility.yul\":15436:15437   */\n      dup3\n        /* \"#utility.yul\":15432:15441   */\n      sub\n        /* \"#utility.yul\":15424:15441   */\n      swap1\n      pop\n        /* \"#utility.yul\":15256:15447   */\n      swap3\n      swap2\n      pop\n      pop\n      jump\t// out\n        /* \"#utility.yul\":15453:15549   */\n    tag_186:\n        /* \"#utility.yul\":15490:15497   */\n      0x00\n        /* \"#utility.yul\":15519:15543   */\n      tag_328\n        /* \"#utility.yul\":15537:15542   */\n      dup3\n        /* \"#utility.yul\":15519:15543   */\n      tag_329\n      jump\t// in\n    tag_328:\n        /* \"#utility.yul\":15508:15543   */\n      swap1\n      pop\n        /* \"#utility.yul\":15453:15549   */\n      swap2\n      swap1\n      pop\n      jump\t// out\n        /* \"#utility.yul\":15555:15632   */\n    tag_190:\n        /* \"#utility.yul\":15592:15599   */\n      0x00\n        /* \"#utility.yul\":15621:15626   */\n      dup2\n        /* \"#utility.yul\":15610:15626   */\n      swap1\n      pop\n        /* \"#utility.yul\":15555:15632   */\n      swap2\n      swap1\n      pop\n      jump\t// out\n        /* \"#utility.yul\":15638:15777   */\n    tag_331:\n        /* \"#utility.yul\":15689:15696   */\n      0x00\n        /* \"#utility.yul\":15718:15723   */\n      dup2\n        /* \"#utility.yul\":15707:15723   */\n      swap1\n      pop\n        /* \"#utility.yul\":15724:15771   */\n      tag_333\n        /* \"#utility.yul\":15765:15770   */\n      dup3\n        /* \"#utility.yul\":15724:15771   */\n      tag_334\n      jump\t// in\n    tag_333:\n        /* \"#utility.yul\":15638:15777   */\n      swap2\n      swap1\n      pop\n      jump\t// out\n        /* \"#utility.yul\":15783:15920   */\n    tag_335:\n        /* \"#utility.yul\":15833:15840   */\n      0x00\n        /* \"#utility.yul\":15862:15867   */\n      dup2\n        /* \"#utility.yul\":15851:15867   */\n      swap1\n      pop\n        /* \"#utility.yul\":15868:15914   */\n      tag_337\n        /* \"#utility.yul\":15908:15913   */\n      dup3\n        /* \"#utility.yul\":15868:15914   */\n      tag_338\n      jump\t// in\n    tag_337:\n        /* \"#utility.yul\":15783:15920   */\n      swap2\n      swap1\n      pop\n      jump\t// out\n        /* \"#utility.yul\":15926:16052   */\n    tag_329:\n        /* \"#utility.yul\":15963:15970   */\n      0x00\n        /* \"#utility.yul\":16003:16045   */\n      0xffffffffffffffffffffffffffffffffffffffff\n        /* \"#utility.yul\":15996:16001   */\n      dup3\n        /* \"#utility.yul\":15992:16046   */\n      and\n        /* \"#utility.yul\":15981:16046   */\n      swap1\n      pop\n        /* \"#utility.yul\":15926:16052   */\n      swap2\n      swap1\n      pop\n      jump\t// out\n        /* \"#utility.yul\":16058:16135   */\n    tag_263:\n        /* \"#utility.yul\":16095:16102   */\n      0x00\n        /* \"#utility.yul\":16124:16129   */\n      dup2\n        /* \"#utility.yul\":16113:16129   */\n      swap1\n      pop\n        /* \"#utility.yul\":16058:16135   */\n      swap2\n      swap1\n      pop\n      jump\t// out\n        /* \"#utility.yul\":16141:16280   */\n    tag_199:\n        /* \"#utility.yul\":16203:16212   */\n      0x00\n        /* \"#utility.yul\":16236:16274   */\n      tag_342\n        /* \"#utility.yul\":16268:16273   */\n      dup3\n        /* \"#utility.yul\":16236:16274   */\n      tag_331\n      jump\t// in\n    tag_342:\n        /* \"#utility.yul\":16223:16274   */\n      swap1\n      pop\n        /* \"#utility.yul\":16141:16280   */\n      swap2\n      swap1\n      pop\n      jump\t// out\n        /* \"#utility.yul\":16286:16423   */\n    tag_203:\n        /* \"#utility.yul\":16347:16356   */\n      0x00\n        /* \"#utility.yul\":16380:16417   */\n      tag_344\n        /* \"#utility.yul\":16411:16416   */\n      dup3\n        /* \"#utility.yul\":16380:16417   */\n      tag_335\n      jump\t// in\n    tag_344:\n        /* \"#utility.yul\":16367:16417   */\n      swap1\n      pop\n        /* \"#utility.yul\":16286:16423   */\n      swap2\n      swap1\n      pop\n      jump\t// out\n        /* \"#utility.yul\":16429:16508   */\n    tag_195:\n        /* \"#utility.yul\":16468:16475   */\n      0x00\n        /* \"#utility.yul\":16497:16502   */\n      dup2\n        /* \"#utility.yul\":16486:16502   */\n      swap1\n      pop\n        /* \"#utility.yul\":16429:16508   */\n      swap2\n      swap1\n      pop\n      jump\t// out\n        /* \"#utility.yul\":16514:16593   */\n    tag_268:\n        /* \"#utility.yul\":16553:16560   */\n      0x00\n        /* \"#utility.yul\":16582:16587   */\n      dup2\n        /* \"#utility.yul\":16571:16587   */\n      swap1\n      pop\n        /* \"#utility.yul\":16514:16593   */\n      swap2\n      swap1\n      pop\n      jump\t// out\n        /* \"#utility.yul\":16599:16775   */\n    tag_73:\n        /* \"#utility.yul\":16631:16632   */\n      0x00\n        /* \"#utility.yul\":16648:16668   */\n      tag_348\n        /* \"#utility.yul\":16666:16667   */\n      dup3\n        /* \"#utility.yul\":16648:16668   */\n      tag_263\n      jump\t// in\n    tag_348:\n        /* \"#utility.yul\":16643:16668   */\n      swap2\n      pop\n        /* \"#utility.yul\":16682:16702   */\n      tag_349\n        /* \"#utility.yul\":16700:16701   */\n      dup4\n        /* \"#utility.yul\":16682:16702   */\n      tag_263\n      jump\t// in\n    tag_349:\n        /* \"#utility.yul\":16677:16702   */\n      swap3\n      pop\n        /* \"#utility.yul\":16721:16722   */\n      dup3\n        /* \"#utility.yul\":16711:16746   */\n      tag_350\n      jumpi\n        /* \"#utility.yul\":16726:16744   */\n      tag_351\n      tag_352\n      jump\t// in\n    tag_351:\n        /* \"#utility.yul\":16711:16746   */\n    tag_350:\n        /* \"#utility.yul\":16767:16768   */\n      dup3\n        /* \"#utility.yul\":16764:16765   */\n      dup3\n        /* \"#utility.yul\":16760:16769   */\n      mod\n        /* \"#utility.yul\":16755:16769   */\n      swap1\n      pop\n        /* \"#utility.yul\":16599:16775   */\n      swap3\n      swap2\n      pop\n      pop\n      jump\t// out\n        /* \"#utility.yul\":16781:16961   */\n    tag_316:\n        /* \"#utility.yul\":16829:16906   */\n      0x4e487b7100000000000000000000000000000000000000000000000000000000\n        /* \"#utility.yul\":16826:16827   */\n      0x00\n        /* \"#utility.yul\":16819:16907   */\n      mstore\n        /* \"#utility.yul\":16926:16930   */\n      0x11\n        /* \"#utility.yul\":16923:16924   */\n      0x04\n        /* \"#utility.yul\":16916:16931   */\n      mstore\n        /* \"#utility.yul\":16950:16954   */\n      0x24\n        /* \"#utility.yul\":16947:16948   */\n      0x00\n        /* \"#utility.yul\":16940:16955   */\n      revert\n        /* \"#utility.yul\":16967:17147   */\n    tag_352:\n        /* \"#utility.yul\":17015:17092   */\n      0x4e487b7100000000000000000000000000000000000000000000000000000000\n        /* \"#utility.yul\":17012:17013   */\n      0x00\n        /* \"#utility.yul\":17005:17093   */\n      mstore\n        /* \"#utility.yul\":17112:17116   */\n      0x12\n        /* \"#utility.yul\":17109:17110   */\n      0x04\n        /* \"#utility.yul\":17102:17117   */\n      mstore\n        /* \"#utility.yul\":17136:17140   */\n      0x24\n        /* \"#utility.yul\":17133:17134   */\n      0x00\n        /* \"#utility.yul\":17126:17141   */\n      revert\n        /* \"#utility.yul\":17153:17333   */\n    tag_54:\n        /* \"#utility.yul\":17201:17278   */\n      0x4e487b7100000000000000000000000000000000000000000000000000000000\n        /* \"#utility.yul\":17198:17199   */\n      0x00\n        /* \"#utility.yul\":17191:17279   */\n      mstore\n        /* \"#utility.yul\":17298:17302   */\n      0x21\n        /* \"#utility.yul\":17295:17296   */\n      0x04\n        /* \"#utility.yul\":17288:17303   */\n      mstore\n        /* \"#utility.yul\":17322:17326   */\n      0x24\n        /* \"#utility.yul\":17319:17320   */\n      0x00\n        /* \"#utility.yul\":17312:17327   */\n      revert\n        /* \"#utility.yul\":17462:17579   */\n    tag_164:\n        /* \"#utility.yul\":17571:17572   */\n      0x00\n        /* \"#utility.yul\":17568:17569   */\n      dup1\n        /* \"#utility.yul\":17561:17573   */\n      revert\n        /* \"#utility.yul\":17585:17755   */\n    tag_209:\n        /* \"#utility.yul\":17725:17747   */\n      0x496e76616c69642047616d65204f7574636f6d65000000000000000000000000\n        /* \"#utility.yul\":17721:17722   */\n      0x00\n        /* \"#utility.yul\":17713:17719   */\n      dup3\n        /* \"#utility.yul\":17709:17723   */\n      add\n        /* \"#utility.yul\":17702:17748   */\n      mstore\n        /* \"#utility.yul\":17585:17755   */\n      pop\n      jump\t// out\n        /* \"#utility.yul\":17761:17937   */\n    tag_214:\n        /* \"#utility.yul\":17901:17929   */\n      0x67616d65206861736820776173206e6f742070726f7669646564000000000000\n        /* \"#utility.yul\":17897:17898   */\n      0x00\n        /* \"#utility.yul\":17889:17895   */\n      dup3\n        /* \"#utility.yul\":17885:17899   */\n      add\n        /* \"#utility.yul\":17878:17930   */\n      mstore\n        /* \"#utility.yul\":17761:17937   */\n      pop\n      jump\t// out\n        /* \"#utility.yul\":17943:18115   */\n    tag_219:\n        /* \"#utility.yul\":18083:18107   */\n      0x50726f626c656d20776974682061646472657373657300000000000000000000\n        /* \"#utility.yul\":18079:18080   */\n      0x00\n        /* \"#utility.yul\":18071:18077   */\n      dup3\n        /* \"#utility.yul\":18067:18081   */\n      add\n        /* \"#utility.yul\":18060:18108   */\n      mstore\n        /* \"#utility.yul\":17943:18115   */\n      pop\n      jump\t// out\n        /* \"#utility.yul\":18121:18301   */\n    tag_224:\n        /* \"#utility.yul\":18261:18293   */\n      0x506c61796572732066756e64732061726520696e73756666696369656e740000\n        /* \"#utility.yul\":18257:18258   */\n      0x00\n        /* \"#utility.yul\":18249:18255   */\n      dup3\n        /* \"#utility.yul\":18245:18259   */\n      add\n        /* \"#utility.yul\":18238:18294   */\n      mstore\n        /* \"#utility.yul\":18121:18301   */\n      pop\n      jump\t// out\n        /* \"#utility.yul\":18307:18546   */\n    tag_229:\n        /* \"#utility.yul\":18447:18481   */\n      0x47616d65206e6f742073746172746564206f722068617320616c726561647920\n        /* \"#utility.yul\":18443:18444   */\n      0x00\n        /* \"#utility.yul\":18435:18441   */\n      dup3\n        /* \"#utility.yul\":18431:18445   */\n      add\n        /* \"#utility.yul\":18424:18482   */\n      mstore\n        /* \"#utility.yul\":18516:18538   */\n      0x6265656e2070617274696369706174656420696e000000000000000000000000\n        /* \"#utility.yul\":18511:18513   */\n      0x20\n        /* \"#utility.yul\":18503:18509   */\n      dup3\n        /* \"#utility.yul\":18499:18514   */\n      add\n        /* \"#utility.yul\":18492:18539   */\n      mstore\n        /* \"#utility.yul\":18307:18546   */\n      pop\n      jump\t// out\n        /* \"#utility.yul\":18552:18797   */\n    tag_234:\n        /* \"#utility.yul\":18692:18726   */\n      0x47616d6520646f6573206e6f74206578697374206f7220706c61796572205477\n        /* \"#utility.yul\":18688:18689   */\n      0x00\n        /* \"#utility.yul\":18680:18686   */\n      dup3\n        /* \"#utility.yul\":18676:18690   */\n      add\n        /* \"#utility.yul\":18669:18727   */\n      mstore\n        /* \"#utility.yul\":18761:18789   */\n      0x6f20686173206e6f7420706c6163656420612062657420796574000000000000\n        /* \"#utility.yul\":18756:18758   */\n      0x20\n        /* \"#utility.yul\":18748:18754   */\n      dup3\n        /* \"#utility.yul\":18744:18759   */\n      add\n        /* \"#utility.yul\":18737:18790   */\n      mstore\n        /* \"#utility.yul\":18552:18797   */\n      pop\n      jump\t// out\n        /* \"#utility.yul\":18803:19096   */\n    tag_239:\n        /* \"#utility.yul\":18943:18977   */\n      0x426f746820706c6179657273206e65656420746f2072657665616c2074686569\n        /* \"#utility.yul\":18939:18940   */\n      0x00\n        /* \"#utility.yul\":18931:18937   */\n      dup3\n        /* \"#utility.yul\":18927:18941   */\n      add\n        /* \"#utility.yul\":18920:18978   */\n      mstore\n        /* \"#utility.yul\":19012:19046   */\n      0x722063686f696365206265666f72652067616d652063616e20626520636f6d70\n        /* \"#utility.yul\":19007:19009   */\n      0x20\n        /* \"#utility.yul\":18999:19005   */\n      dup3\n        /* \"#utility.yul\":18995:19010   */\n      add\n        /* \"#utility.yul\":18988:19047   */\n      mstore\n        /* \"#utility.yul\":19081:19088   */\n      0x6c65746564000000000000000000000000000000000000000000000000000000\n        /* \"#utility.yul\":19076:19078   */\n      0x40\n        /* \"#utility.yul\":19068:19074   */\n      dup3\n        /* \"#utility.yul\":19064:19079   */\n      add\n        /* \"#utility.yul\":19057:19089   */\n      mstore\n        /* \"#utility.yul\":18803:19096   */\n      pop\n      jump\t// out\n        /* \"#utility.yul\":19102:19280   */\n    tag_244:\n        /* \"#utility.yul\":19242:19272   */\n      0x50726f626c656d2077697468206f7468657220706c617965722e2e2e00000000\n        /* \"#utility.yul\":19238:19239   */\n      0x00\n        /* \"#utility.yul\":19230:19236   */\n      dup3\n        /* \"#utility.yul\":19226:19240   */\n      add\n        /* \"#utility.yul\":19219:19273   */\n      mstore\n        /* \"#utility.yul\":19102:19280   */\n      pop\n      jump\t// out\n        /* \"#utility.yul\":19286:19463   */\n    tag_249:\n        /* \"#utility.yul\":19426:19455   */\n      0x50726f626c656d20776974682067616d65207374617475732e2e2e0000000000\n        /* \"#utility.yul\":19422:19423   */\n      0x00\n        /* \"#utility.yul\":19414:19420   */\n      dup3\n        /* \"#utility.yul\":19410:19424   */\n      add\n        /* \"#utility.yul\":19403:19456   */\n      mstore\n        /* \"#utility.yul\":19286:19463   */\n      pop\n      jump\t// out\n        /* \"#utility.yul\":19469:19636   */\n    tag_254:\n        /* \"#utility.yul\":19609:19628   */\n      0x70726f626c656d20776974682073616c74000000000000000000000000000000\n        /* \"#utility.yul\":19605:19606   */\n      0x00\n        /* \"#utility.yul\":19597:19603   */\n      dup3\n        /* \"#utility.yul\":19593:19607   */\n      add\n        /* \"#utility.yul\":19586:19629   */\n      mstore\n        /* \"#utility.yul\":19469:19636   */\n      pop\n      jump\t// out\n        /* \"#utility.yul\":19642:19863   */\n    tag_259:\n        /* \"#utility.yul\":19782:19816   */\n      0x596f7520617265206e6f7420506c61796572203220666f722074686973206761\n        /* \"#utility.yul\":19778:19779   */\n      0x00\n        /* \"#utility.yul\":19770:19776   */\n      dup3\n        /* \"#utility.yul\":19766:19780   */\n      add\n        /* \"#utility.yul\":19759:19817   */\n      mstore\n        /* \"#utility.yul\":19851:19855   */\n      0x6d65000000000000000000000000000000000000000000000000000000000000\n        /* \"#utility.yul\":19846:19848   */\n      0x20\n        /* \"#utility.yul\":19838:19844   */\n      dup3\n        /* \"#utility.yul\":19834:19849   */\n      add\n        /* \"#utility.yul\":19827:19856   */\n      mstore\n        /* \"#utility.yul\":19642:19863   */\n      pop\n      jump\t// out\n        /* \"#utility.yul\":19869:19988   */\n    tag_334:\n        /* \"#utility.yul\":19956:19957   */\n      0x03\n        /* \"#utility.yul\":19949:19954   */\n      dup2\n        /* \"#utility.yul\":19946:19958   */\n      lt\n        /* \"#utility.yul\":19936:19982   */\n      tag_371\n      jumpi\n        /* \"#utility.yul\":19962:19980   */\n      tag_372\n      tag_54\n      jump\t// in\n    tag_372:\n        /* \"#utility.yul\":19936:19982   */\n    tag_371:\n        /* \"#utility.yul\":19869:19988   */\n      pop\n      jump\t// out\n        /* \"#utility.yul\":19994:20112   */\n    tag_338:\n        /* \"#utility.yul\":20080:20081   */\n      0x04\n        /* \"#utility.yul\":20073:20078   */\n      dup2\n        /* \"#utility.yul\":20070:20082   */\n      lt\n        /* \"#utility.yul\":20060:20106   */\n      tag_374\n      jumpi\n        /* \"#utility.yul\":20086:20104   */\n      tag_375\n      tag_54\n      jump\t// in\n    tag_375:\n        /* \"#utility.yul\":20060:20106   */\n    tag_374:\n        /* \"#utility.yul\":19994:20112   */\n      pop\n      jump\t// out\n        /* \"#utility.yul\":20118:20240   */\n    tag_152:\n        /* \"#utility.yul\":20191:20215   */\n      tag_377\n        /* \"#utility.yul\":20209:20214   */\n      dup2\n        /* \"#utility.yul\":20191:20215   */\n      tag_186\n      jump\t// in\n    tag_377:\n        /* \"#utility.yul\":20184:20189   */\n      dup2\n        /* \"#utility.yul\":20181:20216   */\n      eq\n        /* \"#utility.yul\":20171:20234   */\n      tag_378\n      jumpi\n        /* \"#utility.yul\":20230:20231   */\n      0x00\n        /* \"#utility.yul\":20227:20228   */\n      dup1\n        /* \"#utility.yul\":20220:20232   */\n      revert\n        /* \"#utility.yul\":20171:20234   */\n    tag_378:\n        /* \"#utility.yul\":20118:20240   */\n      pop\n      jump\t// out\n        /* \"#utility.yul\":20246:20368   */\n    tag_156:\n        /* \"#utility.yul\":20319:20343   */\n      tag_380\n        /* \"#utility.yul\":20337:20342   */\n      dup2\n        /* \"#utility.yul\":20319:20343   */\n      tag_190\n      jump\t// in\n    tag_380:\n        /* \"#utility.yul\":20312:20317   */\n      dup2\n        /* \"#utility.yul\":20309:20344   */\n      eq\n        /* \"#utility.yul\":20299:20362   */\n      tag_381\n      jumpi\n        /* \"#utility.yul\":20358:20359   */\n      0x00\n        /* \"#utility.yul\":20355:20356   */\n      dup1\n        /* \"#utility.yul\":20348:20360   */\n      revert\n        /* \"#utility.yul\":20299:20362   */\n    tag_381:\n        /* \"#utility.yul\":20246:20368   */\n      pop\n      jump\t// out\n        /* \"#utility.yul\":20374:20496   */\n    tag_160:\n        /* \"#utility.yul\":20447:20471   */\n      tag_383\n        /* \"#utility.yul\":20465:20470   */\n      dup2\n        /* \"#utility.yul\":20447:20471   */\n      tag_263\n      jump\t// in\n    tag_383:\n        /* \"#utility.yul\":20440:20445   */\n      dup2\n        /* \"#utility.yul\":20437:20472   */\n      eq\n        /* \"#utility.yul\":20427:20490   */\n      tag_384\n      jumpi\n        /* \"#utility.yul\":20486:20487   */\n      0x00\n        /* \"#utility.yul\":20483:20484   */\n      dup1\n        /* \"#utility.yul\":20476:20488   */\n      revert\n        /* \"#utility.yul\":20427:20490   */\n    tag_384:\n        /* \"#utility.yul\":20374:20496   */\n      pop\n      jump\t// out\n\n    auxdata: 0xa264697066735822122011328c5bee4f143ca46a362ffc3e54f19697baaaeed0ca1aa2356986495d6c8764736f6c63430008070033\n}\n",
				"bytecode": {
					"linkReferences": {},
					"object": "608060405234801561001057600080fd5b50612047806100206000396000f3fe608060405234801561001057600080fd5b50600436106100625760003560e01c806301cf26e3146100675780632a035b6c1461008357806379131a19146100b35780637b38314c146100eb5780639f799d9c1461011b578063c0dcf64814610137575b600080fd5b610081600480360381019061007c9190611598565b610153565b005b61009d6004803603810190610098919061156b565b610615565b6040516100aa9190611931565b60405180910390f35b6100cd60048036038101906100c8919061156b565b610bb9565b6040516100e2999897969594939291906118a4565b60405180910390f35b6101056004803603810190610100919061156b565b610c61565b6040516101129190611aac565b60405180910390f35b610135600480360381019061013091906115d8565b610c79565b005b610151600480360381019061014c919061162b565b61112b565b005b81816000808473ffffffffffffffffffffffffffffffffffffffff1673ffffffffffffffffffffffffffffffffffffffff1681526020019081526020016000206002015460008314156101db576040517f08c379a00000000000000000000000000000000000000000000000000000000081526004016101d29061196c565b60405180910390fd5b600073ffffffffffffffffffffffffffffffffffffffff168273ffffffffffffffffffffffffffffffffffffffff161415801561024457503373ffffffffffffffffffffffffffffffffffffffff168273ffffffffffffffffffffffffffffffffffffffff1614155b610283576040517f08c379a000000000000000000000000000000000000000000000000000000000815260040161027a90611a2c565b60405180910390fd5b600160003373ffffffffffffffffffffffffffffffffffffffff1673ffffffffffffffffffffffffffffffffffffffff16815260200190815260200160002054811115610305576040517f08c379a00000000000000000000000000000000000000000000000000000000081526004016102fc906119ac565b60405180910390fd5b3373ffffffffffffffffffffffffffffffffffffffff166000808673ffffffffffffffffffffffffffffffffffffffff1673ffffffffffffffffffffffffffffffffffffffff16815260200190815260200160002060010160009054906101000a900473ffffffffffffffffffffffffffffffffffffffff1673ffffffffffffffffffffffffffffffffffffffff16146103d4576040517f08c379a00000000000000000000000000000000000000000000000000000000081526004016103cb90611a8c565b60405180910390fd5b600160038111156103e8576103e7611cef565b5b6000808673ffffffffffffffffffffffffffffffffffffffff1673ffffffffffffffffffffffffffffffffffffffff16815260200190815260200160002060070160009054906101000a900460ff16600381111561044957610448611cef565b5b14610489576040517f08c379a0000000000000000000000000000000000000000000000000000000008152600401610480906119cc565b60405180910390fd5b60008060008673ffffffffffffffffffffffffffffffffffffffff1673ffffffffffffffffffffffffffffffffffffffff16815260200190815260200160002060020154905080600160003373ffffffffffffffffffffffffffffffffffffffff1673ffffffffffffffffffffffffffffffffffffffff1681526020019081526020016000205461051a9190611b88565b600160003373ffffffffffffffffffffffffffffffffffffffff1673ffffffffffffffffffffffffffffffffffffffff16815260200190815260200160002081905550856000808773ffffffffffffffffffffffffffffffffffffffff1673ffffffffffffffffffffffffffffffffffffffff1681526020019081526020016000206006018190555060026000808773ffffffffffffffffffffffffffffffffffffffff1673ffffffffffffffffffffffffffffffffffffffff16815260200190815260200160002060070160006101000a81548160ff0219169083600381111561060857610607611cef565b5b0217905550505050505050565b6000806000808473ffffffffffffffffffffffffffffffffffffffff1673ffffffffffffffffffffffffffffffffffffffff168152602001908152602001600020600301541180156106a8575060008060008473ffffffffffffffffffffffffffffffffffffffff1673ffffffffffffffffffffffffffffffffffffffff16815260200190815260200160002060040154115b6106e7576040517f08c379a00000000000000000000000000000000000000000000000000000000081526004016106de90611a0c565b60405180910390fd5b60008060008473ffffffffffffffffffffffffffffffffffffffff1673ffffffffffffffffffffffffffffffffffffffff16815260200190815260200160002060010160009054906101000a900473ffffffffffffffffffffffffffffffffffffffff16905060008060008573ffffffffffffffffffffffffffffffffffffffff1673ffffffffffffffffffffffffffffffffffffffff16815260200190815260200160002060030154905060008060008673ffffffffffffffffffffffffffffffffffffffff1673ffffffffffffffffffffffffffffffffffffffff16815260200190815260200160002060040154905060008060008773ffffffffffffffffffffffffffffffffffffffff1673ffffffffffffffffffffffffffffffffffffffff16815260200190815260200160002060020154905060038284600361082f9190611ad8565b6108399190611b88565b6108439190611c60565b600281111561085557610854611cef565b5b94506000600281111561086b5761086a611cef565b5b85600281111561087e5761087d611cef565b5b14156109a55780600160008873ffffffffffffffffffffffffffffffffffffffff1673ffffffffffffffffffffffffffffffffffffffff168152602001908152602001600020546108cf9190611ad8565b600160008873ffffffffffffffffffffffffffffffffffffffff1673ffffffffffffffffffffffffffffffffffffffff1681526020019081526020016000208190555080600160008673ffffffffffffffffffffffffffffffffffffffff1673ffffffffffffffffffffffffffffffffffffffff1681526020019081526020016000205461095d9190611ad8565b600160008673ffffffffffffffffffffffffffffffffffffffff1673ffffffffffffffffffffffffffffffffffffffff16815260200190815260200160002081905550610b79565b600160028111156109b9576109b8611cef565b5b8560028111156109cc576109cb611cef565b5b1415610a71576002816109df9190611b2e565b600160008873ffffffffffffffffffffffffffffffffffffffff1673ffffffffffffffffffffffffffffffffffffffff16815260200190815260200160002054610a299190611ad8565b600160008873ffffffffffffffffffffffffffffffffffffffff1673ffffffffffffffffffffffffffffffffffffffff16815260200190815260200160002081905550610b78565b600280811115610a8457610a83611cef565b5b856002811115610a9757610a96611cef565b5b1415610b3c57600281610aaa9190611b2e565b600160008673ffffffffffffffffffffffffffffffffffffffff1673ffffffffffffffffffffffffffffffffffffffff16815260200190815260200160002054610af49190611ad8565b600160008673ffffffffffffffffffffffffffffffffffffffff1673ffffffffffffffffffffffffffffffffffffffff16815260200190815260200160002081905550610b77565b6040517f08c379a0000000000000000000000000000000000000000000000000000000008152600401610b6e9061194c565b60405180910390fd5b5b5b7f6d1a16000380c9adde391bcb46a92c2ce8c46811cff002ed5dec38dfdc2373cd85604051610ba89190611931565b60405180910390a150505050919050565b60006020528060005260406000206000915090508060000160009054906101000a900473ffffffffffffffffffffffffffffffffffffffff16908060010160009054906101000a900473ffffffffffffffffffffffffffffffffffffffff16908060020154908060030154908060040154908060050154908060060154908060070160009054906101000a900460ff16908060070160019054906101000a900460ff16905089565b60016020528060005260406000206000915090505481565b8282826000831415610cc0576040517f08c379a0000000000000000000000000000000000000000000000000000000008152600401610cb79061196c565b60405180910390fd5b600073ffffffffffffffffffffffffffffffffffffffff168273ffffffffffffffffffffffffffffffffffffffff1614158015610d2957503373ffffffffffffffffffffffffffffffffffffffff168273ffffffffffffffffffffffffffffffffffffffff1614155b610d68576040517f08c379a0000000000000000000000000000000000000000000000000000000008152600401610d5f90611a2c565b60405180910390fd5b600160003373ffffffffffffffffffffffffffffffffffffffff1673ffffffffffffffffffffffffffffffffffffffff16815260200190815260200160002054811115610dea576040517f08c379a0000000000000000000000000000000000000000000000000000000008152600401610de1906119ac565b60405180910390fd5b60006003811115610dfe57610dfd611cef565b5b6000803373ffffffffffffffffffffffffffffffffffffffff1673ffffffffffffffffffffffffffffffffffffffff16815260200190815260200160002060070160009054906101000a900460ff166003811115610e5f57610e5e611cef565b5b14610e9f576040517f08c379a0000000000000000000000000000000000000000000000000000000008152600401610e9690611a4c565b60405180910390fd5b83600160003373ffffffffffffffffffffffffffffffffffffffff1673ffffffffffffffffffffffffffffffffffffffff16815260200190815260200160002054610eea9190611b88565b600160003373ffffffffffffffffffffffffffffffffffffffff1673ffffffffffffffffffffffffffffffffffffffff16815260200190815260200160002081905550856000803373ffffffffffffffffffffffffffffffffffffffff1673ffffffffffffffffffffffffffffffffffffffff16815260200190815260200160002060050181905550336000803373ffffffffffffffffffffffffffffffffffffffff1673ffffffffffffffffffffffffffffffffffffffff16815260200190815260200160002060000160006101000a81548173ffffffffffffffffffffffffffffffffffffffff021916908373ffffffffffffffffffffffffffffffffffffffff160217905550846000803373ffffffffffffffffffffffffffffffffffffffff1673ffffffffffffffffffffffffffffffffffffffff16815260200190815260200160002060010160006101000a81548173ffffffffffffffffffffffffffffffffffffffff021916908373ffffffffffffffffffffffffffffffffffffffff160217905550836000803373ffffffffffffffffffffffffffffffffffffffff1673ffffffffffffffffffffffffffffffffffffffff1681526020019081526020016000206002018190555060016000803373ffffffffffffffffffffffffffffffffffffffff1673ffffffffffffffffffffffffffffffffffffffff16815260200190815260200160002060070160006101000a81548160ff0219169083600381111561111e5761111d611cef565b5b0217905550505050505050565b6002600381111561113f5761113e611cef565b5b6000808373ffffffffffffffffffffffffffffffffffffffff1673ffffffffffffffffffffffffffffffffffffffff16815260200190815260200160002060070160009054906101000a900460ff1660038111156111a05761119f611cef565b5b146111e0576040517f08c379a00000000000000000000000000000000000000000000000000000000081526004016111d7906119ec565b60405180910390fd5b3373ffffffffffffffffffffffffffffffffffffffff166000808373ffffffffffffffffffffffffffffffffffffffff1673ffffffffffffffffffffffffffffffffffffffff16815260200190815260200160002060000160009054906101000a900473ffffffffffffffffffffffffffffffffffffffff1673ffffffffffffffffffffffffffffffffffffffff16141561134c5761127f83836114f9565b6000808373ffffffffffffffffffffffffffffffffffffffff1673ffffffffffffffffffffffffffffffffffffffff1681526020019081526020016000206005015414611301576040517f08c379a00000000000000000000000000000000000000000000000000000000081526004016112f890611a6c565b60405180910390fd5b826000808373ffffffffffffffffffffffffffffffffffffffff1673ffffffffffffffffffffffffffffffffffffffff168152602001908152602001600020600301819055506114f4565b3373ffffffffffffffffffffffffffffffffffffffff166000808373ffffffffffffffffffffffffffffffffffffffff1673ffffffffffffffffffffffffffffffffffffffff16815260200190815260200160002060010160009054906101000a900473ffffffffffffffffffffffffffffffffffffffff1673ffffffffffffffffffffffffffffffffffffffff1614156114b8576113eb83836114f9565b6000808373ffffffffffffffffffffffffffffffffffffffff1673ffffffffffffffffffffffffffffffffffffffff168152602001908152602001600020600601541461146d576040517f08c379a000000000000000000000000000000000000000000000000000000000815260040161146490611a6c565b60405180910390fd5b826000808373ffffffffffffffffffffffffffffffffffffffff1673ffffffffffffffffffffffffffffffffffffffff168152602001908152602001600020600401819055506114f3565b6040517f08c379a00000000000000000000000000000000000000000000000000000000081526004016114ea9061198c565b60405180910390fd5b5b505050565b6000828260405160200161150e929190611878565b60405160208183030381529060405280519060200120905092915050565b60008135905061153b81611fcc565b92915050565b60008135905061155081611fe3565b92915050565b60008135905061156581611ffa565b92915050565b60006020828403121561158157611580611d1e565b5b600061158f8482850161152c565b91505092915050565b600080604083850312156115af576115ae611d1e565b5b60006115bd85828601611541565b92505060206115ce8582860161152c565b9150509250929050565b6000806000606084860312156115f1576115f0611d1e565b5b60006115ff86828701611541565b93505060206116108682870161152c565b925050604061162186828701611556565b9150509250925092565b60008060006060848603121561164457611643611d1e565b5b600061165286828701611556565b935050602061166386828701611541565b92505060406116748682870161152c565b9150509250925092565b61168781611bbc565b82525050565b61169681611bce565b82525050565b6116ad6116a882611bce565b611c4c565b82525050565b6116bc81611c28565b82525050565b6116cb81611c3a565b82525050565b60006116de601483611ac7565b91506116e982611d23565b602082019050919050565b6000611701601a83611ac7565b915061170c82611d4c565b602082019050919050565b6000611724601683611ac7565b915061172f82611d75565b602082019050919050565b6000611747601e83611ac7565b915061175282611d9e565b602082019050919050565b600061176a603483611ac7565b915061177582611dc7565b604082019050919050565b600061178d603a83611ac7565b915061179882611e16565b604082019050919050565b60006117b0604583611ac7565b91506117bb82611e65565b606082019050919050565b60006117d3601c83611ac7565b91506117de82611eda565b602082019050919050565b60006117f6601b83611ac7565b915061180182611f03565b602082019050919050565b6000611819601183611ac7565b915061182482611f2c565b602082019050919050565b600061183c602283611ac7565b915061184782611f55565b604082019050919050565b61185b81611c1e565b82525050565b61187261186d82611c1e565b611c56565b82525050565b60006118848285611861565b602082019150611894828461169c565b6020820191508190509392505050565b6000610120820190506118ba600083018c61167e565b6118c7602083018b61167e565b6118d4604083018a611852565b6118e16060830189611852565b6118ee6080830188611852565b6118fb60a083018761168d565b61190860c083018661168d565b61191560e08301856116c2565b6119236101008301846116b3565b9a9950505050505050505050565b600060208201905061194660008301846116b3565b92915050565b60006020820190508181036000830152611965816116d1565b9050919050565b60006020820190508181036000830152611985816116f4565b9050919050565b600060208201905081810360008301526119a581611717565b9050919050565b600060208201905081810360008301526119c58161173a565b9050919050565b600060208201905081810360008301526119e58161175d565b9050919050565b60006020820190508181036000830152611a0581611780565b9050919050565b60006020820190508181036000830152611a25816117a3565b9050919050565b60006020820190508181036000830152611a45816117c6565b9050919050565b60006020820190508181036000830152611a65816117e9565b9050919050565b60006020820190508181036000830152611a858161180c565b9050919050565b60006020820190508181036000830152611aa58161182f565b9050919050565b6000602082019050611ac16000830184611852565b92915050565b600082825260208201905092915050565b6000611ae382611c1e565b9150611aee83611c1e565b9250827fffffffffffffffffffffffffffffffffffffffffffffffffffffffffffffffff03821115611b2357611b22611c91565b5b828201905092915050565b6000611b3982611c1e565b9150611b4483611c1e565b9250817fffffffffffffffffffffffffffffffffffffffffffffffffffffffffffffffff0483118215151615611b7d57611b7c611c91565b5b828202905092915050565b6000611b9382611c1e565b9150611b9e83611c1e565b925082821015611bb157611bb0611c91565b5b828203905092915050565b6000611bc782611bfe565b9050919050565b6000819050919050565b6000819050611be682611fa4565b919050565b6000819050611bf982611fb8565b919050565b600073ffffffffffffffffffffffffffffffffffffffff82169050919050565b6000819050919050565b6000611c3382611bd8565b9050919050565b6000611c4582611beb565b9050919050565b6000819050919050565b6000819050919050565b6000611c6b82611c1e565b9150611c7683611c1e565b925082611c8657611c85611cc0565b5b828206905092915050565b7f4e487b7100000000000000000000000000000000000000000000000000000000600052601160045260246000fd5b7f4e487b7100000000000000000000000000000000000000000000000000000000600052601260045260246000fd5b7f4e487b7100000000000000000000000000000000000000000000000000000000600052602160045260246000fd5b600080fd5b7f496e76616c69642047616d65204f7574636f6d65000000000000000000000000600082015250565b7f67616d65206861736820776173206e6f742070726f7669646564000000000000600082015250565b7f50726f626c656d20776974682061646472657373657300000000000000000000600082015250565b7f506c61796572732066756e64732061726520696e73756666696369656e740000600082015250565b7f47616d65206e6f742073746172746564206f722068617320616c72656164792060008201527f6265656e2070617274696369706174656420696e000000000000000000000000602082015250565b7f47616d6520646f6573206e6f74206578697374206f7220706c6179657220547760008201527f6f20686173206e6f7420706c6163656420612062657420796574000000000000602082015250565b7f426f746820706c6179657273206e65656420746f2072657665616c207468656960008201527f722063686f696365206265666f72652067616d652063616e20626520636f6d7060208201527f6c65746564000000000000000000000000000000000000000000000000000000604082015250565b7f50726f626c656d2077697468206f7468657220706c617965722e2e2e00000000600082015250565b7f50726f626c656d20776974682067616d65207374617475732e2e2e0000000000600082015250565b7f70726f626c656d20776974682073616c74000000000000000000000000000000600082015250565b7f596f7520617265206e6f7420506c61796572203220666f72207468697320676160008201527f6d65000000000000000000000000000000000000000000000000000000000000602082015250565b60038110611fb557611fb4611cef565b5b50565b60048110611fc957611fc8611cef565b5b50565b611fd581611bbc565b8114611fe057600080fd5b50565b611fec81611bce565b8114611ff757600080fd5b50565b61200381611c1e565b811461200e57600080fd5b5056fea264697066735822122011328c5bee4f143ca46a362ffc3e54f19697baaaeed0ca1aa2356986495d6c8764736f6c63430008070033",
					"opcodes": "PUSH1 0x80 PUSH1 0x40 MSTORE CALLVALUE DUP1 ISZERO PUSH2 0x10 JUMPI PUSH1 0x0 DUP1 REVERT JUMPDEST POP PUSH2 0x2047 DUP1 PUSH2 0x20 PUSH1 0x0 CODECOPY PUSH1 0x0 RETURN INVALID PUSH1 0x80 PUSH1 0x40 MSTORE CALLVALUE DUP1 ISZERO PUSH2 0x10 JUMPI PUSH1 0x0 DUP1 REVERT JUMPDEST POP PUSH1 0x4 CALLDATASIZE LT PUSH2 0x62 JUMPI PUSH1 0x0 CALLDATALOAD PUSH1 0xE0 SHR DUP1 PUSH4 0x1CF26E3 EQ PUSH2 0x67 JUMPI DUP1 PUSH4 0x2A035B6C EQ PUSH2 0x83 JUMPI DUP1 PUSH4 0x79131A19 EQ PUSH2 0xB3 JUMPI DUP1 PUSH4 0x7B38314C EQ PUSH2 0xEB JUMPI DUP1 PUSH4 0x9F799D9C EQ PUSH2 0x11B JUMPI DUP1 PUSH4 0xC0DCF648 EQ PUSH2 0x137 JUMPI JUMPDEST PUSH1 0x0 DUP1 REVERT JUMPDEST PUSH2 0x81 PUSH1 0x4 DUP1 CALLDATASIZE SUB DUP2 ADD SWAP1 PUSH2 0x7C SWAP2 SWAP1 PUSH2 0x1598 JUMP JUMPDEST PUSH2 0x153 JUMP JUMPDEST STOP JUMPDEST PUSH2 0x9D PUSH1 0x4 DUP1 CALLDATASIZE SUB DUP2 ADD SWAP1 PUSH2 0x98 SWAP2 SWAP1 PUSH2 0x156B JUMP JUMPDEST PUSH2 0x615 JUMP JUMPDEST PUSH1 0x40 MLOAD PUSH2 0xAA SWAP2 SWAP1 PUSH2 0x1931 JUMP JUMPDEST PUSH1 0x40 MLOAD DUP1 SWAP2 SUB SWAP1 RETURN JUMPDEST PUSH2 0xCD PUSH1 0x4 DUP1 CALLDATASIZE SUB DUP2 ADD SWAP1 PUSH2 0xC8 SWAP2 SWAP1 PUSH2 0x156B JUMP JUMPDEST PUSH2 0xBB9 JUMP JUMPDEST PUSH1 0x40 MLOAD PUSH2 0xE2 SWAP10 SWAP9 SWAP8 SWAP7 SWAP6 SWAP5 SWAP4 SWAP3 SWAP2 SWAP1 PUSH2 0x18A4 JUMP JUMPDEST PUSH1 0x40 MLOAD DUP1 SWAP2 SUB SWAP1 RETURN JUMPDEST PUSH2 0x105 PUSH1 0x4 DUP1 CALLDATASIZE SUB DUP2 ADD SWAP1 PUSH2 0x100 SWAP2 SWAP1 PUSH2 0x156B JUMP JUMPDEST PUSH2 0xC61 JUMP JUMPDEST PUSH1 0x40 MLOAD PUSH2 0x112 SWAP2 SWAP1 PUSH2 0x1AAC JUMP JUMPDEST PUSH1 0x40 MLOAD DUP1 SWAP2 SUB SWAP1 RETURN JUMPDEST PUSH2 0x135 PUSH1 0x4 DUP1 CALLDATASIZE SUB DUP2 ADD SWAP1 PUSH2 0x130 SWAP2 SWAP1 PUSH2 0x15D8 JUMP JUMPDEST PUSH2 0xC79 JUMP JUMPDEST STOP JUMPDEST PUSH2 0x151 PUSH1 0x4 DUP1 CALLDATASIZE SUB DUP2 ADD SWAP1 PUSH2 0x14C SWAP2 SWAP1 PUSH2 0x162B JUMP JUMPDEST PUSH2 0x112B JUMP JUMPDEST STOP JUMPDEST DUP2 DUP2 PUSH1 0x0 DUP1 DUP5 PUSH20 0xFFFFFFFFFFFFFFFFFFFFFFFFFFFFFFFFFFFFFFFF AND PUSH20 0xFFFFFFFFFFFFFFFFFFFFFFFFFFFFFFFFFFFFFFFF AND DUP2 MSTORE PUSH1 0x20 ADD SWAP1 DUP2 MSTORE PUSH1 0x20 ADD PUSH1 0x0 KECCAK256 PUSH1 0x2 ADD SLOAD PUSH1 0x0 DUP4 EQ ISZERO PUSH2 0x1DB JUMPI PUSH1 0x40 MLOAD PUSH32 0x8C379A000000000000000000000000000000000000000000000000000000000 DUP2 MSTORE PUSH1 0x4 ADD PUSH2 0x1D2 SWAP1 PUSH2 0x196C JUMP JUMPDEST PUSH1 0x40 MLOAD DUP1 SWAP2 SUB SWAP1 REVERT JUMPDEST PUSH1 0x0 PUSH20 0xFFFFFFFFFFFFFFFFFFFFFFFFFFFFFFFFFFFFFFFF AND DUP3 PUSH20 0xFFFFFFFFFFFFFFFFFFFFFFFFFFFFFFFFFFFFFFFF AND EQ ISZERO DUP1 ISZERO PUSH2 0x244 JUMPI POP CALLER PUSH20 0xFFFFFFFFFFFFFFFFFFFFFFFFFFFFFFFFFFFFFFFF AND DUP3 PUSH20 0xFFFFFFFFFFFFFFFFFFFFFFFFFFFFFFFFFFFFFFFF AND EQ ISZERO JUMPDEST PUSH2 0x283 JUMPI PUSH1 0x40 MLOAD PUSH32 0x8C379A000000000000000000000000000000000000000000000000000000000 DUP2 MSTORE PUSH1 0x4 ADD PUSH2 0x27A SWAP1 PUSH2 0x1A2C JUMP JUMPDEST PUSH1 0x40 MLOAD DUP1 SWAP2 SUB SWAP1 REVERT JUMPDEST PUSH1 0x1 PUSH1 0x0 CALLER PUSH20 0xFFFFFFFFFFFFFFFFFFFFFFFFFFFFFFFFFFFFFFFF AND PUSH20 0xFFFFFFFFFFFFFFFFFFFFFFFFFFFFFFFFFFFFFFFF AND DUP2 MSTORE PUSH1 0x20 ADD SWAP1 DUP2 MSTORE PUSH1 0x20 ADD PUSH1 0x0 KECCAK256 SLOAD DUP2 GT ISZERO PUSH2 0x305 JUMPI PUSH1 0x40 MLOAD PUSH32 0x8C379A000000000000000000000000000000000000000000000000000000000 DUP2 MSTORE PUSH1 0x4 ADD PUSH2 0x2FC SWAP1 PUSH2 0x19AC JUMP JUMPDEST PUSH1 0x40 MLOAD DUP1 SWAP2 SUB SWAP1 REVERT JUMPDEST CALLER PUSH20 0xFFFFFFFFFFFFFFFFFFFFFFFFFFFFFFFFFFFFFFFF AND PUSH1 0x0 DUP1 DUP7 PUSH20 0xFFFFFFFFFFFFFFFFFFFFFFFFFFFFFFFFFFFFFFFF AND PUSH20 0xFFFFFFFFFFFFFFFFFFFFFFFFFFFFFFFFFFFFFFFF AND DUP2 MSTORE PUSH1 0x20 ADD SWAP1 DUP2 MSTORE PUSH1 0x20 ADD PUSH1 0x0 KECCAK256 PUSH1 0x1 ADD PUSH1 0x0 SWAP1 SLOAD SWAP1 PUSH2 0x100 EXP SWAP1 DIV PUSH20 0xFFFFFFFFFFFFFFFFFFFFFFFFFFFFFFFFFFFFFFFF AND PUSH20 0xFFFFFFFFFFFFFFFFFFFFFFFFFFFFFFFFFFFFFFFF AND EQ PUSH2 0x3D4 JUMPI PUSH1 0x40 MLOAD PUSH32 0x8C379A000000000000000000000000000000000000000000000000000000000 DUP2 MSTORE PUSH1 0x4 ADD PUSH2 0x3CB SWAP1 PUSH2 0x1A8C JUMP JUMPDEST PUSH1 0x40 MLOAD DUP1 SWAP2 SUB SWAP1 REVERT JUMPDEST PUSH1 0x1 PUSH1 0x3 DUP2 GT ISZERO PUSH2 0x3E8 JUMPI PUSH2 0x3E7 PUSH2 0x1CEF JUMP JUMPDEST JUMPDEST PUSH1 0x0 DUP1 DUP7 PUSH20 0xFFFFFFFFFFFFFFFFFFFFFFFFFFFFFFFFFFFFFFFF AND PUSH20 0xFFFFFFFFFFFFFFFFFFFFFFFFFFFFFFFFFFFFFFFF AND DUP2 MSTORE PUSH1 0x20 ADD SWAP1 DUP2 MSTORE PUSH1 0x20 ADD PUSH1 0x0 KECCAK256 PUSH1 0x7 ADD PUSH1 0x0 SWAP1 SLOAD SWAP1 PUSH2 0x100 EXP SWAP1 DIV PUSH1 0xFF AND PUSH1 0x3 DUP2 GT ISZERO PUSH2 0x449 JUMPI PUSH2 0x448 PUSH2 0x1CEF JUMP JUMPDEST JUMPDEST EQ PUSH2 0x489 JUMPI PUSH1 0x40 MLOAD PUSH32 0x8C379A000000000000000000000000000000000000000000000000000000000 DUP2 MSTORE PUSH1 0x4 ADD PUSH2 0x480 SWAP1 PUSH2 0x19CC JUMP JUMPDEST PUSH1 0x40 MLOAD DUP1 SWAP2 SUB SWAP1 REVERT JUMPDEST PUSH1 0x0 DUP1 PUSH1 0x0 DUP7 PUSH20 0xFFFFFFFFFFFFFFFFFFFFFFFFFFFFFFFFFFFFFFFF AND PUSH20 0xFFFFFFFFFFFFFFFFFFFFFFFFFFFFFFFFFFFFFFFF AND DUP2 MSTORE PUSH1 0x20 ADD SWAP1 DUP2 MSTORE PUSH1 0x20 ADD PUSH1 0x0 KECCAK256 PUSH1 0x2 ADD SLOAD SWAP1 POP DUP1 PUSH1 0x1 PUSH1 0x0 CALLER PUSH20 0xFFFFFFFFFFFFFFFFFFFFFFFFFFFFFFFFFFFFFFFF AND PUSH20 0xFFFFFFFFFFFFFFFFFFFFFFFFFFFFFFFFFFFFFFFF AND DUP2 MSTORE PUSH1 0x20 ADD SWAP1 DUP2 MSTORE PUSH1 0x20 ADD PUSH1 0x0 KECCAK256 SLOAD PUSH2 0x51A SWAP2 SWAP1 PUSH2 0x1B88 JUMP JUMPDEST PUSH1 0x1 PUSH1 0x0 CALLER PUSH20 0xFFFFFFFFFFFFFFFFFFFFFFFFFFFFFFFFFFFFFFFF AND PUSH20 0xFFFFFFFFFFFFFFFFFFFFFFFFFFFFFFFFFFFFFFFF AND DUP2 MSTORE PUSH1 0x20 ADD SWAP1 DUP2 MSTORE PUSH1 0x20 ADD PUSH1 0x0 KECCAK256 DUP2 SWAP1 SSTORE POP DUP6 PUSH1 0x0 DUP1 DUP8 PUSH20 0xFFFFFFFFFFFFFFFFFFFFFFFFFFFFFFFFFFFFFFFF AND PUSH20 0xFFFFFFFFFFFFFFFFFFFFFFFFFFFFFFFFFFFFFFFF AND DUP2 MSTORE PUSH1 0x20 ADD SWAP1 DUP2 MSTORE PUSH1 0x20 ADD PUSH1 0x0 KECCAK256 PUSH1 0x6 ADD DUP2 SWAP1 SSTORE POP PUSH1 0x2 PUSH1 0x0 DUP1 DUP8 PUSH20 0xFFFFFFFFFFFFFFFFFFFFFFFFFFFFFFFFFFFFFFFF AND PUSH20 0xFFFFFFFFFFFFFFFFFFFFFFFFFFFFFFFFFFFFFFFF AND DUP2 MSTORE PUSH1 0x20 ADD SWAP1 DUP2 MSTORE PUSH1 0x20 ADD PUSH1 0x0 KECCAK256 PUSH1 0x7 ADD PUSH1 0x0 PUSH2 0x100 EXP DUP2 SLOAD DUP2 PUSH1 0xFF MUL NOT AND SWAP1 DUP4 PUSH1 0x3 DUP2 GT ISZERO PUSH2 0x608 JUMPI PUSH2 0x607 PUSH2 0x1CEF JUMP JUMPDEST JUMPDEST MUL OR SWAP1 SSTORE POP POP POP POP POP POP POP JUMP JUMPDEST PUSH1 0x0 DUP1 PUSH1 0x0 DUP1 DUP5 PUSH20 0xFFFFFFFFFFFFFFFFFFFFFFFFFFFFFFFFFFFFFFFF AND PUSH20 0xFFFFFFFFFFFFFFFFFFFFFFFFFFFFFFFFFFFFFFFF AND DUP2 MSTORE PUSH1 0x20 ADD SWAP1 DUP2 MSTORE PUSH1 0x20 ADD PUSH1 0x0 KECCAK256 PUSH1 0x3 ADD SLOAD GT DUP1 ISZERO PUSH2 0x6A8 JUMPI POP PUSH1 0x0 DUP1 PUSH1 0x0 DUP5 PUSH20 0xFFFFFFFFFFFFFFFFFFFFFFFFFFFFFFFFFFFFFFFF AND PUSH20 0xFFFFFFFFFFFFFFFFFFFFFFFFFFFFFFFFFFFFFFFF AND DUP2 MSTORE PUSH1 0x20 ADD SWAP1 DUP2 MSTORE PUSH1 0x20 ADD PUSH1 0x0 KECCAK256 PUSH1 0x4 ADD SLOAD GT JUMPDEST PUSH2 0x6E7 JUMPI PUSH1 0x40 MLOAD PUSH32 0x8C379A000000000000000000000000000000000000000000000000000000000 DUP2 MSTORE PUSH1 0x4 ADD PUSH2 0x6DE SWAP1 PUSH2 0x1A0C JUMP JUMPDEST PUSH1 0x40 MLOAD DUP1 SWAP2 SUB SWAP1 REVERT JUMPDEST PUSH1 0x0 DUP1 PUSH1 0x0 DUP5 PUSH20 0xFFFFFFFFFFFFFFFFFFFFFFFFFFFFFFFFFFFFFFFF AND PUSH20 0xFFFFFFFFFFFFFFFFFFFFFFFFFFFFFFFFFFFFFFFF AND DUP2 MSTORE PUSH1 0x20 ADD SWAP1 DUP2 MSTORE PUSH1 0x20 ADD PUSH1 0x0 KECCAK256 PUSH1 0x1 ADD PUSH1 0x0 SWAP1 SLOAD SWAP1 PUSH2 0x100 EXP SWAP1 DIV PUSH20 0xFFFFFFFFFFFFFFFFFFFFFFFFFFFFFFFFFFFFFFFF AND SWAP1 POP PUSH1 0x0 DUP1 PUSH1 0x0 DUP6 PUSH20 0xFFFFFFFFFFFFFFFFFFFFFFFFFFFFFFFFFFFFFFFF AND PUSH20 0xFFFFFFFFFFFFFFFFFFFFFFFFFFFFFFFFFFFFFFFF AND DUP2 MSTORE PUSH1 0x20 ADD SWAP1 DUP2 MSTORE PUSH1 0x20 ADD PUSH1 0x0 KECCAK256 PUSH1 0x3 ADD SLOAD SWAP1 POP PUSH1 0x0 DUP1 PUSH1 0x0 DUP7 PUSH20 0xFFFFFFFFFFFFFFFFFFFFFFFFFFFFFFFFFFFFFFFF AND PUSH20 0xFFFFFFFFFFFFFFFFFFFFFFFFFFFFFFFFFFFFFFFF AND DUP2 MSTORE PUSH1 0x20 ADD SWAP1 DUP2 MSTORE PUSH1 0x20 ADD PUSH1 0x0 KECCAK256 PUSH1 0x4 ADD SLOAD SWAP1 POP PUSH1 0x0 DUP1 PUSH1 0x0 DUP8 PUSH20 0xFFFFFFFFFFFFFFFFFFFFFFFFFFFFFFFFFFFFFFFF AND PUSH20 0xFFFFFFFFFFFFFFFFFFFFFFFFFFFFFFFFFFFFFFFF AND DUP2 MSTORE PUSH1 0x20 ADD SWAP1 DUP2 MSTORE PUSH1 0x20 ADD PUSH1 0x0 KECCAK256 PUSH1 0x2 ADD SLOAD SWAP1 POP PUSH1 0x3 DUP3 DUP5 PUSH1 0x3 PUSH2 0x82F SWAP2 SWAP1 PUSH2 0x1AD8 JUMP JUMPDEST PUSH2 0x839 SWAP2 SWAP1 PUSH2 0x1B88 JUMP JUMPDEST PUSH2 0x843 SWAP2 SWAP1 PUSH2 0x1C60 JUMP JUMPDEST PUSH1 0x2 DUP2 GT ISZERO PUSH2 0x855 JUMPI PUSH2 0x854 PUSH2 0x1CEF JUMP JUMPDEST JUMPDEST SWAP5 POP PUSH1 0x0 PUSH1 0x2 DUP2 GT ISZERO PUSH2 0x86B JUMPI PUSH2 0x86A PUSH2 0x1CEF JUMP JUMPDEST JUMPDEST DUP6 PUSH1 0x2 DUP2 GT ISZERO PUSH2 0x87E JUMPI PUSH2 0x87D PUSH2 0x1CEF JUMP JUMPDEST JUMPDEST EQ ISZERO PUSH2 0x9A5 JUMPI DUP1 PUSH1 0x1 PUSH1 0x0 DUP9 PUSH20 0xFFFFFFFFFFFFFFFFFFFFFFFFFFFFFFFFFFFFFFFF AND PUSH20 0xFFFFFFFFFFFFFFFFFFFFFFFFFFFFFFFFFFFFFFFF AND DUP2 MSTORE PUSH1 0x20 ADD SWAP1 DUP2 MSTORE PUSH1 0x20 ADD PUSH1 0x0 KECCAK256 SLOAD PUSH2 0x8CF SWAP2 SWAP1 PUSH2 0x1AD8 JUMP JUMPDEST PUSH1 0x1 PUSH1 0x0 DUP9 PUSH20 0xFFFFFFFFFFFFFFFFFFFFFFFFFFFFFFFFFFFFFFFF AND PUSH20 0xFFFFFFFFFFFFFFFFFFFFFFFFFFFFFFFFFFFFFFFF AND DUP2 MSTORE PUSH1 0x20 ADD SWAP1 DUP2 MSTORE PUSH1 0x20 ADD PUSH1 0x0 KECCAK256 DUP2 SWAP1 SSTORE POP DUP1 PUSH1 0x1 PUSH1 0x0 DUP7 PUSH20 0xFFFFFFFFFFFFFFFFFFFFFFFFFFFFFFFFFFFFFFFF AND PUSH20 0xFFFFFFFFFFFFFFFFFFFFFFFFFFFFFFFFFFFFFFFF AND DUP2 MSTORE PUSH1 0x20 ADD SWAP1 DUP2 MSTORE PUSH1 0x20 ADD PUSH1 0x0 KECCAK256 SLOAD PUSH2 0x95D SWAP2 SWAP1 PUSH2 0x1AD8 JUMP JUMPDEST PUSH1 0x1 PUSH1 0x0 DUP7 PUSH20 0xFFFFFFFFFFFFFFFFFFFFFFFFFFFFFFFFFFFFFFFF AND PUSH20 0xFFFFFFFFFFFFFFFFFFFFFFFFFFFFFFFFFFFFFFFF AND DUP2 MSTORE PUSH1 0x20 ADD SWAP1 DUP2 MSTORE PUSH1 0x20 ADD PUSH1 0x0 KECCAK256 DUP2 SWAP1 SSTORE POP PUSH2 0xB79 JUMP JUMPDEST PUSH1 0x1 PUSH1 0x2 DUP2 GT ISZERO PUSH2 0x9B9 JUMPI PUSH2 0x9B8 PUSH2 0x1CEF JUMP JUMPDEST JUMPDEST DUP6 PUSH1 0x2 DUP2 GT ISZERO PUSH2 0x9CC JUMPI PUSH2 0x9CB PUSH2 0x1CEF JUMP JUMPDEST JUMPDEST EQ ISZERO PUSH2 0xA71 JUMPI PUSH1 0x2 DUP2 PUSH2 0x9DF SWAP2 SWAP1 PUSH2 0x1B2E JUMP JUMPDEST PUSH1 0x1 PUSH1 0x0 DUP9 PUSH20 0xFFFFFFFFFFFFFFFFFFFFFFFFFFFFFFFFFFFFFFFF AND PUSH20 0xFFFFFFFFFFFFFFFFFFFFFFFFFFFFFFFFFFFFFFFF AND DUP2 MSTORE PUSH1 0x20 ADD SWAP1 DUP2 MSTORE PUSH1 0x20 ADD PUSH1 0x0 KECCAK256 SLOAD PUSH2 0xA29 SWAP2 SWAP1 PUSH2 0x1AD8 JUMP JUMPDEST PUSH1 0x1 PUSH1 0x0 DUP9 PUSH20 0xFFFFFFFFFFFFFFFFFFFFFFFFFFFFFFFFFFFFFFFF AND PUSH20 0xFFFFFFFFFFFFFFFFFFFFFFFFFFFFFFFFFFFFFFFF AND DUP2 MSTORE PUSH1 0x20 ADD SWAP1 DUP2 MSTORE PUSH1 0x20 ADD PUSH1 0x0 KECCAK256 DUP2 SWAP1 SSTORE POP PUSH2 0xB78 JUMP JUMPDEST PUSH1 0x2 DUP1 DUP2 GT ISZERO PUSH2 0xA84 JUMPI PUSH2 0xA83 PUSH2 0x1CEF JUMP JUMPDEST JUMPDEST DUP6 PUSH1 0x2 DUP2 GT ISZERO PUSH2 0xA97 JUMPI PUSH2 0xA96 PUSH2 0x1CEF JUMP JUMPDEST JUMPDEST EQ ISZERO PUSH2 0xB3C JUMPI PUSH1 0x2 DUP2 PUSH2 0xAAA SWAP2 SWAP1 PUSH2 0x1B2E JUMP JUMPDEST PUSH1 0x1 PUSH1 0x0 DUP7 PUSH20 0xFFFFFFFFFFFFFFFFFFFFFFFFFFFFFFFFFFFFFFFF AND PUSH20 0xFFFFFFFFFFFFFFFFFFFFFFFFFFFFFFFFFFFFFFFF AND DUP2 MSTORE PUSH1 0x20 ADD SWAP1 DUP2 MSTORE PUSH1 0x20 ADD PUSH1 0x0 KECCAK256 SLOAD PUSH2 0xAF4 SWAP2 SWAP1 PUSH2 0x1AD8 JUMP JUMPDEST PUSH1 0x1 PUSH1 0x0 DUP7 PUSH20 0xFFFFFFFFFFFFFFFFFFFFFFFFFFFFFFFFFFFFFFFF AND PUSH20 0xFFFFFFFFFFFFFFFFFFFFFFFFFFFFFFFFFFFFFFFF AND DUP2 MSTORE PUSH1 0x20 ADD SWAP1 DUP2 MSTORE PUSH1 0x20 ADD PUSH1 0x0 KECCAK256 DUP2 SWAP1 SSTORE POP PUSH2 0xB77 JUMP JUMPDEST PUSH1 0x40 MLOAD PUSH32 0x8C379A000000000000000000000000000000000000000000000000000000000 DUP2 MSTORE PUSH1 0x4 ADD PUSH2 0xB6E SWAP1 PUSH2 0x194C JUMP JUMPDEST PUSH1 0x40 MLOAD DUP1 SWAP2 SUB SWAP1 REVERT JUMPDEST JUMPDEST JUMPDEST PUSH32 0x6D1A16000380C9ADDE391BCB46A92C2CE8C46811CFF002ED5DEC38DFDC2373CD DUP6 PUSH1 0x40 MLOAD PUSH2 0xBA8 SWAP2 SWAP1 PUSH2 0x1931 JUMP JUMPDEST PUSH1 0x40 MLOAD DUP1 SWAP2 SUB SWAP1 LOG1 POP POP POP POP SWAP2 SWAP1 POP JUMP JUMPDEST PUSH1 0x0 PUSH1 0x20 MSTORE DUP1 PUSH1 0x0 MSTORE PUSH1 0x40 PUSH1 0x0 KECCAK256 PUSH1 0x0 SWAP2 POP SWAP1 POP DUP1 PUSH1 0x0 ADD PUSH1 0x0 SWAP1 SLOAD SWAP1 PUSH2 0x100 EXP SWAP1 DIV PUSH20 0xFFFFFFFFFFFFFFFFFFFFFFFFFFFFFFFFFFFFFFFF AND SWAP1 DUP1 PUSH1 0x1 ADD PUSH1 0x0 SWAP1 SLOAD SWAP1 PUSH2 0x100 EXP SWAP1 DIV PUSH20 0xFFFFFFFFFFFFFFFFFFFFFFFFFFFFFFFFFFFFFFFF AND SWAP1 DUP1 PUSH1 0x2 ADD SLOAD SWAP1 DUP1 PUSH1 0x3 ADD SLOAD SWAP1 DUP1 PUSH1 0x4 ADD SLOAD SWAP1 DUP1 PUSH1 0x5 ADD SLOAD SWAP1 DUP1 PUSH1 0x6 ADD SLOAD SWAP1 DUP1 PUSH1 0x7 ADD PUSH1 0x0 SWAP1 SLOAD SWAP1 PUSH2 0x100 EXP SWAP1 DIV PUSH1 0xFF AND SWAP1 DUP1 PUSH1 0x7 ADD PUSH1 0x1 SWAP1 SLOAD SWAP1 PUSH2 0x100 EXP SWAP1 DIV PUSH1 0xFF AND SWAP1 POP DUP10 JUMP JUMPDEST PUSH1 0x1 PUSH1 0x20 MSTORE DUP1 PUSH1 0x0 MSTORE PUSH1 0x40 PUSH1 0x0 KECCAK256 PUSH1 0x0 SWAP2 POP SWAP1 POP SLOAD DUP2 JUMP JUMPDEST DUP3 DUP3 DUP3 PUSH1 0x0 DUP4 EQ ISZERO PUSH2 0xCC0 JUMPI PUSH1 0x40 MLOAD PUSH32 0x8C379A000000000000000000000000000000000000000000000000000000000 DUP2 MSTORE PUSH1 0x4 ADD PUSH2 0xCB7 SWAP1 PUSH2 0x196C JUMP JUMPDEST PUSH1 0x40 MLOAD DUP1 SWAP2 SUB SWAP1 REVERT JUMPDEST PUSH1 0x0 PUSH20 0xFFFFFFFFFFFFFFFFFFFFFFFFFFFFFFFFFFFFFFFF AND DUP3 PUSH20 0xFFFFFFFFFFFFFFFFFFFFFFFFFFFFFFFFFFFFFFFF AND EQ ISZERO DUP1 ISZERO PUSH2 0xD29 JUMPI POP CALLER PUSH20 0xFFFFFFFFFFFFFFFFFFFFFFFFFFFFFFFFFFFFFFFF AND DUP3 PUSH20 0xFFFFFFFFFFFFFFFFFFFFFFFFFFFFFFFFFFFFFFFF AND EQ ISZERO JUMPDEST PUSH2 0xD68 JUMPI PUSH1 0x40 MLOAD PUSH32 0x8C379A000000000000000000000000000000000000000000000000000000000 DUP2 MSTORE PUSH1 0x4 ADD PUSH2 0xD5F SWAP1 PUSH2 0x1A2C JUMP JUMPDEST PUSH1 0x40 MLOAD DUP1 SWAP2 SUB SWAP1 REVERT JUMPDEST PUSH1 0x1 PUSH1 0x0 CALLER PUSH20 0xFFFFFFFFFFFFFFFFFFFFFFFFFFFFFFFFFFFFFFFF AND PUSH20 0xFFFFFFFFFFFFFFFFFFFFFFFFFFFFFFFFFFFFFFFF AND DUP2 MSTORE PUSH1 0x20 ADD SWAP1 DUP2 MSTORE PUSH1 0x20 ADD PUSH1 0x0 KECCAK256 SLOAD DUP2 GT ISZERO PUSH2 0xDEA JUMPI PUSH1 0x40 MLOAD PUSH32 0x8C379A000000000000000000000000000000000000000000000000000000000 DUP2 MSTORE PUSH1 0x4 ADD PUSH2 0xDE1 SWAP1 PUSH2 0x19AC JUMP JUMPDEST PUSH1 0x40 MLOAD DUP1 SWAP2 SUB SWAP1 REVERT JUMPDEST PUSH1 0x0 PUSH1 0x3 DUP2 GT ISZERO PUSH2 0xDFE JUMPI PUSH2 0xDFD PUSH2 0x1CEF JUMP JUMPDEST JUMPDEST PUSH1 0x0 DUP1 CALLER PUSH20 0xFFFFFFFFFFFFFFFFFFFFFFFFFFFFFFFFFFFFFFFF AND PUSH20 0xFFFFFFFFFFFFFFFFFFFFFFFFFFFFFFFFFFFFFFFF AND DUP2 MSTORE PUSH1 0x20 ADD SWAP1 DUP2 MSTORE PUSH1 0x20 ADD PUSH1 0x0 KECCAK256 PUSH1 0x7 ADD PUSH1 0x0 SWAP1 SLOAD SWAP1 PUSH2 0x100 EXP SWAP1 DIV PUSH1 0xFF AND PUSH1 0x3 DUP2 GT ISZERO PUSH2 0xE5F JUMPI PUSH2 0xE5E PUSH2 0x1CEF JUMP JUMPDEST JUMPDEST EQ PUSH2 0xE9F JUMPI PUSH1 0x40 MLOAD PUSH32 0x8C379A000000000000000000000000000000000000000000000000000000000 DUP2 MSTORE PUSH1 0x4 ADD PUSH2 0xE96 SWAP1 PUSH2 0x1A4C JUMP JUMPDEST PUSH1 0x40 MLOAD DUP1 SWAP2 SUB SWAP1 REVERT JUMPDEST DUP4 PUSH1 0x1 PUSH1 0x0 CALLER PUSH20 0xFFFFFFFFFFFFFFFFFFFFFFFFFFFFFFFFFFFFFFFF AND PUSH20 0xFFFFFFFFFFFFFFFFFFFFFFFFFFFFFFFFFFFFFFFF AND DUP2 MSTORE PUSH1 0x20 ADD SWAP1 DUP2 MSTORE PUSH1 0x20 ADD PUSH1 0x0 KECCAK256 SLOAD PUSH2 0xEEA SWAP2 SWAP1 PUSH2 0x1B88 JUMP JUMPDEST PUSH1 0x1 PUSH1 0x0 CALLER PUSH20 0xFFFFFFFFFFFFFFFFFFFFFFFFFFFFFFFFFFFFFFFF AND PUSH20 0xFFFFFFFFFFFFFFFFFFFFFFFFFFFFFFFFFFFFFFFF AND DUP2 MSTORE PUSH1 0x20 ADD SWAP1 DUP2 MSTORE PUSH1 0x20 ADD PUSH1 0x0 KECCAK256 DUP2 SWAP1 SSTORE POP DUP6 PUSH1 0x0 DUP1 CALLER PUSH20 0xFFFFFFFFFFFFFFFFFFFFFFFFFFFFFFFFFFFFFFFF AND PUSH20 0xFFFFFFFFFFFFFFFFFFFFFFFFFFFFFFFFFFFFFFFF AND DUP2 MSTORE PUSH1 0x20 ADD SWAP1 DUP2 MSTORE PUSH1 0x20 ADD PUSH1 0x0 KECCAK256 PUSH1 0x5 ADD DUP2 SWAP1 SSTORE POP CALLER PUSH1 0x0 DUP1 CALLER PUSH20 0xFFFFFFFFFFFFFFFFFFFFFFFFFFFFFFFFFFFFFFFF AND PUSH20 0xFFFFFFFFFFFFFFFFFFFFFFFFFFFFFFFFFFFFFFFF AND DUP2 MSTORE PUSH1 0x20 ADD SWAP1 DUP2 MSTORE PUSH1 0x20 ADD PUSH1 0x0 KECCAK256 PUSH1 0x0 ADD PUSH1 0x0 PUSH2 0x100 EXP DUP2 SLOAD DUP2 PUSH20 0xFFFFFFFFFFFFFFFFFFFFFFFFFFFFFFFFFFFFFFFF MUL NOT AND SWAP1 DUP4 PUSH20 0xFFFFFFFFFFFFFFFFFFFFFFFFFFFFFFFFFFFFFFFF AND MUL OR SWAP1 SSTORE POP DUP5 PUSH1 0x0 DUP1 CALLER PUSH20 0xFFFFFFFFFFFFFFFFFFFFFFFFFFFFFFFFFFFFFFFF AND PUSH20 0xFFFFFFFFFFFFFFFFFFFFFFFFFFFFFFFFFFFFFFFF AND DUP2 MSTORE PUSH1 0x20 ADD SWAP1 DUP2 MSTORE PUSH1 0x20 ADD PUSH1 0x0 KECCAK256 PUSH1 0x1 ADD PUSH1 0x0 PUSH2 0x100 EXP DUP2 SLOAD DUP2 PUSH20 0xFFFFFFFFFFFFFFFFFFFFFFFFFFFFFFFFFFFFFFFF MUL NOT AND SWAP1 DUP4 PUSH20 0xFFFFFFFFFFFFFFFFFFFFFFFFFFFFFFFFFFFFFFFF AND MUL OR SWAP1 SSTORE POP DUP4 PUSH1 0x0 DUP1 CALLER PUSH20 0xFFFFFFFFFFFFFFFFFFFFFFFFFFFFFFFFFFFFFFFF AND PUSH20 0xFFFFFFFFFFFFFFFFFFFFFFFFFFFFFFFFFFFFFFFF AND DUP2 MSTORE PUSH1 0x20 ADD SWAP1 DUP2 MSTORE PUSH1 0x20 ADD PUSH1 0x0 KECCAK256 PUSH1 0x2 ADD DUP2 SWAP1 SSTORE POP PUSH1 0x1 PUSH1 0x0 DUP1 CALLER PUSH20 0xFFFFFFFFFFFFFFFFFFFFFFFFFFFFFFFFFFFFFFFF AND PUSH20 0xFFFFFFFFFFFFFFFFFFFFFFFFFFFFFFFFFFFFFFFF AND DUP2 MSTORE PUSH1 0x20 ADD SWAP1 DUP2 MSTORE PUSH1 0x20 ADD PUSH1 0x0 KECCAK256 PUSH1 0x7 ADD PUSH1 0x0 PUSH2 0x100 EXP DUP2 SLOAD DUP2 PUSH1 0xFF MUL NOT AND SWAP1 DUP4 PUSH1 0x3 DUP2 GT ISZERO PUSH2 0x111E JUMPI PUSH2 0x111D PUSH2 0x1CEF JUMP JUMPDEST JUMPDEST MUL OR SWAP1 SSTORE POP POP POP POP POP POP POP JUMP JUMPDEST PUSH1 0x2 PUSH1 0x3 DUP2 GT ISZERO PUSH2 0x113F JUMPI PUSH2 0x113E PUSH2 0x1CEF JUMP JUMPDEST JUMPDEST PUSH1 0x0 DUP1 DUP4 PUSH20 0xFFFFFFFFFFFFFFFFFFFFFFFFFFFFFFFFFFFFFFFF AND PUSH20 0xFFFFFFFFFFFFFFFFFFFFFFFFFFFFFFFFFFFFFFFF AND DUP2 MSTORE PUSH1 0x20 ADD SWAP1 DUP2 MSTORE PUSH1 0x20 ADD PUSH1 0x0 KECCAK256 PUSH1 0x7 ADD PUSH1 0x0 SWAP1 SLOAD SWAP1 PUSH2 0x100 EXP SWAP1 DIV PUSH1 0xFF AND PUSH1 0x3 DUP2 GT ISZERO PUSH2 0x11A0 JUMPI PUSH2 0x119F PUSH2 0x1CEF JUMP JUMPDEST JUMPDEST EQ PUSH2 0x11E0 JUMPI PUSH1 0x40 MLOAD PUSH32 0x8C379A000000000000000000000000000000000000000000000000000000000 DUP2 MSTORE PUSH1 0x4 ADD PUSH2 0x11D7 SWAP1 PUSH2 0x19EC JUMP JUMPDEST PUSH1 0x40 MLOAD DUP1 SWAP2 SUB SWAP1 REVERT JUMPDEST CALLER PUSH20 0xFFFFFFFFFFFFFFFFFFFFFFFFFFFFFFFFFFFFFFFF AND PUSH1 0x0 DUP1 DUP4 PUSH20 0xFFFFFFFFFFFFFFFFFFFFFFFFFFFFFFFFFFFFFFFF AND PUSH20 0xFFFFFFFFFFFFFFFFFFFFFFFFFFFFFFFFFFFFFFFF AND DUP2 MSTORE PUSH1 0x20 ADD SWAP1 DUP2 MSTORE PUSH1 0x20 ADD PUSH1 0x0 KECCAK256 PUSH1 0x0 ADD PUSH1 0x0 SWAP1 SLOAD SWAP1 PUSH2 0x100 EXP SWAP1 DIV PUSH20 0xFFFFFFFFFFFFFFFFFFFFFFFFFFFFFFFFFFFFFFFF AND PUSH20 0xFFFFFFFFFFFFFFFFFFFFFFFFFFFFFFFFFFFFFFFF AND EQ ISZERO PUSH2 0x134C JUMPI PUSH2 0x127F DUP4 DUP4 PUSH2 0x14F9 JUMP JUMPDEST PUSH1 0x0 DUP1 DUP4 PUSH20 0xFFFFFFFFFFFFFFFFFFFFFFFFFFFFFFFFFFFFFFFF AND PUSH20 0xFFFFFFFFFFFFFFFFFFFFFFFFFFFFFFFFFFFFFFFF AND DUP2 MSTORE PUSH1 0x20 ADD SWAP1 DUP2 MSTORE PUSH1 0x20 ADD PUSH1 0x0 KECCAK256 PUSH1 0x5 ADD SLOAD EQ PUSH2 0x1301 JUMPI PUSH1 0x40 MLOAD PUSH32 0x8C379A000000000000000000000000000000000000000000000000000000000 DUP2 MSTORE PUSH1 0x4 ADD PUSH2 0x12F8 SWAP1 PUSH2 0x1A6C JUMP JUMPDEST PUSH1 0x40 MLOAD DUP1 SWAP2 SUB SWAP1 REVERT JUMPDEST DUP3 PUSH1 0x0 DUP1 DUP4 PUSH20 0xFFFFFFFFFFFFFFFFFFFFFFFFFFFFFFFFFFFFFFFF AND PUSH20 0xFFFFFFFFFFFFFFFFFFFFFFFFFFFFFFFFFFFFFFFF AND DUP2 MSTORE PUSH1 0x20 ADD SWAP1 DUP2 MSTORE PUSH1 0x20 ADD PUSH1 0x0 KECCAK256 PUSH1 0x3 ADD DUP2 SWAP1 SSTORE POP PUSH2 0x14F4 JUMP JUMPDEST CALLER PUSH20 0xFFFFFFFFFFFFFFFFFFFFFFFFFFFFFFFFFFFFFFFF AND PUSH1 0x0 DUP1 DUP4 PUSH20 0xFFFFFFFFFFFFFFFFFFFFFFFFFFFFFFFFFFFFFFFF AND PUSH20 0xFFFFFFFFFFFFFFFFFFFFFFFFFFFFFFFFFFFFFFFF AND DUP2 MSTORE PUSH1 0x20 ADD SWAP1 DUP2 MSTORE PUSH1 0x20 ADD PUSH1 0x0 KECCAK256 PUSH1 0x1 ADD PUSH1 0x0 SWAP1 SLOAD SWAP1 PUSH2 0x100 EXP SWAP1 DIV PUSH20 0xFFFFFFFFFFFFFFFFFFFFFFFFFFFFFFFFFFFFFFFF AND PUSH20 0xFFFFFFFFFFFFFFFFFFFFFFFFFFFFFFFFFFFFFFFF AND EQ ISZERO PUSH2 0x14B8 JUMPI PUSH2 0x13EB DUP4 DUP4 PUSH2 0x14F9 JUMP JUMPDEST PUSH1 0x0 DUP1 DUP4 PUSH20 0xFFFFFFFFFFFFFFFFFFFFFFFFFFFFFFFFFFFFFFFF AND PUSH20 0xFFFFFFFFFFFFFFFFFFFFFFFFFFFFFFFFFFFFFFFF AND DUP2 MSTORE PUSH1 0x20 ADD SWAP1 DUP2 MSTORE PUSH1 0x20 ADD PUSH1 0x0 KECCAK256 PUSH1 0x6 ADD SLOAD EQ PUSH2 0x146D JUMPI PUSH1 0x40 MLOAD PUSH32 0x8C379A000000000000000000000000000000000000000000000000000000000 DUP2 MSTORE PUSH1 0x4 ADD PUSH2 0x1464 SWAP1 PUSH2 0x1A6C JUMP JUMPDEST PUSH1 0x40 MLOAD DUP1 SWAP2 SUB SWAP1 REVERT JUMPDEST DUP3 PUSH1 0x0 DUP1 DUP4 PUSH20 0xFFFFFFFFFFFFFFFFFFFFFFFFFFFFFFFFFFFFFFFF AND PUSH20 0xFFFFFFFFFFFFFFFFFFFFFFFFFFFFFFFFFFFFFFFF AND DUP2 MSTORE PUSH1 0x20 ADD SWAP1 DUP2 MSTORE PUSH1 0x20 ADD PUSH1 0x0 KECCAK256 PUSH1 0x4 ADD DUP2 SWAP1 SSTORE POP PUSH2 0x14F3 JUMP JUMPDEST PUSH1 0x40 MLOAD PUSH32 0x8C379A000000000000000000000000000000000000000000000000000000000 DUP2 MSTORE PUSH1 0x4 ADD PUSH2 0x14EA SWAP1 PUSH2 0x198C JUMP JUMPDEST PUSH1 0x40 MLOAD DUP1 SWAP2 SUB SWAP1 REVERT JUMPDEST JUMPDEST POP POP POP JUMP JUMPDEST PUSH1 0x0 DUP3 DUP3 PUSH1 0x40 MLOAD PUSH1 0x20 ADD PUSH2 0x150E SWAP3 SWAP2 SWAP1 PUSH2 0x1878 JUMP JUMPDEST PUSH1 0x40 MLOAD PUSH1 0x20 DUP2 DUP4 SUB SUB DUP2 MSTORE SWAP1 PUSH1 0x40 MSTORE DUP1 MLOAD SWAP1 PUSH1 0x20 ADD KECCAK256 SWAP1 POP SWAP3 SWAP2 POP POP JUMP JUMPDEST PUSH1 0x0 DUP2 CALLDATALOAD SWAP1 POP PUSH2 0x153B DUP2 PUSH2 0x1FCC JUMP JUMPDEST SWAP3 SWAP2 POP POP JUMP JUMPDEST PUSH1 0x0 DUP2 CALLDATALOAD SWAP1 POP PUSH2 0x1550 DUP2 PUSH2 0x1FE3 JUMP JUMPDEST SWAP3 SWAP2 POP POP JUMP JUMPDEST PUSH1 0x0 DUP2 CALLDATALOAD SWAP1 POP PUSH2 0x1565 DUP2 PUSH2 0x1FFA JUMP JUMPDEST SWAP3 SWAP2 POP POP JUMP JUMPDEST PUSH1 0x0 PUSH1 0x20 DUP3 DUP5 SUB SLT ISZERO PUSH2 0x1581 JUMPI PUSH2 0x1580 PUSH2 0x1D1E JUMP JUMPDEST JUMPDEST PUSH1 0x0 PUSH2 0x158F DUP5 DUP3 DUP6 ADD PUSH2 0x152C JUMP JUMPDEST SWAP2 POP POP SWAP3 SWAP2 POP POP JUMP JUMPDEST PUSH1 0x0 DUP1 PUSH1 0x40 DUP4 DUP6 SUB SLT ISZERO PUSH2 0x15AF JUMPI PUSH2 0x15AE PUSH2 0x1D1E JUMP JUMPDEST JUMPDEST PUSH1 0x0 PUSH2 0x15BD DUP6 DUP3 DUP7 ADD PUSH2 0x1541 JUMP JUMPDEST SWAP3 POP POP PUSH1 0x20 PUSH2 0x15CE DUP6 DUP3 DUP7 ADD PUSH2 0x152C JUMP JUMPDEST SWAP2 POP POP SWAP3 POP SWAP3 SWAP1 POP JUMP JUMPDEST PUSH1 0x0 DUP1 PUSH1 0x0 PUSH1 0x60 DUP5 DUP7 SUB SLT ISZERO PUSH2 0x15F1 JUMPI PUSH2 0x15F0 PUSH2 0x1D1E JUMP JUMPDEST JUMPDEST PUSH1 0x0 PUSH2 0x15FF DUP7 DUP3 DUP8 ADD PUSH2 0x1541 JUMP JUMPDEST SWAP4 POP POP PUSH1 0x20 PUSH2 0x1610 DUP7 DUP3 DUP8 ADD PUSH2 0x152C JUMP JUMPDEST SWAP3 POP POP PUSH1 0x40 PUSH2 0x1621 DUP7 DUP3 DUP8 ADD PUSH2 0x1556 JUMP JUMPDEST SWAP2 POP POP SWAP3 POP SWAP3 POP SWAP3 JUMP JUMPDEST PUSH1 0x0 DUP1 PUSH1 0x0 PUSH1 0x60 DUP5 DUP7 SUB SLT ISZERO PUSH2 0x1644 JUMPI PUSH2 0x1643 PUSH2 0x1D1E JUMP JUMPDEST JUMPDEST PUSH1 0x0 PUSH2 0x1652 DUP7 DUP3 DUP8 ADD PUSH2 0x1556 JUMP JUMPDEST SWAP4 POP POP PUSH1 0x20 PUSH2 0x1663 DUP7 DUP3 DUP8 ADD PUSH2 0x1541 JUMP JUMPDEST SWAP3 POP POP PUSH1 0x40 PUSH2 0x1674 DUP7 DUP3 DUP8 ADD PUSH2 0x152C JUMP JUMPDEST SWAP2 POP POP SWAP3 POP SWAP3 POP SWAP3 JUMP JUMPDEST PUSH2 0x1687 DUP2 PUSH2 0x1BBC JUMP JUMPDEST DUP3 MSTORE POP POP JUMP JUMPDEST PUSH2 0x1696 DUP2 PUSH2 0x1BCE JUMP JUMPDEST DUP3 MSTORE POP POP JUMP JUMPDEST PUSH2 0x16AD PUSH2 0x16A8 DUP3 PUSH2 0x1BCE JUMP JUMPDEST PUSH2 0x1C4C JUMP JUMPDEST DUP3 MSTORE POP POP JUMP JUMPDEST PUSH2 0x16BC DUP2 PUSH2 0x1C28 JUMP JUMPDEST DUP3 MSTORE POP POP JUMP JUMPDEST PUSH2 0x16CB DUP2 PUSH2 0x1C3A JUMP JUMPDEST DUP3 MSTORE POP POP JUMP JUMPDEST PUSH1 0x0 PUSH2 0x16DE PUSH1 0x14 DUP4 PUSH2 0x1AC7 JUMP JUMPDEST SWAP2 POP PUSH2 0x16E9 DUP3 PUSH2 0x1D23 JUMP JUMPDEST PUSH1 0x20 DUP3 ADD SWAP1 POP SWAP2 SWAP1 POP JUMP JUMPDEST PUSH1 0x0 PUSH2 0x1701 PUSH1 0x1A DUP4 PUSH2 0x1AC7 JUMP JUMPDEST SWAP2 POP PUSH2 0x170C DUP3 PUSH2 0x1D4C JUMP JUMPDEST PUSH1 0x20 DUP3 ADD SWAP1 POP SWAP2 SWAP1 POP JUMP JUMPDEST PUSH1 0x0 PUSH2 0x1724 PUSH1 0x16 DUP4 PUSH2 0x1AC7 JUMP JUMPDEST SWAP2 POP PUSH2 0x172F DUP3 PUSH2 0x1D75 JUMP JUMPDEST PUSH1 0x20 DUP3 ADD SWAP1 POP SWAP2 SWAP1 POP JUMP JUMPDEST PUSH1 0x0 PUSH2 0x1747 PUSH1 0x1E DUP4 PUSH2 0x1AC7 JUMP JUMPDEST SWAP2 POP PUSH2 0x1752 DUP3 PUSH2 0x1D9E JUMP JUMPDEST PUSH1 0x20 DUP3 ADD SWAP1 POP SWAP2 SWAP1 POP JUMP JUMPDEST PUSH1 0x0 PUSH2 0x176A PUSH1 0x34 DUP4 PUSH2 0x1AC7 JUMP JUMPDEST SWAP2 POP PUSH2 0x1775 DUP3 PUSH2 0x1DC7 JUMP JUMPDEST PUSH1 0x40 DUP3 ADD SWAP1 POP SWAP2 SWAP1 POP JUMP JUMPDEST PUSH1 0x0 PUSH2 0x178D PUSH1 0x3A DUP4 PUSH2 0x1AC7 JUMP JUMPDEST SWAP2 POP PUSH2 0x1798 DUP3 PUSH2 0x1E16 JUMP JUMPDEST PUSH1 0x40 DUP3 ADD SWAP1 POP SWAP2 SWAP1 POP JUMP JUMPDEST PUSH1 0x0 PUSH2 0x17B0 PUSH1 0x45 DUP4 PUSH2 0x1AC7 JUMP JUMPDEST SWAP2 POP PUSH2 0x17BB DUP3 PUSH2 0x1E65 JUMP JUMPDEST PUSH1 0x60 DUP3 ADD SWAP1 POP SWAP2 SWAP1 POP JUMP JUMPDEST PUSH1 0x0 PUSH2 0x17D3 PUSH1 0x1C DUP4 PUSH2 0x1AC7 JUMP JUMPDEST SWAP2 POP PUSH2 0x17DE DUP3 PUSH2 0x1EDA JUMP JUMPDEST PUSH1 0x20 DUP3 ADD SWAP1 POP SWAP2 SWAP1 POP JUMP JUMPDEST PUSH1 0x0 PUSH2 0x17F6 PUSH1 0x1B DUP4 PUSH2 0x1AC7 JUMP JUMPDEST SWAP2 POP PUSH2 0x1801 DUP3 PUSH2 0x1F03 JUMP JUMPDEST PUSH1 0x20 DUP3 ADD SWAP1 POP SWAP2 SWAP1 POP JUMP JUMPDEST PUSH1 0x0 PUSH2 0x1819 PUSH1 0x11 DUP4 PUSH2 0x1AC7 JUMP JUMPDEST SWAP2 POP PUSH2 0x1824 DUP3 PUSH2 0x1F2C JUMP JUMPDEST PUSH1 0x20 DUP3 ADD SWAP1 POP SWAP2 SWAP1 POP JUMP JUMPDEST PUSH1 0x0 PUSH2 0x183C PUSH1 0x22 DUP4 PUSH2 0x1AC7 JUMP JUMPDEST SWAP2 POP PUSH2 0x1847 DUP3 PUSH2 0x1F55 JUMP JUMPDEST PUSH1 0x40 DUP3 ADD SWAP1 POP SWAP2 SWAP1 POP JUMP JUMPDEST PUSH2 0x185B DUP2 PUSH2 0x1C1E JUMP JUMPDEST DUP3 MSTORE POP POP JUMP JUMPDEST PUSH2 0x1872 PUSH2 0x186D DUP3 PUSH2 0x1C1E JUMP JUMPDEST PUSH2 0x1C56 JUMP JUMPDEST DUP3 MSTORE POP POP JUMP JUMPDEST PUSH1 0x0 PUSH2 0x1884 DUP3 DUP6 PUSH2 0x1861 JUMP JUMPDEST PUSH1 0x20 DUP3 ADD SWAP2 POP PUSH2 0x1894 DUP3 DUP5 PUSH2 0x169C JUMP JUMPDEST PUSH1 0x20 DUP3 ADD SWAP2 POP DUP2 SWAP1 POP SWAP4 SWAP3 POP POP POP JUMP JUMPDEST PUSH1 0x0 PUSH2 0x120 DUP3 ADD SWAP1 POP PUSH2 0x18BA PUSH1 0x0 DUP4 ADD DUP13 PUSH2 0x167E JUMP JUMPDEST PUSH2 0x18C7 PUSH1 0x20 DUP4 ADD DUP12 PUSH2 0x167E JUMP JUMPDEST PUSH2 0x18D4 PUSH1 0x40 DUP4 ADD DUP11 PUSH2 0x1852 JUMP JUMPDEST PUSH2 0x18E1 PUSH1 0x60 DUP4 ADD DUP10 PUSH2 0x1852 JUMP JUMPDEST PUSH2 0x18EE PUSH1 0x80 DUP4 ADD DUP9 PUSH2 0x1852 JUMP JUMPDEST PUSH2 0x18FB PUSH1 0xA0 DUP4 ADD DUP8 PUSH2 0x168D JUMP JUMPDEST PUSH2 0x1908 PUSH1 0xC0 DUP4 ADD DUP7 PUSH2 0x168D JUMP JUMPDEST PUSH2 0x1915 PUSH1 0xE0 DUP4 ADD DUP6 PUSH2 0x16C2 JUMP JUMPDEST PUSH2 0x1923 PUSH2 0x100 DUP4 ADD DUP5 PUSH2 0x16B3 JUMP JUMPDEST SWAP11 SWAP10 POP POP POP POP POP POP POP POP POP POP JUMP JUMPDEST PUSH1 0x0 PUSH1 0x20 DUP3 ADD SWAP1 POP PUSH2 0x1946 PUSH1 0x0 DUP4 ADD DUP5 PUSH2 0x16B3 JUMP JUMPDEST SWAP3 SWAP2 POP POP JUMP JUMPDEST PUSH1 0x0 PUSH1 0x20 DUP3 ADD SWAP1 POP DUP2 DUP2 SUB PUSH1 0x0 DUP4 ADD MSTORE PUSH2 0x1965 DUP2 PUSH2 0x16D1 JUMP JUMPDEST SWAP1 POP SWAP2 SWAP1 POP JUMP JUMPDEST PUSH1 0x0 PUSH1 0x20 DUP3 ADD SWAP1 POP DUP2 DUP2 SUB PUSH1 0x0 DUP4 ADD MSTORE PUSH2 0x1985 DUP2 PUSH2 0x16F4 JUMP JUMPDEST SWAP1 POP SWAP2 SWAP1 POP JUMP JUMPDEST PUSH1 0x0 PUSH1 0x20 DUP3 ADD SWAP1 POP DUP2 DUP2 SUB PUSH1 0x0 DUP4 ADD MSTORE PUSH2 0x19A5 DUP2 PUSH2 0x1717 JUMP JUMPDEST SWAP1 POP SWAP2 SWAP1 POP JUMP JUMPDEST PUSH1 0x0 PUSH1 0x20 DUP3 ADD SWAP1 POP DUP2 DUP2 SUB PUSH1 0x0 DUP4 ADD MSTORE PUSH2 0x19C5 DUP2 PUSH2 0x173A JUMP JUMPDEST SWAP1 POP SWAP2 SWAP1 POP JUMP JUMPDEST PUSH1 0x0 PUSH1 0x20 DUP3 ADD SWAP1 POP DUP2 DUP2 SUB PUSH1 0x0 DUP4 ADD MSTORE PUSH2 0x19E5 DUP2 PUSH2 0x175D JUMP JUMPDEST SWAP1 POP SWAP2 SWAP1 POP JUMP JUMPDEST PUSH1 0x0 PUSH1 0x20 DUP3 ADD SWAP1 POP DUP2 DUP2 SUB PUSH1 0x0 DUP4 ADD MSTORE PUSH2 0x1A05 DUP2 PUSH2 0x1780 JUMP JUMPDEST SWAP1 POP SWAP2 SWAP1 POP JUMP JUMPDEST PUSH1 0x0 PUSH1 0x20 DUP3 ADD SWAP1 POP DUP2 DUP2 SUB PUSH1 0x0 DUP4 ADD MSTORE PUSH2 0x1A25 DUP2 PUSH2 0x17A3 JUMP JUMPDEST SWAP1 POP SWAP2 SWAP1 POP JUMP JUMPDEST PUSH1 0x0 PUSH1 0x20 DUP3 ADD SWAP1 POP DUP2 DUP2 SUB PUSH1 0x0 DUP4 ADD MSTORE PUSH2 0x1A45 DUP2 PUSH2 0x17C6 JUMP JUMPDEST SWAP1 POP SWAP2 SWAP1 POP JUMP JUMPDEST PUSH1 0x0 PUSH1 0x20 DUP3 ADD SWAP1 POP DUP2 DUP2 SUB PUSH1 0x0 DUP4 ADD MSTORE PUSH2 0x1A65 DUP2 PUSH2 0x17E9 JUMP JUMPDEST SWAP1 POP SWAP2 SWAP1 POP JUMP JUMPDEST PUSH1 0x0 PUSH1 0x20 DUP3 ADD SWAP1 POP DUP2 DUP2 SUB PUSH1 0x0 DUP4 ADD MSTORE PUSH2 0x1A85 DUP2 PUSH2 0x180C JUMP JUMPDEST SWAP1 POP SWAP2 SWAP1 POP JUMP JUMPDEST PUSH1 0x0 PUSH1 0x20 DUP3 ADD SWAP1 POP DUP2 DUP2 SUB PUSH1 0x0 DUP4 ADD MSTORE PUSH2 0x1AA5 DUP2 PUSH2 0x182F JUMP JUMPDEST SWAP1 POP SWAP2 SWAP1 POP JUMP JUMPDEST PUSH1 0x0 PUSH1 0x20 DUP3 ADD SWAP1 POP PUSH2 0x1AC1 PUSH1 0x0 DUP4 ADD DUP5 PUSH2 0x1852 JUMP JUMPDEST SWAP3 SWAP2 POP POP JUMP JUMPDEST PUSH1 0x0 DUP3 DUP3 MSTORE PUSH1 0x20 DUP3 ADD SWAP1 POP SWAP3 SWAP2 POP POP JUMP JUMPDEST PUSH1 0x0 PUSH2 0x1AE3 DUP3 PUSH2 0x1C1E JUMP JUMPDEST SWAP2 POP PUSH2 0x1AEE DUP4 PUSH2 0x1C1E JUMP JUMPDEST SWAP3 POP DUP3 PUSH32 0xFFFFFFFFFFFFFFFFFFFFFFFFFFFFFFFFFFFFFFFFFFFFFFFFFFFFFFFFFFFFFFFF SUB DUP3 GT ISZERO PUSH2 0x1B23 JUMPI PUSH2 0x1B22 PUSH2 0x1C91 JUMP JUMPDEST JUMPDEST DUP3 DUP3 ADD SWAP1 POP SWAP3 SWAP2 POP POP JUMP JUMPDEST PUSH1 0x0 PUSH2 0x1B39 DUP3 PUSH2 0x1C1E JUMP JUMPDEST SWAP2 POP PUSH2 0x1B44 DUP4 PUSH2 0x1C1E JUMP JUMPDEST SWAP3 POP DUP2 PUSH32 0xFFFFFFFFFFFFFFFFFFFFFFFFFFFFFFFFFFFFFFFFFFFFFFFFFFFFFFFFFFFFFFFF DIV DUP4 GT DUP3 ISZERO ISZERO AND ISZERO PUSH2 0x1B7D JUMPI PUSH2 0x1B7C PUSH2 0x1C91 JUMP JUMPDEST JUMPDEST DUP3 DUP3 MUL SWAP1 POP SWAP3 SWAP2 POP POP JUMP JUMPDEST PUSH1 0x0 PUSH2 0x1B93 DUP3 PUSH2 0x1C1E JUMP JUMPDEST SWAP2 POP PUSH2 0x1B9E DUP4 PUSH2 0x1C1E JUMP JUMPDEST SWAP3 POP DUP3 DUP3 LT ISZERO PUSH2 0x1BB1 JUMPI PUSH2 0x1BB0 PUSH2 0x1C91 JUMP JUMPDEST JUMPDEST DUP3 DUP3 SUB SWAP1 POP SWAP3 SWAP2 POP POP JUMP JUMPDEST PUSH1 0x0 PUSH2 0x1BC7 DUP3 PUSH2 0x1BFE JUMP JUMPDEST SWAP1 POP SWAP2 SWAP1 POP JUMP JUMPDEST PUSH1 0x0 DUP2 SWAP1 POP SWAP2 SWAP1 POP JUMP JUMPDEST PUSH1 0x0 DUP2 SWAP1 POP PUSH2 0x1BE6 DUP3 PUSH2 0x1FA4 JUMP JUMPDEST SWAP2 SWAP1 POP JUMP JUMPDEST PUSH1 0x0 DUP2 SWAP1 POP PUSH2 0x1BF9 DUP3 PUSH2 0x1FB8 JUMP JUMPDEST SWAP2 SWAP1 POP JUMP JUMPDEST PUSH1 0x0 PUSH20 0xFFFFFFFFFFFFFFFFFFFFFFFFFFFFFFFFFFFFFFFF DUP3 AND SWAP1 POP SWAP2 SWAP1 POP JUMP JUMPDEST PUSH1 0x0 DUP2 SWAP1 POP SWAP2 SWAP1 POP JUMP JUMPDEST PUSH1 0x0 PUSH2 0x1C33 DUP3 PUSH2 0x1BD8 JUMP JUMPDEST SWAP1 POP SWAP2 SWAP1 POP JUMP JUMPDEST PUSH1 0x0 PUSH2 0x1C45 DUP3 PUSH2 0x1BEB JUMP JUMPDEST SWAP1 POP SWAP2 SWAP1 POP JUMP JUMPDEST PUSH1 0x0 DUP2 SWAP1 POP SWAP2 SWAP1 POP JUMP JUMPDEST PUSH1 0x0 DUP2 SWAP1 POP SWAP2 SWAP1 POP JUMP JUMPDEST PUSH1 0x0 PUSH2 0x1C6B DUP3 PUSH2 0x1C1E JUMP JUMPDEST SWAP2 POP PUSH2 0x1C76 DUP4 PUSH2 0x1C1E JUMP JUMPDEST SWAP3 POP DUP3 PUSH2 0x1C86 JUMPI PUSH2 0x1C85 PUSH2 0x1CC0 JUMP JUMPDEST JUMPDEST DUP3 DUP3 MOD SWAP1 POP SWAP3 SWAP2 POP POP JUMP JUMPDEST PUSH32 0x4E487B7100000000000000000000000000000000000000000000000000000000 PUSH1 0x0 MSTORE PUSH1 0x11 PUSH1 0x4 MSTORE PUSH1 0x24 PUSH1 0x0 REVERT JUMPDEST PUSH32 0x4E487B7100000000000000000000000000000000000000000000000000000000 PUSH1 0x0 MSTORE PUSH1 0x12 PUSH1 0x4 MSTORE PUSH1 0x24 PUSH1 0x0 REVERT JUMPDEST PUSH32 0x4E487B7100000000000000000000000000000000000000000000000000000000 PUSH1 0x0 MSTORE PUSH1 0x21 PUSH1 0x4 MSTORE PUSH1 0x24 PUSH1 0x0 REVERT JUMPDEST PUSH1 0x0 DUP1 REVERT JUMPDEST PUSH32 0x496E76616C69642047616D65204F7574636F6D65000000000000000000000000 PUSH1 0x0 DUP3 ADD MSTORE POP JUMP JUMPDEST PUSH32 0x67616D65206861736820776173206E6F742070726F7669646564000000000000 PUSH1 0x0 DUP3 ADD MSTORE POP JUMP JUMPDEST PUSH32 0x50726F626C656D20776974682061646472657373657300000000000000000000 PUSH1 0x0 DUP3 ADD MSTORE POP JUMP JUMPDEST PUSH32 0x506C61796572732066756E64732061726520696E73756666696369656E740000 PUSH1 0x0 DUP3 ADD MSTORE POP JUMP JUMPDEST PUSH32 0x47616D65206E6F742073746172746564206F722068617320616C726561647920 PUSH1 0x0 DUP3 ADD MSTORE PUSH32 0x6265656E2070617274696369706174656420696E000000000000000000000000 PUSH1 0x20 DUP3 ADD MSTORE POP JUMP JUMPDEST PUSH32 0x47616D6520646F6573206E6F74206578697374206F7220706C61796572205477 PUSH1 0x0 DUP3 ADD MSTORE PUSH32 0x6F20686173206E6F7420706C6163656420612062657420796574000000000000 PUSH1 0x20 DUP3 ADD MSTORE POP JUMP JUMPDEST PUSH32 0x426F746820706C6179657273206E65656420746F2072657665616C2074686569 PUSH1 0x0 DUP3 ADD MSTORE PUSH32 0x722063686F696365206265666F72652067616D652063616E20626520636F6D70 PUSH1 0x20 DUP3 ADD MSTORE PUSH32 0x6C65746564000000000000000000000000000000000000000000000000000000 PUSH1 0x40 DUP3 ADD MSTORE POP JUMP JUMPDEST PUSH32 0x50726F626C656D2077697468206F7468657220706C617965722E2E2E00000000 PUSH1 0x0 DUP3 ADD MSTORE POP JUMP JUMPDEST PUSH32 0x50726F626C656D20776974682067616D65207374617475732E2E2E0000000000 PUSH1 0x0 DUP3 ADD MSTORE POP JUMP JUMPDEST PUSH32 0x70726F626C656D20776974682073616C74000000000000000000000000000000 PUSH1 0x0 DUP3 ADD MSTORE POP JUMP JUMPDEST PUSH32 0x596F7520617265206E6F7420506C61796572203220666F722074686973206761 PUSH1 0x0 DUP3 ADD MSTORE PUSH32 0x6D65000000000000000000000000000000000000000000000000000000000000 PUSH1 0x20 DUP3 ADD MSTORE POP JUMP JUMPDEST PUSH1 0x3 DUP2 LT PUSH2 0x1FB5 JUMPI PUSH2 0x1FB4 PUSH2 0x1CEF JUMP JUMPDEST JUMPDEST POP JUMP JUMPDEST PUSH1 0x4 DUP2 LT PUSH2 0x1FC9 JUMPI PUSH2 0x1FC8 PUSH2 0x1CEF JUMP JUMPDEST JUMPDEST POP JUMP JUMPDEST PUSH2 0x1FD5 DUP2 PUSH2 0x1BBC JUMP JUMPDEST DUP2 EQ PUSH2 0x1FE0 JUMPI PUSH1 0x0 DUP1 REVERT JUMPDEST POP JUMP JUMPDEST PUSH2 0x1FEC DUP2 PUSH2 0x1BCE JUMP JUMPDEST DUP2 EQ PUSH2 0x1FF7 JUMPI PUSH1 0x0 DUP1 REVERT JUMPDEST POP JUMP JUMPDEST PUSH2 0x2003 DUP2 PUSH2 0x1C1E JUMP JUMPDEST DUP2 EQ PUSH2 0x200E JUMPI PUSH1 0x0 DUP1 REVERT JUMPDEST POP JUMP INVALID LOG2 PUSH5 0x6970667358 0x22 SLT KECCAK256 GT ORIGIN DUP13 JUMPDEST 0xEE 0x4F EQ EXTCODECOPY LOG4 PUSH11 0x362FFC3E54F19697BAAAEE 0xD0 0xCA BYTE LOG2 CALLDATALOAD PUSH10 0x86495D6C8764736F6C63 NUMBER STOP ADDMOD SMOD STOP CALLER "
				},
				"gasEstimates": {
					"creation": {
						"codeDepositCost": "1652600",
						"executionCost": "1736",
						"totalCost": "1654336"
					},
					"external": {
						"endGame(address)": "infinite",
						"games(address)": "infinite",
						"participateGame(bytes32,address)": "infinite",
						"playerBalances(address)": "2858",
						"revealChoice(uint256,bytes32,address)": "infinite",
						"startGame(bytes32,address,uint256)": "infinite"
					},
					"internal": {
						"getSaltedHash(uint256,bytes32)": "infinite"
					}
				},
				"methodIdentifiers": {
					"endGame(address)": "2a035b6c",
					"games(address)": "79131a19",
					"participateGame(bytes32,address)": "01cf26e3",
					"playerBalances(address)": "7b38314c",
					"revealChoice(uint256,bytes32,address)": "c0dcf648",
					"startGame(bytes32,address,uint256)": "9f799d9c"
				}
			},
			"storageLayout": {
				"storage": [
					{
						"astId": 41,
						"contract": "contracts/RPS.sol:RPS",
						"label": "games",
						"offset": 0,
						"slot": "0",
						"type": "t_mapping(t_address,t_struct(Game)36_storage)"
					},
					{
						"astId": 45,
						"contract": "contracts/RPS.sol:RPS",
						"label": "playerBalances",
						"offset": 0,
						"slot": "1",
						"type": "t_mapping(t_address,t_uint256)"
					}
				],
				"types": {
					"t_address": {
						"encoding": "inplace",
						"label": "address",
						"numberOfBytes": "20"
					},
					"t_bytes32": {
						"encoding": "inplace",
						"label": "bytes32",
						"numberOfBytes": "32"
					},
					"t_enum(GameOutcome)15": {
						"encoding": "inplace",
						"label": "enum RPS.GameOutcome",
						"numberOfBytes": "1"
					},
					"t_enum(GameStatus)11": {
						"encoding": "inplace",
						"label": "enum RPS.GameStatus",
						"numberOfBytes": "1"
					},
					"t_mapping(t_address,t_struct(Game)36_storage)": {
						"encoding": "mapping",
						"key": "t_address",
						"label": "mapping(address => struct RPS.Game)",
						"numberOfBytes": "32",
						"value": "t_struct(Game)36_storage"
					},
					"t_mapping(t_address,t_uint256)": {
						"encoding": "mapping",
						"key": "t_address",
						"label": "mapping(address => uint256)",
						"numberOfBytes": "32",
						"value": "t_uint256"
					},
					"t_struct(Game)36_storage": {
						"encoding": "inplace",
						"label": "struct RPS.Game",
						"members": [
							{
								"astId": 17,
								"contract": "contracts/RPS.sol:RPS",
								"label": "playerOne",
								"offset": 0,
								"slot": "0",
								"type": "t_address"
							},
							{
								"astId": 19,
								"contract": "contracts/RPS.sol:RPS",
								"label": "playerTwo",
								"offset": 0,
								"slot": "1",
								"type": "t_address"
							},
							{
								"astId": 21,
								"contract": "contracts/RPS.sol:RPS",
								"label": "stake",
								"offset": 0,
								"slot": "2",
								"type": "t_uint256"
							},
							{
								"astId": 23,
								"contract": "contracts/RPS.sol:RPS",
								"label": "playerOneChoice",
								"offset": 0,
								"slot": "3",
								"type": "t_uint256"
							},
							{
								"astId": 25,
								"contract": "contracts/RPS.sol:RPS",
								"label": "playerTwoChoice",
								"offset": 0,
								"slot": "4",
								"type": "t_uint256"
							},
							{
								"astId": 27,
								"contract": "contracts/RPS.sol:RPS",
								"label": "playerOneHash",
								"offset": 0,
								"slot": "5",
								"type": "t_bytes32"
							},
							{
								"astId": 29,
								"contract": "contracts/RPS.sol:RPS",
								"label": "playerTwoHash",
								"offset": 0,
								"slot": "6",
								"type": "t_bytes32"
							},
							{
								"astId": 32,
								"contract": "contracts/RPS.sol:RPS",
								"label": "status",
								"offset": 0,
								"slot": "7",
								"type": "t_enum(GameStatus)11"
							},
							{
								"astId": 35,
								"contract": "contracts/RPS.sol:RPS",
								"label": "outcome",
								"offset": 1,
								"slot": "7",
								"type": "t_enum(GameOutcome)15"
							}
						],
						"numberOfBytes": "256"
					},
					"t_uint256": {
						"encoding": "inplace",
						"label": "uint256",
						"numberOfBytes": "32"
					}
				}
			},
			"userdoc": {
				"kind": "user",
				"methods": {},
				"version": 1
			}
		}
	}
}