{
	"contracts/RPS.sol": {
		"RPS": {
			"abi": [
				{
					"anonymous": false,
					"inputs": [
						{
							"indexed": false,
							"internalType": "enum RPS.GameOutcome",
							"name": "",
							"type": "uint8"
						}
					],
					"name": "GetGameOutcome",
					"type": "event"
				},
				{
					"inputs": [],
					"name": "bothCommitted",
					"outputs": [
						{
							"internalType": "bool",
							"name": "",
							"type": "bool"
						}
					],
					"stateMutability": "view",
					"type": "function"
				},
				{
					"inputs": [],
					"name": "bothRevealed",
					"outputs": [
						{
							"internalType": "bool",
							"name": "",
							"type": "bool"
						}
					],
					"stateMutability": "view",
					"type": "function"
				},
				{
					"inputs": [
						{
							"internalType": "bytes32",
							"name": "gameHash",
							"type": "bytes32"
						}
					],
					"name": "commitMove",
					"outputs": [
						{
							"internalType": "bool",
							"name": "",
							"type": "bool"
						}
					],
					"stateMutability": "nonpayable",
					"type": "function"
				},
				{
					"inputs": [],
					"name": "endGames",
					"outputs": [
						{
							"internalType": "enum RPS.GameOutcome",
							"name": "",
							"type": "uint8"
						}
					],
					"stateMutability": "nonpayable",
					"type": "function"
				},
				{
					"inputs": [],
					"name": "getContractBalance",
					"outputs": [
						{
							"internalType": "uint256",
							"name": "",
							"type": "uint256"
						}
					],
					"stateMutability": "view",
					"type": "function"
				},
				{
					"inputs": [],
					"name": "outcome",
					"outputs": [
						{
							"internalType": "enum RPS.GameOutcome",
							"name": "",
							"type": "uint8"
						}
					],
					"stateMutability": "view",
					"type": "function"
				},
				{
					"inputs": [],
					"name": "regPlayer",
					"outputs": [
						{
							"internalType": "uint256",
							"name": "",
							"type": "uint256"
						}
					],
					"stateMutability": "payable",
					"type": "function"
				},
				{
					"inputs": [
						{
							"internalType": "uint256",
							"name": "choice",
							"type": "uint256"
						},
						{
							"internalType": "bytes32",
							"name": "salt",
							"type": "bytes32"
						}
					],
					"name": "revealChoice",
					"outputs": [
						{
							"internalType": "enum RPS.GameChoice",
							"name": "",
							"type": "uint8"
						}
					],
					"stateMutability": "nonpayable",
					"type": "function"
				},
				{
					"inputs": [],
					"name": "stake",
					"outputs": [
						{
							"internalType": "uint256",
							"name": "",
							"type": "uint256"
						}
					],
					"stateMutability": "view",
					"type": "function"
				}
			],
			"devdoc": {
				"kind": "dev",
				"methods": {},
				"version": 1
			},
			"evm": {
				"assembly": "    /* \"contracts/RPS.sol\":75:4406  contract RPS {... */\n  mstore(0x40, 0x80)\n  callvalue\n  dup1\n  iszero\n  tag_1\n  jumpi\n  0x00\n  dup1\n  revert\ntag_1:\n  pop\n  dataSize(sub_0)\n  dup1\n  dataOffset(sub_0)\n  0x00\n  codecopy\n  0x00\n  return\nstop\n\nsub_0: assembly {\n        /* \"contracts/RPS.sol\":75:4406  contract RPS {... */\n      mstore(0x40, 0x80)\n      jumpi(tag_1, lt(calldatasize, 0x04))\n      shr(0xe0, calldataload(0x00))\n      dup1\n      0x43445ca8\n      gt\n      tag_11\n      jumpi\n      dup1\n      0x43445ca8\n      eq\n      tag_6\n      jumpi\n      dup1\n      0x6f9fb98a\n      eq\n      tag_7\n      jumpi\n      dup1\n      0x8c10bb96\n      eq\n      tag_8\n      jumpi\n      dup1\n      0x92c90480\n      eq\n      tag_9\n      jumpi\n      dup1\n      0xa9ea37b6\n      eq\n      tag_10\n      jumpi\n      jump(tag_1)\n    tag_11:\n      dup1\n      0x11b0af15\n      eq\n      tag_2\n      jumpi\n      dup1\n      0x20737796\n      eq\n      tag_3\n      jumpi\n      dup1\n      0x27793f87\n      eq\n      tag_4\n      jumpi\n      dup1\n      0x3a4b66f1\n      eq\n      tag_5\n      jumpi\n    tag_1:\n      0x00\n      dup1\n      revert\n        /* \"contracts/RPS.sol\":3010:3570  function endGames() external revealed returns(GameOutcome) {... */\n    tag_2:\n      callvalue\n      dup1\n      iszero\n      tag_12\n      jumpi\n      0x00\n      dup1\n      revert\n    tag_12:\n      pop\n      tag_13\n      tag_14\n      jump\t// in\n    tag_13:\n      mload(0x40)\n      tag_15\n      swap2\n      swap1\n      tag_16\n      jump\t// in\n    tag_15:\n      mload(0x40)\n      dup1\n      swap2\n      sub\n      swap1\n      return\n        /* \"contracts/RPS.sol\":1608:1971  function regPlayer() public payable validBet notRegistered returns (uint) {... */\n    tag_3:\n      tag_17\n      tag_18\n      jump\t// in\n    tag_17:\n      mload(0x40)\n      tag_19\n      swap2\n      swap1\n      tag_20\n      jump\t// in\n    tag_19:\n      mload(0x40)\n      dup1\n      swap2\n      sub\n      swap1\n      return\n        /* \"contracts/RPS.sol\":425:451  GameOutcome public outcome */\n    tag_4:\n      callvalue\n      dup1\n      iszero\n      tag_21\n      jumpi\n      0x00\n      dup1\n      revert\n    tag_21:\n      pop\n      tag_22\n      tag_23\n      jump\t// in\n    tag_22:\n      mload(0x40)\n      tag_24\n      swap2\n      swap1\n      tag_16\n      jump\t// in\n    tag_24:\n      mload(0x40)\n      dup1\n      swap2\n      sub\n      swap1\n      return\n        /* \"contracts/RPS.sol\":402:419  uint public stake */\n    tag_5:\n      callvalue\n      dup1\n      iszero\n      tag_25\n      jumpi\n      0x00\n      dup1\n      revert\n    tag_25:\n      pop\n      tag_26\n      tag_27\n      jump\t// in\n    tag_26:\n      mload(0x40)\n      tag_28\n      swap2\n      swap1\n      tag_20\n      jump\t// in\n    tag_28:\n      mload(0x40)\n      dup1\n      swap2\n      sub\n      swap1\n      return\n        /* \"contracts/RPS.sol\":4255:4404  function bothRevealed() public view returns (bool) {... */\n    tag_6:\n      callvalue\n      dup1\n      iszero\n      tag_29\n      jumpi\n      0x00\n      dup1\n      revert\n    tag_29:\n      pop\n      tag_30\n      tag_31\n      jump\t// in\n    tag_30:\n      mload(0x40)\n      tag_32\n      swap2\n      swap1\n      tag_33\n      jump\t// in\n    tag_32:\n      mload(0x40)\n      dup1\n      swap2\n      sub\n      swap1\n      return\n        /* \"contracts/RPS.sol\":4019:4121  function getContractBalance() public view returns (uint) {... */\n    tag_7:\n      callvalue\n      dup1\n      iszero\n      tag_34\n      jumpi\n      0x00\n      dup1\n      revert\n    tag_34:\n      pop\n      tag_35\n      tag_36\n      jump\t// in\n    tag_35:\n      mload(0x40)\n      tag_37\n      swap2\n      swap1\n      tag_20\n      jump\t// in\n    tag_37:\n      mload(0x40)\n      dup1\n      swap2\n      sub\n      swap1\n      return\n        /* \"contracts/RPS.sol\":2370:3004  function revealChoice(uint choice, bytes32 salt) public hasRegistered correctChoice(choice) committed returns (GameChoice) {... */\n    tag_8:\n      callvalue\n      dup1\n      iszero\n      tag_38\n      jumpi\n      0x00\n      dup1\n      revert\n    tag_38:\n      pop\n      tag_39\n      0x04\n      dup1\n      calldatasize\n      sub\n      dup2\n      add\n      swap1\n      tag_40\n      swap2\n      swap1\n      tag_41\n      jump\t// in\n    tag_40:\n      tag_42\n      jump\t// in\n    tag_39:\n      mload(0x40)\n      tag_43\n      swap2\n      swap1\n      tag_44\n      jump\t// in\n    tag_43:\n      mload(0x40)\n      dup1\n      swap2\n      sub\n      swap1\n      return\n        /* \"contracts/RPS.sol\":4127:4249  function bothCommitted() public view returns (bool) {... */\n    tag_9:\n      callvalue\n      dup1\n      iszero\n      tag_45\n      jumpi\n      0x00\n      dup1\n      revert\n    tag_45:\n      pop\n      tag_46\n      tag_47\n      jump\t// in\n    tag_46:\n      mload(0x40)\n      tag_48\n      swap2\n      swap1\n      tag_33\n      jump\t// in\n    tag_48:\n      mload(0x40)\n      dup1\n      swap2\n      sub\n      swap1\n      return\n        /* \"contracts/RPS.sol\":1977:2364  function commitMove(bytes32 gameHash) public hasRegistered hashProvided(gameHash) returns (bool) {... */\n    tag_10:\n      callvalue\n      dup1\n      iszero\n      tag_49\n      jumpi\n      0x00\n      dup1\n      revert\n    tag_49:\n      pop\n      tag_50\n      0x04\n      dup1\n      calldatasize\n      sub\n      dup2\n      add\n      swap1\n      tag_51\n      swap2\n      swap1\n      tag_52\n      jump\t// in\n    tag_51:\n      tag_53\n      jump\t// in\n    tag_50:\n      mload(0x40)\n      tag_54\n      swap2\n      swap1\n      tag_33\n      jump\t// in\n    tag_54:\n      mload(0x40)\n      dup1\n      swap2\n      sub\n      swap1\n      return\n        /* \"contracts/RPS.sol\":3010:3570  function endGames() external revealed returns(GameOutcome) {... */\n    tag_14:\n        /* \"contracts/RPS.sol\":3056:3067  GameOutcome */\n      0x00\n        /* \"contracts/RPS.sol\":1530:1545  GameChoice.none */\n      dup1\n        /* \"contracts/RPS.sol\":1511:1545  playerOneChoice != GameChoice.none */\n      0x03\n      dup2\n      gt\n      iszero\n      tag_56\n      jumpi\n      tag_57\n      tag_58\n      jump\t// in\n    tag_57:\n    tag_56:\n        /* \"contracts/RPS.sol\":1511:1526  playerOneChoice */\n      0x03\n      0x01\n      swap1\n      sload\n      swap1\n      0x0100\n      exp\n      swap1\n      div\n      0xff\n      and\n        /* \"contracts/RPS.sol\":1511:1545  playerOneChoice != GameChoice.none */\n      0x03\n      dup2\n      gt\n      iszero\n      tag_59\n      jumpi\n      tag_60\n      tag_58\n      jump\t// in\n    tag_60:\n    tag_59:\n      eq\n      iszero\n        /* \"contracts/RPS.sol\":1511:1583  playerOneChoice != GameChoice.none && playerTwoChoice != GameChoice.none */\n      dup1\n      iszero\n      tag_61\n      jumpi\n      pop\n        /* \"contracts/RPS.sol\":1568:1583  GameChoice.none */\n      0x00\n        /* \"contracts/RPS.sol\":1549:1583  playerTwoChoice != GameChoice.none */\n      0x03\n      dup2\n      gt\n      iszero\n      tag_62\n      jumpi\n      tag_63\n      tag_58\n      jump\t// in\n    tag_63:\n    tag_62:\n        /* \"contracts/RPS.sol\":1549:1564  playerTwoChoice */\n      0x03\n      0x02\n      swap1\n      sload\n      swap1\n      0x0100\n      exp\n      swap1\n      div\n      0xff\n      and\n        /* \"contracts/RPS.sol\":1549:1583  playerTwoChoice != GameChoice.none */\n      0x03\n      dup2\n      gt\n      iszero\n      tag_64\n      jumpi\n      tag_65\n      tag_58\n      jump\t// in\n    tag_65:\n    tag_64:\n      eq\n      iszero\n        /* \"contracts/RPS.sol\":1511:1583  playerOneChoice != GameChoice.none && playerTwoChoice != GameChoice.none */\n    tag_61:\n        /* \"contracts/RPS.sol\":1503:1584  require(playerOneChoice != GameChoice.none && playerTwoChoice != GameChoice.none) */\n      tag_66\n      jumpi\n      0x00\n      dup1\n      revert\n    tag_66:\n        /* \"contracts/RPS.sol\":3155:3156  3 */\n      0x03\n        /* \"contracts/RPS.sol\":3135:3150  playerTwoChoice */\n      dup1\n      0x02\n      swap1\n      sload\n      swap1\n      0x0100\n      exp\n      swap1\n      div\n      0xff\n      and\n        /* \"contracts/RPS.sol\":3130:3151  uint(playerTwoChoice) */\n      0x03\n      dup2\n      gt\n      iszero\n      tag_68\n      jumpi\n      tag_69\n      tag_58\n      jump\t// in\n    tag_69:\n    tag_68:\n        /* \"contracts/RPS.sol\":3111:3126  playerOneChoice */\n      0x03\n      0x01\n      swap1\n      sload\n      swap1\n      0x0100\n      exp\n      swap1\n      div\n      0xff\n      and\n        /* \"contracts/RPS.sol\":3106:3127  uint(playerOneChoice) */\n      0x03\n      dup2\n      gt\n      iszero\n      tag_70\n      jumpi\n      tag_71\n      tag_58\n      jump\t// in\n    tag_71:\n    tag_70:\n        /* \"contracts/RPS.sol\":3102:3103  3 */\n      0x03\n        /* \"contracts/RPS.sol\":3102:3127  3 + uint(playerOneChoice) */\n      tag_72\n      swap2\n      swap1\n      tag_73\n      jump\t// in\n    tag_72:\n        /* \"contracts/RPS.sol\":3102:3151  3 + uint(playerOneChoice) - uint(playerTwoChoice) */\n      tag_74\n      swap2\n      swap1\n      tag_75\n      jump\t// in\n    tag_74:\n        /* \"contracts/RPS.sol\":3101:3156  (3 + uint(playerOneChoice) - uint(playerTwoChoice)) % 3 */\n      tag_76\n      swap2\n      swap1\n      tag_77\n      jump\t// in\n    tag_76:\n        /* \"contracts/RPS.sol\":3089:3157  GameOutcome((3 + uint(playerOneChoice) - uint(playerTwoChoice)) % 3) */\n      0x02\n      dup2\n      gt\n      iszero\n      tag_78\n      jumpi\n      tag_79\n      tag_58\n      jump\t// in\n    tag_79:\n    tag_78:\n        /* \"contracts/RPS.sol\":3079:3086  outcome */\n      0x03\n      0x00\n        /* \"contracts/RPS.sol\":3079:3157  outcome = GameOutcome((3 + uint(playerOneChoice) - uint(playerTwoChoice)) % 3) */\n      0x0100\n      exp\n      dup2\n      sload\n      dup2\n      0xff\n      mul\n      not\n      and\n      swap1\n      dup4\n      0x02\n      dup2\n      gt\n      iszero\n      tag_80\n      jumpi\n      tag_81\n      tag_58\n      jump\t// in\n    tag_81:\n    tag_80:\n      mul\n      or\n      swap1\n      sstore\n      pop\n        /* \"contracts/RPS.sol\":3183:3204  GameOutcome.playerOne */\n      0x01\n        /* \"contracts/RPS.sol\":3172:3204  outcome == GameOutcome.playerOne */\n      0x02\n      dup2\n      gt\n      iszero\n      tag_82\n      jumpi\n      tag_83\n      tag_58\n      jump\t// in\n    tag_83:\n    tag_82:\n        /* \"contracts/RPS.sol\":3172:3179  outcome */\n      0x03\n      0x00\n      swap1\n      sload\n      swap1\n      0x0100\n      exp\n      swap1\n      div\n      0xff\n      and\n        /* \"contracts/RPS.sol\":3172:3204  outcome == GameOutcome.playerOne */\n      0x02\n      dup2\n      gt\n      iszero\n      tag_84\n      jumpi\n      tag_85\n      tag_58\n      jump\t// in\n    tag_85:\n    tag_84:\n      eq\n        /* \"contracts/RPS.sol\":3168:3493  if (outcome == GameOutcome.playerOne) {... */\n      iszero\n      tag_86\n      jumpi\n        /* \"contracts/RPS.sol\":3220:3229  playerOne */\n      0x00\n      dup1\n      sload\n      swap1\n      0x0100\n      exp\n      swap1\n      div\n      0xffffffffffffffffffffffffffffffffffffffff\n      and\n        /* \"contracts/RPS.sol\":3220:3238  playerOne.transfer */\n      0xffffffffffffffffffffffffffffffffffffffff\n      and\n        /* \"contracts/RPS.sol\":3220:3261  playerOne.transfer(address(this).balance) */\n      0x08fc\n        /* \"contracts/RPS.sol\":3239:3260  address(this).balance */\n      selfbalance\n        /* \"contracts/RPS.sol\":3220:3261  playerOne.transfer(address(this).balance) */\n      swap1\n      dup2\n      iszero\n      mul\n      swap1\n      mload(0x40)\n      0x00\n      mload(0x40)\n      dup1\n      dup4\n      sub\n      dup2\n      dup6\n      dup9\n      dup9\n      call\n      swap4\n      pop\n      pop\n      pop\n      pop\n      iszero\n      dup1\n      iszero\n      tag_88\n      jumpi\n      returndatasize\n      0x00\n      dup1\n      returndatacopy\n      revert(0x00, returndatasize)\n    tag_88:\n      pop\n        /* \"contracts/RPS.sol\":3168:3493  if (outcome == GameOutcome.playerOne) {... */\n      jump(tag_89)\n    tag_86:\n        /* \"contracts/RPS.sol\":3293:3314  GameOutcome.playerTwo */\n      0x02\n        /* \"contracts/RPS.sol\":3282:3314  outcome == GameOutcome.playerTwo */\n      dup1\n      dup2\n      gt\n      iszero\n      tag_90\n      jumpi\n      tag_91\n      tag_58\n      jump\t// in\n    tag_91:\n    tag_90:\n        /* \"contracts/RPS.sol\":3282:3289  outcome */\n      0x03\n      0x00\n      swap1\n      sload\n      swap1\n      0x0100\n      exp\n      swap1\n      div\n      0xff\n      and\n        /* \"contracts/RPS.sol\":3282:3314  outcome == GameOutcome.playerTwo */\n      0x02\n      dup2\n      gt\n      iszero\n      tag_92\n      jumpi\n      tag_93\n      tag_58\n      jump\t// in\n    tag_93:\n    tag_92:\n      eq\n        /* \"contracts/RPS.sol\":3278:3493  if (outcome == GameOutcome.playerTwo) {... */\n      iszero\n      tag_94\n      jumpi\n        /* \"contracts/RPS.sol\":3330:3339  playerTwo */\n      0x01\n      0x00\n      swap1\n      sload\n      swap1\n      0x0100\n      exp\n      swap1\n      div\n      0xffffffffffffffffffffffffffffffffffffffff\n      and\n        /* \"contracts/RPS.sol\":3330:3348  playerTwo.transfer */\n      0xffffffffffffffffffffffffffffffffffffffff\n      and\n        /* \"contracts/RPS.sol\":3330:3371  playerTwo.transfer(address(this).balance) */\n      0x08fc\n        /* \"contracts/RPS.sol\":3349:3370  address(this).balance */\n      selfbalance\n        /* \"contracts/RPS.sol\":3330:3371  playerTwo.transfer(address(this).balance) */\n      swap1\n      dup2\n      iszero\n      mul\n      swap1\n      mload(0x40)\n      0x00\n      mload(0x40)\n      dup1\n      dup4\n      sub\n      dup2\n      dup6\n      dup9\n      dup9\n      call\n      swap4\n      pop\n      pop\n      pop\n      pop\n      iszero\n      dup1\n      iszero\n      tag_96\n      jumpi\n      returndatasize\n      0x00\n      dup1\n      returndatacopy\n      revert(0x00, returndatasize)\n    tag_96:\n      pop\n        /* \"contracts/RPS.sol\":3278:3493  if (outcome == GameOutcome.playerTwo) {... */\n      jump(tag_97)\n    tag_94:\n        /* \"contracts/RPS.sol\":3402:3411  playerOne */\n      0x00\n      dup1\n      sload\n      swap1\n      0x0100\n      exp\n      swap1\n      div\n      0xffffffffffffffffffffffffffffffffffffffff\n      and\n        /* \"contracts/RPS.sol\":3402:3420  playerOne.transfer */\n      0xffffffffffffffffffffffffffffffffffffffff\n      and\n        /* \"contracts/RPS.sol\":3402:3427  playerOne.transfer(stake) */\n      0x08fc\n        /* \"contracts/RPS.sol\":3421:3426  stake */\n      sload(0x02)\n        /* \"contracts/RPS.sol\":3402:3427  playerOne.transfer(stake) */\n      swap1\n      dup2\n      iszero\n      mul\n      swap1\n      mload(0x40)\n      0x00\n      mload(0x40)\n      dup1\n      dup4\n      sub\n      dup2\n      dup6\n      dup9\n      dup9\n      call\n      swap4\n      pop\n      pop\n      pop\n      pop\n      iszero\n      dup1\n      iszero\n      tag_99\n      jumpi\n      returndatasize\n      0x00\n      dup1\n      returndatacopy\n      revert(0x00, returndatasize)\n    tag_99:\n      pop\n        /* \"contracts/RPS.sol\":3441:3450  playerTwo */\n      0x01\n      0x00\n      swap1\n      sload\n      swap1\n      0x0100\n      exp\n      swap1\n      div\n      0xffffffffffffffffffffffffffffffffffffffff\n      and\n        /* \"contracts/RPS.sol\":3441:3459  playerTwo.transfer */\n      0xffffffffffffffffffffffffffffffffffffffff\n      and\n        /* \"contracts/RPS.sol\":3441:3482  playerTwo.transfer(address(this).balance) */\n      0x08fc\n        /* \"contracts/RPS.sol\":3460:3481  address(this).balance */\n      selfbalance\n        /* \"contracts/RPS.sol\":3441:3482  playerTwo.transfer(address(this).balance) */\n      swap1\n      dup2\n      iszero\n      mul\n      swap1\n      mload(0x40)\n      0x00\n      mload(0x40)\n      dup1\n      dup4\n      sub\n      dup2\n      dup6\n      dup9\n      dup9\n      call\n      swap4\n      pop\n      pop\n      pop\n      pop\n      iszero\n      dup1\n      iszero\n      tag_101\n      jumpi\n      returndatasize\n      0x00\n      dup1\n      returndatacopy\n      revert(0x00, returndatasize)\n    tag_101:\n      pop\n        /* \"contracts/RPS.sol\":3278:3493  if (outcome == GameOutcome.playerTwo) {... */\n    tag_97:\n        /* \"contracts/RPS.sol\":3168:3493  if (outcome == GameOutcome.playerOne) {... */\n    tag_89:\n        /* \"contracts/RPS.sol\":3516:3539  GetGameOutcome(outcome) */\n      0x6d1a16000380c9adde391bcb46a92c2ce8c46811cff002ed5dec38dfdc2373cd\n        /* \"contracts/RPS.sol\":3531:3538  outcome */\n      0x03\n      0x00\n      swap1\n      sload\n      swap1\n      0x0100\n      exp\n      swap1\n      div\n      0xff\n      and\n        /* \"contracts/RPS.sol\":3516:3539  GetGameOutcome(outcome) */\n      mload(0x40)\n      tag_102\n      swap2\n      swap1\n      tag_16\n      jump\t// in\n    tag_102:\n      mload(0x40)\n      dup1\n      swap2\n      sub\n      swap1\n      log1\n        /* \"contracts/RPS.sol\":3556:3563  outcome */\n      0x03\n      0x00\n      swap1\n      sload\n      swap1\n      0x0100\n      exp\n      swap1\n      div\n      0xff\n      and\n        /* \"contracts/RPS.sol\":3549:3563  return outcome */\n      swap1\n      pop\n        /* \"contracts/RPS.sol\":3010:3570  function endGames() external revealed returns(GameOutcome) {... */\n      swap1\n      jump\t// out\n        /* \"contracts/RPS.sol\":1608:1971  function regPlayer() public payable validBet notRegistered returns (uint) {... */\n    tag_18:\n        /* \"contracts/RPS.sol\":1676:1680  uint */\n      0x00\n        /* \"contracts/RPS.sol\":118:122  1000 */\n      0x03e8\n        /* \"contracts/RPS.sol\":648:657  msg.value */\n      callvalue\n        /* \"contracts/RPS.sol\":648:668  msg.value >= MIN_BET */\n      lt\n      iszero\n        /* \"contracts/RPS.sol\":640:707  require(msg.value >= MIN_BET, \"Bet is lower than possible minimum\") */\n      tag_104\n      jumpi\n      mload(0x40)\n      0x08c379a000000000000000000000000000000000000000000000000000000000\n      dup2\n      mstore\n      0x04\n      add\n      tag_105\n      swap1\n      tag_106\n      jump\t// in\n    tag_105:\n      mload(0x40)\n      dup1\n      swap2\n      sub\n      swap1\n      revert\n    tag_104:\n        /* \"contracts/RPS.sol\":734:735  0 */\n      0x00\n        /* \"contracts/RPS.sol\":725:730  stake */\n      sload(0x02)\n        /* \"contracts/RPS.sol\":725:735  stake == 0 */\n      eq\n        /* \"contracts/RPS.sol\":725:757  stake == 0 || msg.value >= stake */\n      dup1\n      tag_107\n      jumpi\n      pop\n        /* \"contracts/RPS.sol\":752:757  stake */\n      sload(0x02)\n        /* \"contracts/RPS.sol\":739:748  msg.value */\n      callvalue\n        /* \"contracts/RPS.sol\":739:757  msg.value >= stake */\n      lt\n      iszero\n        /* \"contracts/RPS.sol\":725:757  stake == 0 || msg.value >= stake */\n    tag_107:\n        /* \"contracts/RPS.sol\":717:784  require(stake == 0 || msg.value >= stake, \"Problem with the stake\") */\n      tag_108\n      jumpi\n      mload(0x40)\n      0x08c379a000000000000000000000000000000000000000000000000000000000\n      dup2\n      mstore\n      0x04\n      add\n      tag_109\n      swap1\n      tag_110\n      jump\t// in\n    tag_109:\n      mload(0x40)\n      dup1\n      swap2\n      sub\n      swap1\n      revert\n    tag_108:\n        /* \"contracts/RPS.sol\":865:874  playerOne */\n      0x00\n      dup1\n      sload\n      swap1\n      0x0100\n      exp\n      swap1\n      div\n      0xffffffffffffffffffffffffffffffffffffffff\n      and\n        /* \"contracts/RPS.sol\":851:874  msg.sender != playerOne */\n      0xffffffffffffffffffffffffffffffffffffffff\n      and\n        /* \"contracts/RPS.sol\":851:861  msg.sender */\n      caller\n        /* \"contracts/RPS.sol\":851:874  msg.sender != playerOne */\n      0xffffffffffffffffffffffffffffffffffffffff\n      and\n      eq\n      iszero\n        /* \"contracts/RPS.sol\":851:901  msg.sender != playerOne && msg.sender != playerTwo */\n      dup1\n      iszero\n      tag_112\n      jumpi\n      pop\n        /* \"contracts/RPS.sol\":892:901  playerTwo */\n      0x01\n      0x00\n      swap1\n      sload\n      swap1\n      0x0100\n      exp\n      swap1\n      div\n      0xffffffffffffffffffffffffffffffffffffffff\n      and\n        /* \"contracts/RPS.sol\":878:901  msg.sender != playerTwo */\n      0xffffffffffffffffffffffffffffffffffffffff\n      and\n        /* \"contracts/RPS.sol\":878:888  msg.sender */\n      caller\n        /* \"contracts/RPS.sol\":878:901  msg.sender != playerTwo */\n      0xffffffffffffffffffffffffffffffffffffffff\n      and\n      eq\n      iszero\n        /* \"contracts/RPS.sol\":851:901  msg.sender != playerOne && msg.sender != playerTwo */\n    tag_112:\n        /* \"contracts/RPS.sol\":843:940  require(msg.sender != playerOne && msg.sender != playerTwo, \"This player has already registered\") */\n      tag_113\n      jumpi\n      mload(0x40)\n      0x08c379a000000000000000000000000000000000000000000000000000000000\n      dup2\n      mstore\n      0x04\n      add\n      tag_114\n      swap1\n      tag_115\n      jump\t// in\n    tag_114:\n      mload(0x40)\n      dup1\n      swap2\n      sub\n      swap1\n      revert\n    tag_113:\n        /* \"contracts/RPS.sol\":1717:1720  0x0 */\n      0x00\n        /* \"contracts/RPS.sol\":1696:1721  playerOne == address(0x0) */\n      0xffffffffffffffffffffffffffffffffffffffff\n      and\n        /* \"contracts/RPS.sol\":1696:1705  playerOne */\n      0x00\n      dup1\n      sload\n      swap1\n      0x0100\n      exp\n      swap1\n      div\n      0xffffffffffffffffffffffffffffffffffffffff\n      and\n        /* \"contracts/RPS.sol\":1696:1721  playerOne == address(0x0) */\n      0xffffffffffffffffffffffffffffffffffffffff\n      and\n      eq\n        /* \"contracts/RPS.sol\":1692:1947  if (playerOne == address(0x0)) {... */\n      iszero\n      tag_117\n      jumpi\n        /* \"contracts/RPS.sol\":1757:1767  msg.sender */\n      caller\n        /* \"contracts/RPS.sol\":1737:1746  playerOne */\n      0x00\n      dup1\n        /* \"contracts/RPS.sol\":1737:1768  playerOne = payable(msg.sender) */\n      0x0100\n      exp\n      dup2\n      sload\n      dup2\n      0xffffffffffffffffffffffffffffffffffffffff\n      mul\n      not\n      and\n      swap1\n      dup4\n      0xffffffffffffffffffffffffffffffffffffffff\n      and\n      mul\n      or\n      swap1\n      sstore\n      pop\n        /* \"contracts/RPS.sol\":1790:1799  msg.value */\n      callvalue\n        /* \"contracts/RPS.sol\":1782:1787  stake */\n      0x02\n        /* \"contracts/RPS.sol\":1782:1799  stake = msg.value */\n      dup2\n      swap1\n      sstore\n      pop\n        /* \"contracts/RPS.sol\":1820:1821  1 */\n      0x01\n        /* \"contracts/RPS.sol\":1813:1821  return 1 */\n      swap1\n      pop\n      jump(tag_116)\n        /* \"contracts/RPS.sol\":1692:1947  if (playerOne == address(0x0)) {... */\n    tag_117:\n        /* \"contracts/RPS.sol\":1863:1866  0x0 */\n      0x00\n        /* \"contracts/RPS.sol\":1842:1867  playerTwo == address(0x0) */\n      0xffffffffffffffffffffffffffffffffffffffff\n      and\n        /* \"contracts/RPS.sol\":1842:1851  playerTwo */\n      0x01\n      0x00\n      swap1\n      sload\n      swap1\n      0x0100\n      exp\n      swap1\n      div\n      0xffffffffffffffffffffffffffffffffffffffff\n      and\n        /* \"contracts/RPS.sol\":1842:1867  playerTwo == address(0x0) */\n      0xffffffffffffffffffffffffffffffffffffffff\n      and\n      eq\n        /* \"contracts/RPS.sol\":1838:1947  if (playerTwo == address(0x0)) {... */\n      iszero\n      tag_119\n      jumpi\n        /* \"contracts/RPS.sol\":1903:1913  msg.sender */\n      caller\n        /* \"contracts/RPS.sol\":1883:1892  playerTwo */\n      0x01\n      0x00\n        /* \"contracts/RPS.sol\":1883:1914  playerTwo = payable(msg.sender) */\n      0x0100\n      exp\n      dup2\n      sload\n      dup2\n      0xffffffffffffffffffffffffffffffffffffffff\n      mul\n      not\n      and\n      swap1\n      dup4\n      0xffffffffffffffffffffffffffffffffffffffff\n      and\n      mul\n      or\n      swap1\n      sstore\n      pop\n        /* \"contracts/RPS.sol\":1935:1936  2 */\n      0x02\n        /* \"contracts/RPS.sol\":1928:1936  return 2 */\n      swap1\n      pop\n      jump(tag_116)\n        /* \"contracts/RPS.sol\":1838:1947  if (playerTwo == address(0x0)) {... */\n    tag_119:\n        /* \"contracts/RPS.sol\":1963:1964  0 */\n      0x00\n        /* \"contracts/RPS.sol\":1956:1964  return 0 */\n      swap1\n      pop\n        /* \"contracts/RPS.sol\":950:951  _ */\n    tag_116:\n        /* \"contracts/RPS.sol\":1608:1971  function regPlayer() public payable validBet notRegistered returns (uint) {... */\n      swap1\n      jump\t// out\n        /* \"contracts/RPS.sol\":425:451  GameOutcome public outcome */\n    tag_23:\n      0x03\n      0x00\n      swap1\n      sload\n      swap1\n      0x0100\n      exp\n      swap1\n      div\n      0xff\n      and\n      dup2\n      jump\t// out\n        /* \"contracts/RPS.sol\":402:419  uint public stake */\n    tag_27:\n      sload(0x02)\n      dup2\n      jump\t// out\n        /* \"contracts/RPS.sol\":4255:4404  function bothRevealed() public view returns (bool) {... */\n    tag_31:\n        /* \"contracts/RPS.sol\":4300:4304  bool */\n      0x00\n        /* \"contracts/RPS.sol\":4343:4358  GameChoice.none */\n      dup1\n        /* \"contracts/RPS.sol\":4324:4358  playerOneChoice != GameChoice.none */\n      0x03\n      dup2\n      gt\n      iszero\n      tag_121\n      jumpi\n      tag_122\n      tag_58\n      jump\t// in\n    tag_122:\n    tag_121:\n        /* \"contracts/RPS.sol\":4324:4339  playerOneChoice */\n      0x03\n      0x01\n      swap1\n      sload\n      swap1\n      0x0100\n      exp\n      swap1\n      div\n      0xff\n      and\n        /* \"contracts/RPS.sol\":4324:4358  playerOneChoice != GameChoice.none */\n      0x03\n      dup2\n      gt\n      iszero\n      tag_123\n      jumpi\n      tag_124\n      tag_58\n      jump\t// in\n    tag_124:\n    tag_123:\n      eq\n      iszero\n        /* \"contracts/RPS.sol\":4324:4396  playerOneChoice != GameChoice.none && playerTwoChoice != GameChoice.none */\n      dup1\n      iszero\n      tag_125\n      jumpi\n      pop\n        /* \"contracts/RPS.sol\":4381:4396  GameChoice.none */\n      0x00\n        /* \"contracts/RPS.sol\":4362:4396  playerTwoChoice != GameChoice.none */\n      0x03\n      dup2\n      gt\n      iszero\n      tag_126\n      jumpi\n      tag_127\n      tag_58\n      jump\t// in\n    tag_127:\n    tag_126:\n        /* \"contracts/RPS.sol\":4362:4377  playerTwoChoice */\n      0x03\n      0x02\n      swap1\n      sload\n      swap1\n      0x0100\n      exp\n      swap1\n      div\n      0xff\n      and\n        /* \"contracts/RPS.sol\":4362:4396  playerTwoChoice != GameChoice.none */\n      0x03\n      dup2\n      gt\n      iszero\n      tag_128\n      jumpi\n      tag_129\n      tag_58\n      jump\t// in\n    tag_129:\n    tag_128:\n      eq\n      iszero\n        /* \"contracts/RPS.sol\":4324:4396  playerOneChoice != GameChoice.none && playerTwoChoice != GameChoice.none */\n    tag_125:\n        /* \"contracts/RPS.sol\":4316:4397  return (playerOneChoice != GameChoice.none && playerTwoChoice != GameChoice.none) */\n      swap1\n      pop\n        /* \"contracts/RPS.sol\":4255:4404  function bothRevealed() public view returns (bool) {... */\n      swap1\n      jump\t// out\n        /* \"contracts/RPS.sol\":4019:4121  function getContractBalance() public view returns (uint) {... */\n    tag_36:\n        /* \"contracts/RPS.sol\":4070:4074  uint */\n      0x00\n        /* \"contracts/RPS.sol\":4093:4114  address(this).balance */\n      selfbalance\n        /* \"contracts/RPS.sol\":4086:4114  return address(this).balance */\n      swap1\n      pop\n        /* \"contracts/RPS.sol\":4019:4121  function getContractBalance() public view returns (uint) {... */\n      swap1\n      jump\t// out\n        /* \"contracts/RPS.sol\":2370:3004  function revealChoice(uint choice, bytes32 salt) public hasRegistered correctChoice(choice) committed returns (GameChoice) {... */\n    tag_42:\n        /* \"contracts/RPS.sol\":2481:2491  GameChoice */\n      0x00\n        /* \"contracts/RPS.sol\":1022:1031  playerOne */\n      dup1\n      0x00\n      swap1\n      sload\n      swap1\n      0x0100\n      exp\n      swap1\n      div\n      0xffffffffffffffffffffffffffffffffffffffff\n      and\n        /* \"contracts/RPS.sol\":1008:1031  msg.sender == playerOne */\n      0xffffffffffffffffffffffffffffffffffffffff\n      and\n        /* \"contracts/RPS.sol\":1008:1018  msg.sender */\n      caller\n        /* \"contracts/RPS.sol\":1008:1031  msg.sender == playerOne */\n      0xffffffffffffffffffffffffffffffffffffffff\n      and\n      eq\n        /* \"contracts/RPS.sol\":1008:1058  msg.sender == playerOne || msg.sender == playerTwo */\n      dup1\n      tag_132\n      jumpi\n      pop\n        /* \"contracts/RPS.sol\":1049:1058  playerTwo */\n      0x01\n      0x00\n      swap1\n      sload\n      swap1\n      0x0100\n      exp\n      swap1\n      div\n      0xffffffffffffffffffffffffffffffffffffffff\n      and\n        /* \"contracts/RPS.sol\":1035:1058  msg.sender == playerTwo */\n      0xffffffffffffffffffffffffffffffffffffffff\n      and\n        /* \"contracts/RPS.sol\":1035:1045  msg.sender */\n      caller\n        /* \"contracts/RPS.sol\":1035:1058  msg.sender == playerTwo */\n      0xffffffffffffffffffffffffffffffffffffffff\n      and\n      eq\n        /* \"contracts/RPS.sol\":1008:1058  msg.sender == playerOne || msg.sender == playerTwo */\n    tag_132:\n        /* \"contracts/RPS.sol\":999:1088  require (msg.sender == playerOne || msg.sender == playerTwo, \"Not registered player yet\") */\n      tag_133\n      jumpi\n      mload(0x40)\n      0x08c379a000000000000000000000000000000000000000000000000000000000\n      dup2\n      mstore\n      0x04\n      add\n      tag_134\n      swap1\n      tag_135\n      jump\t// in\n    tag_134:\n      mload(0x40)\n      dup1\n      swap2\n      sub\n      swap1\n      revert\n    tag_133:\n        /* \"contracts/RPS.sol\":2454:2460  choice */\n      dup3\n        /* \"contracts/RPS.sol\":1304:1305  1 */\n      0x01\n        /* \"contracts/RPS.sol\":1294:1300  choice */\n      dup2\n        /* \"contracts/RPS.sol\":1294:1305  choice >= 1 */\n      lt\n      iszero\n        /* \"contracts/RPS.sol\":1294:1320  choice >= 1 && choice <= 3 */\n      dup1\n      iszero\n      tag_137\n      jumpi\n      pop\n        /* \"contracts/RPS.sol\":1319:1320  3 */\n      0x03\n        /* \"contracts/RPS.sol\":1309:1315  choice */\n      dup2\n        /* \"contracts/RPS.sol\":1309:1320  choice <= 3 */\n      gt\n      iszero\n        /* \"contracts/RPS.sol\":1294:1320  choice >= 1 && choice <= 3 */\n    tag_137:\n        /* \"contracts/RPS.sol\":1285:1341  require (choice >= 1 && choice <= 3, \"Incorrect choice\") */\n      tag_138\n      jumpi\n      mload(0x40)\n      0x08c379a000000000000000000000000000000000000000000000000000000000\n      dup2\n      mstore\n      0x04\n      add\n      tag_139\n      swap1\n      tag_140\n      jump\t// in\n    tag_139:\n      mload(0x40)\n      dup1\n      swap2\n      sub\n      swap1\n      revert\n    tag_138:\n        /* \"contracts/RPS.sol\":1421:1424  0x0 */\n      0x00\n        /* \"contracts/RPS.sol\":1404:1424  playerOneHash != 0x0 */\n      dup1\n      shl\n        /* \"contracts/RPS.sol\":1404:1417  playerOneHash */\n      sload(0x04)\n        /* \"contracts/RPS.sol\":1404:1424  playerOneHash != 0x0 */\n      eq\n      iszero\n        /* \"contracts/RPS.sol\":1404:1448  playerOneHash != 0x0 && playerTwoHash != 0x0 */\n      dup1\n      iszero\n      tag_142\n      jumpi\n      pop\n        /* \"contracts/RPS.sol\":1445:1448  0x0 */\n      0x00\n        /* \"contracts/RPS.sol\":1428:1448  playerTwoHash != 0x0 */\n      dup1\n      shl\n        /* \"contracts/RPS.sol\":1428:1441  playerTwoHash */\n      sload(0x05)\n        /* \"contracts/RPS.sol\":1428:1448  playerTwoHash != 0x0 */\n      eq\n      iszero\n        /* \"contracts/RPS.sol\":1404:1448  playerOneHash != 0x0 && playerTwoHash != 0x0 */\n    tag_142:\n        /* \"contracts/RPS.sol\":1396:1449  require(playerOneHash != 0x0 && playerTwoHash != 0x0) */\n      tag_143\n      jumpi\n      0x00\n      dup1\n      revert\n    tag_143:\n        /* \"contracts/RPS.sol\":2519:2529  msg.sender */\n      caller\n        /* \"contracts/RPS.sol\":2506:2529  playerOne == msg.sender */\n      0xffffffffffffffffffffffffffffffffffffffff\n      and\n        /* \"contracts/RPS.sol\":2506:2515  playerOne */\n      0x00\n      dup1\n      sload\n      swap1\n      0x0100\n      exp\n      swap1\n      div\n      0xffffffffffffffffffffffffffffffffffffffff\n      and\n        /* \"contracts/RPS.sol\":2506:2529  playerOne == msg.sender */\n      0xffffffffffffffffffffffffffffffffffffffff\n      and\n      eq\n        /* \"contracts/RPS.sol\":2503:2998  if(playerOne == msg.sender) {... */\n      iszero\n      tag_145\n      jumpi\n        /* \"contracts/RPS.sol\":2570:2597  getSaltedHash(choice, salt) */\n      tag_146\n        /* \"contracts/RPS.sol\":2584:2590  choice */\n      dup5\n        /* \"contracts/RPS.sol\":2592:2596  salt */\n      dup5\n        /* \"contracts/RPS.sol\":2570:2583  getSaltedHash */\n      tag_147\n        /* \"contracts/RPS.sol\":2570:2597  getSaltedHash(choice, salt) */\n      jump\t// in\n    tag_146:\n        /* \"contracts/RPS.sol\":2553:2566  playerOneHash */\n      sload(0x04)\n        /* \"contracts/RPS.sol\":2553:2597  playerOneHash == getSaltedHash(choice, salt) */\n      eq\n        /* \"contracts/RPS.sol\":2545:2619  require(playerOneHash == getSaltedHash(choice, salt), \"problem with salt\") */\n      tag_148\n      jumpi\n      mload(0x40)\n      0x08c379a000000000000000000000000000000000000000000000000000000000\n      dup2\n      mstore\n      0x04\n      add\n      tag_149\n      swap1\n      tag_150\n      jump\t// in\n    tag_149:\n      mload(0x40)\n      dup1\n      swap2\n      sub\n      swap1\n      revert\n    tag_148:\n        /* \"contracts/RPS.sol\":2662:2668  choice */\n      dup4\n        /* \"contracts/RPS.sol\":2651:2669  GameChoice(choice) */\n      0x03\n      dup2\n      gt\n      iszero\n      tag_151\n      jumpi\n      tag_152\n      tag_58\n      jump\t// in\n    tag_152:\n    tag_151:\n        /* \"contracts/RPS.sol\":2633:2648  playerOneChoice */\n      0x03\n      0x01\n        /* \"contracts/RPS.sol\":2633:2669  playerOneChoice = GameChoice(choice) */\n      0x0100\n      exp\n      dup2\n      sload\n      dup2\n      0xff\n      mul\n      not\n      and\n      swap1\n      dup4\n      0x03\n      dup2\n      gt\n      iszero\n      tag_153\n      jumpi\n      tag_154\n      tag_58\n      jump\t// in\n    tag_154:\n    tag_153:\n      mul\n      or\n      swap1\n      sstore\n      pop\n        /* \"contracts/RPS.sol\":2690:2705  playerOneChoice */\n      0x03\n      0x01\n      swap1\n      sload\n      swap1\n      0x0100\n      exp\n      swap1\n      div\n      0xff\n      and\n        /* \"contracts/RPS.sol\":2683:2705  return playerOneChoice */\n      swap2\n      pop\n      jump(tag_144)\n        /* \"contracts/RPS.sol\":2503:2998  if(playerOne == msg.sender) {... */\n    tag_145:\n        /* \"contracts/RPS.sol\":2738:2748  msg.sender */\n      caller\n        /* \"contracts/RPS.sol\":2725:2748  playerTwo == msg.sender */\n      0xffffffffffffffffffffffffffffffffffffffff\n      and\n        /* \"contracts/RPS.sol\":2725:2734  playerTwo */\n      0x01\n      0x00\n      swap1\n      sload\n      swap1\n      0x0100\n      exp\n      swap1\n      div\n      0xffffffffffffffffffffffffffffffffffffffff\n      and\n        /* \"contracts/RPS.sol\":2725:2748  playerTwo == msg.sender */\n      0xffffffffffffffffffffffffffffffffffffffff\n      and\n      eq\n        /* \"contracts/RPS.sol\":2722:2998  if(playerTwo == msg.sender) {... */\n      iszero\n      tag_156\n      jumpi\n        /* \"contracts/RPS.sol\":2789:2816  getSaltedHash(choice, salt) */\n      tag_157\n        /* \"contracts/RPS.sol\":2803:2809  choice */\n      dup5\n        /* \"contracts/RPS.sol\":2811:2815  salt */\n      dup5\n        /* \"contracts/RPS.sol\":2789:2802  getSaltedHash */\n      tag_147\n        /* \"contracts/RPS.sol\":2789:2816  getSaltedHash(choice, salt) */\n      jump\t// in\n    tag_157:\n        /* \"contracts/RPS.sol\":2772:2785  playerTwoHash */\n      sload(0x05)\n        /* \"contracts/RPS.sol\":2772:2816  playerTwoHash == getSaltedHash(choice, salt) */\n      eq\n        /* \"contracts/RPS.sol\":2764:2838  require(playerTwoHash == getSaltedHash(choice, salt), \"problem with salt\") */\n      tag_158\n      jumpi\n      mload(0x40)\n      0x08c379a000000000000000000000000000000000000000000000000000000000\n      dup2\n      mstore\n      0x04\n      add\n      tag_159\n      swap1\n      tag_150\n      jump\t// in\n    tag_159:\n      mload(0x40)\n      dup1\n      swap2\n      sub\n      swap1\n      revert\n    tag_158:\n        /* \"contracts/RPS.sol\":2881:2887  choice */\n      dup4\n        /* \"contracts/RPS.sol\":2870:2888  GameChoice(choice) */\n      0x03\n      dup2\n      gt\n      iszero\n      tag_160\n      jumpi\n      tag_161\n      tag_58\n      jump\t// in\n    tag_161:\n    tag_160:\n        /* \"contracts/RPS.sol\":2852:2867  playerTwoChoice */\n      0x03\n      0x02\n        /* \"contracts/RPS.sol\":2852:2888  playerTwoChoice = GameChoice(choice) */\n      0x0100\n      exp\n      dup2\n      sload\n      dup2\n      0xff\n      mul\n      not\n      and\n      swap1\n      dup4\n      0x03\n      dup2\n      gt\n      iszero\n      tag_162\n      jumpi\n      tag_163\n      tag_58\n      jump\t// in\n    tag_163:\n    tag_162:\n      mul\n      or\n      swap1\n      sstore\n      pop\n        /* \"contracts/RPS.sol\":2909:2924  playerTwoChoice */\n      0x03\n      0x02\n      swap1\n      sload\n      swap1\n      0x0100\n      exp\n      swap1\n      div\n      0xff\n      and\n        /* \"contracts/RPS.sol\":2902:2924  return playerTwoChoice */\n      swap2\n      pop\n      jump(tag_144)\n        /* \"contracts/RPS.sol\":2722:2998  if(playerTwo == msg.sender) {... */\n    tag_156:\n        /* \"contracts/RPS.sol\":2955:2987  revert(\"Problem with addresses\") */\n      mload(0x40)\n      0x08c379a000000000000000000000000000000000000000000000000000000000\n      dup2\n      mstore\n      0x04\n      add\n      tag_165\n      swap1\n      tag_166\n      jump\t// in\n    tag_165:\n      mload(0x40)\n      dup1\n      swap2\n      sub\n      swap1\n      revert\n        /* \"contracts/RPS.sol\":1459:1460  _ */\n    tag_144:\n        /* \"contracts/RPS.sol\":1098:1099  _ */\n      pop\n        /* \"contracts/RPS.sol\":2370:3004  function revealChoice(uint choice, bytes32 salt) public hasRegistered correctChoice(choice) committed returns (GameChoice) {... */\n      swap3\n      swap2\n      pop\n      pop\n      jump\t// out\n        /* \"contracts/RPS.sol\":4127:4249  function bothCommitted() public view returns (bool) {... */\n    tag_47:\n        /* \"contracts/RPS.sol\":4173:4177  bool */\n      0x00\n        /* \"contracts/RPS.sol\":4214:4217  0x0 */\n      dup1\n        /* \"contracts/RPS.sol\":4197:4217  playerOneHash != 0x0 */\n      0x00\n      shl\n        /* \"contracts/RPS.sol\":4197:4210  playerOneHash */\n      sload(0x04)\n        /* \"contracts/RPS.sol\":4197:4217  playerOneHash != 0x0 */\n      eq\n      iszero\n        /* \"contracts/RPS.sol\":4197:4241  playerOneHash != 0x0 && playerTwoHash != 0x0 */\n      dup1\n      iszero\n      tag_168\n      jumpi\n      pop\n        /* \"contracts/RPS.sol\":4238:4241  0x0 */\n      0x00\n        /* \"contracts/RPS.sol\":4221:4241  playerTwoHash != 0x0 */\n      dup1\n      shl\n        /* \"contracts/RPS.sol\":4221:4234  playerTwoHash */\n      sload(0x05)\n        /* \"contracts/RPS.sol\":4221:4241  playerTwoHash != 0x0 */\n      eq\n      iszero\n        /* \"contracts/RPS.sol\":4197:4241  playerOneHash != 0x0 && playerTwoHash != 0x0 */\n    tag_168:\n        /* \"contracts/RPS.sol\":4189:4242  return (playerOneHash != 0x0 && playerTwoHash != 0x0) */\n      swap1\n      pop\n        /* \"contracts/RPS.sol\":4127:4249  function bothCommitted() public view returns (bool) {... */\n      swap1\n      jump\t// out\n        /* \"contracts/RPS.sol\":1977:2364  function commitMove(bytes32 gameHash) public hasRegistered hashProvided(gameHash) returns (bool) {... */\n    tag_53:\n        /* \"contracts/RPS.sol\":2068:2072  bool */\n      0x00\n        /* \"contracts/RPS.sol\":1022:1031  playerOne */\n      dup1\n      0x00\n      swap1\n      sload\n      swap1\n      0x0100\n      exp\n      swap1\n      div\n      0xffffffffffffffffffffffffffffffffffffffff\n      and\n        /* \"contracts/RPS.sol\":1008:1031  msg.sender == playerOne */\n      0xffffffffffffffffffffffffffffffffffffffff\n      and\n        /* \"contracts/RPS.sol\":1008:1018  msg.sender */\n      caller\n        /* \"contracts/RPS.sol\":1008:1031  msg.sender == playerOne */\n      0xffffffffffffffffffffffffffffffffffffffff\n      and\n      eq\n        /* \"contracts/RPS.sol\":1008:1058  msg.sender == playerOne || msg.sender == playerTwo */\n      dup1\n      tag_170\n      jumpi\n      pop\n        /* \"contracts/RPS.sol\":1049:1058  playerTwo */\n      0x01\n      0x00\n      swap1\n      sload\n      swap1\n      0x0100\n      exp\n      swap1\n      div\n      0xffffffffffffffffffffffffffffffffffffffff\n      and\n        /* \"contracts/RPS.sol\":1035:1058  msg.sender == playerTwo */\n      0xffffffffffffffffffffffffffffffffffffffff\n      and\n        /* \"contracts/RPS.sol\":1035:1045  msg.sender */\n      caller\n        /* \"contracts/RPS.sol\":1035:1058  msg.sender == playerTwo */\n      0xffffffffffffffffffffffffffffffffffffffff\n      and\n      eq\n        /* \"contracts/RPS.sol\":1008:1058  msg.sender == playerOne || msg.sender == playerTwo */\n    tag_170:\n        /* \"contracts/RPS.sol\":999:1088  require (msg.sender == playerOne || msg.sender == playerTwo, \"Not registered player yet\") */\n      tag_171\n      jumpi\n      mload(0x40)\n      0x08c379a000000000000000000000000000000000000000000000000000000000\n      dup2\n      mstore\n      0x04\n      add\n      tag_172\n      swap1\n      tag_135\n      jump\t// in\n    tag_172:\n      mload(0x40)\n      dup1\n      swap2\n      sub\n      swap1\n      revert\n    tag_171:\n        /* \"contracts/RPS.sol\":2049:2057  gameHash */\n      dup2\n        /* \"contracts/RPS.sol\":1170:1184  gameHash != \"\" */\n      0x00\n        /* \"contracts/RPS.sol\":1170:1178  gameHash */\n      dup2\n        /* \"contracts/RPS.sol\":1170:1184  gameHash != \"\" */\n      eq\n      iszero\n        /* \"contracts/RPS.sol\":1162:1215  require(gameHash != \"\", \"Game hash was not provided\") */\n      tag_174\n      jumpi\n      mload(0x40)\n      0x08c379a000000000000000000000000000000000000000000000000000000000\n      dup2\n      mstore\n      0x04\n      add\n      tag_175\n      swap1\n      tag_176\n      jump\t// in\n    tag_175:\n      mload(0x40)\n      dup1\n      swap2\n      sub\n      swap1\n      revert\n    tag_174:\n        /* \"contracts/RPS.sol\":2102:2111  playerOne */\n      0x00\n      dup1\n      sload\n      swap1\n      0x0100\n      exp\n      swap1\n      div\n      0xffffffffffffffffffffffffffffffffffffffff\n      and\n        /* \"contracts/RPS.sol\":2088:2111  msg.sender == playerOne */\n      0xffffffffffffffffffffffffffffffffffffffff\n      and\n        /* \"contracts/RPS.sol\":2088:2098  msg.sender */\n      caller\n        /* \"contracts/RPS.sol\":2088:2111  msg.sender == playerOne */\n      0xffffffffffffffffffffffffffffffffffffffff\n      and\n      eq\n        /* \"contracts/RPS.sol\":2088:2135  msg.sender == playerOne && playerOneHash == 0x0 */\n      dup1\n      iszero\n      tag_178\n      jumpi\n      pop\n        /* \"contracts/RPS.sol\":2132:2135  0x0 */\n      0x00\n        /* \"contracts/RPS.sol\":2115:2135  playerOneHash == 0x0 */\n      dup1\n      shl\n        /* \"contracts/RPS.sol\":2115:2128  playerOneHash */\n      sload(0x04)\n        /* \"contracts/RPS.sol\":2115:2135  playerOneHash == 0x0 */\n      eq\n        /* \"contracts/RPS.sol\":2088:2135  msg.sender == playerOne && playerOneHash == 0x0 */\n    tag_178:\n        /* \"contracts/RPS.sol\":2084:2337  if (msg.sender == playerOne && playerOneHash == 0x0) {... */\n      iszero\n      tag_179\n      jumpi\n        /* \"contracts/RPS.sol\":2167:2175  gameHash */\n      dup3\n        /* \"contracts/RPS.sol\":2151:2164  playerOneHash */\n      0x04\n        /* \"contracts/RPS.sol\":2151:2175  playerOneHash = gameHash */\n      dup2\n      swap1\n      sstore\n      pop\n        /* \"contracts/RPS.sol\":2084:2337  if (msg.sender == playerOne && playerOneHash == 0x0) {... */\n      jump(tag_180)\n    tag_179:\n        /* \"contracts/RPS.sol\":2210:2219  playerTwo */\n      0x01\n      0x00\n      swap1\n      sload\n      swap1\n      0x0100\n      exp\n      swap1\n      div\n      0xffffffffffffffffffffffffffffffffffffffff\n      and\n        /* \"contracts/RPS.sol\":2196:2219  msg.sender == playerTwo */\n      0xffffffffffffffffffffffffffffffffffffffff\n      and\n        /* \"contracts/RPS.sol\":2196:2206  msg.sender */\n      caller\n        /* \"contracts/RPS.sol\":2196:2219  msg.sender == playerTwo */\n      0xffffffffffffffffffffffffffffffffffffffff\n      and\n      eq\n        /* \"contracts/RPS.sol\":2196:2243  msg.sender == playerTwo && playerTwoHash == 0x0 */\n      dup1\n      iszero\n      tag_181\n      jumpi\n      pop\n        /* \"contracts/RPS.sol\":2240:2243  0x0 */\n      0x00\n        /* \"contracts/RPS.sol\":2223:2243  playerTwoHash == 0x0 */\n      dup1\n      shl\n        /* \"contracts/RPS.sol\":2223:2236  playerTwoHash */\n      sload(0x05)\n        /* \"contracts/RPS.sol\":2223:2243  playerTwoHash == 0x0 */\n      eq\n        /* \"contracts/RPS.sol\":2196:2243  msg.sender == playerTwo && playerTwoHash == 0x0 */\n    tag_181:\n        /* \"contracts/RPS.sol\":2192:2337  if (msg.sender == playerTwo && playerTwoHash == 0x0) {... */\n      iszero\n      tag_182\n      jumpi\n        /* \"contracts/RPS.sol\":2275:2283  gameHash */\n      dup3\n        /* \"contracts/RPS.sol\":2259:2272  playerTwoHash */\n      0x05\n        /* \"contracts/RPS.sol\":2259:2283  playerTwoHash = gameHash */\n      dup2\n      swap1\n      sstore\n      pop\n        /* \"contracts/RPS.sol\":2192:2337  if (msg.sender == playerTwo && playerTwoHash == 0x0) {... */\n      jump(tag_183)\n    tag_182:\n        /* \"contracts/RPS.sol\":2321:2326  false */\n      0x00\n        /* \"contracts/RPS.sol\":2314:2326  return false */\n      swap2\n      pop\n      jump(tag_177)\n        /* \"contracts/RPS.sol\":2192:2337  if (msg.sender == playerTwo && playerTwoHash == 0x0) {... */\n    tag_183:\n        /* \"contracts/RPS.sol\":2084:2337  if (msg.sender == playerOne && playerOneHash == 0x0) {... */\n    tag_180:\n        /* \"contracts/RPS.sol\":2353:2357  true */\n      0x01\n        /* \"contracts/RPS.sol\":2346:2357  return true */\n      swap2\n      pop\n        /* \"contracts/RPS.sol\":1225:1226  _ */\n    tag_177:\n        /* \"contracts/RPS.sol\":1098:1099  _ */\n      pop\n        /* \"contracts/RPS.sol\":1977:2364  function commitMove(bytes32 gameHash) public hasRegistered hashProvided(gameHash) returns (bool) {... */\n      swap2\n      swap1\n      pop\n      jump\t// out\n        /* \"contracts/RPS.sol\":3867:4013  function getSaltedHash(uint answer, bytes32 salt) internal pure returns (bytes32) {... */\n    tag_147:\n        /* \"contracts/RPS.sol\":3940:3947  bytes32 */\n      0x00\n        /* \"contracts/RPS.sol\":3992:3998  answer */\n      dup3\n        /* \"contracts/RPS.sol\":4000:4004  salt */\n      dup3\n        /* \"contracts/RPS.sol\":3975:4005  abi.encodePacked(answer, salt) */\n      add(0x20, mload(0x40))\n      tag_185\n      swap3\n      swap2\n      swap1\n      tag_186\n      jump\t// in\n    tag_185:\n      mload(0x40)\n      0x20\n      dup2\n      dup4\n      sub\n      sub\n      dup2\n      mstore\n      swap1\n      0x40\n      mstore\n        /* \"contracts/RPS.sol\":3965:4006  keccak256(abi.encodePacked(answer, salt)) */\n      dup1\n      mload\n      swap1\n      0x20\n      add\n      keccak256\n        /* \"contracts/RPS.sol\":3958:4006  return keccak256(abi.encodePacked(answer, salt)) */\n      swap1\n      pop\n        /* \"contracts/RPS.sol\":3867:4013  function getSaltedHash(uint answer, bytes32 salt) internal pure returns (bytes32) {... */\n      swap3\n      swap2\n      pop\n      pop\n      jump\t// out\n        /* \"#utility.yul\":7:146   */\n    tag_188:\n        /* \"#utility.yul\":53:58   */\n      0x00\n        /* \"#utility.yul\":91:97   */\n      dup2\n        /* \"#utility.yul\":78:98   */\n      calldataload\n        /* \"#utility.yul\":69:98   */\n      swap1\n      pop\n        /* \"#utility.yul\":107:140   */\n      tag_190\n        /* \"#utility.yul\":134:139   */\n      dup2\n        /* \"#utility.yul\":107:140   */\n      tag_191\n      jump\t// in\n    tag_190:\n        /* \"#utility.yul\":7:146   */\n      swap3\n      swap2\n      pop\n      pop\n      jump\t// out\n        /* \"#utility.yul\":152:291   */\n    tag_192:\n        /* \"#utility.yul\":198:203   */\n      0x00\n        /* \"#utility.yul\":236:242   */\n      dup2\n        /* \"#utility.yul\":223:243   */\n      calldataload\n        /* \"#utility.yul\":214:243   */\n      swap1\n      pop\n        /* \"#utility.yul\":252:285   */\n      tag_194\n        /* \"#utility.yul\":279:284   */\n      dup2\n        /* \"#utility.yul\":252:285   */\n      tag_195\n      jump\t// in\n    tag_194:\n        /* \"#utility.yul\":152:291   */\n      swap3\n      swap2\n      pop\n      pop\n      jump\t// out\n        /* \"#utility.yul\":297:626   */\n    tag_52:\n        /* \"#utility.yul\":356:362   */\n      0x00\n        /* \"#utility.yul\":405:407   */\n      0x20\n        /* \"#utility.yul\":393:402   */\n      dup3\n        /* \"#utility.yul\":384:391   */\n      dup5\n        /* \"#utility.yul\":380:403   */\n      sub\n        /* \"#utility.yul\":376:408   */\n      slt\n        /* \"#utility.yul\":373:492   */\n      iszero\n      tag_197\n      jumpi\n        /* \"#utility.yul\":411:490   */\n      tag_198\n      tag_199\n      jump\t// in\n    tag_198:\n        /* \"#utility.yul\":373:492   */\n    tag_197:\n        /* \"#utility.yul\":531:532   */\n      0x00\n        /* \"#utility.yul\":556:609   */\n      tag_200\n        /* \"#utility.yul\":601:608   */\n      dup5\n        /* \"#utility.yul\":592:598   */\n      dup3\n        /* \"#utility.yul\":581:590   */\n      dup6\n        /* \"#utility.yul\":577:599   */\n      add\n        /* \"#utility.yul\":556:609   */\n      tag_188\n      jump\t// in\n    tag_200:\n        /* \"#utility.yul\":546:609   */\n      swap2\n      pop\n        /* \"#utility.yul\":502:619   */\n      pop\n        /* \"#utility.yul\":297:626   */\n      swap3\n      swap2\n      pop\n      pop\n      jump\t// out\n        /* \"#utility.yul\":632:1106   */\n    tag_41:\n        /* \"#utility.yul\":700:706   */\n      0x00\n        /* \"#utility.yul\":708:714   */\n      dup1\n        /* \"#utility.yul\":757:759   */\n      0x40\n        /* \"#utility.yul\":745:754   */\n      dup4\n        /* \"#utility.yul\":736:743   */\n      dup6\n        /* \"#utility.yul\":732:755   */\n      sub\n        /* \"#utility.yul\":728:760   */\n      slt\n        /* \"#utility.yul\":725:844   */\n      iszero\n      tag_202\n      jumpi\n        /* \"#utility.yul\":763:842   */\n      tag_203\n      tag_199\n      jump\t// in\n    tag_203:\n        /* \"#utility.yul\":725:844   */\n    tag_202:\n        /* \"#utility.yul\":883:884   */\n      0x00\n        /* \"#utility.yul\":908:961   */\n      tag_204\n        /* \"#utility.yul\":953:960   */\n      dup6\n        /* \"#utility.yul\":944:950   */\n      dup3\n        /* \"#utility.yul\":933:942   */\n      dup7\n        /* \"#utility.yul\":929:951   */\n      add\n        /* \"#utility.yul\":908:961   */\n      tag_192\n      jump\t// in\n    tag_204:\n        /* \"#utility.yul\":898:961   */\n      swap3\n      pop\n        /* \"#utility.yul\":854:971   */\n      pop\n        /* \"#utility.yul\":1010:1012   */\n      0x20\n        /* \"#utility.yul\":1036:1089   */\n      tag_205\n        /* \"#utility.yul\":1081:1088   */\n      dup6\n        /* \"#utility.yul\":1072:1078   */\n      dup3\n        /* \"#utility.yul\":1061:1070   */\n      dup7\n        /* \"#utility.yul\":1057:1079   */\n      add\n        /* \"#utility.yul\":1036:1089   */\n      tag_188\n      jump\t// in\n    tag_205:\n        /* \"#utility.yul\":1026:1089   */\n      swap2\n      pop\n        /* \"#utility.yul\":981:1099   */\n      pop\n        /* \"#utility.yul\":632:1106   */\n      swap3\n      pop\n      swap3\n      swap1\n      pop\n      jump\t// out\n        /* \"#utility.yul\":1112:1221   */\n    tag_206:\n        /* \"#utility.yul\":1193:1214   */\n      tag_208\n        /* \"#utility.yul\":1208:1213   */\n      dup2\n        /* \"#utility.yul\":1193:1214   */\n      tag_209\n      jump\t// in\n    tag_208:\n        /* \"#utility.yul\":1188:1191   */\n      dup3\n        /* \"#utility.yul\":1181:1215   */\n      mstore\n        /* \"#utility.yul\":1112:1221   */\n      pop\n      pop\n      jump\t// out\n        /* \"#utility.yul\":1227:1384   */\n    tag_210:\n        /* \"#utility.yul\":1332:1377   */\n      tag_212\n        /* \"#utility.yul\":1352:1376   */\n      tag_213\n        /* \"#utility.yul\":1370:1375   */\n      dup3\n        /* \"#utility.yul\":1352:1376   */\n      tag_214\n      jump\t// in\n    tag_213:\n        /* \"#utility.yul\":1332:1377   */\n      tag_215\n      jump\t// in\n    tag_212:\n        /* \"#utility.yul\":1327:1330   */\n      dup3\n        /* \"#utility.yul\":1320:1378   */\n      mstore\n        /* \"#utility.yul\":1227:1384   */\n      pop\n      pop\n      jump\t// out\n        /* \"#utility.yul\":1390:1543   */\n    tag_216:\n        /* \"#utility.yul\":1488:1536   */\n      tag_218\n        /* \"#utility.yul\":1530:1535   */\n      dup2\n        /* \"#utility.yul\":1488:1536   */\n      tag_219\n      jump\t// in\n    tag_218:\n        /* \"#utility.yul\":1483:1486   */\n      dup3\n        /* \"#utility.yul\":1476:1537   */\n      mstore\n        /* \"#utility.yul\":1390:1543   */\n      pop\n      pop\n      jump\t// out\n        /* \"#utility.yul\":1549:1704   */\n    tag_220:\n        /* \"#utility.yul\":1648:1697   */\n      tag_222\n        /* \"#utility.yul\":1691:1696   */\n      dup2\n        /* \"#utility.yul\":1648:1697   */\n      tag_223\n      jump\t// in\n    tag_222:\n        /* \"#utility.yul\":1643:1646   */\n      dup3\n        /* \"#utility.yul\":1636:1698   */\n      mstore\n        /* \"#utility.yul\":1549:1704   */\n      pop\n      pop\n      jump\t// out\n        /* \"#utility.yul\":1710:2076   */\n    tag_224:\n        /* \"#utility.yul\":1852:1855   */\n      0x00\n        /* \"#utility.yul\":1873:1940   */\n      tag_226\n        /* \"#utility.yul\":1937:1939   */\n      0x16\n        /* \"#utility.yul\":1932:1935   */\n      dup4\n        /* \"#utility.yul\":1873:1940   */\n      tag_227\n      jump\t// in\n    tag_226:\n        /* \"#utility.yul\":1866:1940   */\n      swap2\n      pop\n        /* \"#utility.yul\":1949:2042   */\n      tag_228\n        /* \"#utility.yul\":2038:2041   */\n      dup3\n        /* \"#utility.yul\":1949:2042   */\n      tag_229\n      jump\t// in\n    tag_228:\n        /* \"#utility.yul\":2067:2069   */\n      0x20\n        /* \"#utility.yul\":2062:2065   */\n      dup3\n        /* \"#utility.yul\":2058:2070   */\n      add\n        /* \"#utility.yul\":2051:2070   */\n      swap1\n      pop\n        /* \"#utility.yul\":1710:2076   */\n      swap2\n      swap1\n      pop\n      jump\t// out\n        /* \"#utility.yul\":2082:2448   */\n    tag_230:\n        /* \"#utility.yul\":2224:2227   */\n      0x00\n        /* \"#utility.yul\":2245:2312   */\n      tag_232\n        /* \"#utility.yul\":2309:2311   */\n      0x19\n        /* \"#utility.yul\":2304:2307   */\n      dup4\n        /* \"#utility.yul\":2245:2312   */\n      tag_227\n      jump\t// in\n    tag_232:\n        /* \"#utility.yul\":2238:2312   */\n      swap2\n      pop\n        /* \"#utility.yul\":2321:2414   */\n      tag_233\n        /* \"#utility.yul\":2410:2413   */\n      dup3\n        /* \"#utility.yul\":2321:2414   */\n      tag_234\n      jump\t// in\n    tag_233:\n        /* \"#utility.yul\":2439:2441   */\n      0x20\n        /* \"#utility.yul\":2434:2437   */\n      dup3\n        /* \"#utility.yul\":2430:2442   */\n      add\n        /* \"#utility.yul\":2423:2442   */\n      swap1\n      pop\n        /* \"#utility.yul\":2082:2448   */\n      swap2\n      swap1\n      pop\n      jump\t// out\n        /* \"#utility.yul\":2454:2820   */\n    tag_235:\n        /* \"#utility.yul\":2596:2599   */\n      0x00\n        /* \"#utility.yul\":2617:2684   */\n      tag_237\n        /* \"#utility.yul\":2681:2683   */\n      0x22\n        /* \"#utility.yul\":2676:2679   */\n      dup4\n        /* \"#utility.yul\":2617:2684   */\n      tag_227\n      jump\t// in\n    tag_237:\n        /* \"#utility.yul\":2610:2684   */\n      swap2\n      pop\n        /* \"#utility.yul\":2693:2786   */\n      tag_238\n        /* \"#utility.yul\":2782:2785   */\n      dup3\n        /* \"#utility.yul\":2693:2786   */\n      tag_239\n      jump\t// in\n    tag_238:\n        /* \"#utility.yul\":2811:2813   */\n      0x40\n        /* \"#utility.yul\":2806:2809   */\n      dup3\n        /* \"#utility.yul\":2802:2814   */\n      add\n        /* \"#utility.yul\":2795:2814   */\n      swap1\n      pop\n        /* \"#utility.yul\":2454:2820   */\n      swap2\n      swap1\n      pop\n      jump\t// out\n        /* \"#utility.yul\":2826:3192   */\n    tag_240:\n        /* \"#utility.yul\":2968:2971   */\n      0x00\n        /* \"#utility.yul\":2989:3056   */\n      tag_242\n        /* \"#utility.yul\":3053:3055   */\n      0x10\n        /* \"#utility.yul\":3048:3051   */\n      dup4\n        /* \"#utility.yul\":2989:3056   */\n      tag_227\n      jump\t// in\n    tag_242:\n        /* \"#utility.yul\":2982:3056   */\n      swap2\n      pop\n        /* \"#utility.yul\":3065:3158   */\n      tag_243\n        /* \"#utility.yul\":3154:3157   */\n      dup3\n        /* \"#utility.yul\":3065:3158   */\n      tag_244\n      jump\t// in\n    tag_243:\n        /* \"#utility.yul\":3183:3185   */\n      0x20\n        /* \"#utility.yul\":3178:3181   */\n      dup3\n        /* \"#utility.yul\":3174:3186   */\n      add\n        /* \"#utility.yul\":3167:3186   */\n      swap1\n      pop\n        /* \"#utility.yul\":2826:3192   */\n      swap2\n      swap1\n      pop\n      jump\t// out\n        /* \"#utility.yul\":3198:3564   */\n    tag_245:\n        /* \"#utility.yul\":3340:3343   */\n      0x00\n        /* \"#utility.yul\":3361:3428   */\n      tag_247\n        /* \"#utility.yul\":3425:3427   */\n      0x1a\n        /* \"#utility.yul\":3420:3423   */\n      dup4\n        /* \"#utility.yul\":3361:3428   */\n      tag_227\n      jump\t// in\n    tag_247:\n        /* \"#utility.yul\":3354:3428   */\n      swap2\n      pop\n        /* \"#utility.yul\":3437:3530   */\n      tag_248\n        /* \"#utility.yul\":3526:3529   */\n      dup3\n        /* \"#utility.yul\":3437:3530   */\n      tag_249\n      jump\t// in\n    tag_248:\n        /* \"#utility.yul\":3555:3557   */\n      0x20\n        /* \"#utility.yul\":3550:3553   */\n      dup3\n        /* \"#utility.yul\":3546:3558   */\n      add\n        /* \"#utility.yul\":3539:3558   */\n      swap1\n      pop\n        /* \"#utility.yul\":3198:3564   */\n      swap2\n      swap1\n      pop\n      jump\t// out\n        /* \"#utility.yul\":3570:3936   */\n    tag_250:\n        /* \"#utility.yul\":3712:3715   */\n      0x00\n        /* \"#utility.yul\":3733:3800   */\n      tag_252\n        /* \"#utility.yul\":3797:3799   */\n      0x11\n        /* \"#utility.yul\":3792:3795   */\n      dup4\n        /* \"#utility.yul\":3733:3800   */\n      tag_227\n      jump\t// in\n    tag_252:\n        /* \"#utility.yul\":3726:3800   */\n      swap2\n      pop\n        /* \"#utility.yul\":3809:3902   */\n      tag_253\n        /* \"#utility.yul\":3898:3901   */\n      dup3\n        /* \"#utility.yul\":3809:3902   */\n      tag_254\n      jump\t// in\n    tag_253:\n        /* \"#utility.yul\":3927:3929   */\n      0x20\n        /* \"#utility.yul\":3922:3925   */\n      dup3\n        /* \"#utility.yul\":3918:3930   */\n      add\n        /* \"#utility.yul\":3911:3930   */\n      swap1\n      pop\n        /* \"#utility.yul\":3570:3936   */\n      swap2\n      swap1\n      pop\n      jump\t// out\n        /* \"#utility.yul\":3942:4308   */\n    tag_255:\n        /* \"#utility.yul\":4084:4087   */\n      0x00\n        /* \"#utility.yul\":4105:4172   */\n      tag_257\n        /* \"#utility.yul\":4169:4171   */\n      0x22\n        /* \"#utility.yul\":4164:4167   */\n      dup4\n        /* \"#utility.yul\":4105:4172   */\n      tag_227\n      jump\t// in\n    tag_257:\n        /* \"#utility.yul\":4098:4172   */\n      swap2\n      pop\n        /* \"#utility.yul\":4181:4274   */\n      tag_258\n        /* \"#utility.yul\":4270:4273   */\n      dup3\n        /* \"#utility.yul\":4181:4274   */\n      tag_259\n      jump\t// in\n    tag_258:\n        /* \"#utility.yul\":4299:4301   */\n      0x40\n        /* \"#utility.yul\":4294:4297   */\n      dup3\n        /* \"#utility.yul\":4290:4302   */\n      add\n        /* \"#utility.yul\":4283:4302   */\n      swap1\n      pop\n        /* \"#utility.yul\":3942:4308   */\n      swap2\n      swap1\n      pop\n      jump\t// out\n        /* \"#utility.yul\":4314:4680   */\n    tag_260:\n        /* \"#utility.yul\":4456:4459   */\n      0x00\n        /* \"#utility.yul\":4477:4544   */\n      tag_262\n        /* \"#utility.yul\":4541:4543   */\n      0x16\n        /* \"#utility.yul\":4536:4539   */\n      dup4\n        /* \"#utility.yul\":4477:4544   */\n      tag_227\n      jump\t// in\n    tag_262:\n        /* \"#utility.yul\":4470:4544   */\n      swap2\n      pop\n        /* \"#utility.yul\":4553:4646   */\n      tag_263\n        /* \"#utility.yul\":4642:4645   */\n      dup3\n        /* \"#utility.yul\":4553:4646   */\n      tag_264\n      jump\t// in\n    tag_263:\n        /* \"#utility.yul\":4671:4673   */\n      0x20\n        /* \"#utility.yul\":4666:4669   */\n      dup3\n        /* \"#utility.yul\":4662:4674   */\n      add\n        /* \"#utility.yul\":4655:4674   */\n      swap1\n      pop\n        /* \"#utility.yul\":4314:4680   */\n      swap2\n      swap1\n      pop\n      jump\t// out\n        /* \"#utility.yul\":4686:4804   */\n    tag_265:\n        /* \"#utility.yul\":4773:4797   */\n      tag_267\n        /* \"#utility.yul\":4791:4796   */\n      dup2\n        /* \"#utility.yul\":4773:4797   */\n      tag_268\n      jump\t// in\n    tag_267:\n        /* \"#utility.yul\":4768:4771   */\n      dup3\n        /* \"#utility.yul\":4761:4798   */\n      mstore\n        /* \"#utility.yul\":4686:4804   */\n      pop\n      pop\n      jump\t// out\n        /* \"#utility.yul\":4810:4967   */\n    tag_269:\n        /* \"#utility.yul\":4915:4960   */\n      tag_271\n        /* \"#utility.yul\":4935:4959   */\n      tag_272\n        /* \"#utility.yul\":4953:4958   */\n      dup3\n        /* \"#utility.yul\":4935:4959   */\n      tag_268\n      jump\t// in\n    tag_272:\n        /* \"#utility.yul\":4915:4960   */\n      tag_273\n      jump\t// in\n    tag_271:\n        /* \"#utility.yul\":4910:4913   */\n      dup3\n        /* \"#utility.yul\":4903:4961   */\n      mstore\n        /* \"#utility.yul\":4810:4967   */\n      pop\n      pop\n      jump\t// out\n        /* \"#utility.yul\":4973:5370   */\n    tag_186:\n        /* \"#utility.yul\":5113:5116   */\n      0x00\n        /* \"#utility.yul\":5128:5203   */\n      tag_275\n        /* \"#utility.yul\":5199:5202   */\n      dup3\n        /* \"#utility.yul\":5190:5196   */\n      dup6\n        /* \"#utility.yul\":5128:5203   */\n      tag_269\n      jump\t// in\n    tag_275:\n        /* \"#utility.yul\":5228:5230   */\n      0x20\n        /* \"#utility.yul\":5223:5226   */\n      dup3\n        /* \"#utility.yul\":5219:5231   */\n      add\n        /* \"#utility.yul\":5212:5231   */\n      swap2\n      pop\n        /* \"#utility.yul\":5241:5316   */\n      tag_276\n        /* \"#utility.yul\":5312:5315   */\n      dup3\n        /* \"#utility.yul\":5303:5309   */\n      dup5\n        /* \"#utility.yul\":5241:5316   */\n      tag_210\n      jump\t// in\n    tag_276:\n        /* \"#utility.yul\":5341:5343   */\n      0x20\n        /* \"#utility.yul\":5336:5339   */\n      dup3\n        /* \"#utility.yul\":5332:5344   */\n      add\n        /* \"#utility.yul\":5325:5344   */\n      swap2\n      pop\n        /* \"#utility.yul\":5361:5364   */\n      dup2\n        /* \"#utility.yul\":5354:5364   */\n      swap1\n      pop\n        /* \"#utility.yul\":4973:5370   */\n      swap4\n      swap3\n      pop\n      pop\n      pop\n      jump\t// out\n        /* \"#utility.yul\":5376:5586   */\n    tag_33:\n        /* \"#utility.yul\":5463:5467   */\n      0x00\n        /* \"#utility.yul\":5501:5503   */\n      0x20\n        /* \"#utility.yul\":5490:5499   */\n      dup3\n        /* \"#utility.yul\":5486:5504   */\n      add\n        /* \"#utility.yul\":5478:5504   */\n      swap1\n      pop\n        /* \"#utility.yul\":5514:5579   */\n      tag_278\n        /* \"#utility.yul\":5576:5577   */\n      0x00\n        /* \"#utility.yul\":5565:5574   */\n      dup4\n        /* \"#utility.yul\":5561:5578   */\n      add\n        /* \"#utility.yul\":5552:5558   */\n      dup5\n        /* \"#utility.yul\":5514:5579   */\n      tag_206\n      jump\t// in\n    tag_278:\n        /* \"#utility.yul\":5376:5586   */\n      swap3\n      swap2\n      pop\n      pop\n      jump\t// out\n        /* \"#utility.yul\":5592:5836   */\n    tag_44:\n        /* \"#utility.yul\":5696:5700   */\n      0x00\n        /* \"#utility.yul\":5734:5736   */\n      0x20\n        /* \"#utility.yul\":5723:5732   */\n      dup3\n        /* \"#utility.yul\":5719:5737   */\n      add\n        /* \"#utility.yul\":5711:5737   */\n      swap1\n      pop\n        /* \"#utility.yul\":5747:5829   */\n      tag_280\n        /* \"#utility.yul\":5826:5827   */\n      0x00\n        /* \"#utility.yul\":5815:5824   */\n      dup4\n        /* \"#utility.yul\":5811:5828   */\n      add\n        /* \"#utility.yul\":5802:5808   */\n      dup5\n        /* \"#utility.yul\":5747:5829   */\n      tag_216\n      jump\t// in\n    tag_280:\n        /* \"#utility.yul\":5592:5836   */\n      swap3\n      swap2\n      pop\n      pop\n      jump\t// out\n        /* \"#utility.yul\":5842:6088   */\n    tag_16:\n        /* \"#utility.yul\":5947:5951   */\n      0x00\n        /* \"#utility.yul\":5985:5987   */\n      0x20\n        /* \"#utility.yul\":5974:5983   */\n      dup3\n        /* \"#utility.yul\":5970:5988   */\n      add\n        /* \"#utility.yul\":5962:5988   */\n      swap1\n      pop\n        /* \"#utility.yul\":5998:6081   */\n      tag_282\n        /* \"#utility.yul\":6078:6079   */\n      0x00\n        /* \"#utility.yul\":6067:6076   */\n      dup4\n        /* \"#utility.yul\":6063:6080   */\n      add\n        /* \"#utility.yul\":6054:6060   */\n      dup5\n        /* \"#utility.yul\":5998:6081   */\n      tag_220\n      jump\t// in\n    tag_282:\n        /* \"#utility.yul\":5842:6088   */\n      swap3\n      swap2\n      pop\n      pop\n      jump\t// out\n        /* \"#utility.yul\":6094:6513   */\n    tag_166:\n        /* \"#utility.yul\":6260:6264   */\n      0x00\n        /* \"#utility.yul\":6298:6300   */\n      0x20\n        /* \"#utility.yul\":6287:6296   */\n      dup3\n        /* \"#utility.yul\":6283:6301   */\n      add\n        /* \"#utility.yul\":6275:6301   */\n      swap1\n      pop\n        /* \"#utility.yul\":6347:6356   */\n      dup2\n        /* \"#utility.yul\":6341:6345   */\n      dup2\n        /* \"#utility.yul\":6337:6357   */\n      sub\n        /* \"#utility.yul\":6333:6334   */\n      0x00\n        /* \"#utility.yul\":6322:6331   */\n      dup4\n        /* \"#utility.yul\":6318:6335   */\n      add\n        /* \"#utility.yul\":6311:6358   */\n      mstore\n        /* \"#utility.yul\":6375:6506   */\n      tag_284\n        /* \"#utility.yul\":6501:6505   */\n      dup2\n        /* \"#utility.yul\":6375:6506   */\n      tag_224\n      jump\t// in\n    tag_284:\n        /* \"#utility.yul\":6367:6506   */\n      swap1\n      pop\n        /* \"#utility.yul\":6094:6513   */\n      swap2\n      swap1\n      pop\n      jump\t// out\n        /* \"#utility.yul\":6519:6938   */\n    tag_135:\n        /* \"#utility.yul\":6685:6689   */\n      0x00\n        /* \"#utility.yul\":6723:6725   */\n      0x20\n        /* \"#utility.yul\":6712:6721   */\n      dup3\n        /* \"#utility.yul\":6708:6726   */\n      add\n        /* \"#utility.yul\":6700:6726   */\n      swap1\n      pop\n        /* \"#utility.yul\":6772:6781   */\n      dup2\n        /* \"#utility.yul\":6766:6770   */\n      dup2\n        /* \"#utility.yul\":6762:6782   */\n      sub\n        /* \"#utility.yul\":6758:6759   */\n      0x00\n        /* \"#utility.yul\":6747:6756   */\n      dup4\n        /* \"#utility.yul\":6743:6760   */\n      add\n        /* \"#utility.yul\":6736:6783   */\n      mstore\n        /* \"#utility.yul\":6800:6931   */\n      tag_286\n        /* \"#utility.yul\":6926:6930   */\n      dup2\n        /* \"#utility.yul\":6800:6931   */\n      tag_230\n      jump\t// in\n    tag_286:\n        /* \"#utility.yul\":6792:6931   */\n      swap1\n      pop\n        /* \"#utility.yul\":6519:6938   */\n      swap2\n      swap1\n      pop\n      jump\t// out\n        /* \"#utility.yul\":6944:7363   */\n    tag_115:\n        /* \"#utility.yul\":7110:7114   */\n      0x00\n        /* \"#utility.yul\":7148:7150   */\n      0x20\n        /* \"#utility.yul\":7137:7146   */\n      dup3\n        /* \"#utility.yul\":7133:7151   */\n      add\n        /* \"#utility.yul\":7125:7151   */\n      swap1\n      pop\n        /* \"#utility.yul\":7197:7206   */\n      dup2\n        /* \"#utility.yul\":7191:7195   */\n      dup2\n        /* \"#utility.yul\":7187:7207   */\n      sub\n        /* \"#utility.yul\":7183:7184   */\n      0x00\n        /* \"#utility.yul\":7172:7181   */\n      dup4\n        /* \"#utility.yul\":7168:7185   */\n      add\n        /* \"#utility.yul\":7161:7208   */\n      mstore\n        /* \"#utility.yul\":7225:7356   */\n      tag_288\n        /* \"#utility.yul\":7351:7355   */\n      dup2\n        /* \"#utility.yul\":7225:7356   */\n      tag_235\n      jump\t// in\n    tag_288:\n        /* \"#utility.yul\":7217:7356   */\n      swap1\n      pop\n        /* \"#utility.yul\":6944:7363   */\n      swap2\n      swap1\n      pop\n      jump\t// out\n        /* \"#utility.yul\":7369:7788   */\n    tag_140:\n        /* \"#utility.yul\":7535:7539   */\n      0x00\n        /* \"#utility.yul\":7573:7575   */\n      0x20\n        /* \"#utility.yul\":7562:7571   */\n      dup3\n        /* \"#utility.yul\":7558:7576   */\n      add\n        /* \"#utility.yul\":7550:7576   */\n      swap1\n      pop\n        /* \"#utility.yul\":7622:7631   */\n      dup2\n        /* \"#utility.yul\":7616:7620   */\n      dup2\n        /* \"#utility.yul\":7612:7632   */\n      sub\n        /* \"#utility.yul\":7608:7609   */\n      0x00\n        /* \"#utility.yul\":7597:7606   */\n      dup4\n        /* \"#utility.yul\":7593:7610   */\n      add\n        /* \"#utility.yul\":7586:7633   */\n      mstore\n        /* \"#utility.yul\":7650:7781   */\n      tag_290\n        /* \"#utility.yul\":7776:7780   */\n      dup2\n        /* \"#utility.yul\":7650:7781   */\n      tag_240\n      jump\t// in\n    tag_290:\n        /* \"#utility.yul\":7642:7781   */\n      swap1\n      pop\n        /* \"#utility.yul\":7369:7788   */\n      swap2\n      swap1\n      pop\n      jump\t// out\n        /* \"#utility.yul\":7794:8213   */\n    tag_176:\n        /* \"#utility.yul\":7960:7964   */\n      0x00\n        /* \"#utility.yul\":7998:8000   */\n      0x20\n        /* \"#utility.yul\":7987:7996   */\n      dup3\n        /* \"#utility.yul\":7983:8001   */\n      add\n        /* \"#utility.yul\":7975:8001   */\n      swap1\n      pop\n        /* \"#utility.yul\":8047:8056   */\n      dup2\n        /* \"#utility.yul\":8041:8045   */\n      dup2\n        /* \"#utility.yul\":8037:8057   */\n      sub\n        /* \"#utility.yul\":8033:8034   */\n      0x00\n        /* \"#utility.yul\":8022:8031   */\n      dup4\n        /* \"#utility.yul\":8018:8035   */\n      add\n        /* \"#utility.yul\":8011:8058   */\n      mstore\n        /* \"#utility.yul\":8075:8206   */\n      tag_292\n        /* \"#utility.yul\":8201:8205   */\n      dup2\n        /* \"#utility.yul\":8075:8206   */\n      tag_245\n      jump\t// in\n    tag_292:\n        /* \"#utility.yul\":8067:8206   */\n      swap1\n      pop\n        /* \"#utility.yul\":7794:8213   */\n      swap2\n      swap1\n      pop\n      jump\t// out\n        /* \"#utility.yul\":8219:8638   */\n    tag_150:\n        /* \"#utility.yul\":8385:8389   */\n      0x00\n        /* \"#utility.yul\":8423:8425   */\n      0x20\n        /* \"#utility.yul\":8412:8421   */\n      dup3\n        /* \"#utility.yul\":8408:8426   */\n      add\n        /* \"#utility.yul\":8400:8426   */\n      swap1\n      pop\n        /* \"#utility.yul\":8472:8481   */\n      dup2\n        /* \"#utility.yul\":8466:8470   */\n      dup2\n        /* \"#utility.yul\":8462:8482   */\n      sub\n        /* \"#utility.yul\":8458:8459   */\n      0x00\n        /* \"#utility.yul\":8447:8456   */\n      dup4\n        /* \"#utility.yul\":8443:8460   */\n      add\n        /* \"#utility.yul\":8436:8483   */\n      mstore\n        /* \"#utility.yul\":8500:8631   */\n      tag_294\n        /* \"#utility.yul\":8626:8630   */\n      dup2\n        /* \"#utility.yul\":8500:8631   */\n      tag_250\n      jump\t// in\n    tag_294:\n        /* \"#utility.yul\":8492:8631   */\n      swap1\n      pop\n        /* \"#utility.yul\":8219:8638   */\n      swap2\n      swap1\n      pop\n      jump\t// out\n        /* \"#utility.yul\":8644:9063   */\n    tag_106:\n        /* \"#utility.yul\":8810:8814   */\n      0x00\n        /* \"#utility.yul\":8848:8850   */\n      0x20\n        /* \"#utility.yul\":8837:8846   */\n      dup3\n        /* \"#utility.yul\":8833:8851   */\n      add\n        /* \"#utility.yul\":8825:8851   */\n      swap1\n      pop\n        /* \"#utility.yul\":8897:8906   */\n      dup2\n        /* \"#utility.yul\":8891:8895   */\n      dup2\n        /* \"#utility.yul\":8887:8907   */\n      sub\n        /* \"#utility.yul\":8883:8884   */\n      0x00\n        /* \"#utility.yul\":8872:8881   */\n      dup4\n        /* \"#utility.yul\":8868:8885   */\n      add\n        /* \"#utility.yul\":8861:8908   */\n      mstore\n        /* \"#utility.yul\":8925:9056   */\n      tag_296\n        /* \"#utility.yul\":9051:9055   */\n      dup2\n        /* \"#utility.yul\":8925:9056   */\n      tag_255\n      jump\t// in\n    tag_296:\n        /* \"#utility.yul\":8917:9056   */\n      swap1\n      pop\n        /* \"#utility.yul\":8644:9063   */\n      swap2\n      swap1\n      pop\n      jump\t// out\n        /* \"#utility.yul\":9069:9488   */\n    tag_110:\n        /* \"#utility.yul\":9235:9239   */\n      0x00\n        /* \"#utility.yul\":9273:9275   */\n      0x20\n        /* \"#utility.yul\":9262:9271   */\n      dup3\n        /* \"#utility.yul\":9258:9276   */\n      add\n        /* \"#utility.yul\":9250:9276   */\n      swap1\n      pop\n        /* \"#utility.yul\":9322:9331   */\n      dup2\n        /* \"#utility.yul\":9316:9320   */\n      dup2\n        /* \"#utility.yul\":9312:9332   */\n      sub\n        /* \"#utility.yul\":9308:9309   */\n      0x00\n        /* \"#utility.yul\":9297:9306   */\n      dup4\n        /* \"#utility.yul\":9293:9310   */\n      add\n        /* \"#utility.yul\":9286:9333   */\n      mstore\n        /* \"#utility.yul\":9350:9481   */\n      tag_298\n        /* \"#utility.yul\":9476:9480   */\n      dup2\n        /* \"#utility.yul\":9350:9481   */\n      tag_260\n      jump\t// in\n    tag_298:\n        /* \"#utility.yul\":9342:9481   */\n      swap1\n      pop\n        /* \"#utility.yul\":9069:9488   */\n      swap2\n      swap1\n      pop\n      jump\t// out\n        /* \"#utility.yul\":9494:9716   */\n    tag_20:\n        /* \"#utility.yul\":9587:9591   */\n      0x00\n        /* \"#utility.yul\":9625:9627   */\n      0x20\n        /* \"#utility.yul\":9614:9623   */\n      dup3\n        /* \"#utility.yul\":9610:9628   */\n      add\n        /* \"#utility.yul\":9602:9628   */\n      swap1\n      pop\n        /* \"#utility.yul\":9638:9709   */\n      tag_300\n        /* \"#utility.yul\":9706:9707   */\n      0x00\n        /* \"#utility.yul\":9695:9704   */\n      dup4\n        /* \"#utility.yul\":9691:9708   */\n      add\n        /* \"#utility.yul\":9682:9688   */\n      dup5\n        /* \"#utility.yul\":9638:9709   */\n      tag_265\n      jump\t// in\n    tag_300:\n        /* \"#utility.yul\":9494:9716   */\n      swap3\n      swap2\n      pop\n      pop\n      jump\t// out\n        /* \"#utility.yul\":9803:9972   */\n    tag_227:\n        /* \"#utility.yul\":9887:9898   */\n      0x00\n        /* \"#utility.yul\":9921:9927   */\n      dup3\n        /* \"#utility.yul\":9916:9919   */\n      dup3\n        /* \"#utility.yul\":9909:9928   */\n      mstore\n        /* \"#utility.yul\":9961:9965   */\n      0x20\n        /* \"#utility.yul\":9956:9959   */\n      dup3\n        /* \"#utility.yul\":9952:9966   */\n      add\n        /* \"#utility.yul\":9937:9966   */\n      swap1\n      pop\n        /* \"#utility.yul\":9803:9972   */\n      swap3\n      swap2\n      pop\n      pop\n      jump\t// out\n        /* \"#utility.yul\":9978:10283   */\n    tag_73:\n        /* \"#utility.yul\":10018:10021   */\n      0x00\n        /* \"#utility.yul\":10037:10057   */\n      tag_305\n        /* \"#utility.yul\":10055:10056   */\n      dup3\n        /* \"#utility.yul\":10037:10057   */\n      tag_268\n      jump\t// in\n    tag_305:\n        /* \"#utility.yul\":10032:10057   */\n      swap2\n      pop\n        /* \"#utility.yul\":10071:10091   */\n      tag_306\n        /* \"#utility.yul\":10089:10090   */\n      dup4\n        /* \"#utility.yul\":10071:10091   */\n      tag_268\n      jump\t// in\n    tag_306:\n        /* \"#utility.yul\":10066:10091   */\n      swap3\n      pop\n        /* \"#utility.yul\":10225:10226   */\n      dup3\n        /* \"#utility.yul\":10157:10223   */\n      0xffffffffffffffffffffffffffffffffffffffffffffffffffffffffffffffff\n        /* \"#utility.yul\":10153:10227   */\n      sub\n        /* \"#utility.yul\":10150:10151   */\n      dup3\n        /* \"#utility.yul\":10147:10228   */\n      gt\n        /* \"#utility.yul\":10144:10251   */\n      iszero\n      tag_307\n      jumpi\n        /* \"#utility.yul\":10231:10249   */\n      tag_308\n      tag_309\n      jump\t// in\n    tag_308:\n        /* \"#utility.yul\":10144:10251   */\n    tag_307:\n        /* \"#utility.yul\":10275:10276   */\n      dup3\n        /* \"#utility.yul\":10272:10273   */\n      dup3\n        /* \"#utility.yul\":10268:10277   */\n      add\n        /* \"#utility.yul\":10261:10277   */\n      swap1\n      pop\n        /* \"#utility.yul\":9978:10283   */\n      swap3\n      swap2\n      pop\n      pop\n      jump\t// out\n        /* \"#utility.yul\":10289:10480   */\n    tag_75:\n        /* \"#utility.yul\":10329:10333   */\n      0x00\n        /* \"#utility.yul\":10349:10369   */\n      tag_311\n        /* \"#utility.yul\":10367:10368   */\n      dup3\n        /* \"#utility.yul\":10349:10369   */\n      tag_268\n      jump\t// in\n    tag_311:\n        /* \"#utility.yul\":10344:10369   */\n      swap2\n      pop\n        /* \"#utility.yul\":10383:10403   */\n      tag_312\n        /* \"#utility.yul\":10401:10402   */\n      dup4\n        /* \"#utility.yul\":10383:10403   */\n      tag_268\n      jump\t// in\n    tag_312:\n        /* \"#utility.yul\":10378:10403   */\n      swap3\n      pop\n        /* \"#utility.yul\":10422:10423   */\n      dup3\n        /* \"#utility.yul\":10419:10420   */\n      dup3\n        /* \"#utility.yul\":10416:10424   */\n      lt\n        /* \"#utility.yul\":10413:10447   */\n      iszero\n      tag_313\n      jumpi\n        /* \"#utility.yul\":10427:10445   */\n      tag_314\n      tag_309\n      jump\t// in\n    tag_314:\n        /* \"#utility.yul\":10413:10447   */\n    tag_313:\n        /* \"#utility.yul\":10472:10473   */\n      dup3\n        /* \"#utility.yul\":10469:10470   */\n      dup3\n        /* \"#utility.yul\":10465:10474   */\n      sub\n        /* \"#utility.yul\":10457:10474   */\n      swap1\n      pop\n        /* \"#utility.yul\":10289:10480   */\n      swap3\n      swap2\n      pop\n      pop\n      jump\t// out\n        /* \"#utility.yul\":10486:10576   */\n    tag_209:\n        /* \"#utility.yul\":10520:10527   */\n      0x00\n        /* \"#utility.yul\":10563:10568   */\n      dup2\n        /* \"#utility.yul\":10556:10569   */\n      iszero\n        /* \"#utility.yul\":10549:10570   */\n      iszero\n        /* \"#utility.yul\":10538:10570   */\n      swap1\n      pop\n        /* \"#utility.yul\":10486:10576   */\n      swap2\n      swap1\n      pop\n      jump\t// out\n        /* \"#utility.yul\":10582:10659   */\n    tag_214:\n        /* \"#utility.yul\":10619:10626   */\n      0x00\n        /* \"#utility.yul\":10648:10653   */\n      dup2\n        /* \"#utility.yul\":10637:10653   */\n      swap1\n      pop\n        /* \"#utility.yul\":10582:10659   */\n      swap2\n      swap1\n      pop\n      jump\t// out\n        /* \"#utility.yul\":10665:10802   */\n    tag_317:\n        /* \"#utility.yul\":10715:10722   */\n      0x00\n        /* \"#utility.yul\":10744:10749   */\n      dup2\n        /* \"#utility.yul\":10733:10749   */\n      swap1\n      pop\n        /* \"#utility.yul\":10750:10796   */\n      tag_319\n        /* \"#utility.yul\":10790:10795   */\n      dup3\n        /* \"#utility.yul\":10750:10796   */\n      tag_320\n      jump\t// in\n    tag_319:\n        /* \"#utility.yul\":10665:10802   */\n      swap2\n      swap1\n      pop\n      jump\t// out\n        /* \"#utility.yul\":10808:10947   */\n    tag_321:\n        /* \"#utility.yul\":10859:10866   */\n      0x00\n        /* \"#utility.yul\":10888:10893   */\n      dup2\n        /* \"#utility.yul\":10877:10893   */\n      swap1\n      pop\n        /* \"#utility.yul\":10894:10941   */\n      tag_323\n        /* \"#utility.yul\":10935:10940   */\n      dup3\n        /* \"#utility.yul\":10894:10941   */\n      tag_324\n      jump\t// in\n    tag_323:\n        /* \"#utility.yul\":10808:10947   */\n      swap2\n      swap1\n      pop\n      jump\t// out\n        /* \"#utility.yul\":10953:11030   */\n    tag_268:\n        /* \"#utility.yul\":10990:10997   */\n      0x00\n        /* \"#utility.yul\":11019:11024   */\n      dup2\n        /* \"#utility.yul\":11008:11024   */\n      swap1\n      pop\n        /* \"#utility.yul\":10953:11030   */\n      swap2\n      swap1\n      pop\n      jump\t// out\n        /* \"#utility.yul\":11036:11173   */\n    tag_219:\n        /* \"#utility.yul\":11097:11106   */\n      0x00\n        /* \"#utility.yul\":11130:11167   */\n      tag_327\n        /* \"#utility.yul\":11161:11166   */\n      dup3\n        /* \"#utility.yul\":11130:11167   */\n      tag_317\n      jump\t// in\n    tag_327:\n        /* \"#utility.yul\":11117:11167   */\n      swap1\n      pop\n        /* \"#utility.yul\":11036:11173   */\n      swap2\n      swap1\n      pop\n      jump\t// out\n        /* \"#utility.yul\":11179:11318   */\n    tag_223:\n        /* \"#utility.yul\":11241:11250   */\n      0x00\n        /* \"#utility.yul\":11274:11312   */\n      tag_329\n        /* \"#utility.yul\":11306:11311   */\n      dup3\n        /* \"#utility.yul\":11274:11312   */\n      tag_321\n      jump\t// in\n    tag_329:\n        /* \"#utility.yul\":11261:11312   */\n      swap1\n      pop\n        /* \"#utility.yul\":11179:11318   */\n      swap2\n      swap1\n      pop\n      jump\t// out\n        /* \"#utility.yul\":11324:11403   */\n    tag_215:\n        /* \"#utility.yul\":11363:11370   */\n      0x00\n        /* \"#utility.yul\":11392:11397   */\n      dup2\n        /* \"#utility.yul\":11381:11397   */\n      swap1\n      pop\n        /* \"#utility.yul\":11324:11403   */\n      swap2\n      swap1\n      pop\n      jump\t// out\n        /* \"#utility.yul\":11409:11488   */\n    tag_273:\n        /* \"#utility.yul\":11448:11455   */\n      0x00\n        /* \"#utility.yul\":11477:11482   */\n      dup2\n        /* \"#utility.yul\":11466:11482   */\n      swap1\n      pop\n        /* \"#utility.yul\":11409:11488   */\n      swap2\n      swap1\n      pop\n      jump\t// out\n        /* \"#utility.yul\":11494:11670   */\n    tag_77:\n        /* \"#utility.yul\":11526:11527   */\n      0x00\n        /* \"#utility.yul\":11543:11563   */\n      tag_333\n        /* \"#utility.yul\":11561:11562   */\n      dup3\n        /* \"#utility.yul\":11543:11563   */\n      tag_268\n      jump\t// in\n    tag_333:\n        /* \"#utility.yul\":11538:11563   */\n      swap2\n      pop\n        /* \"#utility.yul\":11577:11597   */\n      tag_334\n        /* \"#utility.yul\":11595:11596   */\n      dup4\n        /* \"#utility.yul\":11577:11597   */\n      tag_268\n      jump\t// in\n    tag_334:\n        /* \"#utility.yul\":11572:11597   */\n      swap3\n      pop\n        /* \"#utility.yul\":11616:11617   */\n      dup3\n        /* \"#utility.yul\":11606:11641   */\n      tag_335\n      jumpi\n        /* \"#utility.yul\":11621:11639   */\n      tag_336\n      tag_337\n      jump\t// in\n    tag_336:\n        /* \"#utility.yul\":11606:11641   */\n    tag_335:\n        /* \"#utility.yul\":11662:11663   */\n      dup3\n        /* \"#utility.yul\":11659:11660   */\n      dup3\n        /* \"#utility.yul\":11655:11664   */\n      mod\n        /* \"#utility.yul\":11650:11664   */\n      swap1\n      pop\n        /* \"#utility.yul\":11494:11670   */\n      swap3\n      swap2\n      pop\n      pop\n      jump\t// out\n        /* \"#utility.yul\":11676:11856   */\n    tag_309:\n        /* \"#utility.yul\":11724:11801   */\n      0x4e487b7100000000000000000000000000000000000000000000000000000000\n        /* \"#utility.yul\":11721:11722   */\n      0x00\n        /* \"#utility.yul\":11714:11802   */\n      mstore\n        /* \"#utility.yul\":11821:11825   */\n      0x11\n        /* \"#utility.yul\":11818:11819   */\n      0x04\n        /* \"#utility.yul\":11811:11826   */\n      mstore\n        /* \"#utility.yul\":11845:11849   */\n      0x24\n        /* \"#utility.yul\":11842:11843   */\n      0x00\n        /* \"#utility.yul\":11835:11850   */\n      revert\n        /* \"#utility.yul\":11862:12042   */\n    tag_337:\n        /* \"#utility.yul\":11910:11987   */\n      0x4e487b7100000000000000000000000000000000000000000000000000000000\n        /* \"#utility.yul\":11907:11908   */\n      0x00\n        /* \"#utility.yul\":11900:11988   */\n      mstore\n        /* \"#utility.yul\":12007:12011   */\n      0x12\n        /* \"#utility.yul\":12004:12005   */\n      0x04\n        /* \"#utility.yul\":11997:12012   */\n      mstore\n        /* \"#utility.yul\":12031:12035   */\n      0x24\n        /* \"#utility.yul\":12028:12029   */\n      0x00\n        /* \"#utility.yul\":12021:12036   */\n      revert\n        /* \"#utility.yul\":12048:12228   */\n    tag_58:\n        /* \"#utility.yul\":12096:12173   */\n      0x4e487b7100000000000000000000000000000000000000000000000000000000\n        /* \"#utility.yul\":12093:12094   */\n      0x00\n        /* \"#utility.yul\":12086:12174   */\n      mstore\n        /* \"#utility.yul\":12193:12197   */\n      0x21\n        /* \"#utility.yul\":12190:12191   */\n      0x04\n        /* \"#utility.yul\":12183:12198   */\n      mstore\n        /* \"#utility.yul\":12217:12221   */\n      0x24\n        /* \"#utility.yul\":12214:12215   */\n      0x00\n        /* \"#utility.yul\":12207:12222   */\n      revert\n        /* \"#utility.yul\":12357:12474   */\n    tag_199:\n        /* \"#utility.yul\":12466:12467   */\n      0x00\n        /* \"#utility.yul\":12463:12464   */\n      dup1\n        /* \"#utility.yul\":12456:12468   */\n      revert\n        /* \"#utility.yul\":12480:12652   */\n    tag_229:\n        /* \"#utility.yul\":12620:12644   */\n      0x50726f626c656d20776974682061646472657373657300000000000000000000\n        /* \"#utility.yul\":12616:12617   */\n      0x00\n        /* \"#utility.yul\":12608:12614   */\n      dup3\n        /* \"#utility.yul\":12604:12618   */\n      add\n        /* \"#utility.yul\":12597:12645   */\n      mstore\n        /* \"#utility.yul\":12480:12652   */\n      pop\n      jump\t// out\n        /* \"#utility.yul\":12658:12833   */\n    tag_234:\n        /* \"#utility.yul\":12798:12825   */\n      0x4e6f74207265676973746572656420706c617965722079657400000000000000\n        /* \"#utility.yul\":12794:12795   */\n      0x00\n        /* \"#utility.yul\":12786:12792   */\n      dup3\n        /* \"#utility.yul\":12782:12796   */\n      add\n        /* \"#utility.yul\":12775:12826   */\n      mstore\n        /* \"#utility.yul\":12658:12833   */\n      pop\n      jump\t// out\n        /* \"#utility.yul\":12839:13060   */\n    tag_239:\n        /* \"#utility.yul\":12979:13013   */\n      0x5468697320706c617965722068617320616c7265616479207265676973746572\n        /* \"#utility.yul\":12975:12976   */\n      0x00\n        /* \"#utility.yul\":12967:12973   */\n      dup3\n        /* \"#utility.yul\":12963:12977   */\n      add\n        /* \"#utility.yul\":12956:13014   */\n      mstore\n        /* \"#utility.yul\":13048:13052   */\n      0x6564000000000000000000000000000000000000000000000000000000000000\n        /* \"#utility.yul\":13043:13045   */\n      0x20\n        /* \"#utility.yul\":13035:13041   */\n      dup3\n        /* \"#utility.yul\":13031:13046   */\n      add\n        /* \"#utility.yul\":13024:13053   */\n      mstore\n        /* \"#utility.yul\":12839:13060   */\n      pop\n      jump\t// out\n        /* \"#utility.yul\":13066:13232   */\n    tag_244:\n        /* \"#utility.yul\":13206:13224   */\n      0x496e636f72726563742063686f69636500000000000000000000000000000000\n        /* \"#utility.yul\":13202:13203   */\n      0x00\n        /* \"#utility.yul\":13194:13200   */\n      dup3\n        /* \"#utility.yul\":13190:13204   */\n      add\n        /* \"#utility.yul\":13183:13225   */\n      mstore\n        /* \"#utility.yul\":13066:13232   */\n      pop\n      jump\t// out\n        /* \"#utility.yul\":13238:13414   */\n    tag_249:\n        /* \"#utility.yul\":13378:13406   */\n      0x47616d65206861736820776173206e6f742070726f7669646564000000000000\n        /* \"#utility.yul\":13374:13375   */\n      0x00\n        /* \"#utility.yul\":13366:13372   */\n      dup3\n        /* \"#utility.yul\":13362:13376   */\n      add\n        /* \"#utility.yul\":13355:13407   */\n      mstore\n        /* \"#utility.yul\":13238:13414   */\n      pop\n      jump\t// out\n        /* \"#utility.yul\":13420:13587   */\n    tag_254:\n        /* \"#utility.yul\":13560:13579   */\n      0x70726f626c656d20776974682073616c74000000000000000000000000000000\n        /* \"#utility.yul\":13556:13557   */\n      0x00\n        /* \"#utility.yul\":13548:13554   */\n      dup3\n        /* \"#utility.yul\":13544:13558   */\n      add\n        /* \"#utility.yul\":13537:13580   */\n      mstore\n        /* \"#utility.yul\":13420:13587   */\n      pop\n      jump\t// out\n        /* \"#utility.yul\":13593:13814   */\n    tag_259:\n        /* \"#utility.yul\":13733:13767   */\n      0x426574206973206c6f776572207468616e20706f737369626c65206d696e696d\n        /* \"#utility.yul\":13729:13730   */\n      0x00\n        /* \"#utility.yul\":13721:13727   */\n      dup3\n        /* \"#utility.yul\":13717:13731   */\n      add\n        /* \"#utility.yul\":13710:13768   */\n      mstore\n        /* \"#utility.yul\":13802:13806   */\n      0x756d000000000000000000000000000000000000000000000000000000000000\n        /* \"#utility.yul\":13797:13799   */\n      0x20\n        /* \"#utility.yul\":13789:13795   */\n      dup3\n        /* \"#utility.yul\":13785:13800   */\n      add\n        /* \"#utility.yul\":13778:13807   */\n      mstore\n        /* \"#utility.yul\":13593:13814   */\n      pop\n      jump\t// out\n        /* \"#utility.yul\":13820:13992   */\n    tag_264:\n        /* \"#utility.yul\":13960:13984   */\n      0x50726f626c656d207769746820746865207374616b6500000000000000000000\n        /* \"#utility.yul\":13956:13957   */\n      0x00\n        /* \"#utility.yul\":13948:13954   */\n      dup3\n        /* \"#utility.yul\":13944:13958   */\n      add\n        /* \"#utility.yul\":13937:13985   */\n      mstore\n        /* \"#utility.yul\":13820:13992   */\n      pop\n      jump\t// out\n        /* \"#utility.yul\":13998:14116   */\n    tag_320:\n        /* \"#utility.yul\":14084:14085   */\n      0x04\n        /* \"#utility.yul\":14077:14082   */\n      dup2\n        /* \"#utility.yul\":14074:14086   */\n      lt\n        /* \"#utility.yul\":14064:14110   */\n      tag_353\n      jumpi\n        /* \"#utility.yul\":14090:14108   */\n      tag_354\n      tag_58\n      jump\t// in\n    tag_354:\n        /* \"#utility.yul\":14064:14110   */\n    tag_353:\n        /* \"#utility.yul\":13998:14116   */\n      pop\n      jump\t// out\n        /* \"#utility.yul\":14122:14241   */\n    tag_324:\n        /* \"#utility.yul\":14209:14210   */\n      0x03\n        /* \"#utility.yul\":14202:14207   */\n      dup2\n        /* \"#utility.yul\":14199:14211   */\n      lt\n        /* \"#utility.yul\":14189:14235   */\n      tag_356\n      jumpi\n        /* \"#utility.yul\":14215:14233   */\n      tag_357\n      tag_58\n      jump\t// in\n    tag_357:\n        /* \"#utility.yul\":14189:14235   */\n    tag_356:\n        /* \"#utility.yul\":14122:14241   */\n      pop\n      jump\t// out\n        /* \"#utility.yul\":14247:14369   */\n    tag_191:\n        /* \"#utility.yul\":14320:14344   */\n      tag_359\n        /* \"#utility.yul\":14338:14343   */\n      dup2\n        /* \"#utility.yul\":14320:14344   */\n      tag_214\n      jump\t// in\n    tag_359:\n        /* \"#utility.yul\":14313:14318   */\n      dup2\n        /* \"#utility.yul\":14310:14345   */\n      eq\n        /* \"#utility.yul\":14300:14363   */\n      tag_360\n      jumpi\n        /* \"#utility.yul\":14359:14360   */\n      0x00\n        /* \"#utility.yul\":14356:14357   */\n      dup1\n        /* \"#utility.yul\":14349:14361   */\n      revert\n        /* \"#utility.yul\":14300:14363   */\n    tag_360:\n        /* \"#utility.yul\":14247:14369   */\n      pop\n      jump\t// out\n        /* \"#utility.yul\":14375:14497   */\n    tag_195:\n        /* \"#utility.yul\":14448:14472   */\n      tag_362\n        /* \"#utility.yul\":14466:14471   */\n      dup2\n        /* \"#utility.yul\":14448:14472   */\n      tag_268\n      jump\t// in\n    tag_362:\n        /* \"#utility.yul\":14441:14446   */\n      dup2\n        /* \"#utility.yul\":14438:14473   */\n      eq\n        /* \"#utility.yul\":14428:14491   */\n      tag_363\n      jumpi\n        /* \"#utility.yul\":14487:14488   */\n      0x00\n        /* \"#utility.yul\":14484:14485   */\n      dup1\n        /* \"#utility.yul\":14477:14489   */\n      revert\n        /* \"#utility.yul\":14428:14491   */\n    tag_363:\n        /* \"#utility.yul\":14375:14497   */\n      pop\n      jump\t// out\n\n    auxdata: 0xa26469706673582212204e856d269d8b66d3a3865a5af297daaf4ae232d7cec5bcadf61af635cfc4c1da64736f6c63430008070033\n}\n",
				"bytecode": {
					"linkReferences": {},
					"object": "608060405234801561001057600080fd5b506116e6806100206000396000f3fe6080604052600436106100865760003560e01c806343445ca81161005957806343445ca81461012a5780636f9fb98a146101555780638c10bb961461018057806392c90480146101bd578063a9ea37b6146101e857610086565b806311b0af151461008b57806320737796146100b657806327793f87146100d45780633a4b66f1146100ff575b600080fd5b34801561009757600080fd5b506100a0610225565b6040516100ad91906111b4565b60405180910390f35b6100be6105c7565b6040516100cb91906112cf565b60405180910390f35b3480156100e057600080fd5b506100e9610897565b6040516100f691906111b4565b60405180910390f35b34801561010b57600080fd5b506101146108aa565b60405161012191906112cf565b60405180910390f35b34801561013657600080fd5b5061013f6108b0565b60405161014c919061117e565b60405180910390f35b34801561016157600080fd5b5061016a61092e565b60405161017791906112cf565b60405180910390f35b34801561018c57600080fd5b506101a760048036038101906101a29190610f90565b610936565b6040516101b49190611199565b60405180910390f35b3480156101c957600080fd5b506101d2610cc0565b6040516101df919061117e565b60405180910390f35b3480156101f457600080fd5b5061020f600480360381019061020a9190610f63565b610ce1565b60405161021c919061117e565b60405180910390f35b600080600381111561023a57610239611492565b5b600360019054906101000a900460ff16600381111561025c5761025b611492565b5b1415801561029e57506000600381111561027957610278611492565b5b600360029054906101000a900460ff16600381111561029b5761029a611492565b5b14155b6102a757600080fd5b60038060029054906101000a900460ff1660038111156102ca576102c9611492565b5b600360019054906101000a900460ff1660038111156102ec576102eb611492565b5b60036102f891906112fb565b6103029190611351565b61030c9190611403565b600281111561031e5761031d611492565b5b600360006101000a81548160ff0219169083600281111561034257610341611492565b5b02179055506001600281111561035b5761035a611492565b5b600360009054906101000a900460ff16600281111561037d5761037c611492565b5b14156103ef5760008054906101000a900473ffffffffffffffffffffffffffffffffffffffff1673ffffffffffffffffffffffffffffffffffffffff166108fc479081150290604051600060405180830381858888f193505050501580156103e9573d6000803e3d6000fd5b5061056c565b60028081111561040257610401611492565b5b600360009054906101000a900460ff16600281111561042457610423611492565b5b141561049857600160009054906101000a900473ffffffffffffffffffffffffffffffffffffffff1673ffffffffffffffffffffffffffffffffffffffff166108fc479081150290604051600060405180830381858888f19350505050158015610492573d6000803e3d6000fd5b5061056b565b60008054906101000a900473ffffffffffffffffffffffffffffffffffffffff1673ffffffffffffffffffffffffffffffffffffffff166108fc6002549081150290604051600060405180830381858888f19350505050158015610500573d6000803e3d6000fd5b50600160009054906101000a900473ffffffffffffffffffffffffffffffffffffffff1673ffffffffffffffffffffffffffffffffffffffff166108fc479081150290604051600060405180830381858888f19350505050158015610569573d6000803e3d6000fd5b505b5b7f6d1a16000380c9adde391bcb46a92c2ce8c46811cff002ed5dec38dfdc2373cd600360009054906101000a900460ff166040516105aa91906111b4565b60405180910390a1600360009054906101000a900460ff16905090565b60006103e834101561060e576040517f08c379a00000000000000000000000000000000000000000000000000000000081526004016106059061128f565b60405180910390fd5b6000600254148061062157506002543410155b610660576040517f08c379a0000000000000000000000000000000000000000000000000000000008152600401610657906112af565b60405180910390fd5b60008054906101000a900473ffffffffffffffffffffffffffffffffffffffff1673ffffffffffffffffffffffffffffffffffffffff163373ffffffffffffffffffffffffffffffffffffffff161415801561070a5750600160009054906101000a900473ffffffffffffffffffffffffffffffffffffffff1673ffffffffffffffffffffffffffffffffffffffff163373ffffffffffffffffffffffffffffffffffffffff1614155b610749576040517f08c379a00000000000000000000000000000000000000000000000000000000081526004016107409061120f565b60405180910390fd5b600073ffffffffffffffffffffffffffffffffffffffff1660008054906101000a900473ffffffffffffffffffffffffffffffffffffffff1673ffffffffffffffffffffffffffffffffffffffff1614156107ee57336000806101000a81548173ffffffffffffffffffffffffffffffffffffffff021916908373ffffffffffffffffffffffffffffffffffffffff1602179055503460028190555060019050610894565b600073ffffffffffffffffffffffffffffffffffffffff16600160009054906101000a900473ffffffffffffffffffffffffffffffffffffffff1673ffffffffffffffffffffffffffffffffffffffff16141561088f5733600160006101000a81548173ffffffffffffffffffffffffffffffffffffffff021916908373ffffffffffffffffffffffffffffffffffffffff16021790555060029050610894565b600090505b90565b600360009054906101000a900460ff1681565b60025481565b60008060038111156108c5576108c4611492565b5b600360019054906101000a900460ff1660038111156108e7576108e6611492565b5b1415801561092957506000600381111561090457610903611492565b5b600360029054906101000a900460ff16600381111561092657610925611492565b5b14155b905090565b600047905090565b60008060009054906101000a900473ffffffffffffffffffffffffffffffffffffffff1673ffffffffffffffffffffffffffffffffffffffff163373ffffffffffffffffffffffffffffffffffffffff1614806109e05750600160009054906101000a900473ffffffffffffffffffffffffffffffffffffffff1673ffffffffffffffffffffffffffffffffffffffff163373ffffffffffffffffffffffffffffffffffffffff16145b610a1f576040517f08c379a0000000000000000000000000000000000000000000000000000000008152600401610a16906111ef565b60405180910390fd5b8260018110158015610a32575060038111155b610a71576040517f08c379a0000000000000000000000000000000000000000000000000000000008152600401610a689061122f565b60405180910390fd5b6000801b60045414158015610a8b57506000801b60055414155b610a9457600080fd5b3373ffffffffffffffffffffffffffffffffffffffff1660008054906101000a900473ffffffffffffffffffffffffffffffffffffffff1673ffffffffffffffffffffffffffffffffffffffff161415610b8857610af28484610f06565b60045414610b35576040517f08c379a0000000000000000000000000000000000000000000000000000000008152600401610b2c9061126f565b60405180910390fd5b836003811115610b4857610b47611492565b5b600360016101000a81548160ff02191690836003811115610b6c57610b6b611492565b5b0217905550600360019054906101000a900460ff169150610cb9565b3373ffffffffffffffffffffffffffffffffffffffff16600160009054906101000a900473ffffffffffffffffffffffffffffffffffffffff1673ffffffffffffffffffffffffffffffffffffffff161415610c7e57610be88484610f06565b60055414610c2b576040517f08c379a0000000000000000000000000000000000000000000000000000000008152600401610c229061126f565b60405180910390fd5b836003811115610c3e57610c3d611492565b5b600360026101000a81548160ff02191690836003811115610c6257610c61611492565b5b0217905550600360029054906101000a900460ff169150610cb9565b6040517f08c379a0000000000000000000000000000000000000000000000000000000008152600401610cb0906111cf565b60405180910390fd5b5092915050565b60008060001b60045414158015610cdc57506000801b60055414155b905090565b60008060009054906101000a900473ffffffffffffffffffffffffffffffffffffffff1673ffffffffffffffffffffffffffffffffffffffff163373ffffffffffffffffffffffffffffffffffffffff161480610d8b5750600160009054906101000a900473ffffffffffffffffffffffffffffffffffffffff1673ffffffffffffffffffffffffffffffffffffffff163373ffffffffffffffffffffffffffffffffffffffff16145b610dca576040517f08c379a0000000000000000000000000000000000000000000000000000000008152600401610dc1906111ef565b60405180910390fd5b816000811415610e0f576040517f08c379a0000000000000000000000000000000000000000000000000000000008152600401610e069061124f565b60405180910390fd5b60008054906101000a900473ffffffffffffffffffffffffffffffffffffffff1673ffffffffffffffffffffffffffffffffffffffff163373ffffffffffffffffffffffffffffffffffffffff16148015610e6e57506000801b600454145b15610e7f5782600481905550610efb565b600160009054906101000a900473ffffffffffffffffffffffffffffffffffffffff1673ffffffffffffffffffffffffffffffffffffffff163373ffffffffffffffffffffffffffffffffffffffff16148015610ee057506000801b600554145b15610ef15782600581905550610efa565b60009150610f00565b5b600191505b50919050565b60008282604051602001610f1b929190611152565b60405160208183030381529060405280519060200120905092915050565b600081359050610f4881611682565b92915050565b600081359050610f5d81611699565b92915050565b600060208284031215610f7957610f786114c1565b5b6000610f8784828501610f39565b91505092915050565b60008060408385031215610fa757610fa66114c1565b5b6000610fb585828601610f4e565b9250506020610fc685828601610f39565b9150509250929050565b610fd981611385565b82525050565b610ff0610feb82611391565b6113ef565b82525050565b610fff816113cb565b82525050565b61100e816113dd565b82525050565b60006110216016836112ea565b915061102c826114c6565b602082019050919050565b60006110446019836112ea565b915061104f826114ef565b602082019050919050565b60006110676022836112ea565b915061107282611518565b604082019050919050565b600061108a6010836112ea565b915061109582611567565b602082019050919050565b60006110ad601a836112ea565b91506110b882611590565b602082019050919050565b60006110d06011836112ea565b91506110db826115b9565b602082019050919050565b60006110f36022836112ea565b91506110fe826115e2565b604082019050919050565b60006111166016836112ea565b915061112182611631565b602082019050919050565b611135816113c1565b82525050565b61114c611147826113c1565b6113f9565b82525050565b600061115e828561113b565b60208201915061116e8284610fdf565b6020820191508190509392505050565b60006020820190506111936000830184610fd0565b92915050565b60006020820190506111ae6000830184610ff6565b92915050565b60006020820190506111c96000830184611005565b92915050565b600060208201905081810360008301526111e881611014565b9050919050565b6000602082019050818103600083015261120881611037565b9050919050565b600060208201905081810360008301526112288161105a565b9050919050565b600060208201905081810360008301526112488161107d565b9050919050565b60006020820190508181036000830152611268816110a0565b9050919050565b60006020820190508181036000830152611288816110c3565b9050919050565b600060208201905081810360008301526112a8816110e6565b9050919050565b600060208201905081810360008301526112c881611109565b9050919050565b60006020820190506112e4600083018461112c565b92915050565b600082825260208201905092915050565b6000611306826113c1565b9150611311836113c1565b9250827fffffffffffffffffffffffffffffffffffffffffffffffffffffffffffffffff0382111561134657611345611434565b5b828201905092915050565b600061135c826113c1565b9150611367836113c1565b92508282101561137a57611379611434565b5b828203905092915050565b60008115159050919050565b6000819050919050565b60008190506113a98261165a565b919050565b60008190506113bc8261166e565b919050565b6000819050919050565b60006113d68261139b565b9050919050565b60006113e8826113ae565b9050919050565b6000819050919050565b6000819050919050565b600061140e826113c1565b9150611419836113c1565b92508261142957611428611463565b5b828206905092915050565b7f4e487b7100000000000000000000000000000000000000000000000000000000600052601160045260246000fd5b7f4e487b7100000000000000000000000000000000000000000000000000000000600052601260045260246000fd5b7f4e487b7100000000000000000000000000000000000000000000000000000000600052602160045260246000fd5b600080fd5b7f50726f626c656d20776974682061646472657373657300000000000000000000600082015250565b7f4e6f74207265676973746572656420706c617965722079657400000000000000600082015250565b7f5468697320706c617965722068617320616c726561647920726567697374657260008201527f6564000000000000000000000000000000000000000000000000000000000000602082015250565b7f496e636f72726563742063686f69636500000000000000000000000000000000600082015250565b7f47616d65206861736820776173206e6f742070726f7669646564000000000000600082015250565b7f70726f626c656d20776974682073616c74000000000000000000000000000000600082015250565b7f426574206973206c6f776572207468616e20706f737369626c65206d696e696d60008201527f756d000000000000000000000000000000000000000000000000000000000000602082015250565b7f50726f626c656d207769746820746865207374616b6500000000000000000000600082015250565b6004811061166b5761166a611492565b5b50565b6003811061167f5761167e611492565b5b50565b61168b81611391565b811461169657600080fd5b50565b6116a2816113c1565b81146116ad57600080fd5b5056fea26469706673582212204e856d269d8b66d3a3865a5af297daaf4ae232d7cec5bcadf61af635cfc4c1da64736f6c63430008070033",
					"opcodes": "PUSH1 0x80 PUSH1 0x40 MSTORE CALLVALUE DUP1 ISZERO PUSH2 0x10 JUMPI PUSH1 0x0 DUP1 REVERT JUMPDEST POP PUSH2 0x16E6 DUP1 PUSH2 0x20 PUSH1 0x0 CODECOPY PUSH1 0x0 RETURN INVALID PUSH1 0x80 PUSH1 0x40 MSTORE PUSH1 0x4 CALLDATASIZE LT PUSH2 0x86 JUMPI PUSH1 0x0 CALLDATALOAD PUSH1 0xE0 SHR DUP1 PUSH4 0x43445CA8 GT PUSH2 0x59 JUMPI DUP1 PUSH4 0x43445CA8 EQ PUSH2 0x12A JUMPI DUP1 PUSH4 0x6F9FB98A EQ PUSH2 0x155 JUMPI DUP1 PUSH4 0x8C10BB96 EQ PUSH2 0x180 JUMPI DUP1 PUSH4 0x92C90480 EQ PUSH2 0x1BD JUMPI DUP1 PUSH4 0xA9EA37B6 EQ PUSH2 0x1E8 JUMPI PUSH2 0x86 JUMP JUMPDEST DUP1 PUSH4 0x11B0AF15 EQ PUSH2 0x8B JUMPI DUP1 PUSH4 0x20737796 EQ PUSH2 0xB6 JUMPI DUP1 PUSH4 0x27793F87 EQ PUSH2 0xD4 JUMPI DUP1 PUSH4 0x3A4B66F1 EQ PUSH2 0xFF JUMPI JUMPDEST PUSH1 0x0 DUP1 REVERT JUMPDEST CALLVALUE DUP1 ISZERO PUSH2 0x97 JUMPI PUSH1 0x0 DUP1 REVERT JUMPDEST POP PUSH2 0xA0 PUSH2 0x225 JUMP JUMPDEST PUSH1 0x40 MLOAD PUSH2 0xAD SWAP2 SWAP1 PUSH2 0x11B4 JUMP JUMPDEST PUSH1 0x40 MLOAD DUP1 SWAP2 SUB SWAP1 RETURN JUMPDEST PUSH2 0xBE PUSH2 0x5C7 JUMP JUMPDEST PUSH1 0x40 MLOAD PUSH2 0xCB SWAP2 SWAP1 PUSH2 0x12CF JUMP JUMPDEST PUSH1 0x40 MLOAD DUP1 SWAP2 SUB SWAP1 RETURN JUMPDEST CALLVALUE DUP1 ISZERO PUSH2 0xE0 JUMPI PUSH1 0x0 DUP1 REVERT JUMPDEST POP PUSH2 0xE9 PUSH2 0x897 JUMP JUMPDEST PUSH1 0x40 MLOAD PUSH2 0xF6 SWAP2 SWAP1 PUSH2 0x11B4 JUMP JUMPDEST PUSH1 0x40 MLOAD DUP1 SWAP2 SUB SWAP1 RETURN JUMPDEST CALLVALUE DUP1 ISZERO PUSH2 0x10B JUMPI PUSH1 0x0 DUP1 REVERT JUMPDEST POP PUSH2 0x114 PUSH2 0x8AA JUMP JUMPDEST PUSH1 0x40 MLOAD PUSH2 0x121 SWAP2 SWAP1 PUSH2 0x12CF JUMP JUMPDEST PUSH1 0x40 MLOAD DUP1 SWAP2 SUB SWAP1 RETURN JUMPDEST CALLVALUE DUP1 ISZERO PUSH2 0x136 JUMPI PUSH1 0x0 DUP1 REVERT JUMPDEST POP PUSH2 0x13F PUSH2 0x8B0 JUMP JUMPDEST PUSH1 0x40 MLOAD PUSH2 0x14C SWAP2 SWAP1 PUSH2 0x117E JUMP JUMPDEST PUSH1 0x40 MLOAD DUP1 SWAP2 SUB SWAP1 RETURN JUMPDEST CALLVALUE DUP1 ISZERO PUSH2 0x161 JUMPI PUSH1 0x0 DUP1 REVERT JUMPDEST POP PUSH2 0x16A PUSH2 0x92E JUMP JUMPDEST PUSH1 0x40 MLOAD PUSH2 0x177 SWAP2 SWAP1 PUSH2 0x12CF JUMP JUMPDEST PUSH1 0x40 MLOAD DUP1 SWAP2 SUB SWAP1 RETURN JUMPDEST CALLVALUE DUP1 ISZERO PUSH2 0x18C JUMPI PUSH1 0x0 DUP1 REVERT JUMPDEST POP PUSH2 0x1A7 PUSH1 0x4 DUP1 CALLDATASIZE SUB DUP2 ADD SWAP1 PUSH2 0x1A2 SWAP2 SWAP1 PUSH2 0xF90 JUMP JUMPDEST PUSH2 0x936 JUMP JUMPDEST PUSH1 0x40 MLOAD PUSH2 0x1B4 SWAP2 SWAP1 PUSH2 0x1199 JUMP JUMPDEST PUSH1 0x40 MLOAD DUP1 SWAP2 SUB SWAP1 RETURN JUMPDEST CALLVALUE DUP1 ISZERO PUSH2 0x1C9 JUMPI PUSH1 0x0 DUP1 REVERT JUMPDEST POP PUSH2 0x1D2 PUSH2 0xCC0 JUMP JUMPDEST PUSH1 0x40 MLOAD PUSH2 0x1DF SWAP2 SWAP1 PUSH2 0x117E JUMP JUMPDEST PUSH1 0x40 MLOAD DUP1 SWAP2 SUB SWAP1 RETURN JUMPDEST CALLVALUE DUP1 ISZERO PUSH2 0x1F4 JUMPI PUSH1 0x0 DUP1 REVERT JUMPDEST POP PUSH2 0x20F PUSH1 0x4 DUP1 CALLDATASIZE SUB DUP2 ADD SWAP1 PUSH2 0x20A SWAP2 SWAP1 PUSH2 0xF63 JUMP JUMPDEST PUSH2 0xCE1 JUMP JUMPDEST PUSH1 0x40 MLOAD PUSH2 0x21C SWAP2 SWAP1 PUSH2 0x117E JUMP JUMPDEST PUSH1 0x40 MLOAD DUP1 SWAP2 SUB SWAP1 RETURN JUMPDEST PUSH1 0x0 DUP1 PUSH1 0x3 DUP2 GT ISZERO PUSH2 0x23A JUMPI PUSH2 0x239 PUSH2 0x1492 JUMP JUMPDEST JUMPDEST PUSH1 0x3 PUSH1 0x1 SWAP1 SLOAD SWAP1 PUSH2 0x100 EXP SWAP1 DIV PUSH1 0xFF AND PUSH1 0x3 DUP2 GT ISZERO PUSH2 0x25C JUMPI PUSH2 0x25B PUSH2 0x1492 JUMP JUMPDEST JUMPDEST EQ ISZERO DUP1 ISZERO PUSH2 0x29E JUMPI POP PUSH1 0x0 PUSH1 0x3 DUP2 GT ISZERO PUSH2 0x279 JUMPI PUSH2 0x278 PUSH2 0x1492 JUMP JUMPDEST JUMPDEST PUSH1 0x3 PUSH1 0x2 SWAP1 SLOAD SWAP1 PUSH2 0x100 EXP SWAP1 DIV PUSH1 0xFF AND PUSH1 0x3 DUP2 GT ISZERO PUSH2 0x29B JUMPI PUSH2 0x29A PUSH2 0x1492 JUMP JUMPDEST JUMPDEST EQ ISZERO JUMPDEST PUSH2 0x2A7 JUMPI PUSH1 0x0 DUP1 REVERT JUMPDEST PUSH1 0x3 DUP1 PUSH1 0x2 SWAP1 SLOAD SWAP1 PUSH2 0x100 EXP SWAP1 DIV PUSH1 0xFF AND PUSH1 0x3 DUP2 GT ISZERO PUSH2 0x2CA JUMPI PUSH2 0x2C9 PUSH2 0x1492 JUMP JUMPDEST JUMPDEST PUSH1 0x3 PUSH1 0x1 SWAP1 SLOAD SWAP1 PUSH2 0x100 EXP SWAP1 DIV PUSH1 0xFF AND PUSH1 0x3 DUP2 GT ISZERO PUSH2 0x2EC JUMPI PUSH2 0x2EB PUSH2 0x1492 JUMP JUMPDEST JUMPDEST PUSH1 0x3 PUSH2 0x2F8 SWAP2 SWAP1 PUSH2 0x12FB JUMP JUMPDEST PUSH2 0x302 SWAP2 SWAP1 PUSH2 0x1351 JUMP JUMPDEST PUSH2 0x30C SWAP2 SWAP1 PUSH2 0x1403 JUMP JUMPDEST PUSH1 0x2 DUP2 GT ISZERO PUSH2 0x31E JUMPI PUSH2 0x31D PUSH2 0x1492 JUMP JUMPDEST JUMPDEST PUSH1 0x3 PUSH1 0x0 PUSH2 0x100 EXP DUP2 SLOAD DUP2 PUSH1 0xFF MUL NOT AND SWAP1 DUP4 PUSH1 0x2 DUP2 GT ISZERO PUSH2 0x342 JUMPI PUSH2 0x341 PUSH2 0x1492 JUMP JUMPDEST JUMPDEST MUL OR SWAP1 SSTORE POP PUSH1 0x1 PUSH1 0x2 DUP2 GT ISZERO PUSH2 0x35B JUMPI PUSH2 0x35A PUSH2 0x1492 JUMP JUMPDEST JUMPDEST PUSH1 0x3 PUSH1 0x0 SWAP1 SLOAD SWAP1 PUSH2 0x100 EXP SWAP1 DIV PUSH1 0xFF AND PUSH1 0x2 DUP2 GT ISZERO PUSH2 0x37D JUMPI PUSH2 0x37C PUSH2 0x1492 JUMP JUMPDEST JUMPDEST EQ ISZERO PUSH2 0x3EF JUMPI PUSH1 0x0 DUP1 SLOAD SWAP1 PUSH2 0x100 EXP SWAP1 DIV PUSH20 0xFFFFFFFFFFFFFFFFFFFFFFFFFFFFFFFFFFFFFFFF AND PUSH20 0xFFFFFFFFFFFFFFFFFFFFFFFFFFFFFFFFFFFFFFFF AND PUSH2 0x8FC SELFBALANCE SWAP1 DUP2 ISZERO MUL SWAP1 PUSH1 0x40 MLOAD PUSH1 0x0 PUSH1 0x40 MLOAD DUP1 DUP4 SUB DUP2 DUP6 DUP9 DUP9 CALL SWAP4 POP POP POP POP ISZERO DUP1 ISZERO PUSH2 0x3E9 JUMPI RETURNDATASIZE PUSH1 0x0 DUP1 RETURNDATACOPY RETURNDATASIZE PUSH1 0x0 REVERT JUMPDEST POP PUSH2 0x56C JUMP JUMPDEST PUSH1 0x2 DUP1 DUP2 GT ISZERO PUSH2 0x402 JUMPI PUSH2 0x401 PUSH2 0x1492 JUMP JUMPDEST JUMPDEST PUSH1 0x3 PUSH1 0x0 SWAP1 SLOAD SWAP1 PUSH2 0x100 EXP SWAP1 DIV PUSH1 0xFF AND PUSH1 0x2 DUP2 GT ISZERO PUSH2 0x424 JUMPI PUSH2 0x423 PUSH2 0x1492 JUMP JUMPDEST JUMPDEST EQ ISZERO PUSH2 0x498 JUMPI PUSH1 0x1 PUSH1 0x0 SWAP1 SLOAD SWAP1 PUSH2 0x100 EXP SWAP1 DIV PUSH20 0xFFFFFFFFFFFFFFFFFFFFFFFFFFFFFFFFFFFFFFFF AND PUSH20 0xFFFFFFFFFFFFFFFFFFFFFFFFFFFFFFFFFFFFFFFF AND PUSH2 0x8FC SELFBALANCE SWAP1 DUP2 ISZERO MUL SWAP1 PUSH1 0x40 MLOAD PUSH1 0x0 PUSH1 0x40 MLOAD DUP1 DUP4 SUB DUP2 DUP6 DUP9 DUP9 CALL SWAP4 POP POP POP POP ISZERO DUP1 ISZERO PUSH2 0x492 JUMPI RETURNDATASIZE PUSH1 0x0 DUP1 RETURNDATACOPY RETURNDATASIZE PUSH1 0x0 REVERT JUMPDEST POP PUSH2 0x56B JUMP JUMPDEST PUSH1 0x0 DUP1 SLOAD SWAP1 PUSH2 0x100 EXP SWAP1 DIV PUSH20 0xFFFFFFFFFFFFFFFFFFFFFFFFFFFFFFFFFFFFFFFF AND PUSH20 0xFFFFFFFFFFFFFFFFFFFFFFFFFFFFFFFFFFFFFFFF AND PUSH2 0x8FC PUSH1 0x2 SLOAD SWAP1 DUP2 ISZERO MUL SWAP1 PUSH1 0x40 MLOAD PUSH1 0x0 PUSH1 0x40 MLOAD DUP1 DUP4 SUB DUP2 DUP6 DUP9 DUP9 CALL SWAP4 POP POP POP POP ISZERO DUP1 ISZERO PUSH2 0x500 JUMPI RETURNDATASIZE PUSH1 0x0 DUP1 RETURNDATACOPY RETURNDATASIZE PUSH1 0x0 REVERT JUMPDEST POP PUSH1 0x1 PUSH1 0x0 SWAP1 SLOAD SWAP1 PUSH2 0x100 EXP SWAP1 DIV PUSH20 0xFFFFFFFFFFFFFFFFFFFFFFFFFFFFFFFFFFFFFFFF AND PUSH20 0xFFFFFFFFFFFFFFFFFFFFFFFFFFFFFFFFFFFFFFFF AND PUSH2 0x8FC SELFBALANCE SWAP1 DUP2 ISZERO MUL SWAP1 PUSH1 0x40 MLOAD PUSH1 0x0 PUSH1 0x40 MLOAD DUP1 DUP4 SUB DUP2 DUP6 DUP9 DUP9 CALL SWAP4 POP POP POP POP ISZERO DUP1 ISZERO PUSH2 0x569 JUMPI RETURNDATASIZE PUSH1 0x0 DUP1 RETURNDATACOPY RETURNDATASIZE PUSH1 0x0 REVERT JUMPDEST POP JUMPDEST JUMPDEST PUSH32 0x6D1A16000380C9ADDE391BCB46A92C2CE8C46811CFF002ED5DEC38DFDC2373CD PUSH1 0x3 PUSH1 0x0 SWAP1 SLOAD SWAP1 PUSH2 0x100 EXP SWAP1 DIV PUSH1 0xFF AND PUSH1 0x40 MLOAD PUSH2 0x5AA SWAP2 SWAP1 PUSH2 0x11B4 JUMP JUMPDEST PUSH1 0x40 MLOAD DUP1 SWAP2 SUB SWAP1 LOG1 PUSH1 0x3 PUSH1 0x0 SWAP1 SLOAD SWAP1 PUSH2 0x100 EXP SWAP1 DIV PUSH1 0xFF AND SWAP1 POP SWAP1 JUMP JUMPDEST PUSH1 0x0 PUSH2 0x3E8 CALLVALUE LT ISZERO PUSH2 0x60E JUMPI PUSH1 0x40 MLOAD PUSH32 0x8C379A000000000000000000000000000000000000000000000000000000000 DUP2 MSTORE PUSH1 0x4 ADD PUSH2 0x605 SWAP1 PUSH2 0x128F JUMP JUMPDEST PUSH1 0x40 MLOAD DUP1 SWAP2 SUB SWAP1 REVERT JUMPDEST PUSH1 0x0 PUSH1 0x2 SLOAD EQ DUP1 PUSH2 0x621 JUMPI POP PUSH1 0x2 SLOAD CALLVALUE LT ISZERO JUMPDEST PUSH2 0x660 JUMPI PUSH1 0x40 MLOAD PUSH32 0x8C379A000000000000000000000000000000000000000000000000000000000 DUP2 MSTORE PUSH1 0x4 ADD PUSH2 0x657 SWAP1 PUSH2 0x12AF JUMP JUMPDEST PUSH1 0x40 MLOAD DUP1 SWAP2 SUB SWAP1 REVERT JUMPDEST PUSH1 0x0 DUP1 SLOAD SWAP1 PUSH2 0x100 EXP SWAP1 DIV PUSH20 0xFFFFFFFFFFFFFFFFFFFFFFFFFFFFFFFFFFFFFFFF AND PUSH20 0xFFFFFFFFFFFFFFFFFFFFFFFFFFFFFFFFFFFFFFFF AND CALLER PUSH20 0xFFFFFFFFFFFFFFFFFFFFFFFFFFFFFFFFFFFFFFFF AND EQ ISZERO DUP1 ISZERO PUSH2 0x70A JUMPI POP PUSH1 0x1 PUSH1 0x0 SWAP1 SLOAD SWAP1 PUSH2 0x100 EXP SWAP1 DIV PUSH20 0xFFFFFFFFFFFFFFFFFFFFFFFFFFFFFFFFFFFFFFFF AND PUSH20 0xFFFFFFFFFFFFFFFFFFFFFFFFFFFFFFFFFFFFFFFF AND CALLER PUSH20 0xFFFFFFFFFFFFFFFFFFFFFFFFFFFFFFFFFFFFFFFF AND EQ ISZERO JUMPDEST PUSH2 0x749 JUMPI PUSH1 0x40 MLOAD PUSH32 0x8C379A000000000000000000000000000000000000000000000000000000000 DUP2 MSTORE PUSH1 0x4 ADD PUSH2 0x740 SWAP1 PUSH2 0x120F JUMP JUMPDEST PUSH1 0x40 MLOAD DUP1 SWAP2 SUB SWAP1 REVERT JUMPDEST PUSH1 0x0 PUSH20 0xFFFFFFFFFFFFFFFFFFFFFFFFFFFFFFFFFFFFFFFF AND PUSH1 0x0 DUP1 SLOAD SWAP1 PUSH2 0x100 EXP SWAP1 DIV PUSH20 0xFFFFFFFFFFFFFFFFFFFFFFFFFFFFFFFFFFFFFFFF AND PUSH20 0xFFFFFFFFFFFFFFFFFFFFFFFFFFFFFFFFFFFFFFFF AND EQ ISZERO PUSH2 0x7EE JUMPI CALLER PUSH1 0x0 DUP1 PUSH2 0x100 EXP DUP2 SLOAD DUP2 PUSH20 0xFFFFFFFFFFFFFFFFFFFFFFFFFFFFFFFFFFFFFFFF MUL NOT AND SWAP1 DUP4 PUSH20 0xFFFFFFFFFFFFFFFFFFFFFFFFFFFFFFFFFFFFFFFF AND MUL OR SWAP1 SSTORE POP CALLVALUE PUSH1 0x2 DUP2 SWAP1 SSTORE POP PUSH1 0x1 SWAP1 POP PUSH2 0x894 JUMP JUMPDEST PUSH1 0x0 PUSH20 0xFFFFFFFFFFFFFFFFFFFFFFFFFFFFFFFFFFFFFFFF AND PUSH1 0x1 PUSH1 0x0 SWAP1 SLOAD SWAP1 PUSH2 0x100 EXP SWAP1 DIV PUSH20 0xFFFFFFFFFFFFFFFFFFFFFFFFFFFFFFFFFFFFFFFF AND PUSH20 0xFFFFFFFFFFFFFFFFFFFFFFFFFFFFFFFFFFFFFFFF AND EQ ISZERO PUSH2 0x88F JUMPI CALLER PUSH1 0x1 PUSH1 0x0 PUSH2 0x100 EXP DUP2 SLOAD DUP2 PUSH20 0xFFFFFFFFFFFFFFFFFFFFFFFFFFFFFFFFFFFFFFFF MUL NOT AND SWAP1 DUP4 PUSH20 0xFFFFFFFFFFFFFFFFFFFFFFFFFFFFFFFFFFFFFFFF AND MUL OR SWAP1 SSTORE POP PUSH1 0x2 SWAP1 POP PUSH2 0x894 JUMP JUMPDEST PUSH1 0x0 SWAP1 POP JUMPDEST SWAP1 JUMP JUMPDEST PUSH1 0x3 PUSH1 0x0 SWAP1 SLOAD SWAP1 PUSH2 0x100 EXP SWAP1 DIV PUSH1 0xFF AND DUP2 JUMP JUMPDEST PUSH1 0x2 SLOAD DUP2 JUMP JUMPDEST PUSH1 0x0 DUP1 PUSH1 0x3 DUP2 GT ISZERO PUSH2 0x8C5 JUMPI PUSH2 0x8C4 PUSH2 0x1492 JUMP JUMPDEST JUMPDEST PUSH1 0x3 PUSH1 0x1 SWAP1 SLOAD SWAP1 PUSH2 0x100 EXP SWAP1 DIV PUSH1 0xFF AND PUSH1 0x3 DUP2 GT ISZERO PUSH2 0x8E7 JUMPI PUSH2 0x8E6 PUSH2 0x1492 JUMP JUMPDEST JUMPDEST EQ ISZERO DUP1 ISZERO PUSH2 0x929 JUMPI POP PUSH1 0x0 PUSH1 0x3 DUP2 GT ISZERO PUSH2 0x904 JUMPI PUSH2 0x903 PUSH2 0x1492 JUMP JUMPDEST JUMPDEST PUSH1 0x3 PUSH1 0x2 SWAP1 SLOAD SWAP1 PUSH2 0x100 EXP SWAP1 DIV PUSH1 0xFF AND PUSH1 0x3 DUP2 GT ISZERO PUSH2 0x926 JUMPI PUSH2 0x925 PUSH2 0x1492 JUMP JUMPDEST JUMPDEST EQ ISZERO JUMPDEST SWAP1 POP SWAP1 JUMP JUMPDEST PUSH1 0x0 SELFBALANCE SWAP1 POP SWAP1 JUMP JUMPDEST PUSH1 0x0 DUP1 PUSH1 0x0 SWAP1 SLOAD SWAP1 PUSH2 0x100 EXP SWAP1 DIV PUSH20 0xFFFFFFFFFFFFFFFFFFFFFFFFFFFFFFFFFFFFFFFF AND PUSH20 0xFFFFFFFFFFFFFFFFFFFFFFFFFFFFFFFFFFFFFFFF AND CALLER PUSH20 0xFFFFFFFFFFFFFFFFFFFFFFFFFFFFFFFFFFFFFFFF AND EQ DUP1 PUSH2 0x9E0 JUMPI POP PUSH1 0x1 PUSH1 0x0 SWAP1 SLOAD SWAP1 PUSH2 0x100 EXP SWAP1 DIV PUSH20 0xFFFFFFFFFFFFFFFFFFFFFFFFFFFFFFFFFFFFFFFF AND PUSH20 0xFFFFFFFFFFFFFFFFFFFFFFFFFFFFFFFFFFFFFFFF AND CALLER PUSH20 0xFFFFFFFFFFFFFFFFFFFFFFFFFFFFFFFFFFFFFFFF AND EQ JUMPDEST PUSH2 0xA1F JUMPI PUSH1 0x40 MLOAD PUSH32 0x8C379A000000000000000000000000000000000000000000000000000000000 DUP2 MSTORE PUSH1 0x4 ADD PUSH2 0xA16 SWAP1 PUSH2 0x11EF JUMP JUMPDEST PUSH1 0x40 MLOAD DUP1 SWAP2 SUB SWAP1 REVERT JUMPDEST DUP3 PUSH1 0x1 DUP2 LT ISZERO DUP1 ISZERO PUSH2 0xA32 JUMPI POP PUSH1 0x3 DUP2 GT ISZERO JUMPDEST PUSH2 0xA71 JUMPI PUSH1 0x40 MLOAD PUSH32 0x8C379A000000000000000000000000000000000000000000000000000000000 DUP2 MSTORE PUSH1 0x4 ADD PUSH2 0xA68 SWAP1 PUSH2 0x122F JUMP JUMPDEST PUSH1 0x40 MLOAD DUP1 SWAP2 SUB SWAP1 REVERT JUMPDEST PUSH1 0x0 DUP1 SHL PUSH1 0x4 SLOAD EQ ISZERO DUP1 ISZERO PUSH2 0xA8B JUMPI POP PUSH1 0x0 DUP1 SHL PUSH1 0x5 SLOAD EQ ISZERO JUMPDEST PUSH2 0xA94 JUMPI PUSH1 0x0 DUP1 REVERT JUMPDEST CALLER PUSH20 0xFFFFFFFFFFFFFFFFFFFFFFFFFFFFFFFFFFFFFFFF AND PUSH1 0x0 DUP1 SLOAD SWAP1 PUSH2 0x100 EXP SWAP1 DIV PUSH20 0xFFFFFFFFFFFFFFFFFFFFFFFFFFFFFFFFFFFFFFFF AND PUSH20 0xFFFFFFFFFFFFFFFFFFFFFFFFFFFFFFFFFFFFFFFF AND EQ ISZERO PUSH2 0xB88 JUMPI PUSH2 0xAF2 DUP5 DUP5 PUSH2 0xF06 JUMP JUMPDEST PUSH1 0x4 SLOAD EQ PUSH2 0xB35 JUMPI PUSH1 0x40 MLOAD PUSH32 0x8C379A000000000000000000000000000000000000000000000000000000000 DUP2 MSTORE PUSH1 0x4 ADD PUSH2 0xB2C SWAP1 PUSH2 0x126F JUMP JUMPDEST PUSH1 0x40 MLOAD DUP1 SWAP2 SUB SWAP1 REVERT JUMPDEST DUP4 PUSH1 0x3 DUP2 GT ISZERO PUSH2 0xB48 JUMPI PUSH2 0xB47 PUSH2 0x1492 JUMP JUMPDEST JUMPDEST PUSH1 0x3 PUSH1 0x1 PUSH2 0x100 EXP DUP2 SLOAD DUP2 PUSH1 0xFF MUL NOT AND SWAP1 DUP4 PUSH1 0x3 DUP2 GT ISZERO PUSH2 0xB6C JUMPI PUSH2 0xB6B PUSH2 0x1492 JUMP JUMPDEST JUMPDEST MUL OR SWAP1 SSTORE POP PUSH1 0x3 PUSH1 0x1 SWAP1 SLOAD SWAP1 PUSH2 0x100 EXP SWAP1 DIV PUSH1 0xFF AND SWAP2 POP PUSH2 0xCB9 JUMP JUMPDEST CALLER PUSH20 0xFFFFFFFFFFFFFFFFFFFFFFFFFFFFFFFFFFFFFFFF AND PUSH1 0x1 PUSH1 0x0 SWAP1 SLOAD SWAP1 PUSH2 0x100 EXP SWAP1 DIV PUSH20 0xFFFFFFFFFFFFFFFFFFFFFFFFFFFFFFFFFFFFFFFF AND PUSH20 0xFFFFFFFFFFFFFFFFFFFFFFFFFFFFFFFFFFFFFFFF AND EQ ISZERO PUSH2 0xC7E JUMPI PUSH2 0xBE8 DUP5 DUP5 PUSH2 0xF06 JUMP JUMPDEST PUSH1 0x5 SLOAD EQ PUSH2 0xC2B JUMPI PUSH1 0x40 MLOAD PUSH32 0x8C379A000000000000000000000000000000000000000000000000000000000 DUP2 MSTORE PUSH1 0x4 ADD PUSH2 0xC22 SWAP1 PUSH2 0x126F JUMP JUMPDEST PUSH1 0x40 MLOAD DUP1 SWAP2 SUB SWAP1 REVERT JUMPDEST DUP4 PUSH1 0x3 DUP2 GT ISZERO PUSH2 0xC3E JUMPI PUSH2 0xC3D PUSH2 0x1492 JUMP JUMPDEST JUMPDEST PUSH1 0x3 PUSH1 0x2 PUSH2 0x100 EXP DUP2 SLOAD DUP2 PUSH1 0xFF MUL NOT AND SWAP1 DUP4 PUSH1 0x3 DUP2 GT ISZERO PUSH2 0xC62 JUMPI PUSH2 0xC61 PUSH2 0x1492 JUMP JUMPDEST JUMPDEST MUL OR SWAP1 SSTORE POP PUSH1 0x3 PUSH1 0x2 SWAP1 SLOAD SWAP1 PUSH2 0x100 EXP SWAP1 DIV PUSH1 0xFF AND SWAP2 POP PUSH2 0xCB9 JUMP JUMPDEST PUSH1 0x40 MLOAD PUSH32 0x8C379A000000000000000000000000000000000000000000000000000000000 DUP2 MSTORE PUSH1 0x4 ADD PUSH2 0xCB0 SWAP1 PUSH2 0x11CF JUMP JUMPDEST PUSH1 0x40 MLOAD DUP1 SWAP2 SUB SWAP1 REVERT JUMPDEST POP SWAP3 SWAP2 POP POP JUMP JUMPDEST PUSH1 0x0 DUP1 PUSH1 0x0 SHL PUSH1 0x4 SLOAD EQ ISZERO DUP1 ISZERO PUSH2 0xCDC JUMPI POP PUSH1 0x0 DUP1 SHL PUSH1 0x5 SLOAD EQ ISZERO JUMPDEST SWAP1 POP SWAP1 JUMP JUMPDEST PUSH1 0x0 DUP1 PUSH1 0x0 SWAP1 SLOAD SWAP1 PUSH2 0x100 EXP SWAP1 DIV PUSH20 0xFFFFFFFFFFFFFFFFFFFFFFFFFFFFFFFFFFFFFFFF AND PUSH20 0xFFFFFFFFFFFFFFFFFFFFFFFFFFFFFFFFFFFFFFFF AND CALLER PUSH20 0xFFFFFFFFFFFFFFFFFFFFFFFFFFFFFFFFFFFFFFFF AND EQ DUP1 PUSH2 0xD8B JUMPI POP PUSH1 0x1 PUSH1 0x0 SWAP1 SLOAD SWAP1 PUSH2 0x100 EXP SWAP1 DIV PUSH20 0xFFFFFFFFFFFFFFFFFFFFFFFFFFFFFFFFFFFFFFFF AND PUSH20 0xFFFFFFFFFFFFFFFFFFFFFFFFFFFFFFFFFFFFFFFF AND CALLER PUSH20 0xFFFFFFFFFFFFFFFFFFFFFFFFFFFFFFFFFFFFFFFF AND EQ JUMPDEST PUSH2 0xDCA JUMPI PUSH1 0x40 MLOAD PUSH32 0x8C379A000000000000000000000000000000000000000000000000000000000 DUP2 MSTORE PUSH1 0x4 ADD PUSH2 0xDC1 SWAP1 PUSH2 0x11EF JUMP JUMPDEST PUSH1 0x40 MLOAD DUP1 SWAP2 SUB SWAP1 REVERT JUMPDEST DUP2 PUSH1 0x0 DUP2 EQ ISZERO PUSH2 0xE0F JUMPI PUSH1 0x40 MLOAD PUSH32 0x8C379A000000000000000000000000000000000000000000000000000000000 DUP2 MSTORE PUSH1 0x4 ADD PUSH2 0xE06 SWAP1 PUSH2 0x124F JUMP JUMPDEST PUSH1 0x40 MLOAD DUP1 SWAP2 SUB SWAP1 REVERT JUMPDEST PUSH1 0x0 DUP1 SLOAD SWAP1 PUSH2 0x100 EXP SWAP1 DIV PUSH20 0xFFFFFFFFFFFFFFFFFFFFFFFFFFFFFFFFFFFFFFFF AND PUSH20 0xFFFFFFFFFFFFFFFFFFFFFFFFFFFFFFFFFFFFFFFF AND CALLER PUSH20 0xFFFFFFFFFFFFFFFFFFFFFFFFFFFFFFFFFFFFFFFF AND EQ DUP1 ISZERO PUSH2 0xE6E JUMPI POP PUSH1 0x0 DUP1 SHL PUSH1 0x4 SLOAD EQ JUMPDEST ISZERO PUSH2 0xE7F JUMPI DUP3 PUSH1 0x4 DUP2 SWAP1 SSTORE POP PUSH2 0xEFB JUMP JUMPDEST PUSH1 0x1 PUSH1 0x0 SWAP1 SLOAD SWAP1 PUSH2 0x100 EXP SWAP1 DIV PUSH20 0xFFFFFFFFFFFFFFFFFFFFFFFFFFFFFFFFFFFFFFFF AND PUSH20 0xFFFFFFFFFFFFFFFFFFFFFFFFFFFFFFFFFFFFFFFF AND CALLER PUSH20 0xFFFFFFFFFFFFFFFFFFFFFFFFFFFFFFFFFFFFFFFF AND EQ DUP1 ISZERO PUSH2 0xEE0 JUMPI POP PUSH1 0x0 DUP1 SHL PUSH1 0x5 SLOAD EQ JUMPDEST ISZERO PUSH2 0xEF1 JUMPI DUP3 PUSH1 0x5 DUP2 SWAP1 SSTORE POP PUSH2 0xEFA JUMP JUMPDEST PUSH1 0x0 SWAP2 POP PUSH2 0xF00 JUMP JUMPDEST JUMPDEST PUSH1 0x1 SWAP2 POP JUMPDEST POP SWAP2 SWAP1 POP JUMP JUMPDEST PUSH1 0x0 DUP3 DUP3 PUSH1 0x40 MLOAD PUSH1 0x20 ADD PUSH2 0xF1B SWAP3 SWAP2 SWAP1 PUSH2 0x1152 JUMP JUMPDEST PUSH1 0x40 MLOAD PUSH1 0x20 DUP2 DUP4 SUB SUB DUP2 MSTORE SWAP1 PUSH1 0x40 MSTORE DUP1 MLOAD SWAP1 PUSH1 0x20 ADD KECCAK256 SWAP1 POP SWAP3 SWAP2 POP POP JUMP JUMPDEST PUSH1 0x0 DUP2 CALLDATALOAD SWAP1 POP PUSH2 0xF48 DUP2 PUSH2 0x1682 JUMP JUMPDEST SWAP3 SWAP2 POP POP JUMP JUMPDEST PUSH1 0x0 DUP2 CALLDATALOAD SWAP1 POP PUSH2 0xF5D DUP2 PUSH2 0x1699 JUMP JUMPDEST SWAP3 SWAP2 POP POP JUMP JUMPDEST PUSH1 0x0 PUSH1 0x20 DUP3 DUP5 SUB SLT ISZERO PUSH2 0xF79 JUMPI PUSH2 0xF78 PUSH2 0x14C1 JUMP JUMPDEST JUMPDEST PUSH1 0x0 PUSH2 0xF87 DUP5 DUP3 DUP6 ADD PUSH2 0xF39 JUMP JUMPDEST SWAP2 POP POP SWAP3 SWAP2 POP POP JUMP JUMPDEST PUSH1 0x0 DUP1 PUSH1 0x40 DUP4 DUP6 SUB SLT ISZERO PUSH2 0xFA7 JUMPI PUSH2 0xFA6 PUSH2 0x14C1 JUMP JUMPDEST JUMPDEST PUSH1 0x0 PUSH2 0xFB5 DUP6 DUP3 DUP7 ADD PUSH2 0xF4E JUMP JUMPDEST SWAP3 POP POP PUSH1 0x20 PUSH2 0xFC6 DUP6 DUP3 DUP7 ADD PUSH2 0xF39 JUMP JUMPDEST SWAP2 POP POP SWAP3 POP SWAP3 SWAP1 POP JUMP JUMPDEST PUSH2 0xFD9 DUP2 PUSH2 0x1385 JUMP JUMPDEST DUP3 MSTORE POP POP JUMP JUMPDEST PUSH2 0xFF0 PUSH2 0xFEB DUP3 PUSH2 0x1391 JUMP JUMPDEST PUSH2 0x13EF JUMP JUMPDEST DUP3 MSTORE POP POP JUMP JUMPDEST PUSH2 0xFFF DUP2 PUSH2 0x13CB JUMP JUMPDEST DUP3 MSTORE POP POP JUMP JUMPDEST PUSH2 0x100E DUP2 PUSH2 0x13DD JUMP JUMPDEST DUP3 MSTORE POP POP JUMP JUMPDEST PUSH1 0x0 PUSH2 0x1021 PUSH1 0x16 DUP4 PUSH2 0x12EA JUMP JUMPDEST SWAP2 POP PUSH2 0x102C DUP3 PUSH2 0x14C6 JUMP JUMPDEST PUSH1 0x20 DUP3 ADD SWAP1 POP SWAP2 SWAP1 POP JUMP JUMPDEST PUSH1 0x0 PUSH2 0x1044 PUSH1 0x19 DUP4 PUSH2 0x12EA JUMP JUMPDEST SWAP2 POP PUSH2 0x104F DUP3 PUSH2 0x14EF JUMP JUMPDEST PUSH1 0x20 DUP3 ADD SWAP1 POP SWAP2 SWAP1 POP JUMP JUMPDEST PUSH1 0x0 PUSH2 0x1067 PUSH1 0x22 DUP4 PUSH2 0x12EA JUMP JUMPDEST SWAP2 POP PUSH2 0x1072 DUP3 PUSH2 0x1518 JUMP JUMPDEST PUSH1 0x40 DUP3 ADD SWAP1 POP SWAP2 SWAP1 POP JUMP JUMPDEST PUSH1 0x0 PUSH2 0x108A PUSH1 0x10 DUP4 PUSH2 0x12EA JUMP JUMPDEST SWAP2 POP PUSH2 0x1095 DUP3 PUSH2 0x1567 JUMP JUMPDEST PUSH1 0x20 DUP3 ADD SWAP1 POP SWAP2 SWAP1 POP JUMP JUMPDEST PUSH1 0x0 PUSH2 0x10AD PUSH1 0x1A DUP4 PUSH2 0x12EA JUMP JUMPDEST SWAP2 POP PUSH2 0x10B8 DUP3 PUSH2 0x1590 JUMP JUMPDEST PUSH1 0x20 DUP3 ADD SWAP1 POP SWAP2 SWAP1 POP JUMP JUMPDEST PUSH1 0x0 PUSH2 0x10D0 PUSH1 0x11 DUP4 PUSH2 0x12EA JUMP JUMPDEST SWAP2 POP PUSH2 0x10DB DUP3 PUSH2 0x15B9 JUMP JUMPDEST PUSH1 0x20 DUP3 ADD SWAP1 POP SWAP2 SWAP1 POP JUMP JUMPDEST PUSH1 0x0 PUSH2 0x10F3 PUSH1 0x22 DUP4 PUSH2 0x12EA JUMP JUMPDEST SWAP2 POP PUSH2 0x10FE DUP3 PUSH2 0x15E2 JUMP JUMPDEST PUSH1 0x40 DUP3 ADD SWAP1 POP SWAP2 SWAP1 POP JUMP JUMPDEST PUSH1 0x0 PUSH2 0x1116 PUSH1 0x16 DUP4 PUSH2 0x12EA JUMP JUMPDEST SWAP2 POP PUSH2 0x1121 DUP3 PUSH2 0x1631 JUMP JUMPDEST PUSH1 0x20 DUP3 ADD SWAP1 POP SWAP2 SWAP1 POP JUMP JUMPDEST PUSH2 0x1135 DUP2 PUSH2 0x13C1 JUMP JUMPDEST DUP3 MSTORE POP POP JUMP JUMPDEST PUSH2 0x114C PUSH2 0x1147 DUP3 PUSH2 0x13C1 JUMP JUMPDEST PUSH2 0x13F9 JUMP JUMPDEST DUP3 MSTORE POP POP JUMP JUMPDEST PUSH1 0x0 PUSH2 0x115E DUP3 DUP6 PUSH2 0x113B JUMP JUMPDEST PUSH1 0x20 DUP3 ADD SWAP2 POP PUSH2 0x116E DUP3 DUP5 PUSH2 0xFDF JUMP JUMPDEST PUSH1 0x20 DUP3 ADD SWAP2 POP DUP2 SWAP1 POP SWAP4 SWAP3 POP POP POP JUMP JUMPDEST PUSH1 0x0 PUSH1 0x20 DUP3 ADD SWAP1 POP PUSH2 0x1193 PUSH1 0x0 DUP4 ADD DUP5 PUSH2 0xFD0 JUMP JUMPDEST SWAP3 SWAP2 POP POP JUMP JUMPDEST PUSH1 0x0 PUSH1 0x20 DUP3 ADD SWAP1 POP PUSH2 0x11AE PUSH1 0x0 DUP4 ADD DUP5 PUSH2 0xFF6 JUMP JUMPDEST SWAP3 SWAP2 POP POP JUMP JUMPDEST PUSH1 0x0 PUSH1 0x20 DUP3 ADD SWAP1 POP PUSH2 0x11C9 PUSH1 0x0 DUP4 ADD DUP5 PUSH2 0x1005 JUMP JUMPDEST SWAP3 SWAP2 POP POP JUMP JUMPDEST PUSH1 0x0 PUSH1 0x20 DUP3 ADD SWAP1 POP DUP2 DUP2 SUB PUSH1 0x0 DUP4 ADD MSTORE PUSH2 0x11E8 DUP2 PUSH2 0x1014 JUMP JUMPDEST SWAP1 POP SWAP2 SWAP1 POP JUMP JUMPDEST PUSH1 0x0 PUSH1 0x20 DUP3 ADD SWAP1 POP DUP2 DUP2 SUB PUSH1 0x0 DUP4 ADD MSTORE PUSH2 0x1208 DUP2 PUSH2 0x1037 JUMP JUMPDEST SWAP1 POP SWAP2 SWAP1 POP JUMP JUMPDEST PUSH1 0x0 PUSH1 0x20 DUP3 ADD SWAP1 POP DUP2 DUP2 SUB PUSH1 0x0 DUP4 ADD MSTORE PUSH2 0x1228 DUP2 PUSH2 0x105A JUMP JUMPDEST SWAP1 POP SWAP2 SWAP1 POP JUMP JUMPDEST PUSH1 0x0 PUSH1 0x20 DUP3 ADD SWAP1 POP DUP2 DUP2 SUB PUSH1 0x0 DUP4 ADD MSTORE PUSH2 0x1248 DUP2 PUSH2 0x107D JUMP JUMPDEST SWAP1 POP SWAP2 SWAP1 POP JUMP JUMPDEST PUSH1 0x0 PUSH1 0x20 DUP3 ADD SWAP1 POP DUP2 DUP2 SUB PUSH1 0x0 DUP4 ADD MSTORE PUSH2 0x1268 DUP2 PUSH2 0x10A0 JUMP JUMPDEST SWAP1 POP SWAP2 SWAP1 POP JUMP JUMPDEST PUSH1 0x0 PUSH1 0x20 DUP3 ADD SWAP1 POP DUP2 DUP2 SUB PUSH1 0x0 DUP4 ADD MSTORE PUSH2 0x1288 DUP2 PUSH2 0x10C3 JUMP JUMPDEST SWAP1 POP SWAP2 SWAP1 POP JUMP JUMPDEST PUSH1 0x0 PUSH1 0x20 DUP3 ADD SWAP1 POP DUP2 DUP2 SUB PUSH1 0x0 DUP4 ADD MSTORE PUSH2 0x12A8 DUP2 PUSH2 0x10E6 JUMP JUMPDEST SWAP1 POP SWAP2 SWAP1 POP JUMP JUMPDEST PUSH1 0x0 PUSH1 0x20 DUP3 ADD SWAP1 POP DUP2 DUP2 SUB PUSH1 0x0 DUP4 ADD MSTORE PUSH2 0x12C8 DUP2 PUSH2 0x1109 JUMP JUMPDEST SWAP1 POP SWAP2 SWAP1 POP JUMP JUMPDEST PUSH1 0x0 PUSH1 0x20 DUP3 ADD SWAP1 POP PUSH2 0x12E4 PUSH1 0x0 DUP4 ADD DUP5 PUSH2 0x112C JUMP JUMPDEST SWAP3 SWAP2 POP POP JUMP JUMPDEST PUSH1 0x0 DUP3 DUP3 MSTORE PUSH1 0x20 DUP3 ADD SWAP1 POP SWAP3 SWAP2 POP POP JUMP JUMPDEST PUSH1 0x0 PUSH2 0x1306 DUP3 PUSH2 0x13C1 JUMP JUMPDEST SWAP2 POP PUSH2 0x1311 DUP4 PUSH2 0x13C1 JUMP JUMPDEST SWAP3 POP DUP3 PUSH32 0xFFFFFFFFFFFFFFFFFFFFFFFFFFFFFFFFFFFFFFFFFFFFFFFFFFFFFFFFFFFFFFFF SUB DUP3 GT ISZERO PUSH2 0x1346 JUMPI PUSH2 0x1345 PUSH2 0x1434 JUMP JUMPDEST JUMPDEST DUP3 DUP3 ADD SWAP1 POP SWAP3 SWAP2 POP POP JUMP JUMPDEST PUSH1 0x0 PUSH2 0x135C DUP3 PUSH2 0x13C1 JUMP JUMPDEST SWAP2 POP PUSH2 0x1367 DUP4 PUSH2 0x13C1 JUMP JUMPDEST SWAP3 POP DUP3 DUP3 LT ISZERO PUSH2 0x137A JUMPI PUSH2 0x1379 PUSH2 0x1434 JUMP JUMPDEST JUMPDEST DUP3 DUP3 SUB SWAP1 POP SWAP3 SWAP2 POP POP JUMP JUMPDEST PUSH1 0x0 DUP2 ISZERO ISZERO SWAP1 POP SWAP2 SWAP1 POP JUMP JUMPDEST PUSH1 0x0 DUP2 SWAP1 POP SWAP2 SWAP1 POP JUMP JUMPDEST PUSH1 0x0 DUP2 SWAP1 POP PUSH2 0x13A9 DUP3 PUSH2 0x165A JUMP JUMPDEST SWAP2 SWAP1 POP JUMP JUMPDEST PUSH1 0x0 DUP2 SWAP1 POP PUSH2 0x13BC DUP3 PUSH2 0x166E JUMP JUMPDEST SWAP2 SWAP1 POP JUMP JUMPDEST PUSH1 0x0 DUP2 SWAP1 POP SWAP2 SWAP1 POP JUMP JUMPDEST PUSH1 0x0 PUSH2 0x13D6 DUP3 PUSH2 0x139B JUMP JUMPDEST SWAP1 POP SWAP2 SWAP1 POP JUMP JUMPDEST PUSH1 0x0 PUSH2 0x13E8 DUP3 PUSH2 0x13AE JUMP JUMPDEST SWAP1 POP SWAP2 SWAP1 POP JUMP JUMPDEST PUSH1 0x0 DUP2 SWAP1 POP SWAP2 SWAP1 POP JUMP JUMPDEST PUSH1 0x0 DUP2 SWAP1 POP SWAP2 SWAP1 POP JUMP JUMPDEST PUSH1 0x0 PUSH2 0x140E DUP3 PUSH2 0x13C1 JUMP JUMPDEST SWAP2 POP PUSH2 0x1419 DUP4 PUSH2 0x13C1 JUMP JUMPDEST SWAP3 POP DUP3 PUSH2 0x1429 JUMPI PUSH2 0x1428 PUSH2 0x1463 JUMP JUMPDEST JUMPDEST DUP3 DUP3 MOD SWAP1 POP SWAP3 SWAP2 POP POP JUMP JUMPDEST PUSH32 0x4E487B7100000000000000000000000000000000000000000000000000000000 PUSH1 0x0 MSTORE PUSH1 0x11 PUSH1 0x4 MSTORE PUSH1 0x24 PUSH1 0x0 REVERT JUMPDEST PUSH32 0x4E487B7100000000000000000000000000000000000000000000000000000000 PUSH1 0x0 MSTORE PUSH1 0x12 PUSH1 0x4 MSTORE PUSH1 0x24 PUSH1 0x0 REVERT JUMPDEST PUSH32 0x4E487B7100000000000000000000000000000000000000000000000000000000 PUSH1 0x0 MSTORE PUSH1 0x21 PUSH1 0x4 MSTORE PUSH1 0x24 PUSH1 0x0 REVERT JUMPDEST PUSH1 0x0 DUP1 REVERT JUMPDEST PUSH32 0x50726F626C656D20776974682061646472657373657300000000000000000000 PUSH1 0x0 DUP3 ADD MSTORE POP JUMP JUMPDEST PUSH32 0x4E6F74207265676973746572656420706C617965722079657400000000000000 PUSH1 0x0 DUP3 ADD MSTORE POP JUMP JUMPDEST PUSH32 0x5468697320706C617965722068617320616C7265616479207265676973746572 PUSH1 0x0 DUP3 ADD MSTORE PUSH32 0x6564000000000000000000000000000000000000000000000000000000000000 PUSH1 0x20 DUP3 ADD MSTORE POP JUMP JUMPDEST PUSH32 0x496E636F72726563742063686F69636500000000000000000000000000000000 PUSH1 0x0 DUP3 ADD MSTORE POP JUMP JUMPDEST PUSH32 0x47616D65206861736820776173206E6F742070726F7669646564000000000000 PUSH1 0x0 DUP3 ADD MSTORE POP JUMP JUMPDEST PUSH32 0x70726F626C656D20776974682073616C74000000000000000000000000000000 PUSH1 0x0 DUP3 ADD MSTORE POP JUMP JUMPDEST PUSH32 0x426574206973206C6F776572207468616E20706F737369626C65206D696E696D PUSH1 0x0 DUP3 ADD MSTORE PUSH32 0x756D000000000000000000000000000000000000000000000000000000000000 PUSH1 0x20 DUP3 ADD MSTORE POP JUMP JUMPDEST PUSH32 0x50726F626C656D207769746820746865207374616B6500000000000000000000 PUSH1 0x0 DUP3 ADD MSTORE POP JUMP JUMPDEST PUSH1 0x4 DUP2 LT PUSH2 0x166B JUMPI PUSH2 0x166A PUSH2 0x1492 JUMP JUMPDEST JUMPDEST POP JUMP JUMPDEST PUSH1 0x3 DUP2 LT PUSH2 0x167F JUMPI PUSH2 0x167E PUSH2 0x1492 JUMP JUMPDEST JUMPDEST POP JUMP JUMPDEST PUSH2 0x168B DUP2 PUSH2 0x1391 JUMP JUMPDEST DUP2 EQ PUSH2 0x1696 JUMPI PUSH1 0x0 DUP1 REVERT JUMPDEST POP JUMP JUMPDEST PUSH2 0x16A2 DUP2 PUSH2 0x13C1 JUMP JUMPDEST DUP2 EQ PUSH2 0x16AD JUMPI PUSH1 0x0 DUP1 REVERT JUMPDEST POP JUMP INVALID LOG2 PUSH5 0x6970667358 0x22 SLT KECCAK256 0x4E DUP6 PUSH14 0x269D8B66D3A3865A5AF297DAAF4A 0xE2 ORIGIN 0xD7 0xCE 0xC5 0xBC 0xAD 0xF6 BYTE 0xF6 CALLDATALOAD 0xCF 0xC4 0xC1 0xDA PUSH5 0x736F6C6343 STOP ADDMOD SMOD STOP CALLER "
				},
				"gasEstimates": {
					"creation": {
						"codeDepositCost": "1172400",
						"executionCost": "1221",
						"totalCost": "1173621"
					},
					"external": {
						"bothCommitted()": "4664",
						"bothRevealed()": "4862",
						"commitMove(bytes32)": "35816",
						"endGames()": "infinite",
						"getContractBalance()": "361",
						"outcome()": "2605",
						"regPlayer()": "57526",
						"revealChoice(uint256,bytes32)": "infinite",
						"stake()": "2496"
					},
					"internal": {
						"getSaltedHash(uint256,bytes32)": "infinite",
						"reset()": "infinite"
					}
				},
				"methodIdentifiers": {
					"bothCommitted()": "92c90480",
					"bothRevealed()": "43445ca8",
					"commitMove(bytes32)": "a9ea37b6",
					"endGames()": "11b0af15",
					"getContractBalance()": "6f9fb98a",
					"outcome()": "27793f87",
					"regPlayer()": "20737796",
					"revealChoice(uint256,bytes32)": "8c10bb96",
					"stake()": "3a4b66f1"
				}
			},
			"storageLayout": {
				"storage": [
					{
						"astId": 20,
						"contract": "contracts/RPS.sol:RPS",
						"label": "playerOne",
						"offset": 0,
						"slot": "0",
						"type": "t_address_payable"
					},
					{
						"astId": 22,
						"contract": "contracts/RPS.sol:RPS",
						"label": "playerTwo",
						"offset": 0,
						"slot": "1",
						"type": "t_address_payable"
					},
					{
						"astId": 24,
						"contract": "contracts/RPS.sol:RPS",
						"label": "stake",
						"offset": 0,
						"slot": "2",
						"type": "t_uint256"
					},
					{
						"astId": 27,
						"contract": "contracts/RPS.sol:RPS",
						"label": "outcome",
						"offset": 0,
						"slot": "3",
						"type": "t_enum(GameOutcome)13"
					},
					{
						"astId": 30,
						"contract": "contracts/RPS.sol:RPS",
						"label": "playerOneChoice",
						"offset": 1,
						"slot": "3",
						"type": "t_enum(GameChoice)18"
					},
					{
						"astId": 33,
						"contract": "contracts/RPS.sol:RPS",
						"label": "playerTwoChoice",
						"offset": 2,
						"slot": "3",
						"type": "t_enum(GameChoice)18"
					},
					{
						"astId": 35,
						"contract": "contracts/RPS.sol:RPS",
						"label": "playerOneHash",
						"offset": 0,
						"slot": "4",
						"type": "t_bytes32"
					},
					{
						"astId": 37,
						"contract": "contracts/RPS.sol:RPS",
						"label": "playerTwoHash",
						"offset": 0,
						"slot": "5",
						"type": "t_bytes32"
					}
				],
				"types": {
					"t_address_payable": {
						"encoding": "inplace",
						"label": "address payable",
						"numberOfBytes": "20"
					},
					"t_bytes32": {
						"encoding": "inplace",
						"label": "bytes32",
						"numberOfBytes": "32"
					},
					"t_enum(GameChoice)18": {
						"encoding": "inplace",
						"label": "enum RPS.GameChoice",
						"numberOfBytes": "1"
					},
					"t_enum(GameOutcome)13": {
						"encoding": "inplace",
						"label": "enum RPS.GameOutcome",
						"numberOfBytes": "1"
					},
					"t_uint256": {
						"encoding": "inplace",
						"label": "uint256",
						"numberOfBytes": "32"
					}
				}
			},
			"userdoc": {
				"kind": "user",
				"methods": {},
				"version": 1
			}
		}
	}
}