{
	"contracts/RPS.sol": {
		"RPS": {
			"abi": [
				{
					"anonymous": false,
					"inputs": [
						{
							"indexed": false,
							"internalType": "bool",
							"name": "",
							"type": "bool"
						}
					],
					"name": "GameCommit",
					"type": "event"
				},
				{
					"anonymous": false,
					"inputs": [
						{
							"indexed": false,
							"internalType": "uint256",
							"name": "",
							"type": "uint256"
						}
					],
					"name": "GameRegister",
					"type": "event"
				},
				{
					"anonymous": false,
					"inputs": [
						{
							"indexed": false,
							"internalType": "enum RPS.GameChoice",
							"name": "",
							"type": "uint8"
						}
					],
					"name": "GameReveal",
					"type": "event"
				},
				{
					"anonymous": false,
					"inputs": [
						{
							"indexed": false,
							"internalType": "enum RPS.GameOutcome",
							"name": "",
							"type": "uint8"
						}
					],
					"name": "GetGameOutcome",
					"type": "event"
				},
				{
					"inputs": [],
					"name": "bothCommitted",
					"outputs": [
						{
							"internalType": "bool",
							"name": "",
							"type": "bool"
						}
					],
					"stateMutability": "view",
					"type": "function"
				},
				{
					"inputs": [],
					"name": "bothRevealed",
					"outputs": [
						{
							"internalType": "bool",
							"name": "",
							"type": "bool"
						}
					],
					"stateMutability": "view",
					"type": "function"
				},
				{
					"inputs": [
						{
							"internalType": "bytes32",
							"name": "gameHash",
							"type": "bytes32"
						}
					],
					"name": "commitMove",
					"outputs": [
						{
							"internalType": "bool",
							"name": "",
							"type": "bool"
						}
					],
					"stateMutability": "nonpayable",
					"type": "function"
				},
				{
					"inputs": [],
					"name": "endGames",
					"outputs": [
						{
							"internalType": "enum RPS.GameOutcome",
							"name": "",
							"type": "uint8"
						}
					],
					"stateMutability": "nonpayable",
					"type": "function"
				},
				{
					"inputs": [],
					"name": "getContractBalance",
					"outputs": [
						{
							"internalType": "uint256",
							"name": "",
							"type": "uint256"
						}
					],
					"stateMutability": "view",
					"type": "function"
				},
				{
					"inputs": [
						{
							"internalType": "address",
							"name": "player",
							"type": "address"
						}
					],
					"name": "isCommitted",
					"outputs": [
						{
							"internalType": "bool",
							"name": "",
							"type": "bool"
						}
					],
					"stateMutability": "view",
					"type": "function"
				},
				{
					"inputs": [
						{
							"internalType": "address",
							"name": "player",
							"type": "address"
						}
					],
					"name": "isRegistered",
					"outputs": [
						{
							"internalType": "bool",
							"name": "",
							"type": "bool"
						}
					],
					"stateMutability": "view",
					"type": "function"
				},
				{
					"inputs": [
						{
							"internalType": "address",
							"name": "player",
							"type": "address"
						}
					],
					"name": "isRevealed",
					"outputs": [
						{
							"internalType": "bool",
							"name": "",
							"type": "bool"
						}
					],
					"stateMutability": "view",
					"type": "function"
				},
				{
					"inputs": [],
					"name": "outcome",
					"outputs": [
						{
							"internalType": "enum RPS.GameOutcome",
							"name": "",
							"type": "uint8"
						}
					],
					"stateMutability": "view",
					"type": "function"
				},
				{
					"inputs": [],
					"name": "regPlayer",
					"outputs": [
						{
							"internalType": "uint256",
							"name": "",
							"type": "uint256"
						}
					],
					"stateMutability": "payable",
					"type": "function"
				},
				{
					"inputs": [
						{
							"internalType": "uint256",
							"name": "choice",
							"type": "uint256"
						},
						{
							"internalType": "bytes32",
							"name": "salt",
							"type": "bytes32"
						}
					],
					"name": "revealChoice",
					"outputs": [
						{
							"internalType": "enum RPS.GameChoice",
							"name": "",
							"type": "uint8"
						}
					],
					"stateMutability": "nonpayable",
					"type": "function"
				},
				{
					"inputs": [],
					"name": "stake",
					"outputs": [
						{
							"internalType": "uint256",
							"name": "",
							"type": "uint256"
						}
					],
					"stateMutability": "view",
					"type": "function"
				}
			],
			"devdoc": {
				"kind": "dev",
				"methods": {},
				"version": 1
			},
			"evm": {
				"assembly": "    /* \"contracts/RPS.sol\":75:5327  contract RPS {... */\n  mstore(0x40, 0x80)\n  callvalue\n  dup1\n  iszero\n  tag_1\n  jumpi\n  0x00\n  dup1\n  revert\ntag_1:\n  pop\n  dataSize(sub_0)\n  dup1\n  dataOffset(sub_0)\n  0x00\n  codecopy\n  0x00\n  return\nstop\n\nsub_0: assembly {\n        /* \"contracts/RPS.sol\":75:5327  contract RPS {... */\n      mstore(0x40, 0x80)\n      jumpi(tag_1, lt(calldatasize, 0x04))\n      shr(0xe0, calldataload(0x00))\n      dup1\n      0x6f9fb98a\n      gt\n      tag_14\n      jumpi\n      dup1\n      0x6f9fb98a\n      eq\n      tag_8\n      jumpi\n      dup1\n      0x8c10bb96\n      eq\n      tag_9\n      jumpi\n      dup1\n      0x92c90480\n      eq\n      tag_10\n      jumpi\n      dup1\n      0xa9ea37b6\n      eq\n      tag_11\n      jumpi\n      dup1\n      0xc3c5a547\n      eq\n      tag_12\n      jumpi\n      dup1\n      0xe711a812\n      eq\n      tag_13\n      jumpi\n      jump(tag_1)\n    tag_14:\n      dup1\n      0x11b0af15\n      eq\n      tag_2\n      jumpi\n      dup1\n      0x15b80df8\n      eq\n      tag_3\n      jumpi\n      dup1\n      0x20737796\n      eq\n      tag_4\n      jumpi\n      dup1\n      0x27793f87\n      eq\n      tag_5\n      jumpi\n      dup1\n      0x3a4b66f1\n      eq\n      tag_6\n      jumpi\n      dup1\n      0x43445ca8\n      eq\n      tag_7\n      jumpi\n    tag_1:\n      0x00\n      dup1\n      revert\n        /* \"contracts/RPS.sol\":3359:3919  function endGames() external revealed returns(GameOutcome) {... */\n    tag_2:\n      callvalue\n      dup1\n      iszero\n      tag_15\n      jumpi\n      0x00\n      dup1\n      revert\n    tag_15:\n      pop\n      tag_16\n      tag_17\n      jump\t// in\n    tag_16:\n      mload(0x40)\n      tag_18\n      swap2\n      swap1\n      tag_19\n      jump\t// in\n    tag_18:\n      mload(0x40)\n      dup1\n      swap2\n      sub\n      swap1\n      return\n        /* \"contracts/RPS.sol\":4615:4812  function isCommitted(address player) public view returns (bool) {... */\n    tag_3:\n      callvalue\n      dup1\n      iszero\n      tag_20\n      jumpi\n      0x00\n      dup1\n      revert\n    tag_20:\n      pop\n      tag_21\n      0x04\n      dup1\n      calldatasize\n      sub\n      dup2\n      add\n      swap1\n      tag_22\n      swap2\n      swap1\n      tag_23\n      jump\t// in\n    tag_22:\n      tag_24\n      jump\t// in\n    tag_21:\n      mload(0x40)\n      tag_25\n      swap2\n      swap1\n      tag_26\n      jump\t// in\n    tag_25:\n      mload(0x40)\n      dup1\n      swap2\n      sub\n      swap1\n      return\n        /* \"contracts/RPS.sol\":1700:2161  function regPlayer() public payable validBet notRegistered returns (uint) {... */\n    tag_4:\n      tag_27\n      tag_28\n      jump\t// in\n    tag_27:\n      mload(0x40)\n      tag_29\n      swap2\n      swap1\n      tag_30\n      jump\t// in\n    tag_29:\n      mload(0x40)\n      dup1\n      swap2\n      sub\n      swap1\n      return\n        /* \"contracts/RPS.sol\":517:543  GameOutcome public outcome */\n    tag_5:\n      callvalue\n      dup1\n      iszero\n      tag_31\n      jumpi\n      0x00\n      dup1\n      revert\n    tag_31:\n      pop\n      tag_32\n      tag_33\n      jump\t// in\n    tag_32:\n      mload(0x40)\n      tag_34\n      swap2\n      swap1\n      tag_19\n      jump\t// in\n    tag_34:\n      mload(0x40)\n      dup1\n      swap2\n      sub\n      swap1\n      return\n        /* \"contracts/RPS.sol\":494:511  uint public stake */\n    tag_6:\n      callvalue\n      dup1\n      iszero\n      tag_35\n      jumpi\n      0x00\n      dup1\n      revert\n    tag_35:\n      pop\n      tag_36\n      tag_37\n      jump\t// in\n    tag_36:\n      mload(0x40)\n      tag_38\n      swap2\n      swap1\n      tag_30\n      jump\t// in\n    tag_38:\n      mload(0x40)\n      dup1\n      swap2\n      sub\n      swap1\n      return\n        /* \"contracts/RPS.sol\":5176:5325  function bothRevealed() public view returns (bool) {... */\n    tag_7:\n      callvalue\n      dup1\n      iszero\n      tag_39\n      jumpi\n      0x00\n      dup1\n      revert\n    tag_39:\n      pop\n      tag_40\n      tag_41\n      jump\t// in\n    tag_40:\n      mload(0x40)\n      tag_42\n      swap2\n      swap1\n      tag_26\n      jump\t// in\n    tag_42:\n      mload(0x40)\n      dup1\n      swap2\n      sub\n      swap1\n      return\n        /* \"contracts/RPS.sol\":4368:4470  function getContractBalance() public view returns (uint) {... */\n    tag_8:\n      callvalue\n      dup1\n      iszero\n      tag_43\n      jumpi\n      0x00\n      dup1\n      revert\n    tag_43:\n      pop\n      tag_44\n      tag_45\n      jump\t// in\n    tag_44:\n      mload(0x40)\n      tag_46\n      swap2\n      swap1\n      tag_30\n      jump\t// in\n    tag_46:\n      mload(0x40)\n      dup1\n      swap2\n      sub\n      swap1\n      return\n        /* \"contracts/RPS.sol\":2627:3353  function revealChoice(uint choice, bytes32 salt) public hasRegistered correctChoice(choice) committed returns (GameChoice) {... */\n    tag_9:\n      callvalue\n      dup1\n      iszero\n      tag_47\n      jumpi\n      0x00\n      dup1\n      revert\n    tag_47:\n      pop\n      tag_48\n      0x04\n      dup1\n      calldatasize\n      sub\n      dup2\n      add\n      swap1\n      tag_49\n      swap2\n      swap1\n      tag_50\n      jump\t// in\n    tag_49:\n      tag_51\n      jump\t// in\n    tag_48:\n      mload(0x40)\n      tag_52\n      swap2\n      swap1\n      tag_53\n      jump\t// in\n    tag_52:\n      mload(0x40)\n      dup1\n      swap2\n      sub\n      swap1\n      return\n        /* \"contracts/RPS.sol\":5048:5170  function bothCommitted() public view returns (bool) {... */\n    tag_10:\n      callvalue\n      dup1\n      iszero\n      tag_54\n      jumpi\n      0x00\n      dup1\n      revert\n    tag_54:\n      pop\n      tag_55\n      tag_56\n      jump\t// in\n    tag_55:\n      mload(0x40)\n      tag_57\n      swap2\n      swap1\n      tag_26\n      jump\t// in\n    tag_57:\n      mload(0x40)\n      dup1\n      swap2\n      sub\n      swap1\n      return\n        /* \"contracts/RPS.sol\":2167:2621  function commitMove(bytes32 gameHash) public hasRegistered hashProvided(gameHash) returns (bool) {... */\n    tag_11:\n      callvalue\n      dup1\n      iszero\n      tag_58\n      jumpi\n      0x00\n      dup1\n      revert\n    tag_58:\n      pop\n      tag_59\n      0x04\n      dup1\n      calldatasize\n      sub\n      dup2\n      add\n      swap1\n      tag_60\n      swap2\n      swap1\n      tag_61\n      jump\t// in\n    tag_60:\n      tag_62\n      jump\t// in\n    tag_59:\n      mload(0x40)\n      tag_63\n      swap2\n      swap1\n      tag_26\n      jump\t// in\n    tag_63:\n      mload(0x40)\n      dup1\n      swap2\n      sub\n      swap1\n      return\n        /* \"contracts/RPS.sol\":4476:4609  function isRegistered(address player) public view returns (bool) {... */\n    tag_12:\n      callvalue\n      dup1\n      iszero\n      tag_64\n      jumpi\n      0x00\n      dup1\n      revert\n    tag_64:\n      pop\n      tag_65\n      0x04\n      dup1\n      calldatasize\n      sub\n      dup2\n      add\n      swap1\n      tag_66\n      swap2\n      swap1\n      tag_23\n      jump\t// in\n    tag_66:\n      tag_67\n      jump\t// in\n    tag_65:\n      mload(0x40)\n      tag_68\n      swap2\n      swap1\n      tag_26\n      jump\t// in\n    tag_68:\n      mload(0x40)\n      dup1\n      swap2\n      sub\n      swap1\n      return\n        /* \"contracts/RPS.sol\":4818:5042  function isRevealed(address player) public view returns (bool) {... */\n    tag_13:\n      callvalue\n      dup1\n      iszero\n      tag_69\n      jumpi\n      0x00\n      dup1\n      revert\n    tag_69:\n      pop\n      tag_70\n      0x04\n      dup1\n      calldatasize\n      sub\n      dup2\n      add\n      swap1\n      tag_71\n      swap2\n      swap1\n      tag_23\n      jump\t// in\n    tag_71:\n      tag_72\n      jump\t// in\n    tag_70:\n      mload(0x40)\n      tag_73\n      swap2\n      swap1\n      tag_26\n      jump\t// in\n    tag_73:\n      mload(0x40)\n      dup1\n      swap2\n      sub\n      swap1\n      return\n        /* \"contracts/RPS.sol\":3359:3919  function endGames() external revealed returns(GameOutcome) {... */\n    tag_17:\n        /* \"contracts/RPS.sol\":3405:3416  GameOutcome */\n      0x00\n        /* \"contracts/RPS.sol\":1622:1637  GameChoice.none */\n      dup1\n        /* \"contracts/RPS.sol\":1603:1637  playerOneChoice != GameChoice.none */\n      0x03\n      dup2\n      gt\n      iszero\n      tag_75\n      jumpi\n      tag_76\n      tag_77\n      jump\t// in\n    tag_76:\n    tag_75:\n        /* \"contracts/RPS.sol\":1603:1618  playerOneChoice */\n      0x03\n      0x01\n      swap1\n      sload\n      swap1\n      0x0100\n      exp\n      swap1\n      div\n      0xff\n      and\n        /* \"contracts/RPS.sol\":1603:1637  playerOneChoice != GameChoice.none */\n      0x03\n      dup2\n      gt\n      iszero\n      tag_78\n      jumpi\n      tag_79\n      tag_77\n      jump\t// in\n    tag_79:\n    tag_78:\n      eq\n      iszero\n        /* \"contracts/RPS.sol\":1603:1675  playerOneChoice != GameChoice.none && playerTwoChoice != GameChoice.none */\n      dup1\n      iszero\n      tag_80\n      jumpi\n      pop\n        /* \"contracts/RPS.sol\":1660:1675  GameChoice.none */\n      0x00\n        /* \"contracts/RPS.sol\":1641:1675  playerTwoChoice != GameChoice.none */\n      0x03\n      dup2\n      gt\n      iszero\n      tag_81\n      jumpi\n      tag_82\n      tag_77\n      jump\t// in\n    tag_82:\n    tag_81:\n        /* \"contracts/RPS.sol\":1641:1656  playerTwoChoice */\n      0x03\n      0x02\n      swap1\n      sload\n      swap1\n      0x0100\n      exp\n      swap1\n      div\n      0xff\n      and\n        /* \"contracts/RPS.sol\":1641:1675  playerTwoChoice != GameChoice.none */\n      0x03\n      dup2\n      gt\n      iszero\n      tag_83\n      jumpi\n      tag_84\n      tag_77\n      jump\t// in\n    tag_84:\n    tag_83:\n      eq\n      iszero\n        /* \"contracts/RPS.sol\":1603:1675  playerOneChoice != GameChoice.none && playerTwoChoice != GameChoice.none */\n    tag_80:\n        /* \"contracts/RPS.sol\":1595:1676  require(playerOneChoice != GameChoice.none && playerTwoChoice != GameChoice.none) */\n      tag_85\n      jumpi\n      0x00\n      dup1\n      revert\n    tag_85:\n        /* \"contracts/RPS.sol\":3504:3505  3 */\n      0x03\n        /* \"contracts/RPS.sol\":3484:3499  playerTwoChoice */\n      dup1\n      0x02\n      swap1\n      sload\n      swap1\n      0x0100\n      exp\n      swap1\n      div\n      0xff\n      and\n        /* \"contracts/RPS.sol\":3479:3500  uint(playerTwoChoice) */\n      0x03\n      dup2\n      gt\n      iszero\n      tag_87\n      jumpi\n      tag_88\n      tag_77\n      jump\t// in\n    tag_88:\n    tag_87:\n        /* \"contracts/RPS.sol\":3460:3475  playerOneChoice */\n      0x03\n      0x01\n      swap1\n      sload\n      swap1\n      0x0100\n      exp\n      swap1\n      div\n      0xff\n      and\n        /* \"contracts/RPS.sol\":3455:3476  uint(playerOneChoice) */\n      0x03\n      dup2\n      gt\n      iszero\n      tag_89\n      jumpi\n      tag_90\n      tag_77\n      jump\t// in\n    tag_90:\n    tag_89:\n        /* \"contracts/RPS.sol\":3451:3452  3 */\n      0x03\n        /* \"contracts/RPS.sol\":3451:3476  3 + uint(playerOneChoice) */\n      tag_91\n      swap2\n      swap1\n      tag_92\n      jump\t// in\n    tag_91:\n        /* \"contracts/RPS.sol\":3451:3500  3 + uint(playerOneChoice) - uint(playerTwoChoice) */\n      tag_93\n      swap2\n      swap1\n      tag_94\n      jump\t// in\n    tag_93:\n        /* \"contracts/RPS.sol\":3450:3505  (3 + uint(playerOneChoice) - uint(playerTwoChoice)) % 3 */\n      tag_95\n      swap2\n      swap1\n      tag_96\n      jump\t// in\n    tag_95:\n        /* \"contracts/RPS.sol\":3438:3506  GameOutcome((3 + uint(playerOneChoice) - uint(playerTwoChoice)) % 3) */\n      0x02\n      dup2\n      gt\n      iszero\n      tag_97\n      jumpi\n      tag_98\n      tag_77\n      jump\t// in\n    tag_98:\n    tag_97:\n        /* \"contracts/RPS.sol\":3428:3435  outcome */\n      0x03\n      0x00\n        /* \"contracts/RPS.sol\":3428:3506  outcome = GameOutcome((3 + uint(playerOneChoice) - uint(playerTwoChoice)) % 3) */\n      0x0100\n      exp\n      dup2\n      sload\n      dup2\n      0xff\n      mul\n      not\n      and\n      swap1\n      dup4\n      0x02\n      dup2\n      gt\n      iszero\n      tag_99\n      jumpi\n      tag_100\n      tag_77\n      jump\t// in\n    tag_100:\n    tag_99:\n      mul\n      or\n      swap1\n      sstore\n      pop\n        /* \"contracts/RPS.sol\":3532:3553  GameOutcome.playerOne */\n      0x01\n        /* \"contracts/RPS.sol\":3521:3553  outcome == GameOutcome.playerOne */\n      0x02\n      dup2\n      gt\n      iszero\n      tag_101\n      jumpi\n      tag_102\n      tag_77\n      jump\t// in\n    tag_102:\n    tag_101:\n        /* \"contracts/RPS.sol\":3521:3528  outcome */\n      0x03\n      0x00\n      swap1\n      sload\n      swap1\n      0x0100\n      exp\n      swap1\n      div\n      0xff\n      and\n        /* \"contracts/RPS.sol\":3521:3553  outcome == GameOutcome.playerOne */\n      0x02\n      dup2\n      gt\n      iszero\n      tag_103\n      jumpi\n      tag_104\n      tag_77\n      jump\t// in\n    tag_104:\n    tag_103:\n      eq\n        /* \"contracts/RPS.sol\":3517:3842  if (outcome == GameOutcome.playerOne) {... */\n      iszero\n      tag_105\n      jumpi\n        /* \"contracts/RPS.sol\":3569:3578  playerOne */\n      0x00\n      dup1\n      sload\n      swap1\n      0x0100\n      exp\n      swap1\n      div\n      0xffffffffffffffffffffffffffffffffffffffff\n      and\n        /* \"contracts/RPS.sol\":3569:3587  playerOne.transfer */\n      0xffffffffffffffffffffffffffffffffffffffff\n      and\n        /* \"contracts/RPS.sol\":3569:3610  playerOne.transfer(address(this).balance) */\n      0x08fc\n        /* \"contracts/RPS.sol\":3588:3609  address(this).balance */\n      selfbalance\n        /* \"contracts/RPS.sol\":3569:3610  playerOne.transfer(address(this).balance) */\n      swap1\n      dup2\n      iszero\n      mul\n      swap1\n      mload(0x40)\n      0x00\n      mload(0x40)\n      dup1\n      dup4\n      sub\n      dup2\n      dup6\n      dup9\n      dup9\n      call\n      swap4\n      pop\n      pop\n      pop\n      pop\n      iszero\n      dup1\n      iszero\n      tag_107\n      jumpi\n      returndatasize\n      0x00\n      dup1\n      returndatacopy\n      revert(0x00, returndatasize)\n    tag_107:\n      pop\n        /* \"contracts/RPS.sol\":3517:3842  if (outcome == GameOutcome.playerOne) {... */\n      jump(tag_108)\n    tag_105:\n        /* \"contracts/RPS.sol\":3642:3663  GameOutcome.playerTwo */\n      0x02\n        /* \"contracts/RPS.sol\":3631:3663  outcome == GameOutcome.playerTwo */\n      dup1\n      dup2\n      gt\n      iszero\n      tag_109\n      jumpi\n      tag_110\n      tag_77\n      jump\t// in\n    tag_110:\n    tag_109:\n        /* \"contracts/RPS.sol\":3631:3638  outcome */\n      0x03\n      0x00\n      swap1\n      sload\n      swap1\n      0x0100\n      exp\n      swap1\n      div\n      0xff\n      and\n        /* \"contracts/RPS.sol\":3631:3663  outcome == GameOutcome.playerTwo */\n      0x02\n      dup2\n      gt\n      iszero\n      tag_111\n      jumpi\n      tag_112\n      tag_77\n      jump\t// in\n    tag_112:\n    tag_111:\n      eq\n        /* \"contracts/RPS.sol\":3627:3842  if (outcome == GameOutcome.playerTwo) {... */\n      iszero\n      tag_113\n      jumpi\n        /* \"contracts/RPS.sol\":3679:3688  playerTwo */\n      0x01\n      0x00\n      swap1\n      sload\n      swap1\n      0x0100\n      exp\n      swap1\n      div\n      0xffffffffffffffffffffffffffffffffffffffff\n      and\n        /* \"contracts/RPS.sol\":3679:3697  playerTwo.transfer */\n      0xffffffffffffffffffffffffffffffffffffffff\n      and\n        /* \"contracts/RPS.sol\":3679:3720  playerTwo.transfer(address(this).balance) */\n      0x08fc\n        /* \"contracts/RPS.sol\":3698:3719  address(this).balance */\n      selfbalance\n        /* \"contracts/RPS.sol\":3679:3720  playerTwo.transfer(address(this).balance) */\n      swap1\n      dup2\n      iszero\n      mul\n      swap1\n      mload(0x40)\n      0x00\n      mload(0x40)\n      dup1\n      dup4\n      sub\n      dup2\n      dup6\n      dup9\n      dup9\n      call\n      swap4\n      pop\n      pop\n      pop\n      pop\n      iszero\n      dup1\n      iszero\n      tag_115\n      jumpi\n      returndatasize\n      0x00\n      dup1\n      returndatacopy\n      revert(0x00, returndatasize)\n    tag_115:\n      pop\n        /* \"contracts/RPS.sol\":3627:3842  if (outcome == GameOutcome.playerTwo) {... */\n      jump(tag_116)\n    tag_113:\n        /* \"contracts/RPS.sol\":3751:3760  playerOne */\n      0x00\n      dup1\n      sload\n      swap1\n      0x0100\n      exp\n      swap1\n      div\n      0xffffffffffffffffffffffffffffffffffffffff\n      and\n        /* \"contracts/RPS.sol\":3751:3769  playerOne.transfer */\n      0xffffffffffffffffffffffffffffffffffffffff\n      and\n        /* \"contracts/RPS.sol\":3751:3776  playerOne.transfer(stake) */\n      0x08fc\n        /* \"contracts/RPS.sol\":3770:3775  stake */\n      sload(0x02)\n        /* \"contracts/RPS.sol\":3751:3776  playerOne.transfer(stake) */\n      swap1\n      dup2\n      iszero\n      mul\n      swap1\n      mload(0x40)\n      0x00\n      mload(0x40)\n      dup1\n      dup4\n      sub\n      dup2\n      dup6\n      dup9\n      dup9\n      call\n      swap4\n      pop\n      pop\n      pop\n      pop\n      iszero\n      dup1\n      iszero\n      tag_118\n      jumpi\n      returndatasize\n      0x00\n      dup1\n      returndatacopy\n      revert(0x00, returndatasize)\n    tag_118:\n      pop\n        /* \"contracts/RPS.sol\":3790:3799  playerTwo */\n      0x01\n      0x00\n      swap1\n      sload\n      swap1\n      0x0100\n      exp\n      swap1\n      div\n      0xffffffffffffffffffffffffffffffffffffffff\n      and\n        /* \"contracts/RPS.sol\":3790:3808  playerTwo.transfer */\n      0xffffffffffffffffffffffffffffffffffffffff\n      and\n        /* \"contracts/RPS.sol\":3790:3831  playerTwo.transfer(address(this).balance) */\n      0x08fc\n        /* \"contracts/RPS.sol\":3809:3830  address(this).balance */\n      selfbalance\n        /* \"contracts/RPS.sol\":3790:3831  playerTwo.transfer(address(this).balance) */\n      swap1\n      dup2\n      iszero\n      mul\n      swap1\n      mload(0x40)\n      0x00\n      mload(0x40)\n      dup1\n      dup4\n      sub\n      dup2\n      dup6\n      dup9\n      dup9\n      call\n      swap4\n      pop\n      pop\n      pop\n      pop\n      iszero\n      dup1\n      iszero\n      tag_120\n      jumpi\n      returndatasize\n      0x00\n      dup1\n      returndatacopy\n      revert(0x00, returndatasize)\n    tag_120:\n      pop\n        /* \"contracts/RPS.sol\":3627:3842  if (outcome == GameOutcome.playerTwo) {... */\n    tag_116:\n        /* \"contracts/RPS.sol\":3517:3842  if (outcome == GameOutcome.playerOne) {... */\n    tag_108:\n        /* \"contracts/RPS.sol\":3865:3888  GetGameOutcome(outcome) */\n      0x6d1a16000380c9adde391bcb46a92c2ce8c46811cff002ed5dec38dfdc2373cd\n        /* \"contracts/RPS.sol\":3880:3887  outcome */\n      0x03\n      0x00\n      swap1\n      sload\n      swap1\n      0x0100\n      exp\n      swap1\n      div\n      0xff\n      and\n        /* \"contracts/RPS.sol\":3865:3888  GetGameOutcome(outcome) */\n      mload(0x40)\n      tag_121\n      swap2\n      swap1\n      tag_19\n      jump\t// in\n    tag_121:\n      mload(0x40)\n      dup1\n      swap2\n      sub\n      swap1\n      log1\n        /* \"contracts/RPS.sol\":3905:3912  outcome */\n      0x03\n      0x00\n      swap1\n      sload\n      swap1\n      0x0100\n      exp\n      swap1\n      div\n      0xff\n      and\n        /* \"contracts/RPS.sol\":3898:3912  return outcome */\n      swap1\n      pop\n        /* \"contracts/RPS.sol\":3359:3919  function endGames() external revealed returns(GameOutcome) {... */\n      swap1\n      jump\t// out\n        /* \"contracts/RPS.sol\":4615:4812  function isCommitted(address player) public view returns (bool) {... */\n    tag_24:\n        /* \"contracts/RPS.sol\":4673:4677  bool */\n      0x00\n        /* \"contracts/RPS.sol\":4710:4716  player */\n      dup2\n        /* \"contracts/RPS.sol\":4697:4716  playerOne == player */\n      0xffffffffffffffffffffffffffffffffffffffff\n      and\n        /* \"contracts/RPS.sol\":4697:4706  playerOne */\n      0x00\n      dup1\n      sload\n      swap1\n      0x0100\n      exp\n      swap1\n      div\n      0xffffffffffffffffffffffffffffffffffffffff\n      and\n        /* \"contracts/RPS.sol\":4697:4716  playerOne == player */\n      0xffffffffffffffffffffffffffffffffffffffff\n      and\n      eq\n        /* \"contracts/RPS.sol\":4697:4740  playerOne == player && playerOneHash != 0x0 */\n      dup1\n      iszero\n      tag_123\n      jumpi\n      pop\n        /* \"contracts/RPS.sol\":4737:4740  0x0 */\n      0x00\n        /* \"contracts/RPS.sol\":4720:4740  playerOneHash != 0x0 */\n      dup1\n      shl\n        /* \"contracts/RPS.sol\":4720:4733  playerOneHash */\n      sload(0x04)\n        /* \"contracts/RPS.sol\":4720:4740  playerOneHash != 0x0 */\n      eq\n      iszero\n        /* \"contracts/RPS.sol\":4697:4740  playerOne == player && playerOneHash != 0x0 */\n    tag_123:\n        /* \"contracts/RPS.sol\":4697:4804  playerOne == player && playerOneHash != 0x0 || ... */\n      dup1\n      tag_124\n      jumpi\n      pop\n        /* \"contracts/RPS.sol\":4774:4780  player */\n      dup2\n        /* \"contracts/RPS.sol\":4761:4780  playerTwo == player */\n      0xffffffffffffffffffffffffffffffffffffffff\n      and\n        /* \"contracts/RPS.sol\":4761:4770  playerTwo */\n      0x01\n      0x00\n      swap1\n      sload\n      swap1\n      0x0100\n      exp\n      swap1\n      div\n      0xffffffffffffffffffffffffffffffffffffffff\n      and\n        /* \"contracts/RPS.sol\":4761:4780  playerTwo == player */\n      0xffffffffffffffffffffffffffffffffffffffff\n      and\n      eq\n        /* \"contracts/RPS.sol\":4761:4804  playerTwo == player && playerTwoHash != 0x0 */\n      dup1\n      iszero\n      tag_125\n      jumpi\n      pop\n        /* \"contracts/RPS.sol\":4801:4804  0x0 */\n      0x00\n        /* \"contracts/RPS.sol\":4784:4804  playerTwoHash != 0x0 */\n      dup1\n      shl\n        /* \"contracts/RPS.sol\":4784:4797  playerTwoHash */\n      sload(0x05)\n        /* \"contracts/RPS.sol\":4784:4804  playerTwoHash != 0x0 */\n      eq\n      iszero\n        /* \"contracts/RPS.sol\":4761:4804  playerTwo == player && playerTwoHash != 0x0 */\n    tag_125:\n        /* \"contracts/RPS.sol\":4697:4804  playerOne == player && playerOneHash != 0x0 || ... */\n    tag_124:\n        /* \"contracts/RPS.sol\":4689:4805  return (playerOne == player && playerOneHash != 0x0 || ... */\n      swap1\n      pop\n        /* \"contracts/RPS.sol\":4615:4812  function isCommitted(address player) public view returns (bool) {... */\n      swap2\n      swap1\n      pop\n      jump\t// out\n        /* \"contracts/RPS.sol\":1700:2161  function regPlayer() public payable validBet notRegistered returns (uint) {... */\n    tag_28:\n        /* \"contracts/RPS.sol\":1768:1772  uint */\n      0x00\n        /* \"contracts/RPS.sol\":118:122  1000 */\n      0x03e8\n        /* \"contracts/RPS.sol\":740:749  msg.value */\n      callvalue\n        /* \"contracts/RPS.sol\":740:760  msg.value >= MIN_BET */\n      lt\n      iszero\n        /* \"contracts/RPS.sol\":732:799  require(msg.value >= MIN_BET, \"Bet is lower than possible minimum\") */\n      tag_127\n      jumpi\n      mload(0x40)\n      0x08c379a000000000000000000000000000000000000000000000000000000000\n      dup2\n      mstore\n      0x04\n      add\n      tag_128\n      swap1\n      tag_129\n      jump\t// in\n    tag_128:\n      mload(0x40)\n      dup1\n      swap2\n      sub\n      swap1\n      revert\n    tag_127:\n        /* \"contracts/RPS.sol\":826:827  0 */\n      0x00\n        /* \"contracts/RPS.sol\":817:822  stake */\n      sload(0x02)\n        /* \"contracts/RPS.sol\":817:827  stake == 0 */\n      eq\n        /* \"contracts/RPS.sol\":817:849  stake == 0 || msg.value >= stake */\n      dup1\n      tag_130\n      jumpi\n      pop\n        /* \"contracts/RPS.sol\":844:849  stake */\n      sload(0x02)\n        /* \"contracts/RPS.sol\":831:840  msg.value */\n      callvalue\n        /* \"contracts/RPS.sol\":831:849  msg.value >= stake */\n      lt\n      iszero\n        /* \"contracts/RPS.sol\":817:849  stake == 0 || msg.value >= stake */\n    tag_130:\n        /* \"contracts/RPS.sol\":809:876  require(stake == 0 || msg.value >= stake, \"Problem with the stake\") */\n      tag_131\n      jumpi\n      mload(0x40)\n      0x08c379a000000000000000000000000000000000000000000000000000000000\n      dup2\n      mstore\n      0x04\n      add\n      tag_132\n      swap1\n      tag_133\n      jump\t// in\n    tag_132:\n      mload(0x40)\n      dup1\n      swap2\n      sub\n      swap1\n      revert\n    tag_131:\n        /* \"contracts/RPS.sol\":957:966  playerOne */\n      0x00\n      dup1\n      sload\n      swap1\n      0x0100\n      exp\n      swap1\n      div\n      0xffffffffffffffffffffffffffffffffffffffff\n      and\n        /* \"contracts/RPS.sol\":943:966  msg.sender != playerOne */\n      0xffffffffffffffffffffffffffffffffffffffff\n      and\n        /* \"contracts/RPS.sol\":943:953  msg.sender */\n      caller\n        /* \"contracts/RPS.sol\":943:966  msg.sender != playerOne */\n      0xffffffffffffffffffffffffffffffffffffffff\n      and\n      eq\n      iszero\n        /* \"contracts/RPS.sol\":943:993  msg.sender != playerOne && msg.sender != playerTwo */\n      dup1\n      iszero\n      tag_135\n      jumpi\n      pop\n        /* \"contracts/RPS.sol\":984:993  playerTwo */\n      0x01\n      0x00\n      swap1\n      sload\n      swap1\n      0x0100\n      exp\n      swap1\n      div\n      0xffffffffffffffffffffffffffffffffffffffff\n      and\n        /* \"contracts/RPS.sol\":970:993  msg.sender != playerTwo */\n      0xffffffffffffffffffffffffffffffffffffffff\n      and\n        /* \"contracts/RPS.sol\":970:980  msg.sender */\n      caller\n        /* \"contracts/RPS.sol\":970:993  msg.sender != playerTwo */\n      0xffffffffffffffffffffffffffffffffffffffff\n      and\n      eq\n      iszero\n        /* \"contracts/RPS.sol\":943:993  msg.sender != playerOne && msg.sender != playerTwo */\n    tag_135:\n        /* \"contracts/RPS.sol\":935:1032  require(msg.sender != playerOne && msg.sender != playerTwo, \"This player has already registered\") */\n      tag_136\n      jumpi\n      mload(0x40)\n      0x08c379a000000000000000000000000000000000000000000000000000000000\n      dup2\n      mstore\n      0x04\n      add\n      tag_137\n      swap1\n      tag_138\n      jump\t// in\n    tag_137:\n      mload(0x40)\n      dup1\n      swap2\n      sub\n      swap1\n      revert\n    tag_136:\n        /* \"contracts/RPS.sol\":1809:1812  0x0 */\n      0x00\n        /* \"contracts/RPS.sol\":1788:1813  playerOne == address(0x0) */\n      0xffffffffffffffffffffffffffffffffffffffff\n      and\n        /* \"contracts/RPS.sol\":1788:1797  playerOne */\n      0x00\n      dup1\n      sload\n      swap1\n      0x0100\n      exp\n      swap1\n      div\n      0xffffffffffffffffffffffffffffffffffffffff\n      and\n        /* \"contracts/RPS.sol\":1788:1813  playerOne == address(0x0) */\n      0xffffffffffffffffffffffffffffffffffffffff\n      and\n      eq\n        /* \"contracts/RPS.sol\":1784:2107  if (playerOne == address(0x0)) {... */\n      iszero\n      tag_140\n      jumpi\n        /* \"contracts/RPS.sol\":1849:1859  msg.sender */\n      caller\n        /* \"contracts/RPS.sol\":1829:1838  playerOne */\n      0x00\n      dup1\n        /* \"contracts/RPS.sol\":1829:1860  playerOne = payable(msg.sender) */\n      0x0100\n      exp\n      dup2\n      sload\n      dup2\n      0xffffffffffffffffffffffffffffffffffffffff\n      mul\n      not\n      and\n      swap1\n      dup4\n      0xffffffffffffffffffffffffffffffffffffffff\n      and\n      mul\n      or\n      swap1\n      sstore\n      pop\n        /* \"contracts/RPS.sol\":1882:1891  msg.value */\n      callvalue\n        /* \"contracts/RPS.sol\":1874:1879  stake */\n      0x02\n        /* \"contracts/RPS.sol\":1874:1891  stake = msg.value */\n      dup2\n      swap1\n      sstore\n      pop\n        /* \"contracts/RPS.sol\":1910:1925  GameRegister(1) */\n      0x982cddadd143916f714d5e4cdb1fdbf71a3a44c802807791f444525464ad42ad\n        /* \"contracts/RPS.sol\":1923:1924  1 */\n      0x01\n        /* \"contracts/RPS.sol\":1910:1925  GameRegister(1) */\n      mload(0x40)\n      tag_141\n      swap2\n      swap1\n      tag_142\n      jump\t// in\n    tag_141:\n      mload(0x40)\n      dup1\n      swap2\n      sub\n      swap1\n      log1\n        /* \"contracts/RPS.sol\":1946:1947  1 */\n      0x01\n        /* \"contracts/RPS.sol\":1939:1947  return 1 */\n      swap1\n      pop\n      jump(tag_139)\n        /* \"contracts/RPS.sol\":1784:2107  if (playerOne == address(0x0)) {... */\n    tag_140:\n        /* \"contracts/RPS.sol\":1989:1992  0x0 */\n      0x00\n        /* \"contracts/RPS.sol\":1968:1993  playerTwo == address(0x0) */\n      0xffffffffffffffffffffffffffffffffffffffff\n      and\n        /* \"contracts/RPS.sol\":1968:1977  playerTwo */\n      0x01\n      0x00\n      swap1\n      sload\n      swap1\n      0x0100\n      exp\n      swap1\n      div\n      0xffffffffffffffffffffffffffffffffffffffff\n      and\n        /* \"contracts/RPS.sol\":1968:1993  playerTwo == address(0x0) */\n      0xffffffffffffffffffffffffffffffffffffffff\n      and\n      eq\n        /* \"contracts/RPS.sol\":1964:2107  if (playerTwo == address(0x0)) {... */\n      iszero\n      tag_144\n      jumpi\n        /* \"contracts/RPS.sol\":2029:2039  msg.sender */\n      caller\n        /* \"contracts/RPS.sol\":2009:2018  playerTwo */\n      0x01\n      0x00\n        /* \"contracts/RPS.sol\":2009:2040  playerTwo = payable(msg.sender) */\n      0x0100\n      exp\n      dup2\n      sload\n      dup2\n      0xffffffffffffffffffffffffffffffffffffffff\n      mul\n      not\n      and\n      swap1\n      dup4\n      0xffffffffffffffffffffffffffffffffffffffff\n      and\n      mul\n      or\n      swap1\n      sstore\n      pop\n        /* \"contracts/RPS.sol\":2059:2074  GameRegister(2) */\n      0x982cddadd143916f714d5e4cdb1fdbf71a3a44c802807791f444525464ad42ad\n        /* \"contracts/RPS.sol\":2072:2073  2 */\n      0x02\n        /* \"contracts/RPS.sol\":2059:2074  GameRegister(2) */\n      mload(0x40)\n      tag_145\n      swap2\n      swap1\n      tag_146\n      jump\t// in\n    tag_145:\n      mload(0x40)\n      dup1\n      swap2\n      sub\n      swap1\n      log1\n        /* \"contracts/RPS.sol\":2095:2096  2 */\n      0x02\n        /* \"contracts/RPS.sol\":2088:2096  return 2 */\n      swap1\n      pop\n      jump(tag_139)\n        /* \"contracts/RPS.sol\":1964:2107  if (playerTwo == address(0x0)) {... */\n    tag_144:\n        /* \"contracts/RPS.sol\":2121:2136  GameRegister(0) */\n      0x982cddadd143916f714d5e4cdb1fdbf71a3a44c802807791f444525464ad42ad\n        /* \"contracts/RPS.sol\":2134:2135  0 */\n      0x00\n        /* \"contracts/RPS.sol\":2121:2136  GameRegister(0) */\n      mload(0x40)\n      tag_147\n      swap2\n      swap1\n      tag_148\n      jump\t// in\n    tag_147:\n      mload(0x40)\n      dup1\n      swap2\n      sub\n      swap1\n      log1\n        /* \"contracts/RPS.sol\":2153:2154  0 */\n      0x00\n        /* \"contracts/RPS.sol\":2146:2154  return 0 */\n      swap1\n      pop\n        /* \"contracts/RPS.sol\":1042:1043  _ */\n    tag_139:\n        /* \"contracts/RPS.sol\":1700:2161  function regPlayer() public payable validBet notRegistered returns (uint) {... */\n      swap1\n      jump\t// out\n        /* \"contracts/RPS.sol\":517:543  GameOutcome public outcome */\n    tag_33:\n      0x03\n      0x00\n      swap1\n      sload\n      swap1\n      0x0100\n      exp\n      swap1\n      div\n      0xff\n      and\n      dup2\n      jump\t// out\n        /* \"contracts/RPS.sol\":494:511  uint public stake */\n    tag_37:\n      sload(0x02)\n      dup2\n      jump\t// out\n        /* \"contracts/RPS.sol\":5176:5325  function bothRevealed() public view returns (bool) {... */\n    tag_41:\n        /* \"contracts/RPS.sol\":5221:5225  bool */\n      0x00\n        /* \"contracts/RPS.sol\":5264:5279  GameChoice.none */\n      dup1\n        /* \"contracts/RPS.sol\":5245:5279  playerOneChoice != GameChoice.none */\n      0x03\n      dup2\n      gt\n      iszero\n      tag_150\n      jumpi\n      tag_151\n      tag_77\n      jump\t// in\n    tag_151:\n    tag_150:\n        /* \"contracts/RPS.sol\":5245:5260  playerOneChoice */\n      0x03\n      0x01\n      swap1\n      sload\n      swap1\n      0x0100\n      exp\n      swap1\n      div\n      0xff\n      and\n        /* \"contracts/RPS.sol\":5245:5279  playerOneChoice != GameChoice.none */\n      0x03\n      dup2\n      gt\n      iszero\n      tag_152\n      jumpi\n      tag_153\n      tag_77\n      jump\t// in\n    tag_153:\n    tag_152:\n      eq\n      iszero\n        /* \"contracts/RPS.sol\":5245:5317  playerOneChoice != GameChoice.none && playerTwoChoice != GameChoice.none */\n      dup1\n      iszero\n      tag_154\n      jumpi\n      pop\n        /* \"contracts/RPS.sol\":5302:5317  GameChoice.none */\n      0x00\n        /* \"contracts/RPS.sol\":5283:5317  playerTwoChoice != GameChoice.none */\n      0x03\n      dup2\n      gt\n      iszero\n      tag_155\n      jumpi\n      tag_156\n      tag_77\n      jump\t// in\n    tag_156:\n    tag_155:\n        /* \"contracts/RPS.sol\":5283:5298  playerTwoChoice */\n      0x03\n      0x02\n      swap1\n      sload\n      swap1\n      0x0100\n      exp\n      swap1\n      div\n      0xff\n      and\n        /* \"contracts/RPS.sol\":5283:5317  playerTwoChoice != GameChoice.none */\n      0x03\n      dup2\n      gt\n      iszero\n      tag_157\n      jumpi\n      tag_158\n      tag_77\n      jump\t// in\n    tag_158:\n    tag_157:\n      eq\n      iszero\n        /* \"contracts/RPS.sol\":5245:5317  playerOneChoice != GameChoice.none && playerTwoChoice != GameChoice.none */\n    tag_154:\n        /* \"contracts/RPS.sol\":5237:5318  return (playerOneChoice != GameChoice.none && playerTwoChoice != GameChoice.none) */\n      swap1\n      pop\n        /* \"contracts/RPS.sol\":5176:5325  function bothRevealed() public view returns (bool) {... */\n      swap1\n      jump\t// out\n        /* \"contracts/RPS.sol\":4368:4470  function getContractBalance() public view returns (uint) {... */\n    tag_45:\n        /* \"contracts/RPS.sol\":4419:4423  uint */\n      0x00\n        /* \"contracts/RPS.sol\":4442:4463  address(this).balance */\n      selfbalance\n        /* \"contracts/RPS.sol\":4435:4463  return address(this).balance */\n      swap1\n      pop\n        /* \"contracts/RPS.sol\":4368:4470  function getContractBalance() public view returns (uint) {... */\n      swap1\n      jump\t// out\n        /* \"contracts/RPS.sol\":2627:3353  function revealChoice(uint choice, bytes32 salt) public hasRegistered correctChoice(choice) committed returns (GameChoice) {... */\n    tag_51:\n        /* \"contracts/RPS.sol\":2738:2748  GameChoice */\n      0x00\n        /* \"contracts/RPS.sol\":1114:1123  playerOne */\n      dup1\n      0x00\n      swap1\n      sload\n      swap1\n      0x0100\n      exp\n      swap1\n      div\n      0xffffffffffffffffffffffffffffffffffffffff\n      and\n        /* \"contracts/RPS.sol\":1100:1123  msg.sender == playerOne */\n      0xffffffffffffffffffffffffffffffffffffffff\n      and\n        /* \"contracts/RPS.sol\":1100:1110  msg.sender */\n      caller\n        /* \"contracts/RPS.sol\":1100:1123  msg.sender == playerOne */\n      0xffffffffffffffffffffffffffffffffffffffff\n      and\n      eq\n        /* \"contracts/RPS.sol\":1100:1150  msg.sender == playerOne || msg.sender == playerTwo */\n      dup1\n      tag_161\n      jumpi\n      pop\n        /* \"contracts/RPS.sol\":1141:1150  playerTwo */\n      0x01\n      0x00\n      swap1\n      sload\n      swap1\n      0x0100\n      exp\n      swap1\n      div\n      0xffffffffffffffffffffffffffffffffffffffff\n      and\n        /* \"contracts/RPS.sol\":1127:1150  msg.sender == playerTwo */\n      0xffffffffffffffffffffffffffffffffffffffff\n      and\n        /* \"contracts/RPS.sol\":1127:1137  msg.sender */\n      caller\n        /* \"contracts/RPS.sol\":1127:1150  msg.sender == playerTwo */\n      0xffffffffffffffffffffffffffffffffffffffff\n      and\n      eq\n        /* \"contracts/RPS.sol\":1100:1150  msg.sender == playerOne || msg.sender == playerTwo */\n    tag_161:\n        /* \"contracts/RPS.sol\":1091:1180  require (msg.sender == playerOne || msg.sender == playerTwo, \"Not registered player yet\") */\n      tag_162\n      jumpi\n      mload(0x40)\n      0x08c379a000000000000000000000000000000000000000000000000000000000\n      dup2\n      mstore\n      0x04\n      add\n      tag_163\n      swap1\n      tag_164\n      jump\t// in\n    tag_163:\n      mload(0x40)\n      dup1\n      swap2\n      sub\n      swap1\n      revert\n    tag_162:\n        /* \"contracts/RPS.sol\":2711:2717  choice */\n      dup3\n        /* \"contracts/RPS.sol\":1396:1397  1 */\n      0x01\n        /* \"contracts/RPS.sol\":1386:1392  choice */\n      dup2\n        /* \"contracts/RPS.sol\":1386:1397  choice >= 1 */\n      lt\n      iszero\n        /* \"contracts/RPS.sol\":1386:1412  choice >= 1 && choice <= 3 */\n      dup1\n      iszero\n      tag_166\n      jumpi\n      pop\n        /* \"contracts/RPS.sol\":1411:1412  3 */\n      0x03\n        /* \"contracts/RPS.sol\":1401:1407  choice */\n      dup2\n        /* \"contracts/RPS.sol\":1401:1412  choice <= 3 */\n      gt\n      iszero\n        /* \"contracts/RPS.sol\":1386:1412  choice >= 1 && choice <= 3 */\n    tag_166:\n        /* \"contracts/RPS.sol\":1377:1433  require (choice >= 1 && choice <= 3, \"Incorrect choice\") */\n      tag_167\n      jumpi\n      mload(0x40)\n      0x08c379a000000000000000000000000000000000000000000000000000000000\n      dup2\n      mstore\n      0x04\n      add\n      tag_168\n      swap1\n      tag_169\n      jump\t// in\n    tag_168:\n      mload(0x40)\n      dup1\n      swap2\n      sub\n      swap1\n      revert\n    tag_167:\n        /* \"contracts/RPS.sol\":1513:1516  0x0 */\n      0x00\n        /* \"contracts/RPS.sol\":1496:1516  playerOneHash != 0x0 */\n      dup1\n      shl\n        /* \"contracts/RPS.sol\":1496:1509  playerOneHash */\n      sload(0x04)\n        /* \"contracts/RPS.sol\":1496:1516  playerOneHash != 0x0 */\n      eq\n      iszero\n        /* \"contracts/RPS.sol\":1496:1540  playerOneHash != 0x0 && playerTwoHash != 0x0 */\n      dup1\n      iszero\n      tag_171\n      jumpi\n      pop\n        /* \"contracts/RPS.sol\":1537:1540  0x0 */\n      0x00\n        /* \"contracts/RPS.sol\":1520:1540  playerTwoHash != 0x0 */\n      dup1\n      shl\n        /* \"contracts/RPS.sol\":1520:1533  playerTwoHash */\n      sload(0x05)\n        /* \"contracts/RPS.sol\":1520:1540  playerTwoHash != 0x0 */\n      eq\n      iszero\n        /* \"contracts/RPS.sol\":1496:1540  playerOneHash != 0x0 && playerTwoHash != 0x0 */\n    tag_171:\n        /* \"contracts/RPS.sol\":1488:1541  require(playerOneHash != 0x0 && playerTwoHash != 0x0) */\n      tag_172\n      jumpi\n      0x00\n      dup1\n      revert\n    tag_172:\n        /* \"contracts/RPS.sol\":2776:2786  msg.sender */\n      caller\n        /* \"contracts/RPS.sol\":2763:2786  playerOne == msg.sender */\n      0xffffffffffffffffffffffffffffffffffffffff\n      and\n        /* \"contracts/RPS.sol\":2763:2772  playerOne */\n      0x00\n      dup1\n      sload\n      swap1\n      0x0100\n      exp\n      swap1\n      div\n      0xffffffffffffffffffffffffffffffffffffffff\n      and\n        /* \"contracts/RPS.sol\":2763:2786  playerOne == msg.sender */\n      0xffffffffffffffffffffffffffffffffffffffff\n      and\n      eq\n        /* \"contracts/RPS.sol\":2760:3347  if(playerOne == msg.sender) {... */\n      iszero\n      tag_174\n      jumpi\n        /* \"contracts/RPS.sol\":2827:2854  getSaltedHash(choice, salt) */\n      tag_175\n        /* \"contracts/RPS.sol\":2841:2847  choice */\n      dup5\n        /* \"contracts/RPS.sol\":2849:2853  salt */\n      dup5\n        /* \"contracts/RPS.sol\":2827:2840  getSaltedHash */\n      tag_176\n        /* \"contracts/RPS.sol\":2827:2854  getSaltedHash(choice, salt) */\n      jump\t// in\n    tag_175:\n        /* \"contracts/RPS.sol\":2810:2823  playerOneHash */\n      sload(0x04)\n        /* \"contracts/RPS.sol\":2810:2854  playerOneHash == getSaltedHash(choice, salt) */\n      eq\n        /* \"contracts/RPS.sol\":2802:2876  require(playerOneHash == getSaltedHash(choice, salt), \"problem with salt\") */\n      tag_177\n      jumpi\n      mload(0x40)\n      0x08c379a000000000000000000000000000000000000000000000000000000000\n      dup2\n      mstore\n      0x04\n      add\n      tag_178\n      swap1\n      tag_179\n      jump\t// in\n    tag_178:\n      mload(0x40)\n      dup1\n      swap2\n      sub\n      swap1\n      revert\n    tag_177:\n        /* \"contracts/RPS.sol\":2919:2925  choice */\n      dup4\n        /* \"contracts/RPS.sol\":2908:2926  GameChoice(choice) */\n      0x03\n      dup2\n      gt\n      iszero\n      tag_180\n      jumpi\n      tag_181\n      tag_77\n      jump\t// in\n    tag_181:\n    tag_180:\n        /* \"contracts/RPS.sol\":2890:2905  playerOneChoice */\n      0x03\n      0x01\n        /* \"contracts/RPS.sol\":2890:2926  playerOneChoice = GameChoice(choice) */\n      0x0100\n      exp\n      dup2\n      sload\n      dup2\n      0xff\n      mul\n      not\n      and\n      swap1\n      dup4\n      0x03\n      dup2\n      gt\n      iszero\n      tag_182\n      jumpi\n      tag_183\n      tag_77\n      jump\t// in\n    tag_183:\n    tag_182:\n      mul\n      or\n      swap1\n      sstore\n      pop\n        /* \"contracts/RPS.sol\":2945:2972  GameReveal(playerOneChoice) */\n      0x47c7acbd4d57f5dbc1f9e9d1f9e0899016b547afbad29e7a416a892b44898e97\n        /* \"contracts/RPS.sol\":2956:2971  playerOneChoice */\n      0x03\n      0x01\n      swap1\n      sload\n      swap1\n      0x0100\n      exp\n      swap1\n      div\n      0xff\n      and\n        /* \"contracts/RPS.sol\":2945:2972  GameReveal(playerOneChoice) */\n      mload(0x40)\n      tag_184\n      swap2\n      swap1\n      tag_53\n      jump\t// in\n    tag_184:\n      mload(0x40)\n      dup1\n      swap2\n      sub\n      swap1\n      log1\n        /* \"contracts/RPS.sol\":2993:3008  playerOneChoice */\n      0x03\n      0x01\n      swap1\n      sload\n      swap1\n      0x0100\n      exp\n      swap1\n      div\n      0xff\n      and\n        /* \"contracts/RPS.sol\":2986:3008  return playerOneChoice */\n      swap2\n      pop\n      jump(tag_173)\n        /* \"contracts/RPS.sol\":2760:3347  if(playerOne == msg.sender) {... */\n    tag_174:\n        /* \"contracts/RPS.sol\":3041:3051  msg.sender */\n      caller\n        /* \"contracts/RPS.sol\":3028:3051  playerTwo == msg.sender */\n      0xffffffffffffffffffffffffffffffffffffffff\n      and\n        /* \"contracts/RPS.sol\":3028:3037  playerTwo */\n      0x01\n      0x00\n      swap1\n      sload\n      swap1\n      0x0100\n      exp\n      swap1\n      div\n      0xffffffffffffffffffffffffffffffffffffffff\n      and\n        /* \"contracts/RPS.sol\":3028:3051  playerTwo == msg.sender */\n      0xffffffffffffffffffffffffffffffffffffffff\n      and\n      eq\n        /* \"contracts/RPS.sol\":3025:3347  if(playerTwo == msg.sender) {... */\n      iszero\n      tag_186\n      jumpi\n        /* \"contracts/RPS.sol\":3092:3119  getSaltedHash(choice, salt) */\n      tag_187\n        /* \"contracts/RPS.sol\":3106:3112  choice */\n      dup5\n        /* \"contracts/RPS.sol\":3114:3118  salt */\n      dup5\n        /* \"contracts/RPS.sol\":3092:3105  getSaltedHash */\n      tag_176\n        /* \"contracts/RPS.sol\":3092:3119  getSaltedHash(choice, salt) */\n      jump\t// in\n    tag_187:\n        /* \"contracts/RPS.sol\":3075:3088  playerTwoHash */\n      sload(0x05)\n        /* \"contracts/RPS.sol\":3075:3119  playerTwoHash == getSaltedHash(choice, salt) */\n      eq\n        /* \"contracts/RPS.sol\":3067:3141  require(playerTwoHash == getSaltedHash(choice, salt), \"problem with salt\") */\n      tag_188\n      jumpi\n      mload(0x40)\n      0x08c379a000000000000000000000000000000000000000000000000000000000\n      dup2\n      mstore\n      0x04\n      add\n      tag_189\n      swap1\n      tag_179\n      jump\t// in\n    tag_189:\n      mload(0x40)\n      dup1\n      swap2\n      sub\n      swap1\n      revert\n    tag_188:\n        /* \"contracts/RPS.sol\":3184:3190  choice */\n      dup4\n        /* \"contracts/RPS.sol\":3173:3191  GameChoice(choice) */\n      0x03\n      dup2\n      gt\n      iszero\n      tag_190\n      jumpi\n      tag_191\n      tag_77\n      jump\t// in\n    tag_191:\n    tag_190:\n        /* \"contracts/RPS.sol\":3155:3170  playerTwoChoice */\n      0x03\n      0x02\n        /* \"contracts/RPS.sol\":3155:3191  playerTwoChoice = GameChoice(choice) */\n      0x0100\n      exp\n      dup2\n      sload\n      dup2\n      0xff\n      mul\n      not\n      and\n      swap1\n      dup4\n      0x03\n      dup2\n      gt\n      iszero\n      tag_192\n      jumpi\n      tag_193\n      tag_77\n      jump\t// in\n    tag_193:\n    tag_192:\n      mul\n      or\n      swap1\n      sstore\n      pop\n        /* \"contracts/RPS.sol\":3210:3237  GameReveal(playerTwoChoice) */\n      0x47c7acbd4d57f5dbc1f9e9d1f9e0899016b547afbad29e7a416a892b44898e97\n        /* \"contracts/RPS.sol\":3221:3236  playerTwoChoice */\n      0x03\n      0x02\n      swap1\n      sload\n      swap1\n      0x0100\n      exp\n      swap1\n      div\n      0xff\n      and\n        /* \"contracts/RPS.sol\":3210:3237  GameReveal(playerTwoChoice) */\n      mload(0x40)\n      tag_194\n      swap2\n      swap1\n      tag_53\n      jump\t// in\n    tag_194:\n      mload(0x40)\n      dup1\n      swap2\n      sub\n      swap1\n      log1\n        /* \"contracts/RPS.sol\":3258:3273  playerTwoChoice */\n      0x03\n      0x02\n      swap1\n      sload\n      swap1\n      0x0100\n      exp\n      swap1\n      div\n      0xff\n      and\n        /* \"contracts/RPS.sol\":3251:3273  return playerTwoChoice */\n      swap2\n      pop\n      jump(tag_173)\n        /* \"contracts/RPS.sol\":3025:3347  if(playerTwo == msg.sender) {... */\n    tag_186:\n        /* \"contracts/RPS.sol\":3304:3336  revert(\"Problem with addresses\") */\n      mload(0x40)\n      0x08c379a000000000000000000000000000000000000000000000000000000000\n      dup2\n      mstore\n      0x04\n      add\n      tag_196\n      swap1\n      tag_197\n      jump\t// in\n    tag_196:\n      mload(0x40)\n      dup1\n      swap2\n      sub\n      swap1\n      revert\n        /* \"contracts/RPS.sol\":1551:1552  _ */\n    tag_173:\n        /* \"contracts/RPS.sol\":1190:1191  _ */\n      pop\n        /* \"contracts/RPS.sol\":2627:3353  function revealChoice(uint choice, bytes32 salt) public hasRegistered correctChoice(choice) committed returns (GameChoice) {... */\n      swap3\n      swap2\n      pop\n      pop\n      jump\t// out\n        /* \"contracts/RPS.sol\":5048:5170  function bothCommitted() public view returns (bool) {... */\n    tag_56:\n        /* \"contracts/RPS.sol\":5094:5098  bool */\n      0x00\n        /* \"contracts/RPS.sol\":5135:5138  0x0 */\n      dup1\n        /* \"contracts/RPS.sol\":5118:5138  playerOneHash != 0x0 */\n      0x00\n      shl\n        /* \"contracts/RPS.sol\":5118:5131  playerOneHash */\n      sload(0x04)\n        /* \"contracts/RPS.sol\":5118:5138  playerOneHash != 0x0 */\n      eq\n      iszero\n        /* \"contracts/RPS.sol\":5118:5162  playerOneHash != 0x0 && playerTwoHash != 0x0 */\n      dup1\n      iszero\n      tag_199\n      jumpi\n      pop\n        /* \"contracts/RPS.sol\":5159:5162  0x0 */\n      0x00\n        /* \"contracts/RPS.sol\":5142:5162  playerTwoHash != 0x0 */\n      dup1\n      shl\n        /* \"contracts/RPS.sol\":5142:5155  playerTwoHash */\n      sload(0x05)\n        /* \"contracts/RPS.sol\":5142:5162  playerTwoHash != 0x0 */\n      eq\n      iszero\n        /* \"contracts/RPS.sol\":5118:5162  playerOneHash != 0x0 && playerTwoHash != 0x0 */\n    tag_199:\n        /* \"contracts/RPS.sol\":5110:5163  return (playerOneHash != 0x0 && playerTwoHash != 0x0) */\n      swap1\n      pop\n        /* \"contracts/RPS.sol\":5048:5170  function bothCommitted() public view returns (bool) {... */\n      swap1\n      jump\t// out\n        /* \"contracts/RPS.sol\":2167:2621  function commitMove(bytes32 gameHash) public hasRegistered hashProvided(gameHash) returns (bool) {... */\n    tag_62:\n        /* \"contracts/RPS.sol\":2258:2262  bool */\n      0x00\n        /* \"contracts/RPS.sol\":1114:1123  playerOne */\n      dup1\n      0x00\n      swap1\n      sload\n      swap1\n      0x0100\n      exp\n      swap1\n      div\n      0xffffffffffffffffffffffffffffffffffffffff\n      and\n        /* \"contracts/RPS.sol\":1100:1123  msg.sender == playerOne */\n      0xffffffffffffffffffffffffffffffffffffffff\n      and\n        /* \"contracts/RPS.sol\":1100:1110  msg.sender */\n      caller\n        /* \"contracts/RPS.sol\":1100:1123  msg.sender == playerOne */\n      0xffffffffffffffffffffffffffffffffffffffff\n      and\n      eq\n        /* \"contracts/RPS.sol\":1100:1150  msg.sender == playerOne || msg.sender == playerTwo */\n      dup1\n      tag_201\n      jumpi\n      pop\n        /* \"contracts/RPS.sol\":1141:1150  playerTwo */\n      0x01\n      0x00\n      swap1\n      sload\n      swap1\n      0x0100\n      exp\n      swap1\n      div\n      0xffffffffffffffffffffffffffffffffffffffff\n      and\n        /* \"contracts/RPS.sol\":1127:1150  msg.sender == playerTwo */\n      0xffffffffffffffffffffffffffffffffffffffff\n      and\n        /* \"contracts/RPS.sol\":1127:1137  msg.sender */\n      caller\n        /* \"contracts/RPS.sol\":1127:1150  msg.sender == playerTwo */\n      0xffffffffffffffffffffffffffffffffffffffff\n      and\n      eq\n        /* \"contracts/RPS.sol\":1100:1150  msg.sender == playerOne || msg.sender == playerTwo */\n    tag_201:\n        /* \"contracts/RPS.sol\":1091:1180  require (msg.sender == playerOne || msg.sender == playerTwo, \"Not registered player yet\") */\n      tag_202\n      jumpi\n      mload(0x40)\n      0x08c379a000000000000000000000000000000000000000000000000000000000\n      dup2\n      mstore\n      0x04\n      add\n      tag_203\n      swap1\n      tag_164\n      jump\t// in\n    tag_203:\n      mload(0x40)\n      dup1\n      swap2\n      sub\n      swap1\n      revert\n    tag_202:\n        /* \"contracts/RPS.sol\":2239:2247  gameHash */\n      dup2\n        /* \"contracts/RPS.sol\":1262:1276  gameHash != \"\" */\n      0x00\n        /* \"contracts/RPS.sol\":1262:1270  gameHash */\n      dup2\n        /* \"contracts/RPS.sol\":1262:1276  gameHash != \"\" */\n      eq\n      iszero\n        /* \"contracts/RPS.sol\":1254:1307  require(gameHash != \"\", \"Game hash was not provided\") */\n      tag_205\n      jumpi\n      mload(0x40)\n      0x08c379a000000000000000000000000000000000000000000000000000000000\n      dup2\n      mstore\n      0x04\n      add\n      tag_206\n      swap1\n      tag_207\n      jump\t// in\n    tag_206:\n      mload(0x40)\n      dup1\n      swap2\n      sub\n      swap1\n      revert\n    tag_205:\n        /* \"contracts/RPS.sol\":2292:2301  playerOne */\n      0x00\n      dup1\n      sload\n      swap1\n      0x0100\n      exp\n      swap1\n      div\n      0xffffffffffffffffffffffffffffffffffffffff\n      and\n        /* \"contracts/RPS.sol\":2278:2301  msg.sender == playerOne */\n      0xffffffffffffffffffffffffffffffffffffffff\n      and\n        /* \"contracts/RPS.sol\":2278:2288  msg.sender */\n      caller\n        /* \"contracts/RPS.sol\":2278:2301  msg.sender == playerOne */\n      0xffffffffffffffffffffffffffffffffffffffff\n      and\n      eq\n        /* \"contracts/RPS.sol\":2278:2325  msg.sender == playerOne && playerOneHash == 0x0 */\n      dup1\n      iszero\n      tag_209\n      jumpi\n      pop\n        /* \"contracts/RPS.sol\":2322:2325  0x0 */\n      0x00\n        /* \"contracts/RPS.sol\":2305:2325  playerOneHash == 0x0 */\n      dup1\n      shl\n        /* \"contracts/RPS.sol\":2305:2318  playerOneHash */\n      sload(0x04)\n        /* \"contracts/RPS.sol\":2305:2325  playerOneHash == 0x0 */\n      eq\n        /* \"contracts/RPS.sol\":2278:2325  msg.sender == playerOne && playerOneHash == 0x0 */\n    tag_209:\n        /* \"contracts/RPS.sol\":2274:2563  if (msg.sender == playerOne && playerOneHash == 0x0) {... */\n      iszero\n      tag_210\n      jumpi\n        /* \"contracts/RPS.sol\":2357:2365  gameHash */\n      dup3\n        /* \"contracts/RPS.sol\":2341:2354  playerOneHash */\n      0x04\n        /* \"contracts/RPS.sol\":2341:2365  playerOneHash = gameHash */\n      dup2\n      swap1\n      sstore\n      pop\n        /* \"contracts/RPS.sol\":2274:2563  if (msg.sender == playerOne && playerOneHash == 0x0) {... */\n      jump(tag_211)\n    tag_210:\n        /* \"contracts/RPS.sol\":2400:2409  playerTwo */\n      0x01\n      0x00\n      swap1\n      sload\n      swap1\n      0x0100\n      exp\n      swap1\n      div\n      0xffffffffffffffffffffffffffffffffffffffff\n      and\n        /* \"contracts/RPS.sol\":2386:2409  msg.sender == playerTwo */\n      0xffffffffffffffffffffffffffffffffffffffff\n      and\n        /* \"contracts/RPS.sol\":2386:2396  msg.sender */\n      caller\n        /* \"contracts/RPS.sol\":2386:2409  msg.sender == playerTwo */\n      0xffffffffffffffffffffffffffffffffffffffff\n      and\n      eq\n        /* \"contracts/RPS.sol\":2386:2433  msg.sender == playerTwo && playerTwoHash == 0x0 */\n      dup1\n      iszero\n      tag_212\n      jumpi\n      pop\n        /* \"contracts/RPS.sol\":2430:2433  0x0 */\n      0x00\n        /* \"contracts/RPS.sol\":2413:2433  playerTwoHash == 0x0 */\n      dup1\n      shl\n        /* \"contracts/RPS.sol\":2413:2426  playerTwoHash */\n      sload(0x05)\n        /* \"contracts/RPS.sol\":2413:2433  playerTwoHash == 0x0 */\n      eq\n        /* \"contracts/RPS.sol\":2386:2433  msg.sender == playerTwo && playerTwoHash == 0x0 */\n    tag_212:\n        /* \"contracts/RPS.sol\":2382:2563  if (msg.sender == playerTwo && playerTwoHash == 0x0) {... */\n      iszero\n      tag_213\n      jumpi\n        /* \"contracts/RPS.sol\":2465:2473  gameHash */\n      dup3\n        /* \"contracts/RPS.sol\":2449:2462  playerTwoHash */\n      0x05\n        /* \"contracts/RPS.sol\":2449:2473  playerTwoHash = gameHash */\n      dup2\n      swap1\n      sstore\n      pop\n        /* \"contracts/RPS.sol\":2382:2563  if (msg.sender == playerTwo && playerTwoHash == 0x0) {... */\n      jump(tag_214)\n    tag_213:\n        /* \"contracts/RPS.sol\":2509:2526  GameCommit(false) */\n      0xd0e0eee22af482d2b75b0facf637b601c155f06c6f143b473711527a01110f84\n        /* \"contracts/RPS.sol\":2520:2525  false */\n      0x00\n        /* \"contracts/RPS.sol\":2509:2526  GameCommit(false) */\n      mload(0x40)\n      tag_215\n      swap2\n      swap1\n      tag_26\n      jump\t// in\n    tag_215:\n      mload(0x40)\n      dup1\n      swap2\n      sub\n      swap1\n      log1\n        /* \"contracts/RPS.sol\":2547:2552  false */\n      0x00\n        /* \"contracts/RPS.sol\":2540:2552  return false */\n      swap2\n      pop\n      jump(tag_208)\n        /* \"contracts/RPS.sol\":2382:2563  if (msg.sender == playerTwo && playerTwoHash == 0x0) {... */\n    tag_214:\n        /* \"contracts/RPS.sol\":2274:2563  if (msg.sender == playerOne && playerOneHash == 0x0) {... */\n    tag_211:\n        /* \"contracts/RPS.sol\":2577:2593  GameCommit(true) */\n      0xd0e0eee22af482d2b75b0facf637b601c155f06c6f143b473711527a01110f84\n        /* \"contracts/RPS.sol\":2588:2592  true */\n      0x01\n        /* \"contracts/RPS.sol\":2577:2593  GameCommit(true) */\n      mload(0x40)\n      tag_216\n      swap2\n      swap1\n      tag_26\n      jump\t// in\n    tag_216:\n      mload(0x40)\n      dup1\n      swap2\n      sub\n      swap1\n      log1\n        /* \"contracts/RPS.sol\":2610:2614  true */\n      0x01\n        /* \"contracts/RPS.sol\":2603:2614  return true */\n      swap2\n      pop\n        /* \"contracts/RPS.sol\":1317:1318  _ */\n    tag_208:\n        /* \"contracts/RPS.sol\":1190:1191  _ */\n      pop\n        /* \"contracts/RPS.sol\":2167:2621  function commitMove(bytes32 gameHash) public hasRegistered hashProvided(gameHash) returns (bool) {... */\n      swap2\n      swap1\n      pop\n      jump\t// out\n        /* \"contracts/RPS.sol\":4476:4609  function isRegistered(address player) public view returns (bool) {... */\n    tag_67:\n        /* \"contracts/RPS.sol\":4535:4539  bool */\n      0x00\n        /* \"contracts/RPS.sol\":4572:4578  player */\n      dup2\n        /* \"contracts/RPS.sol\":4559:4578  playerOne == player */\n      0xffffffffffffffffffffffffffffffffffffffff\n      and\n        /* \"contracts/RPS.sol\":4559:4568  playerOne */\n      0x00\n      dup1\n      sload\n      swap1\n      0x0100\n      exp\n      swap1\n      div\n      0xffffffffffffffffffffffffffffffffffffffff\n      and\n        /* \"contracts/RPS.sol\":4559:4578  playerOne == player */\n      0xffffffffffffffffffffffffffffffffffffffff\n      and\n      eq\n        /* \"contracts/RPS.sol\":4559:4601  playerOne == player || playerTwo == player */\n      dup1\n      tag_218\n      jumpi\n      pop\n        /* \"contracts/RPS.sol\":4595:4601  player */\n      dup2\n        /* \"contracts/RPS.sol\":4582:4601  playerTwo == player */\n      0xffffffffffffffffffffffffffffffffffffffff\n      and\n        /* \"contracts/RPS.sol\":4582:4591  playerTwo */\n      0x01\n      0x00\n      swap1\n      sload\n      swap1\n      0x0100\n      exp\n      swap1\n      div\n      0xffffffffffffffffffffffffffffffffffffffff\n      and\n        /* \"contracts/RPS.sol\":4582:4601  playerTwo == player */\n      0xffffffffffffffffffffffffffffffffffffffff\n      and\n      eq\n        /* \"contracts/RPS.sol\":4559:4601  playerOne == player || playerTwo == player */\n    tag_218:\n        /* \"contracts/RPS.sol\":4551:4602  return (playerOne == player || playerTwo == player) */\n      swap1\n      pop\n        /* \"contracts/RPS.sol\":4476:4609  function isRegistered(address player) public view returns (bool) {... */\n      swap2\n      swap1\n      pop\n      jump\t// out\n        /* \"contracts/RPS.sol\":4818:5042  function isRevealed(address player) public view returns (bool) {... */\n    tag_72:\n        /* \"contracts/RPS.sol\":4875:4879  bool */\n      0x00\n        /* \"contracts/RPS.sol\":4912:4918  player */\n      dup2\n        /* \"contracts/RPS.sol\":4899:4918  playerOne == player */\n      0xffffffffffffffffffffffffffffffffffffffff\n      and\n        /* \"contracts/RPS.sol\":4899:4908  playerOne */\n      0x00\n      dup1\n      sload\n      swap1\n      0x0100\n      exp\n      swap1\n      div\n      0xffffffffffffffffffffffffffffffffffffffff\n      and\n        /* \"contracts/RPS.sol\":4899:4918  playerOne == player */\n      0xffffffffffffffffffffffffffffffffffffffff\n      and\n      eq\n        /* \"contracts/RPS.sol\":4899:4956  playerOne == player && playerOneChoice != GameChoice.none */\n      dup1\n      iszero\n      tag_220\n      jumpi\n      pop\n        /* \"contracts/RPS.sol\":4941:4956  GameChoice.none */\n      0x00\n        /* \"contracts/RPS.sol\":4922:4956  playerOneChoice != GameChoice.none */\n      0x03\n      dup2\n      gt\n      iszero\n      tag_221\n      jumpi\n      tag_222\n      tag_77\n      jump\t// in\n    tag_222:\n    tag_221:\n        /* \"contracts/RPS.sol\":4922:4937  playerOneChoice */\n      0x03\n      0x01\n      swap1\n      sload\n      swap1\n      0x0100\n      exp\n      swap1\n      div\n      0xff\n      and\n        /* \"contracts/RPS.sol\":4922:4956  playerOneChoice != GameChoice.none */\n      0x03\n      dup2\n      gt\n      iszero\n      tag_223\n      jumpi\n      tag_224\n      tag_77\n      jump\t// in\n    tag_224:\n    tag_223:\n      eq\n      iszero\n        /* \"contracts/RPS.sol\":4899:4956  playerOne == player && playerOneChoice != GameChoice.none */\n    tag_220:\n        /* \"contracts/RPS.sol\":4899:5034  playerOne == player && playerOneChoice != GameChoice.none || ... */\n      dup1\n      tag_225\n      jumpi\n      pop\n        /* \"contracts/RPS.sol\":4990:4996  player */\n      dup2\n        /* \"contracts/RPS.sol\":4977:4996  playerTwo == player */\n      0xffffffffffffffffffffffffffffffffffffffff\n      and\n        /* \"contracts/RPS.sol\":4977:4986  playerTwo */\n      0x01\n      0x00\n      swap1\n      sload\n      swap1\n      0x0100\n      exp\n      swap1\n      div\n      0xffffffffffffffffffffffffffffffffffffffff\n      and\n        /* \"contracts/RPS.sol\":4977:4996  playerTwo == player */\n      0xffffffffffffffffffffffffffffffffffffffff\n      and\n      eq\n        /* \"contracts/RPS.sol\":4977:5034  playerTwo == player && playerTwoChoice != GameChoice.none */\n      dup1\n      iszero\n      tag_226\n      jumpi\n      pop\n        /* \"contracts/RPS.sol\":5019:5034  GameChoice.none */\n      0x00\n        /* \"contracts/RPS.sol\":5000:5034  playerTwoChoice != GameChoice.none */\n      0x03\n      dup2\n      gt\n      iszero\n      tag_227\n      jumpi\n      tag_228\n      tag_77\n      jump\t// in\n    tag_228:\n    tag_227:\n        /* \"contracts/RPS.sol\":5000:5015  playerTwoChoice */\n      0x03\n      0x02\n      swap1\n      sload\n      swap1\n      0x0100\n      exp\n      swap1\n      div\n      0xff\n      and\n        /* \"contracts/RPS.sol\":5000:5034  playerTwoChoice != GameChoice.none */\n      0x03\n      dup2\n      gt\n      iszero\n      tag_229\n      jumpi\n      tag_230\n      tag_77\n      jump\t// in\n    tag_230:\n    tag_229:\n      eq\n      iszero\n        /* \"contracts/RPS.sol\":4977:5034  playerTwo == player && playerTwoChoice != GameChoice.none */\n    tag_226:\n        /* \"contracts/RPS.sol\":4899:5034  playerOne == player && playerOneChoice != GameChoice.none || ... */\n    tag_225:\n        /* \"contracts/RPS.sol\":4891:5035  return (playerOne == player && playerOneChoice != GameChoice.none || ... */\n      swap1\n      pop\n        /* \"contracts/RPS.sol\":4818:5042  function isRevealed(address player) public view returns (bool) {... */\n      swap2\n      swap1\n      pop\n      jump\t// out\n        /* \"contracts/RPS.sol\":4216:4362  function getSaltedHash(uint answer, bytes32 salt) internal pure returns (bytes32) {... */\n    tag_176:\n        /* \"contracts/RPS.sol\":4289:4296  bytes32 */\n      0x00\n        /* \"contracts/RPS.sol\":4341:4347  answer */\n      dup3\n        /* \"contracts/RPS.sol\":4349:4353  salt */\n      dup3\n        /* \"contracts/RPS.sol\":4324:4354  abi.encodePacked(answer, salt) */\n      add(0x20, mload(0x40))\n      tag_232\n      swap3\n      swap2\n      swap1\n      tag_233\n      jump\t// in\n    tag_232:\n      mload(0x40)\n      0x20\n      dup2\n      dup4\n      sub\n      sub\n      dup2\n      mstore\n      swap1\n      0x40\n      mstore\n        /* \"contracts/RPS.sol\":4314:4355  keccak256(abi.encodePacked(answer, salt)) */\n      dup1\n      mload\n      swap1\n      0x20\n      add\n      keccak256\n        /* \"contracts/RPS.sol\":4307:4355  return keccak256(abi.encodePacked(answer, salt)) */\n      swap1\n      pop\n        /* \"contracts/RPS.sol\":4216:4362  function getSaltedHash(uint answer, bytes32 salt) internal pure returns (bytes32) {... */\n      swap3\n      swap2\n      pop\n      pop\n      jump\t// out\n        /* \"#utility.yul\":7:146   */\n    tag_235:\n        /* \"#utility.yul\":53:58   */\n      0x00\n        /* \"#utility.yul\":91:97   */\n      dup2\n        /* \"#utility.yul\":78:98   */\n      calldataload\n        /* \"#utility.yul\":69:98   */\n      swap1\n      pop\n        /* \"#utility.yul\":107:140   */\n      tag_237\n        /* \"#utility.yul\":134:139   */\n      dup2\n        /* \"#utility.yul\":107:140   */\n      tag_238\n      jump\t// in\n    tag_237:\n        /* \"#utility.yul\":7:146   */\n      swap3\n      swap2\n      pop\n      pop\n      jump\t// out\n        /* \"#utility.yul\":152:291   */\n    tag_239:\n        /* \"#utility.yul\":198:203   */\n      0x00\n        /* \"#utility.yul\":236:242   */\n      dup2\n        /* \"#utility.yul\":223:243   */\n      calldataload\n        /* \"#utility.yul\":214:243   */\n      swap1\n      pop\n        /* \"#utility.yul\":252:285   */\n      tag_241\n        /* \"#utility.yul\":279:284   */\n      dup2\n        /* \"#utility.yul\":252:285   */\n      tag_242\n      jump\t// in\n    tag_241:\n        /* \"#utility.yul\":152:291   */\n      swap3\n      swap2\n      pop\n      pop\n      jump\t// out\n        /* \"#utility.yul\":297:436   */\n    tag_243:\n        /* \"#utility.yul\":343:348   */\n      0x00\n        /* \"#utility.yul\":381:387   */\n      dup2\n        /* \"#utility.yul\":368:388   */\n      calldataload\n        /* \"#utility.yul\":359:388   */\n      swap1\n      pop\n        /* \"#utility.yul\":397:430   */\n      tag_245\n        /* \"#utility.yul\":424:429   */\n      dup2\n        /* \"#utility.yul\":397:430   */\n      tag_246\n      jump\t// in\n    tag_245:\n        /* \"#utility.yul\":297:436   */\n      swap3\n      swap2\n      pop\n      pop\n      jump\t// out\n        /* \"#utility.yul\":442:771   */\n    tag_23:\n        /* \"#utility.yul\":501:507   */\n      0x00\n        /* \"#utility.yul\":550:552   */\n      0x20\n        /* \"#utility.yul\":538:547   */\n      dup3\n        /* \"#utility.yul\":529:536   */\n      dup5\n        /* \"#utility.yul\":525:548   */\n      sub\n        /* \"#utility.yul\":521:553   */\n      slt\n        /* \"#utility.yul\":518:637   */\n      iszero\n      tag_248\n      jumpi\n        /* \"#utility.yul\":556:635   */\n      tag_249\n      tag_250\n      jump\t// in\n    tag_249:\n        /* \"#utility.yul\":518:637   */\n    tag_248:\n        /* \"#utility.yul\":676:677   */\n      0x00\n        /* \"#utility.yul\":701:754   */\n      tag_251\n        /* \"#utility.yul\":746:753   */\n      dup5\n        /* \"#utility.yul\":737:743   */\n      dup3\n        /* \"#utility.yul\":726:735   */\n      dup6\n        /* \"#utility.yul\":722:744   */\n      add\n        /* \"#utility.yul\":701:754   */\n      tag_235\n      jump\t// in\n    tag_251:\n        /* \"#utility.yul\":691:754   */\n      swap2\n      pop\n        /* \"#utility.yul\":647:764   */\n      pop\n        /* \"#utility.yul\":442:771   */\n      swap3\n      swap2\n      pop\n      pop\n      jump\t// out\n        /* \"#utility.yul\":777:1106   */\n    tag_61:\n        /* \"#utility.yul\":836:842   */\n      0x00\n        /* \"#utility.yul\":885:887   */\n      0x20\n        /* \"#utility.yul\":873:882   */\n      dup3\n        /* \"#utility.yul\":864:871   */\n      dup5\n        /* \"#utility.yul\":860:883   */\n      sub\n        /* \"#utility.yul\":856:888   */\n      slt\n        /* \"#utility.yul\":853:972   */\n      iszero\n      tag_253\n      jumpi\n        /* \"#utility.yul\":891:970   */\n      tag_254\n      tag_250\n      jump\t// in\n    tag_254:\n        /* \"#utility.yul\":853:972   */\n    tag_253:\n        /* \"#utility.yul\":1011:1012   */\n      0x00\n        /* \"#utility.yul\":1036:1089   */\n      tag_255\n        /* \"#utility.yul\":1081:1088   */\n      dup5\n        /* \"#utility.yul\":1072:1078   */\n      dup3\n        /* \"#utility.yul\":1061:1070   */\n      dup6\n        /* \"#utility.yul\":1057:1079   */\n      add\n        /* \"#utility.yul\":1036:1089   */\n      tag_239\n      jump\t// in\n    tag_255:\n        /* \"#utility.yul\":1026:1089   */\n      swap2\n      pop\n        /* \"#utility.yul\":982:1099   */\n      pop\n        /* \"#utility.yul\":777:1106   */\n      swap3\n      swap2\n      pop\n      pop\n      jump\t// out\n        /* \"#utility.yul\":1112:1586   */\n    tag_50:\n        /* \"#utility.yul\":1180:1186   */\n      0x00\n        /* \"#utility.yul\":1188:1194   */\n      dup1\n        /* \"#utility.yul\":1237:1239   */\n      0x40\n        /* \"#utility.yul\":1225:1234   */\n      dup4\n        /* \"#utility.yul\":1216:1223   */\n      dup6\n        /* \"#utility.yul\":1212:1235   */\n      sub\n        /* \"#utility.yul\":1208:1240   */\n      slt\n        /* \"#utility.yul\":1205:1324   */\n      iszero\n      tag_257\n      jumpi\n        /* \"#utility.yul\":1243:1322   */\n      tag_258\n      tag_250\n      jump\t// in\n    tag_258:\n        /* \"#utility.yul\":1205:1324   */\n    tag_257:\n        /* \"#utility.yul\":1363:1364   */\n      0x00\n        /* \"#utility.yul\":1388:1441   */\n      tag_259\n        /* \"#utility.yul\":1433:1440   */\n      dup6\n        /* \"#utility.yul\":1424:1430   */\n      dup3\n        /* \"#utility.yul\":1413:1422   */\n      dup7\n        /* \"#utility.yul\":1409:1431   */\n      add\n        /* \"#utility.yul\":1388:1441   */\n      tag_243\n      jump\t// in\n    tag_259:\n        /* \"#utility.yul\":1378:1441   */\n      swap3\n      pop\n        /* \"#utility.yul\":1334:1451   */\n      pop\n        /* \"#utility.yul\":1490:1492   */\n      0x20\n        /* \"#utility.yul\":1516:1569   */\n      tag_260\n        /* \"#utility.yul\":1561:1568   */\n      dup6\n        /* \"#utility.yul\":1552:1558   */\n      dup3\n        /* \"#utility.yul\":1541:1550   */\n      dup7\n        /* \"#utility.yul\":1537:1559   */\n      add\n        /* \"#utility.yul\":1516:1569   */\n      tag_239\n      jump\t// in\n    tag_260:\n        /* \"#utility.yul\":1506:1569   */\n      swap2\n      pop\n        /* \"#utility.yul\":1461:1579   */\n      pop\n        /* \"#utility.yul\":1112:1586   */\n      swap3\n      pop\n      swap3\n      swap1\n      pop\n      jump\t// out\n        /* \"#utility.yul\":1592:1701   */\n    tag_261:\n        /* \"#utility.yul\":1673:1694   */\n      tag_263\n        /* \"#utility.yul\":1688:1693   */\n      dup2\n        /* \"#utility.yul\":1673:1694   */\n      tag_264\n      jump\t// in\n    tag_263:\n        /* \"#utility.yul\":1668:1671   */\n      dup3\n        /* \"#utility.yul\":1661:1695   */\n      mstore\n        /* \"#utility.yul\":1592:1701   */\n      pop\n      pop\n      jump\t// out\n        /* \"#utility.yul\":1707:1864   */\n    tag_265:\n        /* \"#utility.yul\":1812:1857   */\n      tag_267\n        /* \"#utility.yul\":1832:1856   */\n      tag_268\n        /* \"#utility.yul\":1850:1855   */\n      dup3\n        /* \"#utility.yul\":1832:1856   */\n      tag_269\n      jump\t// in\n    tag_268:\n        /* \"#utility.yul\":1812:1857   */\n      tag_270\n      jump\t// in\n    tag_267:\n        /* \"#utility.yul\":1807:1810   */\n      dup3\n        /* \"#utility.yul\":1800:1858   */\n      mstore\n        /* \"#utility.yul\":1707:1864   */\n      pop\n      pop\n      jump\t// out\n        /* \"#utility.yul\":1870:2023   */\n    tag_271:\n        /* \"#utility.yul\":1968:2016   */\n      tag_273\n        /* \"#utility.yul\":2010:2015   */\n      dup2\n        /* \"#utility.yul\":1968:2016   */\n      tag_274\n      jump\t// in\n    tag_273:\n        /* \"#utility.yul\":1963:1966   */\n      dup3\n        /* \"#utility.yul\":1956:2017   */\n      mstore\n        /* \"#utility.yul\":1870:2023   */\n      pop\n      pop\n      jump\t// out\n        /* \"#utility.yul\":2029:2184   */\n    tag_275:\n        /* \"#utility.yul\":2128:2177   */\n      tag_277\n        /* \"#utility.yul\":2171:2176   */\n      dup2\n        /* \"#utility.yul\":2128:2177   */\n      tag_278\n      jump\t// in\n    tag_277:\n        /* \"#utility.yul\":2123:2126   */\n      dup3\n        /* \"#utility.yul\":2116:2178   */\n      mstore\n        /* \"#utility.yul\":2029:2184   */\n      pop\n      pop\n      jump\t// out\n        /* \"#utility.yul\":2190:2337   */\n    tag_279:\n        /* \"#utility.yul\":2285:2330   */\n      tag_281\n        /* \"#utility.yul\":2324:2329   */\n      dup2\n        /* \"#utility.yul\":2285:2330   */\n      tag_282\n      jump\t// in\n    tag_281:\n        /* \"#utility.yul\":2280:2283   */\n      dup3\n        /* \"#utility.yul\":2273:2331   */\n      mstore\n        /* \"#utility.yul\":2190:2337   */\n      pop\n      pop\n      jump\t// out\n        /* \"#utility.yul\":2343:2490   */\n    tag_283:\n        /* \"#utility.yul\":2438:2483   */\n      tag_285\n        /* \"#utility.yul\":2477:2482   */\n      dup2\n        /* \"#utility.yul\":2438:2483   */\n      tag_286\n      jump\t// in\n    tag_285:\n        /* \"#utility.yul\":2433:2436   */\n      dup3\n        /* \"#utility.yul\":2426:2484   */\n      mstore\n        /* \"#utility.yul\":2343:2490   */\n      pop\n      pop\n      jump\t// out\n        /* \"#utility.yul\":2496:2643   */\n    tag_287:\n        /* \"#utility.yul\":2591:2636   */\n      tag_289\n        /* \"#utility.yul\":2630:2635   */\n      dup2\n        /* \"#utility.yul\":2591:2636   */\n      tag_290\n      jump\t// in\n    tag_289:\n        /* \"#utility.yul\":2586:2589   */\n      dup3\n        /* \"#utility.yul\":2579:2637   */\n      mstore\n        /* \"#utility.yul\":2496:2643   */\n      pop\n      pop\n      jump\t// out\n        /* \"#utility.yul\":2649:3015   */\n    tag_291:\n        /* \"#utility.yul\":2791:2794   */\n      0x00\n        /* \"#utility.yul\":2812:2879   */\n      tag_293\n        /* \"#utility.yul\":2876:2878   */\n      0x16\n        /* \"#utility.yul\":2871:2874   */\n      dup4\n        /* \"#utility.yul\":2812:2879   */\n      tag_294\n      jump\t// in\n    tag_293:\n        /* \"#utility.yul\":2805:2879   */\n      swap2\n      pop\n        /* \"#utility.yul\":2888:2981   */\n      tag_295\n        /* \"#utility.yul\":2977:2980   */\n      dup3\n        /* \"#utility.yul\":2888:2981   */\n      tag_296\n      jump\t// in\n    tag_295:\n        /* \"#utility.yul\":3006:3008   */\n      0x20\n        /* \"#utility.yul\":3001:3004   */\n      dup3\n        /* \"#utility.yul\":2997:3009   */\n      add\n        /* \"#utility.yul\":2990:3009   */\n      swap1\n      pop\n        /* \"#utility.yul\":2649:3015   */\n      swap2\n      swap1\n      pop\n      jump\t// out\n        /* \"#utility.yul\":3021:3387   */\n    tag_297:\n        /* \"#utility.yul\":3163:3166   */\n      0x00\n        /* \"#utility.yul\":3184:3251   */\n      tag_299\n        /* \"#utility.yul\":3248:3250   */\n      0x19\n        /* \"#utility.yul\":3243:3246   */\n      dup4\n        /* \"#utility.yul\":3184:3251   */\n      tag_294\n      jump\t// in\n    tag_299:\n        /* \"#utility.yul\":3177:3251   */\n      swap2\n      pop\n        /* \"#utility.yul\":3260:3353   */\n      tag_300\n        /* \"#utility.yul\":3349:3352   */\n      dup3\n        /* \"#utility.yul\":3260:3353   */\n      tag_301\n      jump\t// in\n    tag_300:\n        /* \"#utility.yul\":3378:3380   */\n      0x20\n        /* \"#utility.yul\":3373:3376   */\n      dup3\n        /* \"#utility.yul\":3369:3381   */\n      add\n        /* \"#utility.yul\":3362:3381   */\n      swap1\n      pop\n        /* \"#utility.yul\":3021:3387   */\n      swap2\n      swap1\n      pop\n      jump\t// out\n        /* \"#utility.yul\":3393:3759   */\n    tag_302:\n        /* \"#utility.yul\":3535:3538   */\n      0x00\n        /* \"#utility.yul\":3556:3623   */\n      tag_304\n        /* \"#utility.yul\":3620:3622   */\n      0x22\n        /* \"#utility.yul\":3615:3618   */\n      dup4\n        /* \"#utility.yul\":3556:3623   */\n      tag_294\n      jump\t// in\n    tag_304:\n        /* \"#utility.yul\":3549:3623   */\n      swap2\n      pop\n        /* \"#utility.yul\":3632:3725   */\n      tag_305\n        /* \"#utility.yul\":3721:3724   */\n      dup3\n        /* \"#utility.yul\":3632:3725   */\n      tag_306\n      jump\t// in\n    tag_305:\n        /* \"#utility.yul\":3750:3752   */\n      0x40\n        /* \"#utility.yul\":3745:3748   */\n      dup3\n        /* \"#utility.yul\":3741:3753   */\n      add\n        /* \"#utility.yul\":3734:3753   */\n      swap1\n      pop\n        /* \"#utility.yul\":3393:3759   */\n      swap2\n      swap1\n      pop\n      jump\t// out\n        /* \"#utility.yul\":3765:4131   */\n    tag_307:\n        /* \"#utility.yul\":3907:3910   */\n      0x00\n        /* \"#utility.yul\":3928:3995   */\n      tag_309\n        /* \"#utility.yul\":3992:3994   */\n      0x10\n        /* \"#utility.yul\":3987:3990   */\n      dup4\n        /* \"#utility.yul\":3928:3995   */\n      tag_294\n      jump\t// in\n    tag_309:\n        /* \"#utility.yul\":3921:3995   */\n      swap2\n      pop\n        /* \"#utility.yul\":4004:4097   */\n      tag_310\n        /* \"#utility.yul\":4093:4096   */\n      dup3\n        /* \"#utility.yul\":4004:4097   */\n      tag_311\n      jump\t// in\n    tag_310:\n        /* \"#utility.yul\":4122:4124   */\n      0x20\n        /* \"#utility.yul\":4117:4120   */\n      dup3\n        /* \"#utility.yul\":4113:4125   */\n      add\n        /* \"#utility.yul\":4106:4125   */\n      swap1\n      pop\n        /* \"#utility.yul\":3765:4131   */\n      swap2\n      swap1\n      pop\n      jump\t// out\n        /* \"#utility.yul\":4137:4503   */\n    tag_312:\n        /* \"#utility.yul\":4279:4282   */\n      0x00\n        /* \"#utility.yul\":4300:4367   */\n      tag_314\n        /* \"#utility.yul\":4364:4366   */\n      0x1a\n        /* \"#utility.yul\":4359:4362   */\n      dup4\n        /* \"#utility.yul\":4300:4367   */\n      tag_294\n      jump\t// in\n    tag_314:\n        /* \"#utility.yul\":4293:4367   */\n      swap2\n      pop\n        /* \"#utility.yul\":4376:4469   */\n      tag_315\n        /* \"#utility.yul\":4465:4468   */\n      dup3\n        /* \"#utility.yul\":4376:4469   */\n      tag_316\n      jump\t// in\n    tag_315:\n        /* \"#utility.yul\":4494:4496   */\n      0x20\n        /* \"#utility.yul\":4489:4492   */\n      dup3\n        /* \"#utility.yul\":4485:4497   */\n      add\n        /* \"#utility.yul\":4478:4497   */\n      swap1\n      pop\n        /* \"#utility.yul\":4137:4503   */\n      swap2\n      swap1\n      pop\n      jump\t// out\n        /* \"#utility.yul\":4509:4875   */\n    tag_317:\n        /* \"#utility.yul\":4651:4654   */\n      0x00\n        /* \"#utility.yul\":4672:4739   */\n      tag_319\n        /* \"#utility.yul\":4736:4738   */\n      0x11\n        /* \"#utility.yul\":4731:4734   */\n      dup4\n        /* \"#utility.yul\":4672:4739   */\n      tag_294\n      jump\t// in\n    tag_319:\n        /* \"#utility.yul\":4665:4739   */\n      swap2\n      pop\n        /* \"#utility.yul\":4748:4841   */\n      tag_320\n        /* \"#utility.yul\":4837:4840   */\n      dup3\n        /* \"#utility.yul\":4748:4841   */\n      tag_321\n      jump\t// in\n    tag_320:\n        /* \"#utility.yul\":4866:4868   */\n      0x20\n        /* \"#utility.yul\":4861:4864   */\n      dup3\n        /* \"#utility.yul\":4857:4869   */\n      add\n        /* \"#utility.yul\":4850:4869   */\n      swap1\n      pop\n        /* \"#utility.yul\":4509:4875   */\n      swap2\n      swap1\n      pop\n      jump\t// out\n        /* \"#utility.yul\":4881:5247   */\n    tag_322:\n        /* \"#utility.yul\":5023:5026   */\n      0x00\n        /* \"#utility.yul\":5044:5111   */\n      tag_324\n        /* \"#utility.yul\":5108:5110   */\n      0x22\n        /* \"#utility.yul\":5103:5106   */\n      dup4\n        /* \"#utility.yul\":5044:5111   */\n      tag_294\n      jump\t// in\n    tag_324:\n        /* \"#utility.yul\":5037:5111   */\n      swap2\n      pop\n        /* \"#utility.yul\":5120:5213   */\n      tag_325\n        /* \"#utility.yul\":5209:5212   */\n      dup3\n        /* \"#utility.yul\":5120:5213   */\n      tag_326\n      jump\t// in\n    tag_325:\n        /* \"#utility.yul\":5238:5240   */\n      0x40\n        /* \"#utility.yul\":5233:5236   */\n      dup3\n        /* \"#utility.yul\":5229:5241   */\n      add\n        /* \"#utility.yul\":5222:5241   */\n      swap1\n      pop\n        /* \"#utility.yul\":4881:5247   */\n      swap2\n      swap1\n      pop\n      jump\t// out\n        /* \"#utility.yul\":5253:5619   */\n    tag_327:\n        /* \"#utility.yul\":5395:5398   */\n      0x00\n        /* \"#utility.yul\":5416:5483   */\n      tag_329\n        /* \"#utility.yul\":5480:5482   */\n      0x16\n        /* \"#utility.yul\":5475:5478   */\n      dup4\n        /* \"#utility.yul\":5416:5483   */\n      tag_294\n      jump\t// in\n    tag_329:\n        /* \"#utility.yul\":5409:5483   */\n      swap2\n      pop\n        /* \"#utility.yul\":5492:5585   */\n      tag_330\n        /* \"#utility.yul\":5581:5584   */\n      dup3\n        /* \"#utility.yul\":5492:5585   */\n      tag_331\n      jump\t// in\n    tag_330:\n        /* \"#utility.yul\":5610:5612   */\n      0x20\n        /* \"#utility.yul\":5605:5608   */\n      dup3\n        /* \"#utility.yul\":5601:5613   */\n      add\n        /* \"#utility.yul\":5594:5613   */\n      swap1\n      pop\n        /* \"#utility.yul\":5253:5619   */\n      swap2\n      swap1\n      pop\n      jump\t// out\n        /* \"#utility.yul\":5625:5743   */\n    tag_332:\n        /* \"#utility.yul\":5712:5736   */\n      tag_334\n        /* \"#utility.yul\":5730:5735   */\n      dup2\n        /* \"#utility.yul\":5712:5736   */\n      tag_335\n      jump\t// in\n    tag_334:\n        /* \"#utility.yul\":5707:5710   */\n      dup3\n        /* \"#utility.yul\":5700:5737   */\n      mstore\n        /* \"#utility.yul\":5625:5743   */\n      pop\n      pop\n      jump\t// out\n        /* \"#utility.yul\":5749:5906   */\n    tag_336:\n        /* \"#utility.yul\":5854:5899   */\n      tag_338\n        /* \"#utility.yul\":5874:5898   */\n      tag_339\n        /* \"#utility.yul\":5892:5897   */\n      dup3\n        /* \"#utility.yul\":5874:5898   */\n      tag_335\n      jump\t// in\n    tag_339:\n        /* \"#utility.yul\":5854:5899   */\n      tag_340\n      jump\t// in\n    tag_338:\n        /* \"#utility.yul\":5849:5852   */\n      dup3\n        /* \"#utility.yul\":5842:5900   */\n      mstore\n        /* \"#utility.yul\":5749:5906   */\n      pop\n      pop\n      jump\t// out\n        /* \"#utility.yul\":5912:6309   */\n    tag_233:\n        /* \"#utility.yul\":6052:6055   */\n      0x00\n        /* \"#utility.yul\":6067:6142   */\n      tag_342\n        /* \"#utility.yul\":6138:6141   */\n      dup3\n        /* \"#utility.yul\":6129:6135   */\n      dup6\n        /* \"#utility.yul\":6067:6142   */\n      tag_336\n      jump\t// in\n    tag_342:\n        /* \"#utility.yul\":6167:6169   */\n      0x20\n        /* \"#utility.yul\":6162:6165   */\n      dup3\n        /* \"#utility.yul\":6158:6170   */\n      add\n        /* \"#utility.yul\":6151:6170   */\n      swap2\n      pop\n        /* \"#utility.yul\":6180:6255   */\n      tag_343\n        /* \"#utility.yul\":6251:6254   */\n      dup3\n        /* \"#utility.yul\":6242:6248   */\n      dup5\n        /* \"#utility.yul\":6180:6255   */\n      tag_265\n      jump\t// in\n    tag_343:\n        /* \"#utility.yul\":6280:6282   */\n      0x20\n        /* \"#utility.yul\":6275:6278   */\n      dup3\n        /* \"#utility.yul\":6271:6283   */\n      add\n        /* \"#utility.yul\":6264:6283   */\n      swap2\n      pop\n        /* \"#utility.yul\":6300:6303   */\n      dup2\n        /* \"#utility.yul\":6293:6303   */\n      swap1\n      pop\n        /* \"#utility.yul\":5912:6309   */\n      swap4\n      swap3\n      pop\n      pop\n      pop\n      jump\t// out\n        /* \"#utility.yul\":6315:6525   */\n    tag_26:\n        /* \"#utility.yul\":6402:6406   */\n      0x00\n        /* \"#utility.yul\":6440:6442   */\n      0x20\n        /* \"#utility.yul\":6429:6438   */\n      dup3\n        /* \"#utility.yul\":6425:6443   */\n      add\n        /* \"#utility.yul\":6417:6443   */\n      swap1\n      pop\n        /* \"#utility.yul\":6453:6518   */\n      tag_345\n        /* \"#utility.yul\":6515:6516   */\n      0x00\n        /* \"#utility.yul\":6504:6513   */\n      dup4\n        /* \"#utility.yul\":6500:6517   */\n      add\n        /* \"#utility.yul\":6491:6497   */\n      dup5\n        /* \"#utility.yul\":6453:6518   */\n      tag_261\n      jump\t// in\n    tag_345:\n        /* \"#utility.yul\":6315:6525   */\n      swap3\n      swap2\n      pop\n      pop\n      jump\t// out\n        /* \"#utility.yul\":6531:6775   */\n    tag_53:\n        /* \"#utility.yul\":6635:6639   */\n      0x00\n        /* \"#utility.yul\":6673:6675   */\n      0x20\n        /* \"#utility.yul\":6662:6671   */\n      dup3\n        /* \"#utility.yul\":6658:6676   */\n      add\n        /* \"#utility.yul\":6650:6676   */\n      swap1\n      pop\n        /* \"#utility.yul\":6686:6768   */\n      tag_347\n        /* \"#utility.yul\":6765:6766   */\n      0x00\n        /* \"#utility.yul\":6754:6763   */\n      dup4\n        /* \"#utility.yul\":6750:6767   */\n      add\n        /* \"#utility.yul\":6741:6747   */\n      dup5\n        /* \"#utility.yul\":6686:6768   */\n      tag_271\n      jump\t// in\n    tag_347:\n        /* \"#utility.yul\":6531:6775   */\n      swap3\n      swap2\n      pop\n      pop\n      jump\t// out\n        /* \"#utility.yul\":6781:7027   */\n    tag_19:\n        /* \"#utility.yul\":6886:6890   */\n      0x00\n        /* \"#utility.yul\":6924:6926   */\n      0x20\n        /* \"#utility.yul\":6913:6922   */\n      dup3\n        /* \"#utility.yul\":6909:6927   */\n      add\n        /* \"#utility.yul\":6901:6927   */\n      swap1\n      pop\n        /* \"#utility.yul\":6937:7020   */\n      tag_349\n        /* \"#utility.yul\":7017:7018   */\n      0x00\n        /* \"#utility.yul\":7006:7015   */\n      dup4\n        /* \"#utility.yul\":7002:7019   */\n      add\n        /* \"#utility.yul\":6993:6999   */\n      dup5\n        /* \"#utility.yul\":6937:7020   */\n      tag_275\n      jump\t// in\n    tag_349:\n        /* \"#utility.yul\":6781:7027   */\n      swap3\n      swap2\n      pop\n      pop\n      jump\t// out\n        /* \"#utility.yul\":7033:7271   */\n    tag_148:\n        /* \"#utility.yul\":7134:7138   */\n      0x00\n        /* \"#utility.yul\":7172:7174   */\n      0x20\n        /* \"#utility.yul\":7161:7170   */\n      dup3\n        /* \"#utility.yul\":7157:7175   */\n      add\n        /* \"#utility.yul\":7149:7175   */\n      swap1\n      pop\n        /* \"#utility.yul\":7185:7264   */\n      tag_351\n        /* \"#utility.yul\":7261:7262   */\n      0x00\n        /* \"#utility.yul\":7250:7259   */\n      dup4\n        /* \"#utility.yul\":7246:7263   */\n      add\n        /* \"#utility.yul\":7237:7243   */\n      dup5\n        /* \"#utility.yul\":7185:7264   */\n      tag_279\n      jump\t// in\n    tag_351:\n        /* \"#utility.yul\":7033:7271   */\n      swap3\n      swap2\n      pop\n      pop\n      jump\t// out\n        /* \"#utility.yul\":7277:7515   */\n    tag_142:\n        /* \"#utility.yul\":7378:7382   */\n      0x00\n        /* \"#utility.yul\":7416:7418   */\n      0x20\n        /* \"#utility.yul\":7405:7414   */\n      dup3\n        /* \"#utility.yul\":7401:7419   */\n      add\n        /* \"#utility.yul\":7393:7419   */\n      swap1\n      pop\n        /* \"#utility.yul\":7429:7508   */\n      tag_353\n        /* \"#utility.yul\":7505:7506   */\n      0x00\n        /* \"#utility.yul\":7494:7503   */\n      dup4\n        /* \"#utility.yul\":7490:7507   */\n      add\n        /* \"#utility.yul\":7481:7487   */\n      dup5\n        /* \"#utility.yul\":7429:7508   */\n      tag_283\n      jump\t// in\n    tag_353:\n        /* \"#utility.yul\":7277:7515   */\n      swap3\n      swap2\n      pop\n      pop\n      jump\t// out\n        /* \"#utility.yul\":7521:7759   */\n    tag_146:\n        /* \"#utility.yul\":7622:7626   */\n      0x00\n        /* \"#utility.yul\":7660:7662   */\n      0x20\n        /* \"#utility.yul\":7649:7658   */\n      dup3\n        /* \"#utility.yul\":7645:7663   */\n      add\n        /* \"#utility.yul\":7637:7663   */\n      swap1\n      pop\n        /* \"#utility.yul\":7673:7752   */\n      tag_355\n        /* \"#utility.yul\":7749:7750   */\n      0x00\n        /* \"#utility.yul\":7738:7747   */\n      dup4\n        /* \"#utility.yul\":7734:7751   */\n      add\n        /* \"#utility.yul\":7725:7731   */\n      dup5\n        /* \"#utility.yul\":7673:7752   */\n      tag_287\n      jump\t// in\n    tag_355:\n        /* \"#utility.yul\":7521:7759   */\n      swap3\n      swap2\n      pop\n      pop\n      jump\t// out\n        /* \"#utility.yul\":7765:8184   */\n    tag_197:\n        /* \"#utility.yul\":7931:7935   */\n      0x00\n        /* \"#utility.yul\":7969:7971   */\n      0x20\n        /* \"#utility.yul\":7958:7967   */\n      dup3\n        /* \"#utility.yul\":7954:7972   */\n      add\n        /* \"#utility.yul\":7946:7972   */\n      swap1\n      pop\n        /* \"#utility.yul\":8018:8027   */\n      dup2\n        /* \"#utility.yul\":8012:8016   */\n      dup2\n        /* \"#utility.yul\":8008:8028   */\n      sub\n        /* \"#utility.yul\":8004:8005   */\n      0x00\n        /* \"#utility.yul\":7993:8002   */\n      dup4\n        /* \"#utility.yul\":7989:8006   */\n      add\n        /* \"#utility.yul\":7982:8029   */\n      mstore\n        /* \"#utility.yul\":8046:8177   */\n      tag_357\n        /* \"#utility.yul\":8172:8176   */\n      dup2\n        /* \"#utility.yul\":8046:8177   */\n      tag_291\n      jump\t// in\n    tag_357:\n        /* \"#utility.yul\":8038:8177   */\n      swap1\n      pop\n        /* \"#utility.yul\":7765:8184   */\n      swap2\n      swap1\n      pop\n      jump\t// out\n        /* \"#utility.yul\":8190:8609   */\n    tag_164:\n        /* \"#utility.yul\":8356:8360   */\n      0x00\n        /* \"#utility.yul\":8394:8396   */\n      0x20\n        /* \"#utility.yul\":8383:8392   */\n      dup3\n        /* \"#utility.yul\":8379:8397   */\n      add\n        /* \"#utility.yul\":8371:8397   */\n      swap1\n      pop\n        /* \"#utility.yul\":8443:8452   */\n      dup2\n        /* \"#utility.yul\":8437:8441   */\n      dup2\n        /* \"#utility.yul\":8433:8453   */\n      sub\n        /* \"#utility.yul\":8429:8430   */\n      0x00\n        /* \"#utility.yul\":8418:8427   */\n      dup4\n        /* \"#utility.yul\":8414:8431   */\n      add\n        /* \"#utility.yul\":8407:8454   */\n      mstore\n        /* \"#utility.yul\":8471:8602   */\n      tag_359\n        /* \"#utility.yul\":8597:8601   */\n      dup2\n        /* \"#utility.yul\":8471:8602   */\n      tag_297\n      jump\t// in\n    tag_359:\n        /* \"#utility.yul\":8463:8602   */\n      swap1\n      pop\n        /* \"#utility.yul\":8190:8609   */\n      swap2\n      swap1\n      pop\n      jump\t// out\n        /* \"#utility.yul\":8615:9034   */\n    tag_138:\n        /* \"#utility.yul\":8781:8785   */\n      0x00\n        /* \"#utility.yul\":8819:8821   */\n      0x20\n        /* \"#utility.yul\":8808:8817   */\n      dup3\n        /* \"#utility.yul\":8804:8822   */\n      add\n        /* \"#utility.yul\":8796:8822   */\n      swap1\n      pop\n        /* \"#utility.yul\":8868:8877   */\n      dup2\n        /* \"#utility.yul\":8862:8866   */\n      dup2\n        /* \"#utility.yul\":8858:8878   */\n      sub\n        /* \"#utility.yul\":8854:8855   */\n      0x00\n        /* \"#utility.yul\":8843:8852   */\n      dup4\n        /* \"#utility.yul\":8839:8856   */\n      add\n        /* \"#utility.yul\":8832:8879   */\n      mstore\n        /* \"#utility.yul\":8896:9027   */\n      tag_361\n        /* \"#utility.yul\":9022:9026   */\n      dup2\n        /* \"#utility.yul\":8896:9027   */\n      tag_302\n      jump\t// in\n    tag_361:\n        /* \"#utility.yul\":8888:9027   */\n      swap1\n      pop\n        /* \"#utility.yul\":8615:9034   */\n      swap2\n      swap1\n      pop\n      jump\t// out\n        /* \"#utility.yul\":9040:9459   */\n    tag_169:\n        /* \"#utility.yul\":9206:9210   */\n      0x00\n        /* \"#utility.yul\":9244:9246   */\n      0x20\n        /* \"#utility.yul\":9233:9242   */\n      dup3\n        /* \"#utility.yul\":9229:9247   */\n      add\n        /* \"#utility.yul\":9221:9247   */\n      swap1\n      pop\n        /* \"#utility.yul\":9293:9302   */\n      dup2\n        /* \"#utility.yul\":9287:9291   */\n      dup2\n        /* \"#utility.yul\":9283:9303   */\n      sub\n        /* \"#utility.yul\":9279:9280   */\n      0x00\n        /* \"#utility.yul\":9268:9277   */\n      dup4\n        /* \"#utility.yul\":9264:9281   */\n      add\n        /* \"#utility.yul\":9257:9304   */\n      mstore\n        /* \"#utility.yul\":9321:9452   */\n      tag_363\n        /* \"#utility.yul\":9447:9451   */\n      dup2\n        /* \"#utility.yul\":9321:9452   */\n      tag_307\n      jump\t// in\n    tag_363:\n        /* \"#utility.yul\":9313:9452   */\n      swap1\n      pop\n        /* \"#utility.yul\":9040:9459   */\n      swap2\n      swap1\n      pop\n      jump\t// out\n        /* \"#utility.yul\":9465:9884   */\n    tag_207:\n        /* \"#utility.yul\":9631:9635   */\n      0x00\n        /* \"#utility.yul\":9669:9671   */\n      0x20\n        /* \"#utility.yul\":9658:9667   */\n      dup3\n        /* \"#utility.yul\":9654:9672   */\n      add\n        /* \"#utility.yul\":9646:9672   */\n      swap1\n      pop\n        /* \"#utility.yul\":9718:9727   */\n      dup2\n        /* \"#utility.yul\":9712:9716   */\n      dup2\n        /* \"#utility.yul\":9708:9728   */\n      sub\n        /* \"#utility.yul\":9704:9705   */\n      0x00\n        /* \"#utility.yul\":9693:9702   */\n      dup4\n        /* \"#utility.yul\":9689:9706   */\n      add\n        /* \"#utility.yul\":9682:9729   */\n      mstore\n        /* \"#utility.yul\":9746:9877   */\n      tag_365\n        /* \"#utility.yul\":9872:9876   */\n      dup2\n        /* \"#utility.yul\":9746:9877   */\n      tag_312\n      jump\t// in\n    tag_365:\n        /* \"#utility.yul\":9738:9877   */\n      swap1\n      pop\n        /* \"#utility.yul\":9465:9884   */\n      swap2\n      swap1\n      pop\n      jump\t// out\n        /* \"#utility.yul\":9890:10309   */\n    tag_179:\n        /* \"#utility.yul\":10056:10060   */\n      0x00\n        /* \"#utility.yul\":10094:10096   */\n      0x20\n        /* \"#utility.yul\":10083:10092   */\n      dup3\n        /* \"#utility.yul\":10079:10097   */\n      add\n        /* \"#utility.yul\":10071:10097   */\n      swap1\n      pop\n        /* \"#utility.yul\":10143:10152   */\n      dup2\n        /* \"#utility.yul\":10137:10141   */\n      dup2\n        /* \"#utility.yul\":10133:10153   */\n      sub\n        /* \"#utility.yul\":10129:10130   */\n      0x00\n        /* \"#utility.yul\":10118:10127   */\n      dup4\n        /* \"#utility.yul\":10114:10131   */\n      add\n        /* \"#utility.yul\":10107:10154   */\n      mstore\n        /* \"#utility.yul\":10171:10302   */\n      tag_367\n        /* \"#utility.yul\":10297:10301   */\n      dup2\n        /* \"#utility.yul\":10171:10302   */\n      tag_317\n      jump\t// in\n    tag_367:\n        /* \"#utility.yul\":10163:10302   */\n      swap1\n      pop\n        /* \"#utility.yul\":9890:10309   */\n      swap2\n      swap1\n      pop\n      jump\t// out\n        /* \"#utility.yul\":10315:10734   */\n    tag_129:\n        /* \"#utility.yul\":10481:10485   */\n      0x00\n        /* \"#utility.yul\":10519:10521   */\n      0x20\n        /* \"#utility.yul\":10508:10517   */\n      dup3\n        /* \"#utility.yul\":10504:10522   */\n      add\n        /* \"#utility.yul\":10496:10522   */\n      swap1\n      pop\n        /* \"#utility.yul\":10568:10577   */\n      dup2\n        /* \"#utility.yul\":10562:10566   */\n      dup2\n        /* \"#utility.yul\":10558:10578   */\n      sub\n        /* \"#utility.yul\":10554:10555   */\n      0x00\n        /* \"#utility.yul\":10543:10552   */\n      dup4\n        /* \"#utility.yul\":10539:10556   */\n      add\n        /* \"#utility.yul\":10532:10579   */\n      mstore\n        /* \"#utility.yul\":10596:10727   */\n      tag_369\n        /* \"#utility.yul\":10722:10726   */\n      dup2\n        /* \"#utility.yul\":10596:10727   */\n      tag_322\n      jump\t// in\n    tag_369:\n        /* \"#utility.yul\":10588:10727   */\n      swap1\n      pop\n        /* \"#utility.yul\":10315:10734   */\n      swap2\n      swap1\n      pop\n      jump\t// out\n        /* \"#utility.yul\":10740:11159   */\n    tag_133:\n        /* \"#utility.yul\":10906:10910   */\n      0x00\n        /* \"#utility.yul\":10944:10946   */\n      0x20\n        /* \"#utility.yul\":10933:10942   */\n      dup3\n        /* \"#utility.yul\":10929:10947   */\n      add\n        /* \"#utility.yul\":10921:10947   */\n      swap1\n      pop\n        /* \"#utility.yul\":10993:11002   */\n      dup2\n        /* \"#utility.yul\":10987:10991   */\n      dup2\n        /* \"#utility.yul\":10983:11003   */\n      sub\n        /* \"#utility.yul\":10979:10980   */\n      0x00\n        /* \"#utility.yul\":10968:10977   */\n      dup4\n        /* \"#utility.yul\":10964:10981   */\n      add\n        /* \"#utility.yul\":10957:11004   */\n      mstore\n        /* \"#utility.yul\":11021:11152   */\n      tag_371\n        /* \"#utility.yul\":11147:11151   */\n      dup2\n        /* \"#utility.yul\":11021:11152   */\n      tag_327\n      jump\t// in\n    tag_371:\n        /* \"#utility.yul\":11013:11152   */\n      swap1\n      pop\n        /* \"#utility.yul\":10740:11159   */\n      swap2\n      swap1\n      pop\n      jump\t// out\n        /* \"#utility.yul\":11165:11387   */\n    tag_30:\n        /* \"#utility.yul\":11258:11262   */\n      0x00\n        /* \"#utility.yul\":11296:11298   */\n      0x20\n        /* \"#utility.yul\":11285:11294   */\n      dup3\n        /* \"#utility.yul\":11281:11299   */\n      add\n        /* \"#utility.yul\":11273:11299   */\n      swap1\n      pop\n        /* \"#utility.yul\":11309:11380   */\n      tag_373\n        /* \"#utility.yul\":11377:11378   */\n      0x00\n        /* \"#utility.yul\":11366:11375   */\n      dup4\n        /* \"#utility.yul\":11362:11379   */\n      add\n        /* \"#utility.yul\":11353:11359   */\n      dup5\n        /* \"#utility.yul\":11309:11380   */\n      tag_332\n      jump\t// in\n    tag_373:\n        /* \"#utility.yul\":11165:11387   */\n      swap3\n      swap2\n      pop\n      pop\n      jump\t// out\n        /* \"#utility.yul\":11474:11643   */\n    tag_294:\n        /* \"#utility.yul\":11558:11569   */\n      0x00\n        /* \"#utility.yul\":11592:11598   */\n      dup3\n        /* \"#utility.yul\":11587:11590   */\n      dup3\n        /* \"#utility.yul\":11580:11599   */\n      mstore\n        /* \"#utility.yul\":11632:11636   */\n      0x20\n        /* \"#utility.yul\":11627:11630   */\n      dup3\n        /* \"#utility.yul\":11623:11637   */\n      add\n        /* \"#utility.yul\":11608:11637   */\n      swap1\n      pop\n        /* \"#utility.yul\":11474:11643   */\n      swap3\n      swap2\n      pop\n      pop\n      jump\t// out\n        /* \"#utility.yul\":11649:11954   */\n    tag_92:\n        /* \"#utility.yul\":11689:11692   */\n      0x00\n        /* \"#utility.yul\":11708:11728   */\n      tag_378\n        /* \"#utility.yul\":11726:11727   */\n      dup3\n        /* \"#utility.yul\":11708:11728   */\n      tag_335\n      jump\t// in\n    tag_378:\n        /* \"#utility.yul\":11703:11728   */\n      swap2\n      pop\n        /* \"#utility.yul\":11742:11762   */\n      tag_379\n        /* \"#utility.yul\":11760:11761   */\n      dup4\n        /* \"#utility.yul\":11742:11762   */\n      tag_335\n      jump\t// in\n    tag_379:\n        /* \"#utility.yul\":11737:11762   */\n      swap3\n      pop\n        /* \"#utility.yul\":11896:11897   */\n      dup3\n        /* \"#utility.yul\":11828:11894   */\n      0xffffffffffffffffffffffffffffffffffffffffffffffffffffffffffffffff\n        /* \"#utility.yul\":11824:11898   */\n      sub\n        /* \"#utility.yul\":11821:11822   */\n      dup3\n        /* \"#utility.yul\":11818:11899   */\n      gt\n        /* \"#utility.yul\":11815:11922   */\n      iszero\n      tag_380\n      jumpi\n        /* \"#utility.yul\":11902:11920   */\n      tag_381\n      tag_382\n      jump\t// in\n    tag_381:\n        /* \"#utility.yul\":11815:11922   */\n    tag_380:\n        /* \"#utility.yul\":11946:11947   */\n      dup3\n        /* \"#utility.yul\":11943:11944   */\n      dup3\n        /* \"#utility.yul\":11939:11948   */\n      add\n        /* \"#utility.yul\":11932:11948   */\n      swap1\n      pop\n        /* \"#utility.yul\":11649:11954   */\n      swap3\n      swap2\n      pop\n      pop\n      jump\t// out\n        /* \"#utility.yul\":11960:12151   */\n    tag_94:\n        /* \"#utility.yul\":12000:12004   */\n      0x00\n        /* \"#utility.yul\":12020:12040   */\n      tag_384\n        /* \"#utility.yul\":12038:12039   */\n      dup3\n        /* \"#utility.yul\":12020:12040   */\n      tag_335\n      jump\t// in\n    tag_384:\n        /* \"#utility.yul\":12015:12040   */\n      swap2\n      pop\n        /* \"#utility.yul\":12054:12074   */\n      tag_385\n        /* \"#utility.yul\":12072:12073   */\n      dup4\n        /* \"#utility.yul\":12054:12074   */\n      tag_335\n      jump\t// in\n    tag_385:\n        /* \"#utility.yul\":12049:12074   */\n      swap3\n      pop\n        /* \"#utility.yul\":12093:12094   */\n      dup3\n        /* \"#utility.yul\":12090:12091   */\n      dup3\n        /* \"#utility.yul\":12087:12095   */\n      lt\n        /* \"#utility.yul\":12084:12118   */\n      iszero\n      tag_386\n      jumpi\n        /* \"#utility.yul\":12098:12116   */\n      tag_387\n      tag_382\n      jump\t// in\n    tag_387:\n        /* \"#utility.yul\":12084:12118   */\n    tag_386:\n        /* \"#utility.yul\":12143:12144   */\n      dup3\n        /* \"#utility.yul\":12140:12141   */\n      dup3\n        /* \"#utility.yul\":12136:12145   */\n      sub\n        /* \"#utility.yul\":12128:12145   */\n      swap1\n      pop\n        /* \"#utility.yul\":11960:12151   */\n      swap3\n      swap2\n      pop\n      pop\n      jump\t// out\n        /* \"#utility.yul\":12157:12253   */\n    tag_388:\n        /* \"#utility.yul\":12194:12201   */\n      0x00\n        /* \"#utility.yul\":12223:12247   */\n      tag_390\n        /* \"#utility.yul\":12241:12246   */\n      dup3\n        /* \"#utility.yul\":12223:12247   */\n      tag_391\n      jump\t// in\n    tag_390:\n        /* \"#utility.yul\":12212:12247   */\n      swap1\n      pop\n        /* \"#utility.yul\":12157:12253   */\n      swap2\n      swap1\n      pop\n      jump\t// out\n        /* \"#utility.yul\":12259:12349   */\n    tag_264:\n        /* \"#utility.yul\":12293:12300   */\n      0x00\n        /* \"#utility.yul\":12336:12341   */\n      dup2\n        /* \"#utility.yul\":12329:12342   */\n      iszero\n        /* \"#utility.yul\":12322:12343   */\n      iszero\n        /* \"#utility.yul\":12311:12343   */\n      swap1\n      pop\n        /* \"#utility.yul\":12259:12349   */\n      swap2\n      swap1\n      pop\n      jump\t// out\n        /* \"#utility.yul\":12355:12432   */\n    tag_269:\n        /* \"#utility.yul\":12392:12399   */\n      0x00\n        /* \"#utility.yul\":12421:12426   */\n      dup2\n        /* \"#utility.yul\":12410:12426   */\n      swap1\n      pop\n        /* \"#utility.yul\":12355:12432   */\n      swap2\n      swap1\n      pop\n      jump\t// out\n        /* \"#utility.yul\":12438:12575   */\n    tag_394:\n        /* \"#utility.yul\":12488:12495   */\n      0x00\n        /* \"#utility.yul\":12517:12522   */\n      dup2\n        /* \"#utility.yul\":12506:12522   */\n      swap1\n      pop\n        /* \"#utility.yul\":12523:12569   */\n      tag_396\n        /* \"#utility.yul\":12563:12568   */\n      dup3\n        /* \"#utility.yul\":12523:12569   */\n      tag_397\n      jump\t// in\n    tag_396:\n        /* \"#utility.yul\":12438:12575   */\n      swap2\n      swap1\n      pop\n      jump\t// out\n        /* \"#utility.yul\":12581:12720   */\n    tag_398:\n        /* \"#utility.yul\":12632:12639   */\n      0x00\n        /* \"#utility.yul\":12661:12666   */\n      dup2\n        /* \"#utility.yul\":12650:12666   */\n      swap1\n      pop\n        /* \"#utility.yul\":12667:12714   */\n      tag_400\n        /* \"#utility.yul\":12708:12713   */\n      dup3\n        /* \"#utility.yul\":12667:12714   */\n      tag_401\n      jump\t// in\n    tag_400:\n        /* \"#utility.yul\":12581:12720   */\n      swap2\n      swap1\n      pop\n      jump\t// out\n        /* \"#utility.yul\":12726:12852   */\n    tag_391:\n        /* \"#utility.yul\":12763:12770   */\n      0x00\n        /* \"#utility.yul\":12803:12845   */\n      0xffffffffffffffffffffffffffffffffffffffff\n        /* \"#utility.yul\":12796:12801   */\n      dup3\n        /* \"#utility.yul\":12792:12846   */\n      and\n        /* \"#utility.yul\":12781:12846   */\n      swap1\n      pop\n        /* \"#utility.yul\":12726:12852   */\n      swap2\n      swap1\n      pop\n      jump\t// out\n        /* \"#utility.yul\":12858:12935   */\n    tag_335:\n        /* \"#utility.yul\":12895:12902   */\n      0x00\n        /* \"#utility.yul\":12924:12929   */\n      dup2\n        /* \"#utility.yul\":12913:12929   */\n      swap1\n      pop\n        /* \"#utility.yul\":12858:12935   */\n      swap2\n      swap1\n      pop\n      jump\t// out\n        /* \"#utility.yul\":12941:13078   */\n    tag_274:\n        /* \"#utility.yul\":13002:13011   */\n      0x00\n        /* \"#utility.yul\":13035:13072   */\n      tag_405\n        /* \"#utility.yul\":13066:13071   */\n      dup3\n        /* \"#utility.yul\":13035:13072   */\n      tag_394\n      jump\t// in\n    tag_405:\n        /* \"#utility.yul\":13022:13072   */\n      swap1\n      pop\n        /* \"#utility.yul\":12941:13078   */\n      swap2\n      swap1\n      pop\n      jump\t// out\n        /* \"#utility.yul\":13084:13223   */\n    tag_278:\n        /* \"#utility.yul\":13146:13155   */\n      0x00\n        /* \"#utility.yul\":13179:13217   */\n      tag_407\n        /* \"#utility.yul\":13211:13216   */\n      dup3\n        /* \"#utility.yul\":13179:13217   */\n      tag_398\n      jump\t// in\n    tag_407:\n        /* \"#utility.yul\":13166:13217   */\n      swap1\n      pop\n        /* \"#utility.yul\":13084:13223   */\n      swap2\n      swap1\n      pop\n      jump\t// out\n        /* \"#utility.yul\":13229:13350   */\n    tag_282:\n        /* \"#utility.yul\":13287:13296   */\n      0x00\n        /* \"#utility.yul\":13320:13344   */\n      tag_409\n        /* \"#utility.yul\":13338:13343   */\n      dup3\n        /* \"#utility.yul\":13320:13344   */\n      tag_335\n      jump\t// in\n    tag_409:\n        /* \"#utility.yul\":13307:13344   */\n      swap1\n      pop\n        /* \"#utility.yul\":13229:13350   */\n      swap2\n      swap1\n      pop\n      jump\t// out\n        /* \"#utility.yul\":13356:13477   */\n    tag_286:\n        /* \"#utility.yul\":13414:13423   */\n      0x00\n        /* \"#utility.yul\":13447:13471   */\n      tag_411\n        /* \"#utility.yul\":13465:13470   */\n      dup3\n        /* \"#utility.yul\":13447:13471   */\n      tag_335\n      jump\t// in\n    tag_411:\n        /* \"#utility.yul\":13434:13471   */\n      swap1\n      pop\n        /* \"#utility.yul\":13356:13477   */\n      swap2\n      swap1\n      pop\n      jump\t// out\n        /* \"#utility.yul\":13483:13604   */\n    tag_290:\n        /* \"#utility.yul\":13541:13550   */\n      0x00\n        /* \"#utility.yul\":13574:13598   */\n      tag_413\n        /* \"#utility.yul\":13592:13597   */\n      dup3\n        /* \"#utility.yul\":13574:13598   */\n      tag_335\n      jump\t// in\n    tag_413:\n        /* \"#utility.yul\":13561:13598   */\n      swap1\n      pop\n        /* \"#utility.yul\":13483:13604   */\n      swap2\n      swap1\n      pop\n      jump\t// out\n        /* \"#utility.yul\":13610:13689   */\n    tag_270:\n        /* \"#utility.yul\":13649:13656   */\n      0x00\n        /* \"#utility.yul\":13678:13683   */\n      dup2\n        /* \"#utility.yul\":13667:13683   */\n      swap1\n      pop\n        /* \"#utility.yul\":13610:13689   */\n      swap2\n      swap1\n      pop\n      jump\t// out\n        /* \"#utility.yul\":13695:13774   */\n    tag_340:\n        /* \"#utility.yul\":13734:13741   */\n      0x00\n        /* \"#utility.yul\":13763:13768   */\n      dup2\n        /* \"#utility.yul\":13752:13768   */\n      swap1\n      pop\n        /* \"#utility.yul\":13695:13774   */\n      swap2\n      swap1\n      pop\n      jump\t// out\n        /* \"#utility.yul\":13780:13956   */\n    tag_96:\n        /* \"#utility.yul\":13812:13813   */\n      0x00\n        /* \"#utility.yul\":13829:13849   */\n      tag_417\n        /* \"#utility.yul\":13847:13848   */\n      dup3\n        /* \"#utility.yul\":13829:13849   */\n      tag_335\n      jump\t// in\n    tag_417:\n        /* \"#utility.yul\":13824:13849   */\n      swap2\n      pop\n        /* \"#utility.yul\":13863:13883   */\n      tag_418\n        /* \"#utility.yul\":13881:13882   */\n      dup4\n        /* \"#utility.yul\":13863:13883   */\n      tag_335\n      jump\t// in\n    tag_418:\n        /* \"#utility.yul\":13858:13883   */\n      swap3\n      pop\n        /* \"#utility.yul\":13902:13903   */\n      dup3\n        /* \"#utility.yul\":13892:13927   */\n      tag_419\n      jumpi\n        /* \"#utility.yul\":13907:13925   */\n      tag_420\n      tag_421\n      jump\t// in\n    tag_420:\n        /* \"#utility.yul\":13892:13927   */\n    tag_419:\n        /* \"#utility.yul\":13948:13949   */\n      dup3\n        /* \"#utility.yul\":13945:13946   */\n      dup3\n        /* \"#utility.yul\":13941:13950   */\n      mod\n        /* \"#utility.yul\":13936:13950   */\n      swap1\n      pop\n        /* \"#utility.yul\":13780:13956   */\n      swap3\n      swap2\n      pop\n      pop\n      jump\t// out\n        /* \"#utility.yul\":13962:14142   */\n    tag_382:\n        /* \"#utility.yul\":14010:14087   */\n      0x4e487b7100000000000000000000000000000000000000000000000000000000\n        /* \"#utility.yul\":14007:14008   */\n      0x00\n        /* \"#utility.yul\":14000:14088   */\n      mstore\n        /* \"#utility.yul\":14107:14111   */\n      0x11\n        /* \"#utility.yul\":14104:14105   */\n      0x04\n        /* \"#utility.yul\":14097:14112   */\n      mstore\n        /* \"#utility.yul\":14131:14135   */\n      0x24\n        /* \"#utility.yul\":14128:14129   */\n      0x00\n        /* \"#utility.yul\":14121:14136   */\n      revert\n        /* \"#utility.yul\":14148:14328   */\n    tag_421:\n        /* \"#utility.yul\":14196:14273   */\n      0x4e487b7100000000000000000000000000000000000000000000000000000000\n        /* \"#utility.yul\":14193:14194   */\n      0x00\n        /* \"#utility.yul\":14186:14274   */\n      mstore\n        /* \"#utility.yul\":14293:14297   */\n      0x12\n        /* \"#utility.yul\":14290:14291   */\n      0x04\n        /* \"#utility.yul\":14283:14298   */\n      mstore\n        /* \"#utility.yul\":14317:14321   */\n      0x24\n        /* \"#utility.yul\":14314:14315   */\n      0x00\n        /* \"#utility.yul\":14307:14322   */\n      revert\n        /* \"#utility.yul\":14334:14514   */\n    tag_77:\n        /* \"#utility.yul\":14382:14459   */\n      0x4e487b7100000000000000000000000000000000000000000000000000000000\n        /* \"#utility.yul\":14379:14380   */\n      0x00\n        /* \"#utility.yul\":14372:14460   */\n      mstore\n        /* \"#utility.yul\":14479:14483   */\n      0x21\n        /* \"#utility.yul\":14476:14477   */\n      0x04\n        /* \"#utility.yul\":14469:14484   */\n      mstore\n        /* \"#utility.yul\":14503:14507   */\n      0x24\n        /* \"#utility.yul\":14500:14501   */\n      0x00\n        /* \"#utility.yul\":14493:14508   */\n      revert\n        /* \"#utility.yul\":14643:14760   */\n    tag_250:\n        /* \"#utility.yul\":14752:14753   */\n      0x00\n        /* \"#utility.yul\":14749:14750   */\n      dup1\n        /* \"#utility.yul\":14742:14754   */\n      revert\n        /* \"#utility.yul\":14766:14938   */\n    tag_296:\n        /* \"#utility.yul\":14906:14930   */\n      0x50726f626c656d20776974682061646472657373657300000000000000000000\n        /* \"#utility.yul\":14902:14903   */\n      0x00\n        /* \"#utility.yul\":14894:14900   */\n      dup3\n        /* \"#utility.yul\":14890:14904   */\n      add\n        /* \"#utility.yul\":14883:14931   */\n      mstore\n        /* \"#utility.yul\":14766:14938   */\n      pop\n      jump\t// out\n        /* \"#utility.yul\":14944:15119   */\n    tag_301:\n        /* \"#utility.yul\":15084:15111   */\n      0x4e6f74207265676973746572656420706c617965722079657400000000000000\n        /* \"#utility.yul\":15080:15081   */\n      0x00\n        /* \"#utility.yul\":15072:15078   */\n      dup3\n        /* \"#utility.yul\":15068:15082   */\n      add\n        /* \"#utility.yul\":15061:15112   */\n      mstore\n        /* \"#utility.yul\":14944:15119   */\n      pop\n      jump\t// out\n        /* \"#utility.yul\":15125:15346   */\n    tag_306:\n        /* \"#utility.yul\":15265:15299   */\n      0x5468697320706c617965722068617320616c7265616479207265676973746572\n        /* \"#utility.yul\":15261:15262   */\n      0x00\n        /* \"#utility.yul\":15253:15259   */\n      dup3\n        /* \"#utility.yul\":15249:15263   */\n      add\n        /* \"#utility.yul\":15242:15300   */\n      mstore\n        /* \"#utility.yul\":15334:15338   */\n      0x6564000000000000000000000000000000000000000000000000000000000000\n        /* \"#utility.yul\":15329:15331   */\n      0x20\n        /* \"#utility.yul\":15321:15327   */\n      dup3\n        /* \"#utility.yul\":15317:15332   */\n      add\n        /* \"#utility.yul\":15310:15339   */\n      mstore\n        /* \"#utility.yul\":15125:15346   */\n      pop\n      jump\t// out\n        /* \"#utility.yul\":15352:15518   */\n    tag_311:\n        /* \"#utility.yul\":15492:15510   */\n      0x496e636f72726563742063686f69636500000000000000000000000000000000\n        /* \"#utility.yul\":15488:15489   */\n      0x00\n        /* \"#utility.yul\":15480:15486   */\n      dup3\n        /* \"#utility.yul\":15476:15490   */\n      add\n        /* \"#utility.yul\":15469:15511   */\n      mstore\n        /* \"#utility.yul\":15352:15518   */\n      pop\n      jump\t// out\n        /* \"#utility.yul\":15524:15700   */\n    tag_316:\n        /* \"#utility.yul\":15664:15692   */\n      0x47616d65206861736820776173206e6f742070726f7669646564000000000000\n        /* \"#utility.yul\":15660:15661   */\n      0x00\n        /* \"#utility.yul\":15652:15658   */\n      dup3\n        /* \"#utility.yul\":15648:15662   */\n      add\n        /* \"#utility.yul\":15641:15693   */\n      mstore\n        /* \"#utility.yul\":15524:15700   */\n      pop\n      jump\t// out\n        /* \"#utility.yul\":15706:15873   */\n    tag_321:\n        /* \"#utility.yul\":15846:15865   */\n      0x70726f626c656d20776974682073616c74000000000000000000000000000000\n        /* \"#utility.yul\":15842:15843   */\n      0x00\n        /* \"#utility.yul\":15834:15840   */\n      dup3\n        /* \"#utility.yul\":15830:15844   */\n      add\n        /* \"#utility.yul\":15823:15866   */\n      mstore\n        /* \"#utility.yul\":15706:15873   */\n      pop\n      jump\t// out\n        /* \"#utility.yul\":15879:16100   */\n    tag_326:\n        /* \"#utility.yul\":16019:16053   */\n      0x426574206973206c6f776572207468616e20706f737369626c65206d696e696d\n        /* \"#utility.yul\":16015:16016   */\n      0x00\n        /* \"#utility.yul\":16007:16013   */\n      dup3\n        /* \"#utility.yul\":16003:16017   */\n      add\n        /* \"#utility.yul\":15996:16054   */\n      mstore\n        /* \"#utility.yul\":16088:16092   */\n      0x756d000000000000000000000000000000000000000000000000000000000000\n        /* \"#utility.yul\":16083:16085   */\n      0x20\n        /* \"#utility.yul\":16075:16081   */\n      dup3\n        /* \"#utility.yul\":16071:16086   */\n      add\n        /* \"#utility.yul\":16064:16093   */\n      mstore\n        /* \"#utility.yul\":15879:16100   */\n      pop\n      jump\t// out\n        /* \"#utility.yul\":16106:16278   */\n    tag_331:\n        /* \"#utility.yul\":16246:16270   */\n      0x50726f626c656d207769746820746865207374616b6500000000000000000000\n        /* \"#utility.yul\":16242:16243   */\n      0x00\n        /* \"#utility.yul\":16234:16240   */\n      dup3\n        /* \"#utility.yul\":16230:16244   */\n      add\n        /* \"#utility.yul\":16223:16271   */\n      mstore\n        /* \"#utility.yul\":16106:16278   */\n      pop\n      jump\t// out\n        /* \"#utility.yul\":16284:16402   */\n    tag_397:\n        /* \"#utility.yul\":16370:16371   */\n      0x04\n        /* \"#utility.yul\":16363:16368   */\n      dup2\n        /* \"#utility.yul\":16360:16372   */\n      lt\n        /* \"#utility.yul\":16350:16396   */\n      tag_437\n      jumpi\n        /* \"#utility.yul\":16376:16394   */\n      tag_438\n      tag_77\n      jump\t// in\n    tag_438:\n        /* \"#utility.yul\":16350:16396   */\n    tag_437:\n        /* \"#utility.yul\":16284:16402   */\n      pop\n      jump\t// out\n        /* \"#utility.yul\":16408:16527   */\n    tag_401:\n        /* \"#utility.yul\":16495:16496   */\n      0x03\n        /* \"#utility.yul\":16488:16493   */\n      dup2\n        /* \"#utility.yul\":16485:16497   */\n      lt\n        /* \"#utility.yul\":16475:16521   */\n      tag_440\n      jumpi\n        /* \"#utility.yul\":16501:16519   */\n      tag_441\n      tag_77\n      jump\t// in\n    tag_441:\n        /* \"#utility.yul\":16475:16521   */\n    tag_440:\n        /* \"#utility.yul\":16408:16527   */\n      pop\n      jump\t// out\n        /* \"#utility.yul\":16533:16655   */\n    tag_238:\n        /* \"#utility.yul\":16606:16630   */\n      tag_443\n        /* \"#utility.yul\":16624:16629   */\n      dup2\n        /* \"#utility.yul\":16606:16630   */\n      tag_388\n      jump\t// in\n    tag_443:\n        /* \"#utility.yul\":16599:16604   */\n      dup2\n        /* \"#utility.yul\":16596:16631   */\n      eq\n        /* \"#utility.yul\":16586:16649   */\n      tag_444\n      jumpi\n        /* \"#utility.yul\":16645:16646   */\n      0x00\n        /* \"#utility.yul\":16642:16643   */\n      dup1\n        /* \"#utility.yul\":16635:16647   */\n      revert\n        /* \"#utility.yul\":16586:16649   */\n    tag_444:\n        /* \"#utility.yul\":16533:16655   */\n      pop\n      jump\t// out\n        /* \"#utility.yul\":16661:16783   */\n    tag_242:\n        /* \"#utility.yul\":16734:16758   */\n      tag_446\n        /* \"#utility.yul\":16752:16757   */\n      dup2\n        /* \"#utility.yul\":16734:16758   */\n      tag_269\n      jump\t// in\n    tag_446:\n        /* \"#utility.yul\":16727:16732   */\n      dup2\n        /* \"#utility.yul\":16724:16759   */\n      eq\n        /* \"#utility.yul\":16714:16777   */\n      tag_447\n      jumpi\n        /* \"#utility.yul\":16773:16774   */\n      0x00\n        /* \"#utility.yul\":16770:16771   */\n      dup1\n        /* \"#utility.yul\":16763:16775   */\n      revert\n        /* \"#utility.yul\":16714:16777   */\n    tag_447:\n        /* \"#utility.yul\":16661:16783   */\n      pop\n      jump\t// out\n        /* \"#utility.yul\":16789:16911   */\n    tag_246:\n        /* \"#utility.yul\":16862:16886   */\n      tag_449\n        /* \"#utility.yul\":16880:16885   */\n      dup2\n        /* \"#utility.yul\":16862:16886   */\n      tag_335\n      jump\t// in\n    tag_449:\n        /* \"#utility.yul\":16855:16860   */\n      dup2\n        /* \"#utility.yul\":16852:16887   */\n      eq\n        /* \"#utility.yul\":16842:16905   */\n      tag_450\n      jumpi\n        /* \"#utility.yul\":16901:16902   */\n      0x00\n        /* \"#utility.yul\":16898:16899   */\n      dup1\n        /* \"#utility.yul\":16891:16903   */\n      revert\n        /* \"#utility.yul\":16842:16905   */\n    tag_450:\n        /* \"#utility.yul\":16789:16911   */\n      pop\n      jump\t// out\n\n    auxdata: 0xa2646970667358221220d03923fe5c2ef019e8f2b6e6ba757c0b56274e9698293fa022dda866a06fdcef64736f6c63430008070033\n}\n",
				"bytecode": {
					"linkReferences": {},
					"object": "608060405234801561001057600080fd5b50611d53806100206000396000f3fe6080604052600436106100a75760003560e01c80636f9fb98a116100645780636f9fb98a146101b35780638c10bb96146101de57806392c904801461021b578063a9ea37b614610246578063c3c5a54714610283578063e711a812146102c0576100a7565b806311b0af15146100ac57806315b80df8146100d7578063207377961461011457806327793f87146101325780633a4b66f11461015d57806343445ca814610188575b600080fd5b3480156100b857600080fd5b506100c16102fd565b6040516100ce9190611751565b60405180910390f35b3480156100e357600080fd5b506100fe60048036038101906100f991906114a6565b61069f565b60405161010b919061171b565b60405180910390f35b61011c610771565b60405161012991906118bd565b60405180910390f35b34801561013e57600080fd5b50610147610ae9565b6040516101549190611751565b60405180910390f35b34801561016957600080fd5b50610172610afc565b60405161017f91906118bd565b60405180910390f35b34801561019457600080fd5b5061019d610b02565b6040516101aa919061171b565b60405180910390f35b3480156101bf57600080fd5b506101c8610b80565b6040516101d591906118bd565b60405180910390f35b3480156101ea57600080fd5b5061020560048036038101906102009190611500565b610b88565b6040516102129190611736565b60405180910390f35b34801561022757600080fd5b50610230610f9e565b60405161023d919061171b565b60405180910390f35b34801561025257600080fd5b5061026d600480360381019061026891906114d3565b610fbf565b60405161027a919061171b565b60405180910390f35b34801561028f57600080fd5b506102aa60048036038101906102a591906114a6565b611254565b6040516102b7919061171b565b60405180910390f35b3480156102cc57600080fd5b506102e760048036038101906102e291906114a6565b611304565b6040516102f4919061171b565b60405180910390f35b600080600381111561031257610311611ae8565b5b600360019054906101000a900460ff16600381111561033457610333611ae8565b5b1415801561037657506000600381111561035157610350611ae8565b5b600360029054906101000a900460ff16600381111561037357610372611ae8565b5b14155b61037f57600080fd5b60038060029054906101000a900460ff1660038111156103a2576103a1611ae8565b5b600360019054906101000a900460ff1660038111156103c4576103c3611ae8565b5b60036103d091906118e9565b6103da919061193f565b6103e49190611a59565b60028111156103f6576103f5611ae8565b5b600360006101000a81548160ff0219169083600281111561041a57610419611ae8565b5b02179055506001600281111561043357610432611ae8565b5b600360009054906101000a900460ff16600281111561045557610454611ae8565b5b14156104c75760008054906101000a900473ffffffffffffffffffffffffffffffffffffffff1673ffffffffffffffffffffffffffffffffffffffff166108fc479081150290604051600060405180830381858888f193505050501580156104c1573d6000803e3d6000fd5b50610644565b6002808111156104da576104d9611ae8565b5b600360009054906101000a900460ff1660028111156104fc576104fb611ae8565b5b141561057057600160009054906101000a900473ffffffffffffffffffffffffffffffffffffffff1673ffffffffffffffffffffffffffffffffffffffff166108fc479081150290604051600060405180830381858888f1935050505015801561056a573d6000803e3d6000fd5b50610643565b60008054906101000a900473ffffffffffffffffffffffffffffffffffffffff1673ffffffffffffffffffffffffffffffffffffffff166108fc6002549081150290604051600060405180830381858888f193505050501580156105d8573d6000803e3d6000fd5b50600160009054906101000a900473ffffffffffffffffffffffffffffffffffffffff1673ffffffffffffffffffffffffffffffffffffffff166108fc479081150290604051600060405180830381858888f19350505050158015610641573d6000803e3d6000fd5b505b5b7f6d1a16000380c9adde391bcb46a92c2ce8c46811cff002ed5dec38dfdc2373cd600360009054906101000a900460ff166040516106829190611751565b60405180910390a1600360009054906101000a900460ff16905090565b60008173ffffffffffffffffffffffffffffffffffffffff1660008054906101000a900473ffffffffffffffffffffffffffffffffffffffff1673ffffffffffffffffffffffffffffffffffffffff1614801561070157506000801b60045414155b8061076a57508173ffffffffffffffffffffffffffffffffffffffff16600160009054906101000a900473ffffffffffffffffffffffffffffffffffffffff1673ffffffffffffffffffffffffffffffffffffffff1614801561076957506000801b60055414155b5b9050919050565b60006103e83410156107b8576040517f08c379a00000000000000000000000000000000000000000000000000000000081526004016107af9061187d565b60405180910390fd5b600060025414806107cb57506002543410155b61080a576040517f08c379a00000000000000000000000000000000000000000000000000000000081526004016108019061189d565b60405180910390fd5b60008054906101000a900473ffffffffffffffffffffffffffffffffffffffff1673ffffffffffffffffffffffffffffffffffffffff163373ffffffffffffffffffffffffffffffffffffffff16141580156108b45750600160009054906101000a900473ffffffffffffffffffffffffffffffffffffffff1673ffffffffffffffffffffffffffffffffffffffff163373ffffffffffffffffffffffffffffffffffffffff1614155b6108f3576040517f08c379a00000000000000000000000000000000000000000000000000000000081526004016108ea906117fd565b60405180910390fd5b600073ffffffffffffffffffffffffffffffffffffffff1660008054906101000a900473ffffffffffffffffffffffffffffffffffffffff1673ffffffffffffffffffffffffffffffffffffffff1614156109d057336000806101000a81548173ffffffffffffffffffffffffffffffffffffffff021916908373ffffffffffffffffffffffffffffffffffffffff160217905550346002819055507f982cddadd143916f714d5e4cdb1fdbf71a3a44c802807791f444525464ad42ad60016040516109bf9190611787565b60405180910390a160019050610ae6565b600073ffffffffffffffffffffffffffffffffffffffff16600160009054906101000a900473ffffffffffffffffffffffffffffffffffffffff1673ffffffffffffffffffffffffffffffffffffffff161415610aa95733600160006101000a81548173ffffffffffffffffffffffffffffffffffffffff021916908373ffffffffffffffffffffffffffffffffffffffff1602179055507f982cddadd143916f714d5e4cdb1fdbf71a3a44c802807791f444525464ad42ad6002604051610a9891906117a2565b60405180910390a160029050610ae6565b7f982cddadd143916f714d5e4cdb1fdbf71a3a44c802807791f444525464ad42ad6000604051610ad9919061176c565b60405180910390a1600090505b90565b600360009054906101000a900460ff1681565b60025481565b6000806003811115610b1757610b16611ae8565b5b600360019054906101000a900460ff166003811115610b3957610b38611ae8565b5b14158015610b7b575060006003811115610b5657610b55611ae8565b5b600360029054906101000a900460ff166003811115610b7857610b77611ae8565b5b14155b905090565b600047905090565b60008060009054906101000a900473ffffffffffffffffffffffffffffffffffffffff1673ffffffffffffffffffffffffffffffffffffffff163373ffffffffffffffffffffffffffffffffffffffff161480610c325750600160009054906101000a900473ffffffffffffffffffffffffffffffffffffffff1673ffffffffffffffffffffffffffffffffffffffff163373ffffffffffffffffffffffffffffffffffffffff16145b610c71576040517f08c379a0000000000000000000000000000000000000000000000000000000008152600401610c68906117dd565b60405180910390fd5b8260018110158015610c84575060038111155b610cc3576040517f08c379a0000000000000000000000000000000000000000000000000000000008152600401610cba9061181d565b60405180910390fd5b6000801b60045414158015610cdd57506000801b60055414155b610ce657600080fd5b3373ffffffffffffffffffffffffffffffffffffffff1660008054906101000a900473ffffffffffffffffffffffffffffffffffffffff1673ffffffffffffffffffffffffffffffffffffffff161415610e2057610d448484611434565b60045414610d87576040517f08c379a0000000000000000000000000000000000000000000000000000000008152600401610d7e9061185d565b60405180910390fd5b836003811115610d9a57610d99611ae8565b5b600360016101000a81548160ff02191690836003811115610dbe57610dbd611ae8565b5b02179055507f47c7acbd4d57f5dbc1f9e9d1f9e0899016b547afbad29e7a416a892b44898e97600360019054906101000a900460ff16604051610e019190611736565b60405180910390a1600360019054906101000a900460ff169150610f97565b3373ffffffffffffffffffffffffffffffffffffffff16600160009054906101000a900473ffffffffffffffffffffffffffffffffffffffff1673ffffffffffffffffffffffffffffffffffffffff161415610f5c57610e808484611434565b60055414610ec3576040517f08c379a0000000000000000000000000000000000000000000000000000000008152600401610eba9061185d565b60405180910390fd5b836003811115610ed657610ed5611ae8565b5b600360026101000a81548160ff02191690836003811115610efa57610ef9611ae8565b5b02179055507f47c7acbd4d57f5dbc1f9e9d1f9e0899016b547afbad29e7a416a892b44898e97600360029054906101000a900460ff16604051610f3d9190611736565b60405180910390a1600360029054906101000a900460ff169150610f97565b6040517f08c379a0000000000000000000000000000000000000000000000000000000008152600401610f8e906117bd565b60405180910390fd5b5092915050565b60008060001b60045414158015610fba57506000801b60055414155b905090565b60008060009054906101000a900473ffffffffffffffffffffffffffffffffffffffff1673ffffffffffffffffffffffffffffffffffffffff163373ffffffffffffffffffffffffffffffffffffffff1614806110695750600160009054906101000a900473ffffffffffffffffffffffffffffffffffffffff1673ffffffffffffffffffffffffffffffffffffffff163373ffffffffffffffffffffffffffffffffffffffff16145b6110a8576040517f08c379a000000000000000000000000000000000000000000000000000000000815260040161109f906117dd565b60405180910390fd5b8160008114156110ed576040517f08c379a00000000000000000000000000000000000000000000000000000000081526004016110e49061183d565b60405180910390fd5b60008054906101000a900473ffffffffffffffffffffffffffffffffffffffff1673ffffffffffffffffffffffffffffffffffffffff163373ffffffffffffffffffffffffffffffffffffffff1614801561114c57506000801b600454145b1561115d5782600481905550611211565b600160009054906101000a900473ffffffffffffffffffffffffffffffffffffffff1673ffffffffffffffffffffffffffffffffffffffff163373ffffffffffffffffffffffffffffffffffffffff161480156111be57506000801b600554145b156111cf5782600581905550611210565b7fd0e0eee22af482d2b75b0facf637b601c155f06c6f143b473711527a01110f8460006040516111ff919061171b565b60405180910390a16000915061124e565b5b7fd0e0eee22af482d2b75b0facf637b601c155f06c6f143b473711527a01110f846001604051611241919061171b565b60405180910390a1600191505b50919050565b60008173ffffffffffffffffffffffffffffffffffffffff1660008054906101000a900473ffffffffffffffffffffffffffffffffffffffff1673ffffffffffffffffffffffffffffffffffffffff1614806112fd57508173ffffffffffffffffffffffffffffffffffffffff16600160009054906101000a900473ffffffffffffffffffffffffffffffffffffffff1673ffffffffffffffffffffffffffffffffffffffff16145b9050919050565b60008173ffffffffffffffffffffffffffffffffffffffff1660008054906101000a900473ffffffffffffffffffffffffffffffffffffffff1673ffffffffffffffffffffffffffffffffffffffff161480156113955750600060038111156113705761136f611ae8565b5b600360019054906101000a900460ff16600381111561139257611391611ae8565b5b14155b8061142d57508173ffffffffffffffffffffffffffffffffffffffff16600160009054906101000a900473ffffffffffffffffffffffffffffffffffffffff1673ffffffffffffffffffffffffffffffffffffffff1614801561142c57506000600381111561140757611406611ae8565b5b600360029054906101000a900460ff16600381111561142957611428611ae8565b5b14155b5b9050919050565b600082826040516020016114499291906116ef565b60405160208183030381529060405280519060200120905092915050565b60008135905061147681611cd8565b92915050565b60008135905061148b81611cef565b92915050565b6000813590506114a081611d06565b92915050565b6000602082840312156114bc576114bb611b17565b5b60006114ca84828501611467565b91505092915050565b6000602082840312156114e9576114e8611b17565b5b60006114f78482850161147c565b91505092915050565b6000806040838503121561151757611516611b17565b5b600061152585828601611491565b92505060206115368582860161147c565b9150509250929050565b61154981611985565b82525050565b61156061155b82611991565b611a45565b82525050565b61156f816119eb565b82525050565b61157e816119fd565b82525050565b61158d81611a0f565b82525050565b61159c81611a21565b82525050565b6115ab81611a33565b82525050565b60006115be6016836118d8565b91506115c982611b1c565b602082019050919050565b60006115e16019836118d8565b91506115ec82611b45565b602082019050919050565b60006116046022836118d8565b915061160f82611b6e565b604082019050919050565b60006116276010836118d8565b915061163282611bbd565b602082019050919050565b600061164a601a836118d8565b915061165582611be6565b602082019050919050565b600061166d6011836118d8565b915061167882611c0f565b602082019050919050565b60006116906022836118d8565b915061169b82611c38565b604082019050919050565b60006116b36016836118d8565b91506116be82611c87565b602082019050919050565b6116d2816119e1565b82525050565b6116e96116e4826119e1565b611a4f565b82525050565b60006116fb82856116d8565b60208201915061170b828461154f565b6020820191508190509392505050565b60006020820190506117306000830184611540565b92915050565b600060208201905061174b6000830184611566565b92915050565b60006020820190506117666000830184611575565b92915050565b60006020820190506117816000830184611584565b92915050565b600060208201905061179c6000830184611593565b92915050565b60006020820190506117b760008301846115a2565b92915050565b600060208201905081810360008301526117d6816115b1565b9050919050565b600060208201905081810360008301526117f6816115d4565b9050919050565b60006020820190508181036000830152611816816115f7565b9050919050565b600060208201905081810360008301526118368161161a565b9050919050565b600060208201905081810360008301526118568161163d565b9050919050565b6000602082019050818103600083015261187681611660565b9050919050565b6000602082019050818103600083015261189681611683565b9050919050565b600060208201905081810360008301526118b6816116a6565b9050919050565b60006020820190506118d260008301846116c9565b92915050565b600082825260208201905092915050565b60006118f4826119e1565b91506118ff836119e1565b9250827fffffffffffffffffffffffffffffffffffffffffffffffffffffffffffffffff0382111561193457611933611a8a565b5b828201905092915050565b600061194a826119e1565b9150611955836119e1565b92508282101561196857611967611a8a565b5b828203905092915050565b600061197e826119c1565b9050919050565b60008115159050919050565b6000819050919050565b60008190506119a982611cb0565b919050565b60008190506119bc82611cc4565b919050565b600073ffffffffffffffffffffffffffffffffffffffff82169050919050565b6000819050919050565b60006119f68261199b565b9050919050565b6000611a08826119ae565b9050919050565b6000611a1a826119e1565b9050919050565b6000611a2c826119e1565b9050919050565b6000611a3e826119e1565b9050919050565b6000819050919050565b6000819050919050565b6000611a64826119e1565b9150611a6f836119e1565b925082611a7f57611a7e611ab9565b5b828206905092915050565b7f4e487b7100000000000000000000000000000000000000000000000000000000600052601160045260246000fd5b7f4e487b7100000000000000000000000000000000000000000000000000000000600052601260045260246000fd5b7f4e487b7100000000000000000000000000000000000000000000000000000000600052602160045260246000fd5b600080fd5b7f50726f626c656d20776974682061646472657373657300000000000000000000600082015250565b7f4e6f74207265676973746572656420706c617965722079657400000000000000600082015250565b7f5468697320706c617965722068617320616c726561647920726567697374657260008201527f6564000000000000000000000000000000000000000000000000000000000000602082015250565b7f496e636f72726563742063686f69636500000000000000000000000000000000600082015250565b7f47616d65206861736820776173206e6f742070726f7669646564000000000000600082015250565b7f70726f626c656d20776974682073616c74000000000000000000000000000000600082015250565b7f426574206973206c6f776572207468616e20706f737369626c65206d696e696d60008201527f756d000000000000000000000000000000000000000000000000000000000000602082015250565b7f50726f626c656d207769746820746865207374616b6500000000000000000000600082015250565b60048110611cc157611cc0611ae8565b5b50565b60038110611cd557611cd4611ae8565b5b50565b611ce181611973565b8114611cec57600080fd5b50565b611cf881611991565b8114611d0357600080fd5b50565b611d0f816119e1565b8114611d1a57600080fd5b5056fea2646970667358221220d03923fe5c2ef019e8f2b6e6ba757c0b56274e9698293fa022dda866a06fdcef64736f6c63430008070033",
					"opcodes": "PUSH1 0x80 PUSH1 0x40 MSTORE CALLVALUE DUP1 ISZERO PUSH2 0x10 JUMPI PUSH1 0x0 DUP1 REVERT JUMPDEST POP PUSH2 0x1D53 DUP1 PUSH2 0x20 PUSH1 0x0 CODECOPY PUSH1 0x0 RETURN INVALID PUSH1 0x80 PUSH1 0x40 MSTORE PUSH1 0x4 CALLDATASIZE LT PUSH2 0xA7 JUMPI PUSH1 0x0 CALLDATALOAD PUSH1 0xE0 SHR DUP1 PUSH4 0x6F9FB98A GT PUSH2 0x64 JUMPI DUP1 PUSH4 0x6F9FB98A EQ PUSH2 0x1B3 JUMPI DUP1 PUSH4 0x8C10BB96 EQ PUSH2 0x1DE JUMPI DUP1 PUSH4 0x92C90480 EQ PUSH2 0x21B JUMPI DUP1 PUSH4 0xA9EA37B6 EQ PUSH2 0x246 JUMPI DUP1 PUSH4 0xC3C5A547 EQ PUSH2 0x283 JUMPI DUP1 PUSH4 0xE711A812 EQ PUSH2 0x2C0 JUMPI PUSH2 0xA7 JUMP JUMPDEST DUP1 PUSH4 0x11B0AF15 EQ PUSH2 0xAC JUMPI DUP1 PUSH4 0x15B80DF8 EQ PUSH2 0xD7 JUMPI DUP1 PUSH4 0x20737796 EQ PUSH2 0x114 JUMPI DUP1 PUSH4 0x27793F87 EQ PUSH2 0x132 JUMPI DUP1 PUSH4 0x3A4B66F1 EQ PUSH2 0x15D JUMPI DUP1 PUSH4 0x43445CA8 EQ PUSH2 0x188 JUMPI JUMPDEST PUSH1 0x0 DUP1 REVERT JUMPDEST CALLVALUE DUP1 ISZERO PUSH2 0xB8 JUMPI PUSH1 0x0 DUP1 REVERT JUMPDEST POP PUSH2 0xC1 PUSH2 0x2FD JUMP JUMPDEST PUSH1 0x40 MLOAD PUSH2 0xCE SWAP2 SWAP1 PUSH2 0x1751 JUMP JUMPDEST PUSH1 0x40 MLOAD DUP1 SWAP2 SUB SWAP1 RETURN JUMPDEST CALLVALUE DUP1 ISZERO PUSH2 0xE3 JUMPI PUSH1 0x0 DUP1 REVERT JUMPDEST POP PUSH2 0xFE PUSH1 0x4 DUP1 CALLDATASIZE SUB DUP2 ADD SWAP1 PUSH2 0xF9 SWAP2 SWAP1 PUSH2 0x14A6 JUMP JUMPDEST PUSH2 0x69F JUMP JUMPDEST PUSH1 0x40 MLOAD PUSH2 0x10B SWAP2 SWAP1 PUSH2 0x171B JUMP JUMPDEST PUSH1 0x40 MLOAD DUP1 SWAP2 SUB SWAP1 RETURN JUMPDEST PUSH2 0x11C PUSH2 0x771 JUMP JUMPDEST PUSH1 0x40 MLOAD PUSH2 0x129 SWAP2 SWAP1 PUSH2 0x18BD JUMP JUMPDEST PUSH1 0x40 MLOAD DUP1 SWAP2 SUB SWAP1 RETURN JUMPDEST CALLVALUE DUP1 ISZERO PUSH2 0x13E JUMPI PUSH1 0x0 DUP1 REVERT JUMPDEST POP PUSH2 0x147 PUSH2 0xAE9 JUMP JUMPDEST PUSH1 0x40 MLOAD PUSH2 0x154 SWAP2 SWAP1 PUSH2 0x1751 JUMP JUMPDEST PUSH1 0x40 MLOAD DUP1 SWAP2 SUB SWAP1 RETURN JUMPDEST CALLVALUE DUP1 ISZERO PUSH2 0x169 JUMPI PUSH1 0x0 DUP1 REVERT JUMPDEST POP PUSH2 0x172 PUSH2 0xAFC JUMP JUMPDEST PUSH1 0x40 MLOAD PUSH2 0x17F SWAP2 SWAP1 PUSH2 0x18BD JUMP JUMPDEST PUSH1 0x40 MLOAD DUP1 SWAP2 SUB SWAP1 RETURN JUMPDEST CALLVALUE DUP1 ISZERO PUSH2 0x194 JUMPI PUSH1 0x0 DUP1 REVERT JUMPDEST POP PUSH2 0x19D PUSH2 0xB02 JUMP JUMPDEST PUSH1 0x40 MLOAD PUSH2 0x1AA SWAP2 SWAP1 PUSH2 0x171B JUMP JUMPDEST PUSH1 0x40 MLOAD DUP1 SWAP2 SUB SWAP1 RETURN JUMPDEST CALLVALUE DUP1 ISZERO PUSH2 0x1BF JUMPI PUSH1 0x0 DUP1 REVERT JUMPDEST POP PUSH2 0x1C8 PUSH2 0xB80 JUMP JUMPDEST PUSH1 0x40 MLOAD PUSH2 0x1D5 SWAP2 SWAP1 PUSH2 0x18BD JUMP JUMPDEST PUSH1 0x40 MLOAD DUP1 SWAP2 SUB SWAP1 RETURN JUMPDEST CALLVALUE DUP1 ISZERO PUSH2 0x1EA JUMPI PUSH1 0x0 DUP1 REVERT JUMPDEST POP PUSH2 0x205 PUSH1 0x4 DUP1 CALLDATASIZE SUB DUP2 ADD SWAP1 PUSH2 0x200 SWAP2 SWAP1 PUSH2 0x1500 JUMP JUMPDEST PUSH2 0xB88 JUMP JUMPDEST PUSH1 0x40 MLOAD PUSH2 0x212 SWAP2 SWAP1 PUSH2 0x1736 JUMP JUMPDEST PUSH1 0x40 MLOAD DUP1 SWAP2 SUB SWAP1 RETURN JUMPDEST CALLVALUE DUP1 ISZERO PUSH2 0x227 JUMPI PUSH1 0x0 DUP1 REVERT JUMPDEST POP PUSH2 0x230 PUSH2 0xF9E JUMP JUMPDEST PUSH1 0x40 MLOAD PUSH2 0x23D SWAP2 SWAP1 PUSH2 0x171B JUMP JUMPDEST PUSH1 0x40 MLOAD DUP1 SWAP2 SUB SWAP1 RETURN JUMPDEST CALLVALUE DUP1 ISZERO PUSH2 0x252 JUMPI PUSH1 0x0 DUP1 REVERT JUMPDEST POP PUSH2 0x26D PUSH1 0x4 DUP1 CALLDATASIZE SUB DUP2 ADD SWAP1 PUSH2 0x268 SWAP2 SWAP1 PUSH2 0x14D3 JUMP JUMPDEST PUSH2 0xFBF JUMP JUMPDEST PUSH1 0x40 MLOAD PUSH2 0x27A SWAP2 SWAP1 PUSH2 0x171B JUMP JUMPDEST PUSH1 0x40 MLOAD DUP1 SWAP2 SUB SWAP1 RETURN JUMPDEST CALLVALUE DUP1 ISZERO PUSH2 0x28F JUMPI PUSH1 0x0 DUP1 REVERT JUMPDEST POP PUSH2 0x2AA PUSH1 0x4 DUP1 CALLDATASIZE SUB DUP2 ADD SWAP1 PUSH2 0x2A5 SWAP2 SWAP1 PUSH2 0x14A6 JUMP JUMPDEST PUSH2 0x1254 JUMP JUMPDEST PUSH1 0x40 MLOAD PUSH2 0x2B7 SWAP2 SWAP1 PUSH2 0x171B JUMP JUMPDEST PUSH1 0x40 MLOAD DUP1 SWAP2 SUB SWAP1 RETURN JUMPDEST CALLVALUE DUP1 ISZERO PUSH2 0x2CC JUMPI PUSH1 0x0 DUP1 REVERT JUMPDEST POP PUSH2 0x2E7 PUSH1 0x4 DUP1 CALLDATASIZE SUB DUP2 ADD SWAP1 PUSH2 0x2E2 SWAP2 SWAP1 PUSH2 0x14A6 JUMP JUMPDEST PUSH2 0x1304 JUMP JUMPDEST PUSH1 0x40 MLOAD PUSH2 0x2F4 SWAP2 SWAP1 PUSH2 0x171B JUMP JUMPDEST PUSH1 0x40 MLOAD DUP1 SWAP2 SUB SWAP1 RETURN JUMPDEST PUSH1 0x0 DUP1 PUSH1 0x3 DUP2 GT ISZERO PUSH2 0x312 JUMPI PUSH2 0x311 PUSH2 0x1AE8 JUMP JUMPDEST JUMPDEST PUSH1 0x3 PUSH1 0x1 SWAP1 SLOAD SWAP1 PUSH2 0x100 EXP SWAP1 DIV PUSH1 0xFF AND PUSH1 0x3 DUP2 GT ISZERO PUSH2 0x334 JUMPI PUSH2 0x333 PUSH2 0x1AE8 JUMP JUMPDEST JUMPDEST EQ ISZERO DUP1 ISZERO PUSH2 0x376 JUMPI POP PUSH1 0x0 PUSH1 0x3 DUP2 GT ISZERO PUSH2 0x351 JUMPI PUSH2 0x350 PUSH2 0x1AE8 JUMP JUMPDEST JUMPDEST PUSH1 0x3 PUSH1 0x2 SWAP1 SLOAD SWAP1 PUSH2 0x100 EXP SWAP1 DIV PUSH1 0xFF AND PUSH1 0x3 DUP2 GT ISZERO PUSH2 0x373 JUMPI PUSH2 0x372 PUSH2 0x1AE8 JUMP JUMPDEST JUMPDEST EQ ISZERO JUMPDEST PUSH2 0x37F JUMPI PUSH1 0x0 DUP1 REVERT JUMPDEST PUSH1 0x3 DUP1 PUSH1 0x2 SWAP1 SLOAD SWAP1 PUSH2 0x100 EXP SWAP1 DIV PUSH1 0xFF AND PUSH1 0x3 DUP2 GT ISZERO PUSH2 0x3A2 JUMPI PUSH2 0x3A1 PUSH2 0x1AE8 JUMP JUMPDEST JUMPDEST PUSH1 0x3 PUSH1 0x1 SWAP1 SLOAD SWAP1 PUSH2 0x100 EXP SWAP1 DIV PUSH1 0xFF AND PUSH1 0x3 DUP2 GT ISZERO PUSH2 0x3C4 JUMPI PUSH2 0x3C3 PUSH2 0x1AE8 JUMP JUMPDEST JUMPDEST PUSH1 0x3 PUSH2 0x3D0 SWAP2 SWAP1 PUSH2 0x18E9 JUMP JUMPDEST PUSH2 0x3DA SWAP2 SWAP1 PUSH2 0x193F JUMP JUMPDEST PUSH2 0x3E4 SWAP2 SWAP1 PUSH2 0x1A59 JUMP JUMPDEST PUSH1 0x2 DUP2 GT ISZERO PUSH2 0x3F6 JUMPI PUSH2 0x3F5 PUSH2 0x1AE8 JUMP JUMPDEST JUMPDEST PUSH1 0x3 PUSH1 0x0 PUSH2 0x100 EXP DUP2 SLOAD DUP2 PUSH1 0xFF MUL NOT AND SWAP1 DUP4 PUSH1 0x2 DUP2 GT ISZERO PUSH2 0x41A JUMPI PUSH2 0x419 PUSH2 0x1AE8 JUMP JUMPDEST JUMPDEST MUL OR SWAP1 SSTORE POP PUSH1 0x1 PUSH1 0x2 DUP2 GT ISZERO PUSH2 0x433 JUMPI PUSH2 0x432 PUSH2 0x1AE8 JUMP JUMPDEST JUMPDEST PUSH1 0x3 PUSH1 0x0 SWAP1 SLOAD SWAP1 PUSH2 0x100 EXP SWAP1 DIV PUSH1 0xFF AND PUSH1 0x2 DUP2 GT ISZERO PUSH2 0x455 JUMPI PUSH2 0x454 PUSH2 0x1AE8 JUMP JUMPDEST JUMPDEST EQ ISZERO PUSH2 0x4C7 JUMPI PUSH1 0x0 DUP1 SLOAD SWAP1 PUSH2 0x100 EXP SWAP1 DIV PUSH20 0xFFFFFFFFFFFFFFFFFFFFFFFFFFFFFFFFFFFFFFFF AND PUSH20 0xFFFFFFFFFFFFFFFFFFFFFFFFFFFFFFFFFFFFFFFF AND PUSH2 0x8FC SELFBALANCE SWAP1 DUP2 ISZERO MUL SWAP1 PUSH1 0x40 MLOAD PUSH1 0x0 PUSH1 0x40 MLOAD DUP1 DUP4 SUB DUP2 DUP6 DUP9 DUP9 CALL SWAP4 POP POP POP POP ISZERO DUP1 ISZERO PUSH2 0x4C1 JUMPI RETURNDATASIZE PUSH1 0x0 DUP1 RETURNDATACOPY RETURNDATASIZE PUSH1 0x0 REVERT JUMPDEST POP PUSH2 0x644 JUMP JUMPDEST PUSH1 0x2 DUP1 DUP2 GT ISZERO PUSH2 0x4DA JUMPI PUSH2 0x4D9 PUSH2 0x1AE8 JUMP JUMPDEST JUMPDEST PUSH1 0x3 PUSH1 0x0 SWAP1 SLOAD SWAP1 PUSH2 0x100 EXP SWAP1 DIV PUSH1 0xFF AND PUSH1 0x2 DUP2 GT ISZERO PUSH2 0x4FC JUMPI PUSH2 0x4FB PUSH2 0x1AE8 JUMP JUMPDEST JUMPDEST EQ ISZERO PUSH2 0x570 JUMPI PUSH1 0x1 PUSH1 0x0 SWAP1 SLOAD SWAP1 PUSH2 0x100 EXP SWAP1 DIV PUSH20 0xFFFFFFFFFFFFFFFFFFFFFFFFFFFFFFFFFFFFFFFF AND PUSH20 0xFFFFFFFFFFFFFFFFFFFFFFFFFFFFFFFFFFFFFFFF AND PUSH2 0x8FC SELFBALANCE SWAP1 DUP2 ISZERO MUL SWAP1 PUSH1 0x40 MLOAD PUSH1 0x0 PUSH1 0x40 MLOAD DUP1 DUP4 SUB DUP2 DUP6 DUP9 DUP9 CALL SWAP4 POP POP POP POP ISZERO DUP1 ISZERO PUSH2 0x56A JUMPI RETURNDATASIZE PUSH1 0x0 DUP1 RETURNDATACOPY RETURNDATASIZE PUSH1 0x0 REVERT JUMPDEST POP PUSH2 0x643 JUMP JUMPDEST PUSH1 0x0 DUP1 SLOAD SWAP1 PUSH2 0x100 EXP SWAP1 DIV PUSH20 0xFFFFFFFFFFFFFFFFFFFFFFFFFFFFFFFFFFFFFFFF AND PUSH20 0xFFFFFFFFFFFFFFFFFFFFFFFFFFFFFFFFFFFFFFFF AND PUSH2 0x8FC PUSH1 0x2 SLOAD SWAP1 DUP2 ISZERO MUL SWAP1 PUSH1 0x40 MLOAD PUSH1 0x0 PUSH1 0x40 MLOAD DUP1 DUP4 SUB DUP2 DUP6 DUP9 DUP9 CALL SWAP4 POP POP POP POP ISZERO DUP1 ISZERO PUSH2 0x5D8 JUMPI RETURNDATASIZE PUSH1 0x0 DUP1 RETURNDATACOPY RETURNDATASIZE PUSH1 0x0 REVERT JUMPDEST POP PUSH1 0x1 PUSH1 0x0 SWAP1 SLOAD SWAP1 PUSH2 0x100 EXP SWAP1 DIV PUSH20 0xFFFFFFFFFFFFFFFFFFFFFFFFFFFFFFFFFFFFFFFF AND PUSH20 0xFFFFFFFFFFFFFFFFFFFFFFFFFFFFFFFFFFFFFFFF AND PUSH2 0x8FC SELFBALANCE SWAP1 DUP2 ISZERO MUL SWAP1 PUSH1 0x40 MLOAD PUSH1 0x0 PUSH1 0x40 MLOAD DUP1 DUP4 SUB DUP2 DUP6 DUP9 DUP9 CALL SWAP4 POP POP POP POP ISZERO DUP1 ISZERO PUSH2 0x641 JUMPI RETURNDATASIZE PUSH1 0x0 DUP1 RETURNDATACOPY RETURNDATASIZE PUSH1 0x0 REVERT JUMPDEST POP JUMPDEST JUMPDEST PUSH32 0x6D1A16000380C9ADDE391BCB46A92C2CE8C46811CFF002ED5DEC38DFDC2373CD PUSH1 0x3 PUSH1 0x0 SWAP1 SLOAD SWAP1 PUSH2 0x100 EXP SWAP1 DIV PUSH1 0xFF AND PUSH1 0x40 MLOAD PUSH2 0x682 SWAP2 SWAP1 PUSH2 0x1751 JUMP JUMPDEST PUSH1 0x40 MLOAD DUP1 SWAP2 SUB SWAP1 LOG1 PUSH1 0x3 PUSH1 0x0 SWAP1 SLOAD SWAP1 PUSH2 0x100 EXP SWAP1 DIV PUSH1 0xFF AND SWAP1 POP SWAP1 JUMP JUMPDEST PUSH1 0x0 DUP2 PUSH20 0xFFFFFFFFFFFFFFFFFFFFFFFFFFFFFFFFFFFFFFFF AND PUSH1 0x0 DUP1 SLOAD SWAP1 PUSH2 0x100 EXP SWAP1 DIV PUSH20 0xFFFFFFFFFFFFFFFFFFFFFFFFFFFFFFFFFFFFFFFF AND PUSH20 0xFFFFFFFFFFFFFFFFFFFFFFFFFFFFFFFFFFFFFFFF AND EQ DUP1 ISZERO PUSH2 0x701 JUMPI POP PUSH1 0x0 DUP1 SHL PUSH1 0x4 SLOAD EQ ISZERO JUMPDEST DUP1 PUSH2 0x76A JUMPI POP DUP2 PUSH20 0xFFFFFFFFFFFFFFFFFFFFFFFFFFFFFFFFFFFFFFFF AND PUSH1 0x1 PUSH1 0x0 SWAP1 SLOAD SWAP1 PUSH2 0x100 EXP SWAP1 DIV PUSH20 0xFFFFFFFFFFFFFFFFFFFFFFFFFFFFFFFFFFFFFFFF AND PUSH20 0xFFFFFFFFFFFFFFFFFFFFFFFFFFFFFFFFFFFFFFFF AND EQ DUP1 ISZERO PUSH2 0x769 JUMPI POP PUSH1 0x0 DUP1 SHL PUSH1 0x5 SLOAD EQ ISZERO JUMPDEST JUMPDEST SWAP1 POP SWAP2 SWAP1 POP JUMP JUMPDEST PUSH1 0x0 PUSH2 0x3E8 CALLVALUE LT ISZERO PUSH2 0x7B8 JUMPI PUSH1 0x40 MLOAD PUSH32 0x8C379A000000000000000000000000000000000000000000000000000000000 DUP2 MSTORE PUSH1 0x4 ADD PUSH2 0x7AF SWAP1 PUSH2 0x187D JUMP JUMPDEST PUSH1 0x40 MLOAD DUP1 SWAP2 SUB SWAP1 REVERT JUMPDEST PUSH1 0x0 PUSH1 0x2 SLOAD EQ DUP1 PUSH2 0x7CB JUMPI POP PUSH1 0x2 SLOAD CALLVALUE LT ISZERO JUMPDEST PUSH2 0x80A JUMPI PUSH1 0x40 MLOAD PUSH32 0x8C379A000000000000000000000000000000000000000000000000000000000 DUP2 MSTORE PUSH1 0x4 ADD PUSH2 0x801 SWAP1 PUSH2 0x189D JUMP JUMPDEST PUSH1 0x40 MLOAD DUP1 SWAP2 SUB SWAP1 REVERT JUMPDEST PUSH1 0x0 DUP1 SLOAD SWAP1 PUSH2 0x100 EXP SWAP1 DIV PUSH20 0xFFFFFFFFFFFFFFFFFFFFFFFFFFFFFFFFFFFFFFFF AND PUSH20 0xFFFFFFFFFFFFFFFFFFFFFFFFFFFFFFFFFFFFFFFF AND CALLER PUSH20 0xFFFFFFFFFFFFFFFFFFFFFFFFFFFFFFFFFFFFFFFF AND EQ ISZERO DUP1 ISZERO PUSH2 0x8B4 JUMPI POP PUSH1 0x1 PUSH1 0x0 SWAP1 SLOAD SWAP1 PUSH2 0x100 EXP SWAP1 DIV PUSH20 0xFFFFFFFFFFFFFFFFFFFFFFFFFFFFFFFFFFFFFFFF AND PUSH20 0xFFFFFFFFFFFFFFFFFFFFFFFFFFFFFFFFFFFFFFFF AND CALLER PUSH20 0xFFFFFFFFFFFFFFFFFFFFFFFFFFFFFFFFFFFFFFFF AND EQ ISZERO JUMPDEST PUSH2 0x8F3 JUMPI PUSH1 0x40 MLOAD PUSH32 0x8C379A000000000000000000000000000000000000000000000000000000000 DUP2 MSTORE PUSH1 0x4 ADD PUSH2 0x8EA SWAP1 PUSH2 0x17FD JUMP JUMPDEST PUSH1 0x40 MLOAD DUP1 SWAP2 SUB SWAP1 REVERT JUMPDEST PUSH1 0x0 PUSH20 0xFFFFFFFFFFFFFFFFFFFFFFFFFFFFFFFFFFFFFFFF AND PUSH1 0x0 DUP1 SLOAD SWAP1 PUSH2 0x100 EXP SWAP1 DIV PUSH20 0xFFFFFFFFFFFFFFFFFFFFFFFFFFFFFFFFFFFFFFFF AND PUSH20 0xFFFFFFFFFFFFFFFFFFFFFFFFFFFFFFFFFFFFFFFF AND EQ ISZERO PUSH2 0x9D0 JUMPI CALLER PUSH1 0x0 DUP1 PUSH2 0x100 EXP DUP2 SLOAD DUP2 PUSH20 0xFFFFFFFFFFFFFFFFFFFFFFFFFFFFFFFFFFFFFFFF MUL NOT AND SWAP1 DUP4 PUSH20 0xFFFFFFFFFFFFFFFFFFFFFFFFFFFFFFFFFFFFFFFF AND MUL OR SWAP1 SSTORE POP CALLVALUE PUSH1 0x2 DUP2 SWAP1 SSTORE POP PUSH32 0x982CDDADD143916F714D5E4CDB1FDBF71A3A44C802807791F444525464AD42AD PUSH1 0x1 PUSH1 0x40 MLOAD PUSH2 0x9BF SWAP2 SWAP1 PUSH2 0x1787 JUMP JUMPDEST PUSH1 0x40 MLOAD DUP1 SWAP2 SUB SWAP1 LOG1 PUSH1 0x1 SWAP1 POP PUSH2 0xAE6 JUMP JUMPDEST PUSH1 0x0 PUSH20 0xFFFFFFFFFFFFFFFFFFFFFFFFFFFFFFFFFFFFFFFF AND PUSH1 0x1 PUSH1 0x0 SWAP1 SLOAD SWAP1 PUSH2 0x100 EXP SWAP1 DIV PUSH20 0xFFFFFFFFFFFFFFFFFFFFFFFFFFFFFFFFFFFFFFFF AND PUSH20 0xFFFFFFFFFFFFFFFFFFFFFFFFFFFFFFFFFFFFFFFF AND EQ ISZERO PUSH2 0xAA9 JUMPI CALLER PUSH1 0x1 PUSH1 0x0 PUSH2 0x100 EXP DUP2 SLOAD DUP2 PUSH20 0xFFFFFFFFFFFFFFFFFFFFFFFFFFFFFFFFFFFFFFFF MUL NOT AND SWAP1 DUP4 PUSH20 0xFFFFFFFFFFFFFFFFFFFFFFFFFFFFFFFFFFFFFFFF AND MUL OR SWAP1 SSTORE POP PUSH32 0x982CDDADD143916F714D5E4CDB1FDBF71A3A44C802807791F444525464AD42AD PUSH1 0x2 PUSH1 0x40 MLOAD PUSH2 0xA98 SWAP2 SWAP1 PUSH2 0x17A2 JUMP JUMPDEST PUSH1 0x40 MLOAD DUP1 SWAP2 SUB SWAP1 LOG1 PUSH1 0x2 SWAP1 POP PUSH2 0xAE6 JUMP JUMPDEST PUSH32 0x982CDDADD143916F714D5E4CDB1FDBF71A3A44C802807791F444525464AD42AD PUSH1 0x0 PUSH1 0x40 MLOAD PUSH2 0xAD9 SWAP2 SWAP1 PUSH2 0x176C JUMP JUMPDEST PUSH1 0x40 MLOAD DUP1 SWAP2 SUB SWAP1 LOG1 PUSH1 0x0 SWAP1 POP JUMPDEST SWAP1 JUMP JUMPDEST PUSH1 0x3 PUSH1 0x0 SWAP1 SLOAD SWAP1 PUSH2 0x100 EXP SWAP1 DIV PUSH1 0xFF AND DUP2 JUMP JUMPDEST PUSH1 0x2 SLOAD DUP2 JUMP JUMPDEST PUSH1 0x0 DUP1 PUSH1 0x3 DUP2 GT ISZERO PUSH2 0xB17 JUMPI PUSH2 0xB16 PUSH2 0x1AE8 JUMP JUMPDEST JUMPDEST PUSH1 0x3 PUSH1 0x1 SWAP1 SLOAD SWAP1 PUSH2 0x100 EXP SWAP1 DIV PUSH1 0xFF AND PUSH1 0x3 DUP2 GT ISZERO PUSH2 0xB39 JUMPI PUSH2 0xB38 PUSH2 0x1AE8 JUMP JUMPDEST JUMPDEST EQ ISZERO DUP1 ISZERO PUSH2 0xB7B JUMPI POP PUSH1 0x0 PUSH1 0x3 DUP2 GT ISZERO PUSH2 0xB56 JUMPI PUSH2 0xB55 PUSH2 0x1AE8 JUMP JUMPDEST JUMPDEST PUSH1 0x3 PUSH1 0x2 SWAP1 SLOAD SWAP1 PUSH2 0x100 EXP SWAP1 DIV PUSH1 0xFF AND PUSH1 0x3 DUP2 GT ISZERO PUSH2 0xB78 JUMPI PUSH2 0xB77 PUSH2 0x1AE8 JUMP JUMPDEST JUMPDEST EQ ISZERO JUMPDEST SWAP1 POP SWAP1 JUMP JUMPDEST PUSH1 0x0 SELFBALANCE SWAP1 POP SWAP1 JUMP JUMPDEST PUSH1 0x0 DUP1 PUSH1 0x0 SWAP1 SLOAD SWAP1 PUSH2 0x100 EXP SWAP1 DIV PUSH20 0xFFFFFFFFFFFFFFFFFFFFFFFFFFFFFFFFFFFFFFFF AND PUSH20 0xFFFFFFFFFFFFFFFFFFFFFFFFFFFFFFFFFFFFFFFF AND CALLER PUSH20 0xFFFFFFFFFFFFFFFFFFFFFFFFFFFFFFFFFFFFFFFF AND EQ DUP1 PUSH2 0xC32 JUMPI POP PUSH1 0x1 PUSH1 0x0 SWAP1 SLOAD SWAP1 PUSH2 0x100 EXP SWAP1 DIV PUSH20 0xFFFFFFFFFFFFFFFFFFFFFFFFFFFFFFFFFFFFFFFF AND PUSH20 0xFFFFFFFFFFFFFFFFFFFFFFFFFFFFFFFFFFFFFFFF AND CALLER PUSH20 0xFFFFFFFFFFFFFFFFFFFFFFFFFFFFFFFFFFFFFFFF AND EQ JUMPDEST PUSH2 0xC71 JUMPI PUSH1 0x40 MLOAD PUSH32 0x8C379A000000000000000000000000000000000000000000000000000000000 DUP2 MSTORE PUSH1 0x4 ADD PUSH2 0xC68 SWAP1 PUSH2 0x17DD JUMP JUMPDEST PUSH1 0x40 MLOAD DUP1 SWAP2 SUB SWAP1 REVERT JUMPDEST DUP3 PUSH1 0x1 DUP2 LT ISZERO DUP1 ISZERO PUSH2 0xC84 JUMPI POP PUSH1 0x3 DUP2 GT ISZERO JUMPDEST PUSH2 0xCC3 JUMPI PUSH1 0x40 MLOAD PUSH32 0x8C379A000000000000000000000000000000000000000000000000000000000 DUP2 MSTORE PUSH1 0x4 ADD PUSH2 0xCBA SWAP1 PUSH2 0x181D JUMP JUMPDEST PUSH1 0x40 MLOAD DUP1 SWAP2 SUB SWAP1 REVERT JUMPDEST PUSH1 0x0 DUP1 SHL PUSH1 0x4 SLOAD EQ ISZERO DUP1 ISZERO PUSH2 0xCDD JUMPI POP PUSH1 0x0 DUP1 SHL PUSH1 0x5 SLOAD EQ ISZERO JUMPDEST PUSH2 0xCE6 JUMPI PUSH1 0x0 DUP1 REVERT JUMPDEST CALLER PUSH20 0xFFFFFFFFFFFFFFFFFFFFFFFFFFFFFFFFFFFFFFFF AND PUSH1 0x0 DUP1 SLOAD SWAP1 PUSH2 0x100 EXP SWAP1 DIV PUSH20 0xFFFFFFFFFFFFFFFFFFFFFFFFFFFFFFFFFFFFFFFF AND PUSH20 0xFFFFFFFFFFFFFFFFFFFFFFFFFFFFFFFFFFFFFFFF AND EQ ISZERO PUSH2 0xE20 JUMPI PUSH2 0xD44 DUP5 DUP5 PUSH2 0x1434 JUMP JUMPDEST PUSH1 0x4 SLOAD EQ PUSH2 0xD87 JUMPI PUSH1 0x40 MLOAD PUSH32 0x8C379A000000000000000000000000000000000000000000000000000000000 DUP2 MSTORE PUSH1 0x4 ADD PUSH2 0xD7E SWAP1 PUSH2 0x185D JUMP JUMPDEST PUSH1 0x40 MLOAD DUP1 SWAP2 SUB SWAP1 REVERT JUMPDEST DUP4 PUSH1 0x3 DUP2 GT ISZERO PUSH2 0xD9A JUMPI PUSH2 0xD99 PUSH2 0x1AE8 JUMP JUMPDEST JUMPDEST PUSH1 0x3 PUSH1 0x1 PUSH2 0x100 EXP DUP2 SLOAD DUP2 PUSH1 0xFF MUL NOT AND SWAP1 DUP4 PUSH1 0x3 DUP2 GT ISZERO PUSH2 0xDBE JUMPI PUSH2 0xDBD PUSH2 0x1AE8 JUMP JUMPDEST JUMPDEST MUL OR SWAP1 SSTORE POP PUSH32 0x47C7ACBD4D57F5DBC1F9E9D1F9E0899016B547AFBAD29E7A416A892B44898E97 PUSH1 0x3 PUSH1 0x1 SWAP1 SLOAD SWAP1 PUSH2 0x100 EXP SWAP1 DIV PUSH1 0xFF AND PUSH1 0x40 MLOAD PUSH2 0xE01 SWAP2 SWAP1 PUSH2 0x1736 JUMP JUMPDEST PUSH1 0x40 MLOAD DUP1 SWAP2 SUB SWAP1 LOG1 PUSH1 0x3 PUSH1 0x1 SWAP1 SLOAD SWAP1 PUSH2 0x100 EXP SWAP1 DIV PUSH1 0xFF AND SWAP2 POP PUSH2 0xF97 JUMP JUMPDEST CALLER PUSH20 0xFFFFFFFFFFFFFFFFFFFFFFFFFFFFFFFFFFFFFFFF AND PUSH1 0x1 PUSH1 0x0 SWAP1 SLOAD SWAP1 PUSH2 0x100 EXP SWAP1 DIV PUSH20 0xFFFFFFFFFFFFFFFFFFFFFFFFFFFFFFFFFFFFFFFF AND PUSH20 0xFFFFFFFFFFFFFFFFFFFFFFFFFFFFFFFFFFFFFFFF AND EQ ISZERO PUSH2 0xF5C JUMPI PUSH2 0xE80 DUP5 DUP5 PUSH2 0x1434 JUMP JUMPDEST PUSH1 0x5 SLOAD EQ PUSH2 0xEC3 JUMPI PUSH1 0x40 MLOAD PUSH32 0x8C379A000000000000000000000000000000000000000000000000000000000 DUP2 MSTORE PUSH1 0x4 ADD PUSH2 0xEBA SWAP1 PUSH2 0x185D JUMP JUMPDEST PUSH1 0x40 MLOAD DUP1 SWAP2 SUB SWAP1 REVERT JUMPDEST DUP4 PUSH1 0x3 DUP2 GT ISZERO PUSH2 0xED6 JUMPI PUSH2 0xED5 PUSH2 0x1AE8 JUMP JUMPDEST JUMPDEST PUSH1 0x3 PUSH1 0x2 PUSH2 0x100 EXP DUP2 SLOAD DUP2 PUSH1 0xFF MUL NOT AND SWAP1 DUP4 PUSH1 0x3 DUP2 GT ISZERO PUSH2 0xEFA JUMPI PUSH2 0xEF9 PUSH2 0x1AE8 JUMP JUMPDEST JUMPDEST MUL OR SWAP1 SSTORE POP PUSH32 0x47C7ACBD4D57F5DBC1F9E9D1F9E0899016B547AFBAD29E7A416A892B44898E97 PUSH1 0x3 PUSH1 0x2 SWAP1 SLOAD SWAP1 PUSH2 0x100 EXP SWAP1 DIV PUSH1 0xFF AND PUSH1 0x40 MLOAD PUSH2 0xF3D SWAP2 SWAP1 PUSH2 0x1736 JUMP JUMPDEST PUSH1 0x40 MLOAD DUP1 SWAP2 SUB SWAP1 LOG1 PUSH1 0x3 PUSH1 0x2 SWAP1 SLOAD SWAP1 PUSH2 0x100 EXP SWAP1 DIV PUSH1 0xFF AND SWAP2 POP PUSH2 0xF97 JUMP JUMPDEST PUSH1 0x40 MLOAD PUSH32 0x8C379A000000000000000000000000000000000000000000000000000000000 DUP2 MSTORE PUSH1 0x4 ADD PUSH2 0xF8E SWAP1 PUSH2 0x17BD JUMP JUMPDEST PUSH1 0x40 MLOAD DUP1 SWAP2 SUB SWAP1 REVERT JUMPDEST POP SWAP3 SWAP2 POP POP JUMP JUMPDEST PUSH1 0x0 DUP1 PUSH1 0x0 SHL PUSH1 0x4 SLOAD EQ ISZERO DUP1 ISZERO PUSH2 0xFBA JUMPI POP PUSH1 0x0 DUP1 SHL PUSH1 0x5 SLOAD EQ ISZERO JUMPDEST SWAP1 POP SWAP1 JUMP JUMPDEST PUSH1 0x0 DUP1 PUSH1 0x0 SWAP1 SLOAD SWAP1 PUSH2 0x100 EXP SWAP1 DIV PUSH20 0xFFFFFFFFFFFFFFFFFFFFFFFFFFFFFFFFFFFFFFFF AND PUSH20 0xFFFFFFFFFFFFFFFFFFFFFFFFFFFFFFFFFFFFFFFF AND CALLER PUSH20 0xFFFFFFFFFFFFFFFFFFFFFFFFFFFFFFFFFFFFFFFF AND EQ DUP1 PUSH2 0x1069 JUMPI POP PUSH1 0x1 PUSH1 0x0 SWAP1 SLOAD SWAP1 PUSH2 0x100 EXP SWAP1 DIV PUSH20 0xFFFFFFFFFFFFFFFFFFFFFFFFFFFFFFFFFFFFFFFF AND PUSH20 0xFFFFFFFFFFFFFFFFFFFFFFFFFFFFFFFFFFFFFFFF AND CALLER PUSH20 0xFFFFFFFFFFFFFFFFFFFFFFFFFFFFFFFFFFFFFFFF AND EQ JUMPDEST PUSH2 0x10A8 JUMPI PUSH1 0x40 MLOAD PUSH32 0x8C379A000000000000000000000000000000000000000000000000000000000 DUP2 MSTORE PUSH1 0x4 ADD PUSH2 0x109F SWAP1 PUSH2 0x17DD JUMP JUMPDEST PUSH1 0x40 MLOAD DUP1 SWAP2 SUB SWAP1 REVERT JUMPDEST DUP2 PUSH1 0x0 DUP2 EQ ISZERO PUSH2 0x10ED JUMPI PUSH1 0x40 MLOAD PUSH32 0x8C379A000000000000000000000000000000000000000000000000000000000 DUP2 MSTORE PUSH1 0x4 ADD PUSH2 0x10E4 SWAP1 PUSH2 0x183D JUMP JUMPDEST PUSH1 0x40 MLOAD DUP1 SWAP2 SUB SWAP1 REVERT JUMPDEST PUSH1 0x0 DUP1 SLOAD SWAP1 PUSH2 0x100 EXP SWAP1 DIV PUSH20 0xFFFFFFFFFFFFFFFFFFFFFFFFFFFFFFFFFFFFFFFF AND PUSH20 0xFFFFFFFFFFFFFFFFFFFFFFFFFFFFFFFFFFFFFFFF AND CALLER PUSH20 0xFFFFFFFFFFFFFFFFFFFFFFFFFFFFFFFFFFFFFFFF AND EQ DUP1 ISZERO PUSH2 0x114C JUMPI POP PUSH1 0x0 DUP1 SHL PUSH1 0x4 SLOAD EQ JUMPDEST ISZERO PUSH2 0x115D JUMPI DUP3 PUSH1 0x4 DUP2 SWAP1 SSTORE POP PUSH2 0x1211 JUMP JUMPDEST PUSH1 0x1 PUSH1 0x0 SWAP1 SLOAD SWAP1 PUSH2 0x100 EXP SWAP1 DIV PUSH20 0xFFFFFFFFFFFFFFFFFFFFFFFFFFFFFFFFFFFFFFFF AND PUSH20 0xFFFFFFFFFFFFFFFFFFFFFFFFFFFFFFFFFFFFFFFF AND CALLER PUSH20 0xFFFFFFFFFFFFFFFFFFFFFFFFFFFFFFFFFFFFFFFF AND EQ DUP1 ISZERO PUSH2 0x11BE JUMPI POP PUSH1 0x0 DUP1 SHL PUSH1 0x5 SLOAD EQ JUMPDEST ISZERO PUSH2 0x11CF JUMPI DUP3 PUSH1 0x5 DUP2 SWAP1 SSTORE POP PUSH2 0x1210 JUMP JUMPDEST PUSH32 0xD0E0EEE22AF482D2B75B0FACF637B601C155F06C6F143B473711527A01110F84 PUSH1 0x0 PUSH1 0x40 MLOAD PUSH2 0x11FF SWAP2 SWAP1 PUSH2 0x171B JUMP JUMPDEST PUSH1 0x40 MLOAD DUP1 SWAP2 SUB SWAP1 LOG1 PUSH1 0x0 SWAP2 POP PUSH2 0x124E JUMP JUMPDEST JUMPDEST PUSH32 0xD0E0EEE22AF482D2B75B0FACF637B601C155F06C6F143B473711527A01110F84 PUSH1 0x1 PUSH1 0x40 MLOAD PUSH2 0x1241 SWAP2 SWAP1 PUSH2 0x171B JUMP JUMPDEST PUSH1 0x40 MLOAD DUP1 SWAP2 SUB SWAP1 LOG1 PUSH1 0x1 SWAP2 POP JUMPDEST POP SWAP2 SWAP1 POP JUMP JUMPDEST PUSH1 0x0 DUP2 PUSH20 0xFFFFFFFFFFFFFFFFFFFFFFFFFFFFFFFFFFFFFFFF AND PUSH1 0x0 DUP1 SLOAD SWAP1 PUSH2 0x100 EXP SWAP1 DIV PUSH20 0xFFFFFFFFFFFFFFFFFFFFFFFFFFFFFFFFFFFFFFFF AND PUSH20 0xFFFFFFFFFFFFFFFFFFFFFFFFFFFFFFFFFFFFFFFF AND EQ DUP1 PUSH2 0x12FD JUMPI POP DUP2 PUSH20 0xFFFFFFFFFFFFFFFFFFFFFFFFFFFFFFFFFFFFFFFF AND PUSH1 0x1 PUSH1 0x0 SWAP1 SLOAD SWAP1 PUSH2 0x100 EXP SWAP1 DIV PUSH20 0xFFFFFFFFFFFFFFFFFFFFFFFFFFFFFFFFFFFFFFFF AND PUSH20 0xFFFFFFFFFFFFFFFFFFFFFFFFFFFFFFFFFFFFFFFF AND EQ JUMPDEST SWAP1 POP SWAP2 SWAP1 POP JUMP JUMPDEST PUSH1 0x0 DUP2 PUSH20 0xFFFFFFFFFFFFFFFFFFFFFFFFFFFFFFFFFFFFFFFF AND PUSH1 0x0 DUP1 SLOAD SWAP1 PUSH2 0x100 EXP SWAP1 DIV PUSH20 0xFFFFFFFFFFFFFFFFFFFFFFFFFFFFFFFFFFFFFFFF AND PUSH20 0xFFFFFFFFFFFFFFFFFFFFFFFFFFFFFFFFFFFFFFFF AND EQ DUP1 ISZERO PUSH2 0x1395 JUMPI POP PUSH1 0x0 PUSH1 0x3 DUP2 GT ISZERO PUSH2 0x1370 JUMPI PUSH2 0x136F PUSH2 0x1AE8 JUMP JUMPDEST JUMPDEST PUSH1 0x3 PUSH1 0x1 SWAP1 SLOAD SWAP1 PUSH2 0x100 EXP SWAP1 DIV PUSH1 0xFF AND PUSH1 0x3 DUP2 GT ISZERO PUSH2 0x1392 JUMPI PUSH2 0x1391 PUSH2 0x1AE8 JUMP JUMPDEST JUMPDEST EQ ISZERO JUMPDEST DUP1 PUSH2 0x142D JUMPI POP DUP2 PUSH20 0xFFFFFFFFFFFFFFFFFFFFFFFFFFFFFFFFFFFFFFFF AND PUSH1 0x1 PUSH1 0x0 SWAP1 SLOAD SWAP1 PUSH2 0x100 EXP SWAP1 DIV PUSH20 0xFFFFFFFFFFFFFFFFFFFFFFFFFFFFFFFFFFFFFFFF AND PUSH20 0xFFFFFFFFFFFFFFFFFFFFFFFFFFFFFFFFFFFFFFFF AND EQ DUP1 ISZERO PUSH2 0x142C JUMPI POP PUSH1 0x0 PUSH1 0x3 DUP2 GT ISZERO PUSH2 0x1407 JUMPI PUSH2 0x1406 PUSH2 0x1AE8 JUMP JUMPDEST JUMPDEST PUSH1 0x3 PUSH1 0x2 SWAP1 SLOAD SWAP1 PUSH2 0x100 EXP SWAP1 DIV PUSH1 0xFF AND PUSH1 0x3 DUP2 GT ISZERO PUSH2 0x1429 JUMPI PUSH2 0x1428 PUSH2 0x1AE8 JUMP JUMPDEST JUMPDEST EQ ISZERO JUMPDEST JUMPDEST SWAP1 POP SWAP2 SWAP1 POP JUMP JUMPDEST PUSH1 0x0 DUP3 DUP3 PUSH1 0x40 MLOAD PUSH1 0x20 ADD PUSH2 0x1449 SWAP3 SWAP2 SWAP1 PUSH2 0x16EF JUMP JUMPDEST PUSH1 0x40 MLOAD PUSH1 0x20 DUP2 DUP4 SUB SUB DUP2 MSTORE SWAP1 PUSH1 0x40 MSTORE DUP1 MLOAD SWAP1 PUSH1 0x20 ADD KECCAK256 SWAP1 POP SWAP3 SWAP2 POP POP JUMP JUMPDEST PUSH1 0x0 DUP2 CALLDATALOAD SWAP1 POP PUSH2 0x1476 DUP2 PUSH2 0x1CD8 JUMP JUMPDEST SWAP3 SWAP2 POP POP JUMP JUMPDEST PUSH1 0x0 DUP2 CALLDATALOAD SWAP1 POP PUSH2 0x148B DUP2 PUSH2 0x1CEF JUMP JUMPDEST SWAP3 SWAP2 POP POP JUMP JUMPDEST PUSH1 0x0 DUP2 CALLDATALOAD SWAP1 POP PUSH2 0x14A0 DUP2 PUSH2 0x1D06 JUMP JUMPDEST SWAP3 SWAP2 POP POP JUMP JUMPDEST PUSH1 0x0 PUSH1 0x20 DUP3 DUP5 SUB SLT ISZERO PUSH2 0x14BC JUMPI PUSH2 0x14BB PUSH2 0x1B17 JUMP JUMPDEST JUMPDEST PUSH1 0x0 PUSH2 0x14CA DUP5 DUP3 DUP6 ADD PUSH2 0x1467 JUMP JUMPDEST SWAP2 POP POP SWAP3 SWAP2 POP POP JUMP JUMPDEST PUSH1 0x0 PUSH1 0x20 DUP3 DUP5 SUB SLT ISZERO PUSH2 0x14E9 JUMPI PUSH2 0x14E8 PUSH2 0x1B17 JUMP JUMPDEST JUMPDEST PUSH1 0x0 PUSH2 0x14F7 DUP5 DUP3 DUP6 ADD PUSH2 0x147C JUMP JUMPDEST SWAP2 POP POP SWAP3 SWAP2 POP POP JUMP JUMPDEST PUSH1 0x0 DUP1 PUSH1 0x40 DUP4 DUP6 SUB SLT ISZERO PUSH2 0x1517 JUMPI PUSH2 0x1516 PUSH2 0x1B17 JUMP JUMPDEST JUMPDEST PUSH1 0x0 PUSH2 0x1525 DUP6 DUP3 DUP7 ADD PUSH2 0x1491 JUMP JUMPDEST SWAP3 POP POP PUSH1 0x20 PUSH2 0x1536 DUP6 DUP3 DUP7 ADD PUSH2 0x147C JUMP JUMPDEST SWAP2 POP POP SWAP3 POP SWAP3 SWAP1 POP JUMP JUMPDEST PUSH2 0x1549 DUP2 PUSH2 0x1985 JUMP JUMPDEST DUP3 MSTORE POP POP JUMP JUMPDEST PUSH2 0x1560 PUSH2 0x155B DUP3 PUSH2 0x1991 JUMP JUMPDEST PUSH2 0x1A45 JUMP JUMPDEST DUP3 MSTORE POP POP JUMP JUMPDEST PUSH2 0x156F DUP2 PUSH2 0x19EB JUMP JUMPDEST DUP3 MSTORE POP POP JUMP JUMPDEST PUSH2 0x157E DUP2 PUSH2 0x19FD JUMP JUMPDEST DUP3 MSTORE POP POP JUMP JUMPDEST PUSH2 0x158D DUP2 PUSH2 0x1A0F JUMP JUMPDEST DUP3 MSTORE POP POP JUMP JUMPDEST PUSH2 0x159C DUP2 PUSH2 0x1A21 JUMP JUMPDEST DUP3 MSTORE POP POP JUMP JUMPDEST PUSH2 0x15AB DUP2 PUSH2 0x1A33 JUMP JUMPDEST DUP3 MSTORE POP POP JUMP JUMPDEST PUSH1 0x0 PUSH2 0x15BE PUSH1 0x16 DUP4 PUSH2 0x18D8 JUMP JUMPDEST SWAP2 POP PUSH2 0x15C9 DUP3 PUSH2 0x1B1C JUMP JUMPDEST PUSH1 0x20 DUP3 ADD SWAP1 POP SWAP2 SWAP1 POP JUMP JUMPDEST PUSH1 0x0 PUSH2 0x15E1 PUSH1 0x19 DUP4 PUSH2 0x18D8 JUMP JUMPDEST SWAP2 POP PUSH2 0x15EC DUP3 PUSH2 0x1B45 JUMP JUMPDEST PUSH1 0x20 DUP3 ADD SWAP1 POP SWAP2 SWAP1 POP JUMP JUMPDEST PUSH1 0x0 PUSH2 0x1604 PUSH1 0x22 DUP4 PUSH2 0x18D8 JUMP JUMPDEST SWAP2 POP PUSH2 0x160F DUP3 PUSH2 0x1B6E JUMP JUMPDEST PUSH1 0x40 DUP3 ADD SWAP1 POP SWAP2 SWAP1 POP JUMP JUMPDEST PUSH1 0x0 PUSH2 0x1627 PUSH1 0x10 DUP4 PUSH2 0x18D8 JUMP JUMPDEST SWAP2 POP PUSH2 0x1632 DUP3 PUSH2 0x1BBD JUMP JUMPDEST PUSH1 0x20 DUP3 ADD SWAP1 POP SWAP2 SWAP1 POP JUMP JUMPDEST PUSH1 0x0 PUSH2 0x164A PUSH1 0x1A DUP4 PUSH2 0x18D8 JUMP JUMPDEST SWAP2 POP PUSH2 0x1655 DUP3 PUSH2 0x1BE6 JUMP JUMPDEST PUSH1 0x20 DUP3 ADD SWAP1 POP SWAP2 SWAP1 POP JUMP JUMPDEST PUSH1 0x0 PUSH2 0x166D PUSH1 0x11 DUP4 PUSH2 0x18D8 JUMP JUMPDEST SWAP2 POP PUSH2 0x1678 DUP3 PUSH2 0x1C0F JUMP JUMPDEST PUSH1 0x20 DUP3 ADD SWAP1 POP SWAP2 SWAP1 POP JUMP JUMPDEST PUSH1 0x0 PUSH2 0x1690 PUSH1 0x22 DUP4 PUSH2 0x18D8 JUMP JUMPDEST SWAP2 POP PUSH2 0x169B DUP3 PUSH2 0x1C38 JUMP JUMPDEST PUSH1 0x40 DUP3 ADD SWAP1 POP SWAP2 SWAP1 POP JUMP JUMPDEST PUSH1 0x0 PUSH2 0x16B3 PUSH1 0x16 DUP4 PUSH2 0x18D8 JUMP JUMPDEST SWAP2 POP PUSH2 0x16BE DUP3 PUSH2 0x1C87 JUMP JUMPDEST PUSH1 0x20 DUP3 ADD SWAP1 POP SWAP2 SWAP1 POP JUMP JUMPDEST PUSH2 0x16D2 DUP2 PUSH2 0x19E1 JUMP JUMPDEST DUP3 MSTORE POP POP JUMP JUMPDEST PUSH2 0x16E9 PUSH2 0x16E4 DUP3 PUSH2 0x19E1 JUMP JUMPDEST PUSH2 0x1A4F JUMP JUMPDEST DUP3 MSTORE POP POP JUMP JUMPDEST PUSH1 0x0 PUSH2 0x16FB DUP3 DUP6 PUSH2 0x16D8 JUMP JUMPDEST PUSH1 0x20 DUP3 ADD SWAP2 POP PUSH2 0x170B DUP3 DUP5 PUSH2 0x154F JUMP JUMPDEST PUSH1 0x20 DUP3 ADD SWAP2 POP DUP2 SWAP1 POP SWAP4 SWAP3 POP POP POP JUMP JUMPDEST PUSH1 0x0 PUSH1 0x20 DUP3 ADD SWAP1 POP PUSH2 0x1730 PUSH1 0x0 DUP4 ADD DUP5 PUSH2 0x1540 JUMP JUMPDEST SWAP3 SWAP2 POP POP JUMP JUMPDEST PUSH1 0x0 PUSH1 0x20 DUP3 ADD SWAP1 POP PUSH2 0x174B PUSH1 0x0 DUP4 ADD DUP5 PUSH2 0x1566 JUMP JUMPDEST SWAP3 SWAP2 POP POP JUMP JUMPDEST PUSH1 0x0 PUSH1 0x20 DUP3 ADD SWAP1 POP PUSH2 0x1766 PUSH1 0x0 DUP4 ADD DUP5 PUSH2 0x1575 JUMP JUMPDEST SWAP3 SWAP2 POP POP JUMP JUMPDEST PUSH1 0x0 PUSH1 0x20 DUP3 ADD SWAP1 POP PUSH2 0x1781 PUSH1 0x0 DUP4 ADD DUP5 PUSH2 0x1584 JUMP JUMPDEST SWAP3 SWAP2 POP POP JUMP JUMPDEST PUSH1 0x0 PUSH1 0x20 DUP3 ADD SWAP1 POP PUSH2 0x179C PUSH1 0x0 DUP4 ADD DUP5 PUSH2 0x1593 JUMP JUMPDEST SWAP3 SWAP2 POP POP JUMP JUMPDEST PUSH1 0x0 PUSH1 0x20 DUP3 ADD SWAP1 POP PUSH2 0x17B7 PUSH1 0x0 DUP4 ADD DUP5 PUSH2 0x15A2 JUMP JUMPDEST SWAP3 SWAP2 POP POP JUMP JUMPDEST PUSH1 0x0 PUSH1 0x20 DUP3 ADD SWAP1 POP DUP2 DUP2 SUB PUSH1 0x0 DUP4 ADD MSTORE PUSH2 0x17D6 DUP2 PUSH2 0x15B1 JUMP JUMPDEST SWAP1 POP SWAP2 SWAP1 POP JUMP JUMPDEST PUSH1 0x0 PUSH1 0x20 DUP3 ADD SWAP1 POP DUP2 DUP2 SUB PUSH1 0x0 DUP4 ADD MSTORE PUSH2 0x17F6 DUP2 PUSH2 0x15D4 JUMP JUMPDEST SWAP1 POP SWAP2 SWAP1 POP JUMP JUMPDEST PUSH1 0x0 PUSH1 0x20 DUP3 ADD SWAP1 POP DUP2 DUP2 SUB PUSH1 0x0 DUP4 ADD MSTORE PUSH2 0x1816 DUP2 PUSH2 0x15F7 JUMP JUMPDEST SWAP1 POP SWAP2 SWAP1 POP JUMP JUMPDEST PUSH1 0x0 PUSH1 0x20 DUP3 ADD SWAP1 POP DUP2 DUP2 SUB PUSH1 0x0 DUP4 ADD MSTORE PUSH2 0x1836 DUP2 PUSH2 0x161A JUMP JUMPDEST SWAP1 POP SWAP2 SWAP1 POP JUMP JUMPDEST PUSH1 0x0 PUSH1 0x20 DUP3 ADD SWAP1 POP DUP2 DUP2 SUB PUSH1 0x0 DUP4 ADD MSTORE PUSH2 0x1856 DUP2 PUSH2 0x163D JUMP JUMPDEST SWAP1 POP SWAP2 SWAP1 POP JUMP JUMPDEST PUSH1 0x0 PUSH1 0x20 DUP3 ADD SWAP1 POP DUP2 DUP2 SUB PUSH1 0x0 DUP4 ADD MSTORE PUSH2 0x1876 DUP2 PUSH2 0x1660 JUMP JUMPDEST SWAP1 POP SWAP2 SWAP1 POP JUMP JUMPDEST PUSH1 0x0 PUSH1 0x20 DUP3 ADD SWAP1 POP DUP2 DUP2 SUB PUSH1 0x0 DUP4 ADD MSTORE PUSH2 0x1896 DUP2 PUSH2 0x1683 JUMP JUMPDEST SWAP1 POP SWAP2 SWAP1 POP JUMP JUMPDEST PUSH1 0x0 PUSH1 0x20 DUP3 ADD SWAP1 POP DUP2 DUP2 SUB PUSH1 0x0 DUP4 ADD MSTORE PUSH2 0x18B6 DUP2 PUSH2 0x16A6 JUMP JUMPDEST SWAP1 POP SWAP2 SWAP1 POP JUMP JUMPDEST PUSH1 0x0 PUSH1 0x20 DUP3 ADD SWAP1 POP PUSH2 0x18D2 PUSH1 0x0 DUP4 ADD DUP5 PUSH2 0x16C9 JUMP JUMPDEST SWAP3 SWAP2 POP POP JUMP JUMPDEST PUSH1 0x0 DUP3 DUP3 MSTORE PUSH1 0x20 DUP3 ADD SWAP1 POP SWAP3 SWAP2 POP POP JUMP JUMPDEST PUSH1 0x0 PUSH2 0x18F4 DUP3 PUSH2 0x19E1 JUMP JUMPDEST SWAP2 POP PUSH2 0x18FF DUP4 PUSH2 0x19E1 JUMP JUMPDEST SWAP3 POP DUP3 PUSH32 0xFFFFFFFFFFFFFFFFFFFFFFFFFFFFFFFFFFFFFFFFFFFFFFFFFFFFFFFFFFFFFFFF SUB DUP3 GT ISZERO PUSH2 0x1934 JUMPI PUSH2 0x1933 PUSH2 0x1A8A JUMP JUMPDEST JUMPDEST DUP3 DUP3 ADD SWAP1 POP SWAP3 SWAP2 POP POP JUMP JUMPDEST PUSH1 0x0 PUSH2 0x194A DUP3 PUSH2 0x19E1 JUMP JUMPDEST SWAP2 POP PUSH2 0x1955 DUP4 PUSH2 0x19E1 JUMP JUMPDEST SWAP3 POP DUP3 DUP3 LT ISZERO PUSH2 0x1968 JUMPI PUSH2 0x1967 PUSH2 0x1A8A JUMP JUMPDEST JUMPDEST DUP3 DUP3 SUB SWAP1 POP SWAP3 SWAP2 POP POP JUMP JUMPDEST PUSH1 0x0 PUSH2 0x197E DUP3 PUSH2 0x19C1 JUMP JUMPDEST SWAP1 POP SWAP2 SWAP1 POP JUMP JUMPDEST PUSH1 0x0 DUP2 ISZERO ISZERO SWAP1 POP SWAP2 SWAP1 POP JUMP JUMPDEST PUSH1 0x0 DUP2 SWAP1 POP SWAP2 SWAP1 POP JUMP JUMPDEST PUSH1 0x0 DUP2 SWAP1 POP PUSH2 0x19A9 DUP3 PUSH2 0x1CB0 JUMP JUMPDEST SWAP2 SWAP1 POP JUMP JUMPDEST PUSH1 0x0 DUP2 SWAP1 POP PUSH2 0x19BC DUP3 PUSH2 0x1CC4 JUMP JUMPDEST SWAP2 SWAP1 POP JUMP JUMPDEST PUSH1 0x0 PUSH20 0xFFFFFFFFFFFFFFFFFFFFFFFFFFFFFFFFFFFFFFFF DUP3 AND SWAP1 POP SWAP2 SWAP1 POP JUMP JUMPDEST PUSH1 0x0 DUP2 SWAP1 POP SWAP2 SWAP1 POP JUMP JUMPDEST PUSH1 0x0 PUSH2 0x19F6 DUP3 PUSH2 0x199B JUMP JUMPDEST SWAP1 POP SWAP2 SWAP1 POP JUMP JUMPDEST PUSH1 0x0 PUSH2 0x1A08 DUP3 PUSH2 0x19AE JUMP JUMPDEST SWAP1 POP SWAP2 SWAP1 POP JUMP JUMPDEST PUSH1 0x0 PUSH2 0x1A1A DUP3 PUSH2 0x19E1 JUMP JUMPDEST SWAP1 POP SWAP2 SWAP1 POP JUMP JUMPDEST PUSH1 0x0 PUSH2 0x1A2C DUP3 PUSH2 0x19E1 JUMP JUMPDEST SWAP1 POP SWAP2 SWAP1 POP JUMP JUMPDEST PUSH1 0x0 PUSH2 0x1A3E DUP3 PUSH2 0x19E1 JUMP JUMPDEST SWAP1 POP SWAP2 SWAP1 POP JUMP JUMPDEST PUSH1 0x0 DUP2 SWAP1 POP SWAP2 SWAP1 POP JUMP JUMPDEST PUSH1 0x0 DUP2 SWAP1 POP SWAP2 SWAP1 POP JUMP JUMPDEST PUSH1 0x0 PUSH2 0x1A64 DUP3 PUSH2 0x19E1 JUMP JUMPDEST SWAP2 POP PUSH2 0x1A6F DUP4 PUSH2 0x19E1 JUMP JUMPDEST SWAP3 POP DUP3 PUSH2 0x1A7F JUMPI PUSH2 0x1A7E PUSH2 0x1AB9 JUMP JUMPDEST JUMPDEST DUP3 DUP3 MOD SWAP1 POP SWAP3 SWAP2 POP POP JUMP JUMPDEST PUSH32 0x4E487B7100000000000000000000000000000000000000000000000000000000 PUSH1 0x0 MSTORE PUSH1 0x11 PUSH1 0x4 MSTORE PUSH1 0x24 PUSH1 0x0 REVERT JUMPDEST PUSH32 0x4E487B7100000000000000000000000000000000000000000000000000000000 PUSH1 0x0 MSTORE PUSH1 0x12 PUSH1 0x4 MSTORE PUSH1 0x24 PUSH1 0x0 REVERT JUMPDEST PUSH32 0x4E487B7100000000000000000000000000000000000000000000000000000000 PUSH1 0x0 MSTORE PUSH1 0x21 PUSH1 0x4 MSTORE PUSH1 0x24 PUSH1 0x0 REVERT JUMPDEST PUSH1 0x0 DUP1 REVERT JUMPDEST PUSH32 0x50726F626C656D20776974682061646472657373657300000000000000000000 PUSH1 0x0 DUP3 ADD MSTORE POP JUMP JUMPDEST PUSH32 0x4E6F74207265676973746572656420706C617965722079657400000000000000 PUSH1 0x0 DUP3 ADD MSTORE POP JUMP JUMPDEST PUSH32 0x5468697320706C617965722068617320616C7265616479207265676973746572 PUSH1 0x0 DUP3 ADD MSTORE PUSH32 0x6564000000000000000000000000000000000000000000000000000000000000 PUSH1 0x20 DUP3 ADD MSTORE POP JUMP JUMPDEST PUSH32 0x496E636F72726563742063686F69636500000000000000000000000000000000 PUSH1 0x0 DUP3 ADD MSTORE POP JUMP JUMPDEST PUSH32 0x47616D65206861736820776173206E6F742070726F7669646564000000000000 PUSH1 0x0 DUP3 ADD MSTORE POP JUMP JUMPDEST PUSH32 0x70726F626C656D20776974682073616C74000000000000000000000000000000 PUSH1 0x0 DUP3 ADD MSTORE POP JUMP JUMPDEST PUSH32 0x426574206973206C6F776572207468616E20706F737369626C65206D696E696D PUSH1 0x0 DUP3 ADD MSTORE PUSH32 0x756D000000000000000000000000000000000000000000000000000000000000 PUSH1 0x20 DUP3 ADD MSTORE POP JUMP JUMPDEST PUSH32 0x50726F626C656D207769746820746865207374616B6500000000000000000000 PUSH1 0x0 DUP3 ADD MSTORE POP JUMP JUMPDEST PUSH1 0x4 DUP2 LT PUSH2 0x1CC1 JUMPI PUSH2 0x1CC0 PUSH2 0x1AE8 JUMP JUMPDEST JUMPDEST POP JUMP JUMPDEST PUSH1 0x3 DUP2 LT PUSH2 0x1CD5 JUMPI PUSH2 0x1CD4 PUSH2 0x1AE8 JUMP JUMPDEST JUMPDEST POP JUMP JUMPDEST PUSH2 0x1CE1 DUP2 PUSH2 0x1973 JUMP JUMPDEST DUP2 EQ PUSH2 0x1CEC JUMPI PUSH1 0x0 DUP1 REVERT JUMPDEST POP JUMP JUMPDEST PUSH2 0x1CF8 DUP2 PUSH2 0x1991 JUMP JUMPDEST DUP2 EQ PUSH2 0x1D03 JUMPI PUSH1 0x0 DUP1 REVERT JUMPDEST POP JUMP JUMPDEST PUSH2 0x1D0F DUP2 PUSH2 0x19E1 JUMP JUMPDEST DUP2 EQ PUSH2 0x1D1A JUMPI PUSH1 0x0 DUP1 REVERT JUMPDEST POP JUMP INVALID LOG2 PUSH5 0x6970667358 0x22 SLT KECCAK256 0xD0 CODECOPY 0x23 INVALID 0x5C 0x2E CREATE NOT 0xE8 CALLCODE 0xB6 0xE6 0xBA PUSH22 0x7C0B56274E9698293FA022DDA866A06FDCEF64736F6C PUSH4 0x43000807 STOP CALLER "
				},
				"gasEstimates": {
					"creation": {
						"codeDepositCost": "1501400",
						"executionCost": "1568",
						"totalCost": "1502968"
					},
					"external": {
						"bothCommitted()": "4642",
						"bothRevealed()": "4973",
						"commitMove(bytes32)": "infinite",
						"endGames()": "infinite",
						"getContractBalance()": "339",
						"isCommitted(address)": "9287",
						"isRegistered(address)": "5072",
						"isRevealed(address)": "9638",
						"outcome()": "2627",
						"regPlayer()": "infinite",
						"revealChoice(uint256,bytes32)": "infinite",
						"stake()": "2518"
					},
					"internal": {
						"getSaltedHash(uint256,bytes32)": "infinite",
						"reset()": "infinite"
					}
				},
				"methodIdentifiers": {
					"bothCommitted()": "92c90480",
					"bothRevealed()": "43445ca8",
					"commitMove(bytes32)": "a9ea37b6",
					"endGames()": "11b0af15",
					"getContractBalance()": "6f9fb98a",
					"isCommitted(address)": "15b80df8",
					"isRegistered(address)": "c3c5a547",
					"isRevealed(address)": "e711a812",
					"outcome()": "27793f87",
					"regPlayer()": "20737796",
					"revealChoice(uint256,bytes32)": "8c10bb96",
					"stake()": "3a4b66f1"
				}
			},
			"storageLayout": {
				"storage": [
					{
						"astId": 33,
						"contract": "contracts/RPS.sol:RPS",
						"label": "playerOne",
						"offset": 0,
						"slot": "0",
						"type": "t_address_payable"
					},
					{
						"astId": 35,
						"contract": "contracts/RPS.sol:RPS",
						"label": "playerTwo",
						"offset": 0,
						"slot": "1",
						"type": "t_address_payable"
					},
					{
						"astId": 37,
						"contract": "contracts/RPS.sol:RPS",
						"label": "stake",
						"offset": 0,
						"slot": "2",
						"type": "t_uint256"
					},
					{
						"astId": 40,
						"contract": "contracts/RPS.sol:RPS",
						"label": "outcome",
						"offset": 0,
						"slot": "3",
						"type": "t_enum(GameOutcome)26"
					},
					{
						"astId": 43,
						"contract": "contracts/RPS.sol:RPS",
						"label": "playerOneChoice",
						"offset": 1,
						"slot": "3",
						"type": "t_enum(GameChoice)31"
					},
					{
						"astId": 46,
						"contract": "contracts/RPS.sol:RPS",
						"label": "playerTwoChoice",
						"offset": 2,
						"slot": "3",
						"type": "t_enum(GameChoice)31"
					},
					{
						"astId": 48,
						"contract": "contracts/RPS.sol:RPS",
						"label": "playerOneHash",
						"offset": 0,
						"slot": "4",
						"type": "t_bytes32"
					},
					{
						"astId": 50,
						"contract": "contracts/RPS.sol:RPS",
						"label": "playerTwoHash",
						"offset": 0,
						"slot": "5",
						"type": "t_bytes32"
					}
				],
				"types": {
					"t_address_payable": {
						"encoding": "inplace",
						"label": "address payable",
						"numberOfBytes": "20"
					},
					"t_bytes32": {
						"encoding": "inplace",
						"label": "bytes32",
						"numberOfBytes": "32"
					},
					"t_enum(GameChoice)31": {
						"encoding": "inplace",
						"label": "enum RPS.GameChoice",
						"numberOfBytes": "1"
					},
					"t_enum(GameOutcome)26": {
						"encoding": "inplace",
						"label": "enum RPS.GameOutcome",
						"numberOfBytes": "1"
					},
					"t_uint256": {
						"encoding": "inplace",
						"label": "uint256",
						"numberOfBytes": "32"
					}
				}
			},
			"userdoc": {
				"kind": "user",
				"methods": {},
				"version": 1
			}
		}
	}
}