{
	"data": {
		"bytecode": {
			"linkReferences": {},
			"object": "608060405234801561001057600080fd5b5061228b806100206000396000f3fe6080604052600436106100dd5760003560e01c80638c10bb961161007f578063af2d251711610059578063af2d2517146102b9578063c3c5a547146102d0578063d9e257ef1461030d578063e711a81214610317576100dd565b80638c10bb961461021457806392c9048014610251578063a9ea37b61461027c576100dd565b806327793f87116100bb57806327793f87146101685780633a4b66f11461019357806343445ca8146101be5780636f9fb98a146101e9576100dd565b806311b0af15146100e257806315b80df81461010d578063207377961461014a575b600080fd5b3480156100ee57600080fd5b506100f7610354565b6040516101049190611b3c565b60405180910390f35b34801561011957600080fd5b50610134600480360381019061012f9190611828565b610734565b6040516101419190611b06565b60405180910390f35b610152610806565b60405161015f9190611d08565b60405180910390f35b34801561017457600080fd5b5061017d610b7e565b60405161018a9190611b3c565b60405180910390f35b34801561019f57600080fd5b506101a8610b91565b6040516101b59190611d08565b60405180910390f35b3480156101ca57600080fd5b506101d3610b97565b6040516101e09190611b06565b60405180910390f35b3480156101f557600080fd5b506101fe610c15565b60405161020b9190611d08565b60405180910390f35b34801561022057600080fd5b5061023b60048036038101906102369190611882565b610c1d565b6040516102489190611b21565b60405180910390f35b34801561025d57600080fd5b50610266611069565b6040516102739190611b06565b60405180910390f35b34801561028857600080fd5b506102a3600480360381019061029e9190611855565b61108a565b6040516102b09190611b06565b60405180910390f35b3480156102c557600080fd5b506102ce61131f565b005b3480156102dc57600080fd5b506102f760048036038101906102f29190611828565b6113ab565b6040516103049190611b06565b60405180910390f35b61031561145b565b005b34801561032357600080fd5b5061033e60048036038101906103399190611828565b61158f565b60405161034b9190611b06565b60405180910390f35b600080600381111561036957610368611f33565b5b600360019054906101000a900460ff16600381111561038b5761038a611f33565b5b141580156103cd5750600060038111156103a8576103a7611f33565b5b600360029054906101000a900460ff1660038111156103ca576103c9611f33565b5b14155b61040c576040517f08c379a000000000000000000000000000000000000000000000000000000000815260040161040390611c08565b60405180910390fd5b60038060029054906101000a900460ff16600381111561042f5761042e611f33565b5b600360019054906101000a900460ff16600381111561045157610450611f33565b5b600361045d9190611d34565b6104679190611d8a565b6104719190611ea4565b600281111561048357610482611f33565b5b600360006101000a81548160ff021916908360028111156104a7576104a6611f33565b5b0217905550600160028111156104c0576104bf611f33565b5b600360009054906101000a900460ff1660028111156104e2576104e1611f33565b5b14156105545760008054906101000a900473ffffffffffffffffffffffffffffffffffffffff1673ffffffffffffffffffffffffffffffffffffffff166108fc479081150290604051600060405180830381858888f1935050505015801561054e573d6000803e3d6000fd5b506106d1565b60028081111561056757610566611f33565b5b600360009054906101000a900460ff16600281111561058957610588611f33565b5b14156105fd57600160009054906101000a900473ffffffffffffffffffffffffffffffffffffffff1673ffffffffffffffffffffffffffffffffffffffff166108fc479081150290604051600060405180830381858888f193505050501580156105f7573d6000803e3d6000fd5b506106d0565b60008054906101000a900473ffffffffffffffffffffffffffffffffffffffff1673ffffffffffffffffffffffffffffffffffffffff166108fc6002549081150290604051600060405180830381858888f19350505050158015610665573d6000803e3d6000fd5b50600160009054906101000a900473ffffffffffffffffffffffffffffffffffffffff1673ffffffffffffffffffffffffffffffffffffffff166108fc479081150290604051600060405180830381858888f193505050501580156106ce573d6000803e3d6000fd5b505b5b6106d96116bf565b7f6d1a16000380c9adde391bcb46a92c2ce8c46811cff002ed5dec38dfdc2373cd600360009054906101000a900460ff166040516107179190611b3c565b60405180910390a1600360009054906101000a900460ff16905090565b60008173ffffffffffffffffffffffffffffffffffffffff1660008054906101000a900473ffffffffffffffffffffffffffffffffffffffff1673ffffffffffffffffffffffffffffffffffffffff1614801561079657506000801b60045414155b806107ff57508173ffffffffffffffffffffffffffffffffffffffff16600160009054906101000a900473ffffffffffffffffffffffffffffffffffffffff1673ffffffffffffffffffffffffffffffffffffffff161480156107fe57506000801b60055414155b5b9050919050565b60006103e834101561084d576040517f08c379a000000000000000000000000000000000000000000000000000000000815260040161084490611ca8565b60405180910390fd5b6000600254148061086057506002543410155b61089f576040517f08c379a000000000000000000000000000000000000000000000000000000000815260040161089690611ce8565b60405180910390fd5b60008054906101000a900473ffffffffffffffffffffffffffffffffffffffff1673ffffffffffffffffffffffffffffffffffffffff163373ffffffffffffffffffffffffffffffffffffffff16141580156109495750600160009054906101000a900473ffffffffffffffffffffffffffffffffffffffff1673ffffffffffffffffffffffffffffffffffffffff163373ffffffffffffffffffffffffffffffffffffffff1614155b610988576040517f08c379a000000000000000000000000000000000000000000000000000000000815260040161097f90611be8565b60405180910390fd5b600073ffffffffffffffffffffffffffffffffffffffff1660008054906101000a900473ffffffffffffffffffffffffffffffffffffffff1673ffffffffffffffffffffffffffffffffffffffff161415610a6557336000806101000a81548173ffffffffffffffffffffffffffffffffffffffff021916908373ffffffffffffffffffffffffffffffffffffffff160217905550346002819055507f982cddadd143916f714d5e4cdb1fdbf71a3a44c802807791f444525464ad42ad6001604051610a549190611b72565b60405180910390a160019050610b7b565b600073ffffffffffffffffffffffffffffffffffffffff16600160009054906101000a900473ffffffffffffffffffffffffffffffffffffffff1673ffffffffffffffffffffffffffffffffffffffff161415610b3e5733600160006101000a81548173ffffffffffffffffffffffffffffffffffffffff021916908373ffffffffffffffffffffffffffffffffffffffff1602179055507f982cddadd143916f714d5e4cdb1fdbf71a3a44c802807791f444525464ad42ad6002604051610b2d9190611b8d565b60405180910390a160029050610b7b565b7f982cddadd143916f714d5e4cdb1fdbf71a3a44c802807791f444525464ad42ad6000604051610b6e9190611b57565b60405180910390a1600090505b90565b600360009054906101000a900460ff1681565b60025481565b6000806003811115610bac57610bab611f33565b5b600360019054906101000a900460ff166003811115610bce57610bcd611f33565b5b14158015610c10575060006003811115610beb57610bea611f33565b5b600360029054906101000a900460ff166003811115610c0d57610c0c611f33565b5b14155b905090565b600047905090565b60008060009054906101000a900473ffffffffffffffffffffffffffffffffffffffff1673ffffffffffffffffffffffffffffffffffffffff163373ffffffffffffffffffffffffffffffffffffffff161480610cc75750600160009054906101000a900473ffffffffffffffffffffffffffffffffffffffff1673ffffffffffffffffffffffffffffffffffffffff163373ffffffffffffffffffffffffffffffffffffffff16145b610d06576040517f08c379a0000000000000000000000000000000000000000000000000000000008152600401610cfd90611bc8565b60405180910390fd5b8260018110158015610d19575060038111155b610d58576040517f08c379a0000000000000000000000000000000000000000000000000000000008152600401610d4f90611c28565b60405180910390fd5b6000801b60045414158015610d7257506000801b60055414155b610db1576040517f08c379a0000000000000000000000000000000000000000000000000000000008152600401610da890611c48565b60405180910390fd5b3373ffffffffffffffffffffffffffffffffffffffff1660008054906101000a900473ffffffffffffffffffffffffffffffffffffffff1673ffffffffffffffffffffffffffffffffffffffff161415610eeb57610e0f84846117b6565b60045414610e52576040517f08c379a0000000000000000000000000000000000000000000000000000000008152600401610e4990611c88565b60405180910390fd5b836003811115610e6557610e64611f33565b5b600360016101000a81548160ff02191690836003811115610e8957610e88611f33565b5b02179055507f47c7acbd4d57f5dbc1f9e9d1f9e0899016b547afbad29e7a416a892b44898e97600360019054906101000a900460ff16604051610ecc9190611b21565b60405180910390a1600360019054906101000a900460ff169150611062565b3373ffffffffffffffffffffffffffffffffffffffff16600160009054906101000a900473ffffffffffffffffffffffffffffffffffffffff1673ffffffffffffffffffffffffffffffffffffffff16141561102757610f4b84846117b6565b60055414610f8e576040517f08c379a0000000000000000000000000000000000000000000000000000000008152600401610f8590611c88565b60405180910390fd5b836003811115610fa157610fa0611f33565b5b600360026101000a81548160ff02191690836003811115610fc557610fc4611f33565b5b02179055507f47c7acbd4d57f5dbc1f9e9d1f9e0899016b547afbad29e7a416a892b44898e97600360029054906101000a900460ff166040516110089190611b21565b60405180910390a1600360029054906101000a900460ff169150611062565b6040517f08c379a000000000000000000000000000000000000000000000000000000000815260040161105990611ba8565b60405180910390fd5b5092915050565b60008060001b6004541415801561108557506000801b60055414155b905090565b60008060009054906101000a900473ffffffffffffffffffffffffffffffffffffffff1673ffffffffffffffffffffffffffffffffffffffff163373ffffffffffffffffffffffffffffffffffffffff1614806111345750600160009054906101000a900473ffffffffffffffffffffffffffffffffffffffff1673ffffffffffffffffffffffffffffffffffffffff163373ffffffffffffffffffffffffffffffffffffffff16145b611173576040517f08c379a000000000000000000000000000000000000000000000000000000000815260040161116a90611bc8565b60405180910390fd5b8160008114156111b8576040517f08c379a00000000000000000000000000000000000000000000000000000000081526004016111af90611c68565b60405180910390fd5b60008054906101000a900473ffffffffffffffffffffffffffffffffffffffff1673ffffffffffffffffffffffffffffffffffffffff163373ffffffffffffffffffffffffffffffffffffffff1614801561121757506000801b600454145b1561122857826004819055506112dc565b600160009054906101000a900473ffffffffffffffffffffffffffffffffffffffff1673ffffffffffffffffffffffffffffffffffffffff163373ffffffffffffffffffffffffffffffffffffffff1614801561128957506000801b600554145b1561129a57826005819055506112db565b7fd0e0eee22af482d2b75b0facf637b601c155f06c6f143b473711527a01110f8460006040516112ca9190611b06565b60405180910390a160009150611319565b5b7fd0e0eee22af482d2b75b0facf637b601c155f06c6f143b473711527a01110f84600160405161130c9190611b06565b60405180910390a1600191505b50919050565b7391cda83c363a6f72f81a2041836b1e79b4a01ab173ffffffffffffffffffffffffffffffffffffffff163373ffffffffffffffffffffffffffffffffffffffff16146113a1576040517f08c379a000000000000000000000000000000000000000000000000000000000815260040161139890611cc8565b60405180910390fd5b6113a96116bf565b565b60008173ffffffffffffffffffffffffffffffffffffffff1660008054906101000a900473ffffffffffffffffffffffffffffffffffffffff1673ffffffffffffffffffffffffffffffffffffffff16148061145457508173ffffffffffffffffffffffffffffffffffffffff16600160009054906101000a900473ffffffffffffffffffffffffffffffffffffffff1673ffffffffffffffffffffffffffffffffffffffff16145b9050919050565b7391cda83c363a6f72f81a2041836b1e79b4a01ab173ffffffffffffffffffffffffffffffffffffffff163373ffffffffffffffffffffffffffffffffffffffff16146114dd576040517f08c379a00000000000000000000000000000000000000000000000000000000081526004016114d490611cc8565b60405180910390fd5b6103e8341015611522576040517f08c379a000000000000000000000000000000000000000000000000000000000815260040161151990611ca8565b60405180910390fd5b6000600254148061153557506002543410155b611574576040517f08c379a000000000000000000000000000000000000000000000000000000000815260040161156b90611ce8565b60405180910390fd5b34600260008282546115869190611d34565b92505081905550565b60008173ffffffffffffffffffffffffffffffffffffffff1660008054906101000a900473ffffffffffffffffffffffffffffffffffffffff1673ffffffffffffffffffffffffffffffffffffffff161480156116205750600060038111156115fb576115fa611f33565b5b600360019054906101000a900460ff16600381111561161d5761161c611f33565b5b14155b806116b857508173ffffffffffffffffffffffffffffffffffffffff16600160009054906101000a900473ffffffffffffffffffffffffffffffffffffffff1673ffffffffffffffffffffffffffffffffffffffff161480156116b757506000600381111561169257611691611f33565b5b600360029054906101000a900460ff1660038111156116b4576116b3611f33565b5b14155b5b9050919050565b600060028190555060008060006101000a81548173ffffffffffffffffffffffffffffffffffffffff021916908373ffffffffffffffffffffffffffffffffffffffff1602179055506000600160006101000a81548173ffffffffffffffffffffffffffffffffffffffff021916908373ffffffffffffffffffffffffffffffffffffffff1602179055506000801b6004819055506000801b6005819055506000600360016101000a81548160ff0219169083600381111561178457611783611f33565b5b02179055506000600360026101000a81548160ff021916908360038111156117af576117ae611f33565b5b0217905550565b600082826040516020016117cb929190611ada565b60405160208183030381529060405280519060200120905092915050565b6000813590506117f881612210565b92915050565b60008135905061180d81612227565b92915050565b6000813590506118228161223e565b92915050565b60006020828403121561183e5761183d611f62565b5b600061184c848285016117e9565b91505092915050565b60006020828403121561186b5761186a611f62565b5b6000611879848285016117fe565b91505092915050565b6000806040838503121561189957611898611f62565b5b60006118a785828601611813565b92505060206118b8858286016117fe565b9150509250929050565b6118cb81611dd0565b82525050565b6118e26118dd82611ddc565b611e90565b82525050565b6118f181611e36565b82525050565b61190081611e48565b82525050565b61190f81611e5a565b82525050565b61191e81611e6c565b82525050565b61192d81611e7e565b82525050565b6000611940601683611d23565b915061194b82611f67565b602082019050919050565b6000611963601983611d23565b915061196e82611f90565b602082019050919050565b6000611986602283611d23565b915061199182611fb9565b604082019050919050565b60006119a9602983611d23565b91506119b482612008565b604082019050919050565b60006119cc601083611d23565b91506119d782612057565b602082019050919050565b60006119ef602d83611d23565b91506119fa82612080565b604082019050919050565b6000611a12601a83611d23565b9150611a1d826120cf565b602082019050919050565b6000611a35601183611d23565b9150611a40826120f8565b602082019050919050565b6000611a58602283611d23565b9150611a6382612121565b604082019050919050565b6000611a7b603083611d23565b9150611a8682612170565b604082019050919050565b6000611a9e601683611d23565b9150611aa9826121bf565b602082019050919050565b611abd81611e2c565b82525050565b611ad4611acf82611e2c565b611e9a565b82525050565b6000611ae68285611ac3565b602082019150611af682846118d1565b6020820191508190509392505050565b6000602082019050611b1b60008301846118c2565b92915050565b6000602082019050611b3660008301846118e8565b92915050565b6000602082019050611b5160008301846118f7565b92915050565b6000602082019050611b6c6000830184611906565b92915050565b6000602082019050611b876000830184611915565b92915050565b6000602082019050611ba26000830184611924565b92915050565b60006020820190508181036000830152611bc181611933565b9050919050565b60006020820190508181036000830152611be181611956565b9050919050565b60006020820190508181036000830152611c0181611979565b9050919050565b60006020820190508181036000830152611c218161199c565b9050919050565b60006020820190508181036000830152611c41816119bf565b9050919050565b60006020820190508181036000830152611c61816119e2565b9050919050565b60006020820190508181036000830152611c8181611a05565b9050919050565b60006020820190508181036000830152611ca181611a28565b9050919050565b60006020820190508181036000830152611cc181611a4b565b9050919050565b60006020820190508181036000830152611ce181611a6e565b9050919050565b60006020820190508181036000830152611d0181611a91565b9050919050565b6000602082019050611d1d6000830184611ab4565b92915050565b600082825260208201905092915050565b6000611d3f82611e2c565b9150611d4a83611e2c565b9250827fffffffffffffffffffffffffffffffffffffffffffffffffffffffffffffffff03821115611d7f57611d7e611ed5565b5b828201905092915050565b6000611d9582611e2c565b9150611da083611e2c565b925082821015611db357611db2611ed5565b5b828203905092915050565b6000611dc982611e0c565b9050919050565b60008115159050919050565b6000819050919050565b6000819050611df4826121e8565b919050565b6000819050611e07826121fc565b919050565b600073ffffffffffffffffffffffffffffffffffffffff82169050919050565b6000819050919050565b6000611e4182611de6565b9050919050565b6000611e5382611df9565b9050919050565b6000611e6582611e2c565b9050919050565b6000611e7782611e2c565b9050919050565b6000611e8982611e2c565b9050919050565b6000819050919050565b6000819050919050565b6000611eaf82611e2c565b9150611eba83611e2c565b925082611eca57611ec9611f04565b5b828206905092915050565b7f4e487b7100000000000000000000000000000000000000000000000000000000600052601160045260246000fd5b7f4e487b7100000000000000000000000000000000000000000000000000000000600052601260045260246000fd5b7f4e487b7100000000000000000000000000000000000000000000000000000000600052602160045260246000fd5b600080fd5b7f50726f626c656d20776974682061646472657373657300000000000000000000600082015250565b7f4e6f74207265676973746572656420706c617965722079657400000000000000600082015250565b7f5468697320706c617965722068617320616c726561647920726567697374657260008201527f6564000000000000000000000000000000000000000000000000000000000000602082015250565b7f4f6e65206f662074686520706c6179657273206f7220626f746820646964206e60008201527f6f7420636f6d6d69740000000000000000000000000000000000000000000000602082015250565b7f496e636f72726563742063686f69636500000000000000000000000000000000600082015250565b7f4f6e65206f662074686520706c6179657273206f7220626f746820646964206e60008201527f6f74207265676973746572656400000000000000000000000000000000000000602082015250565b7f47616d65206861736820776173206e6f742070726f7669646564000000000000600082015250565b7f70726f626c656d20776974682073616c74000000000000000000000000000000600082015250565b7f426574206973206c6f776572207468616e20706f737369626c65206d696e696d60008201527f756d000000000000000000000000000000000000000000000000000000000000602082015250565b7f4f6e6c79206f776e6572206f6620636f6e747261637420697320616c6c6f776560008201527f6420746f2074686973206d6574686f6400000000000000000000000000000000602082015250565b7f50726f626c656d207769746820746865207374616b6500000000000000000000600082015250565b600481106121f9576121f8611f33565b5b50565b6003811061220d5761220c611f33565b5b50565b61221981611dbe565b811461222457600080fd5b50565b61223081611ddc565b811461223b57600080fd5b50565b61224781611e2c565b811461225257600080fd5b5056fea2646970667358221220b533b84d8933c0ee46811735b73a5485d12b15c694d4294d67fc6cc49ac483c164736f6c63430008070033",
			"opcodes": "PUSH1 0x80 PUSH1 0x40 MSTORE CALLVALUE DUP1 ISZERO PUSH2 0x10 JUMPI PUSH1 0x0 DUP1 REVERT JUMPDEST POP PUSH2 0x228B DUP1 PUSH2 0x20 PUSH1 0x0 CODECOPY PUSH1 0x0 RETURN INVALID PUSH1 0x80 PUSH1 0x40 MSTORE PUSH1 0x4 CALLDATASIZE LT PUSH2 0xDD JUMPI PUSH1 0x0 CALLDATALOAD PUSH1 0xE0 SHR DUP1 PUSH4 0x8C10BB96 GT PUSH2 0x7F JUMPI DUP1 PUSH4 0xAF2D2517 GT PUSH2 0x59 JUMPI DUP1 PUSH4 0xAF2D2517 EQ PUSH2 0x2B9 JUMPI DUP1 PUSH4 0xC3C5A547 EQ PUSH2 0x2D0 JUMPI DUP1 PUSH4 0xD9E257EF EQ PUSH2 0x30D JUMPI DUP1 PUSH4 0xE711A812 EQ PUSH2 0x317 JUMPI PUSH2 0xDD JUMP JUMPDEST DUP1 PUSH4 0x8C10BB96 EQ PUSH2 0x214 JUMPI DUP1 PUSH4 0x92C90480 EQ PUSH2 0x251 JUMPI DUP1 PUSH4 0xA9EA37B6 EQ PUSH2 0x27C JUMPI PUSH2 0xDD JUMP JUMPDEST DUP1 PUSH4 0x27793F87 GT PUSH2 0xBB JUMPI DUP1 PUSH4 0x27793F87 EQ PUSH2 0x168 JUMPI DUP1 PUSH4 0x3A4B66F1 EQ PUSH2 0x193 JUMPI DUP1 PUSH4 0x43445CA8 EQ PUSH2 0x1BE JUMPI DUP1 PUSH4 0x6F9FB98A EQ PUSH2 0x1E9 JUMPI PUSH2 0xDD JUMP JUMPDEST DUP1 PUSH4 0x11B0AF15 EQ PUSH2 0xE2 JUMPI DUP1 PUSH4 0x15B80DF8 EQ PUSH2 0x10D JUMPI DUP1 PUSH4 0x20737796 EQ PUSH2 0x14A JUMPI JUMPDEST PUSH1 0x0 DUP1 REVERT JUMPDEST CALLVALUE DUP1 ISZERO PUSH2 0xEE JUMPI PUSH1 0x0 DUP1 REVERT JUMPDEST POP PUSH2 0xF7 PUSH2 0x354 JUMP JUMPDEST PUSH1 0x40 MLOAD PUSH2 0x104 SWAP2 SWAP1 PUSH2 0x1B3C JUMP JUMPDEST PUSH1 0x40 MLOAD DUP1 SWAP2 SUB SWAP1 RETURN JUMPDEST CALLVALUE DUP1 ISZERO PUSH2 0x119 JUMPI PUSH1 0x0 DUP1 REVERT JUMPDEST POP PUSH2 0x134 PUSH1 0x4 DUP1 CALLDATASIZE SUB DUP2 ADD SWAP1 PUSH2 0x12F SWAP2 SWAP1 PUSH2 0x1828 JUMP JUMPDEST PUSH2 0x734 JUMP JUMPDEST PUSH1 0x40 MLOAD PUSH2 0x141 SWAP2 SWAP1 PUSH2 0x1B06 JUMP JUMPDEST PUSH1 0x40 MLOAD DUP1 SWAP2 SUB SWAP1 RETURN JUMPDEST PUSH2 0x152 PUSH2 0x806 JUMP JUMPDEST PUSH1 0x40 MLOAD PUSH2 0x15F SWAP2 SWAP1 PUSH2 0x1D08 JUMP JUMPDEST PUSH1 0x40 MLOAD DUP1 SWAP2 SUB SWAP1 RETURN JUMPDEST CALLVALUE DUP1 ISZERO PUSH2 0x174 JUMPI PUSH1 0x0 DUP1 REVERT JUMPDEST POP PUSH2 0x17D PUSH2 0xB7E JUMP JUMPDEST PUSH1 0x40 MLOAD PUSH2 0x18A SWAP2 SWAP1 PUSH2 0x1B3C JUMP JUMPDEST PUSH1 0x40 MLOAD DUP1 SWAP2 SUB SWAP1 RETURN JUMPDEST CALLVALUE DUP1 ISZERO PUSH2 0x19F JUMPI PUSH1 0x0 DUP1 REVERT JUMPDEST POP PUSH2 0x1A8 PUSH2 0xB91 JUMP JUMPDEST PUSH1 0x40 MLOAD PUSH2 0x1B5 SWAP2 SWAP1 PUSH2 0x1D08 JUMP JUMPDEST PUSH1 0x40 MLOAD DUP1 SWAP2 SUB SWAP1 RETURN JUMPDEST CALLVALUE DUP1 ISZERO PUSH2 0x1CA JUMPI PUSH1 0x0 DUP1 REVERT JUMPDEST POP PUSH2 0x1D3 PUSH2 0xB97 JUMP JUMPDEST PUSH1 0x40 MLOAD PUSH2 0x1E0 SWAP2 SWAP1 PUSH2 0x1B06 JUMP JUMPDEST PUSH1 0x40 MLOAD DUP1 SWAP2 SUB SWAP1 RETURN JUMPDEST CALLVALUE DUP1 ISZERO PUSH2 0x1F5 JUMPI PUSH1 0x0 DUP1 REVERT JUMPDEST POP PUSH2 0x1FE PUSH2 0xC15 JUMP JUMPDEST PUSH1 0x40 MLOAD PUSH2 0x20B SWAP2 SWAP1 PUSH2 0x1D08 JUMP JUMPDEST PUSH1 0x40 MLOAD DUP1 SWAP2 SUB SWAP1 RETURN JUMPDEST CALLVALUE DUP1 ISZERO PUSH2 0x220 JUMPI PUSH1 0x0 DUP1 REVERT JUMPDEST POP PUSH2 0x23B PUSH1 0x4 DUP1 CALLDATASIZE SUB DUP2 ADD SWAP1 PUSH2 0x236 SWAP2 SWAP1 PUSH2 0x1882 JUMP JUMPDEST PUSH2 0xC1D JUMP JUMPDEST PUSH1 0x40 MLOAD PUSH2 0x248 SWAP2 SWAP1 PUSH2 0x1B21 JUMP JUMPDEST PUSH1 0x40 MLOAD DUP1 SWAP2 SUB SWAP1 RETURN JUMPDEST CALLVALUE DUP1 ISZERO PUSH2 0x25D JUMPI PUSH1 0x0 DUP1 REVERT JUMPDEST POP PUSH2 0x266 PUSH2 0x1069 JUMP JUMPDEST PUSH1 0x40 MLOAD PUSH2 0x273 SWAP2 SWAP1 PUSH2 0x1B06 JUMP JUMPDEST PUSH1 0x40 MLOAD DUP1 SWAP2 SUB SWAP1 RETURN JUMPDEST CALLVALUE DUP1 ISZERO PUSH2 0x288 JUMPI PUSH1 0x0 DUP1 REVERT JUMPDEST POP PUSH2 0x2A3 PUSH1 0x4 DUP1 CALLDATASIZE SUB DUP2 ADD SWAP1 PUSH2 0x29E SWAP2 SWAP1 PUSH2 0x1855 JUMP JUMPDEST PUSH2 0x108A JUMP JUMPDEST PUSH1 0x40 MLOAD PUSH2 0x2B0 SWAP2 SWAP1 PUSH2 0x1B06 JUMP JUMPDEST PUSH1 0x40 MLOAD DUP1 SWAP2 SUB SWAP1 RETURN JUMPDEST CALLVALUE DUP1 ISZERO PUSH2 0x2C5 JUMPI PUSH1 0x0 DUP1 REVERT JUMPDEST POP PUSH2 0x2CE PUSH2 0x131F JUMP JUMPDEST STOP JUMPDEST CALLVALUE DUP1 ISZERO PUSH2 0x2DC JUMPI PUSH1 0x0 DUP1 REVERT JUMPDEST POP PUSH2 0x2F7 PUSH1 0x4 DUP1 CALLDATASIZE SUB DUP2 ADD SWAP1 PUSH2 0x2F2 SWAP2 SWAP1 PUSH2 0x1828 JUMP JUMPDEST PUSH2 0x13AB JUMP JUMPDEST PUSH1 0x40 MLOAD PUSH2 0x304 SWAP2 SWAP1 PUSH2 0x1B06 JUMP JUMPDEST PUSH1 0x40 MLOAD DUP1 SWAP2 SUB SWAP1 RETURN JUMPDEST PUSH2 0x315 PUSH2 0x145B JUMP JUMPDEST STOP JUMPDEST CALLVALUE DUP1 ISZERO PUSH2 0x323 JUMPI PUSH1 0x0 DUP1 REVERT JUMPDEST POP PUSH2 0x33E PUSH1 0x4 DUP1 CALLDATASIZE SUB DUP2 ADD SWAP1 PUSH2 0x339 SWAP2 SWAP1 PUSH2 0x1828 JUMP JUMPDEST PUSH2 0x158F JUMP JUMPDEST PUSH1 0x40 MLOAD PUSH2 0x34B SWAP2 SWAP1 PUSH2 0x1B06 JUMP JUMPDEST PUSH1 0x40 MLOAD DUP1 SWAP2 SUB SWAP1 RETURN JUMPDEST PUSH1 0x0 DUP1 PUSH1 0x3 DUP2 GT ISZERO PUSH2 0x369 JUMPI PUSH2 0x368 PUSH2 0x1F33 JUMP JUMPDEST JUMPDEST PUSH1 0x3 PUSH1 0x1 SWAP1 SLOAD SWAP1 PUSH2 0x100 EXP SWAP1 DIV PUSH1 0xFF AND PUSH1 0x3 DUP2 GT ISZERO PUSH2 0x38B JUMPI PUSH2 0x38A PUSH2 0x1F33 JUMP JUMPDEST JUMPDEST EQ ISZERO DUP1 ISZERO PUSH2 0x3CD JUMPI POP PUSH1 0x0 PUSH1 0x3 DUP2 GT ISZERO PUSH2 0x3A8 JUMPI PUSH2 0x3A7 PUSH2 0x1F33 JUMP JUMPDEST JUMPDEST PUSH1 0x3 PUSH1 0x2 SWAP1 SLOAD SWAP1 PUSH2 0x100 EXP SWAP1 DIV PUSH1 0xFF AND PUSH1 0x3 DUP2 GT ISZERO PUSH2 0x3CA JUMPI PUSH2 0x3C9 PUSH2 0x1F33 JUMP JUMPDEST JUMPDEST EQ ISZERO JUMPDEST PUSH2 0x40C JUMPI PUSH1 0x40 MLOAD PUSH32 0x8C379A000000000000000000000000000000000000000000000000000000000 DUP2 MSTORE PUSH1 0x4 ADD PUSH2 0x403 SWAP1 PUSH2 0x1C08 JUMP JUMPDEST PUSH1 0x40 MLOAD DUP1 SWAP2 SUB SWAP1 REVERT JUMPDEST PUSH1 0x3 DUP1 PUSH1 0x2 SWAP1 SLOAD SWAP1 PUSH2 0x100 EXP SWAP1 DIV PUSH1 0xFF AND PUSH1 0x3 DUP2 GT ISZERO PUSH2 0x42F JUMPI PUSH2 0x42E PUSH2 0x1F33 JUMP JUMPDEST JUMPDEST PUSH1 0x3 PUSH1 0x1 SWAP1 SLOAD SWAP1 PUSH2 0x100 EXP SWAP1 DIV PUSH1 0xFF AND PUSH1 0x3 DUP2 GT ISZERO PUSH2 0x451 JUMPI PUSH2 0x450 PUSH2 0x1F33 JUMP JUMPDEST JUMPDEST PUSH1 0x3 PUSH2 0x45D SWAP2 SWAP1 PUSH2 0x1D34 JUMP JUMPDEST PUSH2 0x467 SWAP2 SWAP1 PUSH2 0x1D8A JUMP JUMPDEST PUSH2 0x471 SWAP2 SWAP1 PUSH2 0x1EA4 JUMP JUMPDEST PUSH1 0x2 DUP2 GT ISZERO PUSH2 0x483 JUMPI PUSH2 0x482 PUSH2 0x1F33 JUMP JUMPDEST JUMPDEST PUSH1 0x3 PUSH1 0x0 PUSH2 0x100 EXP DUP2 SLOAD DUP2 PUSH1 0xFF MUL NOT AND SWAP1 DUP4 PUSH1 0x2 DUP2 GT ISZERO PUSH2 0x4A7 JUMPI PUSH2 0x4A6 PUSH2 0x1F33 JUMP JUMPDEST JUMPDEST MUL OR SWAP1 SSTORE POP PUSH1 0x1 PUSH1 0x2 DUP2 GT ISZERO PUSH2 0x4C0 JUMPI PUSH2 0x4BF PUSH2 0x1F33 JUMP JUMPDEST JUMPDEST PUSH1 0x3 PUSH1 0x0 SWAP1 SLOAD SWAP1 PUSH2 0x100 EXP SWAP1 DIV PUSH1 0xFF AND PUSH1 0x2 DUP2 GT ISZERO PUSH2 0x4E2 JUMPI PUSH2 0x4E1 PUSH2 0x1F33 JUMP JUMPDEST JUMPDEST EQ ISZERO PUSH2 0x554 JUMPI PUSH1 0x0 DUP1 SLOAD SWAP1 PUSH2 0x100 EXP SWAP1 DIV PUSH20 0xFFFFFFFFFFFFFFFFFFFFFFFFFFFFFFFFFFFFFFFF AND PUSH20 0xFFFFFFFFFFFFFFFFFFFFFFFFFFFFFFFFFFFFFFFF AND PUSH2 0x8FC SELFBALANCE SWAP1 DUP2 ISZERO MUL SWAP1 PUSH1 0x40 MLOAD PUSH1 0x0 PUSH1 0x40 MLOAD DUP1 DUP4 SUB DUP2 DUP6 DUP9 DUP9 CALL SWAP4 POP POP POP POP ISZERO DUP1 ISZERO PUSH2 0x54E JUMPI RETURNDATASIZE PUSH1 0x0 DUP1 RETURNDATACOPY RETURNDATASIZE PUSH1 0x0 REVERT JUMPDEST POP PUSH2 0x6D1 JUMP JUMPDEST PUSH1 0x2 DUP1 DUP2 GT ISZERO PUSH2 0x567 JUMPI PUSH2 0x566 PUSH2 0x1F33 JUMP JUMPDEST JUMPDEST PUSH1 0x3 PUSH1 0x0 SWAP1 SLOAD SWAP1 PUSH2 0x100 EXP SWAP1 DIV PUSH1 0xFF AND PUSH1 0x2 DUP2 GT ISZERO PUSH2 0x589 JUMPI PUSH2 0x588 PUSH2 0x1F33 JUMP JUMPDEST JUMPDEST EQ ISZERO PUSH2 0x5FD JUMPI PUSH1 0x1 PUSH1 0x0 SWAP1 SLOAD SWAP1 PUSH2 0x100 EXP SWAP1 DIV PUSH20 0xFFFFFFFFFFFFFFFFFFFFFFFFFFFFFFFFFFFFFFFF AND PUSH20 0xFFFFFFFFFFFFFFFFFFFFFFFFFFFFFFFFFFFFFFFF AND PUSH2 0x8FC SELFBALANCE SWAP1 DUP2 ISZERO MUL SWAP1 PUSH1 0x40 MLOAD PUSH1 0x0 PUSH1 0x40 MLOAD DUP1 DUP4 SUB DUP2 DUP6 DUP9 DUP9 CALL SWAP4 POP POP POP POP ISZERO DUP1 ISZERO PUSH2 0x5F7 JUMPI RETURNDATASIZE PUSH1 0x0 DUP1 RETURNDATACOPY RETURNDATASIZE PUSH1 0x0 REVERT JUMPDEST POP PUSH2 0x6D0 JUMP JUMPDEST PUSH1 0x0 DUP1 SLOAD SWAP1 PUSH2 0x100 EXP SWAP1 DIV PUSH20 0xFFFFFFFFFFFFFFFFFFFFFFFFFFFFFFFFFFFFFFFF AND PUSH20 0xFFFFFFFFFFFFFFFFFFFFFFFFFFFFFFFFFFFFFFFF AND PUSH2 0x8FC PUSH1 0x2 SLOAD SWAP1 DUP2 ISZERO MUL SWAP1 PUSH1 0x40 MLOAD PUSH1 0x0 PUSH1 0x40 MLOAD DUP1 DUP4 SUB DUP2 DUP6 DUP9 DUP9 CALL SWAP4 POP POP POP POP ISZERO DUP1 ISZERO PUSH2 0x665 JUMPI RETURNDATASIZE PUSH1 0x0 DUP1 RETURNDATACOPY RETURNDATASIZE PUSH1 0x0 REVERT JUMPDEST POP PUSH1 0x1 PUSH1 0x0 SWAP1 SLOAD SWAP1 PUSH2 0x100 EXP SWAP1 DIV PUSH20 0xFFFFFFFFFFFFFFFFFFFFFFFFFFFFFFFFFFFFFFFF AND PUSH20 0xFFFFFFFFFFFFFFFFFFFFFFFFFFFFFFFFFFFFFFFF AND PUSH2 0x8FC SELFBALANCE SWAP1 DUP2 ISZERO MUL SWAP1 PUSH1 0x40 MLOAD PUSH1 0x0 PUSH1 0x40 MLOAD DUP1 DUP4 SUB DUP2 DUP6 DUP9 DUP9 CALL SWAP4 POP POP POP POP ISZERO DUP1 ISZERO PUSH2 0x6CE JUMPI RETURNDATASIZE PUSH1 0x0 DUP1 RETURNDATACOPY RETURNDATASIZE PUSH1 0x0 REVERT JUMPDEST POP JUMPDEST JUMPDEST PUSH2 0x6D9 PUSH2 0x16BF JUMP JUMPDEST PUSH32 0x6D1A16000380C9ADDE391BCB46A92C2CE8C46811CFF002ED5DEC38DFDC2373CD PUSH1 0x3 PUSH1 0x0 SWAP1 SLOAD SWAP1 PUSH2 0x100 EXP SWAP1 DIV PUSH1 0xFF AND PUSH1 0x40 MLOAD PUSH2 0x717 SWAP2 SWAP1 PUSH2 0x1B3C JUMP JUMPDEST PUSH1 0x40 MLOAD DUP1 SWAP2 SUB SWAP1 LOG1 PUSH1 0x3 PUSH1 0x0 SWAP1 SLOAD SWAP1 PUSH2 0x100 EXP SWAP1 DIV PUSH1 0xFF AND SWAP1 POP SWAP1 JUMP JUMPDEST PUSH1 0x0 DUP2 PUSH20 0xFFFFFFFFFFFFFFFFFFFFFFFFFFFFFFFFFFFFFFFF AND PUSH1 0x0 DUP1 SLOAD SWAP1 PUSH2 0x100 EXP SWAP1 DIV PUSH20 0xFFFFFFFFFFFFFFFFFFFFFFFFFFFFFFFFFFFFFFFF AND PUSH20 0xFFFFFFFFFFFFFFFFFFFFFFFFFFFFFFFFFFFFFFFF AND EQ DUP1 ISZERO PUSH2 0x796 JUMPI POP PUSH1 0x0 DUP1 SHL PUSH1 0x4 SLOAD EQ ISZERO JUMPDEST DUP1 PUSH2 0x7FF JUMPI POP DUP2 PUSH20 0xFFFFFFFFFFFFFFFFFFFFFFFFFFFFFFFFFFFFFFFF AND PUSH1 0x1 PUSH1 0x0 SWAP1 SLOAD SWAP1 PUSH2 0x100 EXP SWAP1 DIV PUSH20 0xFFFFFFFFFFFFFFFFFFFFFFFFFFFFFFFFFFFFFFFF AND PUSH20 0xFFFFFFFFFFFFFFFFFFFFFFFFFFFFFFFFFFFFFFFF AND EQ DUP1 ISZERO PUSH2 0x7FE JUMPI POP PUSH1 0x0 DUP1 SHL PUSH1 0x5 SLOAD EQ ISZERO JUMPDEST JUMPDEST SWAP1 POP SWAP2 SWAP1 POP JUMP JUMPDEST PUSH1 0x0 PUSH2 0x3E8 CALLVALUE LT ISZERO PUSH2 0x84D JUMPI PUSH1 0x40 MLOAD PUSH32 0x8C379A000000000000000000000000000000000000000000000000000000000 DUP2 MSTORE PUSH1 0x4 ADD PUSH2 0x844 SWAP1 PUSH2 0x1CA8 JUMP JUMPDEST PUSH1 0x40 MLOAD DUP1 SWAP2 SUB SWAP1 REVERT JUMPDEST PUSH1 0x0 PUSH1 0x2 SLOAD EQ DUP1 PUSH2 0x860 JUMPI POP PUSH1 0x2 SLOAD CALLVALUE LT ISZERO JUMPDEST PUSH2 0x89F JUMPI PUSH1 0x40 MLOAD PUSH32 0x8C379A000000000000000000000000000000000000000000000000000000000 DUP2 MSTORE PUSH1 0x4 ADD PUSH2 0x896 SWAP1 PUSH2 0x1CE8 JUMP JUMPDEST PUSH1 0x40 MLOAD DUP1 SWAP2 SUB SWAP1 REVERT JUMPDEST PUSH1 0x0 DUP1 SLOAD SWAP1 PUSH2 0x100 EXP SWAP1 DIV PUSH20 0xFFFFFFFFFFFFFFFFFFFFFFFFFFFFFFFFFFFFFFFF AND PUSH20 0xFFFFFFFFFFFFFFFFFFFFFFFFFFFFFFFFFFFFFFFF AND CALLER PUSH20 0xFFFFFFFFFFFFFFFFFFFFFFFFFFFFFFFFFFFFFFFF AND EQ ISZERO DUP1 ISZERO PUSH2 0x949 JUMPI POP PUSH1 0x1 PUSH1 0x0 SWAP1 SLOAD SWAP1 PUSH2 0x100 EXP SWAP1 DIV PUSH20 0xFFFFFFFFFFFFFFFFFFFFFFFFFFFFFFFFFFFFFFFF AND PUSH20 0xFFFFFFFFFFFFFFFFFFFFFFFFFFFFFFFFFFFFFFFF AND CALLER PUSH20 0xFFFFFFFFFFFFFFFFFFFFFFFFFFFFFFFFFFFFFFFF AND EQ ISZERO JUMPDEST PUSH2 0x988 JUMPI PUSH1 0x40 MLOAD PUSH32 0x8C379A000000000000000000000000000000000000000000000000000000000 DUP2 MSTORE PUSH1 0x4 ADD PUSH2 0x97F SWAP1 PUSH2 0x1BE8 JUMP JUMPDEST PUSH1 0x40 MLOAD DUP1 SWAP2 SUB SWAP1 REVERT JUMPDEST PUSH1 0x0 PUSH20 0xFFFFFFFFFFFFFFFFFFFFFFFFFFFFFFFFFFFFFFFF AND PUSH1 0x0 DUP1 SLOAD SWAP1 PUSH2 0x100 EXP SWAP1 DIV PUSH20 0xFFFFFFFFFFFFFFFFFFFFFFFFFFFFFFFFFFFFFFFF AND PUSH20 0xFFFFFFFFFFFFFFFFFFFFFFFFFFFFFFFFFFFFFFFF AND EQ ISZERO PUSH2 0xA65 JUMPI CALLER PUSH1 0x0 DUP1 PUSH2 0x100 EXP DUP2 SLOAD DUP2 PUSH20 0xFFFFFFFFFFFFFFFFFFFFFFFFFFFFFFFFFFFFFFFF MUL NOT AND SWAP1 DUP4 PUSH20 0xFFFFFFFFFFFFFFFFFFFFFFFFFFFFFFFFFFFFFFFF AND MUL OR SWAP1 SSTORE POP CALLVALUE PUSH1 0x2 DUP2 SWAP1 SSTORE POP PUSH32 0x982CDDADD143916F714D5E4CDB1FDBF71A3A44C802807791F444525464AD42AD PUSH1 0x1 PUSH1 0x40 MLOAD PUSH2 0xA54 SWAP2 SWAP1 PUSH2 0x1B72 JUMP JUMPDEST PUSH1 0x40 MLOAD DUP1 SWAP2 SUB SWAP1 LOG1 PUSH1 0x1 SWAP1 POP PUSH2 0xB7B JUMP JUMPDEST PUSH1 0x0 PUSH20 0xFFFFFFFFFFFFFFFFFFFFFFFFFFFFFFFFFFFFFFFF AND PUSH1 0x1 PUSH1 0x0 SWAP1 SLOAD SWAP1 PUSH2 0x100 EXP SWAP1 DIV PUSH20 0xFFFFFFFFFFFFFFFFFFFFFFFFFFFFFFFFFFFFFFFF AND PUSH20 0xFFFFFFFFFFFFFFFFFFFFFFFFFFFFFFFFFFFFFFFF AND EQ ISZERO PUSH2 0xB3E JUMPI CALLER PUSH1 0x1 PUSH1 0x0 PUSH2 0x100 EXP DUP2 SLOAD DUP2 PUSH20 0xFFFFFFFFFFFFFFFFFFFFFFFFFFFFFFFFFFFFFFFF MUL NOT AND SWAP1 DUP4 PUSH20 0xFFFFFFFFFFFFFFFFFFFFFFFFFFFFFFFFFFFFFFFF AND MUL OR SWAP1 SSTORE POP PUSH32 0x982CDDADD143916F714D5E4CDB1FDBF71A3A44C802807791F444525464AD42AD PUSH1 0x2 PUSH1 0x40 MLOAD PUSH2 0xB2D SWAP2 SWAP1 PUSH2 0x1B8D JUMP JUMPDEST PUSH1 0x40 MLOAD DUP1 SWAP2 SUB SWAP1 LOG1 PUSH1 0x2 SWAP1 POP PUSH2 0xB7B JUMP JUMPDEST PUSH32 0x982CDDADD143916F714D5E4CDB1FDBF71A3A44C802807791F444525464AD42AD PUSH1 0x0 PUSH1 0x40 MLOAD PUSH2 0xB6E SWAP2 SWAP1 PUSH2 0x1B57 JUMP JUMPDEST PUSH1 0x40 MLOAD DUP1 SWAP2 SUB SWAP1 LOG1 PUSH1 0x0 SWAP1 POP JUMPDEST SWAP1 JUMP JUMPDEST PUSH1 0x3 PUSH1 0x0 SWAP1 SLOAD SWAP1 PUSH2 0x100 EXP SWAP1 DIV PUSH1 0xFF AND DUP2 JUMP JUMPDEST PUSH1 0x2 SLOAD DUP2 JUMP JUMPDEST PUSH1 0x0 DUP1 PUSH1 0x3 DUP2 GT ISZERO PUSH2 0xBAC JUMPI PUSH2 0xBAB PUSH2 0x1F33 JUMP JUMPDEST JUMPDEST PUSH1 0x3 PUSH1 0x1 SWAP1 SLOAD SWAP1 PUSH2 0x100 EXP SWAP1 DIV PUSH1 0xFF AND PUSH1 0x3 DUP2 GT ISZERO PUSH2 0xBCE JUMPI PUSH2 0xBCD PUSH2 0x1F33 JUMP JUMPDEST JUMPDEST EQ ISZERO DUP1 ISZERO PUSH2 0xC10 JUMPI POP PUSH1 0x0 PUSH1 0x3 DUP2 GT ISZERO PUSH2 0xBEB JUMPI PUSH2 0xBEA PUSH2 0x1F33 JUMP JUMPDEST JUMPDEST PUSH1 0x3 PUSH1 0x2 SWAP1 SLOAD SWAP1 PUSH2 0x100 EXP SWAP1 DIV PUSH1 0xFF AND PUSH1 0x3 DUP2 GT ISZERO PUSH2 0xC0D JUMPI PUSH2 0xC0C PUSH2 0x1F33 JUMP JUMPDEST JUMPDEST EQ ISZERO JUMPDEST SWAP1 POP SWAP1 JUMP JUMPDEST PUSH1 0x0 SELFBALANCE SWAP1 POP SWAP1 JUMP JUMPDEST PUSH1 0x0 DUP1 PUSH1 0x0 SWAP1 SLOAD SWAP1 PUSH2 0x100 EXP SWAP1 DIV PUSH20 0xFFFFFFFFFFFFFFFFFFFFFFFFFFFFFFFFFFFFFFFF AND PUSH20 0xFFFFFFFFFFFFFFFFFFFFFFFFFFFFFFFFFFFFFFFF AND CALLER PUSH20 0xFFFFFFFFFFFFFFFFFFFFFFFFFFFFFFFFFFFFFFFF AND EQ DUP1 PUSH2 0xCC7 JUMPI POP PUSH1 0x1 PUSH1 0x0 SWAP1 SLOAD SWAP1 PUSH2 0x100 EXP SWAP1 DIV PUSH20 0xFFFFFFFFFFFFFFFFFFFFFFFFFFFFFFFFFFFFFFFF AND PUSH20 0xFFFFFFFFFFFFFFFFFFFFFFFFFFFFFFFFFFFFFFFF AND CALLER PUSH20 0xFFFFFFFFFFFFFFFFFFFFFFFFFFFFFFFFFFFFFFFF AND EQ JUMPDEST PUSH2 0xD06 JUMPI PUSH1 0x40 MLOAD PUSH32 0x8C379A000000000000000000000000000000000000000000000000000000000 DUP2 MSTORE PUSH1 0x4 ADD PUSH2 0xCFD SWAP1 PUSH2 0x1BC8 JUMP JUMPDEST PUSH1 0x40 MLOAD DUP1 SWAP2 SUB SWAP1 REVERT JUMPDEST DUP3 PUSH1 0x1 DUP2 LT ISZERO DUP1 ISZERO PUSH2 0xD19 JUMPI POP PUSH1 0x3 DUP2 GT ISZERO JUMPDEST PUSH2 0xD58 JUMPI PUSH1 0x40 MLOAD PUSH32 0x8C379A000000000000000000000000000000000000000000000000000000000 DUP2 MSTORE PUSH1 0x4 ADD PUSH2 0xD4F SWAP1 PUSH2 0x1C28 JUMP JUMPDEST PUSH1 0x40 MLOAD DUP1 SWAP2 SUB SWAP1 REVERT JUMPDEST PUSH1 0x0 DUP1 SHL PUSH1 0x4 SLOAD EQ ISZERO DUP1 ISZERO PUSH2 0xD72 JUMPI POP PUSH1 0x0 DUP1 SHL PUSH1 0x5 SLOAD EQ ISZERO JUMPDEST PUSH2 0xDB1 JUMPI PUSH1 0x40 MLOAD PUSH32 0x8C379A000000000000000000000000000000000000000000000000000000000 DUP2 MSTORE PUSH1 0x4 ADD PUSH2 0xDA8 SWAP1 PUSH2 0x1C48 JUMP JUMPDEST PUSH1 0x40 MLOAD DUP1 SWAP2 SUB SWAP1 REVERT JUMPDEST CALLER PUSH20 0xFFFFFFFFFFFFFFFFFFFFFFFFFFFFFFFFFFFFFFFF AND PUSH1 0x0 DUP1 SLOAD SWAP1 PUSH2 0x100 EXP SWAP1 DIV PUSH20 0xFFFFFFFFFFFFFFFFFFFFFFFFFFFFFFFFFFFFFFFF AND PUSH20 0xFFFFFFFFFFFFFFFFFFFFFFFFFFFFFFFFFFFFFFFF AND EQ ISZERO PUSH2 0xEEB JUMPI PUSH2 0xE0F DUP5 DUP5 PUSH2 0x17B6 JUMP JUMPDEST PUSH1 0x4 SLOAD EQ PUSH2 0xE52 JUMPI PUSH1 0x40 MLOAD PUSH32 0x8C379A000000000000000000000000000000000000000000000000000000000 DUP2 MSTORE PUSH1 0x4 ADD PUSH2 0xE49 SWAP1 PUSH2 0x1C88 JUMP JUMPDEST PUSH1 0x40 MLOAD DUP1 SWAP2 SUB SWAP1 REVERT JUMPDEST DUP4 PUSH1 0x3 DUP2 GT ISZERO PUSH2 0xE65 JUMPI PUSH2 0xE64 PUSH2 0x1F33 JUMP JUMPDEST JUMPDEST PUSH1 0x3 PUSH1 0x1 PUSH2 0x100 EXP DUP2 SLOAD DUP2 PUSH1 0xFF MUL NOT AND SWAP1 DUP4 PUSH1 0x3 DUP2 GT ISZERO PUSH2 0xE89 JUMPI PUSH2 0xE88 PUSH2 0x1F33 JUMP JUMPDEST JUMPDEST MUL OR SWAP1 SSTORE POP PUSH32 0x47C7ACBD4D57F5DBC1F9E9D1F9E0899016B547AFBAD29E7A416A892B44898E97 PUSH1 0x3 PUSH1 0x1 SWAP1 SLOAD SWAP1 PUSH2 0x100 EXP SWAP1 DIV PUSH1 0xFF AND PUSH1 0x40 MLOAD PUSH2 0xECC SWAP2 SWAP1 PUSH2 0x1B21 JUMP JUMPDEST PUSH1 0x40 MLOAD DUP1 SWAP2 SUB SWAP1 LOG1 PUSH1 0x3 PUSH1 0x1 SWAP1 SLOAD SWAP1 PUSH2 0x100 EXP SWAP1 DIV PUSH1 0xFF AND SWAP2 POP PUSH2 0x1062 JUMP JUMPDEST CALLER PUSH20 0xFFFFFFFFFFFFFFFFFFFFFFFFFFFFFFFFFFFFFFFF AND PUSH1 0x1 PUSH1 0x0 SWAP1 SLOAD SWAP1 PUSH2 0x100 EXP SWAP1 DIV PUSH20 0xFFFFFFFFFFFFFFFFFFFFFFFFFFFFFFFFFFFFFFFF AND PUSH20 0xFFFFFFFFFFFFFFFFFFFFFFFFFFFFFFFFFFFFFFFF AND EQ ISZERO PUSH2 0x1027 JUMPI PUSH2 0xF4B DUP5 DUP5 PUSH2 0x17B6 JUMP JUMPDEST PUSH1 0x5 SLOAD EQ PUSH2 0xF8E JUMPI PUSH1 0x40 MLOAD PUSH32 0x8C379A000000000000000000000000000000000000000000000000000000000 DUP2 MSTORE PUSH1 0x4 ADD PUSH2 0xF85 SWAP1 PUSH2 0x1C88 JUMP JUMPDEST PUSH1 0x40 MLOAD DUP1 SWAP2 SUB SWAP1 REVERT JUMPDEST DUP4 PUSH1 0x3 DUP2 GT ISZERO PUSH2 0xFA1 JUMPI PUSH2 0xFA0 PUSH2 0x1F33 JUMP JUMPDEST JUMPDEST PUSH1 0x3 PUSH1 0x2 PUSH2 0x100 EXP DUP2 SLOAD DUP2 PUSH1 0xFF MUL NOT AND SWAP1 DUP4 PUSH1 0x3 DUP2 GT ISZERO PUSH2 0xFC5 JUMPI PUSH2 0xFC4 PUSH2 0x1F33 JUMP JUMPDEST JUMPDEST MUL OR SWAP1 SSTORE POP PUSH32 0x47C7ACBD4D57F5DBC1F9E9D1F9E0899016B547AFBAD29E7A416A892B44898E97 PUSH1 0x3 PUSH1 0x2 SWAP1 SLOAD SWAP1 PUSH2 0x100 EXP SWAP1 DIV PUSH1 0xFF AND PUSH1 0x40 MLOAD PUSH2 0x1008 SWAP2 SWAP1 PUSH2 0x1B21 JUMP JUMPDEST PUSH1 0x40 MLOAD DUP1 SWAP2 SUB SWAP1 LOG1 PUSH1 0x3 PUSH1 0x2 SWAP1 SLOAD SWAP1 PUSH2 0x100 EXP SWAP1 DIV PUSH1 0xFF AND SWAP2 POP PUSH2 0x1062 JUMP JUMPDEST PUSH1 0x40 MLOAD PUSH32 0x8C379A000000000000000000000000000000000000000000000000000000000 DUP2 MSTORE PUSH1 0x4 ADD PUSH2 0x1059 SWAP1 PUSH2 0x1BA8 JUMP JUMPDEST PUSH1 0x40 MLOAD DUP1 SWAP2 SUB SWAP1 REVERT JUMPDEST POP SWAP3 SWAP2 POP POP JUMP JUMPDEST PUSH1 0x0 DUP1 PUSH1 0x0 SHL PUSH1 0x4 SLOAD EQ ISZERO DUP1 ISZERO PUSH2 0x1085 JUMPI POP PUSH1 0x0 DUP1 SHL PUSH1 0x5 SLOAD EQ ISZERO JUMPDEST SWAP1 POP SWAP1 JUMP JUMPDEST PUSH1 0x0 DUP1 PUSH1 0x0 SWAP1 SLOAD SWAP1 PUSH2 0x100 EXP SWAP1 DIV PUSH20 0xFFFFFFFFFFFFFFFFFFFFFFFFFFFFFFFFFFFFFFFF AND PUSH20 0xFFFFFFFFFFFFFFFFFFFFFFFFFFFFFFFFFFFFFFFF AND CALLER PUSH20 0xFFFFFFFFFFFFFFFFFFFFFFFFFFFFFFFFFFFFFFFF AND EQ DUP1 PUSH2 0x1134 JUMPI POP PUSH1 0x1 PUSH1 0x0 SWAP1 SLOAD SWAP1 PUSH2 0x100 EXP SWAP1 DIV PUSH20 0xFFFFFFFFFFFFFFFFFFFFFFFFFFFFFFFFFFFFFFFF AND PUSH20 0xFFFFFFFFFFFFFFFFFFFFFFFFFFFFFFFFFFFFFFFF AND CALLER PUSH20 0xFFFFFFFFFFFFFFFFFFFFFFFFFFFFFFFFFFFFFFFF AND EQ JUMPDEST PUSH2 0x1173 JUMPI PUSH1 0x40 MLOAD PUSH32 0x8C379A000000000000000000000000000000000000000000000000000000000 DUP2 MSTORE PUSH1 0x4 ADD PUSH2 0x116A SWAP1 PUSH2 0x1BC8 JUMP JUMPDEST PUSH1 0x40 MLOAD DUP1 SWAP2 SUB SWAP1 REVERT JUMPDEST DUP2 PUSH1 0x0 DUP2 EQ ISZERO PUSH2 0x11B8 JUMPI PUSH1 0x40 MLOAD PUSH32 0x8C379A000000000000000000000000000000000000000000000000000000000 DUP2 MSTORE PUSH1 0x4 ADD PUSH2 0x11AF SWAP1 PUSH2 0x1C68 JUMP JUMPDEST PUSH1 0x40 MLOAD DUP1 SWAP2 SUB SWAP1 REVERT JUMPDEST PUSH1 0x0 DUP1 SLOAD SWAP1 PUSH2 0x100 EXP SWAP1 DIV PUSH20 0xFFFFFFFFFFFFFFFFFFFFFFFFFFFFFFFFFFFFFFFF AND PUSH20 0xFFFFFFFFFFFFFFFFFFFFFFFFFFFFFFFFFFFFFFFF AND CALLER PUSH20 0xFFFFFFFFFFFFFFFFFFFFFFFFFFFFFFFFFFFFFFFF AND EQ DUP1 ISZERO PUSH2 0x1217 JUMPI POP PUSH1 0x0 DUP1 SHL PUSH1 0x4 SLOAD EQ JUMPDEST ISZERO PUSH2 0x1228 JUMPI DUP3 PUSH1 0x4 DUP2 SWAP1 SSTORE POP PUSH2 0x12DC JUMP JUMPDEST PUSH1 0x1 PUSH1 0x0 SWAP1 SLOAD SWAP1 PUSH2 0x100 EXP SWAP1 DIV PUSH20 0xFFFFFFFFFFFFFFFFFFFFFFFFFFFFFFFFFFFFFFFF AND PUSH20 0xFFFFFFFFFFFFFFFFFFFFFFFFFFFFFFFFFFFFFFFF AND CALLER PUSH20 0xFFFFFFFFFFFFFFFFFFFFFFFFFFFFFFFFFFFFFFFF AND EQ DUP1 ISZERO PUSH2 0x1289 JUMPI POP PUSH1 0x0 DUP1 SHL PUSH1 0x5 SLOAD EQ JUMPDEST ISZERO PUSH2 0x129A JUMPI DUP3 PUSH1 0x5 DUP2 SWAP1 SSTORE POP PUSH2 0x12DB JUMP JUMPDEST PUSH32 0xD0E0EEE22AF482D2B75B0FACF637B601C155F06C6F143B473711527A01110F84 PUSH1 0x0 PUSH1 0x40 MLOAD PUSH2 0x12CA SWAP2 SWAP1 PUSH2 0x1B06 JUMP JUMPDEST PUSH1 0x40 MLOAD DUP1 SWAP2 SUB SWAP1 LOG1 PUSH1 0x0 SWAP2 POP PUSH2 0x1319 JUMP JUMPDEST JUMPDEST PUSH32 0xD0E0EEE22AF482D2B75B0FACF637B601C155F06C6F143B473711527A01110F84 PUSH1 0x1 PUSH1 0x40 MLOAD PUSH2 0x130C SWAP2 SWAP1 PUSH2 0x1B06 JUMP JUMPDEST PUSH1 0x40 MLOAD DUP1 SWAP2 SUB SWAP1 LOG1 PUSH1 0x1 SWAP2 POP JUMPDEST POP SWAP2 SWAP1 POP JUMP JUMPDEST PUSH20 0x91CDA83C363A6F72F81A2041836B1E79B4A01AB1 PUSH20 0xFFFFFFFFFFFFFFFFFFFFFFFFFFFFFFFFFFFFFFFF AND CALLER PUSH20 0xFFFFFFFFFFFFFFFFFFFFFFFFFFFFFFFFFFFFFFFF AND EQ PUSH2 0x13A1 JUMPI PUSH1 0x40 MLOAD PUSH32 0x8C379A000000000000000000000000000000000000000000000000000000000 DUP2 MSTORE PUSH1 0x4 ADD PUSH2 0x1398 SWAP1 PUSH2 0x1CC8 JUMP JUMPDEST PUSH1 0x40 MLOAD DUP1 SWAP2 SUB SWAP1 REVERT JUMPDEST PUSH2 0x13A9 PUSH2 0x16BF JUMP JUMPDEST JUMP JUMPDEST PUSH1 0x0 DUP2 PUSH20 0xFFFFFFFFFFFFFFFFFFFFFFFFFFFFFFFFFFFFFFFF AND PUSH1 0x0 DUP1 SLOAD SWAP1 PUSH2 0x100 EXP SWAP1 DIV PUSH20 0xFFFFFFFFFFFFFFFFFFFFFFFFFFFFFFFFFFFFFFFF AND PUSH20 0xFFFFFFFFFFFFFFFFFFFFFFFFFFFFFFFFFFFFFFFF AND EQ DUP1 PUSH2 0x1454 JUMPI POP DUP2 PUSH20 0xFFFFFFFFFFFFFFFFFFFFFFFFFFFFFFFFFFFFFFFF AND PUSH1 0x1 PUSH1 0x0 SWAP1 SLOAD SWAP1 PUSH2 0x100 EXP SWAP1 DIV PUSH20 0xFFFFFFFFFFFFFFFFFFFFFFFFFFFFFFFFFFFFFFFF AND PUSH20 0xFFFFFFFFFFFFFFFFFFFFFFFFFFFFFFFFFFFFFFFF AND EQ JUMPDEST SWAP1 POP SWAP2 SWAP1 POP JUMP JUMPDEST PUSH20 0x91CDA83C363A6F72F81A2041836B1E79B4A01AB1 PUSH20 0xFFFFFFFFFFFFFFFFFFFFFFFFFFFFFFFFFFFFFFFF AND CALLER PUSH20 0xFFFFFFFFFFFFFFFFFFFFFFFFFFFFFFFFFFFFFFFF AND EQ PUSH2 0x14DD JUMPI PUSH1 0x40 MLOAD PUSH32 0x8C379A000000000000000000000000000000000000000000000000000000000 DUP2 MSTORE PUSH1 0x4 ADD PUSH2 0x14D4 SWAP1 PUSH2 0x1CC8 JUMP JUMPDEST PUSH1 0x40 MLOAD DUP1 SWAP2 SUB SWAP1 REVERT JUMPDEST PUSH2 0x3E8 CALLVALUE LT ISZERO PUSH2 0x1522 JUMPI PUSH1 0x40 MLOAD PUSH32 0x8C379A000000000000000000000000000000000000000000000000000000000 DUP2 MSTORE PUSH1 0x4 ADD PUSH2 0x1519 SWAP1 PUSH2 0x1CA8 JUMP JUMPDEST PUSH1 0x40 MLOAD DUP1 SWAP2 SUB SWAP1 REVERT JUMPDEST PUSH1 0x0 PUSH1 0x2 SLOAD EQ DUP1 PUSH2 0x1535 JUMPI POP PUSH1 0x2 SLOAD CALLVALUE LT ISZERO JUMPDEST PUSH2 0x1574 JUMPI PUSH1 0x40 MLOAD PUSH32 0x8C379A000000000000000000000000000000000000000000000000000000000 DUP2 MSTORE PUSH1 0x4 ADD PUSH2 0x156B SWAP1 PUSH2 0x1CE8 JUMP JUMPDEST PUSH1 0x40 MLOAD DUP1 SWAP2 SUB SWAP1 REVERT JUMPDEST CALLVALUE PUSH1 0x2 PUSH1 0x0 DUP3 DUP3 SLOAD PUSH2 0x1586 SWAP2 SWAP1 PUSH2 0x1D34 JUMP JUMPDEST SWAP3 POP POP DUP2 SWAP1 SSTORE POP JUMP JUMPDEST PUSH1 0x0 DUP2 PUSH20 0xFFFFFFFFFFFFFFFFFFFFFFFFFFFFFFFFFFFFFFFF AND PUSH1 0x0 DUP1 SLOAD SWAP1 PUSH2 0x100 EXP SWAP1 DIV PUSH20 0xFFFFFFFFFFFFFFFFFFFFFFFFFFFFFFFFFFFFFFFF AND PUSH20 0xFFFFFFFFFFFFFFFFFFFFFFFFFFFFFFFFFFFFFFFF AND EQ DUP1 ISZERO PUSH2 0x1620 JUMPI POP PUSH1 0x0 PUSH1 0x3 DUP2 GT ISZERO PUSH2 0x15FB JUMPI PUSH2 0x15FA PUSH2 0x1F33 JUMP JUMPDEST JUMPDEST PUSH1 0x3 PUSH1 0x1 SWAP1 SLOAD SWAP1 PUSH2 0x100 EXP SWAP1 DIV PUSH1 0xFF AND PUSH1 0x3 DUP2 GT ISZERO PUSH2 0x161D JUMPI PUSH2 0x161C PUSH2 0x1F33 JUMP JUMPDEST JUMPDEST EQ ISZERO JUMPDEST DUP1 PUSH2 0x16B8 JUMPI POP DUP2 PUSH20 0xFFFFFFFFFFFFFFFFFFFFFFFFFFFFFFFFFFFFFFFF AND PUSH1 0x1 PUSH1 0x0 SWAP1 SLOAD SWAP1 PUSH2 0x100 EXP SWAP1 DIV PUSH20 0xFFFFFFFFFFFFFFFFFFFFFFFFFFFFFFFFFFFFFFFF AND PUSH20 0xFFFFFFFFFFFFFFFFFFFFFFFFFFFFFFFFFFFFFFFF AND EQ DUP1 ISZERO PUSH2 0x16B7 JUMPI POP PUSH1 0x0 PUSH1 0x3 DUP2 GT ISZERO PUSH2 0x1692 JUMPI PUSH2 0x1691 PUSH2 0x1F33 JUMP JUMPDEST JUMPDEST PUSH1 0x3 PUSH1 0x2 SWAP1 SLOAD SWAP1 PUSH2 0x100 EXP SWAP1 DIV PUSH1 0xFF AND PUSH1 0x3 DUP2 GT ISZERO PUSH2 0x16B4 JUMPI PUSH2 0x16B3 PUSH2 0x1F33 JUMP JUMPDEST JUMPDEST EQ ISZERO JUMPDEST JUMPDEST SWAP1 POP SWAP2 SWAP1 POP JUMP JUMPDEST PUSH1 0x0 PUSH1 0x2 DUP2 SWAP1 SSTORE POP PUSH1 0x0 DUP1 PUSH1 0x0 PUSH2 0x100 EXP DUP2 SLOAD DUP2 PUSH20 0xFFFFFFFFFFFFFFFFFFFFFFFFFFFFFFFFFFFFFFFF MUL NOT AND SWAP1 DUP4 PUSH20 0xFFFFFFFFFFFFFFFFFFFFFFFFFFFFFFFFFFFFFFFF AND MUL OR SWAP1 SSTORE POP PUSH1 0x0 PUSH1 0x1 PUSH1 0x0 PUSH2 0x100 EXP DUP2 SLOAD DUP2 PUSH20 0xFFFFFFFFFFFFFFFFFFFFFFFFFFFFFFFFFFFFFFFF MUL NOT AND SWAP1 DUP4 PUSH20 0xFFFFFFFFFFFFFFFFFFFFFFFFFFFFFFFFFFFFFFFF AND MUL OR SWAP1 SSTORE POP PUSH1 0x0 DUP1 SHL PUSH1 0x4 DUP2 SWAP1 SSTORE POP PUSH1 0x0 DUP1 SHL PUSH1 0x5 DUP2 SWAP1 SSTORE POP PUSH1 0x0 PUSH1 0x3 PUSH1 0x1 PUSH2 0x100 EXP DUP2 SLOAD DUP2 PUSH1 0xFF MUL NOT AND SWAP1 DUP4 PUSH1 0x3 DUP2 GT ISZERO PUSH2 0x1784 JUMPI PUSH2 0x1783 PUSH2 0x1F33 JUMP JUMPDEST JUMPDEST MUL OR SWAP1 SSTORE POP PUSH1 0x0 PUSH1 0x3 PUSH1 0x2 PUSH2 0x100 EXP DUP2 SLOAD DUP2 PUSH1 0xFF MUL NOT AND SWAP1 DUP4 PUSH1 0x3 DUP2 GT ISZERO PUSH2 0x17AF JUMPI PUSH2 0x17AE PUSH2 0x1F33 JUMP JUMPDEST JUMPDEST MUL OR SWAP1 SSTORE POP JUMP JUMPDEST PUSH1 0x0 DUP3 DUP3 PUSH1 0x40 MLOAD PUSH1 0x20 ADD PUSH2 0x17CB SWAP3 SWAP2 SWAP1 PUSH2 0x1ADA JUMP JUMPDEST PUSH1 0x40 MLOAD PUSH1 0x20 DUP2 DUP4 SUB SUB DUP2 MSTORE SWAP1 PUSH1 0x40 MSTORE DUP1 MLOAD SWAP1 PUSH1 0x20 ADD KECCAK256 SWAP1 POP SWAP3 SWAP2 POP POP JUMP JUMPDEST PUSH1 0x0 DUP2 CALLDATALOAD SWAP1 POP PUSH2 0x17F8 DUP2 PUSH2 0x2210 JUMP JUMPDEST SWAP3 SWAP2 POP POP JUMP JUMPDEST PUSH1 0x0 DUP2 CALLDATALOAD SWAP1 POP PUSH2 0x180D DUP2 PUSH2 0x2227 JUMP JUMPDEST SWAP3 SWAP2 POP POP JUMP JUMPDEST PUSH1 0x0 DUP2 CALLDATALOAD SWAP1 POP PUSH2 0x1822 DUP2 PUSH2 0x223E JUMP JUMPDEST SWAP3 SWAP2 POP POP JUMP JUMPDEST PUSH1 0x0 PUSH1 0x20 DUP3 DUP5 SUB SLT ISZERO PUSH2 0x183E JUMPI PUSH2 0x183D PUSH2 0x1F62 JUMP JUMPDEST JUMPDEST PUSH1 0x0 PUSH2 0x184C DUP5 DUP3 DUP6 ADD PUSH2 0x17E9 JUMP JUMPDEST SWAP2 POP POP SWAP3 SWAP2 POP POP JUMP JUMPDEST PUSH1 0x0 PUSH1 0x20 DUP3 DUP5 SUB SLT ISZERO PUSH2 0x186B JUMPI PUSH2 0x186A PUSH2 0x1F62 JUMP JUMPDEST JUMPDEST PUSH1 0x0 PUSH2 0x1879 DUP5 DUP3 DUP6 ADD PUSH2 0x17FE JUMP JUMPDEST SWAP2 POP POP SWAP3 SWAP2 POP POP JUMP JUMPDEST PUSH1 0x0 DUP1 PUSH1 0x40 DUP4 DUP6 SUB SLT ISZERO PUSH2 0x1899 JUMPI PUSH2 0x1898 PUSH2 0x1F62 JUMP JUMPDEST JUMPDEST PUSH1 0x0 PUSH2 0x18A7 DUP6 DUP3 DUP7 ADD PUSH2 0x1813 JUMP JUMPDEST SWAP3 POP POP PUSH1 0x20 PUSH2 0x18B8 DUP6 DUP3 DUP7 ADD PUSH2 0x17FE JUMP JUMPDEST SWAP2 POP POP SWAP3 POP SWAP3 SWAP1 POP JUMP JUMPDEST PUSH2 0x18CB DUP2 PUSH2 0x1DD0 JUMP JUMPDEST DUP3 MSTORE POP POP JUMP JUMPDEST PUSH2 0x18E2 PUSH2 0x18DD DUP3 PUSH2 0x1DDC JUMP JUMPDEST PUSH2 0x1E90 JUMP JUMPDEST DUP3 MSTORE POP POP JUMP JUMPDEST PUSH2 0x18F1 DUP2 PUSH2 0x1E36 JUMP JUMPDEST DUP3 MSTORE POP POP JUMP JUMPDEST PUSH2 0x1900 DUP2 PUSH2 0x1E48 JUMP JUMPDEST DUP3 MSTORE POP POP JUMP JUMPDEST PUSH2 0x190F DUP2 PUSH2 0x1E5A JUMP JUMPDEST DUP3 MSTORE POP POP JUMP JUMPDEST PUSH2 0x191E DUP2 PUSH2 0x1E6C JUMP JUMPDEST DUP3 MSTORE POP POP JUMP JUMPDEST PUSH2 0x192D DUP2 PUSH2 0x1E7E JUMP JUMPDEST DUP3 MSTORE POP POP JUMP JUMPDEST PUSH1 0x0 PUSH2 0x1940 PUSH1 0x16 DUP4 PUSH2 0x1D23 JUMP JUMPDEST SWAP2 POP PUSH2 0x194B DUP3 PUSH2 0x1F67 JUMP JUMPDEST PUSH1 0x20 DUP3 ADD SWAP1 POP SWAP2 SWAP1 POP JUMP JUMPDEST PUSH1 0x0 PUSH2 0x1963 PUSH1 0x19 DUP4 PUSH2 0x1D23 JUMP JUMPDEST SWAP2 POP PUSH2 0x196E DUP3 PUSH2 0x1F90 JUMP JUMPDEST PUSH1 0x20 DUP3 ADD SWAP1 POP SWAP2 SWAP1 POP JUMP JUMPDEST PUSH1 0x0 PUSH2 0x1986 PUSH1 0x22 DUP4 PUSH2 0x1D23 JUMP JUMPDEST SWAP2 POP PUSH2 0x1991 DUP3 PUSH2 0x1FB9 JUMP JUMPDEST PUSH1 0x40 DUP3 ADD SWAP1 POP SWAP2 SWAP1 POP JUMP JUMPDEST PUSH1 0x0 PUSH2 0x19A9 PUSH1 0x29 DUP4 PUSH2 0x1D23 JUMP JUMPDEST SWAP2 POP PUSH2 0x19B4 DUP3 PUSH2 0x2008 JUMP JUMPDEST PUSH1 0x40 DUP3 ADD SWAP1 POP SWAP2 SWAP1 POP JUMP JUMPDEST PUSH1 0x0 PUSH2 0x19CC PUSH1 0x10 DUP4 PUSH2 0x1D23 JUMP JUMPDEST SWAP2 POP PUSH2 0x19D7 DUP3 PUSH2 0x2057 JUMP JUMPDEST PUSH1 0x20 DUP3 ADD SWAP1 POP SWAP2 SWAP1 POP JUMP JUMPDEST PUSH1 0x0 PUSH2 0x19EF PUSH1 0x2D DUP4 PUSH2 0x1D23 JUMP JUMPDEST SWAP2 POP PUSH2 0x19FA DUP3 PUSH2 0x2080 JUMP JUMPDEST PUSH1 0x40 DUP3 ADD SWAP1 POP SWAP2 SWAP1 POP JUMP JUMPDEST PUSH1 0x0 PUSH2 0x1A12 PUSH1 0x1A DUP4 PUSH2 0x1D23 JUMP JUMPDEST SWAP2 POP PUSH2 0x1A1D DUP3 PUSH2 0x20CF JUMP JUMPDEST PUSH1 0x20 DUP3 ADD SWAP1 POP SWAP2 SWAP1 POP JUMP JUMPDEST PUSH1 0x0 PUSH2 0x1A35 PUSH1 0x11 DUP4 PUSH2 0x1D23 JUMP JUMPDEST SWAP2 POP PUSH2 0x1A40 DUP3 PUSH2 0x20F8 JUMP JUMPDEST PUSH1 0x20 DUP3 ADD SWAP1 POP SWAP2 SWAP1 POP JUMP JUMPDEST PUSH1 0x0 PUSH2 0x1A58 PUSH1 0x22 DUP4 PUSH2 0x1D23 JUMP JUMPDEST SWAP2 POP PUSH2 0x1A63 DUP3 PUSH2 0x2121 JUMP JUMPDEST PUSH1 0x40 DUP3 ADD SWAP1 POP SWAP2 SWAP1 POP JUMP JUMPDEST PUSH1 0x0 PUSH2 0x1A7B PUSH1 0x30 DUP4 PUSH2 0x1D23 JUMP JUMPDEST SWAP2 POP PUSH2 0x1A86 DUP3 PUSH2 0x2170 JUMP JUMPDEST PUSH1 0x40 DUP3 ADD SWAP1 POP SWAP2 SWAP1 POP JUMP JUMPDEST PUSH1 0x0 PUSH2 0x1A9E PUSH1 0x16 DUP4 PUSH2 0x1D23 JUMP JUMPDEST SWAP2 POP PUSH2 0x1AA9 DUP3 PUSH2 0x21BF JUMP JUMPDEST PUSH1 0x20 DUP3 ADD SWAP1 POP SWAP2 SWAP1 POP JUMP JUMPDEST PUSH2 0x1ABD DUP2 PUSH2 0x1E2C JUMP JUMPDEST DUP3 MSTORE POP POP JUMP JUMPDEST PUSH2 0x1AD4 PUSH2 0x1ACF DUP3 PUSH2 0x1E2C JUMP JUMPDEST PUSH2 0x1E9A JUMP JUMPDEST DUP3 MSTORE POP POP JUMP JUMPDEST PUSH1 0x0 PUSH2 0x1AE6 DUP3 DUP6 PUSH2 0x1AC3 JUMP JUMPDEST PUSH1 0x20 DUP3 ADD SWAP2 POP PUSH2 0x1AF6 DUP3 DUP5 PUSH2 0x18D1 JUMP JUMPDEST PUSH1 0x20 DUP3 ADD SWAP2 POP DUP2 SWAP1 POP SWAP4 SWAP3 POP POP POP JUMP JUMPDEST PUSH1 0x0 PUSH1 0x20 DUP3 ADD SWAP1 POP PUSH2 0x1B1B PUSH1 0x0 DUP4 ADD DUP5 PUSH2 0x18C2 JUMP JUMPDEST SWAP3 SWAP2 POP POP JUMP JUMPDEST PUSH1 0x0 PUSH1 0x20 DUP3 ADD SWAP1 POP PUSH2 0x1B36 PUSH1 0x0 DUP4 ADD DUP5 PUSH2 0x18E8 JUMP JUMPDEST SWAP3 SWAP2 POP POP JUMP JUMPDEST PUSH1 0x0 PUSH1 0x20 DUP3 ADD SWAP1 POP PUSH2 0x1B51 PUSH1 0x0 DUP4 ADD DUP5 PUSH2 0x18F7 JUMP JUMPDEST SWAP3 SWAP2 POP POP JUMP JUMPDEST PUSH1 0x0 PUSH1 0x20 DUP3 ADD SWAP1 POP PUSH2 0x1B6C PUSH1 0x0 DUP4 ADD DUP5 PUSH2 0x1906 JUMP JUMPDEST SWAP3 SWAP2 POP POP JUMP JUMPDEST PUSH1 0x0 PUSH1 0x20 DUP3 ADD SWAP1 POP PUSH2 0x1B87 PUSH1 0x0 DUP4 ADD DUP5 PUSH2 0x1915 JUMP JUMPDEST SWAP3 SWAP2 POP POP JUMP JUMPDEST PUSH1 0x0 PUSH1 0x20 DUP3 ADD SWAP1 POP PUSH2 0x1BA2 PUSH1 0x0 DUP4 ADD DUP5 PUSH2 0x1924 JUMP JUMPDEST SWAP3 SWAP2 POP POP JUMP JUMPDEST PUSH1 0x0 PUSH1 0x20 DUP3 ADD SWAP1 POP DUP2 DUP2 SUB PUSH1 0x0 DUP4 ADD MSTORE PUSH2 0x1BC1 DUP2 PUSH2 0x1933 JUMP JUMPDEST SWAP1 POP SWAP2 SWAP1 POP JUMP JUMPDEST PUSH1 0x0 PUSH1 0x20 DUP3 ADD SWAP1 POP DUP2 DUP2 SUB PUSH1 0x0 DUP4 ADD MSTORE PUSH2 0x1BE1 DUP2 PUSH2 0x1956 JUMP JUMPDEST SWAP1 POP SWAP2 SWAP1 POP JUMP JUMPDEST PUSH1 0x0 PUSH1 0x20 DUP3 ADD SWAP1 POP DUP2 DUP2 SUB PUSH1 0x0 DUP4 ADD MSTORE PUSH2 0x1C01 DUP2 PUSH2 0x1979 JUMP JUMPDEST SWAP1 POP SWAP2 SWAP1 POP JUMP JUMPDEST PUSH1 0x0 PUSH1 0x20 DUP3 ADD SWAP1 POP DUP2 DUP2 SUB PUSH1 0x0 DUP4 ADD MSTORE PUSH2 0x1C21 DUP2 PUSH2 0x199C JUMP JUMPDEST SWAP1 POP SWAP2 SWAP1 POP JUMP JUMPDEST PUSH1 0x0 PUSH1 0x20 DUP3 ADD SWAP1 POP DUP2 DUP2 SUB PUSH1 0x0 DUP4 ADD MSTORE PUSH2 0x1C41 DUP2 PUSH2 0x19BF JUMP JUMPDEST SWAP1 POP SWAP2 SWAP1 POP JUMP JUMPDEST PUSH1 0x0 PUSH1 0x20 DUP3 ADD SWAP1 POP DUP2 DUP2 SUB PUSH1 0x0 DUP4 ADD MSTORE PUSH2 0x1C61 DUP2 PUSH2 0x19E2 JUMP JUMPDEST SWAP1 POP SWAP2 SWAP1 POP JUMP JUMPDEST PUSH1 0x0 PUSH1 0x20 DUP3 ADD SWAP1 POP DUP2 DUP2 SUB PUSH1 0x0 DUP4 ADD MSTORE PUSH2 0x1C81 DUP2 PUSH2 0x1A05 JUMP JUMPDEST SWAP1 POP SWAP2 SWAP1 POP JUMP JUMPDEST PUSH1 0x0 PUSH1 0x20 DUP3 ADD SWAP1 POP DUP2 DUP2 SUB PUSH1 0x0 DUP4 ADD MSTORE PUSH2 0x1CA1 DUP2 PUSH2 0x1A28 JUMP JUMPDEST SWAP1 POP SWAP2 SWAP1 POP JUMP JUMPDEST PUSH1 0x0 PUSH1 0x20 DUP3 ADD SWAP1 POP DUP2 DUP2 SUB PUSH1 0x0 DUP4 ADD MSTORE PUSH2 0x1CC1 DUP2 PUSH2 0x1A4B JUMP JUMPDEST SWAP1 POP SWAP2 SWAP1 POP JUMP JUMPDEST PUSH1 0x0 PUSH1 0x20 DUP3 ADD SWAP1 POP DUP2 DUP2 SUB PUSH1 0x0 DUP4 ADD MSTORE PUSH2 0x1CE1 DUP2 PUSH2 0x1A6E JUMP JUMPDEST SWAP1 POP SWAP2 SWAP1 POP JUMP JUMPDEST PUSH1 0x0 PUSH1 0x20 DUP3 ADD SWAP1 POP DUP2 DUP2 SUB PUSH1 0x0 DUP4 ADD MSTORE PUSH2 0x1D01 DUP2 PUSH2 0x1A91 JUMP JUMPDEST SWAP1 POP SWAP2 SWAP1 POP JUMP JUMPDEST PUSH1 0x0 PUSH1 0x20 DUP3 ADD SWAP1 POP PUSH2 0x1D1D PUSH1 0x0 DUP4 ADD DUP5 PUSH2 0x1AB4 JUMP JUMPDEST SWAP3 SWAP2 POP POP JUMP JUMPDEST PUSH1 0x0 DUP3 DUP3 MSTORE PUSH1 0x20 DUP3 ADD SWAP1 POP SWAP3 SWAP2 POP POP JUMP JUMPDEST PUSH1 0x0 PUSH2 0x1D3F DUP3 PUSH2 0x1E2C JUMP JUMPDEST SWAP2 POP PUSH2 0x1D4A DUP4 PUSH2 0x1E2C JUMP JUMPDEST SWAP3 POP DUP3 PUSH32 0xFFFFFFFFFFFFFFFFFFFFFFFFFFFFFFFFFFFFFFFFFFFFFFFFFFFFFFFFFFFFFFFF SUB DUP3 GT ISZERO PUSH2 0x1D7F JUMPI PUSH2 0x1D7E PUSH2 0x1ED5 JUMP JUMPDEST JUMPDEST DUP3 DUP3 ADD SWAP1 POP SWAP3 SWAP2 POP POP JUMP JUMPDEST PUSH1 0x0 PUSH2 0x1D95 DUP3 PUSH2 0x1E2C JUMP JUMPDEST SWAP2 POP PUSH2 0x1DA0 DUP4 PUSH2 0x1E2C JUMP JUMPDEST SWAP3 POP DUP3 DUP3 LT ISZERO PUSH2 0x1DB3 JUMPI PUSH2 0x1DB2 PUSH2 0x1ED5 JUMP JUMPDEST JUMPDEST DUP3 DUP3 SUB SWAP1 POP SWAP3 SWAP2 POP POP JUMP JUMPDEST PUSH1 0x0 PUSH2 0x1DC9 DUP3 PUSH2 0x1E0C JUMP JUMPDEST SWAP1 POP SWAP2 SWAP1 POP JUMP JUMPDEST PUSH1 0x0 DUP2 ISZERO ISZERO SWAP1 POP SWAP2 SWAP1 POP JUMP JUMPDEST PUSH1 0x0 DUP2 SWAP1 POP SWAP2 SWAP1 POP JUMP JUMPDEST PUSH1 0x0 DUP2 SWAP1 POP PUSH2 0x1DF4 DUP3 PUSH2 0x21E8 JUMP JUMPDEST SWAP2 SWAP1 POP JUMP JUMPDEST PUSH1 0x0 DUP2 SWAP1 POP PUSH2 0x1E07 DUP3 PUSH2 0x21FC JUMP JUMPDEST SWAP2 SWAP1 POP JUMP JUMPDEST PUSH1 0x0 PUSH20 0xFFFFFFFFFFFFFFFFFFFFFFFFFFFFFFFFFFFFFFFF DUP3 AND SWAP1 POP SWAP2 SWAP1 POP JUMP JUMPDEST PUSH1 0x0 DUP2 SWAP1 POP SWAP2 SWAP1 POP JUMP JUMPDEST PUSH1 0x0 PUSH2 0x1E41 DUP3 PUSH2 0x1DE6 JUMP JUMPDEST SWAP1 POP SWAP2 SWAP1 POP JUMP JUMPDEST PUSH1 0x0 PUSH2 0x1E53 DUP3 PUSH2 0x1DF9 JUMP JUMPDEST SWAP1 POP SWAP2 SWAP1 POP JUMP JUMPDEST PUSH1 0x0 PUSH2 0x1E65 DUP3 PUSH2 0x1E2C JUMP JUMPDEST SWAP1 POP SWAP2 SWAP1 POP JUMP JUMPDEST PUSH1 0x0 PUSH2 0x1E77 DUP3 PUSH2 0x1E2C JUMP JUMPDEST SWAP1 POP SWAP2 SWAP1 POP JUMP JUMPDEST PUSH1 0x0 PUSH2 0x1E89 DUP3 PUSH2 0x1E2C JUMP JUMPDEST SWAP1 POP SWAP2 SWAP1 POP JUMP JUMPDEST PUSH1 0x0 DUP2 SWAP1 POP SWAP2 SWAP1 POP JUMP JUMPDEST PUSH1 0x0 DUP2 SWAP1 POP SWAP2 SWAP1 POP JUMP JUMPDEST PUSH1 0x0 PUSH2 0x1EAF DUP3 PUSH2 0x1E2C JUMP JUMPDEST SWAP2 POP PUSH2 0x1EBA DUP4 PUSH2 0x1E2C JUMP JUMPDEST SWAP3 POP DUP3 PUSH2 0x1ECA JUMPI PUSH2 0x1EC9 PUSH2 0x1F04 JUMP JUMPDEST JUMPDEST DUP3 DUP3 MOD SWAP1 POP SWAP3 SWAP2 POP POP JUMP JUMPDEST PUSH32 0x4E487B7100000000000000000000000000000000000000000000000000000000 PUSH1 0x0 MSTORE PUSH1 0x11 PUSH1 0x4 MSTORE PUSH1 0x24 PUSH1 0x0 REVERT JUMPDEST PUSH32 0x4E487B7100000000000000000000000000000000000000000000000000000000 PUSH1 0x0 MSTORE PUSH1 0x12 PUSH1 0x4 MSTORE PUSH1 0x24 PUSH1 0x0 REVERT JUMPDEST PUSH32 0x4E487B7100000000000000000000000000000000000000000000000000000000 PUSH1 0x0 MSTORE PUSH1 0x21 PUSH1 0x4 MSTORE PUSH1 0x24 PUSH1 0x0 REVERT JUMPDEST PUSH1 0x0 DUP1 REVERT JUMPDEST PUSH32 0x50726F626C656D20776974682061646472657373657300000000000000000000 PUSH1 0x0 DUP3 ADD MSTORE POP JUMP JUMPDEST PUSH32 0x4E6F74207265676973746572656420706C617965722079657400000000000000 PUSH1 0x0 DUP3 ADD MSTORE POP JUMP JUMPDEST PUSH32 0x5468697320706C617965722068617320616C7265616479207265676973746572 PUSH1 0x0 DUP3 ADD MSTORE PUSH32 0x6564000000000000000000000000000000000000000000000000000000000000 PUSH1 0x20 DUP3 ADD MSTORE POP JUMP JUMPDEST PUSH32 0x4F6E65206F662074686520706C6179657273206F7220626F746820646964206E PUSH1 0x0 DUP3 ADD MSTORE PUSH32 0x6F7420636F6D6D69740000000000000000000000000000000000000000000000 PUSH1 0x20 DUP3 ADD MSTORE POP JUMP JUMPDEST PUSH32 0x496E636F72726563742063686F69636500000000000000000000000000000000 PUSH1 0x0 DUP3 ADD MSTORE POP JUMP JUMPDEST PUSH32 0x4F6E65206F662074686520706C6179657273206F7220626F746820646964206E PUSH1 0x0 DUP3 ADD MSTORE PUSH32 0x6F74207265676973746572656400000000000000000000000000000000000000 PUSH1 0x20 DUP3 ADD MSTORE POP JUMP JUMPDEST PUSH32 0x47616D65206861736820776173206E6F742070726F7669646564000000000000 PUSH1 0x0 DUP3 ADD MSTORE POP JUMP JUMPDEST PUSH32 0x70726F626C656D20776974682073616C74000000000000000000000000000000 PUSH1 0x0 DUP3 ADD MSTORE POP JUMP JUMPDEST PUSH32 0x426574206973206C6F776572207468616E20706F737369626C65206D696E696D PUSH1 0x0 DUP3 ADD MSTORE PUSH32 0x756D000000000000000000000000000000000000000000000000000000000000 PUSH1 0x20 DUP3 ADD MSTORE POP JUMP JUMPDEST PUSH32 0x4F6E6C79206F776E6572206F6620636F6E747261637420697320616C6C6F7765 PUSH1 0x0 DUP3 ADD MSTORE PUSH32 0x6420746F2074686973206D6574686F6400000000000000000000000000000000 PUSH1 0x20 DUP3 ADD MSTORE POP JUMP JUMPDEST PUSH32 0x50726F626C656D207769746820746865207374616B6500000000000000000000 PUSH1 0x0 DUP3 ADD MSTORE POP JUMP JUMPDEST PUSH1 0x4 DUP2 LT PUSH2 0x21F9 JUMPI PUSH2 0x21F8 PUSH2 0x1F33 JUMP JUMPDEST JUMPDEST POP JUMP JUMPDEST PUSH1 0x3 DUP2 LT PUSH2 0x220D JUMPI PUSH2 0x220C PUSH2 0x1F33 JUMP JUMPDEST JUMPDEST POP JUMP JUMPDEST PUSH2 0x2219 DUP2 PUSH2 0x1DBE JUMP JUMPDEST DUP2 EQ PUSH2 0x2224 JUMPI PUSH1 0x0 DUP1 REVERT JUMPDEST POP JUMP JUMPDEST PUSH2 0x2230 DUP2 PUSH2 0x1DDC JUMP JUMPDEST DUP2 EQ PUSH2 0x223B JUMPI PUSH1 0x0 DUP1 REVERT JUMPDEST POP JUMP JUMPDEST PUSH2 0x2247 DUP2 PUSH2 0x1E2C JUMP JUMPDEST DUP2 EQ PUSH2 0x2252 JUMPI PUSH1 0x0 DUP1 REVERT JUMPDEST POP JUMP INVALID LOG2 PUSH5 0x6970667358 0x22 SLT KECCAK256 0xB5 CALLER 0xB8 0x4D DUP10 CALLER 0xC0 0xEE CHAINID DUP2 OR CALLDATALOAD 0xB7 GASPRICE SLOAD DUP6 0xD1 0x2B ISZERO 0xC6 SWAP5 0xD4 0x29 0x4D PUSH8 0xFC6CC49AC483C164 PUSH20 0x6F6C634300080700330000000000000000000000 "
		},
		"gasEstimates": {
			"creation": {
				"codeDepositCost": "1768600",
				"executionCost": "1862",
				"totalCost": "1770462"
			},
			"external": {
				"bothCommitted()": "4643",
				"bothRevealed()": "4929",
				"commitMove(bytes32)": "infinite",
				"endGames()": "infinite",
				"getContractBalance()": "428",
				"increaseStake()": "infinite",
				"isCommitted(address)": "9310",
				"isRegistered(address)": "5028",
				"isRevealed(address)": "9616",
				"outcome()": "2583",
				"regPlayer()": "infinite",
				"resetExternal()": "112486",
				"revealChoice(uint256,bytes32)": "infinite",
				"stake()": "2474"
			},
			"internal": {
				"getSaltedHash(uint256,bytes32)": "infinite",
				"reset()": "112271"
			}
		},
		"methodIdentifiers": {
			"bothCommitted()": "92c90480",
			"bothRevealed()": "43445ca8",
			"commitMove(bytes32)": "a9ea37b6",
			"endGames()": "11b0af15",
			"getContractBalance()": "6f9fb98a",
			"increaseStake()": "d9e257ef",
			"isCommitted(address)": "15b80df8",
			"isRegistered(address)": "c3c5a547",
			"isRevealed(address)": "e711a812",
			"outcome()": "27793f87",
			"regPlayer()": "20737796",
			"resetExternal()": "af2d2517",
			"revealChoice(uint256,bytes32)": "8c10bb96",
			"stake()": "3a4b66f1"
		}
	},
	"abi": [
		{
			"anonymous": false,
			"inputs": [
				{
					"indexed": false,
					"internalType": "bool",
					"name": "",
					"type": "bool"
				}
			],
			"name": "GameCommit",
			"type": "event"
		},
		{
			"anonymous": false,
			"inputs": [
				{
					"indexed": false,
					"internalType": "uint256",
					"name": "",
					"type": "uint256"
				}
			],
			"name": "GameRegister",
			"type": "event"
		},
		{
			"anonymous": false,
			"inputs": [
				{
					"indexed": false,
					"internalType": "enum RPS.GameChoice",
					"name": "",
					"type": "uint8"
				}
			],
			"name": "GameReveal",
			"type": "event"
		},
		{
			"anonymous": false,
			"inputs": [
				{
					"indexed": false,
					"internalType": "enum RPS.GameOutcome",
					"name": "",
					"type": "uint8"
				}
			],
			"name": "GetGameOutcome",
			"type": "event"
		},
		{
			"inputs": [],
			"name": "bothCommitted",
			"outputs": [
				{
					"internalType": "bool",
					"name": "",
					"type": "bool"
				}
			],
			"stateMutability": "view",
			"type": "function"
		},
		{
			"inputs": [],
			"name": "bothRevealed",
			"outputs": [
				{
					"internalType": "bool",
					"name": "",
					"type": "bool"
				}
			],
			"stateMutability": "view",
			"type": "function"
		},
		{
			"inputs": [
				{
					"internalType": "bytes32",
					"name": "gameHash",
					"type": "bytes32"
				}
			],
			"name": "commitMove",
			"outputs": [
				{
					"internalType": "bool",
					"name": "",
					"type": "bool"
				}
			],
			"stateMutability": "nonpayable",
			"type": "function"
		},
		{
			"inputs": [],
			"name": "endGames",
			"outputs": [
				{
					"internalType": "enum RPS.GameOutcome",
					"name": "",
					"type": "uint8"
				}
			],
			"stateMutability": "nonpayable",
			"type": "function"
		},
		{
			"inputs": [],
			"name": "getContractBalance",
			"outputs": [
				{
					"internalType": "uint256",
					"name": "",
					"type": "uint256"
				}
			],
			"stateMutability": "view",
			"type": "function"
		},
		{
			"inputs": [],
			"name": "increaseStake",
			"outputs": [],
			"stateMutability": "payable",
			"type": "function"
		},
		{
			"inputs": [
				{
					"internalType": "address",
					"name": "player",
					"type": "address"
				}
			],
			"name": "isCommitted",
			"outputs": [
				{
					"internalType": "bool",
					"name": "",
					"type": "bool"
				}
			],
			"stateMutability": "view",
			"type": "function"
		},
		{
			"inputs": [
				{
					"internalType": "address",
					"name": "player",
					"type": "address"
				}
			],
			"name": "isRegistered",
			"outputs": [
				{
					"internalType": "bool",
					"name": "",
					"type": "bool"
				}
			],
			"stateMutability": "view",
			"type": "function"
		},
		{
			"inputs": [
				{
					"internalType": "address",
					"name": "player",
					"type": "address"
				}
			],
			"name": "isRevealed",
			"outputs": [
				{
					"internalType": "bool",
					"name": "",
					"type": "bool"
				}
			],
			"stateMutability": "view",
			"type": "function"
		},
		{
			"inputs": [],
			"name": "outcome",
			"outputs": [
				{
					"internalType": "enum RPS.GameOutcome",
					"name": "",
					"type": "uint8"
				}
			],
			"stateMutability": "view",
			"type": "function"
		},
		{
			"inputs": [],
			"name": "regPlayer",
			"outputs": [
				{
					"internalType": "uint256",
					"name": "",
					"type": "uint256"
				}
			],
			"stateMutability": "payable",
			"type": "function"
		},
		{
			"inputs": [],
			"name": "resetExternal",
			"outputs": [],
			"stateMutability": "nonpayable",
			"type": "function"
		},
		{
			"inputs": [
				{
					"internalType": "uint256",
					"name": "choice",
					"type": "uint256"
				},
				{
					"internalType": "bytes32",
					"name": "salt",
					"type": "bytes32"
				}
			],
			"name": "revealChoice",
			"outputs": [
				{
					"internalType": "enum RPS.GameChoice",
					"name": "",
					"type": "uint8"
				}
			],
			"stateMutability": "nonpayable",
			"type": "function"
		},
		{
			"inputs": [],
			"name": "stake",
			"outputs": [
				{
					"internalType": "uint256",
					"name": "",
					"type": "uint256"
				}
			],
			"stateMutability": "view",
			"type": "function"
		}
	]
}