{
	"data": {
		"bytecode": {
			"linkReferences": {},
			"object": "608060405234801561001057600080fd5b50612047806100206000396000f3fe608060405234801561001057600080fd5b50600436106100625760003560e01c806301cf26e3146100675780632a035b6c1461008357806379131a19146100b35780637b38314c146100eb5780639f799d9c1461011b578063c0dcf64814610137575b600080fd5b610081600480360381019061007c9190611598565b610153565b005b61009d6004803603810190610098919061156b565b610615565b6040516100aa9190611931565b60405180910390f35b6100cd60048036038101906100c8919061156b565b610bb9565b6040516100e2999897969594939291906118a4565b60405180910390f35b6101056004803603810190610100919061156b565b610c61565b6040516101129190611aac565b60405180910390f35b610135600480360381019061013091906115d8565b610c79565b005b610151600480360381019061014c919061162b565b61112b565b005b81816000808473ffffffffffffffffffffffffffffffffffffffff1673ffffffffffffffffffffffffffffffffffffffff1681526020019081526020016000206002015460008314156101db576040517f08c379a00000000000000000000000000000000000000000000000000000000081526004016101d29061196c565b60405180910390fd5b600073ffffffffffffffffffffffffffffffffffffffff168273ffffffffffffffffffffffffffffffffffffffff161415801561024457503373ffffffffffffffffffffffffffffffffffffffff168273ffffffffffffffffffffffffffffffffffffffff1614155b610283576040517f08c379a000000000000000000000000000000000000000000000000000000000815260040161027a90611a2c565b60405180910390fd5b600160003373ffffffffffffffffffffffffffffffffffffffff1673ffffffffffffffffffffffffffffffffffffffff16815260200190815260200160002054811115610305576040517f08c379a00000000000000000000000000000000000000000000000000000000081526004016102fc906119ac565b60405180910390fd5b3373ffffffffffffffffffffffffffffffffffffffff166000808673ffffffffffffffffffffffffffffffffffffffff1673ffffffffffffffffffffffffffffffffffffffff16815260200190815260200160002060010160009054906101000a900473ffffffffffffffffffffffffffffffffffffffff1673ffffffffffffffffffffffffffffffffffffffff16146103d4576040517f08c379a00000000000000000000000000000000000000000000000000000000081526004016103cb90611a8c565b60405180910390fd5b600160038111156103e8576103e7611cef565b5b6000808673ffffffffffffffffffffffffffffffffffffffff1673ffffffffffffffffffffffffffffffffffffffff16815260200190815260200160002060070160009054906101000a900460ff16600381111561044957610448611cef565b5b14610489576040517f08c379a0000000000000000000000000000000000000000000000000000000008152600401610480906119cc565b60405180910390fd5b60008060008673ffffffffffffffffffffffffffffffffffffffff1673ffffffffffffffffffffffffffffffffffffffff16815260200190815260200160002060020154905080600160003373ffffffffffffffffffffffffffffffffffffffff1673ffffffffffffffffffffffffffffffffffffffff1681526020019081526020016000205461051a9190611b88565b600160003373ffffffffffffffffffffffffffffffffffffffff1673ffffffffffffffffffffffffffffffffffffffff16815260200190815260200160002081905550856000808773ffffffffffffffffffffffffffffffffffffffff1673ffffffffffffffffffffffffffffffffffffffff1681526020019081526020016000206006018190555060026000808773ffffffffffffffffffffffffffffffffffffffff1673ffffffffffffffffffffffffffffffffffffffff16815260200190815260200160002060070160006101000a81548160ff0219169083600381111561060857610607611cef565b5b0217905550505050505050565b6000806000808473ffffffffffffffffffffffffffffffffffffffff1673ffffffffffffffffffffffffffffffffffffffff168152602001908152602001600020600301541180156106a8575060008060008473ffffffffffffffffffffffffffffffffffffffff1673ffffffffffffffffffffffffffffffffffffffff16815260200190815260200160002060040154115b6106e7576040517f08c379a00000000000000000000000000000000000000000000000000000000081526004016106de90611a0c565b60405180910390fd5b60008060008473ffffffffffffffffffffffffffffffffffffffff1673ffffffffffffffffffffffffffffffffffffffff16815260200190815260200160002060010160009054906101000a900473ffffffffffffffffffffffffffffffffffffffff16905060008060008573ffffffffffffffffffffffffffffffffffffffff1673ffffffffffffffffffffffffffffffffffffffff16815260200190815260200160002060030154905060008060008673ffffffffffffffffffffffffffffffffffffffff1673ffffffffffffffffffffffffffffffffffffffff16815260200190815260200160002060040154905060008060008773ffffffffffffffffffffffffffffffffffffffff1673ffffffffffffffffffffffffffffffffffffffff16815260200190815260200160002060020154905060038284600361082f9190611ad8565b6108399190611b88565b6108439190611c60565b600281111561085557610854611cef565b5b94506000600281111561086b5761086a611cef565b5b85600281111561087e5761087d611cef565b5b14156109a55780600160008873ffffffffffffffffffffffffffffffffffffffff1673ffffffffffffffffffffffffffffffffffffffff168152602001908152602001600020546108cf9190611ad8565b600160008873ffffffffffffffffffffffffffffffffffffffff1673ffffffffffffffffffffffffffffffffffffffff1681526020019081526020016000208190555080600160008673ffffffffffffffffffffffffffffffffffffffff1673ffffffffffffffffffffffffffffffffffffffff1681526020019081526020016000205461095d9190611ad8565b600160008673ffffffffffffffffffffffffffffffffffffffff1673ffffffffffffffffffffffffffffffffffffffff16815260200190815260200160002081905550610b79565b600160028111156109b9576109b8611cef565b5b8560028111156109cc576109cb611cef565b5b1415610a71576002816109df9190611b2e565b600160008873ffffffffffffffffffffffffffffffffffffffff1673ffffffffffffffffffffffffffffffffffffffff16815260200190815260200160002054610a299190611ad8565b600160008873ffffffffffffffffffffffffffffffffffffffff1673ffffffffffffffffffffffffffffffffffffffff16815260200190815260200160002081905550610b78565b600280811115610a8457610a83611cef565b5b856002811115610a9757610a96611cef565b5b1415610b3c57600281610aaa9190611b2e565b600160008673ffffffffffffffffffffffffffffffffffffffff1673ffffffffffffffffffffffffffffffffffffffff16815260200190815260200160002054610af49190611ad8565b600160008673ffffffffffffffffffffffffffffffffffffffff1673ffffffffffffffffffffffffffffffffffffffff16815260200190815260200160002081905550610b77565b6040517f08c379a0000000000000000000000000000000000000000000000000000000008152600401610b6e9061194c565b60405180910390fd5b5b5b7f6d1a16000380c9adde391bcb46a92c2ce8c46811cff002ed5dec38dfdc2373cd85604051610ba89190611931565b60405180910390a150505050919050565b60006020528060005260406000206000915090508060000160009054906101000a900473ffffffffffffffffffffffffffffffffffffffff16908060010160009054906101000a900473ffffffffffffffffffffffffffffffffffffffff16908060020154908060030154908060040154908060050154908060060154908060070160009054906101000a900460ff16908060070160019054906101000a900460ff16905089565b60016020528060005260406000206000915090505481565b8282826000831415610cc0576040517f08c379a0000000000000000000000000000000000000000000000000000000008152600401610cb79061196c565b60405180910390fd5b600073ffffffffffffffffffffffffffffffffffffffff168273ffffffffffffffffffffffffffffffffffffffff1614158015610d2957503373ffffffffffffffffffffffffffffffffffffffff168273ffffffffffffffffffffffffffffffffffffffff1614155b610d68576040517f08c379a0000000000000000000000000000000000000000000000000000000008152600401610d5f90611a2c565b60405180910390fd5b600160003373ffffffffffffffffffffffffffffffffffffffff1673ffffffffffffffffffffffffffffffffffffffff16815260200190815260200160002054811115610dea576040517f08c379a0000000000000000000000000000000000000000000000000000000008152600401610de1906119ac565b60405180910390fd5b60006003811115610dfe57610dfd611cef565b5b6000803373ffffffffffffffffffffffffffffffffffffffff1673ffffffffffffffffffffffffffffffffffffffff16815260200190815260200160002060070160009054906101000a900460ff166003811115610e5f57610e5e611cef565b5b14610e9f576040517f08c379a0000000000000000000000000000000000000000000000000000000008152600401610e9690611a4c565b60405180910390fd5b83600160003373ffffffffffffffffffffffffffffffffffffffff1673ffffffffffffffffffffffffffffffffffffffff16815260200190815260200160002054610eea9190611b88565b600160003373ffffffffffffffffffffffffffffffffffffffff1673ffffffffffffffffffffffffffffffffffffffff16815260200190815260200160002081905550856000803373ffffffffffffffffffffffffffffffffffffffff1673ffffffffffffffffffffffffffffffffffffffff16815260200190815260200160002060050181905550336000803373ffffffffffffffffffffffffffffffffffffffff1673ffffffffffffffffffffffffffffffffffffffff16815260200190815260200160002060000160006101000a81548173ffffffffffffffffffffffffffffffffffffffff021916908373ffffffffffffffffffffffffffffffffffffffff160217905550846000803373ffffffffffffffffffffffffffffffffffffffff1673ffffffffffffffffffffffffffffffffffffffff16815260200190815260200160002060010160006101000a81548173ffffffffffffffffffffffffffffffffffffffff021916908373ffffffffffffffffffffffffffffffffffffffff160217905550836000803373ffffffffffffffffffffffffffffffffffffffff1673ffffffffffffffffffffffffffffffffffffffff1681526020019081526020016000206002018190555060016000803373ffffffffffffffffffffffffffffffffffffffff1673ffffffffffffffffffffffffffffffffffffffff16815260200190815260200160002060070160006101000a81548160ff0219169083600381111561111e5761111d611cef565b5b0217905550505050505050565b6002600381111561113f5761113e611cef565b5b6000808373ffffffffffffffffffffffffffffffffffffffff1673ffffffffffffffffffffffffffffffffffffffff16815260200190815260200160002060070160009054906101000a900460ff1660038111156111a05761119f611cef565b5b146111e0576040517f08c379a00000000000000000000000000000000000000000000000000000000081526004016111d7906119ec565b60405180910390fd5b3373ffffffffffffffffffffffffffffffffffffffff166000808373ffffffffffffffffffffffffffffffffffffffff1673ffffffffffffffffffffffffffffffffffffffff16815260200190815260200160002060000160009054906101000a900473ffffffffffffffffffffffffffffffffffffffff1673ffffffffffffffffffffffffffffffffffffffff16141561134c5761127f83836114f9565b6000808373ffffffffffffffffffffffffffffffffffffffff1673ffffffffffffffffffffffffffffffffffffffff1681526020019081526020016000206005015414611301576040517f08c379a00000000000000000000000000000000000000000000000000000000081526004016112f890611a6c565b60405180910390fd5b826000808373ffffffffffffffffffffffffffffffffffffffff1673ffffffffffffffffffffffffffffffffffffffff168152602001908152602001600020600301819055506114f4565b3373ffffffffffffffffffffffffffffffffffffffff166000808373ffffffffffffffffffffffffffffffffffffffff1673ffffffffffffffffffffffffffffffffffffffff16815260200190815260200160002060010160009054906101000a900473ffffffffffffffffffffffffffffffffffffffff1673ffffffffffffffffffffffffffffffffffffffff1614156114b8576113eb83836114f9565b6000808373ffffffffffffffffffffffffffffffffffffffff1673ffffffffffffffffffffffffffffffffffffffff168152602001908152602001600020600601541461146d576040517f08c379a000000000000000000000000000000000000000000000000000000000815260040161146490611a6c565b60405180910390fd5b826000808373ffffffffffffffffffffffffffffffffffffffff1673ffffffffffffffffffffffffffffffffffffffff168152602001908152602001600020600401819055506114f3565b6040517f08c379a00000000000000000000000000000000000000000000000000000000081526004016114ea9061198c565b60405180910390fd5b5b505050565b6000828260405160200161150e929190611878565b60405160208183030381529060405280519060200120905092915050565b60008135905061153b81611fcc565b92915050565b60008135905061155081611fe3565b92915050565b60008135905061156581611ffa565b92915050565b60006020828403121561158157611580611d1e565b5b600061158f8482850161152c565b91505092915050565b600080604083850312156115af576115ae611d1e565b5b60006115bd85828601611541565b92505060206115ce8582860161152c565b9150509250929050565b6000806000606084860312156115f1576115f0611d1e565b5b60006115ff86828701611541565b93505060206116108682870161152c565b925050604061162186828701611556565b9150509250925092565b60008060006060848603121561164457611643611d1e565b5b600061165286828701611556565b935050602061166386828701611541565b92505060406116748682870161152c565b9150509250925092565b61168781611bbc565b82525050565b61169681611bce565b82525050565b6116ad6116a882611bce565b611c4c565b82525050565b6116bc81611c28565b82525050565b6116cb81611c3a565b82525050565b60006116de601483611ac7565b91506116e982611d23565b602082019050919050565b6000611701601a83611ac7565b915061170c82611d4c565b602082019050919050565b6000611724601683611ac7565b915061172f82611d75565b602082019050919050565b6000611747601e83611ac7565b915061175282611d9e565b602082019050919050565b600061176a603483611ac7565b915061177582611dc7565b604082019050919050565b600061178d603a83611ac7565b915061179882611e16565b604082019050919050565b60006117b0604583611ac7565b91506117bb82611e65565b606082019050919050565b60006117d3601c83611ac7565b91506117de82611eda565b602082019050919050565b60006117f6601b83611ac7565b915061180182611f03565b602082019050919050565b6000611819601183611ac7565b915061182482611f2c565b602082019050919050565b600061183c602283611ac7565b915061184782611f55565b604082019050919050565b61185b81611c1e565b82525050565b61187261186d82611c1e565b611c56565b82525050565b60006118848285611861565b602082019150611894828461169c565b6020820191508190509392505050565b6000610120820190506118ba600083018c61167e565b6118c7602083018b61167e565b6118d4604083018a611852565b6118e16060830189611852565b6118ee6080830188611852565b6118fb60a083018761168d565b61190860c083018661168d565b61191560e08301856116c2565b6119236101008301846116b3565b9a9950505050505050505050565b600060208201905061194660008301846116b3565b92915050565b60006020820190508181036000830152611965816116d1565b9050919050565b60006020820190508181036000830152611985816116f4565b9050919050565b600060208201905081810360008301526119a581611717565b9050919050565b600060208201905081810360008301526119c58161173a565b9050919050565b600060208201905081810360008301526119e58161175d565b9050919050565b60006020820190508181036000830152611a0581611780565b9050919050565b60006020820190508181036000830152611a25816117a3565b9050919050565b60006020820190508181036000830152611a45816117c6565b9050919050565b60006020820190508181036000830152611a65816117e9565b9050919050565b60006020820190508181036000830152611a858161180c565b9050919050565b60006020820190508181036000830152611aa58161182f565b9050919050565b6000602082019050611ac16000830184611852565b92915050565b600082825260208201905092915050565b6000611ae382611c1e565b9150611aee83611c1e565b9250827fffffffffffffffffffffffffffffffffffffffffffffffffffffffffffffffff03821115611b2357611b22611c91565b5b828201905092915050565b6000611b3982611c1e565b9150611b4483611c1e565b9250817fffffffffffffffffffffffffffffffffffffffffffffffffffffffffffffffff0483118215151615611b7d57611b7c611c91565b5b828202905092915050565b6000611b9382611c1e565b9150611b9e83611c1e565b925082821015611bb157611bb0611c91565b5b828203905092915050565b6000611bc782611bfe565b9050919050565b6000819050919050565b6000819050611be682611fa4565b919050565b6000819050611bf982611fb8565b919050565b600073ffffffffffffffffffffffffffffffffffffffff82169050919050565b6000819050919050565b6000611c3382611bd8565b9050919050565b6000611c4582611beb565b9050919050565b6000819050919050565b6000819050919050565b6000611c6b82611c1e565b9150611c7683611c1e565b925082611c8657611c85611cc0565b5b828206905092915050565b7f4e487b7100000000000000000000000000000000000000000000000000000000600052601160045260246000fd5b7f4e487b7100000000000000000000000000000000000000000000000000000000600052601260045260246000fd5b7f4e487b7100000000000000000000000000000000000000000000000000000000600052602160045260246000fd5b600080fd5b7f496e76616c69642047616d65204f7574636f6d65000000000000000000000000600082015250565b7f67616d65206861736820776173206e6f742070726f7669646564000000000000600082015250565b7f50726f626c656d20776974682061646472657373657300000000000000000000600082015250565b7f506c61796572732066756e64732061726520696e73756666696369656e740000600082015250565b7f47616d65206e6f742073746172746564206f722068617320616c72656164792060008201527f6265656e2070617274696369706174656420696e000000000000000000000000602082015250565b7f47616d6520646f6573206e6f74206578697374206f7220706c6179657220547760008201527f6f20686173206e6f7420706c6163656420612062657420796574000000000000602082015250565b7f426f746820706c6179657273206e65656420746f2072657665616c207468656960008201527f722063686f696365206265666f72652067616d652063616e20626520636f6d7060208201527f6c65746564000000000000000000000000000000000000000000000000000000604082015250565b7f50726f626c656d2077697468206f7468657220706c617965722e2e2e00000000600082015250565b7f50726f626c656d20776974682067616d65207374617475732e2e2e0000000000600082015250565b7f70726f626c656d20776974682073616c74000000000000000000000000000000600082015250565b7f596f7520617265206e6f7420506c61796572203220666f72207468697320676160008201527f6d65000000000000000000000000000000000000000000000000000000000000602082015250565b60038110611fb557611fb4611cef565b5b50565b60048110611fc957611fc8611cef565b5b50565b611fd581611bbc565b8114611fe057600080fd5b50565b611fec81611bce565b8114611ff757600080fd5b50565b61200381611c1e565b811461200e57600080fd5b5056fea264697066735822122011328c5bee4f143ca46a362ffc3e54f19697baaaeed0ca1aa2356986495d6c8764736f6c63430008070033",
			"opcodes": "PUSH1 0x80 PUSH1 0x40 MSTORE CALLVALUE DUP1 ISZERO PUSH2 0x10 JUMPI PUSH1 0x0 DUP1 REVERT JUMPDEST POP PUSH2 0x2047 DUP1 PUSH2 0x20 PUSH1 0x0 CODECOPY PUSH1 0x0 RETURN INVALID PUSH1 0x80 PUSH1 0x40 MSTORE CALLVALUE DUP1 ISZERO PUSH2 0x10 JUMPI PUSH1 0x0 DUP1 REVERT JUMPDEST POP PUSH1 0x4 CALLDATASIZE LT PUSH2 0x62 JUMPI PUSH1 0x0 CALLDATALOAD PUSH1 0xE0 SHR DUP1 PUSH4 0x1CF26E3 EQ PUSH2 0x67 JUMPI DUP1 PUSH4 0x2A035B6C EQ PUSH2 0x83 JUMPI DUP1 PUSH4 0x79131A19 EQ PUSH2 0xB3 JUMPI DUP1 PUSH4 0x7B38314C EQ PUSH2 0xEB JUMPI DUP1 PUSH4 0x9F799D9C EQ PUSH2 0x11B JUMPI DUP1 PUSH4 0xC0DCF648 EQ PUSH2 0x137 JUMPI JUMPDEST PUSH1 0x0 DUP1 REVERT JUMPDEST PUSH2 0x81 PUSH1 0x4 DUP1 CALLDATASIZE SUB DUP2 ADD SWAP1 PUSH2 0x7C SWAP2 SWAP1 PUSH2 0x1598 JUMP JUMPDEST PUSH2 0x153 JUMP JUMPDEST STOP JUMPDEST PUSH2 0x9D PUSH1 0x4 DUP1 CALLDATASIZE SUB DUP2 ADD SWAP1 PUSH2 0x98 SWAP2 SWAP1 PUSH2 0x156B JUMP JUMPDEST PUSH2 0x615 JUMP JUMPDEST PUSH1 0x40 MLOAD PUSH2 0xAA SWAP2 SWAP1 PUSH2 0x1931 JUMP JUMPDEST PUSH1 0x40 MLOAD DUP1 SWAP2 SUB SWAP1 RETURN JUMPDEST PUSH2 0xCD PUSH1 0x4 DUP1 CALLDATASIZE SUB DUP2 ADD SWAP1 PUSH2 0xC8 SWAP2 SWAP1 PUSH2 0x156B JUMP JUMPDEST PUSH2 0xBB9 JUMP JUMPDEST PUSH1 0x40 MLOAD PUSH2 0xE2 SWAP10 SWAP9 SWAP8 SWAP7 SWAP6 SWAP5 SWAP4 SWAP3 SWAP2 SWAP1 PUSH2 0x18A4 JUMP JUMPDEST PUSH1 0x40 MLOAD DUP1 SWAP2 SUB SWAP1 RETURN JUMPDEST PUSH2 0x105 PUSH1 0x4 DUP1 CALLDATASIZE SUB DUP2 ADD SWAP1 PUSH2 0x100 SWAP2 SWAP1 PUSH2 0x156B JUMP JUMPDEST PUSH2 0xC61 JUMP JUMPDEST PUSH1 0x40 MLOAD PUSH2 0x112 SWAP2 SWAP1 PUSH2 0x1AAC JUMP JUMPDEST PUSH1 0x40 MLOAD DUP1 SWAP2 SUB SWAP1 RETURN JUMPDEST PUSH2 0x135 PUSH1 0x4 DUP1 CALLDATASIZE SUB DUP2 ADD SWAP1 PUSH2 0x130 SWAP2 SWAP1 PUSH2 0x15D8 JUMP JUMPDEST PUSH2 0xC79 JUMP JUMPDEST STOP JUMPDEST PUSH2 0x151 PUSH1 0x4 DUP1 CALLDATASIZE SUB DUP2 ADD SWAP1 PUSH2 0x14C SWAP2 SWAP1 PUSH2 0x162B JUMP JUMPDEST PUSH2 0x112B JUMP JUMPDEST STOP JUMPDEST DUP2 DUP2 PUSH1 0x0 DUP1 DUP5 PUSH20 0xFFFFFFFFFFFFFFFFFFFFFFFFFFFFFFFFFFFFFFFF AND PUSH20 0xFFFFFFFFFFFFFFFFFFFFFFFFFFFFFFFFFFFFFFFF AND DUP2 MSTORE PUSH1 0x20 ADD SWAP1 DUP2 MSTORE PUSH1 0x20 ADD PUSH1 0x0 KECCAK256 PUSH1 0x2 ADD SLOAD PUSH1 0x0 DUP4 EQ ISZERO PUSH2 0x1DB JUMPI PUSH1 0x40 MLOAD PUSH32 0x8C379A000000000000000000000000000000000000000000000000000000000 DUP2 MSTORE PUSH1 0x4 ADD PUSH2 0x1D2 SWAP1 PUSH2 0x196C JUMP JUMPDEST PUSH1 0x40 MLOAD DUP1 SWAP2 SUB SWAP1 REVERT JUMPDEST PUSH1 0x0 PUSH20 0xFFFFFFFFFFFFFFFFFFFFFFFFFFFFFFFFFFFFFFFF AND DUP3 PUSH20 0xFFFFFFFFFFFFFFFFFFFFFFFFFFFFFFFFFFFFFFFF AND EQ ISZERO DUP1 ISZERO PUSH2 0x244 JUMPI POP CALLER PUSH20 0xFFFFFFFFFFFFFFFFFFFFFFFFFFFFFFFFFFFFFFFF AND DUP3 PUSH20 0xFFFFFFFFFFFFFFFFFFFFFFFFFFFFFFFFFFFFFFFF AND EQ ISZERO JUMPDEST PUSH2 0x283 JUMPI PUSH1 0x40 MLOAD PUSH32 0x8C379A000000000000000000000000000000000000000000000000000000000 DUP2 MSTORE PUSH1 0x4 ADD PUSH2 0x27A SWAP1 PUSH2 0x1A2C JUMP JUMPDEST PUSH1 0x40 MLOAD DUP1 SWAP2 SUB SWAP1 REVERT JUMPDEST PUSH1 0x1 PUSH1 0x0 CALLER PUSH20 0xFFFFFFFFFFFFFFFFFFFFFFFFFFFFFFFFFFFFFFFF AND PUSH20 0xFFFFFFFFFFFFFFFFFFFFFFFFFFFFFFFFFFFFFFFF AND DUP2 MSTORE PUSH1 0x20 ADD SWAP1 DUP2 MSTORE PUSH1 0x20 ADD PUSH1 0x0 KECCAK256 SLOAD DUP2 GT ISZERO PUSH2 0x305 JUMPI PUSH1 0x40 MLOAD PUSH32 0x8C379A000000000000000000000000000000000000000000000000000000000 DUP2 MSTORE PUSH1 0x4 ADD PUSH2 0x2FC SWAP1 PUSH2 0x19AC JUMP JUMPDEST PUSH1 0x40 MLOAD DUP1 SWAP2 SUB SWAP1 REVERT JUMPDEST CALLER PUSH20 0xFFFFFFFFFFFFFFFFFFFFFFFFFFFFFFFFFFFFFFFF AND PUSH1 0x0 DUP1 DUP7 PUSH20 0xFFFFFFFFFFFFFFFFFFFFFFFFFFFFFFFFFFFFFFFF AND PUSH20 0xFFFFFFFFFFFFFFFFFFFFFFFFFFFFFFFFFFFFFFFF AND DUP2 MSTORE PUSH1 0x20 ADD SWAP1 DUP2 MSTORE PUSH1 0x20 ADD PUSH1 0x0 KECCAK256 PUSH1 0x1 ADD PUSH1 0x0 SWAP1 SLOAD SWAP1 PUSH2 0x100 EXP SWAP1 DIV PUSH20 0xFFFFFFFFFFFFFFFFFFFFFFFFFFFFFFFFFFFFFFFF AND PUSH20 0xFFFFFFFFFFFFFFFFFFFFFFFFFFFFFFFFFFFFFFFF AND EQ PUSH2 0x3D4 JUMPI PUSH1 0x40 MLOAD PUSH32 0x8C379A000000000000000000000000000000000000000000000000000000000 DUP2 MSTORE PUSH1 0x4 ADD PUSH2 0x3CB SWAP1 PUSH2 0x1A8C JUMP JUMPDEST PUSH1 0x40 MLOAD DUP1 SWAP2 SUB SWAP1 REVERT JUMPDEST PUSH1 0x1 PUSH1 0x3 DUP2 GT ISZERO PUSH2 0x3E8 JUMPI PUSH2 0x3E7 PUSH2 0x1CEF JUMP JUMPDEST JUMPDEST PUSH1 0x0 DUP1 DUP7 PUSH20 0xFFFFFFFFFFFFFFFFFFFFFFFFFFFFFFFFFFFFFFFF AND PUSH20 0xFFFFFFFFFFFFFFFFFFFFFFFFFFFFFFFFFFFFFFFF AND DUP2 MSTORE PUSH1 0x20 ADD SWAP1 DUP2 MSTORE PUSH1 0x20 ADD PUSH1 0x0 KECCAK256 PUSH1 0x7 ADD PUSH1 0x0 SWAP1 SLOAD SWAP1 PUSH2 0x100 EXP SWAP1 DIV PUSH1 0xFF AND PUSH1 0x3 DUP2 GT ISZERO PUSH2 0x449 JUMPI PUSH2 0x448 PUSH2 0x1CEF JUMP JUMPDEST JUMPDEST EQ PUSH2 0x489 JUMPI PUSH1 0x40 MLOAD PUSH32 0x8C379A000000000000000000000000000000000000000000000000000000000 DUP2 MSTORE PUSH1 0x4 ADD PUSH2 0x480 SWAP1 PUSH2 0x19CC JUMP JUMPDEST PUSH1 0x40 MLOAD DUP1 SWAP2 SUB SWAP1 REVERT JUMPDEST PUSH1 0x0 DUP1 PUSH1 0x0 DUP7 PUSH20 0xFFFFFFFFFFFFFFFFFFFFFFFFFFFFFFFFFFFFFFFF AND PUSH20 0xFFFFFFFFFFFFFFFFFFFFFFFFFFFFFFFFFFFFFFFF AND DUP2 MSTORE PUSH1 0x20 ADD SWAP1 DUP2 MSTORE PUSH1 0x20 ADD PUSH1 0x0 KECCAK256 PUSH1 0x2 ADD SLOAD SWAP1 POP DUP1 PUSH1 0x1 PUSH1 0x0 CALLER PUSH20 0xFFFFFFFFFFFFFFFFFFFFFFFFFFFFFFFFFFFFFFFF AND PUSH20 0xFFFFFFFFFFFFFFFFFFFFFFFFFFFFFFFFFFFFFFFF AND DUP2 MSTORE PUSH1 0x20 ADD SWAP1 DUP2 MSTORE PUSH1 0x20 ADD PUSH1 0x0 KECCAK256 SLOAD PUSH2 0x51A SWAP2 SWAP1 PUSH2 0x1B88 JUMP JUMPDEST PUSH1 0x1 PUSH1 0x0 CALLER PUSH20 0xFFFFFFFFFFFFFFFFFFFFFFFFFFFFFFFFFFFFFFFF AND PUSH20 0xFFFFFFFFFFFFFFFFFFFFFFFFFFFFFFFFFFFFFFFF AND DUP2 MSTORE PUSH1 0x20 ADD SWAP1 DUP2 MSTORE PUSH1 0x20 ADD PUSH1 0x0 KECCAK256 DUP2 SWAP1 SSTORE POP DUP6 PUSH1 0x0 DUP1 DUP8 PUSH20 0xFFFFFFFFFFFFFFFFFFFFFFFFFFFFFFFFFFFFFFFF AND PUSH20 0xFFFFFFFFFFFFFFFFFFFFFFFFFFFFFFFFFFFFFFFF AND DUP2 MSTORE PUSH1 0x20 ADD SWAP1 DUP2 MSTORE PUSH1 0x20 ADD PUSH1 0x0 KECCAK256 PUSH1 0x6 ADD DUP2 SWAP1 SSTORE POP PUSH1 0x2 PUSH1 0x0 DUP1 DUP8 PUSH20 0xFFFFFFFFFFFFFFFFFFFFFFFFFFFFFFFFFFFFFFFF AND PUSH20 0xFFFFFFFFFFFFFFFFFFFFFFFFFFFFFFFFFFFFFFFF AND DUP2 MSTORE PUSH1 0x20 ADD SWAP1 DUP2 MSTORE PUSH1 0x20 ADD PUSH1 0x0 KECCAK256 PUSH1 0x7 ADD PUSH1 0x0 PUSH2 0x100 EXP DUP2 SLOAD DUP2 PUSH1 0xFF MUL NOT AND SWAP1 DUP4 PUSH1 0x3 DUP2 GT ISZERO PUSH2 0x608 JUMPI PUSH2 0x607 PUSH2 0x1CEF JUMP JUMPDEST JUMPDEST MUL OR SWAP1 SSTORE POP POP POP POP POP POP POP JUMP JUMPDEST PUSH1 0x0 DUP1 PUSH1 0x0 DUP1 DUP5 PUSH20 0xFFFFFFFFFFFFFFFFFFFFFFFFFFFFFFFFFFFFFFFF AND PUSH20 0xFFFFFFFFFFFFFFFFFFFFFFFFFFFFFFFFFFFFFFFF AND DUP2 MSTORE PUSH1 0x20 ADD SWAP1 DUP2 MSTORE PUSH1 0x20 ADD PUSH1 0x0 KECCAK256 PUSH1 0x3 ADD SLOAD GT DUP1 ISZERO PUSH2 0x6A8 JUMPI POP PUSH1 0x0 DUP1 PUSH1 0x0 DUP5 PUSH20 0xFFFFFFFFFFFFFFFFFFFFFFFFFFFFFFFFFFFFFFFF AND PUSH20 0xFFFFFFFFFFFFFFFFFFFFFFFFFFFFFFFFFFFFFFFF AND DUP2 MSTORE PUSH1 0x20 ADD SWAP1 DUP2 MSTORE PUSH1 0x20 ADD PUSH1 0x0 KECCAK256 PUSH1 0x4 ADD SLOAD GT JUMPDEST PUSH2 0x6E7 JUMPI PUSH1 0x40 MLOAD PUSH32 0x8C379A000000000000000000000000000000000000000000000000000000000 DUP2 MSTORE PUSH1 0x4 ADD PUSH2 0x6DE SWAP1 PUSH2 0x1A0C JUMP JUMPDEST PUSH1 0x40 MLOAD DUP1 SWAP2 SUB SWAP1 REVERT JUMPDEST PUSH1 0x0 DUP1 PUSH1 0x0 DUP5 PUSH20 0xFFFFFFFFFFFFFFFFFFFFFFFFFFFFFFFFFFFFFFFF AND PUSH20 0xFFFFFFFFFFFFFFFFFFFFFFFFFFFFFFFFFFFFFFFF AND DUP2 MSTORE PUSH1 0x20 ADD SWAP1 DUP2 MSTORE PUSH1 0x20 ADD PUSH1 0x0 KECCAK256 PUSH1 0x1 ADD PUSH1 0x0 SWAP1 SLOAD SWAP1 PUSH2 0x100 EXP SWAP1 DIV PUSH20 0xFFFFFFFFFFFFFFFFFFFFFFFFFFFFFFFFFFFFFFFF AND SWAP1 POP PUSH1 0x0 DUP1 PUSH1 0x0 DUP6 PUSH20 0xFFFFFFFFFFFFFFFFFFFFFFFFFFFFFFFFFFFFFFFF AND PUSH20 0xFFFFFFFFFFFFFFFFFFFFFFFFFFFFFFFFFFFFFFFF AND DUP2 MSTORE PUSH1 0x20 ADD SWAP1 DUP2 MSTORE PUSH1 0x20 ADD PUSH1 0x0 KECCAK256 PUSH1 0x3 ADD SLOAD SWAP1 POP PUSH1 0x0 DUP1 PUSH1 0x0 DUP7 PUSH20 0xFFFFFFFFFFFFFFFFFFFFFFFFFFFFFFFFFFFFFFFF AND PUSH20 0xFFFFFFFFFFFFFFFFFFFFFFFFFFFFFFFFFFFFFFFF AND DUP2 MSTORE PUSH1 0x20 ADD SWAP1 DUP2 MSTORE PUSH1 0x20 ADD PUSH1 0x0 KECCAK256 PUSH1 0x4 ADD SLOAD SWAP1 POP PUSH1 0x0 DUP1 PUSH1 0x0 DUP8 PUSH20 0xFFFFFFFFFFFFFFFFFFFFFFFFFFFFFFFFFFFFFFFF AND PUSH20 0xFFFFFFFFFFFFFFFFFFFFFFFFFFFFFFFFFFFFFFFF AND DUP2 MSTORE PUSH1 0x20 ADD SWAP1 DUP2 MSTORE PUSH1 0x20 ADD PUSH1 0x0 KECCAK256 PUSH1 0x2 ADD SLOAD SWAP1 POP PUSH1 0x3 DUP3 DUP5 PUSH1 0x3 PUSH2 0x82F SWAP2 SWAP1 PUSH2 0x1AD8 JUMP JUMPDEST PUSH2 0x839 SWAP2 SWAP1 PUSH2 0x1B88 JUMP JUMPDEST PUSH2 0x843 SWAP2 SWAP1 PUSH2 0x1C60 JUMP JUMPDEST PUSH1 0x2 DUP2 GT ISZERO PUSH2 0x855 JUMPI PUSH2 0x854 PUSH2 0x1CEF JUMP JUMPDEST JUMPDEST SWAP5 POP PUSH1 0x0 PUSH1 0x2 DUP2 GT ISZERO PUSH2 0x86B JUMPI PUSH2 0x86A PUSH2 0x1CEF JUMP JUMPDEST JUMPDEST DUP6 PUSH1 0x2 DUP2 GT ISZERO PUSH2 0x87E JUMPI PUSH2 0x87D PUSH2 0x1CEF JUMP JUMPDEST JUMPDEST EQ ISZERO PUSH2 0x9A5 JUMPI DUP1 PUSH1 0x1 PUSH1 0x0 DUP9 PUSH20 0xFFFFFFFFFFFFFFFFFFFFFFFFFFFFFFFFFFFFFFFF AND PUSH20 0xFFFFFFFFFFFFFFFFFFFFFFFFFFFFFFFFFFFFFFFF AND DUP2 MSTORE PUSH1 0x20 ADD SWAP1 DUP2 MSTORE PUSH1 0x20 ADD PUSH1 0x0 KECCAK256 SLOAD PUSH2 0x8CF SWAP2 SWAP1 PUSH2 0x1AD8 JUMP JUMPDEST PUSH1 0x1 PUSH1 0x0 DUP9 PUSH20 0xFFFFFFFFFFFFFFFFFFFFFFFFFFFFFFFFFFFFFFFF AND PUSH20 0xFFFFFFFFFFFFFFFFFFFFFFFFFFFFFFFFFFFFFFFF AND DUP2 MSTORE PUSH1 0x20 ADD SWAP1 DUP2 MSTORE PUSH1 0x20 ADD PUSH1 0x0 KECCAK256 DUP2 SWAP1 SSTORE POP DUP1 PUSH1 0x1 PUSH1 0x0 DUP7 PUSH20 0xFFFFFFFFFFFFFFFFFFFFFFFFFFFFFFFFFFFFFFFF AND PUSH20 0xFFFFFFFFFFFFFFFFFFFFFFFFFFFFFFFFFFFFFFFF AND DUP2 MSTORE PUSH1 0x20 ADD SWAP1 DUP2 MSTORE PUSH1 0x20 ADD PUSH1 0x0 KECCAK256 SLOAD PUSH2 0x95D SWAP2 SWAP1 PUSH2 0x1AD8 JUMP JUMPDEST PUSH1 0x1 PUSH1 0x0 DUP7 PUSH20 0xFFFFFFFFFFFFFFFFFFFFFFFFFFFFFFFFFFFFFFFF AND PUSH20 0xFFFFFFFFFFFFFFFFFFFFFFFFFFFFFFFFFFFFFFFF AND DUP2 MSTORE PUSH1 0x20 ADD SWAP1 DUP2 MSTORE PUSH1 0x20 ADD PUSH1 0x0 KECCAK256 DUP2 SWAP1 SSTORE POP PUSH2 0xB79 JUMP JUMPDEST PUSH1 0x1 PUSH1 0x2 DUP2 GT ISZERO PUSH2 0x9B9 JUMPI PUSH2 0x9B8 PUSH2 0x1CEF JUMP JUMPDEST JUMPDEST DUP6 PUSH1 0x2 DUP2 GT ISZERO PUSH2 0x9CC JUMPI PUSH2 0x9CB PUSH2 0x1CEF JUMP JUMPDEST JUMPDEST EQ ISZERO PUSH2 0xA71 JUMPI PUSH1 0x2 DUP2 PUSH2 0x9DF SWAP2 SWAP1 PUSH2 0x1B2E JUMP JUMPDEST PUSH1 0x1 PUSH1 0x0 DUP9 PUSH20 0xFFFFFFFFFFFFFFFFFFFFFFFFFFFFFFFFFFFFFFFF AND PUSH20 0xFFFFFFFFFFFFFFFFFFFFFFFFFFFFFFFFFFFFFFFF AND DUP2 MSTORE PUSH1 0x20 ADD SWAP1 DUP2 MSTORE PUSH1 0x20 ADD PUSH1 0x0 KECCAK256 SLOAD PUSH2 0xA29 SWAP2 SWAP1 PUSH2 0x1AD8 JUMP JUMPDEST PUSH1 0x1 PUSH1 0x0 DUP9 PUSH20 0xFFFFFFFFFFFFFFFFFFFFFFFFFFFFFFFFFFFFFFFF AND PUSH20 0xFFFFFFFFFFFFFFFFFFFFFFFFFFFFFFFFFFFFFFFF AND DUP2 MSTORE PUSH1 0x20 ADD SWAP1 DUP2 MSTORE PUSH1 0x20 ADD PUSH1 0x0 KECCAK256 DUP2 SWAP1 SSTORE POP PUSH2 0xB78 JUMP JUMPDEST PUSH1 0x2 DUP1 DUP2 GT ISZERO PUSH2 0xA84 JUMPI PUSH2 0xA83 PUSH2 0x1CEF JUMP JUMPDEST JUMPDEST DUP6 PUSH1 0x2 DUP2 GT ISZERO PUSH2 0xA97 JUMPI PUSH2 0xA96 PUSH2 0x1CEF JUMP JUMPDEST JUMPDEST EQ ISZERO PUSH2 0xB3C JUMPI PUSH1 0x2 DUP2 PUSH2 0xAAA SWAP2 SWAP1 PUSH2 0x1B2E JUMP JUMPDEST PUSH1 0x1 PUSH1 0x0 DUP7 PUSH20 0xFFFFFFFFFFFFFFFFFFFFFFFFFFFFFFFFFFFFFFFF AND PUSH20 0xFFFFFFFFFFFFFFFFFFFFFFFFFFFFFFFFFFFFFFFF AND DUP2 MSTORE PUSH1 0x20 ADD SWAP1 DUP2 MSTORE PUSH1 0x20 ADD PUSH1 0x0 KECCAK256 SLOAD PUSH2 0xAF4 SWAP2 SWAP1 PUSH2 0x1AD8 JUMP JUMPDEST PUSH1 0x1 PUSH1 0x0 DUP7 PUSH20 0xFFFFFFFFFFFFFFFFFFFFFFFFFFFFFFFFFFFFFFFF AND PUSH20 0xFFFFFFFFFFFFFFFFFFFFFFFFFFFFFFFFFFFFFFFF AND DUP2 MSTORE PUSH1 0x20 ADD SWAP1 DUP2 MSTORE PUSH1 0x20 ADD PUSH1 0x0 KECCAK256 DUP2 SWAP1 SSTORE POP PUSH2 0xB77 JUMP JUMPDEST PUSH1 0x40 MLOAD PUSH32 0x8C379A000000000000000000000000000000000000000000000000000000000 DUP2 MSTORE PUSH1 0x4 ADD PUSH2 0xB6E SWAP1 PUSH2 0x194C JUMP JUMPDEST PUSH1 0x40 MLOAD DUP1 SWAP2 SUB SWAP1 REVERT JUMPDEST JUMPDEST JUMPDEST PUSH32 0x6D1A16000380C9ADDE391BCB46A92C2CE8C46811CFF002ED5DEC38DFDC2373CD DUP6 PUSH1 0x40 MLOAD PUSH2 0xBA8 SWAP2 SWAP1 PUSH2 0x1931 JUMP JUMPDEST PUSH1 0x40 MLOAD DUP1 SWAP2 SUB SWAP1 LOG1 POP POP POP POP SWAP2 SWAP1 POP JUMP JUMPDEST PUSH1 0x0 PUSH1 0x20 MSTORE DUP1 PUSH1 0x0 MSTORE PUSH1 0x40 PUSH1 0x0 KECCAK256 PUSH1 0x0 SWAP2 POP SWAP1 POP DUP1 PUSH1 0x0 ADD PUSH1 0x0 SWAP1 SLOAD SWAP1 PUSH2 0x100 EXP SWAP1 DIV PUSH20 0xFFFFFFFFFFFFFFFFFFFFFFFFFFFFFFFFFFFFFFFF AND SWAP1 DUP1 PUSH1 0x1 ADD PUSH1 0x0 SWAP1 SLOAD SWAP1 PUSH2 0x100 EXP SWAP1 DIV PUSH20 0xFFFFFFFFFFFFFFFFFFFFFFFFFFFFFFFFFFFFFFFF AND SWAP1 DUP1 PUSH1 0x2 ADD SLOAD SWAP1 DUP1 PUSH1 0x3 ADD SLOAD SWAP1 DUP1 PUSH1 0x4 ADD SLOAD SWAP1 DUP1 PUSH1 0x5 ADD SLOAD SWAP1 DUP1 PUSH1 0x6 ADD SLOAD SWAP1 DUP1 PUSH1 0x7 ADD PUSH1 0x0 SWAP1 SLOAD SWAP1 PUSH2 0x100 EXP SWAP1 DIV PUSH1 0xFF AND SWAP1 DUP1 PUSH1 0x7 ADD PUSH1 0x1 SWAP1 SLOAD SWAP1 PUSH2 0x100 EXP SWAP1 DIV PUSH1 0xFF AND SWAP1 POP DUP10 JUMP JUMPDEST PUSH1 0x1 PUSH1 0x20 MSTORE DUP1 PUSH1 0x0 MSTORE PUSH1 0x40 PUSH1 0x0 KECCAK256 PUSH1 0x0 SWAP2 POP SWAP1 POP SLOAD DUP2 JUMP JUMPDEST DUP3 DUP3 DUP3 PUSH1 0x0 DUP4 EQ ISZERO PUSH2 0xCC0 JUMPI PUSH1 0x40 MLOAD PUSH32 0x8C379A000000000000000000000000000000000000000000000000000000000 DUP2 MSTORE PUSH1 0x4 ADD PUSH2 0xCB7 SWAP1 PUSH2 0x196C JUMP JUMPDEST PUSH1 0x40 MLOAD DUP1 SWAP2 SUB SWAP1 REVERT JUMPDEST PUSH1 0x0 PUSH20 0xFFFFFFFFFFFFFFFFFFFFFFFFFFFFFFFFFFFFFFFF AND DUP3 PUSH20 0xFFFFFFFFFFFFFFFFFFFFFFFFFFFFFFFFFFFFFFFF AND EQ ISZERO DUP1 ISZERO PUSH2 0xD29 JUMPI POP CALLER PUSH20 0xFFFFFFFFFFFFFFFFFFFFFFFFFFFFFFFFFFFFFFFF AND DUP3 PUSH20 0xFFFFFFFFFFFFFFFFFFFFFFFFFFFFFFFFFFFFFFFF AND EQ ISZERO JUMPDEST PUSH2 0xD68 JUMPI PUSH1 0x40 MLOAD PUSH32 0x8C379A000000000000000000000000000000000000000000000000000000000 DUP2 MSTORE PUSH1 0x4 ADD PUSH2 0xD5F SWAP1 PUSH2 0x1A2C JUMP JUMPDEST PUSH1 0x40 MLOAD DUP1 SWAP2 SUB SWAP1 REVERT JUMPDEST PUSH1 0x1 PUSH1 0x0 CALLER PUSH20 0xFFFFFFFFFFFFFFFFFFFFFFFFFFFFFFFFFFFFFFFF AND PUSH20 0xFFFFFFFFFFFFFFFFFFFFFFFFFFFFFFFFFFFFFFFF AND DUP2 MSTORE PUSH1 0x20 ADD SWAP1 DUP2 MSTORE PUSH1 0x20 ADD PUSH1 0x0 KECCAK256 SLOAD DUP2 GT ISZERO PUSH2 0xDEA JUMPI PUSH1 0x40 MLOAD PUSH32 0x8C379A000000000000000000000000000000000000000000000000000000000 DUP2 MSTORE PUSH1 0x4 ADD PUSH2 0xDE1 SWAP1 PUSH2 0x19AC JUMP JUMPDEST PUSH1 0x40 MLOAD DUP1 SWAP2 SUB SWAP1 REVERT JUMPDEST PUSH1 0x0 PUSH1 0x3 DUP2 GT ISZERO PUSH2 0xDFE JUMPI PUSH2 0xDFD PUSH2 0x1CEF JUMP JUMPDEST JUMPDEST PUSH1 0x0 DUP1 CALLER PUSH20 0xFFFFFFFFFFFFFFFFFFFFFFFFFFFFFFFFFFFFFFFF AND PUSH20 0xFFFFFFFFFFFFFFFFFFFFFFFFFFFFFFFFFFFFFFFF AND DUP2 MSTORE PUSH1 0x20 ADD SWAP1 DUP2 MSTORE PUSH1 0x20 ADD PUSH1 0x0 KECCAK256 PUSH1 0x7 ADD PUSH1 0x0 SWAP1 SLOAD SWAP1 PUSH2 0x100 EXP SWAP1 DIV PUSH1 0xFF AND PUSH1 0x3 DUP2 GT ISZERO PUSH2 0xE5F JUMPI PUSH2 0xE5E PUSH2 0x1CEF JUMP JUMPDEST JUMPDEST EQ PUSH2 0xE9F JUMPI PUSH1 0x40 MLOAD PUSH32 0x8C379A000000000000000000000000000000000000000000000000000000000 DUP2 MSTORE PUSH1 0x4 ADD PUSH2 0xE96 SWAP1 PUSH2 0x1A4C JUMP JUMPDEST PUSH1 0x40 MLOAD DUP1 SWAP2 SUB SWAP1 REVERT JUMPDEST DUP4 PUSH1 0x1 PUSH1 0x0 CALLER PUSH20 0xFFFFFFFFFFFFFFFFFFFFFFFFFFFFFFFFFFFFFFFF AND PUSH20 0xFFFFFFFFFFFFFFFFFFFFFFFFFFFFFFFFFFFFFFFF AND DUP2 MSTORE PUSH1 0x20 ADD SWAP1 DUP2 MSTORE PUSH1 0x20 ADD PUSH1 0x0 KECCAK256 SLOAD PUSH2 0xEEA SWAP2 SWAP1 PUSH2 0x1B88 JUMP JUMPDEST PUSH1 0x1 PUSH1 0x0 CALLER PUSH20 0xFFFFFFFFFFFFFFFFFFFFFFFFFFFFFFFFFFFFFFFF AND PUSH20 0xFFFFFFFFFFFFFFFFFFFFFFFFFFFFFFFFFFFFFFFF AND DUP2 MSTORE PUSH1 0x20 ADD SWAP1 DUP2 MSTORE PUSH1 0x20 ADD PUSH1 0x0 KECCAK256 DUP2 SWAP1 SSTORE POP DUP6 PUSH1 0x0 DUP1 CALLER PUSH20 0xFFFFFFFFFFFFFFFFFFFFFFFFFFFFFFFFFFFFFFFF AND PUSH20 0xFFFFFFFFFFFFFFFFFFFFFFFFFFFFFFFFFFFFFFFF AND DUP2 MSTORE PUSH1 0x20 ADD SWAP1 DUP2 MSTORE PUSH1 0x20 ADD PUSH1 0x0 KECCAK256 PUSH1 0x5 ADD DUP2 SWAP1 SSTORE POP CALLER PUSH1 0x0 DUP1 CALLER PUSH20 0xFFFFFFFFFFFFFFFFFFFFFFFFFFFFFFFFFFFFFFFF AND PUSH20 0xFFFFFFFFFFFFFFFFFFFFFFFFFFFFFFFFFFFFFFFF AND DUP2 MSTORE PUSH1 0x20 ADD SWAP1 DUP2 MSTORE PUSH1 0x20 ADD PUSH1 0x0 KECCAK256 PUSH1 0x0 ADD PUSH1 0x0 PUSH2 0x100 EXP DUP2 SLOAD DUP2 PUSH20 0xFFFFFFFFFFFFFFFFFFFFFFFFFFFFFFFFFFFFFFFF MUL NOT AND SWAP1 DUP4 PUSH20 0xFFFFFFFFFFFFFFFFFFFFFFFFFFFFFFFFFFFFFFFF AND MUL OR SWAP1 SSTORE POP DUP5 PUSH1 0x0 DUP1 CALLER PUSH20 0xFFFFFFFFFFFFFFFFFFFFFFFFFFFFFFFFFFFFFFFF AND PUSH20 0xFFFFFFFFFFFFFFFFFFFFFFFFFFFFFFFFFFFFFFFF AND DUP2 MSTORE PUSH1 0x20 ADD SWAP1 DUP2 MSTORE PUSH1 0x20 ADD PUSH1 0x0 KECCAK256 PUSH1 0x1 ADD PUSH1 0x0 PUSH2 0x100 EXP DUP2 SLOAD DUP2 PUSH20 0xFFFFFFFFFFFFFFFFFFFFFFFFFFFFFFFFFFFFFFFF MUL NOT AND SWAP1 DUP4 PUSH20 0xFFFFFFFFFFFFFFFFFFFFFFFFFFFFFFFFFFFFFFFF AND MUL OR SWAP1 SSTORE POP DUP4 PUSH1 0x0 DUP1 CALLER PUSH20 0xFFFFFFFFFFFFFFFFFFFFFFFFFFFFFFFFFFFFFFFF AND PUSH20 0xFFFFFFFFFFFFFFFFFFFFFFFFFFFFFFFFFFFFFFFF AND DUP2 MSTORE PUSH1 0x20 ADD SWAP1 DUP2 MSTORE PUSH1 0x20 ADD PUSH1 0x0 KECCAK256 PUSH1 0x2 ADD DUP2 SWAP1 SSTORE POP PUSH1 0x1 PUSH1 0x0 DUP1 CALLER PUSH20 0xFFFFFFFFFFFFFFFFFFFFFFFFFFFFFFFFFFFFFFFF AND PUSH20 0xFFFFFFFFFFFFFFFFFFFFFFFFFFFFFFFFFFFFFFFF AND DUP2 MSTORE PUSH1 0x20 ADD SWAP1 DUP2 MSTORE PUSH1 0x20 ADD PUSH1 0x0 KECCAK256 PUSH1 0x7 ADD PUSH1 0x0 PUSH2 0x100 EXP DUP2 SLOAD DUP2 PUSH1 0xFF MUL NOT AND SWAP1 DUP4 PUSH1 0x3 DUP2 GT ISZERO PUSH2 0x111E JUMPI PUSH2 0x111D PUSH2 0x1CEF JUMP JUMPDEST JUMPDEST MUL OR SWAP1 SSTORE POP POP POP POP POP POP POP JUMP JUMPDEST PUSH1 0x2 PUSH1 0x3 DUP2 GT ISZERO PUSH2 0x113F JUMPI PUSH2 0x113E PUSH2 0x1CEF JUMP JUMPDEST JUMPDEST PUSH1 0x0 DUP1 DUP4 PUSH20 0xFFFFFFFFFFFFFFFFFFFFFFFFFFFFFFFFFFFFFFFF AND PUSH20 0xFFFFFFFFFFFFFFFFFFFFFFFFFFFFFFFFFFFFFFFF AND DUP2 MSTORE PUSH1 0x20 ADD SWAP1 DUP2 MSTORE PUSH1 0x20 ADD PUSH1 0x0 KECCAK256 PUSH1 0x7 ADD PUSH1 0x0 SWAP1 SLOAD SWAP1 PUSH2 0x100 EXP SWAP1 DIV PUSH1 0xFF AND PUSH1 0x3 DUP2 GT ISZERO PUSH2 0x11A0 JUMPI PUSH2 0x119F PUSH2 0x1CEF JUMP JUMPDEST JUMPDEST EQ PUSH2 0x11E0 JUMPI PUSH1 0x40 MLOAD PUSH32 0x8C379A000000000000000000000000000000000000000000000000000000000 DUP2 MSTORE PUSH1 0x4 ADD PUSH2 0x11D7 SWAP1 PUSH2 0x19EC JUMP JUMPDEST PUSH1 0x40 MLOAD DUP1 SWAP2 SUB SWAP1 REVERT JUMPDEST CALLER PUSH20 0xFFFFFFFFFFFFFFFFFFFFFFFFFFFFFFFFFFFFFFFF AND PUSH1 0x0 DUP1 DUP4 PUSH20 0xFFFFFFFFFFFFFFFFFFFFFFFFFFFFFFFFFFFFFFFF AND PUSH20 0xFFFFFFFFFFFFFFFFFFFFFFFFFFFFFFFFFFFFFFFF AND DUP2 MSTORE PUSH1 0x20 ADD SWAP1 DUP2 MSTORE PUSH1 0x20 ADD PUSH1 0x0 KECCAK256 PUSH1 0x0 ADD PUSH1 0x0 SWAP1 SLOAD SWAP1 PUSH2 0x100 EXP SWAP1 DIV PUSH20 0xFFFFFFFFFFFFFFFFFFFFFFFFFFFFFFFFFFFFFFFF AND PUSH20 0xFFFFFFFFFFFFFFFFFFFFFFFFFFFFFFFFFFFFFFFF AND EQ ISZERO PUSH2 0x134C JUMPI PUSH2 0x127F DUP4 DUP4 PUSH2 0x14F9 JUMP JUMPDEST PUSH1 0x0 DUP1 DUP4 PUSH20 0xFFFFFFFFFFFFFFFFFFFFFFFFFFFFFFFFFFFFFFFF AND PUSH20 0xFFFFFFFFFFFFFFFFFFFFFFFFFFFFFFFFFFFFFFFF AND DUP2 MSTORE PUSH1 0x20 ADD SWAP1 DUP2 MSTORE PUSH1 0x20 ADD PUSH1 0x0 KECCAK256 PUSH1 0x5 ADD SLOAD EQ PUSH2 0x1301 JUMPI PUSH1 0x40 MLOAD PUSH32 0x8C379A000000000000000000000000000000000000000000000000000000000 DUP2 MSTORE PUSH1 0x4 ADD PUSH2 0x12F8 SWAP1 PUSH2 0x1A6C JUMP JUMPDEST PUSH1 0x40 MLOAD DUP1 SWAP2 SUB SWAP1 REVERT JUMPDEST DUP3 PUSH1 0x0 DUP1 DUP4 PUSH20 0xFFFFFFFFFFFFFFFFFFFFFFFFFFFFFFFFFFFFFFFF AND PUSH20 0xFFFFFFFFFFFFFFFFFFFFFFFFFFFFFFFFFFFFFFFF AND DUP2 MSTORE PUSH1 0x20 ADD SWAP1 DUP2 MSTORE PUSH1 0x20 ADD PUSH1 0x0 KECCAK256 PUSH1 0x3 ADD DUP2 SWAP1 SSTORE POP PUSH2 0x14F4 JUMP JUMPDEST CALLER PUSH20 0xFFFFFFFFFFFFFFFFFFFFFFFFFFFFFFFFFFFFFFFF AND PUSH1 0x0 DUP1 DUP4 PUSH20 0xFFFFFFFFFFFFFFFFFFFFFFFFFFFFFFFFFFFFFFFF AND PUSH20 0xFFFFFFFFFFFFFFFFFFFFFFFFFFFFFFFFFFFFFFFF AND DUP2 MSTORE PUSH1 0x20 ADD SWAP1 DUP2 MSTORE PUSH1 0x20 ADD PUSH1 0x0 KECCAK256 PUSH1 0x1 ADD PUSH1 0x0 SWAP1 SLOAD SWAP1 PUSH2 0x100 EXP SWAP1 DIV PUSH20 0xFFFFFFFFFFFFFFFFFFFFFFFFFFFFFFFFFFFFFFFF AND PUSH20 0xFFFFFFFFFFFFFFFFFFFFFFFFFFFFFFFFFFFFFFFF AND EQ ISZERO PUSH2 0x14B8 JUMPI PUSH2 0x13EB DUP4 DUP4 PUSH2 0x14F9 JUMP JUMPDEST PUSH1 0x0 DUP1 DUP4 PUSH20 0xFFFFFFFFFFFFFFFFFFFFFFFFFFFFFFFFFFFFFFFF AND PUSH20 0xFFFFFFFFFFFFFFFFFFFFFFFFFFFFFFFFFFFFFFFF AND DUP2 MSTORE PUSH1 0x20 ADD SWAP1 DUP2 MSTORE PUSH1 0x20 ADD PUSH1 0x0 KECCAK256 PUSH1 0x6 ADD SLOAD EQ PUSH2 0x146D JUMPI PUSH1 0x40 MLOAD PUSH32 0x8C379A000000000000000000000000000000000000000000000000000000000 DUP2 MSTORE PUSH1 0x4 ADD PUSH2 0x1464 SWAP1 PUSH2 0x1A6C JUMP JUMPDEST PUSH1 0x40 MLOAD DUP1 SWAP2 SUB SWAP1 REVERT JUMPDEST DUP3 PUSH1 0x0 DUP1 DUP4 PUSH20 0xFFFFFFFFFFFFFFFFFFFFFFFFFFFFFFFFFFFFFFFF AND PUSH20 0xFFFFFFFFFFFFFFFFFFFFFFFFFFFFFFFFFFFFFFFF AND DUP2 MSTORE PUSH1 0x20 ADD SWAP1 DUP2 MSTORE PUSH1 0x20 ADD PUSH1 0x0 KECCAK256 PUSH1 0x4 ADD DUP2 SWAP1 SSTORE POP PUSH2 0x14F3 JUMP JUMPDEST PUSH1 0x40 MLOAD PUSH32 0x8C379A000000000000000000000000000000000000000000000000000000000 DUP2 MSTORE PUSH1 0x4 ADD PUSH2 0x14EA SWAP1 PUSH2 0x198C JUMP JUMPDEST PUSH1 0x40 MLOAD DUP1 SWAP2 SUB SWAP1 REVERT JUMPDEST JUMPDEST POP POP POP JUMP JUMPDEST PUSH1 0x0 DUP3 DUP3 PUSH1 0x40 MLOAD PUSH1 0x20 ADD PUSH2 0x150E SWAP3 SWAP2 SWAP1 PUSH2 0x1878 JUMP JUMPDEST PUSH1 0x40 MLOAD PUSH1 0x20 DUP2 DUP4 SUB SUB DUP2 MSTORE SWAP1 PUSH1 0x40 MSTORE DUP1 MLOAD SWAP1 PUSH1 0x20 ADD KECCAK256 SWAP1 POP SWAP3 SWAP2 POP POP JUMP JUMPDEST PUSH1 0x0 DUP2 CALLDATALOAD SWAP1 POP PUSH2 0x153B DUP2 PUSH2 0x1FCC JUMP JUMPDEST SWAP3 SWAP2 POP POP JUMP JUMPDEST PUSH1 0x0 DUP2 CALLDATALOAD SWAP1 POP PUSH2 0x1550 DUP2 PUSH2 0x1FE3 JUMP JUMPDEST SWAP3 SWAP2 POP POP JUMP JUMPDEST PUSH1 0x0 DUP2 CALLDATALOAD SWAP1 POP PUSH2 0x1565 DUP2 PUSH2 0x1FFA JUMP JUMPDEST SWAP3 SWAP2 POP POP JUMP JUMPDEST PUSH1 0x0 PUSH1 0x20 DUP3 DUP5 SUB SLT ISZERO PUSH2 0x1581 JUMPI PUSH2 0x1580 PUSH2 0x1D1E JUMP JUMPDEST JUMPDEST PUSH1 0x0 PUSH2 0x158F DUP5 DUP3 DUP6 ADD PUSH2 0x152C JUMP JUMPDEST SWAP2 POP POP SWAP3 SWAP2 POP POP JUMP JUMPDEST PUSH1 0x0 DUP1 PUSH1 0x40 DUP4 DUP6 SUB SLT ISZERO PUSH2 0x15AF JUMPI PUSH2 0x15AE PUSH2 0x1D1E JUMP JUMPDEST JUMPDEST PUSH1 0x0 PUSH2 0x15BD DUP6 DUP3 DUP7 ADD PUSH2 0x1541 JUMP JUMPDEST SWAP3 POP POP PUSH1 0x20 PUSH2 0x15CE DUP6 DUP3 DUP7 ADD PUSH2 0x152C JUMP JUMPDEST SWAP2 POP POP SWAP3 POP SWAP3 SWAP1 POP JUMP JUMPDEST PUSH1 0x0 DUP1 PUSH1 0x0 PUSH1 0x60 DUP5 DUP7 SUB SLT ISZERO PUSH2 0x15F1 JUMPI PUSH2 0x15F0 PUSH2 0x1D1E JUMP JUMPDEST JUMPDEST PUSH1 0x0 PUSH2 0x15FF DUP7 DUP3 DUP8 ADD PUSH2 0x1541 JUMP JUMPDEST SWAP4 POP POP PUSH1 0x20 PUSH2 0x1610 DUP7 DUP3 DUP8 ADD PUSH2 0x152C JUMP JUMPDEST SWAP3 POP POP PUSH1 0x40 PUSH2 0x1621 DUP7 DUP3 DUP8 ADD PUSH2 0x1556 JUMP JUMPDEST SWAP2 POP POP SWAP3 POP SWAP3 POP SWAP3 JUMP JUMPDEST PUSH1 0x0 DUP1 PUSH1 0x0 PUSH1 0x60 DUP5 DUP7 SUB SLT ISZERO PUSH2 0x1644 JUMPI PUSH2 0x1643 PUSH2 0x1D1E JUMP JUMPDEST JUMPDEST PUSH1 0x0 PUSH2 0x1652 DUP7 DUP3 DUP8 ADD PUSH2 0x1556 JUMP JUMPDEST SWAP4 POP POP PUSH1 0x20 PUSH2 0x1663 DUP7 DUP3 DUP8 ADD PUSH2 0x1541 JUMP JUMPDEST SWAP3 POP POP PUSH1 0x40 PUSH2 0x1674 DUP7 DUP3 DUP8 ADD PUSH2 0x152C JUMP JUMPDEST SWAP2 POP POP SWAP3 POP SWAP3 POP SWAP3 JUMP JUMPDEST PUSH2 0x1687 DUP2 PUSH2 0x1BBC JUMP JUMPDEST DUP3 MSTORE POP POP JUMP JUMPDEST PUSH2 0x1696 DUP2 PUSH2 0x1BCE JUMP JUMPDEST DUP3 MSTORE POP POP JUMP JUMPDEST PUSH2 0x16AD PUSH2 0x16A8 DUP3 PUSH2 0x1BCE JUMP JUMPDEST PUSH2 0x1C4C JUMP JUMPDEST DUP3 MSTORE POP POP JUMP JUMPDEST PUSH2 0x16BC DUP2 PUSH2 0x1C28 JUMP JUMPDEST DUP3 MSTORE POP POP JUMP JUMPDEST PUSH2 0x16CB DUP2 PUSH2 0x1C3A JUMP JUMPDEST DUP3 MSTORE POP POP JUMP JUMPDEST PUSH1 0x0 PUSH2 0x16DE PUSH1 0x14 DUP4 PUSH2 0x1AC7 JUMP JUMPDEST SWAP2 POP PUSH2 0x16E9 DUP3 PUSH2 0x1D23 JUMP JUMPDEST PUSH1 0x20 DUP3 ADD SWAP1 POP SWAP2 SWAP1 POP JUMP JUMPDEST PUSH1 0x0 PUSH2 0x1701 PUSH1 0x1A DUP4 PUSH2 0x1AC7 JUMP JUMPDEST SWAP2 POP PUSH2 0x170C DUP3 PUSH2 0x1D4C JUMP JUMPDEST PUSH1 0x20 DUP3 ADD SWAP1 POP SWAP2 SWAP1 POP JUMP JUMPDEST PUSH1 0x0 PUSH2 0x1724 PUSH1 0x16 DUP4 PUSH2 0x1AC7 JUMP JUMPDEST SWAP2 POP PUSH2 0x172F DUP3 PUSH2 0x1D75 JUMP JUMPDEST PUSH1 0x20 DUP3 ADD SWAP1 POP SWAP2 SWAP1 POP JUMP JUMPDEST PUSH1 0x0 PUSH2 0x1747 PUSH1 0x1E DUP4 PUSH2 0x1AC7 JUMP JUMPDEST SWAP2 POP PUSH2 0x1752 DUP3 PUSH2 0x1D9E JUMP JUMPDEST PUSH1 0x20 DUP3 ADD SWAP1 POP SWAP2 SWAP1 POP JUMP JUMPDEST PUSH1 0x0 PUSH2 0x176A PUSH1 0x34 DUP4 PUSH2 0x1AC7 JUMP JUMPDEST SWAP2 POP PUSH2 0x1775 DUP3 PUSH2 0x1DC7 JUMP JUMPDEST PUSH1 0x40 DUP3 ADD SWAP1 POP SWAP2 SWAP1 POP JUMP JUMPDEST PUSH1 0x0 PUSH2 0x178D PUSH1 0x3A DUP4 PUSH2 0x1AC7 JUMP JUMPDEST SWAP2 POP PUSH2 0x1798 DUP3 PUSH2 0x1E16 JUMP JUMPDEST PUSH1 0x40 DUP3 ADD SWAP1 POP SWAP2 SWAP1 POP JUMP JUMPDEST PUSH1 0x0 PUSH2 0x17B0 PUSH1 0x45 DUP4 PUSH2 0x1AC7 JUMP JUMPDEST SWAP2 POP PUSH2 0x17BB DUP3 PUSH2 0x1E65 JUMP JUMPDEST PUSH1 0x60 DUP3 ADD SWAP1 POP SWAP2 SWAP1 POP JUMP JUMPDEST PUSH1 0x0 PUSH2 0x17D3 PUSH1 0x1C DUP4 PUSH2 0x1AC7 JUMP JUMPDEST SWAP2 POP PUSH2 0x17DE DUP3 PUSH2 0x1EDA JUMP JUMPDEST PUSH1 0x20 DUP3 ADD SWAP1 POP SWAP2 SWAP1 POP JUMP JUMPDEST PUSH1 0x0 PUSH2 0x17F6 PUSH1 0x1B DUP4 PUSH2 0x1AC7 JUMP JUMPDEST SWAP2 POP PUSH2 0x1801 DUP3 PUSH2 0x1F03 JUMP JUMPDEST PUSH1 0x20 DUP3 ADD SWAP1 POP SWAP2 SWAP1 POP JUMP JUMPDEST PUSH1 0x0 PUSH2 0x1819 PUSH1 0x11 DUP4 PUSH2 0x1AC7 JUMP JUMPDEST SWAP2 POP PUSH2 0x1824 DUP3 PUSH2 0x1F2C JUMP JUMPDEST PUSH1 0x20 DUP3 ADD SWAP1 POP SWAP2 SWAP1 POP JUMP JUMPDEST PUSH1 0x0 PUSH2 0x183C PUSH1 0x22 DUP4 PUSH2 0x1AC7 JUMP JUMPDEST SWAP2 POP PUSH2 0x1847 DUP3 PUSH2 0x1F55 JUMP JUMPDEST PUSH1 0x40 DUP3 ADD SWAP1 POP SWAP2 SWAP1 POP JUMP JUMPDEST PUSH2 0x185B DUP2 PUSH2 0x1C1E JUMP JUMPDEST DUP3 MSTORE POP POP JUMP JUMPDEST PUSH2 0x1872 PUSH2 0x186D DUP3 PUSH2 0x1C1E JUMP JUMPDEST PUSH2 0x1C56 JUMP JUMPDEST DUP3 MSTORE POP POP JUMP JUMPDEST PUSH1 0x0 PUSH2 0x1884 DUP3 DUP6 PUSH2 0x1861 JUMP JUMPDEST PUSH1 0x20 DUP3 ADD SWAP2 POP PUSH2 0x1894 DUP3 DUP5 PUSH2 0x169C JUMP JUMPDEST PUSH1 0x20 DUP3 ADD SWAP2 POP DUP2 SWAP1 POP SWAP4 SWAP3 POP POP POP JUMP JUMPDEST PUSH1 0x0 PUSH2 0x120 DUP3 ADD SWAP1 POP PUSH2 0x18BA PUSH1 0x0 DUP4 ADD DUP13 PUSH2 0x167E JUMP JUMPDEST PUSH2 0x18C7 PUSH1 0x20 DUP4 ADD DUP12 PUSH2 0x167E JUMP JUMPDEST PUSH2 0x18D4 PUSH1 0x40 DUP4 ADD DUP11 PUSH2 0x1852 JUMP JUMPDEST PUSH2 0x18E1 PUSH1 0x60 DUP4 ADD DUP10 PUSH2 0x1852 JUMP JUMPDEST PUSH2 0x18EE PUSH1 0x80 DUP4 ADD DUP9 PUSH2 0x1852 JUMP JUMPDEST PUSH2 0x18FB PUSH1 0xA0 DUP4 ADD DUP8 PUSH2 0x168D JUMP JUMPDEST PUSH2 0x1908 PUSH1 0xC0 DUP4 ADD DUP7 PUSH2 0x168D JUMP JUMPDEST PUSH2 0x1915 PUSH1 0xE0 DUP4 ADD DUP6 PUSH2 0x16C2 JUMP JUMPDEST PUSH2 0x1923 PUSH2 0x100 DUP4 ADD DUP5 PUSH2 0x16B3 JUMP JUMPDEST SWAP11 SWAP10 POP POP POP POP POP POP POP POP POP POP JUMP JUMPDEST PUSH1 0x0 PUSH1 0x20 DUP3 ADD SWAP1 POP PUSH2 0x1946 PUSH1 0x0 DUP4 ADD DUP5 PUSH2 0x16B3 JUMP JUMPDEST SWAP3 SWAP2 POP POP JUMP JUMPDEST PUSH1 0x0 PUSH1 0x20 DUP3 ADD SWAP1 POP DUP2 DUP2 SUB PUSH1 0x0 DUP4 ADD MSTORE PUSH2 0x1965 DUP2 PUSH2 0x16D1 JUMP JUMPDEST SWAP1 POP SWAP2 SWAP1 POP JUMP JUMPDEST PUSH1 0x0 PUSH1 0x20 DUP3 ADD SWAP1 POP DUP2 DUP2 SUB PUSH1 0x0 DUP4 ADD MSTORE PUSH2 0x1985 DUP2 PUSH2 0x16F4 JUMP JUMPDEST SWAP1 POP SWAP2 SWAP1 POP JUMP JUMPDEST PUSH1 0x0 PUSH1 0x20 DUP3 ADD SWAP1 POP DUP2 DUP2 SUB PUSH1 0x0 DUP4 ADD MSTORE PUSH2 0x19A5 DUP2 PUSH2 0x1717 JUMP JUMPDEST SWAP1 POP SWAP2 SWAP1 POP JUMP JUMPDEST PUSH1 0x0 PUSH1 0x20 DUP3 ADD SWAP1 POP DUP2 DUP2 SUB PUSH1 0x0 DUP4 ADD MSTORE PUSH2 0x19C5 DUP2 PUSH2 0x173A JUMP JUMPDEST SWAP1 POP SWAP2 SWAP1 POP JUMP JUMPDEST PUSH1 0x0 PUSH1 0x20 DUP3 ADD SWAP1 POP DUP2 DUP2 SUB PUSH1 0x0 DUP4 ADD MSTORE PUSH2 0x19E5 DUP2 PUSH2 0x175D JUMP JUMPDEST SWAP1 POP SWAP2 SWAP1 POP JUMP JUMPDEST PUSH1 0x0 PUSH1 0x20 DUP3 ADD SWAP1 POP DUP2 DUP2 SUB PUSH1 0x0 DUP4 ADD MSTORE PUSH2 0x1A05 DUP2 PUSH2 0x1780 JUMP JUMPDEST SWAP1 POP SWAP2 SWAP1 POP JUMP JUMPDEST PUSH1 0x0 PUSH1 0x20 DUP3 ADD SWAP1 POP DUP2 DUP2 SUB PUSH1 0x0 DUP4 ADD MSTORE PUSH2 0x1A25 DUP2 PUSH2 0x17A3 JUMP JUMPDEST SWAP1 POP SWAP2 SWAP1 POP JUMP JUMPDEST PUSH1 0x0 PUSH1 0x20 DUP3 ADD SWAP1 POP DUP2 DUP2 SUB PUSH1 0x0 DUP4 ADD MSTORE PUSH2 0x1A45 DUP2 PUSH2 0x17C6 JUMP JUMPDEST SWAP1 POP SWAP2 SWAP1 POP JUMP JUMPDEST PUSH1 0x0 PUSH1 0x20 DUP3 ADD SWAP1 POP DUP2 DUP2 SUB PUSH1 0x0 DUP4 ADD MSTORE PUSH2 0x1A65 DUP2 PUSH2 0x17E9 JUMP JUMPDEST SWAP1 POP SWAP2 SWAP1 POP JUMP JUMPDEST PUSH1 0x0 PUSH1 0x20 DUP3 ADD SWAP1 POP DUP2 DUP2 SUB PUSH1 0x0 DUP4 ADD MSTORE PUSH2 0x1A85 DUP2 PUSH2 0x180C JUMP JUMPDEST SWAP1 POP SWAP2 SWAP1 POP JUMP JUMPDEST PUSH1 0x0 PUSH1 0x20 DUP3 ADD SWAP1 POP DUP2 DUP2 SUB PUSH1 0x0 DUP4 ADD MSTORE PUSH2 0x1AA5 DUP2 PUSH2 0x182F JUMP JUMPDEST SWAP1 POP SWAP2 SWAP1 POP JUMP JUMPDEST PUSH1 0x0 PUSH1 0x20 DUP3 ADD SWAP1 POP PUSH2 0x1AC1 PUSH1 0x0 DUP4 ADD DUP5 PUSH2 0x1852 JUMP JUMPDEST SWAP3 SWAP2 POP POP JUMP JUMPDEST PUSH1 0x0 DUP3 DUP3 MSTORE PUSH1 0x20 DUP3 ADD SWAP1 POP SWAP3 SWAP2 POP POP JUMP JUMPDEST PUSH1 0x0 PUSH2 0x1AE3 DUP3 PUSH2 0x1C1E JUMP JUMPDEST SWAP2 POP PUSH2 0x1AEE DUP4 PUSH2 0x1C1E JUMP JUMPDEST SWAP3 POP DUP3 PUSH32 0xFFFFFFFFFFFFFFFFFFFFFFFFFFFFFFFFFFFFFFFFFFFFFFFFFFFFFFFFFFFFFFFF SUB DUP3 GT ISZERO PUSH2 0x1B23 JUMPI PUSH2 0x1B22 PUSH2 0x1C91 JUMP JUMPDEST JUMPDEST DUP3 DUP3 ADD SWAP1 POP SWAP3 SWAP2 POP POP JUMP JUMPDEST PUSH1 0x0 PUSH2 0x1B39 DUP3 PUSH2 0x1C1E JUMP JUMPDEST SWAP2 POP PUSH2 0x1B44 DUP4 PUSH2 0x1C1E JUMP JUMPDEST SWAP3 POP DUP2 PUSH32 0xFFFFFFFFFFFFFFFFFFFFFFFFFFFFFFFFFFFFFFFFFFFFFFFFFFFFFFFFFFFFFFFF DIV DUP4 GT DUP3 ISZERO ISZERO AND ISZERO PUSH2 0x1B7D JUMPI PUSH2 0x1B7C PUSH2 0x1C91 JUMP JUMPDEST JUMPDEST DUP3 DUP3 MUL SWAP1 POP SWAP3 SWAP2 POP POP JUMP JUMPDEST PUSH1 0x0 PUSH2 0x1B93 DUP3 PUSH2 0x1C1E JUMP JUMPDEST SWAP2 POP PUSH2 0x1B9E DUP4 PUSH2 0x1C1E JUMP JUMPDEST SWAP3 POP DUP3 DUP3 LT ISZERO PUSH2 0x1BB1 JUMPI PUSH2 0x1BB0 PUSH2 0x1C91 JUMP JUMPDEST JUMPDEST DUP3 DUP3 SUB SWAP1 POP SWAP3 SWAP2 POP POP JUMP JUMPDEST PUSH1 0x0 PUSH2 0x1BC7 DUP3 PUSH2 0x1BFE JUMP JUMPDEST SWAP1 POP SWAP2 SWAP1 POP JUMP JUMPDEST PUSH1 0x0 DUP2 SWAP1 POP SWAP2 SWAP1 POP JUMP JUMPDEST PUSH1 0x0 DUP2 SWAP1 POP PUSH2 0x1BE6 DUP3 PUSH2 0x1FA4 JUMP JUMPDEST SWAP2 SWAP1 POP JUMP JUMPDEST PUSH1 0x0 DUP2 SWAP1 POP PUSH2 0x1BF9 DUP3 PUSH2 0x1FB8 JUMP JUMPDEST SWAP2 SWAP1 POP JUMP JUMPDEST PUSH1 0x0 PUSH20 0xFFFFFFFFFFFFFFFFFFFFFFFFFFFFFFFFFFFFFFFF DUP3 AND SWAP1 POP SWAP2 SWAP1 POP JUMP JUMPDEST PUSH1 0x0 DUP2 SWAP1 POP SWAP2 SWAP1 POP JUMP JUMPDEST PUSH1 0x0 PUSH2 0x1C33 DUP3 PUSH2 0x1BD8 JUMP JUMPDEST SWAP1 POP SWAP2 SWAP1 POP JUMP JUMPDEST PUSH1 0x0 PUSH2 0x1C45 DUP3 PUSH2 0x1BEB JUMP JUMPDEST SWAP1 POP SWAP2 SWAP1 POP JUMP JUMPDEST PUSH1 0x0 DUP2 SWAP1 POP SWAP2 SWAP1 POP JUMP JUMPDEST PUSH1 0x0 DUP2 SWAP1 POP SWAP2 SWAP1 POP JUMP JUMPDEST PUSH1 0x0 PUSH2 0x1C6B DUP3 PUSH2 0x1C1E JUMP JUMPDEST SWAP2 POP PUSH2 0x1C76 DUP4 PUSH2 0x1C1E JUMP JUMPDEST SWAP3 POP DUP3 PUSH2 0x1C86 JUMPI PUSH2 0x1C85 PUSH2 0x1CC0 JUMP JUMPDEST JUMPDEST DUP3 DUP3 MOD SWAP1 POP SWAP3 SWAP2 POP POP JUMP JUMPDEST PUSH32 0x4E487B7100000000000000000000000000000000000000000000000000000000 PUSH1 0x0 MSTORE PUSH1 0x11 PUSH1 0x4 MSTORE PUSH1 0x24 PUSH1 0x0 REVERT JUMPDEST PUSH32 0x4E487B7100000000000000000000000000000000000000000000000000000000 PUSH1 0x0 MSTORE PUSH1 0x12 PUSH1 0x4 MSTORE PUSH1 0x24 PUSH1 0x0 REVERT JUMPDEST PUSH32 0x4E487B7100000000000000000000000000000000000000000000000000000000 PUSH1 0x0 MSTORE PUSH1 0x21 PUSH1 0x4 MSTORE PUSH1 0x24 PUSH1 0x0 REVERT JUMPDEST PUSH1 0x0 DUP1 REVERT JUMPDEST PUSH32 0x496E76616C69642047616D65204F7574636F6D65000000000000000000000000 PUSH1 0x0 DUP3 ADD MSTORE POP JUMP JUMPDEST PUSH32 0x67616D65206861736820776173206E6F742070726F7669646564000000000000 PUSH1 0x0 DUP3 ADD MSTORE POP JUMP JUMPDEST PUSH32 0x50726F626C656D20776974682061646472657373657300000000000000000000 PUSH1 0x0 DUP3 ADD MSTORE POP JUMP JUMPDEST PUSH32 0x506C61796572732066756E64732061726520696E73756666696369656E740000 PUSH1 0x0 DUP3 ADD MSTORE POP JUMP JUMPDEST PUSH32 0x47616D65206E6F742073746172746564206F722068617320616C726561647920 PUSH1 0x0 DUP3 ADD MSTORE PUSH32 0x6265656E2070617274696369706174656420696E000000000000000000000000 PUSH1 0x20 DUP3 ADD MSTORE POP JUMP JUMPDEST PUSH32 0x47616D6520646F6573206E6F74206578697374206F7220706C61796572205477 PUSH1 0x0 DUP3 ADD MSTORE PUSH32 0x6F20686173206E6F7420706C6163656420612062657420796574000000000000 PUSH1 0x20 DUP3 ADD MSTORE POP JUMP JUMPDEST PUSH32 0x426F746820706C6179657273206E65656420746F2072657665616C2074686569 PUSH1 0x0 DUP3 ADD MSTORE PUSH32 0x722063686F696365206265666F72652067616D652063616E20626520636F6D70 PUSH1 0x20 DUP3 ADD MSTORE PUSH32 0x6C65746564000000000000000000000000000000000000000000000000000000 PUSH1 0x40 DUP3 ADD MSTORE POP JUMP JUMPDEST PUSH32 0x50726F626C656D2077697468206F7468657220706C617965722E2E2E00000000 PUSH1 0x0 DUP3 ADD MSTORE POP JUMP JUMPDEST PUSH32 0x50726F626C656D20776974682067616D65207374617475732E2E2E0000000000 PUSH1 0x0 DUP3 ADD MSTORE POP JUMP JUMPDEST PUSH32 0x70726F626C656D20776974682073616C74000000000000000000000000000000 PUSH1 0x0 DUP3 ADD MSTORE POP JUMP JUMPDEST PUSH32 0x596F7520617265206E6F7420506C61796572203220666F722074686973206761 PUSH1 0x0 DUP3 ADD MSTORE PUSH32 0x6D65000000000000000000000000000000000000000000000000000000000000 PUSH1 0x20 DUP3 ADD MSTORE POP JUMP JUMPDEST PUSH1 0x3 DUP2 LT PUSH2 0x1FB5 JUMPI PUSH2 0x1FB4 PUSH2 0x1CEF JUMP JUMPDEST JUMPDEST POP JUMP JUMPDEST PUSH1 0x4 DUP2 LT PUSH2 0x1FC9 JUMPI PUSH2 0x1FC8 PUSH2 0x1CEF JUMP JUMPDEST JUMPDEST POP JUMP JUMPDEST PUSH2 0x1FD5 DUP2 PUSH2 0x1BBC JUMP JUMPDEST DUP2 EQ PUSH2 0x1FE0 JUMPI PUSH1 0x0 DUP1 REVERT JUMPDEST POP JUMP JUMPDEST PUSH2 0x1FEC DUP2 PUSH2 0x1BCE JUMP JUMPDEST DUP2 EQ PUSH2 0x1FF7 JUMPI PUSH1 0x0 DUP1 REVERT JUMPDEST POP JUMP JUMPDEST PUSH2 0x2003 DUP2 PUSH2 0x1C1E JUMP JUMPDEST DUP2 EQ PUSH2 0x200E JUMPI PUSH1 0x0 DUP1 REVERT JUMPDEST POP JUMP INVALID LOG2 PUSH5 0x6970667358 0x22 SLT KECCAK256 GT ORIGIN DUP13 JUMPDEST 0xEE 0x4F EQ EXTCODECOPY LOG4 PUSH11 0x362FFC3E54F19697BAAAEE 0xD0 0xCA BYTE LOG2 CALLDATALOAD PUSH10 0x86495D6C8764736F6C63 NUMBER STOP ADDMOD SMOD STOP CALLER "
		},
		"gasEstimates": {
			"creation": {
				"codeDepositCost": "1652600",
				"executionCost": "1736",
				"totalCost": "1654336"
			},
			"external": {
				"endGame(address)": "infinite",
				"games(address)": "infinite",
				"participateGame(bytes32,address)": "infinite",
				"playerBalances(address)": "2858",
				"revealChoice(uint256,bytes32,address)": "infinite",
				"startGame(bytes32,address,uint256)": "infinite"
			},
			"internal": {
				"getSaltedHash(uint256,bytes32)": "infinite"
			}
		},
		"methodIdentifiers": {
			"endGame(address)": "2a035b6c",
			"games(address)": "79131a19",
			"participateGame(bytes32,address)": "01cf26e3",
			"playerBalances(address)": "7b38314c",
			"revealChoice(uint256,bytes32,address)": "c0dcf648",
			"startGame(bytes32,address,uint256)": "9f799d9c"
		}
	},
	"abi": [
		{
			"anonymous": false,
			"inputs": [
				{
					"indexed": false,
					"internalType": "enum RPS.GameOutcome",
					"name": "",
					"type": "uint8"
				}
			],
			"name": "GetGameOutcome",
			"type": "event"
		},
		{
			"inputs": [
				{
					"internalType": "address",
					"name": "playerOne",
					"type": "address"
				}
			],
			"name": "endGame",
			"outputs": [
				{
					"internalType": "enum RPS.GameOutcome",
					"name": "gameResult",
					"type": "uint8"
				}
			],
			"stateMutability": "nonpayable",
			"type": "function"
		},
		{
			"inputs": [
				{
					"internalType": "address",
					"name": "",
					"type": "address"
				}
			],
			"name": "games",
			"outputs": [
				{
					"internalType": "address",
					"name": "playerOne",
					"type": "address"
				},
				{
					"internalType": "address",
					"name": "playerTwo",
					"type": "address"
				},
				{
					"internalType": "uint256",
					"name": "stake",
					"type": "uint256"
				},
				{
					"internalType": "uint256",
					"name": "playerOneChoice",
					"type": "uint256"
				},
				{
					"internalType": "uint256",
					"name": "playerTwoChoice",
					"type": "uint256"
				},
				{
					"internalType": "bytes32",
					"name": "playerOneHash",
					"type": "bytes32"
				},
				{
					"internalType": "bytes32",
					"name": "playerTwoHash",
					"type": "bytes32"
				},
				{
					"internalType": "enum RPS.GameStatus",
					"name": "status",
					"type": "uint8"
				},
				{
					"internalType": "enum RPS.GameOutcome",
					"name": "outcome",
					"type": "uint8"
				}
			],
			"stateMutability": "view",
			"type": "function"
		},
		{
			"inputs": [
				{
					"internalType": "bytes32",
					"name": "gameHash",
					"type": "bytes32"
				},
				{
					"internalType": "address",
					"name": "opponent",
					"type": "address"
				}
			],
			"name": "participateGame",
			"outputs": [],
			"stateMutability": "nonpayable",
			"type": "function"
		},
		{
			"inputs": [
				{
					"internalType": "address",
					"name": "",
					"type": "address"
				}
			],
			"name": "playerBalances",
			"outputs": [
				{
					"internalType": "uint256",
					"name": "",
					"type": "uint256"
				}
			],
			"stateMutability": "view",
			"type": "function"
		},
		{
			"inputs": [
				{
					"internalType": "uint256",
					"name": "choice",
					"type": "uint256"
				},
				{
					"internalType": "bytes32",
					"name": "salt",
					"type": "bytes32"
				},
				{
					"internalType": "address",
					"name": "playerOne",
					"type": "address"
				}
			],
			"name": "revealChoice",
			"outputs": [],
			"stateMutability": "nonpayable",
			"type": "function"
		},
		{
			"inputs": [
				{
					"internalType": "bytes32",
					"name": "gameHash",
					"type": "bytes32"
				},
				{
					"internalType": "address",
					"name": "opponent",
					"type": "address"
				},
				{
					"internalType": "uint256",
					"name": "gameStake",
					"type": "uint256"
				}
			],
			"name": "startGame",
			"outputs": [],
			"stateMutability": "nonpayable",
			"type": "function"
		}
	]
}